{
	"PerpContract/Main.sol": {
		"PerpetualDEX": {
			"abi": [
				{
					"inputs": [
						{
							"internalType": "address",
							"name": "_priceFeedAddress",
							"type": "address"
						}
					],
					"stateMutability": "nonpayable",
					"type": "constructor"
				},
				{
					"inputs": [
						{
							"internalType": "address",
							"name": "owner",
							"type": "address"
						}
					],
					"name": "OwnableInvalidOwner",
					"type": "error"
				},
				{
					"inputs": [
						{
							"internalType": "address",
							"name": "account",
							"type": "address"
						}
					],
					"name": "OwnableUnauthorizedAccount",
					"type": "error"
				},
				{
					"anonymous": false,
					"inputs": [
						{
							"indexed": true,
							"internalType": "address",
							"name": "previousOwner",
							"type": "address"
						},
						{
							"indexed": true,
							"internalType": "address",
							"name": "newOwner",
							"type": "address"
						}
					],
					"name": "OwnershipTransferred",
					"type": "event"
				},
				{
					"inputs": [
						{
							"internalType": "uint256",
							"name": "_contractId",
							"type": "uint256"
						}
					],
					"name": "closeContract",
					"outputs": [],
					"stateMutability": "nonpayable",
					"type": "function"
				},
				{
					"inputs": [
						{
							"internalType": "address",
							"name": "",
							"type": "address"
						}
					],
					"name": "contractCount",
					"outputs": [
						{
							"internalType": "uint256",
							"name": "",
							"type": "uint256"
						}
					],
					"stateMutability": "view",
					"type": "function"
				},
				{
					"inputs": [
						{
							"internalType": "address",
							"name": "",
							"type": "address"
						},
						{
							"internalType": "uint256",
							"name": "",
							"type": "uint256"
						}
					],
					"name": "contracts",
					"outputs": [
						{
							"internalType": "address",
							"name": "longParty",
							"type": "address"
						},
						{
							"internalType": "bool",
							"name": "isBack",
							"type": "bool"
						},
						{
							"internalType": "uint256",
							"name": "quantity",
							"type": "uint256"
						},
						{
							"internalType": "uint256",
							"name": "fundingRate",
							"type": "uint256"
						},
						{
							"internalType": "bool",
							"name": "isOpen",
							"type": "bool"
						},
						{
							"internalType": "string",
							"name": "team",
							"type": "string"
						},
						{
							"internalType": "uint256",
							"name": "initialElo",
							"type": "uint256"
						}
					],
					"stateMutability": "view",
					"type": "function"
				},
				{
					"inputs": [],
					"name": "getBalance",
					"outputs": [
						{
							"internalType": "uint256",
							"name": "",
							"type": "uint256"
						}
					],
					"stateMutability": "view",
					"type": "function"
				},
				{
					"inputs": [],
					"name": "getEloRanking",
					"outputs": [
						{
							"internalType": "int256",
							"name": "",
							"type": "int256"
						}
					],
					"stateMutability": "view",
					"type": "function"
				},
				{
					"inputs": [
						{
							"internalType": "string",
							"name": "_team",
							"type": "string"
						}
					],
					"name": "openContract",
					"outputs": [],
					"stateMutability": "payable",
					"type": "function"
				},
				{
					"inputs": [],
					"name": "owner",
					"outputs": [
						{
							"internalType": "address",
							"name": "",
							"type": "address"
						}
					],
					"stateMutability": "view",
					"type": "function"
				},
				{
					"inputs": [],
					"name": "priceFeed",
					"outputs": [
						{
							"internalType": "contract AggregatorV3Interface",
							"name": "",
							"type": "address"
						}
					],
					"stateMutability": "view",
					"type": "function"
				},
				{
					"inputs": [
						{
							"internalType": "string",
							"name": "",
							"type": "string"
						}
					],
					"name": "rankings",
					"outputs": [
						{
							"internalType": "uint256",
							"name": "",
							"type": "uint256"
						}
					],
					"stateMutability": "view",
					"type": "function"
				},
				{
					"inputs": [],
					"name": "renounceOwnership",
					"outputs": [],
					"stateMutability": "nonpayable",
					"type": "function"
				},
				{
					"inputs": [
						{
							"internalType": "address",
							"name": "newOwner",
							"type": "address"
						}
					],
					"name": "transferOwnership",
					"outputs": [],
					"stateMutability": "nonpayable",
					"type": "function"
				},
				{
					"inputs": [
						{
							"internalType": "uint256",
							"name": "_newRate",
							"type": "uint256"
						},
						{
							"internalType": "address",
							"name": "_shortParty",
							"type": "address"
						},
						{
							"internalType": "uint256",
							"name": "_contractId",
							"type": "uint256"
						}
					],
					"name": "updateFundingRate",
					"outputs": [],
					"stateMutability": "nonpayable",
					"type": "function"
				}
			],
			"devdoc": {
				"errors": {
					"OwnableInvalidOwner(address)": [
						{
							"details": "The owner is not a valid owner account. (eg. `address(0)`)"
						}
					],
					"OwnableUnauthorizedAccount(address)": [
						{
							"details": "The caller account is not authorized to perform an operation."
						}
					]
				},
				"kind": "dev",
				"methods": {
					"owner()": {
						"details": "Returns the address of the current owner."
					},
					"renounceOwnership()": {
						"details": "Leaves the contract without owner. It will not be possible to call `onlyOwner` functions. Can only be called by the current owner. NOTE: Renouncing ownership will leave the contract without an owner, thereby disabling any functionality that is only available to the owner."
					},
					"transferOwnership(address)": {
						"details": "Transfers ownership of the contract to a new account (`newOwner`). Can only be called by the current owner."
					}
				},
				"version": 1
			},
			"evm": {
				"assembly": "    /* \"PerpContract/Main.sol\":256:3751  contract PerpetualDEX is Ownable {... */\n  mstore(0x40, 0x80)\n    /* \"PerpContract/Main.sol\":1056:1062  100000 */\n  0x0186a0\n    /* \"PerpContract/Main.sol\":1036:1062  uint256 totalPool = 100000 */\n  0x05\n  sstore\n    /* \"PerpContract/Main.sol\":1161:1442  constructor(address _priceFeedAddress) Ownable(msg.sender) {... */\n  callvalue\n  dup1\n  iszero\n  tag_1\n  jumpi\n  0x00\n  dup1\n  revert\ntag_1:\n  pop\n  mload(0x40)\n  sub(codesize, bytecodeSize)\n  dup1\n  bytecodeSize\n  dup4\n  codecopy\n  dup2\n  dup2\n  add\n  0x40\n  mstore\n  dup2\n  add\n  swap1\n  tag_2\n  swap2\n  swap1\n  tag_3\n  jump\t// in\ntag_2:\n    /* \"PerpContract/Main.sol\":1208:1218  msg.sender */\n  caller\n    /* \"@openzeppelin/contracts/access/Ownable.sol\":1297:1298  0 */\n  0x00\n    /* \"@openzeppelin/contracts/access/Ownable.sol\":1273:1299  initialOwner == address(0) */\n  0xffffffffffffffffffffffffffffffffffffffff\n  and\n    /* \"@openzeppelin/contracts/access/Ownable.sol\":1273:1285  initialOwner */\n  dup2\n    /* \"@openzeppelin/contracts/access/Ownable.sol\":1273:1299  initialOwner == address(0) */\n  0xffffffffffffffffffffffffffffffffffffffff\n  and\n  sub\n    /* \"@openzeppelin/contracts/access/Ownable.sol\":1269:1364  if (initialOwner == address(0)) {... */\n  tag_7\n  jumpi\n    /* \"@openzeppelin/contracts/access/Ownable.sol\":1350:1351  0 */\n  0x00\n    /* \"@openzeppelin/contracts/access/Ownable.sol\":1322:1353  OwnableInvalidOwner(address(0)) */\n  mload(0x40)\n  0x1e4fbdf700000000000000000000000000000000000000000000000000000000\n  dup2\n  mstore\n  0x04\n  add\n  tag_8\n  swap2\n  swap1\n  tag_9\n  jump\t// in\ntag_8:\n  mload(0x40)\n  dup1\n  swap2\n  sub\n  swap1\n  revert\n    /* \"@openzeppelin/contracts/access/Ownable.sol\":1269:1364  if (initialOwner == address(0)) {... */\ntag_7:\n    /* \"@openzeppelin/contracts/access/Ownable.sol\":1373:1405  _transferOwnership(initialOwner) */\n  tag_10\n    /* \"@openzeppelin/contracts/access/Ownable.sol\":1392:1404  initialOwner */\n  dup2\n    /* \"@openzeppelin/contracts/access/Ownable.sol\":1373:1391  _transferOwnership */\n  shl(0x20, tag_11)\n    /* \"@openzeppelin/contracts/access/Ownable.sol\":1373:1405  _transferOwnership(initialOwner) */\n  0x20\n  shr\n  jump\t// in\ntag_10:\n    /* \"@openzeppelin/contracts/access/Ownable.sol\":1225:1412  constructor(address initialOwner) {... */\n  pop\n    /* \"PerpContract/Main.sol\":1265:1282  _priceFeedAddress */\n  dup1\n    /* \"PerpContract/Main.sol\":1231:1240  priceFeed */\n  0x06\n  0x00\n    /* \"PerpContract/Main.sol\":1231:1283  priceFeed = AggregatorV3Interface(_priceFeedAddress) */\n  0x0100\n  exp\n  dup2\n  sload\n  dup2\n  0xffffffffffffffffffffffffffffffffffffffff\n  mul\n  not\n  and\n  swap1\n  dup4\n  0xffffffffffffffffffffffffffffffffffffffff\n  and\n  mul\n  or\n  swap1\n  sstore\n  pop\n    /* \"PerpContract/Main.sol\":1353:1357  1900 */\n  0x076c\n    /* \"PerpContract/Main.sol\":1331:1339  rankings */\n  0x04\n    /* \"PerpContract/Main.sol\":1331:1350  rankings[\"Arsenal\"] */\n  mload(0x40)\n  tag_13\n  swap1\n  tag_14\n  jump\t// in\ntag_13:\n  swap1\n  dup2\n  mstore\n  0x20\n  add\n  mload(0x40)\n  dup1\n  swap2\n  sub\n  swap1\n  keccak256\n    /* \"PerpContract/Main.sol\":1331:1357  rankings[\"Arsenal\"] = 1900 */\n  dup2\n  swap1\n  sstore\n  pop\n    /* \"PerpContract/Main.sol\":1390:1394  2000 */\n  0x07d0\n    /* \"PerpContract/Main.sol\":1368:1376  rankings */\n  0x04\n    /* \"PerpContract/Main.sol\":1368:1387  rankings[\"Chelsea\"] */\n  mload(0x40)\n  tag_15\n  swap1\n  tag_16\n  jump\t// in\ntag_15:\n  swap1\n  dup2\n  mstore\n  0x20\n  add\n  mload(0x40)\n  dup1\n  swap2\n  sub\n  swap1\n  keccak256\n    /* \"PerpContract/Main.sol\":1368:1394  rankings[\"Chelsea\"] = 2000 */\n  dup2\n  swap1\n  sstore\n  pop\n    /* \"PerpContract/Main.sol\":1428:1432  1800 */\n  0x0708\n    /* \"PerpContract/Main.sol\":1405:1413  rankings */\n  0x04\n    /* \"PerpContract/Main.sol\":1405:1425  rankings[\"Man City\"] */\n  mload(0x40)\n  tag_17\n  swap1\n  tag_18\n  jump\t// in\ntag_17:\n  swap1\n  dup2\n  mstore\n  0x20\n  add\n  mload(0x40)\n  dup1\n  swap2\n  sub\n  swap1\n  keccak256\n    /* \"PerpContract/Main.sol\":1405:1432  rankings[\"Man City\"] = 1800 */\n  dup2\n  swap1\n  sstore\n  pop\n    /* \"PerpContract/Main.sol\":1161:1442  constructor(address _priceFeedAddress) Ownable(msg.sender) {... */\n  pop\n    /* \"PerpContract/Main.sol\":256:3751  contract PerpetualDEX is Ownable {... */\n  jump(tag_19)\n    /* \"@openzeppelin/contracts/access/Ownable.sol\":2912:3099  function _transferOwnership(address newOwner) internal virtual {... */\ntag_11:\n    /* \"@openzeppelin/contracts/access/Ownable.sol\":2985:3001  address oldOwner */\n  0x00\n    /* \"@openzeppelin/contracts/access/Ownable.sol\":3004:3010  _owner */\n  dup1\n  0x00\n  swap1\n  sload\n  swap1\n  0x0100\n  exp\n  swap1\n  div\n  0xffffffffffffffffffffffffffffffffffffffff\n  and\n    /* \"@openzeppelin/contracts/access/Ownable.sol\":2985:3010  address oldOwner = _owner */\n  swap1\n  pop\n    /* \"@openzeppelin/contracts/access/Ownable.sol\":3029:3037  newOwner */\n  dup2\n    /* \"@openzeppelin/contracts/access/Ownable.sol\":3020:3026  _owner */\n  0x00\n  dup1\n    /* \"@openzeppelin/contracts/access/Ownable.sol\":3020:3037  _owner = newOwner */\n  0x0100\n  exp\n  dup2\n  sload\n  dup2\n  0xffffffffffffffffffffffffffffffffffffffff\n  mul\n  not\n  and\n  swap1\n  dup4\n  0xffffffffffffffffffffffffffffffffffffffff\n  and\n  mul\n  or\n  swap1\n  sstore\n  pop\n    /* \"@openzeppelin/contracts/access/Ownable.sol\":3083:3091  newOwner */\n  dup2\n    /* \"@openzeppelin/contracts/access/Ownable.sol\":3052:3092  OwnershipTransferred(oldOwner, newOwner) */\n  0xffffffffffffffffffffffffffffffffffffffff\n  and\n    /* \"@openzeppelin/contracts/access/Ownable.sol\":3073:3081  oldOwner */\n  dup2\n    /* \"@openzeppelin/contracts/access/Ownable.sol\":3052:3092  OwnershipTransferred(oldOwner, newOwner) */\n  0xffffffffffffffffffffffffffffffffffffffff\n  and\n  0x8be0079c531659141344cd1fd0a4f28419497f9722a3daafe3b4186f6b6457e0\n  mload(0x40)\n  mload(0x40)\n  dup1\n  swap2\n  sub\n  swap1\n  log3\n    /* \"@openzeppelin/contracts/access/Ownable.sol\":2975:3099  {... */\n  pop\n    /* \"@openzeppelin/contracts/access/Ownable.sol\":2912:3099  function _transferOwnership(address newOwner) internal virtual {... */\n  pop\n  jump\t// out\n    /* \"#utility.yul\":88:205   */\ntag_22:\n    /* \"#utility.yul\":197:198   */\n  0x00\n    /* \"#utility.yul\":194:195   */\n  dup1\n    /* \"#utility.yul\":187:199   */\n  revert\n    /* \"#utility.yul\":334:460   */\ntag_24:\n    /* \"#utility.yul\":371:378   */\n  0x00\n    /* \"#utility.yul\":411:453   */\n  0xffffffffffffffffffffffffffffffffffffffff\n    /* \"#utility.yul\":404:409   */\n  dup3\n    /* \"#utility.yul\":400:454   */\n  and\n    /* \"#utility.yul\":389:454   */\n  swap1\n  pop\n    /* \"#utility.yul\":334:460   */\n  swap2\n  swap1\n  pop\n  jump\t// out\n    /* \"#utility.yul\":466:562   */\ntag_25:\n    /* \"#utility.yul\":503:510   */\n  0x00\n    /* \"#utility.yul\":532:556   */\n  tag_42\n    /* \"#utility.yul\":550:555   */\n  dup3\n    /* \"#utility.yul\":532:556   */\n  tag_24\n  jump\t// in\ntag_42:\n    /* \"#utility.yul\":521:556   */\n  swap1\n  pop\n    /* \"#utility.yul\":466:562   */\n  swap2\n  swap1\n  pop\n  jump\t// out\n    /* \"#utility.yul\":568:690   */\ntag_26:\n    /* \"#utility.yul\":641:665   */\n  tag_44\n    /* \"#utility.yul\":659:664   */\n  dup2\n    /* \"#utility.yul\":641:665   */\n  tag_25\n  jump\t// in\ntag_44:\n    /* \"#utility.yul\":634:639   */\n  dup2\n    /* \"#utility.yul\":631:666   */\n  eq\n    /* \"#utility.yul\":621:684   */\n  tag_45\n  jumpi\n    /* \"#utility.yul\":680:681   */\n  0x00\n    /* \"#utility.yul\":677:678   */\n  dup1\n    /* \"#utility.yul\":670:682   */\n  revert\n    /* \"#utility.yul\":621:684   */\ntag_45:\n    /* \"#utility.yul\":568:690   */\n  pop\n  jump\t// out\n    /* \"#utility.yul\":696:839   */\ntag_27:\n    /* \"#utility.yul\":753:758   */\n  0x00\n    /* \"#utility.yul\":784:790   */\n  dup2\n    /* \"#utility.yul\":778:791   */\n  mload\n    /* \"#utility.yul\":769:791   */\n  swap1\n  pop\n    /* \"#utility.yul\":800:833   */\n  tag_47\n    /* \"#utility.yul\":827:832   */\n  dup2\n    /* \"#utility.yul\":800:833   */\n  tag_26\n  jump\t// in\ntag_47:\n    /* \"#utility.yul\":696:839   */\n  swap3\n  swap2\n  pop\n  pop\n  jump\t// out\n    /* \"#utility.yul\":845:1196   */\ntag_3:\n    /* \"#utility.yul\":915:921   */\n  0x00\n    /* \"#utility.yul\":964:966   */\n  0x20\n    /* \"#utility.yul\":952:961   */\n  dup3\n    /* \"#utility.yul\":943:950   */\n  dup5\n    /* \"#utility.yul\":939:962   */\n  sub\n    /* \"#utility.yul\":935:967   */\n  slt\n    /* \"#utility.yul\":932:1051   */\n  iszero\n  tag_49\n  jumpi\n    /* \"#utility.yul\":970:1049   */\n  tag_50\n  tag_22\n  jump\t// in\ntag_50:\n    /* \"#utility.yul\":932:1051   */\ntag_49:\n    /* \"#utility.yul\":1090:1091   */\n  0x00\n    /* \"#utility.yul\":1115:1179   */\n  tag_51\n    /* \"#utility.yul\":1171:1178   */\n  dup5\n    /* \"#utility.yul\":1162:1168   */\n  dup3\n    /* \"#utility.yul\":1151:1160   */\n  dup6\n    /* \"#utility.yul\":1147:1169   */\n  add\n    /* \"#utility.yul\":1115:1179   */\n  tag_27\n  jump\t// in\ntag_51:\n    /* \"#utility.yul\":1105:1179   */\n  swap2\n  pop\n    /* \"#utility.yul\":1061:1189   */\n  pop\n    /* \"#utility.yul\":845:1196   */\n  swap3\n  swap2\n  pop\n  pop\n  jump\t// out\n    /* \"#utility.yul\":1202:1320   */\ntag_28:\n    /* \"#utility.yul\":1289:1313   */\n  tag_53\n    /* \"#utility.yul\":1307:1312   */\n  dup2\n    /* \"#utility.yul\":1289:1313   */\n  tag_25\n  jump\t// in\ntag_53:\n    /* \"#utility.yul\":1284:1287   */\n  dup3\n    /* \"#utility.yul\":1277:1314   */\n  mstore\n    /* \"#utility.yul\":1202:1320   */\n  pop\n  pop\n  jump\t// out\n    /* \"#utility.yul\":1326:1548   */\ntag_9:\n    /* \"#utility.yul\":1419:1423   */\n  0x00\n    /* \"#utility.yul\":1457:1459   */\n  0x20\n    /* \"#utility.yul\":1446:1455   */\n  dup3\n    /* \"#utility.yul\":1442:1460   */\n  add\n    /* \"#utility.yul\":1434:1460   */\n  swap1\n  pop\n    /* \"#utility.yul\":1470:1541   */\n  tag_55\n    /* \"#utility.yul\":1538:1539   */\n  0x00\n    /* \"#utility.yul\":1527:1536   */\n  dup4\n    /* \"#utility.yul\":1523:1540   */\n  add\n    /* \"#utility.yul\":1514:1520   */\n  dup5\n    /* \"#utility.yul\":1470:1541   */\n  tag_28\n  jump\t// in\ntag_55:\n    /* \"#utility.yul\":1326:1548   */\n  swap3\n  swap2\n  pop\n  pop\n  jump\t// out\n    /* \"#utility.yul\":1554:1702   */\ntag_29:\n    /* \"#utility.yul\":1656:1667   */\n  0x00\n    /* \"#utility.yul\":1693:1696   */\n  dup2\n    /* \"#utility.yul\":1678:1696   */\n  swap1\n  pop\n    /* \"#utility.yul\":1554:1702   */\n  swap3\n  swap2\n  pop\n  pop\n  jump\t// out\n    /* \"#utility.yul\":1708:1865   */\ntag_30:\n    /* \"#utility.yul\":1848:1857   */\n  0x417273656e616c00000000000000000000000000000000000000000000000000\n    /* \"#utility.yul\":1844:1845   */\n  0x00\n    /* \"#utility.yul\":1836:1842   */\n  dup3\n    /* \"#utility.yul\":1832:1846   */\n  add\n    /* \"#utility.yul\":1825:1858   */\n  mstore\n    /* \"#utility.yul\":1708:1865   */\n  pop\n  jump\t// out\n    /* \"#utility.yul\":1871:2271   */\ntag_31:\n    /* \"#utility.yul\":2031:2034   */\n  0x00\n    /* \"#utility.yul\":2052:2136   */\n  tag_59\n    /* \"#utility.yul\":2134:2135   */\n  0x07\n    /* \"#utility.yul\":2129:2132   */\n  dup4\n    /* \"#utility.yul\":2052:2136   */\n  tag_29\n  jump\t// in\ntag_59:\n    /* \"#utility.yul\":2045:2136   */\n  swap2\n  pop\n    /* \"#utility.yul\":2145:2238   */\n  tag_60\n    /* \"#utility.yul\":2234:2237   */\n  dup3\n    /* \"#utility.yul\":2145:2238   */\n  tag_30\n  jump\t// in\ntag_60:\n    /* \"#utility.yul\":2263:2264   */\n  0x07\n    /* \"#utility.yul\":2258:2261   */\n  dup3\n    /* \"#utility.yul\":2254:2265   */\n  add\n    /* \"#utility.yul\":2247:2265   */\n  swap1\n  pop\n    /* \"#utility.yul\":1871:2271   */\n  swap2\n  swap1\n  pop\n  jump\t// out\n    /* \"#utility.yul\":2277:2658   */\ntag_14:\n    /* \"#utility.yul\":2462:2465   */\n  0x00\n    /* \"#utility.yul\":2484:2632   */\n  tag_62\n    /* \"#utility.yul\":2628:2631   */\n  dup3\n    /* \"#utility.yul\":2484:2632   */\n  tag_31\n  jump\t// in\ntag_62:\n    /* \"#utility.yul\":2477:2632   */\n  swap2\n  pop\n    /* \"#utility.yul\":2649:2652   */\n  dup2\n    /* \"#utility.yul\":2642:2652   */\n  swap1\n  pop\n    /* \"#utility.yul\":2277:2658   */\n  swap2\n  swap1\n  pop\n  jump\t// out\n    /* \"#utility.yul\":2664:2821   */\ntag_32:\n    /* \"#utility.yul\":2804:2813   */\n  0x4368656c73656100000000000000000000000000000000000000000000000000\n    /* \"#utility.yul\":2800:2801   */\n  0x00\n    /* \"#utility.yul\":2792:2798   */\n  dup3\n    /* \"#utility.yul\":2788:2802   */\n  add\n    /* \"#utility.yul\":2781:2814   */\n  mstore\n    /* \"#utility.yul\":2664:2821   */\n  pop\n  jump\t// out\n    /* \"#utility.yul\":2827:3227   */\ntag_33:\n    /* \"#utility.yul\":2987:2990   */\n  0x00\n    /* \"#utility.yul\":3008:3092   */\n  tag_65\n    /* \"#utility.yul\":3090:3091   */\n  0x07\n    /* \"#utility.yul\":3085:3088   */\n  dup4\n    /* \"#utility.yul\":3008:3092   */\n  tag_29\n  jump\t// in\ntag_65:\n    /* \"#utility.yul\":3001:3092   */\n  swap2\n  pop\n    /* \"#utility.yul\":3101:3194   */\n  tag_66\n    /* \"#utility.yul\":3190:3193   */\n  dup3\n    /* \"#utility.yul\":3101:3194   */\n  tag_32\n  jump\t// in\ntag_66:\n    /* \"#utility.yul\":3219:3220   */\n  0x07\n    /* \"#utility.yul\":3214:3217   */\n  dup3\n    /* \"#utility.yul\":3210:3221   */\n  add\n    /* \"#utility.yul\":3203:3221   */\n  swap1\n  pop\n    /* \"#utility.yul\":2827:3227   */\n  swap2\n  swap1\n  pop\n  jump\t// out\n    /* \"#utility.yul\":3233:3614   */\ntag_16:\n    /* \"#utility.yul\":3418:3421   */\n  0x00\n    /* \"#utility.yul\":3440:3588   */\n  tag_68\n    /* \"#utility.yul\":3584:3587   */\n  dup3\n    /* \"#utility.yul\":3440:3588   */\n  tag_33\n  jump\t// in\ntag_68:\n    /* \"#utility.yul\":3433:3588   */\n  swap2\n  pop\n    /* \"#utility.yul\":3605:3608   */\n  dup2\n    /* \"#utility.yul\":3598:3608   */\n  swap1\n  pop\n    /* \"#utility.yul\":3233:3614   */\n  swap2\n  swap1\n  pop\n  jump\t// out\n    /* \"#utility.yul\":3620:3778   */\ntag_34:\n    /* \"#utility.yul\":3760:3770   */\n  0x4d616e2043697479000000000000000000000000000000000000000000000000\n    /* \"#utility.yul\":3756:3757   */\n  0x00\n    /* \"#utility.yul\":3748:3754   */\n  dup3\n    /* \"#utility.yul\":3744:3758   */\n  add\n    /* \"#utility.yul\":3737:3771   */\n  mstore\n    /* \"#utility.yul\":3620:3778   */\n  pop\n  jump\t// out\n    /* \"#utility.yul\":3784:4184   */\ntag_35:\n    /* \"#utility.yul\":3944:3947   */\n  0x00\n    /* \"#utility.yul\":3965:4049   */\n  tag_71\n    /* \"#utility.yul\":4047:4048   */\n  0x08\n    /* \"#utility.yul\":4042:4045   */\n  dup4\n    /* \"#utility.yul\":3965:4049   */\n  tag_29\n  jump\t// in\ntag_71:\n    /* \"#utility.yul\":3958:4049   */\n  swap2\n  pop\n    /* \"#utility.yul\":4058:4151   */\n  tag_72\n    /* \"#utility.yul\":4147:4150   */\n  dup3\n    /* \"#utility.yul\":4058:4151   */\n  tag_34\n  jump\t// in\ntag_72:\n    /* \"#utility.yul\":4176:4177   */\n  0x08\n    /* \"#utility.yul\":4171:4174   */\n  dup3\n    /* \"#utility.yul\":4167:4178   */\n  add\n    /* \"#utility.yul\":4160:4178   */\n  swap1\n  pop\n    /* \"#utility.yul\":3784:4184   */\n  swap2\n  swap1\n  pop\n  jump\t// out\n    /* \"#utility.yul\":4190:4571   */\ntag_18:\n    /* \"#utility.yul\":4375:4378   */\n  0x00\n    /* \"#utility.yul\":4397:4545   */\n  tag_74\n    /* \"#utility.yul\":4541:4544   */\n  dup3\n    /* \"#utility.yul\":4397:4545   */\n  tag_35\n  jump\t// in\ntag_74:\n    /* \"#utility.yul\":4390:4545   */\n  swap2\n  pop\n    /* \"#utility.yul\":4562:4565   */\n  dup2\n    /* \"#utility.yul\":4555:4565   */\n  swap1\n  pop\n    /* \"#utility.yul\":4190:4571   */\n  swap2\n  swap1\n  pop\n  jump\t// out\n    /* \"PerpContract/Main.sol\":256:3751  contract PerpetualDEX is Ownable {... */\ntag_19:\n  dataSize(sub_0)\n  dup1\n  dataOffset(sub_0)\n  0x00\n  codecopy\n  0x00\n  return\nstop\n\nsub_0: assembly {\n        /* \"PerpContract/Main.sol\":256:3751  contract PerpetualDEX is Ownable {... */\n      mstore(0x40, 0x80)\n      jumpi(tag_1, lt(calldatasize, 0x04))\n      shr(0xe0, calldataload(0x00))\n      dup1\n      0xa97496a5\n      gt\n      tag_14\n      jumpi\n      dup1\n      0xa97496a5\n      eq\n      tag_8\n      jumpi\n      dup1\n      0xac580de7\n      eq\n      tag_9\n      jumpi\n      dup1\n      0xd0ce7360\n      eq\n      tag_10\n      jumpi\n      dup1\n      0xed23f8c3\n      eq\n      tag_11\n      jumpi\n      dup1\n      0xf2fde38b\n      eq\n      tag_12\n      jumpi\n      dup1\n      0xfdf3f74d\n      eq\n      tag_13\n      jumpi\n      jump(tag_1)\n    tag_14:\n      dup1\n      0x12065fe0\n      eq\n      tag_2\n      jumpi\n      dup1\n      0x715018a6\n      eq\n      tag_3\n      jumpi\n      dup1\n      0x741bef1a\n      eq\n      tag_4\n      jumpi\n      dup1\n      0x8da5cb5b\n      eq\n      tag_5\n      jumpi\n      dup1\n      0x939e3572\n      eq\n      tag_6\n      jumpi\n      dup1\n      0x9da751bb\n      eq\n      tag_7\n      jumpi\n    tag_1:\n      0x00\n      dup1\n      revert\n        /* \"PerpContract/Main.sol\":3036:3132  function getBalance() public view returns (uint) {... */\n    tag_2:\n      callvalue\n      dup1\n      iszero\n      tag_15\n      jumpi\n      0x00\n      dup1\n      revert\n    tag_15:\n      pop\n      tag_16\n      tag_17\n      jump\t// in\n    tag_16:\n      mload(0x40)\n      tag_18\n      swap2\n      swap1\n      tag_19\n      jump\t// in\n    tag_18:\n      mload(0x40)\n      dup1\n      swap2\n      sub\n      swap1\n      return\n        /* \"@openzeppelin/contracts/access/Ownable.sol\":2293:2394  function renounceOwnership() public virtual onlyOwner {... */\n    tag_3:\n      callvalue\n      dup1\n      iszero\n      tag_20\n      jumpi\n      0x00\n      dup1\n      revert\n    tag_20:\n      pop\n      tag_21\n      tag_22\n      jump\t// in\n    tag_21:\n      stop\n        /* \"PerpContract/Main.sol\":1071:1109  AggregatorV3Interface public priceFeed */\n    tag_4:\n      callvalue\n      dup1\n      iszero\n      tag_23\n      jumpi\n      0x00\n      dup1\n      revert\n    tag_23:\n      pop\n      tag_24\n      tag_25\n      jump\t// in\n    tag_24:\n      mload(0x40)\n      tag_26\n      swap2\n      swap1\n      tag_27\n      jump\t// in\n    tag_26:\n      mload(0x40)\n      dup1\n      swap2\n      sub\n      swap1\n      return\n        /* \"@openzeppelin/contracts/access/Ownable.sol\":1638:1723  function owner() public view virtual returns (address) {... */\n    tag_5:\n      callvalue\n      dup1\n      iszero\n      tag_28\n      jumpi\n      0x00\n      dup1\n      revert\n    tag_28:\n      pop\n      tag_29\n      tag_30\n      jump\t// in\n    tag_29:\n      mload(0x40)\n      tag_31\n      swap2\n      swap1\n      tag_32\n      jump\t// in\n    tag_31:\n      mload(0x40)\n      dup1\n      swap2\n      sub\n      swap1\n      return\n        /* \"PerpContract/Main.sol\":3210:3531  function updateFundingRate(uint256 _newRate, address _shortParty, uint256 _contractId) external onlyOwner {... */\n    tag_6:\n      callvalue\n      dup1\n      iszero\n      tag_33\n      jumpi\n      0x00\n      dup1\n      revert\n    tag_33:\n      pop\n      tag_34\n      0x04\n      dup1\n      calldatasize\n      sub\n      dup2\n      add\n      swap1\n      tag_35\n      swap2\n      swap1\n      tag_36\n      jump\t// in\n    tag_35:\n      tag_37\n      jump\t// in\n    tag_34:\n      stop\n        /* \"PerpContract/Main.sol\":1498:2185  function openContract(string memory _team) public payable {... */\n    tag_7:\n      tag_38\n      0x04\n      dup1\n      calldatasize\n      sub\n      dup2\n      add\n      swap1\n      tag_39\n      swap2\n      swap1\n      tag_40\n      jump\t// in\n    tag_39:\n      tag_41\n      jump\t// in\n    tag_38:\n      stop\n        /* \"PerpContract/Main.sol\":3604:3748  function getEloRanking() external view returns (int) {... */\n    tag_8:\n      callvalue\n      dup1\n      iszero\n      tag_42\n      jumpi\n      0x00\n      dup1\n      revert\n    tag_42:\n      pop\n      tag_43\n      tag_44\n      jump\t// in\n    tag_43:\n      mload(0x40)\n      tag_45\n      swap2\n      swap1\n      tag_46\n      jump\t// in\n    tag_45:\n      mload(0x40)\n      dup1\n      swap2\n      sub\n      swap1\n      return\n        /* \"PerpContract/Main.sol\":896:944  mapping(address => uint256) public contractCount */\n    tag_9:\n      callvalue\n      dup1\n      iszero\n      tag_47\n      jumpi\n      0x00\n      dup1\n      revert\n    tag_47:\n      pop\n      tag_48\n      0x04\n      dup1\n      calldatasize\n      sub\n      dup2\n      add\n      swap1\n      tag_49\n      swap2\n      swap1\n      tag_50\n      jump\t// in\n    tag_49:\n      tag_51\n      jump\t// in\n    tag_48:\n      mload(0x40)\n      tag_52\n      swap2\n      swap1\n      tag_19\n      jump\t// in\n    tag_52:\n      mload(0x40)\n      dup1\n      swap2\n      sub\n      swap1\n      return\n        /* \"PerpContract/Main.sol\":2242:3026  function closeContract(uint256 _contractId) external {... */\n    tag_10:\n      callvalue\n      dup1\n      iszero\n      tag_53\n      jumpi\n      0x00\n      dup1\n      revert\n    tag_53:\n      pop\n      tag_54\n      0x04\n      dup1\n      calldatasize\n      sub\n      dup2\n      add\n      swap1\n      tag_55\n      swap2\n      swap1\n      tag_56\n      jump\t// in\n    tag_55:\n      tag_57\n      jump\t// in\n    tag_54:\n      stop\n        /* \"PerpContract/Main.sol\":785:854  mapping(address => mapping(uint256 => PerpContract)) public contracts */\n    tag_11:\n      callvalue\n      dup1\n      iszero\n      tag_58\n      jumpi\n      0x00\n      dup1\n      revert\n    tag_58:\n      pop\n      tag_59\n      0x04\n      dup1\n      calldatasize\n      sub\n      dup2\n      add\n      swap1\n      tag_60\n      swap2\n      swap1\n      tag_61\n      jump\t// in\n    tag_60:\n      tag_62\n      jump\t// in\n    tag_59:\n      mload(0x40)\n      tag_63\n      swap8\n      swap7\n      swap6\n      swap5\n      swap4\n      swap3\n      swap2\n      swap1\n      tag_64\n      jump\t// in\n    tag_63:\n      mload(0x40)\n      dup1\n      swap2\n      sub\n      swap1\n      return\n        /* \"@openzeppelin/contracts/access/Ownable.sol\":2543:2758  function transferOwnership(address newOwner) public virtual onlyOwner {... */\n    tag_12:\n      callvalue\n      dup1\n      iszero\n      tag_65\n      jumpi\n      0x00\n      dup1\n      revert\n    tag_65:\n      pop\n      tag_66\n      0x04\n      dup1\n      calldatasize\n      sub\n      dup2\n      add\n      swap1\n      tag_67\n      swap2\n      swap1\n      tag_50\n      jump\t// in\n    tag_67:\n      tag_68\n      jump\t// in\n    tag_66:\n      stop\n        /* \"PerpContract/Main.sol\":988:1027  mapping(string => uint) public rankings */\n    tag_13:\n      callvalue\n      dup1\n      iszero\n      tag_69\n      jumpi\n      0x00\n      dup1\n      revert\n    tag_69:\n      pop\n      tag_70\n      0x04\n      dup1\n      calldatasize\n      sub\n      dup2\n      add\n      swap1\n      tag_71\n      swap2\n      swap1\n      tag_40\n      jump\t// in\n    tag_71:\n      tag_72\n      jump\t// in\n    tag_70:\n      mload(0x40)\n      tag_73\n      swap2\n      swap1\n      tag_19\n      jump\t// in\n    tag_73:\n      mload(0x40)\n      dup1\n      swap2\n      sub\n      swap1\n      return\n        /* \"PerpContract/Main.sol\":3036:3132  function getBalance() public view returns (uint) {... */\n    tag_17:\n        /* \"PerpContract/Main.sol\":3079:3083  uint */\n      0x00\n        /* \"PerpContract/Main.sol\":3103:3124  address(this).balance */\n      selfbalance\n        /* \"PerpContract/Main.sol\":3096:3124  return address(this).balance */\n      swap1\n      pop\n        /* \"PerpContract/Main.sol\":3036:3132  function getBalance() public view returns (uint) {... */\n      swap1\n      jump\t// out\n        /* \"@openzeppelin/contracts/access/Ownable.sol\":2293:2394  function renounceOwnership() public virtual onlyOwner {... */\n    tag_22:\n        /* \"@openzeppelin/contracts/access/Ownable.sol\":1531:1544  _checkOwner() */\n      tag_76\n        /* \"@openzeppelin/contracts/access/Ownable.sol\":1531:1542  _checkOwner */\n      tag_77\n        /* \"@openzeppelin/contracts/access/Ownable.sol\":1531:1544  _checkOwner() */\n      jump\t// in\n    tag_76:\n        /* \"@openzeppelin/contracts/access/Ownable.sol\":2357:2387  _transferOwnership(address(0)) */\n      tag_79\n        /* \"@openzeppelin/contracts/access/Ownable.sol\":2384:2385  0 */\n      0x00\n        /* \"@openzeppelin/contracts/access/Ownable.sol\":2357:2375  _transferOwnership */\n      tag_80\n        /* \"@openzeppelin/contracts/access/Ownable.sol\":2357:2387  _transferOwnership(address(0)) */\n      jump\t// in\n    tag_79:\n        /* \"@openzeppelin/contracts/access/Ownable.sol\":2293:2394  function renounceOwnership() public virtual onlyOwner {... */\n      jump\t// out\n        /* \"PerpContract/Main.sol\":1071:1109  AggregatorV3Interface public priceFeed */\n    tag_25:\n      0x06\n      0x00\n      swap1\n      sload\n      swap1\n      0x0100\n      exp\n      swap1\n      div\n      0xffffffffffffffffffffffffffffffffffffffff\n      and\n      dup2\n      jump\t// out\n        /* \"@openzeppelin/contracts/access/Ownable.sol\":1638:1723  function owner() public view virtual returns (address) {... */\n    tag_30:\n        /* \"@openzeppelin/contracts/access/Ownable.sol\":1684:1691  address */\n      0x00\n        /* \"@openzeppelin/contracts/access/Ownable.sol\":1710:1716  _owner */\n      dup1\n      0x00\n      swap1\n      sload\n      swap1\n      0x0100\n      exp\n      swap1\n      div\n      0xffffffffffffffffffffffffffffffffffffffff\n      and\n        /* \"@openzeppelin/contracts/access/Ownable.sol\":1703:1716  return _owner */\n      swap1\n      pop\n        /* \"@openzeppelin/contracts/access/Ownable.sol\":1638:1723  function owner() public view virtual returns (address) {... */\n      swap1\n      jump\t// out\n        /* \"PerpContract/Main.sol\":3210:3531  function updateFundingRate(uint256 _newRate, address _shortParty, uint256 _contractId) external onlyOwner {... */\n    tag_37:\n        /* \"@openzeppelin/contracts/access/Ownable.sol\":1531:1544  _checkOwner() */\n      tag_83\n        /* \"@openzeppelin/contracts/access/Ownable.sol\":1531:1542  _checkOwner */\n      tag_77\n        /* \"@openzeppelin/contracts/access/Ownable.sol\":1531:1544  _checkOwner() */\n      jump\t// in\n    tag_83:\n        /* \"PerpContract/Main.sol\":3327:3364  PerpContract storage existingContract */\n      0x00\n        /* \"PerpContract/Main.sol\":3367:3376  contracts */\n      0x02\n        /* \"PerpContract/Main.sol\":3367:3389  contracts[_shortParty] */\n      0x00\n        /* \"PerpContract/Main.sol\":3377:3388  _shortParty */\n      dup5\n        /* \"PerpContract/Main.sol\":3367:3389  contracts[_shortParty] */\n      0xffffffffffffffffffffffffffffffffffffffff\n      and\n      0xffffffffffffffffffffffffffffffffffffffff\n      and\n      dup2\n      mstore\n      0x20\n      add\n      swap1\n      dup2\n      mstore\n      0x20\n      add\n      0x00\n      keccak256\n        /* \"PerpContract/Main.sol\":3367:3402  contracts[_shortParty][_contractId] */\n      0x00\n        /* \"PerpContract/Main.sol\":3390:3401  _contractId */\n      dup4\n        /* \"PerpContract/Main.sol\":3367:3402  contracts[_shortParty][_contractId] */\n      dup2\n      mstore\n      0x20\n      add\n      swap1\n      dup2\n      mstore\n      0x20\n      add\n      0x00\n      keccak256\n        /* \"PerpContract/Main.sol\":3327:3402  PerpContract storage existingContract = contracts[_shortParty][_contractId] */\n      swap1\n      pop\n        /* \"PerpContract/Main.sol\":3421:3437  existingContract */\n      dup1\n        /* \"PerpContract/Main.sol\":3421:3444  existingContract.isOpen */\n      0x03\n      add\n      0x00\n      swap1\n      sload\n      swap1\n      0x0100\n      exp\n      swap1\n      div\n      0xff\n      and\n        /* \"PerpContract/Main.sol\":3413:3469  require(existingContract.isOpen, \"Contract is not open\") */\n      tag_85\n      jumpi\n      mload(0x40)\n      0x08c379a000000000000000000000000000000000000000000000000000000000\n      dup2\n      mstore\n      0x04\n      add\n      tag_86\n      swap1\n      tag_87\n      jump\t// in\n    tag_86:\n      mload(0x40)\n      dup1\n      swap2\n      sub\n      swap1\n      revert\n    tag_85:\n        /* \"PerpContract/Main.sol\":3515:3523  _newRate */\n      dup4\n        /* \"PerpContract/Main.sol\":3484:3500  existingContract */\n      dup2\n        /* \"PerpContract/Main.sol\":3484:3512  existingContract.fundingRate */\n      0x02\n      add\n        /* \"PerpContract/Main.sol\":3484:3523  existingContract.fundingRate = _newRate */\n      dup2\n      swap1\n      sstore\n      pop\n        /* \"PerpContract/Main.sol\":3316:3531  {... */\n      pop\n        /* \"PerpContract/Main.sol\":3210:3531  function updateFundingRate(uint256 _newRate, address _shortParty, uint256 _contractId) external onlyOwner {... */\n      pop\n      pop\n      pop\n      jump\t// out\n        /* \"PerpContract/Main.sol\":1498:2185  function openContract(string memory _team) public payable {... */\n    tag_41:\n        /* \"PerpContract/Main.sol\":1587:1588  0 */\n      0x00\n        /* \"PerpContract/Main.sol\":1575:1584  msg.value */\n      callvalue\n        /* \"PerpContract/Main.sol\":1575:1588  msg.value > 0 */\n      gt\n        /* \"PerpContract/Main.sol\":1567:1624  require(msg.value > 0, \"Value must be greater than zero\") */\n      tag_89\n      jumpi\n      mload(0x40)\n      0x08c379a000000000000000000000000000000000000000000000000000000000\n      dup2\n      mstore\n      0x04\n      add\n      tag_90\n      swap1\n      tag_91\n      jump\t// in\n    tag_90:\n      mload(0x40)\n      dup1\n      swap2\n      sub\n      swap1\n      revert\n    tag_89:\n        /* \"PerpContract/Main.sol\":1637:1655  uint256 contractId */\n      0x00\n        /* \"PerpContract/Main.sol\":1686:1687  1 */\n      0x01\n        /* \"PerpContract/Main.sol\":1658:1671  contractCount */\n      0x03\n        /* \"PerpContract/Main.sol\":1658:1683  contractCount[msg.sender] */\n      0x00\n        /* \"PerpContract/Main.sol\":1672:1682  msg.sender */\n      caller\n        /* \"PerpContract/Main.sol\":1658:1683  contractCount[msg.sender] */\n      0xffffffffffffffffffffffffffffffffffffffff\n      and\n      0xffffffffffffffffffffffffffffffffffffffff\n      and\n      dup2\n      mstore\n      0x20\n      add\n      swap1\n      dup2\n      mstore\n      0x20\n      add\n      0x00\n      keccak256\n      sload\n        /* \"PerpContract/Main.sol\":1658:1687  contractCount[msg.sender] + 1 */\n      tag_92\n      swap2\n      swap1\n      tag_93\n      jump\t// in\n    tag_92:\n        /* \"PerpContract/Main.sol\":1637:1687  uint256 contractId = contractCount[msg.sender] + 1 */\n      swap1\n      pop\n        /* \"PerpContract/Main.sol\":1700:1718  uint256 perpAmount */\n      0x00\n        /* \"PerpContract/Main.sol\":1731:1739  rankings */\n      0x04\n        /* \"PerpContract/Main.sol\":1740:1745  _team */\n      dup4\n        /* \"PerpContract/Main.sol\":1731:1746  rankings[_team] */\n      mload(0x40)\n      tag_94\n      swap2\n      swap1\n      tag_95\n      jump\t// in\n    tag_94:\n      swap1\n      dup2\n      mstore\n      0x20\n      add\n      mload(0x40)\n      dup1\n      swap2\n      sub\n      swap1\n      keccak256\n      sload\n        /* \"PerpContract/Main.sol\":1721:1730  msg.value */\n      callvalue\n        /* \"PerpContract/Main.sol\":1721:1746  msg.value/rankings[_team] */\n      tag_96\n      swap2\n      swap1\n      tag_97\n      jump\t// in\n    tag_96:\n        /* \"PerpContract/Main.sol\":1700:1746  uint256 perpAmount = msg.value/rankings[_team] */\n      swap1\n      pop\n        /* \"PerpContract/Main.sol\":1803:1835  PerpContract storage newContract */\n      0x00\n        /* \"PerpContract/Main.sol\":1838:1847  contracts */\n      0x02\n        /* \"PerpContract/Main.sol\":1838:1859  contracts[msg.sender] */\n      0x00\n        /* \"PerpContract/Main.sol\":1848:1858  msg.sender */\n      caller\n        /* \"PerpContract/Main.sol\":1838:1859  contracts[msg.sender] */\n      0xffffffffffffffffffffffffffffffffffffffff\n      and\n      0xffffffffffffffffffffffffffffffffffffffff\n      and\n      dup2\n      mstore\n      0x20\n      add\n      swap1\n      dup2\n      mstore\n      0x20\n      add\n      0x00\n      keccak256\n        /* \"PerpContract/Main.sol\":1838:1871  contracts[msg.sender][contractId] */\n      0x00\n        /* \"PerpContract/Main.sol\":1860:1870  contractId */\n      dup5\n        /* \"PerpContract/Main.sol\":1838:1871  contracts[msg.sender][contractId] */\n      dup2\n      mstore\n      0x20\n      add\n      swap1\n      dup2\n      mstore\n      0x20\n      add\n      0x00\n      keccak256\n        /* \"PerpContract/Main.sol\":1803:1871  PerpContract storage newContract = contracts[msg.sender][contractId] */\n      swap1\n      pop\n        /* \"PerpContract/Main.sol\":1906:1916  msg.sender */\n      caller\n        /* \"PerpContract/Main.sol\":1882:1893  newContract */\n      dup2\n        /* \"PerpContract/Main.sol\":1882:1903  newContract.longParty */\n      0x00\n      add\n      0x00\n        /* \"PerpContract/Main.sol\":1882:1916  newContract.longParty = msg.sender */\n      0x0100\n      exp\n      dup2\n      sload\n      dup2\n      0xffffffffffffffffffffffffffffffffffffffff\n      mul\n      not\n      and\n      swap1\n      dup4\n      0xffffffffffffffffffffffffffffffffffffffff\n      and\n      mul\n      or\n      swap1\n      sstore\n      pop\n        /* \"PerpContract/Main.sol\":1946:1951  _team */\n      dup4\n        /* \"PerpContract/Main.sol\":1927:1938  newContract */\n      dup2\n        /* \"PerpContract/Main.sol\":1927:1943  newContract.team */\n      0x04\n      add\n        /* \"PerpContract/Main.sol\":1927:1951  newContract.team = _team */\n      swap1\n      dup2\n      tag_98\n      swap2\n      swap1\n      tag_99\n      jump\t// in\n    tag_98:\n      pop\n        /* \"PerpContract/Main.sol\":1985:1995  perpAmount */\n      dup2\n        /* \"PerpContract/Main.sol\":1962:1973  newContract */\n      dup2\n        /* \"PerpContract/Main.sol\":1962:1982  newContract.quantity */\n      0x01\n      add\n        /* \"PerpContract/Main.sol\":1962:1995  newContract.quantity = perpAmount */\n      dup2\n      swap1\n      sstore\n      pop\n        /* \"PerpContract/Main.sol\":2031:2039  rankings */\n      0x04\n        /* \"PerpContract/Main.sol\":2040:2045  _team */\n      dup5\n        /* \"PerpContract/Main.sol\":2031:2046  rankings[_team] */\n      mload(0x40)\n      tag_100\n      swap2\n      swap1\n      tag_95\n      jump\t// in\n    tag_100:\n      swap1\n      dup2\n      mstore\n      0x20\n      add\n      mload(0x40)\n      dup1\n      swap2\n      sub\n      swap1\n      keccak256\n      sload\n        /* \"PerpContract/Main.sol\":2006:2017  newContract */\n      dup2\n        /* \"PerpContract/Main.sol\":2006:2028  newContract.initialElo */\n      0x05\n      add\n        /* \"PerpContract/Main.sol\":2006:2046  newContract.initialElo = rankings[_team] */\n      dup2\n      swap1\n      sstore\n      pop\n        /* \"PerpContract/Main.sol\":2078:2082  true */\n      0x01\n        /* \"PerpContract/Main.sol\":2057:2068  newContract */\n      dup2\n        /* \"PerpContract/Main.sol\":2057:2075  newContract.isOpen */\n      0x03\n      add\n      0x00\n        /* \"PerpContract/Main.sol\":2057:2082  newContract.isOpen = true */\n      0x0100\n      exp\n      dup2\n      sload\n      dup2\n      0xff\n      mul\n      not\n      and\n      swap1\n      dup4\n      iszero\n      iszero\n      mul\n      or\n      swap1\n      sstore\n      pop\n        /* \"PerpContract/Main.sol\":2150:2163  contractCount */\n      0x03\n        /* \"PerpContract/Main.sol\":2150:2175  contractCount[msg.sender] */\n      0x00\n        /* \"PerpContract/Main.sol\":2164:2174  msg.sender */\n      caller\n        /* \"PerpContract/Main.sol\":2150:2175  contractCount[msg.sender] */\n      0xffffffffffffffffffffffffffffffffffffffff\n      and\n      0xffffffffffffffffffffffffffffffffffffffff\n      and\n      dup2\n      mstore\n      0x20\n      add\n      swap1\n      dup2\n      mstore\n      0x20\n      add\n      0x00\n      keccak256\n      0x00\n        /* \"PerpContract/Main.sol\":2150:2177  contractCount[msg.sender]++ */\n      dup2\n      sload\n      dup1\n      swap3\n      swap2\n      swap1\n      tag_101\n      swap1\n      tag_102\n      jump\t// in\n    tag_101:\n      swap2\n      swap1\n      pop\n      sstore\n      pop\n        /* \"PerpContract/Main.sol\":1556:2185  {... */\n      pop\n      pop\n      pop\n        /* \"PerpContract/Main.sol\":1498:2185  function openContract(string memory _team) public payable {... */\n      pop\n      jump\t// out\n        /* \"PerpContract/Main.sol\":3604:3748  function getEloRanking() external view returns (int) {... */\n    tag_44:\n        /* \"PerpContract/Main.sol\":3652:3655  int */\n      0x00\n        /* \"PerpContract/Main.sol\":3671:3680  int price */\n      dup1\n        /* \"PerpContract/Main.sol\":3690:3699  priceFeed */\n      0x06\n      0x00\n      swap1\n      sload\n      swap1\n      0x0100\n      exp\n      swap1\n      div\n      0xffffffffffffffffffffffffffffffffffffffff\n      and\n        /* \"PerpContract/Main.sol\":3690:3715  priceFeed.latestRoundData */\n      0xffffffffffffffffffffffffffffffffffffffff\n      and\n      0xfeaf968c\n        /* \"PerpContract/Main.sol\":3690:3717  priceFeed.latestRoundData() */\n      mload(0x40)\n      dup2\n      0xffffffff\n      and\n      0xe0\n      shl\n      dup2\n      mstore\n      0x04\n      add\n      0xa0\n      mload(0x40)\n      dup1\n      dup4\n      sub\n      dup2\n      dup7\n      gas\n      staticcall\n      iszero\n      dup1\n      iszero\n      tag_105\n      jumpi\n      returndatasize\n      0x00\n      dup1\n      returndatacopy\n      revert(0x00, returndatasize)\n    tag_105:\n      pop\n      pop\n      pop\n      pop\n      mload(0x40)\n      returndatasize\n      not(0x1f)\n      0x1f\n      dup3\n      add\n      and\n      dup3\n      add\n      dup1\n      0x40\n      mstore\n      pop\n      dup2\n      add\n      swap1\n      tag_106\n      swap2\n      swap1\n      tag_107\n      jump\t// in\n    tag_106:\n        /* \"PerpContract/Main.sol\":3668:3717  (, int price, , , ) = priceFeed.latestRoundData() */\n      pop\n      pop\n      pop\n      swap2\n      pop\n      pop\n        /* \"PerpContract/Main.sol\":3735:3740  price */\n      dup1\n        /* \"PerpContract/Main.sol\":3728:3740  return price */\n      swap2\n      pop\n      pop\n        /* \"PerpContract/Main.sol\":3604:3748  function getEloRanking() external view returns (int) {... */\n      swap1\n      jump\t// out\n        /* \"PerpContract/Main.sol\":896:944  mapping(address => uint256) public contractCount */\n    tag_51:\n      mstore(0x20, 0x03)\n      dup1\n      0x00\n      mstore\n      keccak256(0x00, 0x40)\n      0x00\n      swap2\n      pop\n      swap1\n      pop\n      sload\n      dup2\n      jump\t// out\n        /* \"PerpContract/Main.sol\":2242:3026  function closeContract(uint256 _contractId) external {... */\n    tag_57:\n        /* \"PerpContract/Main.sol\":2306:2343  PerpContract storage existingContract */\n      0x00\n        /* \"PerpContract/Main.sol\":2346:2355  contracts */\n      0x02\n        /* \"PerpContract/Main.sol\":2346:2367  contracts[msg.sender] */\n      0x00\n        /* \"PerpContract/Main.sol\":2356:2366  msg.sender */\n      caller\n        /* \"PerpContract/Main.sol\":2346:2367  contracts[msg.sender] */\n      0xffffffffffffffffffffffffffffffffffffffff\n      and\n      0xffffffffffffffffffffffffffffffffffffffff\n      and\n      dup2\n      mstore\n      0x20\n      add\n      swap1\n      dup2\n      mstore\n      0x20\n      add\n      0x00\n      keccak256\n        /* \"PerpContract/Main.sol\":2346:2380  contracts[msg.sender][_contractId] */\n      0x00\n        /* \"PerpContract/Main.sol\":2368:2379  _contractId */\n      dup4\n        /* \"PerpContract/Main.sol\":2346:2380  contracts[msg.sender][_contractId] */\n      dup2\n      mstore\n      0x20\n      add\n      swap1\n      dup2\n      mstore\n      0x20\n      add\n      0x00\n      keccak256\n        /* \"PerpContract/Main.sol\":2306:2380  PerpContract storage existingContract = contracts[msg.sender][_contractId] */\n      swap1\n      pop\n        /* \"PerpContract/Main.sol\":2399:2415  existingContract */\n      dup1\n        /* \"PerpContract/Main.sol\":2399:2422  existingContract.isOpen */\n      0x03\n      add\n      0x00\n      swap1\n      sload\n      swap1\n      0x0100\n      exp\n      swap1\n      div\n      0xff\n      and\n        /* \"PerpContract/Main.sol\":2391:2447  require(existingContract.isOpen, \"Contract is not open\") */\n      tag_109\n      jumpi\n      mload(0x40)\n      0x08c379a000000000000000000000000000000000000000000000000000000000\n      dup2\n      mstore\n      0x04\n      add\n      tag_110\n      swap1\n      tag_87\n      jump\t// in\n    tag_110:\n      mload(0x40)\n      dup1\n      swap2\n      sub\n      swap1\n      revert\n    tag_109:\n        /* \"PerpContract/Main.sol\":2496:2506  msg.sender */\n      caller\n        /* \"PerpContract/Main.sol\":2466:2506  existingContract.longParty == msg.sender */\n      0xffffffffffffffffffffffffffffffffffffffff\n      and\n        /* \"PerpContract/Main.sol\":2466:2482  existingContract */\n      dup2\n        /* \"PerpContract/Main.sol\":2466:2492  existingContract.longParty */\n      0x00\n      add\n      0x00\n      swap1\n      sload\n      swap1\n      0x0100\n      exp\n      swap1\n      div\n      0xffffffffffffffffffffffffffffffffffffffff\n      and\n        /* \"PerpContract/Main.sol\":2466:2506  existingContract.longParty == msg.sender */\n      0xffffffffffffffffffffffffffffffffffffffff\n      and\n      eq\n        /* \"PerpContract/Main.sol\":2458:2549  require(existingContract.longParty == msg.sender, \"Only long party can close the contract\") */\n      tag_111\n      jumpi\n      mload(0x40)\n      0x08c379a000000000000000000000000000000000000000000000000000000000\n      dup2\n      mstore\n      0x04\n      add\n      tag_112\n      swap1\n      tag_113\n      jump\t// in\n    tag_112:\n      mload(0x40)\n      dup1\n      swap2\n      sub\n      swap1\n      revert\n    tag_111:\n        /* \"PerpContract/Main.sol\":2560:2578  string memory team */\n      0x00\n        /* \"PerpContract/Main.sol\":2581:2597  existingContract */\n      dup2\n        /* \"PerpContract/Main.sol\":2581:2602  existingContract.team */\n      0x04\n      add\n        /* \"PerpContract/Main.sol\":2560:2602  string memory team = existingContract.team */\n      dup1\n      sload\n      tag_114\n      swap1\n      tag_115\n      jump\t// in\n    tag_114:\n      dup1\n      0x1f\n      add\n      0x20\n      dup1\n      swap2\n      div\n      mul\n      0x20\n      add\n      mload(0x40)\n      swap1\n      dup2\n      add\n      0x40\n      mstore\n      dup1\n      swap3\n      swap2\n      swap1\n      dup2\n      dup2\n      mstore\n      0x20\n      add\n      dup3\n      dup1\n      sload\n      tag_116\n      swap1\n      tag_115\n      jump\t// in\n    tag_116:\n      dup1\n      iszero\n      tag_117\n      jumpi\n      dup1\n      0x1f\n      lt\n      tag_118\n      jumpi\n      0x0100\n      dup1\n      dup4\n      sload\n      div\n      mul\n      dup4\n      mstore\n      swap2\n      0x20\n      add\n      swap2\n      jump(tag_117)\n    tag_118:\n      dup3\n      add\n      swap2\n      swap1\n      0x00\n      mstore\n      keccak256(0x00, 0x20)\n      swap1\n    tag_119:\n      dup2\n      sload\n      dup2\n      mstore\n      swap1\n      0x01\n      add\n      swap1\n      0x20\n      add\n      dup1\n      dup4\n      gt\n      tag_119\n      jumpi\n      dup3\n      swap1\n      sub\n      0x1f\n      and\n      dup3\n      add\n      swap2\n    tag_117:\n      pop\n      pop\n      pop\n      pop\n      pop\n      swap1\n      pop\n        /* \"PerpContract/Main.sol\":2613:2627  uint256 eloVal */\n      0x00\n        /* \"PerpContract/Main.sol\":2630:2638  rankings */\n      0x04\n        /* \"PerpContract/Main.sol\":2639:2643  team */\n      dup3\n        /* \"PerpContract/Main.sol\":2630:2644  rankings[team] */\n      mload(0x40)\n      tag_120\n      swap2\n      swap1\n      tag_95\n      jump\t// in\n    tag_120:\n      swap1\n      dup2\n      mstore\n      0x20\n      add\n      mload(0x40)\n      dup1\n      swap2\n      sub\n      swap1\n      keccak256\n      sload\n        /* \"PerpContract/Main.sol\":2613:2644  uint256 eloVal = rankings[team] */\n      swap1\n      pop\n        /* \"PerpContract/Main.sol\":2657:2672  uint256 balance */\n      0x00\n        /* \"PerpContract/Main.sol\":2675:2687  getBalance() */\n      tag_121\n        /* \"PerpContract/Main.sol\":2675:2685  getBalance */\n      tag_17\n        /* \"PerpContract/Main.sol\":2675:2687  getBalance() */\n      jump\t// in\n    tag_121:\n        /* \"PerpContract/Main.sol\":2657:2687  uint256 balance = getBalance() */\n      swap1\n      pop\n        /* \"PerpContract/Main.sol\":2770:2784  uint256 payout */\n      0x00\n        /* \"PerpContract/Main.sol\":2812:2828  existingContract */\n      dup5\n        /* \"PerpContract/Main.sol\":2812:2837  existingContract.quantity */\n      0x01\n      add\n      sload\n        /* \"PerpContract/Main.sol\":2804:2811  balance */\n      dup3\n        /* \"PerpContract/Main.sol\":2797:2803  eloVal */\n      dup5\n        /* \"PerpContract/Main.sol\":2787:2796  totalPool */\n      sload(0x05)\n        /* \"PerpContract/Main.sol\":2787:2803  totalPool/eloVal */\n      tag_122\n      swap2\n      swap1\n      tag_97\n      jump\t// in\n    tag_122:\n        /* \"PerpContract/Main.sol\":2787:2811  totalPool/eloVal*balance */\n      tag_123\n      swap2\n      swap1\n      tag_124\n      jump\t// in\n    tag_123:\n        /* \"PerpContract/Main.sol\":2787:2837  totalPool/eloVal*balance*existingContract.quantity */\n      tag_125\n      swap2\n      swap1\n      tag_124\n      jump\t// in\n    tag_125:\n        /* \"PerpContract/Main.sol\":2770:2837  uint256 payout = totalPool/eloVal*balance*existingContract.quantity */\n      swap1\n      pop\n        /* \"PerpContract/Main.sol\":2908:2918  msg.sender */\n      caller\n        /* \"PerpContract/Main.sol\":2900:2928  payable(msg.sender).transfer */\n      0xffffffffffffffffffffffffffffffffffffffff\n      and\n        /* \"PerpContract/Main.sol\":2900:2936  payable(msg.sender).transfer(payout) */\n      0x08fc\n        /* \"PerpContract/Main.sol\":2929:2935  payout */\n      dup3\n        /* \"PerpContract/Main.sol\":2900:2936  payable(msg.sender).transfer(payout) */\n      swap1\n      dup2\n      iszero\n      mul\n      swap1\n      mload(0x40)\n      0x00\n      mload(0x40)\n      dup1\n      dup4\n      sub\n      dup2\n      dup6\n      dup9\n      dup9\n      call\n      swap4\n      pop\n      pop\n      pop\n      pop\n      iszero\n      dup1\n      iszero\n      tag_127\n      jumpi\n      returndatasize\n      0x00\n      dup1\n      returndatacopy\n      revert(0x00, returndatasize)\n    tag_127:\n      pop\n        /* \"PerpContract/Main.sol\":3013:3018  false */\n      0x00\n        /* \"PerpContract/Main.sol\":2987:3003  existingContract */\n      dup6\n        /* \"PerpContract/Main.sol\":2987:3010  existingContract.isOpen */\n      0x03\n      add\n      0x00\n        /* \"PerpContract/Main.sol\":2987:3018  existingContract.isOpen = false */\n      0x0100\n      exp\n      dup2\n      sload\n      dup2\n      0xff\n      mul\n      not\n      and\n      swap1\n      dup4\n      iszero\n      iszero\n      mul\n      or\n      swap1\n      sstore\n      pop\n        /* \"PerpContract/Main.sol\":2295:3026  {... */\n      pop\n      pop\n      pop\n      pop\n      pop\n        /* \"PerpContract/Main.sol\":2242:3026  function closeContract(uint256 _contractId) external {... */\n      pop\n      jump\t// out\n        /* \"PerpContract/Main.sol\":785:854  mapping(address => mapping(uint256 => PerpContract)) public contracts */\n    tag_62:\n      mstore(0x20, 0x02)\n      dup2\n      0x00\n      mstore\n      mstore(0x20, keccak256(0x00, 0x40))\n      dup1\n      0x00\n      mstore\n      keccak256(0x00, 0x40)\n      0x00\n      swap2\n      pop\n      swap2\n      pop\n      pop\n      dup1\n      0x00\n      add\n      0x00\n      swap1\n      sload\n      swap1\n      0x0100\n      exp\n      swap1\n      div\n      0xffffffffffffffffffffffffffffffffffffffff\n      and\n      swap1\n      dup1\n      0x00\n      add\n      0x14\n      swap1\n      sload\n      swap1\n      0x0100\n      exp\n      swap1\n      div\n      0xff\n      and\n      swap1\n      dup1\n      0x01\n      add\n      sload\n      swap1\n      dup1\n      0x02\n      add\n      sload\n      swap1\n      dup1\n      0x03\n      add\n      0x00\n      swap1\n      sload\n      swap1\n      0x0100\n      exp\n      swap1\n      div\n      0xff\n      and\n      swap1\n      dup1\n      0x04\n      add\n      dup1\n      sload\n      tag_128\n      swap1\n      tag_115\n      jump\t// in\n    tag_128:\n      dup1\n      0x1f\n      add\n      0x20\n      dup1\n      swap2\n      div\n      mul\n      0x20\n      add\n      mload(0x40)\n      swap1\n      dup2\n      add\n      0x40\n      mstore\n      dup1\n      swap3\n      swap2\n      swap1\n      dup2\n      dup2\n      mstore\n      0x20\n      add\n      dup3\n      dup1\n      sload\n      tag_129\n      swap1\n      tag_115\n      jump\t// in\n    tag_129:\n      dup1\n      iszero\n      tag_130\n      jumpi\n      dup1\n      0x1f\n      lt\n      tag_131\n      jumpi\n      0x0100\n      dup1\n      dup4\n      sload\n      div\n      mul\n      dup4\n      mstore\n      swap2\n      0x20\n      add\n      swap2\n      jump(tag_130)\n    tag_131:\n      dup3\n      add\n      swap2\n      swap1\n      0x00\n      mstore\n      keccak256(0x00, 0x20)\n      swap1\n    tag_132:\n      dup2\n      sload\n      dup2\n      mstore\n      swap1\n      0x01\n      add\n      swap1\n      0x20\n      add\n      dup1\n      dup4\n      gt\n      tag_132\n      jumpi\n      dup3\n      swap1\n      sub\n      0x1f\n      and\n      dup3\n      add\n      swap2\n    tag_130:\n      pop\n      pop\n      pop\n      pop\n      pop\n      swap1\n      dup1\n      0x05\n      add\n      sload\n      swap1\n      pop\n      dup8\n      jump\t// out\n        /* \"@openzeppelin/contracts/access/Ownable.sol\":2543:2758  function transferOwnership(address newOwner) public virtual onlyOwner {... */\n    tag_68:\n        /* \"@openzeppelin/contracts/access/Ownable.sol\":1531:1544  _checkOwner() */\n      tag_134\n        /* \"@openzeppelin/contracts/access/Ownable.sol\":1531:1542  _checkOwner */\n      tag_77\n        /* \"@openzeppelin/contracts/access/Ownable.sol\":1531:1544  _checkOwner() */\n      jump\t// in\n    tag_134:\n        /* \"@openzeppelin/contracts/access/Ownable.sol\":2647:2648  0 */\n      0x00\n        /* \"@openzeppelin/contracts/access/Ownable.sol\":2627:2649  newOwner == address(0) */\n      0xffffffffffffffffffffffffffffffffffffffff\n      and\n        /* \"@openzeppelin/contracts/access/Ownable.sol\":2627:2635  newOwner */\n      dup2\n        /* \"@openzeppelin/contracts/access/Ownable.sol\":2627:2649  newOwner == address(0) */\n      0xffffffffffffffffffffffffffffffffffffffff\n      and\n      sub\n        /* \"@openzeppelin/contracts/access/Ownable.sol\":2623:2714  if (newOwner == address(0)) {... */\n      tag_136\n      jumpi\n        /* \"@openzeppelin/contracts/access/Ownable.sol\":2700:2701  0 */\n      0x00\n        /* \"@openzeppelin/contracts/access/Ownable.sol\":2672:2703  OwnableInvalidOwner(address(0)) */\n      mload(0x40)\n      0x1e4fbdf700000000000000000000000000000000000000000000000000000000\n      dup2\n      mstore\n      0x04\n      add\n      tag_137\n      swap2\n      swap1\n      tag_32\n      jump\t// in\n    tag_137:\n      mload(0x40)\n      dup1\n      swap2\n      sub\n      swap1\n      revert\n        /* \"@openzeppelin/contracts/access/Ownable.sol\":2623:2714  if (newOwner == address(0)) {... */\n    tag_136:\n        /* \"@openzeppelin/contracts/access/Ownable.sol\":2723:2751  _transferOwnership(newOwner) */\n      tag_138\n        /* \"@openzeppelin/contracts/access/Ownable.sol\":2742:2750  newOwner */\n      dup2\n        /* \"@openzeppelin/contracts/access/Ownable.sol\":2723:2741  _transferOwnership */\n      tag_80\n        /* \"@openzeppelin/contracts/access/Ownable.sol\":2723:2751  _transferOwnership(newOwner) */\n      jump\t// in\n    tag_138:\n        /* \"@openzeppelin/contracts/access/Ownable.sol\":2543:2758  function transferOwnership(address newOwner) public virtual onlyOwner {... */\n      pop\n      jump\t// out\n        /* \"PerpContract/Main.sol\":988:1027  mapping(string => uint) public rankings */\n    tag_72:\n      0x04\n      dup2\n      dup1\n      mload\n      0x20\n      dup2\n      add\n      dup3\n      add\n      dup1\n      mload\n      dup5\n      dup3\n      mstore\n      0x20\n      dup4\n      add\n      0x20\n      dup6\n      add\n      keccak256\n      dup2\n      dup4\n      mstore\n      dup1\n      swap6\n      pop\n      pop\n      pop\n      pop\n      pop\n      pop\n      0x00\n      swap2\n      pop\n      swap1\n      pop\n      sload\n      dup2\n      jump\t// out\n        /* \"@openzeppelin/contracts/access/Ownable.sol\":1796:1958  function _checkOwner() internal view virtual {... */\n    tag_77:\n        /* \"@openzeppelin/contracts/access/Ownable.sol\":1866:1878  _msgSender() */\n      tag_140\n        /* \"@openzeppelin/contracts/access/Ownable.sol\":1866:1876  _msgSender */\n      tag_141\n        /* \"@openzeppelin/contracts/access/Ownable.sol\":1866:1878  _msgSender() */\n      jump\t// in\n    tag_140:\n        /* \"@openzeppelin/contracts/access/Ownable.sol\":1855:1878  owner() != _msgSender() */\n      0xffffffffffffffffffffffffffffffffffffffff\n      and\n        /* \"@openzeppelin/contracts/access/Ownable.sol\":1855:1862  owner() */\n      tag_142\n        /* \"@openzeppelin/contracts/access/Ownable.sol\":1855:1860  owner */\n      tag_30\n        /* \"@openzeppelin/contracts/access/Ownable.sol\":1855:1862  owner() */\n      jump\t// in\n    tag_142:\n        /* \"@openzeppelin/contracts/access/Ownable.sol\":1855:1878  owner() != _msgSender() */\n      0xffffffffffffffffffffffffffffffffffffffff\n      and\n      eq\n        /* \"@openzeppelin/contracts/access/Ownable.sol\":1851:1952  if (owner() != _msgSender()) {... */\n      tag_143\n      jumpi\n        /* \"@openzeppelin/contracts/access/Ownable.sol\":1928:1940  _msgSender() */\n      tag_144\n        /* \"@openzeppelin/contracts/access/Ownable.sol\":1928:1938  _msgSender */\n      tag_141\n        /* \"@openzeppelin/contracts/access/Ownable.sol\":1928:1940  _msgSender() */\n      jump\t// in\n    tag_144:\n        /* \"@openzeppelin/contracts/access/Ownable.sol\":1901:1941  OwnableUnauthorizedAccount(_msgSender()) */\n      mload(0x40)\n      0x118cdaa700000000000000000000000000000000000000000000000000000000\n      dup2\n      mstore\n      0x04\n      add\n      tag_145\n      swap2\n      swap1\n      tag_32\n      jump\t// in\n    tag_145:\n      mload(0x40)\n      dup1\n      swap2\n      sub\n      swap1\n      revert\n        /* \"@openzeppelin/contracts/access/Ownable.sol\":1851:1952  if (owner() != _msgSender()) {... */\n    tag_143:\n        /* \"@openzeppelin/contracts/access/Ownable.sol\":1796:1958  function _checkOwner() internal view virtual {... */\n      jump\t// out\n        /* \"@openzeppelin/contracts/access/Ownable.sol\":2912:3099  function _transferOwnership(address newOwner) internal virtual {... */\n    tag_80:\n        /* \"@openzeppelin/contracts/access/Ownable.sol\":2985:3001  address oldOwner */\n      0x00\n        /* \"@openzeppelin/contracts/access/Ownable.sol\":3004:3010  _owner */\n      dup1\n      0x00\n      swap1\n      sload\n      swap1\n      0x0100\n      exp\n      swap1\n      div\n      0xffffffffffffffffffffffffffffffffffffffff\n      and\n        /* \"@openzeppelin/contracts/access/Ownable.sol\":2985:3010  address oldOwner = _owner */\n      swap1\n      pop\n        /* \"@openzeppelin/contracts/access/Ownable.sol\":3029:3037  newOwner */\n      dup2\n        /* \"@openzeppelin/contracts/access/Ownable.sol\":3020:3026  _owner */\n      0x00\n      dup1\n        /* \"@openzeppelin/contracts/access/Ownable.sol\":3020:3037  _owner = newOwner */\n      0x0100\n      exp\n      dup2\n      sload\n      dup2\n      0xffffffffffffffffffffffffffffffffffffffff\n      mul\n      not\n      and\n      swap1\n      dup4\n      0xffffffffffffffffffffffffffffffffffffffff\n      and\n      mul\n      or\n      swap1\n      sstore\n      pop\n        /* \"@openzeppelin/contracts/access/Ownable.sol\":3083:3091  newOwner */\n      dup2\n        /* \"@openzeppelin/contracts/access/Ownable.sol\":3052:3092  OwnershipTransferred(oldOwner, newOwner) */\n      0xffffffffffffffffffffffffffffffffffffffff\n      and\n        /* \"@openzeppelin/contracts/access/Ownable.sol\":3073:3081  oldOwner */\n      dup2\n        /* \"@openzeppelin/contracts/access/Ownable.sol\":3052:3092  OwnershipTransferred(oldOwner, newOwner) */\n      0xffffffffffffffffffffffffffffffffffffffff\n      and\n      0x8be0079c531659141344cd1fd0a4f28419497f9722a3daafe3b4186f6b6457e0\n      mload(0x40)\n      mload(0x40)\n      dup1\n      swap2\n      sub\n      swap1\n      log3\n        /* \"@openzeppelin/contracts/access/Ownable.sol\":2975:3099  {... */\n      pop\n        /* \"@openzeppelin/contracts/access/Ownable.sol\":2912:3099  function _transferOwnership(address newOwner) internal virtual {... */\n      pop\n      jump\t// out\n        /* \"@openzeppelin/contracts/utils/Context.sol\":656:752  function _msgSender() internal view virtual returns (address) {... */\n    tag_141:\n        /* \"@openzeppelin/contracts/utils/Context.sol\":709:716  address */\n      0x00\n        /* \"@openzeppelin/contracts/utils/Context.sol\":735:745  msg.sender */\n      caller\n        /* \"@openzeppelin/contracts/utils/Context.sol\":728:745  return msg.sender */\n      swap1\n      pop\n        /* \"@openzeppelin/contracts/utils/Context.sol\":656:752  function _msgSender() internal view virtual returns (address) {... */\n      swap1\n      jump\t// out\n        /* \"#utility.yul\":7:84   */\n    tag_148:\n        /* \"#utility.yul\":44:51   */\n      0x00\n        /* \"#utility.yul\":73:78   */\n      dup2\n        /* \"#utility.yul\":62:78   */\n      swap1\n      pop\n        /* \"#utility.yul\":7:84   */\n      swap2\n      swap1\n      pop\n      jump\t// out\n        /* \"#utility.yul\":90:208   */\n    tag_149:\n        /* \"#utility.yul\":177:201   */\n      tag_217\n        /* \"#utility.yul\":195:200   */\n      dup2\n        /* \"#utility.yul\":177:201   */\n      tag_148\n      jump\t// in\n    tag_217:\n        /* \"#utility.yul\":172:175   */\n      dup3\n        /* \"#utility.yul\":165:202   */\n      mstore\n        /* \"#utility.yul\":90:208   */\n      pop\n      pop\n      jump\t// out\n        /* \"#utility.yul\":214:436   */\n    tag_19:\n        /* \"#utility.yul\":307:311   */\n      0x00\n        /* \"#utility.yul\":345:347   */\n      0x20\n        /* \"#utility.yul\":334:343   */\n      dup3\n        /* \"#utility.yul\":330:348   */\n      add\n        /* \"#utility.yul\":322:348   */\n      swap1\n      pop\n        /* \"#utility.yul\":358:429   */\n      tag_219\n        /* \"#utility.yul\":426:427   */\n      0x00\n        /* \"#utility.yul\":415:424   */\n      dup4\n        /* \"#utility.yul\":411:428   */\n      add\n        /* \"#utility.yul\":402:408   */\n      dup5\n        /* \"#utility.yul\":358:429   */\n      tag_149\n      jump\t// in\n    tag_219:\n        /* \"#utility.yul\":214:436   */\n      swap3\n      swap2\n      pop\n      pop\n      jump\t// out\n        /* \"#utility.yul\":442:568   */\n    tag_150:\n        /* \"#utility.yul\":479:486   */\n      0x00\n        /* \"#utility.yul\":519:561   */\n      0xffffffffffffffffffffffffffffffffffffffff\n        /* \"#utility.yul\":512:517   */\n      dup3\n        /* \"#utility.yul\":508:562   */\n      and\n        /* \"#utility.yul\":497:562   */\n      swap1\n      pop\n        /* \"#utility.yul\":442:568   */\n      swap2\n      swap1\n      pop\n      jump\t// out\n        /* \"#utility.yul\":574:634   */\n    tag_151:\n        /* \"#utility.yul\":602:605   */\n      0x00\n        /* \"#utility.yul\":623:628   */\n      dup2\n        /* \"#utility.yul\":616:628   */\n      swap1\n      pop\n        /* \"#utility.yul\":574:634   */\n      swap2\n      swap1\n      pop\n      jump\t// out\n        /* \"#utility.yul\":640:782   */\n    tag_152:\n        /* \"#utility.yul\":690:699   */\n      0x00\n        /* \"#utility.yul\":723:776   */\n      tag_223\n        /* \"#utility.yul\":741:775   */\n      tag_224\n        /* \"#utility.yul\":750:774   */\n      tag_225\n        /* \"#utility.yul\":768:773   */\n      dup5\n        /* \"#utility.yul\":750:774   */\n      tag_150\n      jump\t// in\n    tag_225:\n        /* \"#utility.yul\":741:775   */\n      tag_151\n      jump\t// in\n    tag_224:\n        /* \"#utility.yul\":723:776   */\n      tag_150\n      jump\t// in\n    tag_223:\n        /* \"#utility.yul\":710:776   */\n      swap1\n      pop\n        /* \"#utility.yul\":640:782   */\n      swap2\n      swap1\n      pop\n      jump\t// out\n        /* \"#utility.yul\":788:914   */\n    tag_153:\n        /* \"#utility.yul\":838:847   */\n      0x00\n        /* \"#utility.yul\":871:908   */\n      tag_227\n        /* \"#utility.yul\":902:907   */\n      dup3\n        /* \"#utility.yul\":871:908   */\n      tag_152\n      jump\t// in\n    tag_227:\n        /* \"#utility.yul\":858:908   */\n      swap1\n      pop\n        /* \"#utility.yul\":788:914   */\n      swap2\n      swap1\n      pop\n      jump\t// out\n        /* \"#utility.yul\":920:1074   */\n    tag_154:\n        /* \"#utility.yul\":998:1007   */\n      0x00\n        /* \"#utility.yul\":1031:1068   */\n      tag_229\n        /* \"#utility.yul\":1062:1067   */\n      dup3\n        /* \"#utility.yul\":1031:1068   */\n      tag_153\n      jump\t// in\n    tag_229:\n        /* \"#utility.yul\":1018:1068   */\n      swap1\n      pop\n        /* \"#utility.yul\":920:1074   */\n      swap2\n      swap1\n      pop\n      jump\t// out\n        /* \"#utility.yul\":1080:1267   */\n    tag_155:\n        /* \"#utility.yul\":1195:1260   */\n      tag_231\n        /* \"#utility.yul\":1254:1259   */\n      dup2\n        /* \"#utility.yul\":1195:1260   */\n      tag_154\n      jump\t// in\n    tag_231:\n        /* \"#utility.yul\":1190:1193   */\n      dup3\n        /* \"#utility.yul\":1183:1261   */\n      mstore\n        /* \"#utility.yul\":1080:1267   */\n      pop\n      pop\n      jump\t// out\n        /* \"#utility.yul\":1273:1551   */\n    tag_27:\n        /* \"#utility.yul\":1394:1398   */\n      0x00\n        /* \"#utility.yul\":1432:1434   */\n      0x20\n        /* \"#utility.yul\":1421:1430   */\n      dup3\n        /* \"#utility.yul\":1417:1435   */\n      add\n        /* \"#utility.yul\":1409:1435   */\n      swap1\n      pop\n        /* \"#utility.yul\":1445:1544   */\n      tag_233\n        /* \"#utility.yul\":1541:1542   */\n      0x00\n        /* \"#utility.yul\":1530:1539   */\n      dup4\n        /* \"#utility.yul\":1526:1543   */\n      add\n        /* \"#utility.yul\":1517:1523   */\n      dup5\n        /* \"#utility.yul\":1445:1544   */\n      tag_155\n      jump\t// in\n    tag_233:\n        /* \"#utility.yul\":1273:1551   */\n      swap3\n      swap2\n      pop\n      pop\n      jump\t// out\n        /* \"#utility.yul\":1557:1653   */\n    tag_156:\n        /* \"#utility.yul\":1594:1601   */\n      0x00\n        /* \"#utility.yul\":1623:1647   */\n      tag_235\n        /* \"#utility.yul\":1641:1646   */\n      dup3\n        /* \"#utility.yul\":1623:1647   */\n      tag_150\n      jump\t// in\n    tag_235:\n        /* \"#utility.yul\":1612:1647   */\n      swap1\n      pop\n        /* \"#utility.yul\":1557:1653   */\n      swap2\n      swap1\n      pop\n      jump\t// out\n        /* \"#utility.yul\":1659:1777   */\n    tag_157:\n        /* \"#utility.yul\":1746:1770   */\n      tag_237\n        /* \"#utility.yul\":1764:1769   */\n      dup2\n        /* \"#utility.yul\":1746:1770   */\n      tag_156\n      jump\t// in\n    tag_237:\n        /* \"#utility.yul\":1741:1744   */\n      dup3\n        /* \"#utility.yul\":1734:1771   */\n      mstore\n        /* \"#utility.yul\":1659:1777   */\n      pop\n      pop\n      jump\t// out\n        /* \"#utility.yul\":1783:2005   */\n    tag_32:\n        /* \"#utility.yul\":1876:1880   */\n      0x00\n        /* \"#utility.yul\":1914:1916   */\n      0x20\n        /* \"#utility.yul\":1903:1912   */\n      dup3\n        /* \"#utility.yul\":1899:1917   */\n      add\n        /* \"#utility.yul\":1891:1917   */\n      swap1\n      pop\n        /* \"#utility.yul\":1927:1998   */\n      tag_239\n        /* \"#utility.yul\":1995:1996   */\n      0x00\n        /* \"#utility.yul\":1984:1993   */\n      dup4\n        /* \"#utility.yul\":1980:1997   */\n      add\n        /* \"#utility.yul\":1971:1977   */\n      dup5\n        /* \"#utility.yul\":1927:1998   */\n      tag_157\n      jump\t// in\n    tag_239:\n        /* \"#utility.yul\":1783:2005   */\n      swap3\n      swap2\n      pop\n      pop\n      jump\t// out\n        /* \"#utility.yul\":2011:2086   */\n    tag_158:\n        /* \"#utility.yul\":2044:2050   */\n      0x00\n        /* \"#utility.yul\":2077:2079   */\n      0x40\n        /* \"#utility.yul\":2071:2080   */\n      mload\n        /* \"#utility.yul\":2061:2080   */\n      swap1\n      pop\n        /* \"#utility.yul\":2011:2086   */\n      swap1\n      jump\t// out\n        /* \"#utility.yul\":2092:2209   */\n    tag_159:\n        /* \"#utility.yul\":2201:2202   */\n      0x00\n        /* \"#utility.yul\":2198:2199   */\n      dup1\n        /* \"#utility.yul\":2191:2203   */\n      revert\n        /* \"#utility.yul\":2215:2332   */\n    tag_160:\n        /* \"#utility.yul\":2324:2325   */\n      0x00\n        /* \"#utility.yul\":2321:2322   */\n      dup1\n        /* \"#utility.yul\":2314:2326   */\n      revert\n        /* \"#utility.yul\":2338:2460   */\n    tag_161:\n        /* \"#utility.yul\":2411:2435   */\n      tag_244\n        /* \"#utility.yul\":2429:2434   */\n      dup2\n        /* \"#utility.yul\":2411:2435   */\n      tag_148\n      jump\t// in\n    tag_244:\n        /* \"#utility.yul\":2404:2409   */\n      dup2\n        /* \"#utility.yul\":2401:2436   */\n      eq\n        /* \"#utility.yul\":2391:2454   */\n      tag_245\n      jumpi\n        /* \"#utility.yul\":2450:2451   */\n      0x00\n        /* \"#utility.yul\":2447:2448   */\n      dup1\n        /* \"#utility.yul\":2440:2452   */\n      revert\n        /* \"#utility.yul\":2391:2454   */\n    tag_245:\n        /* \"#utility.yul\":2338:2460   */\n      pop\n      jump\t// out\n        /* \"#utility.yul\":2466:2605   */\n    tag_162:\n        /* \"#utility.yul\":2512:2517   */\n      0x00\n        /* \"#utility.yul\":2550:2556   */\n      dup2\n        /* \"#utility.yul\":2537:2557   */\n      calldataload\n        /* \"#utility.yul\":2528:2557   */\n      swap1\n      pop\n        /* \"#utility.yul\":2566:2599   */\n      tag_247\n        /* \"#utility.yul\":2593:2598   */\n      dup2\n        /* \"#utility.yul\":2566:2599   */\n      tag_161\n      jump\t// in\n    tag_247:\n        /* \"#utility.yul\":2466:2605   */\n      swap3\n      swap2\n      pop\n      pop\n      jump\t// out\n        /* \"#utility.yul\":2611:2733   */\n    tag_163:\n        /* \"#utility.yul\":2684:2708   */\n      tag_249\n        /* \"#utility.yul\":2702:2707   */\n      dup2\n        /* \"#utility.yul\":2684:2708   */\n      tag_156\n      jump\t// in\n    tag_249:\n        /* \"#utility.yul\":2677:2682   */\n      dup2\n        /* \"#utility.yul\":2674:2709   */\n      eq\n        /* \"#utility.yul\":2664:2727   */\n      tag_250\n      jumpi\n        /* \"#utility.yul\":2723:2724   */\n      0x00\n        /* \"#utility.yul\":2720:2721   */\n      dup1\n        /* \"#utility.yul\":2713:2725   */\n      revert\n        /* \"#utility.yul\":2664:2727   */\n    tag_250:\n        /* \"#utility.yul\":2611:2733   */\n      pop\n      jump\t// out\n        /* \"#utility.yul\":2739:2878   */\n    tag_164:\n        /* \"#utility.yul\":2785:2790   */\n      0x00\n        /* \"#utility.yul\":2823:2829   */\n      dup2\n        /* \"#utility.yul\":2810:2830   */\n      calldataload\n        /* \"#utility.yul\":2801:2830   */\n      swap1\n      pop\n        /* \"#utility.yul\":2839:2872   */\n      tag_252\n        /* \"#utility.yul\":2866:2871   */\n      dup2\n        /* \"#utility.yul\":2839:2872   */\n      tag_163\n      jump\t// in\n    tag_252:\n        /* \"#utility.yul\":2739:2878   */\n      swap3\n      swap2\n      pop\n      pop\n      jump\t// out\n        /* \"#utility.yul\":2884:3503   */\n    tag_36:\n        /* \"#utility.yul\":2961:2967   */\n      0x00\n        /* \"#utility.yul\":2969:2975   */\n      dup1\n        /* \"#utility.yul\":2977:2983   */\n      0x00\n        /* \"#utility.yul\":3026:3028   */\n      0x60\n        /* \"#utility.yul\":3014:3023   */\n      dup5\n        /* \"#utility.yul\":3005:3012   */\n      dup7\n        /* \"#utility.yul\":3001:3024   */\n      sub\n        /* \"#utility.yul\":2997:3029   */\n      slt\n        /* \"#utility.yul\":2994:3113   */\n      iszero\n      tag_254\n      jumpi\n        /* \"#utility.yul\":3032:3111   */\n      tag_255\n      tag_159\n      jump\t// in\n    tag_255:\n        /* \"#utility.yul\":2994:3113   */\n    tag_254:\n        /* \"#utility.yul\":3152:3153   */\n      0x00\n        /* \"#utility.yul\":3177:3230   */\n      tag_256\n        /* \"#utility.yul\":3222:3229   */\n      dup7\n        /* \"#utility.yul\":3213:3219   */\n      dup3\n        /* \"#utility.yul\":3202:3211   */\n      dup8\n        /* \"#utility.yul\":3198:3220   */\n      add\n        /* \"#utility.yul\":3177:3230   */\n      tag_162\n      jump\t// in\n    tag_256:\n        /* \"#utility.yul\":3167:3230   */\n      swap4\n      pop\n        /* \"#utility.yul\":3123:3240   */\n      pop\n        /* \"#utility.yul\":3279:3281   */\n      0x20\n        /* \"#utility.yul\":3305:3358   */\n      tag_257\n        /* \"#utility.yul\":3350:3357   */\n      dup7\n        /* \"#utility.yul\":3341:3347   */\n      dup3\n        /* \"#utility.yul\":3330:3339   */\n      dup8\n        /* \"#utility.yul\":3326:3348   */\n      add\n        /* \"#utility.yul\":3305:3358   */\n      tag_164\n      jump\t// in\n    tag_257:\n        /* \"#utility.yul\":3295:3358   */\n      swap3\n      pop\n        /* \"#utility.yul\":3250:3368   */\n      pop\n        /* \"#utility.yul\":3407:3409   */\n      0x40\n        /* \"#utility.yul\":3433:3486   */\n      tag_258\n        /* \"#utility.yul\":3478:3485   */\n      dup7\n        /* \"#utility.yul\":3469:3475   */\n      dup3\n        /* \"#utility.yul\":3458:3467   */\n      dup8\n        /* \"#utility.yul\":3454:3476   */\n      add\n        /* \"#utility.yul\":3433:3486   */\n      tag_162\n      jump\t// in\n    tag_258:\n        /* \"#utility.yul\":3423:3486   */\n      swap2\n      pop\n        /* \"#utility.yul\":3378:3496   */\n      pop\n        /* \"#utility.yul\":2884:3503   */\n      swap3\n      pop\n      swap3\n      pop\n      swap3\n      jump\t// out\n        /* \"#utility.yul\":3509:3626   */\n    tag_165:\n        /* \"#utility.yul\":3618:3619   */\n      0x00\n        /* \"#utility.yul\":3615:3616   */\n      dup1\n        /* \"#utility.yul\":3608:3620   */\n      revert\n        /* \"#utility.yul\":3632:3749   */\n    tag_166:\n        /* \"#utility.yul\":3741:3742   */\n      0x00\n        /* \"#utility.yul\":3738:3739   */\n      dup1\n        /* \"#utility.yul\":3731:3743   */\n      revert\n        /* \"#utility.yul\":3755:3857   */\n    tag_167:\n        /* \"#utility.yul\":3796:3802   */\n      0x00\n        /* \"#utility.yul\":3847:3849   */\n      0x1f\n        /* \"#utility.yul\":3843:3850   */\n      not\n        /* \"#utility.yul\":3838:3840   */\n      0x1f\n        /* \"#utility.yul\":3831:3836   */\n      dup4\n        /* \"#utility.yul\":3827:3841   */\n      add\n        /* \"#utility.yul\":3823:3851   */\n      and\n        /* \"#utility.yul\":3813:3851   */\n      swap1\n      pop\n        /* \"#utility.yul\":3755:3857   */\n      swap2\n      swap1\n      pop\n      jump\t// out\n        /* \"#utility.yul\":3863:4043   */\n    tag_168:\n        /* \"#utility.yul\":3911:3988   */\n      0x4e487b7100000000000000000000000000000000000000000000000000000000\n        /* \"#utility.yul\":3908:3909   */\n      0x00\n        /* \"#utility.yul\":3901:3989   */\n      mstore\n        /* \"#utility.yul\":4008:4012   */\n      0x41\n        /* \"#utility.yul\":4005:4006   */\n      0x04\n        /* \"#utility.yul\":3998:4013   */\n      mstore\n        /* \"#utility.yul\":4032:4036   */\n      0x24\n        /* \"#utility.yul\":4029:4030   */\n      0x00\n        /* \"#utility.yul\":4022:4037   */\n      revert\n        /* \"#utility.yul\":4049:4330   */\n    tag_169:\n        /* \"#utility.yul\":4132:4159   */\n      tag_264\n        /* \"#utility.yul\":4154:4158   */\n      dup3\n        /* \"#utility.yul\":4132:4159   */\n      tag_167\n      jump\t// in\n    tag_264:\n        /* \"#utility.yul\":4124:4130   */\n      dup2\n        /* \"#utility.yul\":4120:4160   */\n      add\n        /* \"#utility.yul\":4262:4268   */\n      dup2\n        /* \"#utility.yul\":4250:4260   */\n      dup2\n        /* \"#utility.yul\":4247:4269   */\n      lt\n        /* \"#utility.yul\":4226:4244   */\n      0xffffffffffffffff\n        /* \"#utility.yul\":4214:4224   */\n      dup3\n        /* \"#utility.yul\":4211:4245   */\n      gt\n        /* \"#utility.yul\":4208:4270   */\n      or\n        /* \"#utility.yul\":4205:4293   */\n      iszero\n      tag_265\n      jumpi\n        /* \"#utility.yul\":4273:4291   */\n      tag_266\n      tag_168\n      jump\t// in\n    tag_266:\n        /* \"#utility.yul\":4205:4293   */\n    tag_265:\n        /* \"#utility.yul\":4313:4323   */\n      dup1\n        /* \"#utility.yul\":4309:4311   */\n      0x40\n        /* \"#utility.yul\":4302:4324   */\n      mstore\n        /* \"#utility.yul\":4092:4330   */\n      pop\n        /* \"#utility.yul\":4049:4330   */\n      pop\n      pop\n      jump\t// out\n        /* \"#utility.yul\":4336:4465   */\n    tag_170:\n        /* \"#utility.yul\":4370:4376   */\n      0x00\n        /* \"#utility.yul\":4397:4417   */\n      tag_268\n      tag_158\n      jump\t// in\n    tag_268:\n        /* \"#utility.yul\":4387:4417   */\n      swap1\n      pop\n        /* \"#utility.yul\":4426:4459   */\n      tag_269\n        /* \"#utility.yul\":4454:4458   */\n      dup3\n        /* \"#utility.yul\":4446:4452   */\n      dup3\n        /* \"#utility.yul\":4426:4459   */\n      tag_169\n      jump\t// in\n    tag_269:\n        /* \"#utility.yul\":4336:4465   */\n      swap2\n      swap1\n      pop\n      jump\t// out\n        /* \"#utility.yul\":4471:4779   */\n    tag_171:\n        /* \"#utility.yul\":4533:4537   */\n      0x00\n        /* \"#utility.yul\":4623:4641   */\n      0xffffffffffffffff\n        /* \"#utility.yul\":4615:4621   */\n      dup3\n        /* \"#utility.yul\":4612:4642   */\n      gt\n        /* \"#utility.yul\":4609:4665   */\n      iszero\n      tag_271\n      jumpi\n        /* \"#utility.yul\":4645:4663   */\n      tag_272\n      tag_168\n      jump\t// in\n    tag_272:\n        /* \"#utility.yul\":4609:4665   */\n    tag_271:\n        /* \"#utility.yul\":4683:4712   */\n      tag_273\n        /* \"#utility.yul\":4705:4711   */\n      dup3\n        /* \"#utility.yul\":4683:4712   */\n      tag_167\n      jump\t// in\n    tag_273:\n        /* \"#utility.yul\":4675:4712   */\n      swap1\n      pop\n        /* \"#utility.yul\":4767:4771   */\n      0x20\n        /* \"#utility.yul\":4761:4765   */\n      dup2\n        /* \"#utility.yul\":4757:4772   */\n      add\n        /* \"#utility.yul\":4749:4772   */\n      swap1\n      pop\n        /* \"#utility.yul\":4471:4779   */\n      swap2\n      swap1\n      pop\n      jump\t// out\n        /* \"#utility.yul\":4785:4931   */\n    tag_172:\n        /* \"#utility.yul\":4882:4888   */\n      dup3\n        /* \"#utility.yul\":4877:4880   */\n      dup2\n        /* \"#utility.yul\":4872:4875   */\n      dup4\n        /* \"#utility.yul\":4859:4889   */\n      calldatacopy\n        /* \"#utility.yul\":4923:4924   */\n      0x00\n        /* \"#utility.yul\":4914:4920   */\n      dup4\n        /* \"#utility.yul\":4909:4912   */\n      dup4\n        /* \"#utility.yul\":4905:4921   */\n      add\n        /* \"#utility.yul\":4898:4925   */\n      mstore\n        /* \"#utility.yul\":4785:4931   */\n      pop\n      pop\n      pop\n      jump\t// out\n        /* \"#utility.yul\":4937:5362   */\n    tag_173:\n        /* \"#utility.yul\":5015:5020   */\n      0x00\n        /* \"#utility.yul\":5040:5106   */\n      tag_276\n        /* \"#utility.yul\":5056:5105   */\n      tag_277\n        /* \"#utility.yul\":5098:5104   */\n      dup5\n        /* \"#utility.yul\":5056:5105   */\n      tag_171\n      jump\t// in\n    tag_277:\n        /* \"#utility.yul\":5040:5106   */\n      tag_170\n      jump\t// in\n    tag_276:\n        /* \"#utility.yul\":5031:5106   */\n      swap1\n      pop\n        /* \"#utility.yul\":5129:5135   */\n      dup3\n        /* \"#utility.yul\":5122:5127   */\n      dup2\n        /* \"#utility.yul\":5115:5136   */\n      mstore\n        /* \"#utility.yul\":5167:5171   */\n      0x20\n        /* \"#utility.yul\":5160:5165   */\n      dup2\n        /* \"#utility.yul\":5156:5172   */\n      add\n        /* \"#utility.yul\":5205:5208   */\n      dup5\n        /* \"#utility.yul\":5196:5202   */\n      dup5\n        /* \"#utility.yul\":5191:5194   */\n      dup5\n        /* \"#utility.yul\":5187:5203   */\n      add\n        /* \"#utility.yul\":5184:5209   */\n      gt\n        /* \"#utility.yul\":5181:5293   */\n      iszero\n      tag_278\n      jumpi\n        /* \"#utility.yul\":5212:5291   */\n      tag_279\n      tag_166\n      jump\t// in\n    tag_279:\n        /* \"#utility.yul\":5181:5293   */\n    tag_278:\n        /* \"#utility.yul\":5302:5356   */\n      tag_280\n        /* \"#utility.yul\":5349:5355   */\n      dup5\n        /* \"#utility.yul\":5344:5347   */\n      dup3\n        /* \"#utility.yul\":5339:5342   */\n      dup6\n        /* \"#utility.yul\":5302:5356   */\n      tag_172\n      jump\t// in\n    tag_280:\n        /* \"#utility.yul\":5021:5362   */\n      pop\n        /* \"#utility.yul\":4937:5362   */\n      swap4\n      swap3\n      pop\n      pop\n      pop\n      jump\t// out\n        /* \"#utility.yul\":5382:5722   */\n    tag_174:\n        /* \"#utility.yul\":5438:5443   */\n      0x00\n        /* \"#utility.yul\":5487:5490   */\n      dup3\n        /* \"#utility.yul\":5480:5484   */\n      0x1f\n        /* \"#utility.yul\":5472:5478   */\n      dup4\n        /* \"#utility.yul\":5468:5485   */\n      add\n        /* \"#utility.yul\":5464:5491   */\n      slt\n        /* \"#utility.yul\":5454:5576   */\n      tag_282\n      jumpi\n        /* \"#utility.yul\":5495:5574   */\n      tag_283\n      tag_165\n      jump\t// in\n    tag_283:\n        /* \"#utility.yul\":5454:5576   */\n    tag_282:\n        /* \"#utility.yul\":5612:5618   */\n      dup2\n        /* \"#utility.yul\":5599:5619   */\n      calldataload\n        /* \"#utility.yul\":5637:5716   */\n      tag_284\n        /* \"#utility.yul\":5712:5715   */\n      dup5\n        /* \"#utility.yul\":5704:5710   */\n      dup3\n        /* \"#utility.yul\":5697:5701   */\n      0x20\n        /* \"#utility.yul\":5689:5695   */\n      dup7\n        /* \"#utility.yul\":5685:5702   */\n      add\n        /* \"#utility.yul\":5637:5716   */\n      tag_173\n      jump\t// in\n    tag_284:\n        /* \"#utility.yul\":5628:5716   */\n      swap2\n      pop\n        /* \"#utility.yul\":5444:5722   */\n      pop\n        /* \"#utility.yul\":5382:5722   */\n      swap3\n      swap2\n      pop\n      pop\n      jump\t// out\n        /* \"#utility.yul\":5728:6237   */\n    tag_40:\n        /* \"#utility.yul\":5797:5803   */\n      0x00\n        /* \"#utility.yul\":5846:5848   */\n      0x20\n        /* \"#utility.yul\":5834:5843   */\n      dup3\n        /* \"#utility.yul\":5825:5832   */\n      dup5\n        /* \"#utility.yul\":5821:5844   */\n      sub\n        /* \"#utility.yul\":5817:5849   */\n      slt\n        /* \"#utility.yul\":5814:5933   */\n      iszero\n      tag_286\n      jumpi\n        /* \"#utility.yul\":5852:5931   */\n      tag_287\n      tag_159\n      jump\t// in\n    tag_287:\n        /* \"#utility.yul\":5814:5933   */\n    tag_286:\n        /* \"#utility.yul\":6000:6001   */\n      0x00\n        /* \"#utility.yul\":5989:5998   */\n      dup3\n        /* \"#utility.yul\":5985:6002   */\n      add\n        /* \"#utility.yul\":5972:6003   */\n      calldataload\n        /* \"#utility.yul\":6030:6048   */\n      0xffffffffffffffff\n        /* \"#utility.yul\":6022:6028   */\n      dup2\n        /* \"#utility.yul\":6019:6049   */\n      gt\n        /* \"#utility.yul\":6016:6133   */\n      iszero\n      tag_288\n      jumpi\n        /* \"#utility.yul\":6052:6131   */\n      tag_289\n      tag_160\n      jump\t// in\n    tag_289:\n        /* \"#utility.yul\":6016:6133   */\n    tag_288:\n        /* \"#utility.yul\":6157:6220   */\n      tag_290\n        /* \"#utility.yul\":6212:6219   */\n      dup5\n        /* \"#utility.yul\":6203:6209   */\n      dup3\n        /* \"#utility.yul\":6192:6201   */\n      dup6\n        /* \"#utility.yul\":6188:6210   */\n      add\n        /* \"#utility.yul\":6157:6220   */\n      tag_174\n      jump\t// in\n    tag_290:\n        /* \"#utility.yul\":6147:6220   */\n      swap2\n      pop\n        /* \"#utility.yul\":5943:6230   */\n      pop\n        /* \"#utility.yul\":5728:6237   */\n      swap3\n      swap2\n      pop\n      pop\n      jump\t// out\n        /* \"#utility.yul\":6243:6319   */\n    tag_175:\n        /* \"#utility.yul\":6279:6286   */\n      0x00\n        /* \"#utility.yul\":6308:6313   */\n      dup2\n        /* \"#utility.yul\":6297:6313   */\n      swap1\n      pop\n        /* \"#utility.yul\":6243:6319   */\n      swap2\n      swap1\n      pop\n      jump\t// out\n        /* \"#utility.yul\":6325:6440   */\n    tag_176:\n        /* \"#utility.yul\":6410:6433   */\n      tag_293\n        /* \"#utility.yul\":6427:6432   */\n      dup2\n        /* \"#utility.yul\":6410:6433   */\n      tag_175\n      jump\t// in\n    tag_293:\n        /* \"#utility.yul\":6405:6408   */\n      dup3\n        /* \"#utility.yul\":6398:6434   */\n      mstore\n        /* \"#utility.yul\":6325:6440   */\n      pop\n      pop\n      jump\t// out\n        /* \"#utility.yul\":6446:6664   */\n    tag_46:\n        /* \"#utility.yul\":6537:6541   */\n      0x00\n        /* \"#utility.yul\":6575:6577   */\n      0x20\n        /* \"#utility.yul\":6564:6573   */\n      dup3\n        /* \"#utility.yul\":6560:6578   */\n      add\n        /* \"#utility.yul\":6552:6578   */\n      swap1\n      pop\n        /* \"#utility.yul\":6588:6657   */\n      tag_295\n        /* \"#utility.yul\":6654:6655   */\n      0x00\n        /* \"#utility.yul\":6643:6652   */\n      dup4\n        /* \"#utility.yul\":6639:6656   */\n      add\n        /* \"#utility.yul\":6630:6636   */\n      dup5\n        /* \"#utility.yul\":6588:6657   */\n      tag_176\n      jump\t// in\n    tag_295:\n        /* \"#utility.yul\":6446:6664   */\n      swap3\n      swap2\n      pop\n      pop\n      jump\t// out\n        /* \"#utility.yul\":6670:6999   */\n    tag_50:\n        /* \"#utility.yul\":6729:6735   */\n      0x00\n        /* \"#utility.yul\":6778:6780   */\n      0x20\n        /* \"#utility.yul\":6766:6775   */\n      dup3\n        /* \"#utility.yul\":6757:6764   */\n      dup5\n        /* \"#utility.yul\":6753:6776   */\n      sub\n        /* \"#utility.yul\":6749:6781   */\n      slt\n        /* \"#utility.yul\":6746:6865   */\n      iszero\n      tag_297\n      jumpi\n        /* \"#utility.yul\":6784:6863   */\n      tag_298\n      tag_159\n      jump\t// in\n    tag_298:\n        /* \"#utility.yul\":6746:6865   */\n    tag_297:\n        /* \"#utility.yul\":6904:6905   */\n      0x00\n        /* \"#utility.yul\":6929:6982   */\n      tag_299\n        /* \"#utility.yul\":6974:6981   */\n      dup5\n        /* \"#utility.yul\":6965:6971   */\n      dup3\n        /* \"#utility.yul\":6954:6963   */\n      dup6\n        /* \"#utility.yul\":6950:6972   */\n      add\n        /* \"#utility.yul\":6929:6982   */\n      tag_164\n      jump\t// in\n    tag_299:\n        /* \"#utility.yul\":6919:6982   */\n      swap2\n      pop\n        /* \"#utility.yul\":6875:6992   */\n      pop\n        /* \"#utility.yul\":6670:6999   */\n      swap3\n      swap2\n      pop\n      pop\n      jump\t// out\n        /* \"#utility.yul\":7005:7334   */\n    tag_56:\n        /* \"#utility.yul\":7064:7070   */\n      0x00\n        /* \"#utility.yul\":7113:7115   */\n      0x20\n        /* \"#utility.yul\":7101:7110   */\n      dup3\n        /* \"#utility.yul\":7092:7099   */\n      dup5\n        /* \"#utility.yul\":7088:7111   */\n      sub\n        /* \"#utility.yul\":7084:7116   */\n      slt\n        /* \"#utility.yul\":7081:7200   */\n      iszero\n      tag_301\n      jumpi\n        /* \"#utility.yul\":7119:7198   */\n      tag_302\n      tag_159\n      jump\t// in\n    tag_302:\n        /* \"#utility.yul\":7081:7200   */\n    tag_301:\n        /* \"#utility.yul\":7239:7240   */\n      0x00\n        /* \"#utility.yul\":7264:7317   */\n      tag_303\n        /* \"#utility.yul\":7309:7316   */\n      dup5\n        /* \"#utility.yul\":7300:7306   */\n      dup3\n        /* \"#utility.yul\":7289:7298   */\n      dup6\n        /* \"#utility.yul\":7285:7307   */\n      add\n        /* \"#utility.yul\":7264:7317   */\n      tag_162\n      jump\t// in\n    tag_303:\n        /* \"#utility.yul\":7254:7317   */\n      swap2\n      pop\n        /* \"#utility.yul\":7210:7327   */\n      pop\n        /* \"#utility.yul\":7005:7334   */\n      swap3\n      swap2\n      pop\n      pop\n      jump\t// out\n        /* \"#utility.yul\":7340:7814   */\n    tag_61:\n        /* \"#utility.yul\":7408:7414   */\n      0x00\n        /* \"#utility.yul\":7416:7422   */\n      dup1\n        /* \"#utility.yul\":7465:7467   */\n      0x40\n        /* \"#utility.yul\":7453:7462   */\n      dup4\n        /* \"#utility.yul\":7444:7451   */\n      dup6\n        /* \"#utility.yul\":7440:7463   */\n      sub\n        /* \"#utility.yul\":7436:7468   */\n      slt\n        /* \"#utility.yul\":7433:7552   */\n      iszero\n      tag_305\n      jumpi\n        /* \"#utility.yul\":7471:7550   */\n      tag_306\n      tag_159\n      jump\t// in\n    tag_306:\n        /* \"#utility.yul\":7433:7552   */\n    tag_305:\n        /* \"#utility.yul\":7591:7592   */\n      0x00\n        /* \"#utility.yul\":7616:7669   */\n      tag_307\n        /* \"#utility.yul\":7661:7668   */\n      dup6\n        /* \"#utility.yul\":7652:7658   */\n      dup3\n        /* \"#utility.yul\":7641:7650   */\n      dup7\n        /* \"#utility.yul\":7637:7659   */\n      add\n        /* \"#utility.yul\":7616:7669   */\n      tag_164\n      jump\t// in\n    tag_307:\n        /* \"#utility.yul\":7606:7669   */\n      swap3\n      pop\n        /* \"#utility.yul\":7562:7679   */\n      pop\n        /* \"#utility.yul\":7718:7720   */\n      0x20\n        /* \"#utility.yul\":7744:7797   */\n      tag_308\n        /* \"#utility.yul\":7789:7796   */\n      dup6\n        /* \"#utility.yul\":7780:7786   */\n      dup3\n        /* \"#utility.yul\":7769:7778   */\n      dup7\n        /* \"#utility.yul\":7765:7787   */\n      add\n        /* \"#utility.yul\":7744:7797   */\n      tag_162\n      jump\t// in\n    tag_308:\n        /* \"#utility.yul\":7734:7797   */\n      swap2\n      pop\n        /* \"#utility.yul\":7689:7807   */\n      pop\n        /* \"#utility.yul\":7340:7814   */\n      swap3\n      pop\n      swap3\n      swap1\n      pop\n      jump\t// out\n        /* \"#utility.yul\":7820:7910   */\n    tag_177:\n        /* \"#utility.yul\":7854:7861   */\n      0x00\n        /* \"#utility.yul\":7897:7902   */\n      dup2\n        /* \"#utility.yul\":7890:7903   */\n      iszero\n        /* \"#utility.yul\":7883:7904   */\n      iszero\n        /* \"#utility.yul\":7872:7904   */\n      swap1\n      pop\n        /* \"#utility.yul\":7820:7910   */\n      swap2\n      swap1\n      pop\n      jump\t// out\n        /* \"#utility.yul\":7916:8025   */\n    tag_178:\n        /* \"#utility.yul\":7997:8018   */\n      tag_311\n        /* \"#utility.yul\":8012:8017   */\n      dup2\n        /* \"#utility.yul\":7997:8018   */\n      tag_177\n      jump\t// in\n    tag_311:\n        /* \"#utility.yul\":7992:7995   */\n      dup3\n        /* \"#utility.yul\":7985:8019   */\n      mstore\n        /* \"#utility.yul\":7916:8025   */\n      pop\n      pop\n      jump\t// out\n        /* \"#utility.yul\":8031:8130   */\n    tag_179:\n        /* \"#utility.yul\":8083:8089   */\n      0x00\n        /* \"#utility.yul\":8117:8122   */\n      dup2\n        /* \"#utility.yul\":8111:8123   */\n      mload\n        /* \"#utility.yul\":8101:8123   */\n      swap1\n      pop\n        /* \"#utility.yul\":8031:8130   */\n      swap2\n      swap1\n      pop\n      jump\t// out\n        /* \"#utility.yul\":8136:8305   */\n    tag_180:\n        /* \"#utility.yul\":8220:8231   */\n      0x00\n        /* \"#utility.yul\":8254:8260   */\n      dup3\n        /* \"#utility.yul\":8249:8252   */\n      dup3\n        /* \"#utility.yul\":8242:8261   */\n      mstore\n        /* \"#utility.yul\":8294:8298   */\n      0x20\n        /* \"#utility.yul\":8289:8292   */\n      dup3\n        /* \"#utility.yul\":8285:8299   */\n      add\n        /* \"#utility.yul\":8270:8299   */\n      swap1\n      pop\n        /* \"#utility.yul\":8136:8305   */\n      swap3\n      swap2\n      pop\n      pop\n      jump\t// out\n        /* \"#utility.yul\":8311:8557   */\n    tag_181:\n        /* \"#utility.yul\":8392:8393   */\n      0x00\n        /* \"#utility.yul\":8402:8515   */\n    tag_315:\n        /* \"#utility.yul\":8416:8422   */\n      dup4\n        /* \"#utility.yul\":8413:8414   */\n      dup2\n        /* \"#utility.yul\":8410:8423   */\n      lt\n        /* \"#utility.yul\":8402:8515   */\n      iszero\n      tag_317\n      jumpi\n        /* \"#utility.yul\":8501:8502   */\n      dup1\n        /* \"#utility.yul\":8496:8499   */\n      dup3\n        /* \"#utility.yul\":8492:8503   */\n      add\n        /* \"#utility.yul\":8486:8504   */\n      mload\n        /* \"#utility.yul\":8482:8483   */\n      dup2\n        /* \"#utility.yul\":8477:8480   */\n      dup5\n        /* \"#utility.yul\":8473:8484   */\n      add\n        /* \"#utility.yul\":8466:8505   */\n      mstore\n        /* \"#utility.yul\":8438:8440   */\n      0x20\n        /* \"#utility.yul\":8435:8436   */\n      dup2\n        /* \"#utility.yul\":8431:8441   */\n      add\n        /* \"#utility.yul\":8426:8441   */\n      swap1\n      pop\n        /* \"#utility.yul\":8402:8515   */\n      jump(tag_315)\n    tag_317:\n        /* \"#utility.yul\":8549:8550   */\n      0x00\n        /* \"#utility.yul\":8540:8546   */\n      dup5\n        /* \"#utility.yul\":8535:8538   */\n      dup5\n        /* \"#utility.yul\":8531:8547   */\n      add\n        /* \"#utility.yul\":8524:8551   */\n      mstore\n        /* \"#utility.yul\":8373:8557   */\n      pop\n        /* \"#utility.yul\":8311:8557   */\n      pop\n      pop\n      pop\n      jump\t// out\n        /* \"#utility.yul\":8563:8940   */\n    tag_182:\n        /* \"#utility.yul\":8651:8654   */\n      0x00\n        /* \"#utility.yul\":8679:8718   */\n      tag_319\n        /* \"#utility.yul\":8712:8717   */\n      dup3\n        /* \"#utility.yul\":8679:8718   */\n      tag_179\n      jump\t// in\n    tag_319:\n        /* \"#utility.yul\":8734:8805   */\n      tag_320\n        /* \"#utility.yul\":8798:8804   */\n      dup2\n        /* \"#utility.yul\":8793:8796   */\n      dup6\n        /* \"#utility.yul\":8734:8805   */\n      tag_180\n      jump\t// in\n    tag_320:\n        /* \"#utility.yul\":8727:8805   */\n      swap4\n      pop\n        /* \"#utility.yul\":8814:8879   */\n      tag_321\n        /* \"#utility.yul\":8872:8878   */\n      dup2\n        /* \"#utility.yul\":8867:8870   */\n      dup6\n        /* \"#utility.yul\":8860:8864   */\n      0x20\n        /* \"#utility.yul\":8853:8858   */\n      dup7\n        /* \"#utility.yul\":8849:8865   */\n      add\n        /* \"#utility.yul\":8814:8879   */\n      tag_181\n      jump\t// in\n    tag_321:\n        /* \"#utility.yul\":8904:8933   */\n      tag_322\n        /* \"#utility.yul\":8926:8932   */\n      dup2\n        /* \"#utility.yul\":8904:8933   */\n      tag_167\n      jump\t// in\n    tag_322:\n        /* \"#utility.yul\":8899:8902   */\n      dup5\n        /* \"#utility.yul\":8895:8934   */\n      add\n        /* \"#utility.yul\":8888:8934   */\n      swap2\n      pop\n        /* \"#utility.yul\":8655:8940   */\n      pop\n        /* \"#utility.yul\":8563:8940   */\n      swap3\n      swap2\n      pop\n      pop\n      jump\t// out\n        /* \"#utility.yul\":8946:9899   */\n    tag_64:\n        /* \"#utility.yul\":9215:9219   */\n      0x00\n        /* \"#utility.yul\":9253:9256   */\n      0xe0\n        /* \"#utility.yul\":9242:9251   */\n      dup3\n        /* \"#utility.yul\":9238:9257   */\n      add\n        /* \"#utility.yul\":9230:9257   */\n      swap1\n      pop\n        /* \"#utility.yul\":9267:9338   */\n      tag_324\n        /* \"#utility.yul\":9335:9336   */\n      0x00\n        /* \"#utility.yul\":9324:9333   */\n      dup4\n        /* \"#utility.yul\":9320:9337   */\n      add\n        /* \"#utility.yul\":9311:9317   */\n      dup11\n        /* \"#utility.yul\":9267:9338   */\n      tag_157\n      jump\t// in\n    tag_324:\n        /* \"#utility.yul\":9348:9414   */\n      tag_325\n        /* \"#utility.yul\":9410:9412   */\n      0x20\n        /* \"#utility.yul\":9399:9408   */\n      dup4\n        /* \"#utility.yul\":9395:9413   */\n      add\n        /* \"#utility.yul\":9386:9392   */\n      dup10\n        /* \"#utility.yul\":9348:9414   */\n      tag_178\n      jump\t// in\n    tag_325:\n        /* \"#utility.yul\":9424:9496   */\n      tag_326\n        /* \"#utility.yul\":9492:9494   */\n      0x40\n        /* \"#utility.yul\":9481:9490   */\n      dup4\n        /* \"#utility.yul\":9477:9495   */\n      add\n        /* \"#utility.yul\":9468:9474   */\n      dup9\n        /* \"#utility.yul\":9424:9496   */\n      tag_149\n      jump\t// in\n    tag_326:\n        /* \"#utility.yul\":9506:9578   */\n      tag_327\n        /* \"#utility.yul\":9574:9576   */\n      0x60\n        /* \"#utility.yul\":9563:9572   */\n      dup4\n        /* \"#utility.yul\":9559:9577   */\n      add\n        /* \"#utility.yul\":9550:9556   */\n      dup8\n        /* \"#utility.yul\":9506:9578   */\n      tag_149\n      jump\t// in\n    tag_327:\n        /* \"#utility.yul\":9588:9655   */\n      tag_328\n        /* \"#utility.yul\":9650:9653   */\n      0x80\n        /* \"#utility.yul\":9639:9648   */\n      dup4\n        /* \"#utility.yul\":9635:9654   */\n      add\n        /* \"#utility.yul\":9626:9632   */\n      dup7\n        /* \"#utility.yul\":9588:9655   */\n      tag_178\n      jump\t// in\n    tag_328:\n        /* \"#utility.yul\":9703:9712   */\n      dup2\n        /* \"#utility.yul\":9697:9701   */\n      dup2\n        /* \"#utility.yul\":9693:9713   */\n      sub\n        /* \"#utility.yul\":9687:9690   */\n      0xa0\n        /* \"#utility.yul\":9676:9685   */\n      dup4\n        /* \"#utility.yul\":9672:9691   */\n      add\n        /* \"#utility.yul\":9665:9714   */\n      mstore\n        /* \"#utility.yul\":9731:9809   */\n      tag_329\n        /* \"#utility.yul\":9804:9808   */\n      dup2\n        /* \"#utility.yul\":9795:9801   */\n      dup6\n        /* \"#utility.yul\":9731:9809   */\n      tag_182\n      jump\t// in\n    tag_329:\n        /* \"#utility.yul\":9723:9809   */\n      swap1\n      pop\n        /* \"#utility.yul\":9819:9892   */\n      tag_330\n        /* \"#utility.yul\":9887:9890   */\n      0xc0\n        /* \"#utility.yul\":9876:9885   */\n      dup4\n        /* \"#utility.yul\":9872:9891   */\n      add\n        /* \"#utility.yul\":9863:9869   */\n      dup5\n        /* \"#utility.yul\":9819:9892   */\n      tag_149\n      jump\t// in\n    tag_330:\n        /* \"#utility.yul\":8946:9899   */\n      swap9\n      swap8\n      pop\n      pop\n      pop\n      pop\n      pop\n      pop\n      pop\n      pop\n      jump\t// out\n        /* \"#utility.yul\":9905:10075   */\n    tag_183:\n        /* \"#utility.yul\":10045:10067   */\n      0x436f6e7472616374206973206e6f74206f70656e000000000000000000000000\n        /* \"#utility.yul\":10041:10042   */\n      0x00\n        /* \"#utility.yul\":10033:10039   */\n      dup3\n        /* \"#utility.yul\":10029:10043   */\n      add\n        /* \"#utility.yul\":10022:10068   */\n      mstore\n        /* \"#utility.yul\":9905:10075   */\n      pop\n      jump\t// out\n        /* \"#utility.yul\":10081:10447   */\n    tag_184:\n        /* \"#utility.yul\":10223:10226   */\n      0x00\n        /* \"#utility.yul\":10244:10311   */\n      tag_333\n        /* \"#utility.yul\":10308:10310   */\n      0x14\n        /* \"#utility.yul\":10303:10306   */\n      dup4\n        /* \"#utility.yul\":10244:10311   */\n      tag_180\n      jump\t// in\n    tag_333:\n        /* \"#utility.yul\":10237:10311   */\n      swap2\n      pop\n        /* \"#utility.yul\":10320:10413   */\n      tag_334\n        /* \"#utility.yul\":10409:10412   */\n      dup3\n        /* \"#utility.yul\":10320:10413   */\n      tag_183\n      jump\t// in\n    tag_334:\n        /* \"#utility.yul\":10438:10440   */\n      0x20\n        /* \"#utility.yul\":10433:10436   */\n      dup3\n        /* \"#utility.yul\":10429:10441   */\n      add\n        /* \"#utility.yul\":10422:10441   */\n      swap1\n      pop\n        /* \"#utility.yul\":10081:10447   */\n      swap2\n      swap1\n      pop\n      jump\t// out\n        /* \"#utility.yul\":10453:10872   */\n    tag_87:\n        /* \"#utility.yul\":10619:10623   */\n      0x00\n        /* \"#utility.yul\":10657:10659   */\n      0x20\n        /* \"#utility.yul\":10646:10655   */\n      dup3\n        /* \"#utility.yul\":10642:10660   */\n      add\n        /* \"#utility.yul\":10634:10660   */\n      swap1\n      pop\n        /* \"#utility.yul\":10706:10715   */\n      dup2\n        /* \"#utility.yul\":10700:10704   */\n      dup2\n        /* \"#utility.yul\":10696:10716   */\n      sub\n        /* \"#utility.yul\":10692:10693   */\n      0x00\n        /* \"#utility.yul\":10681:10690   */\n      dup4\n        /* \"#utility.yul\":10677:10694   */\n      add\n        /* \"#utility.yul\":10670:10717   */\n      mstore\n        /* \"#utility.yul\":10734:10865   */\n      tag_336\n        /* \"#utility.yul\":10860:10864   */\n      dup2\n        /* \"#utility.yul\":10734:10865   */\n      tag_184\n      jump\t// in\n    tag_336:\n        /* \"#utility.yul\":10726:10865   */\n      swap1\n      pop\n        /* \"#utility.yul\":10453:10872   */\n      swap2\n      swap1\n      pop\n      jump\t// out\n        /* \"#utility.yul\":10878:11059   */\n    tag_185:\n        /* \"#utility.yul\":11018:11051   */\n      0x56616c7565206d7573742062652067726561746572207468616e207a65726f00\n        /* \"#utility.yul\":11014:11015   */\n      0x00\n        /* \"#utility.yul\":11006:11012   */\n      dup3\n        /* \"#utility.yul\":11002:11016   */\n      add\n        /* \"#utility.yul\":10995:11052   */\n      mstore\n        /* \"#utility.yul\":10878:11059   */\n      pop\n      jump\t// out\n        /* \"#utility.yul\":11065:11431   */\n    tag_186:\n        /* \"#utility.yul\":11207:11210   */\n      0x00\n        /* \"#utility.yul\":11228:11295   */\n      tag_339\n        /* \"#utility.yul\":11292:11294   */\n      0x1f\n        /* \"#utility.yul\":11287:11290   */\n      dup4\n        /* \"#utility.yul\":11228:11295   */\n      tag_180\n      jump\t// in\n    tag_339:\n        /* \"#utility.yul\":11221:11295   */\n      swap2\n      pop\n        /* \"#utility.yul\":11304:11397   */\n      tag_340\n        /* \"#utility.yul\":11393:11396   */\n      dup3\n        /* \"#utility.yul\":11304:11397   */\n      tag_185\n      jump\t// in\n    tag_340:\n        /* \"#utility.yul\":11422:11424   */\n      0x20\n        /* \"#utility.yul\":11417:11420   */\n      dup3\n        /* \"#utility.yul\":11413:11425   */\n      add\n        /* \"#utility.yul\":11406:11425   */\n      swap1\n      pop\n        /* \"#utility.yul\":11065:11431   */\n      swap2\n      swap1\n      pop\n      jump\t// out\n        /* \"#utility.yul\":11437:11856   */\n    tag_91:\n        /* \"#utility.yul\":11603:11607   */\n      0x00\n        /* \"#utility.yul\":11641:11643   */\n      0x20\n        /* \"#utility.yul\":11630:11639   */\n      dup3\n        /* \"#utility.yul\":11626:11644   */\n      add\n        /* \"#utility.yul\":11618:11644   */\n      swap1\n      pop\n        /* \"#utility.yul\":11690:11699   */\n      dup2\n        /* \"#utility.yul\":11684:11688   */\n      dup2\n        /* \"#utility.yul\":11680:11700   */\n      sub\n        /* \"#utility.yul\":11676:11677   */\n      0x00\n        /* \"#utility.yul\":11665:11674   */\n      dup4\n        /* \"#utility.yul\":11661:11678   */\n      add\n        /* \"#utility.yul\":11654:11701   */\n      mstore\n        /* \"#utility.yul\":11718:11849   */\n      tag_342\n        /* \"#utility.yul\":11844:11848   */\n      dup2\n        /* \"#utility.yul\":11718:11849   */\n      tag_186\n      jump\t// in\n    tag_342:\n        /* \"#utility.yul\":11710:11849   */\n      swap1\n      pop\n        /* \"#utility.yul\":11437:11856   */\n      swap2\n      swap1\n      pop\n      jump\t// out\n        /* \"#utility.yul\":11862:12042   */\n    tag_187:\n        /* \"#utility.yul\":11910:11987   */\n      0x4e487b7100000000000000000000000000000000000000000000000000000000\n        /* \"#utility.yul\":11907:11908   */\n      0x00\n        /* \"#utility.yul\":11900:11988   */\n      mstore\n        /* \"#utility.yul\":12007:12011   */\n      0x11\n        /* \"#utility.yul\":12004:12005   */\n      0x04\n        /* \"#utility.yul\":11997:12012   */\n      mstore\n        /* \"#utility.yul\":12031:12035   */\n      0x24\n        /* \"#utility.yul\":12028:12029   */\n      0x00\n        /* \"#utility.yul\":12021:12036   */\n      revert\n        /* \"#utility.yul\":12048:12239   */\n    tag_93:\n        /* \"#utility.yul\":12088:12091   */\n      0x00\n        /* \"#utility.yul\":12107:12127   */\n      tag_345\n        /* \"#utility.yul\":12125:12126   */\n      dup3\n        /* \"#utility.yul\":12107:12127   */\n      tag_148\n      jump\t// in\n    tag_345:\n        /* \"#utility.yul\":12102:12127   */\n      swap2\n      pop\n        /* \"#utility.yul\":12141:12161   */\n      tag_346\n        /* \"#utility.yul\":12159:12160   */\n      dup4\n        /* \"#utility.yul\":12141:12161   */\n      tag_148\n      jump\t// in\n    tag_346:\n        /* \"#utility.yul\":12136:12161   */\n      swap3\n      pop\n        /* \"#utility.yul\":12184:12185   */\n      dup3\n        /* \"#utility.yul\":12181:12182   */\n      dup3\n        /* \"#utility.yul\":12177:12186   */\n      add\n        /* \"#utility.yul\":12170:12186   */\n      swap1\n      pop\n        /* \"#utility.yul\":12205:12208   */\n      dup1\n        /* \"#utility.yul\":12202:12203   */\n      dup3\n        /* \"#utility.yul\":12199:12209   */\n      gt\n        /* \"#utility.yul\":12196:12232   */\n      iszero\n      tag_347\n      jumpi\n        /* \"#utility.yul\":12212:12230   */\n      tag_348\n      tag_187\n      jump\t// in\n    tag_348:\n        /* \"#utility.yul\":12196:12232   */\n    tag_347:\n        /* \"#utility.yul\":12048:12239   */\n      swap3\n      swap2\n      pop\n      pop\n      jump\t// out\n        /* \"#utility.yul\":12245:12393   */\n    tag_188:\n        /* \"#utility.yul\":12347:12358   */\n      0x00\n        /* \"#utility.yul\":12384:12387   */\n      dup2\n        /* \"#utility.yul\":12369:12387   */\n      swap1\n      pop\n        /* \"#utility.yul\":12245:12393   */\n      swap3\n      swap2\n      pop\n      pop\n      jump\t// out\n        /* \"#utility.yul\":12399:12789   */\n    tag_189:\n        /* \"#utility.yul\":12505:12508   */\n      0x00\n        /* \"#utility.yul\":12533:12572   */\n      tag_351\n        /* \"#utility.yul\":12566:12571   */\n      dup3\n        /* \"#utility.yul\":12533:12572   */\n      tag_179\n      jump\t// in\n    tag_351:\n        /* \"#utility.yul\":12588:12677   */\n      tag_352\n        /* \"#utility.yul\":12670:12676   */\n      dup2\n        /* \"#utility.yul\":12665:12668   */\n      dup6\n        /* \"#utility.yul\":12588:12677   */\n      tag_188\n      jump\t// in\n    tag_352:\n        /* \"#utility.yul\":12581:12677   */\n      swap4\n      pop\n        /* \"#utility.yul\":12686:12751   */\n      tag_353\n        /* \"#utility.yul\":12744:12750   */\n      dup2\n        /* \"#utility.yul\":12739:12742   */\n      dup6\n        /* \"#utility.yul\":12732:12736   */\n      0x20\n        /* \"#utility.yul\":12725:12730   */\n      dup7\n        /* \"#utility.yul\":12721:12737   */\n      add\n        /* \"#utility.yul\":12686:12751   */\n      tag_181\n      jump\t// in\n    tag_353:\n        /* \"#utility.yul\":12776:12782   */\n      dup1\n        /* \"#utility.yul\":12771:12774   */\n      dup5\n        /* \"#utility.yul\":12767:12783   */\n      add\n        /* \"#utility.yul\":12760:12783   */\n      swap2\n      pop\n        /* \"#utility.yul\":12509:12789   */\n      pop\n        /* \"#utility.yul\":12399:12789   */\n      swap3\n      swap2\n      pop\n      pop\n      jump\t// out\n        /* \"#utility.yul\":12795:13070   */\n    tag_95:\n        /* \"#utility.yul\":12927:12930   */\n      0x00\n        /* \"#utility.yul\":12949:13044   */\n      tag_355\n        /* \"#utility.yul\":13040:13043   */\n      dup3\n        /* \"#utility.yul\":13031:13037   */\n      dup5\n        /* \"#utility.yul\":12949:13044   */\n      tag_189\n      jump\t// in\n    tag_355:\n        /* \"#utility.yul\":12942:13044   */\n      swap2\n      pop\n        /* \"#utility.yul\":13061:13064   */\n      dup2\n        /* \"#utility.yul\":13054:13064   */\n      swap1\n      pop\n        /* \"#utility.yul\":12795:13070   */\n      swap3\n      swap2\n      pop\n      pop\n      jump\t// out\n        /* \"#utility.yul\":13076:13256   */\n    tag_190:\n        /* \"#utility.yul\":13124:13201   */\n      0x4e487b7100000000000000000000000000000000000000000000000000000000\n        /* \"#utility.yul\":13121:13122   */\n      0x00\n        /* \"#utility.yul\":13114:13202   */\n      mstore\n        /* \"#utility.yul\":13221:13225   */\n      0x12\n        /* \"#utility.yul\":13218:13219   */\n      0x04\n        /* \"#utility.yul\":13211:13226   */\n      mstore\n        /* \"#utility.yul\":13245:13249   */\n      0x24\n        /* \"#utility.yul\":13242:13243   */\n      0x00\n        /* \"#utility.yul\":13235:13250   */\n      revert\n        /* \"#utility.yul\":13262:13447   */\n    tag_97:\n        /* \"#utility.yul\":13302:13303   */\n      0x00\n        /* \"#utility.yul\":13319:13339   */\n      tag_358\n        /* \"#utility.yul\":13337:13338   */\n      dup3\n        /* \"#utility.yul\":13319:13339   */\n      tag_148\n      jump\t// in\n    tag_358:\n        /* \"#utility.yul\":13314:13339   */\n      swap2\n      pop\n        /* \"#utility.yul\":13353:13373   */\n      tag_359\n        /* \"#utility.yul\":13371:13372   */\n      dup4\n        /* \"#utility.yul\":13353:13373   */\n      tag_148\n      jump\t// in\n    tag_359:\n        /* \"#utility.yul\":13348:13373   */\n      swap3\n      pop\n        /* \"#utility.yul\":13392:13393   */\n      dup3\n        /* \"#utility.yul\":13382:13417   */\n      tag_360\n      jumpi\n        /* \"#utility.yul\":13397:13415   */\n      tag_361\n      tag_190\n      jump\t// in\n    tag_361:\n        /* \"#utility.yul\":13382:13417   */\n    tag_360:\n        /* \"#utility.yul\":13439:13440   */\n      dup3\n        /* \"#utility.yul\":13436:13437   */\n      dup3\n        /* \"#utility.yul\":13432:13441   */\n      div\n        /* \"#utility.yul\":13427:13441   */\n      swap1\n      pop\n        /* \"#utility.yul\":13262:13447   */\n      swap3\n      swap2\n      pop\n      pop\n      jump\t// out\n        /* \"#utility.yul\":13453:13633   */\n    tag_191:\n        /* \"#utility.yul\":13501:13578   */\n      0x4e487b7100000000000000000000000000000000000000000000000000000000\n        /* \"#utility.yul\":13498:13499   */\n      0x00\n        /* \"#utility.yul\":13491:13579   */\n      mstore\n        /* \"#utility.yul\":13598:13602   */\n      0x22\n        /* \"#utility.yul\":13595:13596   */\n      0x04\n        /* \"#utility.yul\":13588:13603   */\n      mstore\n        /* \"#utility.yul\":13622:13626   */\n      0x24\n        /* \"#utility.yul\":13619:13620   */\n      0x00\n        /* \"#utility.yul\":13612:13627   */\n      revert\n        /* \"#utility.yul\":13639:13959   */\n    tag_115:\n        /* \"#utility.yul\":13683:13689   */\n      0x00\n        /* \"#utility.yul\":13720:13721   */\n      0x02\n        /* \"#utility.yul\":13714:13718   */\n      dup3\n        /* \"#utility.yul\":13710:13722   */\n      div\n        /* \"#utility.yul\":13700:13722   */\n      swap1\n      pop\n        /* \"#utility.yul\":13767:13768   */\n      0x01\n        /* \"#utility.yul\":13761:13765   */\n      dup3\n        /* \"#utility.yul\":13757:13769   */\n      and\n        /* \"#utility.yul\":13788:13806   */\n      dup1\n        /* \"#utility.yul\":13778:13859   */\n      tag_364\n      jumpi\n        /* \"#utility.yul\":13844:13848   */\n      0x7f\n        /* \"#utility.yul\":13836:13842   */\n      dup3\n        /* \"#utility.yul\":13832:13849   */\n      and\n        /* \"#utility.yul\":13822:13849   */\n      swap2\n      pop\n        /* \"#utility.yul\":13778:13859   */\n    tag_364:\n        /* \"#utility.yul\":13906:13908   */\n      0x20\n        /* \"#utility.yul\":13898:13904   */\n      dup3\n        /* \"#utility.yul\":13895:13909   */\n      lt\n        /* \"#utility.yul\":13875:13893   */\n      dup2\n        /* \"#utility.yul\":13872:13910   */\n      sub\n        /* \"#utility.yul\":13869:13953   */\n      tag_365\n      jumpi\n        /* \"#utility.yul\":13925:13943   */\n      tag_366\n      tag_191\n      jump\t// in\n    tag_366:\n        /* \"#utility.yul\":13869:13953   */\n    tag_365:\n        /* \"#utility.yul\":13690:13959   */\n      pop\n        /* \"#utility.yul\":13639:13959   */\n      swap2\n      swap1\n      pop\n      jump\t// out\n        /* \"#utility.yul\":13965:14106   */\n    tag_192:\n        /* \"#utility.yul\":14014:14018   */\n      0x00\n        /* \"#utility.yul\":14037:14040   */\n      dup2\n        /* \"#utility.yul\":14029:14040   */\n      swap1\n      pop\n        /* \"#utility.yul\":14060:14063   */\n      dup2\n        /* \"#utility.yul\":14057:14058   */\n      0x00\n        /* \"#utility.yul\":14050:14064   */\n      mstore\n        /* \"#utility.yul\":14094:14098   */\n      0x20\n        /* \"#utility.yul\":14091:14092   */\n      0x00\n        /* \"#utility.yul\":14081:14099   */\n      keccak256\n        /* \"#utility.yul\":14073:14099   */\n      swap1\n      pop\n        /* \"#utility.yul\":13965:14106   */\n      swap2\n      swap1\n      pop\n      jump\t// out\n        /* \"#utility.yul\":14112:14205   */\n    tag_193:\n        /* \"#utility.yul\":14149:14155   */\n      0x00\n        /* \"#utility.yul\":14196:14198   */\n      0x20\n        /* \"#utility.yul\":14191:14193   */\n      0x1f\n        /* \"#utility.yul\":14184:14189   */\n      dup4\n        /* \"#utility.yul\":14180:14194   */\n      add\n        /* \"#utility.yul\":14176:14199   */\n      div\n        /* \"#utility.yul\":14166:14199   */\n      swap1\n      pop\n        /* \"#utility.yul\":14112:14205   */\n      swap2\n      swap1\n      pop\n      jump\t// out\n        /* \"#utility.yul\":14211:14318   */\n    tag_194:\n        /* \"#utility.yul\":14255:14263   */\n      0x00\n        /* \"#utility.yul\":14305:14310   */\n      dup3\n        /* \"#utility.yul\":14299:14303   */\n      dup3\n        /* \"#utility.yul\":14295:14311   */\n      shl\n        /* \"#utility.yul\":14274:14311   */\n      swap1\n      pop\n        /* \"#utility.yul\":14211:14318   */\n      swap3\n      swap2\n      pop\n      pop\n      jump\t// out\n        /* \"#utility.yul\":14324:14717   */\n    tag_195:\n        /* \"#utility.yul\":14393:14399   */\n      0x00\n        /* \"#utility.yul\":14443:14444   */\n      0x08\n        /* \"#utility.yul\":14431:14441   */\n      dup4\n        /* \"#utility.yul\":14427:14445   */\n      mul\n        /* \"#utility.yul\":14466:14563   */\n      tag_371\n        /* \"#utility.yul\":14496:14562   */\n      0xffffffffffffffffffffffffffffffffffffffffffffffffffffffffffffffff\n        /* \"#utility.yul\":14485:14494   */\n      dup3\n        /* \"#utility.yul\":14466:14563   */\n      tag_194\n      jump\t// in\n    tag_371:\n        /* \"#utility.yul\":14584:14623   */\n      tag_372\n        /* \"#utility.yul\":14614:14622   */\n      dup7\n        /* \"#utility.yul\":14603:14612   */\n      dup4\n        /* \"#utility.yul\":14584:14623   */\n      tag_194\n      jump\t// in\n    tag_372:\n        /* \"#utility.yul\":14572:14623   */\n      swap6\n      pop\n        /* \"#utility.yul\":14656:14660   */\n      dup1\n        /* \"#utility.yul\":14652:14661   */\n      not\n        /* \"#utility.yul\":14645:14650   */\n      dup5\n        /* \"#utility.yul\":14641:14662   */\n      and\n        /* \"#utility.yul\":14632:14662   */\n      swap4\n      pop\n        /* \"#utility.yul\":14705:14709   */\n      dup1\n        /* \"#utility.yul\":14695:14703   */\n      dup7\n        /* \"#utility.yul\":14691:14710   */\n      and\n        /* \"#utility.yul\":14684:14689   */\n      dup5\n        /* \"#utility.yul\":14681:14711   */\n      or\n        /* \"#utility.yul\":14671:14711   */\n      swap3\n      pop\n        /* \"#utility.yul\":14400:14717   */\n      pop\n      pop\n        /* \"#utility.yul\":14324:14717   */\n      swap4\n      swap3\n      pop\n      pop\n      pop\n      jump\t// out\n        /* \"#utility.yul\":14723:14865   */\n    tag_196:\n        /* \"#utility.yul\":14773:14782   */\n      0x00\n        /* \"#utility.yul\":14806:14859   */\n      tag_374\n        /* \"#utility.yul\":14824:14858   */\n      tag_375\n        /* \"#utility.yul\":14833:14857   */\n      tag_376\n        /* \"#utility.yul\":14851:14856   */\n      dup5\n        /* \"#utility.yul\":14833:14857   */\n      tag_148\n      jump\t// in\n    tag_376:\n        /* \"#utility.yul\":14824:14858   */\n      tag_151\n      jump\t// in\n    tag_375:\n        /* \"#utility.yul\":14806:14859   */\n      tag_148\n      jump\t// in\n    tag_374:\n        /* \"#utility.yul\":14793:14859   */\n      swap1\n      pop\n        /* \"#utility.yul\":14723:14865   */\n      swap2\n      swap1\n      pop\n      jump\t// out\n        /* \"#utility.yul\":14871:14946   */\n    tag_197:\n        /* \"#utility.yul\":14914:14917   */\n      0x00\n        /* \"#utility.yul\":14935:14940   */\n      dup2\n        /* \"#utility.yul\":14928:14940   */\n      swap1\n      pop\n        /* \"#utility.yul\":14871:14946   */\n      swap2\n      swap1\n      pop\n      jump\t// out\n        /* \"#utility.yul\":14952:15221   */\n    tag_198:\n        /* \"#utility.yul\":15062:15101   */\n      tag_379\n        /* \"#utility.yul\":15093:15100   */\n      dup4\n        /* \"#utility.yul\":15062:15101   */\n      tag_196\n      jump\t// in\n    tag_379:\n        /* \"#utility.yul\":15123:15214   */\n      tag_380\n        /* \"#utility.yul\":15172:15213   */\n      tag_381\n        /* \"#utility.yul\":15196:15212   */\n      dup3\n        /* \"#utility.yul\":15172:15213   */\n      tag_197\n      jump\t// in\n    tag_381:\n        /* \"#utility.yul\":15164:15170   */\n      dup5\n        /* \"#utility.yul\":15157:15161   */\n      dup5\n        /* \"#utility.yul\":15151:15162   */\n      sload\n        /* \"#utility.yul\":15123:15214   */\n      tag_195\n      jump\t// in\n    tag_380:\n        /* \"#utility.yul\":15117:15121   */\n      dup3\n        /* \"#utility.yul\":15110:15215   */\n      sstore\n        /* \"#utility.yul\":15028:15221   */\n      pop\n        /* \"#utility.yul\":14952:15221   */\n      pop\n      pop\n      pop\n      jump\t// out\n        /* \"#utility.yul\":15227:15300   */\n    tag_199:\n        /* \"#utility.yul\":15272:15275   */\n      0x00\n        /* \"#utility.yul\":15227:15300   */\n      swap1\n      jump\t// out\n        /* \"#utility.yul\":15306:15495   */\n    tag_200:\n        /* \"#utility.yul\":15383:15415   */\n      tag_384\n      tag_199\n      jump\t// in\n    tag_384:\n        /* \"#utility.yul\":15424:15489   */\n      tag_385\n        /* \"#utility.yul\":15482:15488   */\n      dup2\n        /* \"#utility.yul\":15474:15480   */\n      dup5\n        /* \"#utility.yul\":15468:15472   */\n      dup5\n        /* \"#utility.yul\":15424:15489   */\n      tag_198\n      jump\t// in\n    tag_385:\n        /* \"#utility.yul\":15359:15495   */\n      pop\n        /* \"#utility.yul\":15306:15495   */\n      pop\n      pop\n      jump\t// out\n        /* \"#utility.yul\":15501:15687   */\n    tag_201:\n        /* \"#utility.yul\":15561:15681   */\n    tag_387:\n        /* \"#utility.yul\":15578:15581   */\n      dup2\n        /* \"#utility.yul\":15571:15576   */\n      dup2\n        /* \"#utility.yul\":15568:15582   */\n      lt\n        /* \"#utility.yul\":15561:15681   */\n      iszero\n      tag_389\n      jumpi\n        /* \"#utility.yul\":15632:15671   */\n      tag_390\n        /* \"#utility.yul\":15669:15670   */\n      0x00\n        /* \"#utility.yul\":15662:15667   */\n      dup3\n        /* \"#utility.yul\":15632:15671   */\n      tag_200\n      jump\t// in\n    tag_390:\n        /* \"#utility.yul\":15605:15606   */\n      0x01\n        /* \"#utility.yul\":15598:15603   */\n      dup2\n        /* \"#utility.yul\":15594:15607   */\n      add\n        /* \"#utility.yul\":15585:15607   */\n      swap1\n      pop\n        /* \"#utility.yul\":15561:15681   */\n      jump(tag_387)\n    tag_389:\n        /* \"#utility.yul\":15501:15687   */\n      pop\n      pop\n      jump\t// out\n        /* \"#utility.yul\":15693:16236   */\n    tag_202:\n        /* \"#utility.yul\":15794:15796   */\n      0x1f\n        /* \"#utility.yul\":15789:15792   */\n      dup3\n        /* \"#utility.yul\":15786:15797   */\n      gt\n        /* \"#utility.yul\":15783:16229   */\n      iszero\n      tag_392\n      jumpi\n        /* \"#utility.yul\":15828:15866   */\n      tag_393\n        /* \"#utility.yul\":15860:15865   */\n      dup2\n        /* \"#utility.yul\":15828:15866   */\n      tag_192\n      jump\t// in\n    tag_393:\n        /* \"#utility.yul\":15912:15941   */\n      tag_394\n        /* \"#utility.yul\":15930:15940   */\n      dup5\n        /* \"#utility.yul\":15912:15941   */\n      tag_193\n      jump\t// in\n    tag_394:\n        /* \"#utility.yul\":15902:15910   */\n      dup2\n        /* \"#utility.yul\":15898:15942   */\n      add\n        /* \"#utility.yul\":16095:16097   */\n      0x20\n        /* \"#utility.yul\":16083:16093   */\n      dup6\n        /* \"#utility.yul\":16080:16098   */\n      lt\n        /* \"#utility.yul\":16077:16126   */\n      iszero\n      tag_395\n      jumpi\n        /* \"#utility.yul\":16116:16124   */\n      dup2\n        /* \"#utility.yul\":16101:16124   */\n      swap1\n      pop\n        /* \"#utility.yul\":16077:16126   */\n    tag_395:\n        /* \"#utility.yul\":16139:16219   */\n      tag_396\n        /* \"#utility.yul\":16195:16217   */\n      tag_397\n        /* \"#utility.yul\":16213:16216   */\n      dup6\n        /* \"#utility.yul\":16195:16217   */\n      tag_193\n      jump\t// in\n    tag_397:\n        /* \"#utility.yul\":16185:16193   */\n      dup4\n        /* \"#utility.yul\":16181:16218   */\n      add\n        /* \"#utility.yul\":16168:16179   */\n      dup3\n        /* \"#utility.yul\":16139:16219   */\n      tag_201\n      jump\t// in\n    tag_396:\n        /* \"#utility.yul\":15798:16229   */\n      pop\n      pop\n        /* \"#utility.yul\":15783:16229   */\n    tag_392:\n        /* \"#utility.yul\":15693:16236   */\n      pop\n      pop\n      pop\n      jump\t// out\n        /* \"#utility.yul\":16242:16359   */\n    tag_203:\n        /* \"#utility.yul\":16296:16304   */\n      0x00\n        /* \"#utility.yul\":16346:16351   */\n      dup3\n        /* \"#utility.yul\":16340:16344   */\n      dup3\n        /* \"#utility.yul\":16336:16352   */\n      shr\n        /* \"#utility.yul\":16315:16352   */\n      swap1\n      pop\n        /* \"#utility.yul\":16242:16359   */\n      swap3\n      swap2\n      pop\n      pop\n      jump\t// out\n        /* \"#utility.yul\":16365:16534   */\n    tag_204:\n        /* \"#utility.yul\":16409:16415   */\n      0x00\n        /* \"#utility.yul\":16442:16493   */\n      tag_400\n        /* \"#utility.yul\":16490:16491   */\n      0x00\n        /* \"#utility.yul\":16486:16492   */\n      not\n        /* \"#utility.yul\":16478:16483   */\n      dup5\n        /* \"#utility.yul\":16475:16476   */\n      0x08\n        /* \"#utility.yul\":16471:16484   */\n      mul\n        /* \"#utility.yul\":16442:16493   */\n      tag_203\n      jump\t// in\n    tag_400:\n        /* \"#utility.yul\":16438:16494   */\n      not\n        /* \"#utility.yul\":16523:16527   */\n      dup1\n        /* \"#utility.yul\":16517:16521   */\n      dup4\n        /* \"#utility.yul\":16513:16528   */\n      and\n        /* \"#utility.yul\":16503:16528   */\n      swap2\n      pop\n        /* \"#utility.yul\":16416:16534   */\n      pop\n        /* \"#utility.yul\":16365:16534   */\n      swap3\n      swap2\n      pop\n      pop\n      jump\t// out\n        /* \"#utility.yul\":16539:16834   */\n    tag_205:\n        /* \"#utility.yul\":16615:16619   */\n      0x00\n        /* \"#utility.yul\":16761:16790   */\n      tag_402\n        /* \"#utility.yul\":16786:16789   */\n      dup4\n        /* \"#utility.yul\":16780:16784   */\n      dup4\n        /* \"#utility.yul\":16761:16790   */\n      tag_204\n      jump\t// in\n    tag_402:\n        /* \"#utility.yul\":16753:16790   */\n      swap2\n      pop\n        /* \"#utility.yul\":16823:16826   */\n      dup3\n        /* \"#utility.yul\":16820:16821   */\n      0x02\n        /* \"#utility.yul\":16816:16827   */\n      mul\n        /* \"#utility.yul\":16810:16814   */\n      dup3\n        /* \"#utility.yul\":16807:16828   */\n      or\n        /* \"#utility.yul\":16799:16828   */\n      swap1\n      pop\n        /* \"#utility.yul\":16539:16834   */\n      swap3\n      swap2\n      pop\n      pop\n      jump\t// out\n        /* \"#utility.yul\":16839:18234   */\n    tag_99:\n        /* \"#utility.yul\":16956:16993   */\n      tag_404\n        /* \"#utility.yul\":16989:16992   */\n      dup3\n        /* \"#utility.yul\":16956:16993   */\n      tag_179\n      jump\t// in\n    tag_404:\n        /* \"#utility.yul\":17058:17076   */\n      0xffffffffffffffff\n        /* \"#utility.yul\":17050:17056   */\n      dup2\n        /* \"#utility.yul\":17047:17077   */\n      gt\n        /* \"#utility.yul\":17044:17100   */\n      iszero\n      tag_405\n      jumpi\n        /* \"#utility.yul\":17080:17098   */\n      tag_406\n      tag_168\n      jump\t// in\n    tag_406:\n        /* \"#utility.yul\":17044:17100   */\n    tag_405:\n        /* \"#utility.yul\":17124:17162   */\n      tag_407\n        /* \"#utility.yul\":17156:17160   */\n      dup3\n        /* \"#utility.yul\":17150:17161   */\n      sload\n        /* \"#utility.yul\":17124:17162   */\n      tag_115\n      jump\t// in\n    tag_407:\n        /* \"#utility.yul\":17209:17276   */\n      tag_408\n        /* \"#utility.yul\":17269:17275   */\n      dup3\n        /* \"#utility.yul\":17261:17267   */\n      dup3\n        /* \"#utility.yul\":17255:17259   */\n      dup6\n        /* \"#utility.yul\":17209:17276   */\n      tag_202\n      jump\t// in\n    tag_408:\n        /* \"#utility.yul\":17303:17304   */\n      0x00\n        /* \"#utility.yul\":17327:17331   */\n      0x20\n        /* \"#utility.yul\":17314:17331   */\n      swap1\n      pop\n        /* \"#utility.yul\":17359:17361   */\n      0x1f\n        /* \"#utility.yul\":17351:17357   */\n      dup4\n        /* \"#utility.yul\":17348:17362   */\n      gt\n        /* \"#utility.yul\":17376:17377   */\n      0x01\n        /* \"#utility.yul\":17371:17989   */\n      dup2\n      eq\n      tag_410\n      jumpi\n        /* \"#utility.yul\":18033:18034   */\n      0x00\n        /* \"#utility.yul\":18050:18056   */\n      dup5\n        /* \"#utility.yul\":18047:18124   */\n      iszero\n      tag_411\n      jumpi\n        /* \"#utility.yul\":18099:18108   */\n      dup3\n        /* \"#utility.yul\":18094:18097   */\n      dup8\n        /* \"#utility.yul\":18090:18109   */\n      add\n        /* \"#utility.yul\":18084:18110   */\n      mload\n        /* \"#utility.yul\":18075:18110   */\n      swap1\n      pop\n        /* \"#utility.yul\":18047:18124   */\n    tag_411:\n        /* \"#utility.yul\":18150:18217   */\n      tag_412\n        /* \"#utility.yul\":18210:18216   */\n      dup6\n        /* \"#utility.yul\":18203:18208   */\n      dup3\n        /* \"#utility.yul\":18150:18217   */\n      tag_205\n      jump\t// in\n    tag_412:\n        /* \"#utility.yul\":18144:18148   */\n      dup7\n        /* \"#utility.yul\":18137:18218   */\n      sstore\n        /* \"#utility.yul\":18006:18228   */\n      pop\n        /* \"#utility.yul\":17341:18228   */\n      jump(tag_409)\n        /* \"#utility.yul\":17371:17989   */\n    tag_410:\n        /* \"#utility.yul\":17423:17427   */\n      0x1f\n        /* \"#utility.yul\":17419:17428   */\n      not\n        /* \"#utility.yul\":17411:17417   */\n      dup5\n        /* \"#utility.yul\":17407:17429   */\n      and\n        /* \"#utility.yul\":17457:17494   */\n      tag_413\n        /* \"#utility.yul\":17489:17493   */\n      dup7\n        /* \"#utility.yul\":17457:17494   */\n      tag_192\n      jump\t// in\n    tag_413:\n        /* \"#utility.yul\":17516:17517   */\n      0x00\n        /* \"#utility.yul\":17530:17738   */\n    tag_414:\n        /* \"#utility.yul\":17544:17551   */\n      dup3\n        /* \"#utility.yul\":17541:17542   */\n      dup2\n        /* \"#utility.yul\":17538:17552   */\n      lt\n        /* \"#utility.yul\":17530:17738   */\n      iszero\n      tag_416\n      jumpi\n        /* \"#utility.yul\":17623:17632   */\n      dup5\n        /* \"#utility.yul\":17618:17621   */\n      dup10\n        /* \"#utility.yul\":17614:17633   */\n      add\n        /* \"#utility.yul\":17608:17634   */\n      mload\n        /* \"#utility.yul\":17600:17606   */\n      dup3\n        /* \"#utility.yul\":17593:17635   */\n      sstore\n        /* \"#utility.yul\":17674:17675   */\n      0x01\n        /* \"#utility.yul\":17666:17672   */\n      dup3\n        /* \"#utility.yul\":17662:17676   */\n      add\n        /* \"#utility.yul\":17652:17676   */\n      swap2\n      pop\n        /* \"#utility.yul\":17721:17723   */\n      0x20\n        /* \"#utility.yul\":17710:17719   */\n      dup6\n        /* \"#utility.yul\":17706:17724   */\n      add\n        /* \"#utility.yul\":17693:17724   */\n      swap5\n      pop\n        /* \"#utility.yul\":17567:17571   */\n      0x20\n        /* \"#utility.yul\":17564:17565   */\n      dup2\n        /* \"#utility.yul\":17560:17572   */\n      add\n        /* \"#utility.yul\":17555:17572   */\n      swap1\n      pop\n        /* \"#utility.yul\":17530:17738   */\n      jump(tag_414)\n    tag_416:\n        /* \"#utility.yul\":17766:17772   */\n      dup7\n        /* \"#utility.yul\":17757:17764   */\n      dup4\n        /* \"#utility.yul\":17754:17773   */\n      lt\n        /* \"#utility.yul\":17751:17930   */\n      iszero\n      tag_417\n      jumpi\n        /* \"#utility.yul\":17824:17833   */\n      dup5\n        /* \"#utility.yul\":17819:17822   */\n      dup10\n        /* \"#utility.yul\":17815:17834   */\n      add\n        /* \"#utility.yul\":17809:17835   */\n      mload\n        /* \"#utility.yul\":17867:17915   */\n      tag_418\n        /* \"#utility.yul\":17909:17913   */\n      0x1f\n        /* \"#utility.yul\":17901:17907   */\n      dup10\n        /* \"#utility.yul\":17897:17914   */\n      and\n        /* \"#utility.yul\":17886:17895   */\n      dup3\n        /* \"#utility.yul\":17867:17915   */\n      tag_204\n      jump\t// in\n    tag_418:\n        /* \"#utility.yul\":17859:17865   */\n      dup4\n        /* \"#utility.yul\":17852:17916   */\n      sstore\n        /* \"#utility.yul\":17774:17930   */\n      pop\n        /* \"#utility.yul\":17751:17930   */\n    tag_417:\n        /* \"#utility.yul\":17976:17977   */\n      0x01\n        /* \"#utility.yul\":17972:17973   */\n      0x02\n        /* \"#utility.yul\":17964:17970   */\n      dup9\n        /* \"#utility.yul\":17960:17974   */\n      mul\n        /* \"#utility.yul\":17956:17978   */\n      add\n        /* \"#utility.yul\":17950:17954   */\n      dup9\n        /* \"#utility.yul\":17943:17979   */\n      sstore\n        /* \"#utility.yul\":17378:17989   */\n      pop\n      pop\n      pop\n        /* \"#utility.yul\":17341:18228   */\n    tag_409:\n      pop\n        /* \"#utility.yul\":16931:18234   */\n      pop\n      pop\n      pop\n        /* \"#utility.yul\":16839:18234   */\n      pop\n      pop\n      jump\t// out\n        /* \"#utility.yul\":18240:18473   */\n    tag_102:\n        /* \"#utility.yul\":18279:18282   */\n      0x00\n        /* \"#utility.yul\":18302:18326   */\n      tag_420\n        /* \"#utility.yul\":18320:18325   */\n      dup3\n        /* \"#utility.yul\":18302:18326   */\n      tag_148\n      jump\t// in\n    tag_420:\n        /* \"#utility.yul\":18293:18326   */\n      swap2\n      pop\n        /* \"#utility.yul\":18348:18414   */\n      0xffffffffffffffffffffffffffffffffffffffffffffffffffffffffffffffff\n        /* \"#utility.yul\":18341:18346   */\n      dup3\n        /* \"#utility.yul\":18338:18415   */\n      sub\n        /* \"#utility.yul\":18335:18438   */\n      tag_421\n      jumpi\n        /* \"#utility.yul\":18418:18436   */\n      tag_422\n      tag_187\n      jump\t// in\n    tag_422:\n        /* \"#utility.yul\":18335:18438   */\n    tag_421:\n        /* \"#utility.yul\":18465:18466   */\n      0x01\n        /* \"#utility.yul\":18458:18463   */\n      dup3\n        /* \"#utility.yul\":18454:18467   */\n      add\n        /* \"#utility.yul\":18447:18467   */\n      swap1\n      pop\n        /* \"#utility.yul\":18240:18473   */\n      swap2\n      swap1\n      pop\n      jump\t// out\n        /* \"#utility.yul\":18479:18584   */\n    tag_206:\n        /* \"#utility.yul\":18515:18522   */\n      0x00\n        /* \"#utility.yul\":18555:18577   */\n      0xffffffffffffffffffff\n        /* \"#utility.yul\":18548:18553   */\n      dup3\n        /* \"#utility.yul\":18544:18578   */\n      and\n        /* \"#utility.yul\":18533:18578   */\n      swap1\n      pop\n        /* \"#utility.yul\":18479:18584   */\n      swap2\n      swap1\n      pop\n      jump\t// out\n        /* \"#utility.yul\":18590:18710   */\n    tag_207:\n        /* \"#utility.yul\":18662:18685   */\n      tag_425\n        /* \"#utility.yul\":18679:18684   */\n      dup2\n        /* \"#utility.yul\":18662:18685   */\n      tag_206\n      jump\t// in\n    tag_425:\n        /* \"#utility.yul\":18655:18660   */\n      dup2\n        /* \"#utility.yul\":18652:18686   */\n      eq\n        /* \"#utility.yul\":18642:18704   */\n      tag_426\n      jumpi\n        /* \"#utility.yul\":18700:18701   */\n      0x00\n        /* \"#utility.yul\":18697:18698   */\n      dup1\n        /* \"#utility.yul\":18690:18702   */\n      revert\n        /* \"#utility.yul\":18642:18704   */\n    tag_426:\n        /* \"#utility.yul\":18590:18710   */\n      pop\n      jump\t// out\n        /* \"#utility.yul\":18716:18857   */\n    tag_208:\n        /* \"#utility.yul\":18772:18777   */\n      0x00\n        /* \"#utility.yul\":18803:18809   */\n      dup2\n        /* \"#utility.yul\":18797:18810   */\n      mload\n        /* \"#utility.yul\":18788:18810   */\n      swap1\n      pop\n        /* \"#utility.yul\":18819:18851   */\n      tag_428\n        /* \"#utility.yul\":18845:18850   */\n      dup2\n        /* \"#utility.yul\":18819:18851   */\n      tag_207\n      jump\t// in\n    tag_428:\n        /* \"#utility.yul\":18716:18857   */\n      swap3\n      swap2\n      pop\n      pop\n      jump\t// out\n        /* \"#utility.yul\":18863:18983   */\n    tag_209:\n        /* \"#utility.yul\":18935:18958   */\n      tag_430\n        /* \"#utility.yul\":18952:18957   */\n      dup2\n        /* \"#utility.yul\":18935:18958   */\n      tag_175\n      jump\t// in\n    tag_430:\n        /* \"#utility.yul\":18928:18933   */\n      dup2\n        /* \"#utility.yul\":18925:18959   */\n      eq\n        /* \"#utility.yul\":18915:18977   */\n      tag_431\n      jumpi\n        /* \"#utility.yul\":18973:18974   */\n      0x00\n        /* \"#utility.yul\":18970:18971   */\n      dup1\n        /* \"#utility.yul\":18963:18975   */\n      revert\n        /* \"#utility.yul\":18915:18977   */\n    tag_431:\n        /* \"#utility.yul\":18863:18983   */\n      pop\n      jump\t// out\n        /* \"#utility.yul\":18989:19130   */\n    tag_210:\n        /* \"#utility.yul\":19045:19050   */\n      0x00\n        /* \"#utility.yul\":19076:19082   */\n      dup2\n        /* \"#utility.yul\":19070:19083   */\n      mload\n        /* \"#utility.yul\":19061:19083   */\n      swap1\n      pop\n        /* \"#utility.yul\":19092:19124   */\n      tag_433\n        /* \"#utility.yul\":19118:19123   */\n      dup2\n        /* \"#utility.yul\":19092:19124   */\n      tag_209\n      jump\t// in\n    tag_433:\n        /* \"#utility.yul\":18989:19130   */\n      swap3\n      swap2\n      pop\n      pop\n      jump\t// out\n        /* \"#utility.yul\":19136:19279   */\n    tag_211:\n        /* \"#utility.yul\":19193:19198   */\n      0x00\n        /* \"#utility.yul\":19224:19230   */\n      dup2\n        /* \"#utility.yul\":19218:19231   */\n      mload\n        /* \"#utility.yul\":19209:19231   */\n      swap1\n      pop\n        /* \"#utility.yul\":19240:19273   */\n      tag_435\n        /* \"#utility.yul\":19267:19272   */\n      dup2\n        /* \"#utility.yul\":19240:19273   */\n      tag_161\n      jump\t// in\n    tag_435:\n        /* \"#utility.yul\":19136:19279   */\n      swap3\n      swap2\n      pop\n      pop\n      jump\t// out\n        /* \"#utility.yul\":19285:20256   */\n    tag_107:\n        /* \"#utility.yul\":19388:19394   */\n      0x00\n        /* \"#utility.yul\":19396:19402   */\n      dup1\n        /* \"#utility.yul\":19404:19410   */\n      0x00\n        /* \"#utility.yul\":19412:19418   */\n      dup1\n        /* \"#utility.yul\":19420:19426   */\n      0x00\n        /* \"#utility.yul\":19469:19472   */\n      0xa0\n        /* \"#utility.yul\":19457:19466   */\n      dup7\n        /* \"#utility.yul\":19448:19455   */\n      dup9\n        /* \"#utility.yul\":19444:19467   */\n      sub\n        /* \"#utility.yul\":19440:19473   */\n      slt\n        /* \"#utility.yul\":19437:19557   */\n      iszero\n      tag_437\n      jumpi\n        /* \"#utility.yul\":19476:19555   */\n      tag_438\n      tag_159\n      jump\t// in\n    tag_438:\n        /* \"#utility.yul\":19437:19557   */\n    tag_437:\n        /* \"#utility.yul\":19596:19597   */\n      0x00\n        /* \"#utility.yul\":19621:19684   */\n      tag_439\n        /* \"#utility.yul\":19676:19683   */\n      dup9\n        /* \"#utility.yul\":19667:19673   */\n      dup3\n        /* \"#utility.yul\":19656:19665   */\n      dup10\n        /* \"#utility.yul\":19652:19674   */\n      add\n        /* \"#utility.yul\":19621:19684   */\n      tag_208\n      jump\t// in\n    tag_439:\n        /* \"#utility.yul\":19611:19684   */\n      swap6\n      pop\n        /* \"#utility.yul\":19567:19694   */\n      pop\n        /* \"#utility.yul\":19733:19735   */\n      0x20\n        /* \"#utility.yul\":19759:19822   */\n      tag_440\n        /* \"#utility.yul\":19814:19821   */\n      dup9\n        /* \"#utility.yul\":19805:19811   */\n      dup3\n        /* \"#utility.yul\":19794:19803   */\n      dup10\n        /* \"#utility.yul\":19790:19812   */\n      add\n        /* \"#utility.yul\":19759:19822   */\n      tag_210\n      jump\t// in\n    tag_440:\n        /* \"#utility.yul\":19749:19822   */\n      swap5\n      pop\n        /* \"#utility.yul\":19704:19832   */\n      pop\n        /* \"#utility.yul\":19871:19873   */\n      0x40\n        /* \"#utility.yul\":19897:19961   */\n      tag_441\n        /* \"#utility.yul\":19953:19960   */\n      dup9\n        /* \"#utility.yul\":19944:19950   */\n      dup3\n        /* \"#utility.yul\":19933:19942   */\n      dup10\n        /* \"#utility.yul\":19929:19951   */\n      add\n        /* \"#utility.yul\":19897:19961   */\n      tag_211\n      jump\t// in\n    tag_441:\n        /* \"#utility.yul\":19887:19961   */\n      swap4\n      pop\n        /* \"#utility.yul\":19842:19971   */\n      pop\n        /* \"#utility.yul\":20010:20012   */\n      0x60\n        /* \"#utility.yul\":20036:20100   */\n      tag_442\n        /* \"#utility.yul\":20092:20099   */\n      dup9\n        /* \"#utility.yul\":20083:20089   */\n      dup3\n        /* \"#utility.yul\":20072:20081   */\n      dup10\n        /* \"#utility.yul\":20068:20090   */\n      add\n        /* \"#utility.yul\":20036:20100   */\n      tag_211\n      jump\t// in\n    tag_442:\n        /* \"#utility.yul\":20026:20100   */\n      swap3\n      pop\n        /* \"#utility.yul\":19981:20110   */\n      pop\n        /* \"#utility.yul\":20149:20152   */\n      0x80\n        /* \"#utility.yul\":20176:20239   */\n      tag_443\n        /* \"#utility.yul\":20231:20238   */\n      dup9\n        /* \"#utility.yul\":20222:20228   */\n      dup3\n        /* \"#utility.yul\":20211:20220   */\n      dup10\n        /* \"#utility.yul\":20207:20229   */\n      add\n        /* \"#utility.yul\":20176:20239   */\n      tag_208\n      jump\t// in\n    tag_443:\n        /* \"#utility.yul\":20166:20239   */\n      swap2\n      pop\n        /* \"#utility.yul\":20120:20249   */\n      pop\n        /* \"#utility.yul\":19285:20256   */\n      swap3\n      swap6\n      pop\n      swap3\n      swap6\n      swap1\n      swap4\n      pop\n      jump\t// out\n        /* \"#utility.yul\":20262:20487   */\n    tag_212:\n        /* \"#utility.yul\":20402:20436   */\n      0x4f6e6c79206c6f6e672070617274792063616e20636c6f73652074686520636f\n        /* \"#utility.yul\":20398:20399   */\n      0x00\n        /* \"#utility.yul\":20390:20396   */\n      dup3\n        /* \"#utility.yul\":20386:20400   */\n      add\n        /* \"#utility.yul\":20379:20437   */\n      mstore\n        /* \"#utility.yul\":20471:20479   */\n      0x6e74726163740000000000000000000000000000000000000000000000000000\n        /* \"#utility.yul\":20466:20468   */\n      0x20\n        /* \"#utility.yul\":20458:20464   */\n      dup3\n        /* \"#utility.yul\":20454:20469   */\n      add\n        /* \"#utility.yul\":20447:20480   */\n      mstore\n        /* \"#utility.yul\":20262:20487   */\n      pop\n      jump\t// out\n        /* \"#utility.yul\":20493:20859   */\n    tag_213:\n        /* \"#utility.yul\":20635:20638   */\n      0x00\n        /* \"#utility.yul\":20656:20723   */\n      tag_446\n        /* \"#utility.yul\":20720:20722   */\n      0x26\n        /* \"#utility.yul\":20715:20718   */\n      dup4\n        /* \"#utility.yul\":20656:20723   */\n      tag_180\n      jump\t// in\n    tag_446:\n        /* \"#utility.yul\":20649:20723   */\n      swap2\n      pop\n        /* \"#utility.yul\":20732:20825   */\n      tag_447\n        /* \"#utility.yul\":20821:20824   */\n      dup3\n        /* \"#utility.yul\":20732:20825   */\n      tag_212\n      jump\t// in\n    tag_447:\n        /* \"#utility.yul\":20850:20852   */\n      0x40\n        /* \"#utility.yul\":20845:20848   */\n      dup3\n        /* \"#utility.yul\":20841:20853   */\n      add\n        /* \"#utility.yul\":20834:20853   */\n      swap1\n      pop\n        /* \"#utility.yul\":20493:20859   */\n      swap2\n      swap1\n      pop\n      jump\t// out\n        /* \"#utility.yul\":20865:21284   */\n    tag_113:\n        /* \"#utility.yul\":21031:21035   */\n      0x00\n        /* \"#utility.yul\":21069:21071   */\n      0x20\n        /* \"#utility.yul\":21058:21067   */\n      dup3\n        /* \"#utility.yul\":21054:21072   */\n      add\n        /* \"#utility.yul\":21046:21072   */\n      swap1\n      pop\n        /* \"#utility.yul\":21118:21127   */\n      dup2\n        /* \"#utility.yul\":21112:21116   */\n      dup2\n        /* \"#utility.yul\":21108:21128   */\n      sub\n        /* \"#utility.yul\":21104:21105   */\n      0x00\n        /* \"#utility.yul\":21093:21102   */\n      dup4\n        /* \"#utility.yul\":21089:21106   */\n      add\n        /* \"#utility.yul\":21082:21129   */\n      mstore\n        /* \"#utility.yul\":21146:21277   */\n      tag_449\n        /* \"#utility.yul\":21272:21276   */\n      dup2\n        /* \"#utility.yul\":21146:21277   */\n      tag_213\n      jump\t// in\n    tag_449:\n        /* \"#utility.yul\":21138:21277   */\n      swap1\n      pop\n        /* \"#utility.yul\":20865:21284   */\n      swap2\n      swap1\n      pop\n      jump\t// out\n        /* \"#utility.yul\":21290:21700   */\n    tag_124:\n        /* \"#utility.yul\":21330:21337   */\n      0x00\n        /* \"#utility.yul\":21353:21373   */\n      tag_451\n        /* \"#utility.yul\":21371:21372   */\n      dup3\n        /* \"#utility.yul\":21353:21373   */\n      tag_148\n      jump\t// in\n    tag_451:\n        /* \"#utility.yul\":21348:21373   */\n      swap2\n      pop\n        /* \"#utility.yul\":21387:21407   */\n      tag_452\n        /* \"#utility.yul\":21405:21406   */\n      dup4\n        /* \"#utility.yul\":21387:21407   */\n      tag_148\n      jump\t// in\n    tag_452:\n        /* \"#utility.yul\":21382:21407   */\n      swap3\n      pop\n        /* \"#utility.yul\":21442:21443   */\n      dup3\n        /* \"#utility.yul\":21439:21440   */\n      dup3\n        /* \"#utility.yul\":21435:21444   */\n      mul\n        /* \"#utility.yul\":21464:21494   */\n      tag_453\n        /* \"#utility.yul\":21482:21493   */\n      dup2\n        /* \"#utility.yul\":21464:21494   */\n      tag_148\n      jump\t// in\n    tag_453:\n        /* \"#utility.yul\":21453:21494   */\n      swap2\n      pop\n        /* \"#utility.yul\":21643:21644   */\n      dup3\n        /* \"#utility.yul\":21634:21641   */\n      dup3\n        /* \"#utility.yul\":21630:21645   */\n      div\n        /* \"#utility.yul\":21627:21628   */\n      dup5\n        /* \"#utility.yul\":21624:21646   */\n      eq\n        /* \"#utility.yul\":21604:21605   */\n      dup4\n        /* \"#utility.yul\":21597:21606   */\n      iszero\n        /* \"#utility.yul\":21577:21660   */\n      or\n        /* \"#utility.yul\":21554:21693   */\n      tag_454\n      jumpi\n        /* \"#utility.yul\":21673:21691   */\n      tag_455\n      tag_187\n      jump\t// in\n    tag_455:\n        /* \"#utility.yul\":21554:21693   */\n    tag_454:\n        /* \"#utility.yul\":21338:21700   */\n      pop\n        /* \"#utility.yul\":21290:21700   */\n      swap3\n      swap2\n      pop\n      pop\n      jump\t// out\n\n    auxdata: 0xa26469706673582212203f5da33b154726c5507456956368e05977948421ec088fe8f2303ae3560663e664736f6c63430008170033\n}\n",
				"bytecode": {
					"linkReferences": {},
					"object": "6080604052620186a060055534801562000017575f80fd5b5060405162001c2638038062001c2683398181016040528101906200003d91906200029f565b335f73ffffffffffffffffffffffffffffffffffffffff168173ffffffffffffffffffffffffffffffffffffffff1603620000b1575f6040517f1e4fbdf7000000000000000000000000000000000000000000000000000000008152600401620000a89190620002e0565b60405180910390fd5b620000c2816200017960201b60201c565b508060065f6101000a81548173ffffffffffffffffffffffffffffffffffffffff021916908373ffffffffffffffffffffffffffffffffffffffff16021790555061076c6004604051620001169062000353565b9081526020016040518091039020819055506107d060046040516200013b90620003b7565b908152602001604051809103902081905550610708600460405162000160906200041b565b9081526020016040518091039020819055505062000431565b5f805f9054906101000a900473ffffffffffffffffffffffffffffffffffffffff169050815f806101000a81548173ffffffffffffffffffffffffffffffffffffffff021916908373ffffffffffffffffffffffffffffffffffffffff1602179055508173ffffffffffffffffffffffffffffffffffffffff168173ffffffffffffffffffffffffffffffffffffffff167f8be0079c531659141344cd1fd0a4f28419497f9722a3daafe3b4186f6b6457e060405160405180910390a35050565b5f80fd5b5f73ffffffffffffffffffffffffffffffffffffffff82169050919050565b5f62000269826200023e565b9050919050565b6200027b816200025d565b811462000286575f80fd5b50565b5f81519050620002998162000270565b92915050565b5f60208284031215620002b757620002b66200023a565b5b5f620002c68482850162000289565b91505092915050565b620002da816200025d565b82525050565b5f602082019050620002f55f830184620002cf565b92915050565b5f81905092915050565b7f417273656e616c000000000000000000000000000000000000000000000000005f82015250565b5f6200033b600783620002fb565b9150620003488262000305565b600782019050919050565b5f6200035f826200032d565b9150819050919050565b7f4368656c736561000000000000000000000000000000000000000000000000005f82015250565b5f6200039f600783620002fb565b9150620003ac8262000369565b600782019050919050565b5f620003c38262000391565b9150819050919050565b7f4d616e20436974790000000000000000000000000000000000000000000000005f82015250565b5f62000403600883620002fb565b91506200041082620003cd565b600882019050919050565b5f6200042782620003f5565b9150819050919050565b6117e7806200043f5f395ff3fe6080604052600436106100a6575f3560e01c8063a97496a511610063578063a97496a514610182578063ac580de7146101ac578063d0ce7360146101e8578063ed23f8c314610210578063f2fde38b14610252578063fdf3f74d1461027a576100a6565b806312065fe0146100aa578063715018a6146100d4578063741bef1a146100ea5780638da5cb5b14610114578063939e35721461013e5780639da751bb14610166575b5f80fd5b3480156100b5575f80fd5b506100be6102b6565b6040516100cb9190610c20565b60405180910390f35b3480156100df575f80fd5b506100e86102bd565b005b3480156100f5575f80fd5b506100fe6102d0565b60405161010b9190610cb3565b60405180910390f35b34801561011f575f80fd5b506101286102f5565b6040516101359190610cec565b60405180910390f35b348015610149575f80fd5b50610164600480360381019061015f9190610d6a565b61031c565b005b610180600480360381019061017b9190610ef6565b6103d2565b005b34801561018d575f80fd5b506101966105d4565b6040516101a39190610f55565b60405180910390f35b3480156101b7575f80fd5b506101d260048036038101906101cd9190610f6e565b610671565b6040516101df9190610c20565b60405180910390f35b3480156101f3575f80fd5b5061020e60048036038101906102099190610f99565b610686565b005b34801561021b575f80fd5b5061023660048036038101906102319190610fc4565b610902565b6040516102499796959493929190611096565b60405180910390f35b34801561025d575f80fd5b5061027860048036038101906102739190610f6e565b610a08565b005b348015610285575f80fd5b506102a0600480360381019061029b9190610ef6565b610a8c565b6040516102ad9190610c20565b60405180910390f35b5f47905090565b6102c5610ab9565b6102ce5f610b40565b565b60065f9054906101000a900473ffffffffffffffffffffffffffffffffffffffff1681565b5f805f9054906101000a900473ffffffffffffffffffffffffffffffffffffffff16905090565b610324610ab9565b5f60025f8473ffffffffffffffffffffffffffffffffffffffff1673ffffffffffffffffffffffffffffffffffffffff1681526020019081526020015f205f8381526020019081526020015f209050806003015f9054906101000a900460ff166103c3576040517f08c379a00000000000000000000000000000000000000000000000000000000081526004016103ba90611154565b60405180910390fd5b83816002018190555050505050565b5f3411610414576040517f08c379a000000000000000000000000000000000000000000000000000000000815260040161040b906111bc565b60405180910390fd5b5f600160035f3373ffffffffffffffffffffffffffffffffffffffff1673ffffffffffffffffffffffffffffffffffffffff1681526020019081526020015f205461045f9190611207565b90505f6004836040516104729190611274565b9081526020016040518091039020543461048c91906112b7565b90505f60025f3373ffffffffffffffffffffffffffffffffffffffff1673ffffffffffffffffffffffffffffffffffffffff1681526020019081526020015f205f8481526020019081526020015f20905033815f015f6101000a81548173ffffffffffffffffffffffffffffffffffffffff021916908373ffffffffffffffffffffffffffffffffffffffff1602179055508381600401908161052f91906114d8565b508181600101819055506004846040516105499190611274565b90815260200160405180910390205481600501819055506001816003015f6101000a81548160ff02191690831515021790555060035f3373ffffffffffffffffffffffffffffffffffffffff1673ffffffffffffffffffffffffffffffffffffffff1681526020019081526020015f205f8154809291906105c9906115a7565b919050555050505050565b5f8060065f9054906101000a900473ffffffffffffffffffffffffffffffffffffffff1673ffffffffffffffffffffffffffffffffffffffff1663feaf968c6040518163ffffffff1660e01b815260040160a060405180830381865afa158015610640573d5f803e3d5ffd5b505050506040513d601f19601f82011682018060405250810190610664919061166b565b5050509150508091505090565b6003602052805f5260405f205f915090505481565b5f60025f3373ffffffffffffffffffffffffffffffffffffffff1673ffffffffffffffffffffffffffffffffffffffff1681526020019081526020015f205f8381526020019081526020015f209050806003015f9054906101000a900460ff16610725576040517f08c379a000000000000000000000000000000000000000000000000000000000815260040161071c90611154565b60405180910390fd5b3373ffffffffffffffffffffffffffffffffffffffff16815f015f9054906101000a900473ffffffffffffffffffffffffffffffffffffffff1673ffffffffffffffffffffffffffffffffffffffff16146107b5576040517f08c379a00000000000000000000000000000000000000000000000000000000081526004016107ac90611752565b60405180910390fd5b5f8160040180546107c590611314565b80601f01602080910402602001604051908101604052809291908181526020018280546107f190611314565b801561083c5780601f106108135761010080835404028352916020019161083c565b820191905f5260205f20905b81548152906001019060200180831161081f57829003601f168201915b505050505090505f6004826040516108549190611274565b90815260200160405180910390205490505f61086e6102b6565b90505f8460010154828460055461088591906112b7565b61088f9190611770565b6108999190611770565b90503373ffffffffffffffffffffffffffffffffffffffff166108fc8290811502906040515f60405180830381858888f193505050501580156108de573d5f803e3d5ffd5b505f856003015f6101000a81548160ff021916908315150217905550505050505050565b6002602052815f5260405f20602052805f5260405f205f9150915050805f015f9054906101000a900473ffffffffffffffffffffffffffffffffffffffff1690805f0160149054906101000a900460ff1690806001015490806002015490806003015f9054906101000a900460ff169080600401805461098190611314565b80601f01602080910402602001604051908101604052809291908181526020018280546109ad90611314565b80156109f85780601f106109cf576101008083540402835291602001916109f8565b820191905f5260205f20905b8154815290600101906020018083116109db57829003601f168201915b5050505050908060050154905087565b610a10610ab9565b5f73ffffffffffffffffffffffffffffffffffffffff168173ffffffffffffffffffffffffffffffffffffffff1603610a80575f6040517f1e4fbdf7000000000000000000000000000000000000000000000000000000008152600401610a779190610cec565b60405180910390fd5b610a8981610b40565b50565b6004818051602081018201805184825260208301602085012081835280955050505050505f915090505481565b610ac1610c01565b73ffffffffffffffffffffffffffffffffffffffff16610adf6102f5565b73ffffffffffffffffffffffffffffffffffffffff1614610b3e57610b02610c01565b6040517f118cdaa7000000000000000000000000000000000000000000000000000000008152600401610b359190610cec565b60405180910390fd5b565b5f805f9054906101000a900473ffffffffffffffffffffffffffffffffffffffff169050815f806101000a81548173ffffffffffffffffffffffffffffffffffffffff021916908373ffffffffffffffffffffffffffffffffffffffff1602179055508173ffffffffffffffffffffffffffffffffffffffff168173ffffffffffffffffffffffffffffffffffffffff167f8be0079c531659141344cd1fd0a4f28419497f9722a3daafe3b4186f6b6457e060405160405180910390a35050565b5f33905090565b5f819050919050565b610c1a81610c08565b82525050565b5f602082019050610c335f830184610c11565b92915050565b5f73ffffffffffffffffffffffffffffffffffffffff82169050919050565b5f819050919050565b5f610c7b610c76610c7184610c39565b610c58565b610c39565b9050919050565b5f610c8c82610c61565b9050919050565b5f610c9d82610c82565b9050919050565b610cad81610c93565b82525050565b5f602082019050610cc65f830184610ca4565b92915050565b5f610cd682610c39565b9050919050565b610ce681610ccc565b82525050565b5f602082019050610cff5f830184610cdd565b92915050565b5f604051905090565b5f80fd5b5f80fd5b610d1f81610c08565b8114610d29575f80fd5b50565b5f81359050610d3a81610d16565b92915050565b610d4981610ccc565b8114610d53575f80fd5b50565b5f81359050610d6481610d40565b92915050565b5f805f60608486031215610d8157610d80610d0e565b5b5f610d8e86828701610d2c565b9350506020610d9f86828701610d56565b9250506040610db086828701610d2c565b9150509250925092565b5f80fd5b5f80fd5b5f601f19601f8301169050919050565b7f4e487b71000000000000000000000000000000000000000000000000000000005f52604160045260245ffd5b610e0882610dc2565b810181811067ffffffffffffffff82111715610e2757610e26610dd2565b5b80604052505050565b5f610e39610d05565b9050610e458282610dff565b919050565b5f67ffffffffffffffff821115610e6457610e63610dd2565b5b610e6d82610dc2565b9050602081019050919050565b828183375f83830152505050565b5f610e9a610e9584610e4a565b610e30565b905082815260208101848484011115610eb657610eb5610dbe565b5b610ec1848285610e7a565b509392505050565b5f82601f830112610edd57610edc610dba565b5b8135610eed848260208601610e88565b91505092915050565b5f60208284031215610f0b57610f0a610d0e565b5b5f82013567ffffffffffffffff811115610f2857610f27610d12565b5b610f3484828501610ec9565b91505092915050565b5f819050919050565b610f4f81610f3d565b82525050565b5f602082019050610f685f830184610f46565b92915050565b5f60208284031215610f8357610f82610d0e565b5b5f610f9084828501610d56565b91505092915050565b5f60208284031215610fae57610fad610d0e565b5b5f610fbb84828501610d2c565b91505092915050565b5f8060408385031215610fda57610fd9610d0e565b5b5f610fe785828601610d56565b9250506020610ff885828601610d2c565b9150509250929050565b5f8115159050919050565b61101681611002565b82525050565b5f81519050919050565b5f82825260208201905092915050565b5f5b83811015611053578082015181840152602081019050611038565b5f8484015250505050565b5f6110688261101c565b6110728185611026565b9350611082818560208601611036565b61108b81610dc2565b840191505092915050565b5f60e0820190506110a95f83018a610cdd565b6110b6602083018961100d565b6110c36040830188610c11565b6110d06060830187610c11565b6110dd608083018661100d565b81810360a08301526110ef818561105e565b90506110fe60c0830184610c11565b98975050505050505050565b7f436f6e7472616374206973206e6f74206f70656e0000000000000000000000005f82015250565b5f61113e601483611026565b91506111498261110a565b602082019050919050565b5f6020820190508181035f83015261116b81611132565b9050919050565b7f56616c7565206d7573742062652067726561746572207468616e207a65726f005f82015250565b5f6111a6601f83611026565b91506111b182611172565b602082019050919050565b5f6020820190508181035f8301526111d38161119a565b9050919050565b7f4e487b71000000000000000000000000000000000000000000000000000000005f52601160045260245ffd5b5f61121182610c08565b915061121c83610c08565b9250828201905080821115611234576112336111da565b5b92915050565b5f81905092915050565b5f61124e8261101c565b611258818561123a565b9350611268818560208601611036565b80840191505092915050565b5f61127f8284611244565b915081905092915050565b7f4e487b71000000000000000000000000000000000000000000000000000000005f52601260045260245ffd5b5f6112c182610c08565b91506112cc83610c08565b9250826112dc576112db61128a565b5b828204905092915050565b7f4e487b71000000000000000000000000000000000000000000000000000000005f52602260045260245ffd5b5f600282049050600182168061132b57607f821691505b60208210810361133e5761133d6112e7565b5b50919050565b5f819050815f5260205f209050919050565b5f6020601f8301049050919050565b5f82821b905092915050565b5f600883026113a07fffffffffffffffffffffffffffffffffffffffffffffffffffffffffffffffff82611365565b6113aa8683611365565b95508019841693508086168417925050509392505050565b5f6113dc6113d76113d284610c08565b610c58565b610c08565b9050919050565b5f819050919050565b6113f5836113c2565b611409611401826113e3565b848454611371565b825550505050565b5f90565b61141d611411565b6114288184846113ec565b505050565b5b8181101561144b576114405f82611415565b60018101905061142e565b5050565b601f8211156114905761146181611344565b61146a84611356565b81016020851015611479578190505b61148d61148585611356565b83018261142d565b50505b505050565b5f82821c905092915050565b5f6114b05f1984600802611495565b1980831691505092915050565b5f6114c883836114a1565b9150826002028217905092915050565b6114e18261101c565b67ffffffffffffffff8111156114fa576114f9610dd2565b5b6115048254611314565b61150f82828561144f565b5f60209050601f831160018114611540575f841561152e578287015190505b61153885826114bd565b86555061159f565b601f19841661154e86611344565b5f5b8281101561157557848901518255600182019150602085019450602081019050611550565b86831015611592578489015161158e601f8916826114a1565b8355505b6001600288020188555050505b505050505050565b5f6115b182610c08565b91507fffffffffffffffffffffffffffffffffffffffffffffffffffffffffffffffff82036115e3576115e26111da565b5b600182019050919050565b5f69ffffffffffffffffffff82169050919050565b61160c816115ee565b8114611616575f80fd5b50565b5f8151905061162781611603565b92915050565b61163681610f3d565b8114611640575f80fd5b50565b5f815190506116518161162d565b92915050565b5f8151905061166581610d16565b92915050565b5f805f805f60a0868803121561168457611683610d0e565b5b5f61169188828901611619565b95505060206116a288828901611643565b94505060406116b388828901611657565b93505060606116c488828901611657565b92505060806116d588828901611619565b9150509295509295909350565b7f4f6e6c79206c6f6e672070617274792063616e20636c6f73652074686520636f5f8201527f6e74726163740000000000000000000000000000000000000000000000000000602082015250565b5f61173c602683611026565b9150611747826116e2565b604082019050919050565b5f6020820190508181035f83015261176981611730565b9050919050565b5f61177a82610c08565b915061178583610c08565b925082820261179381610c08565b915082820484148315176117aa576117a96111da565b5b509291505056fea26469706673582212203f5da33b154726c5507456956368e05977948421ec088fe8f2303ae3560663e664736f6c63430008170033",
					"opcodes": "PUSH1 0x80 PUSH1 0x40 MSTORE PUSH3 0x186A0 PUSH1 0x5 SSTORE CALLVALUE DUP1 ISZERO PUSH3 0x17 JUMPI PUSH0 DUP1 REVERT JUMPDEST POP PUSH1 0x40 MLOAD PUSH3 0x1C26 CODESIZE SUB DUP1 PUSH3 0x1C26 DUP4 CODECOPY DUP2 DUP2 ADD PUSH1 0x40 MSTORE DUP2 ADD SWAP1 PUSH3 0x3D SWAP2 SWAP1 PUSH3 0x29F JUMP JUMPDEST CALLER PUSH0 PUSH20 0xFFFFFFFFFFFFFFFFFFFFFFFFFFFFFFFFFFFFFFFF AND DUP2 PUSH20 0xFFFFFFFFFFFFFFFFFFFFFFFFFFFFFFFFFFFFFFFF AND SUB PUSH3 0xB1 JUMPI PUSH0 PUSH1 0x40 MLOAD PUSH32 0x1E4FBDF700000000000000000000000000000000000000000000000000000000 DUP2 MSTORE PUSH1 0x4 ADD PUSH3 0xA8 SWAP2 SWAP1 PUSH3 0x2E0 JUMP JUMPDEST PUSH1 0x40 MLOAD DUP1 SWAP2 SUB SWAP1 REVERT JUMPDEST PUSH3 0xC2 DUP2 PUSH3 0x179 PUSH1 0x20 SHL PUSH1 0x20 SHR JUMP JUMPDEST POP DUP1 PUSH1 0x6 PUSH0 PUSH2 0x100 EXP DUP2 SLOAD DUP2 PUSH20 0xFFFFFFFFFFFFFFFFFFFFFFFFFFFFFFFFFFFFFFFF MUL NOT AND SWAP1 DUP4 PUSH20 0xFFFFFFFFFFFFFFFFFFFFFFFFFFFFFFFFFFFFFFFF AND MUL OR SWAP1 SSTORE POP PUSH2 0x76C PUSH1 0x4 PUSH1 0x40 MLOAD PUSH3 0x116 SWAP1 PUSH3 0x353 JUMP JUMPDEST SWAP1 DUP2 MSTORE PUSH1 0x20 ADD PUSH1 0x40 MLOAD DUP1 SWAP2 SUB SWAP1 KECCAK256 DUP2 SWAP1 SSTORE POP PUSH2 0x7D0 PUSH1 0x4 PUSH1 0x40 MLOAD PUSH3 0x13B SWAP1 PUSH3 0x3B7 JUMP JUMPDEST SWAP1 DUP2 MSTORE PUSH1 0x20 ADD PUSH1 0x40 MLOAD DUP1 SWAP2 SUB SWAP1 KECCAK256 DUP2 SWAP1 SSTORE POP PUSH2 0x708 PUSH1 0x4 PUSH1 0x40 MLOAD PUSH3 0x160 SWAP1 PUSH3 0x41B JUMP JUMPDEST SWAP1 DUP2 MSTORE PUSH1 0x20 ADD PUSH1 0x40 MLOAD DUP1 SWAP2 SUB SWAP1 KECCAK256 DUP2 SWAP1 SSTORE POP POP PUSH3 0x431 JUMP JUMPDEST PUSH0 DUP1 PUSH0 SWAP1 SLOAD SWAP1 PUSH2 0x100 EXP SWAP1 DIV PUSH20 0xFFFFFFFFFFFFFFFFFFFFFFFFFFFFFFFFFFFFFFFF AND SWAP1 POP DUP2 PUSH0 DUP1 PUSH2 0x100 EXP DUP2 SLOAD DUP2 PUSH20 0xFFFFFFFFFFFFFFFFFFFFFFFFFFFFFFFFFFFFFFFF MUL NOT AND SWAP1 DUP4 PUSH20 0xFFFFFFFFFFFFFFFFFFFFFFFFFFFFFFFFFFFFFFFF AND MUL OR SWAP1 SSTORE POP DUP2 PUSH20 0xFFFFFFFFFFFFFFFFFFFFFFFFFFFFFFFFFFFFFFFF AND DUP2 PUSH20 0xFFFFFFFFFFFFFFFFFFFFFFFFFFFFFFFFFFFFFFFF AND PUSH32 0x8BE0079C531659141344CD1FD0A4F28419497F9722A3DAAFE3B4186F6B6457E0 PUSH1 0x40 MLOAD PUSH1 0x40 MLOAD DUP1 SWAP2 SUB SWAP1 LOG3 POP POP JUMP JUMPDEST PUSH0 DUP1 REVERT JUMPDEST PUSH0 PUSH20 0xFFFFFFFFFFFFFFFFFFFFFFFFFFFFFFFFFFFFFFFF DUP3 AND SWAP1 POP SWAP2 SWAP1 POP JUMP JUMPDEST PUSH0 PUSH3 0x269 DUP3 PUSH3 0x23E JUMP JUMPDEST SWAP1 POP SWAP2 SWAP1 POP JUMP JUMPDEST PUSH3 0x27B DUP2 PUSH3 0x25D JUMP JUMPDEST DUP2 EQ PUSH3 0x286 JUMPI PUSH0 DUP1 REVERT JUMPDEST POP JUMP JUMPDEST PUSH0 DUP2 MLOAD SWAP1 POP PUSH3 0x299 DUP2 PUSH3 0x270 JUMP JUMPDEST SWAP3 SWAP2 POP POP JUMP JUMPDEST PUSH0 PUSH1 0x20 DUP3 DUP5 SUB SLT ISZERO PUSH3 0x2B7 JUMPI PUSH3 0x2B6 PUSH3 0x23A JUMP JUMPDEST JUMPDEST PUSH0 PUSH3 0x2C6 DUP5 DUP3 DUP6 ADD PUSH3 0x289 JUMP JUMPDEST SWAP2 POP POP SWAP3 SWAP2 POP POP JUMP JUMPDEST PUSH3 0x2DA DUP2 PUSH3 0x25D JUMP JUMPDEST DUP3 MSTORE POP POP JUMP JUMPDEST PUSH0 PUSH1 0x20 DUP3 ADD SWAP1 POP PUSH3 0x2F5 PUSH0 DUP4 ADD DUP5 PUSH3 0x2CF JUMP JUMPDEST SWAP3 SWAP2 POP POP JUMP JUMPDEST PUSH0 DUP2 SWAP1 POP SWAP3 SWAP2 POP POP JUMP JUMPDEST PUSH32 0x417273656E616C00000000000000000000000000000000000000000000000000 PUSH0 DUP3 ADD MSTORE POP JUMP JUMPDEST PUSH0 PUSH3 0x33B PUSH1 0x7 DUP4 PUSH3 0x2FB JUMP JUMPDEST SWAP2 POP PUSH3 0x348 DUP3 PUSH3 0x305 JUMP JUMPDEST PUSH1 0x7 DUP3 ADD SWAP1 POP SWAP2 SWAP1 POP JUMP JUMPDEST PUSH0 PUSH3 0x35F DUP3 PUSH3 0x32D JUMP JUMPDEST SWAP2 POP DUP2 SWAP1 POP SWAP2 SWAP1 POP JUMP JUMPDEST PUSH32 0x4368656C73656100000000000000000000000000000000000000000000000000 PUSH0 DUP3 ADD MSTORE POP JUMP JUMPDEST PUSH0 PUSH3 0x39F PUSH1 0x7 DUP4 PUSH3 0x2FB JUMP JUMPDEST SWAP2 POP PUSH3 0x3AC DUP3 PUSH3 0x369 JUMP JUMPDEST PUSH1 0x7 DUP3 ADD SWAP1 POP SWAP2 SWAP1 POP JUMP JUMPDEST PUSH0 PUSH3 0x3C3 DUP3 PUSH3 0x391 JUMP JUMPDEST SWAP2 POP DUP2 SWAP1 POP SWAP2 SWAP1 POP JUMP JUMPDEST PUSH32 0x4D616E2043697479000000000000000000000000000000000000000000000000 PUSH0 DUP3 ADD MSTORE POP JUMP JUMPDEST PUSH0 PUSH3 0x403 PUSH1 0x8 DUP4 PUSH3 0x2FB JUMP JUMPDEST SWAP2 POP PUSH3 0x410 DUP3 PUSH3 0x3CD JUMP JUMPDEST PUSH1 0x8 DUP3 ADD SWAP1 POP SWAP2 SWAP1 POP JUMP JUMPDEST PUSH0 PUSH3 0x427 DUP3 PUSH3 0x3F5 JUMP JUMPDEST SWAP2 POP DUP2 SWAP1 POP SWAP2 SWAP1 POP JUMP JUMPDEST PUSH2 0x17E7 DUP1 PUSH3 0x43F PUSH0 CODECOPY PUSH0 RETURN INVALID PUSH1 0x80 PUSH1 0x40 MSTORE PUSH1 0x4 CALLDATASIZE LT PUSH2 0xA6 JUMPI PUSH0 CALLDATALOAD PUSH1 0xE0 SHR DUP1 PUSH4 0xA97496A5 GT PUSH2 0x63 JUMPI DUP1 PUSH4 0xA97496A5 EQ PUSH2 0x182 JUMPI DUP1 PUSH4 0xAC580DE7 EQ PUSH2 0x1AC JUMPI DUP1 PUSH4 0xD0CE7360 EQ PUSH2 0x1E8 JUMPI DUP1 PUSH4 0xED23F8C3 EQ PUSH2 0x210 JUMPI DUP1 PUSH4 0xF2FDE38B EQ PUSH2 0x252 JUMPI DUP1 PUSH4 0xFDF3F74D EQ PUSH2 0x27A JUMPI PUSH2 0xA6 JUMP JUMPDEST DUP1 PUSH4 0x12065FE0 EQ PUSH2 0xAA JUMPI DUP1 PUSH4 0x715018A6 EQ PUSH2 0xD4 JUMPI DUP1 PUSH4 0x741BEF1A EQ PUSH2 0xEA JUMPI DUP1 PUSH4 0x8DA5CB5B EQ PUSH2 0x114 JUMPI DUP1 PUSH4 0x939E3572 EQ PUSH2 0x13E JUMPI DUP1 PUSH4 0x9DA751BB EQ PUSH2 0x166 JUMPI JUMPDEST PUSH0 DUP1 REVERT JUMPDEST CALLVALUE DUP1 ISZERO PUSH2 0xB5 JUMPI PUSH0 DUP1 REVERT JUMPDEST POP PUSH2 0xBE PUSH2 0x2B6 JUMP JUMPDEST PUSH1 0x40 MLOAD PUSH2 0xCB SWAP2 SWAP1 PUSH2 0xC20 JUMP JUMPDEST PUSH1 0x40 MLOAD DUP1 SWAP2 SUB SWAP1 RETURN JUMPDEST CALLVALUE DUP1 ISZERO PUSH2 0xDF JUMPI PUSH0 DUP1 REVERT JUMPDEST POP PUSH2 0xE8 PUSH2 0x2BD JUMP JUMPDEST STOP JUMPDEST CALLVALUE DUP1 ISZERO PUSH2 0xF5 JUMPI PUSH0 DUP1 REVERT JUMPDEST POP PUSH2 0xFE PUSH2 0x2D0 JUMP JUMPDEST PUSH1 0x40 MLOAD PUSH2 0x10B SWAP2 SWAP1 PUSH2 0xCB3 JUMP JUMPDEST PUSH1 0x40 MLOAD DUP1 SWAP2 SUB SWAP1 RETURN JUMPDEST CALLVALUE DUP1 ISZERO PUSH2 0x11F JUMPI PUSH0 DUP1 REVERT JUMPDEST POP PUSH2 0x128 PUSH2 0x2F5 JUMP JUMPDEST PUSH1 0x40 MLOAD PUSH2 0x135 SWAP2 SWAP1 PUSH2 0xCEC JUMP JUMPDEST PUSH1 0x40 MLOAD DUP1 SWAP2 SUB SWAP1 RETURN JUMPDEST CALLVALUE DUP1 ISZERO PUSH2 0x149 JUMPI PUSH0 DUP1 REVERT JUMPDEST POP PUSH2 0x164 PUSH1 0x4 DUP1 CALLDATASIZE SUB DUP2 ADD SWAP1 PUSH2 0x15F SWAP2 SWAP1 PUSH2 0xD6A JUMP JUMPDEST PUSH2 0x31C JUMP JUMPDEST STOP JUMPDEST PUSH2 0x180 PUSH1 0x4 DUP1 CALLDATASIZE SUB DUP2 ADD SWAP1 PUSH2 0x17B SWAP2 SWAP1 PUSH2 0xEF6 JUMP JUMPDEST PUSH2 0x3D2 JUMP JUMPDEST STOP JUMPDEST CALLVALUE DUP1 ISZERO PUSH2 0x18D JUMPI PUSH0 DUP1 REVERT JUMPDEST POP PUSH2 0x196 PUSH2 0x5D4 JUMP JUMPDEST PUSH1 0x40 MLOAD PUSH2 0x1A3 SWAP2 SWAP1 PUSH2 0xF55 JUMP JUMPDEST PUSH1 0x40 MLOAD DUP1 SWAP2 SUB SWAP1 RETURN JUMPDEST CALLVALUE DUP1 ISZERO PUSH2 0x1B7 JUMPI PUSH0 DUP1 REVERT JUMPDEST POP PUSH2 0x1D2 PUSH1 0x4 DUP1 CALLDATASIZE SUB DUP2 ADD SWAP1 PUSH2 0x1CD SWAP2 SWAP1 PUSH2 0xF6E JUMP JUMPDEST PUSH2 0x671 JUMP JUMPDEST PUSH1 0x40 MLOAD PUSH2 0x1DF SWAP2 SWAP1 PUSH2 0xC20 JUMP JUMPDEST PUSH1 0x40 MLOAD DUP1 SWAP2 SUB SWAP1 RETURN JUMPDEST CALLVALUE DUP1 ISZERO PUSH2 0x1F3 JUMPI PUSH0 DUP1 REVERT JUMPDEST POP PUSH2 0x20E PUSH1 0x4 DUP1 CALLDATASIZE SUB DUP2 ADD SWAP1 PUSH2 0x209 SWAP2 SWAP1 PUSH2 0xF99 JUMP JUMPDEST PUSH2 0x686 JUMP JUMPDEST STOP JUMPDEST CALLVALUE DUP1 ISZERO PUSH2 0x21B JUMPI PUSH0 DUP1 REVERT JUMPDEST POP PUSH2 0x236 PUSH1 0x4 DUP1 CALLDATASIZE SUB DUP2 ADD SWAP1 PUSH2 0x231 SWAP2 SWAP1 PUSH2 0xFC4 JUMP JUMPDEST PUSH2 0x902 JUMP JUMPDEST PUSH1 0x40 MLOAD PUSH2 0x249 SWAP8 SWAP7 SWAP6 SWAP5 SWAP4 SWAP3 SWAP2 SWAP1 PUSH2 0x1096 JUMP JUMPDEST PUSH1 0x40 MLOAD DUP1 SWAP2 SUB SWAP1 RETURN JUMPDEST CALLVALUE DUP1 ISZERO PUSH2 0x25D JUMPI PUSH0 DUP1 REVERT JUMPDEST POP PUSH2 0x278 PUSH1 0x4 DUP1 CALLDATASIZE SUB DUP2 ADD SWAP1 PUSH2 0x273 SWAP2 SWAP1 PUSH2 0xF6E JUMP JUMPDEST PUSH2 0xA08 JUMP JUMPDEST STOP JUMPDEST CALLVALUE DUP1 ISZERO PUSH2 0x285 JUMPI PUSH0 DUP1 REVERT JUMPDEST POP PUSH2 0x2A0 PUSH1 0x4 DUP1 CALLDATASIZE SUB DUP2 ADD SWAP1 PUSH2 0x29B SWAP2 SWAP1 PUSH2 0xEF6 JUMP JUMPDEST PUSH2 0xA8C JUMP JUMPDEST PUSH1 0x40 MLOAD PUSH2 0x2AD SWAP2 SWAP1 PUSH2 0xC20 JUMP JUMPDEST PUSH1 0x40 MLOAD DUP1 SWAP2 SUB SWAP1 RETURN JUMPDEST PUSH0 SELFBALANCE SWAP1 POP SWAP1 JUMP JUMPDEST PUSH2 0x2C5 PUSH2 0xAB9 JUMP JUMPDEST PUSH2 0x2CE PUSH0 PUSH2 0xB40 JUMP JUMPDEST JUMP JUMPDEST PUSH1 0x6 PUSH0 SWAP1 SLOAD SWAP1 PUSH2 0x100 EXP SWAP1 DIV PUSH20 0xFFFFFFFFFFFFFFFFFFFFFFFFFFFFFFFFFFFFFFFF AND DUP2 JUMP JUMPDEST PUSH0 DUP1 PUSH0 SWAP1 SLOAD SWAP1 PUSH2 0x100 EXP SWAP1 DIV PUSH20 0xFFFFFFFFFFFFFFFFFFFFFFFFFFFFFFFFFFFFFFFF AND SWAP1 POP SWAP1 JUMP JUMPDEST PUSH2 0x324 PUSH2 0xAB9 JUMP JUMPDEST PUSH0 PUSH1 0x2 PUSH0 DUP5 PUSH20 0xFFFFFFFFFFFFFFFFFFFFFFFFFFFFFFFFFFFFFFFF AND PUSH20 0xFFFFFFFFFFFFFFFFFFFFFFFFFFFFFFFFFFFFFFFF AND DUP2 MSTORE PUSH1 0x20 ADD SWAP1 DUP2 MSTORE PUSH1 0x20 ADD PUSH0 KECCAK256 PUSH0 DUP4 DUP2 MSTORE PUSH1 0x20 ADD SWAP1 DUP2 MSTORE PUSH1 0x20 ADD PUSH0 KECCAK256 SWAP1 POP DUP1 PUSH1 0x3 ADD PUSH0 SWAP1 SLOAD SWAP1 PUSH2 0x100 EXP SWAP1 DIV PUSH1 0xFF AND PUSH2 0x3C3 JUMPI PUSH1 0x40 MLOAD PUSH32 0x8C379A000000000000000000000000000000000000000000000000000000000 DUP2 MSTORE PUSH1 0x4 ADD PUSH2 0x3BA SWAP1 PUSH2 0x1154 JUMP JUMPDEST PUSH1 0x40 MLOAD DUP1 SWAP2 SUB SWAP1 REVERT JUMPDEST DUP4 DUP2 PUSH1 0x2 ADD DUP2 SWAP1 SSTORE POP POP POP POP POP JUMP JUMPDEST PUSH0 CALLVALUE GT PUSH2 0x414 JUMPI PUSH1 0x40 MLOAD PUSH32 0x8C379A000000000000000000000000000000000000000000000000000000000 DUP2 MSTORE PUSH1 0x4 ADD PUSH2 0x40B SWAP1 PUSH2 0x11BC JUMP JUMPDEST PUSH1 0x40 MLOAD DUP1 SWAP2 SUB SWAP1 REVERT JUMPDEST PUSH0 PUSH1 0x1 PUSH1 0x3 PUSH0 CALLER PUSH20 0xFFFFFFFFFFFFFFFFFFFFFFFFFFFFFFFFFFFFFFFF AND PUSH20 0xFFFFFFFFFFFFFFFFFFFFFFFFFFFFFFFFFFFFFFFF AND DUP2 MSTORE PUSH1 0x20 ADD SWAP1 DUP2 MSTORE PUSH1 0x20 ADD PUSH0 KECCAK256 SLOAD PUSH2 0x45F SWAP2 SWAP1 PUSH2 0x1207 JUMP JUMPDEST SWAP1 POP PUSH0 PUSH1 0x4 DUP4 PUSH1 0x40 MLOAD PUSH2 0x472 SWAP2 SWAP1 PUSH2 0x1274 JUMP JUMPDEST SWAP1 DUP2 MSTORE PUSH1 0x20 ADD PUSH1 0x40 MLOAD DUP1 SWAP2 SUB SWAP1 KECCAK256 SLOAD CALLVALUE PUSH2 0x48C SWAP2 SWAP1 PUSH2 0x12B7 JUMP JUMPDEST SWAP1 POP PUSH0 PUSH1 0x2 PUSH0 CALLER PUSH20 0xFFFFFFFFFFFFFFFFFFFFFFFFFFFFFFFFFFFFFFFF AND PUSH20 0xFFFFFFFFFFFFFFFFFFFFFFFFFFFFFFFFFFFFFFFF AND DUP2 MSTORE PUSH1 0x20 ADD SWAP1 DUP2 MSTORE PUSH1 0x20 ADD PUSH0 KECCAK256 PUSH0 DUP5 DUP2 MSTORE PUSH1 0x20 ADD SWAP1 DUP2 MSTORE PUSH1 0x20 ADD PUSH0 KECCAK256 SWAP1 POP CALLER DUP2 PUSH0 ADD PUSH0 PUSH2 0x100 EXP DUP2 SLOAD DUP2 PUSH20 0xFFFFFFFFFFFFFFFFFFFFFFFFFFFFFFFFFFFFFFFF MUL NOT AND SWAP1 DUP4 PUSH20 0xFFFFFFFFFFFFFFFFFFFFFFFFFFFFFFFFFFFFFFFF AND MUL OR SWAP1 SSTORE POP DUP4 DUP2 PUSH1 0x4 ADD SWAP1 DUP2 PUSH2 0x52F SWAP2 SWAP1 PUSH2 0x14D8 JUMP JUMPDEST POP DUP2 DUP2 PUSH1 0x1 ADD DUP2 SWAP1 SSTORE POP PUSH1 0x4 DUP5 PUSH1 0x40 MLOAD PUSH2 0x549 SWAP2 SWAP1 PUSH2 0x1274 JUMP JUMPDEST SWAP1 DUP2 MSTORE PUSH1 0x20 ADD PUSH1 0x40 MLOAD DUP1 SWAP2 SUB SWAP1 KECCAK256 SLOAD DUP2 PUSH1 0x5 ADD DUP2 SWAP1 SSTORE POP PUSH1 0x1 DUP2 PUSH1 0x3 ADD PUSH0 PUSH2 0x100 EXP DUP2 SLOAD DUP2 PUSH1 0xFF MUL NOT AND SWAP1 DUP4 ISZERO ISZERO MUL OR SWAP1 SSTORE POP PUSH1 0x3 PUSH0 CALLER PUSH20 0xFFFFFFFFFFFFFFFFFFFFFFFFFFFFFFFFFFFFFFFF AND PUSH20 0xFFFFFFFFFFFFFFFFFFFFFFFFFFFFFFFFFFFFFFFF AND DUP2 MSTORE PUSH1 0x20 ADD SWAP1 DUP2 MSTORE PUSH1 0x20 ADD PUSH0 KECCAK256 PUSH0 DUP2 SLOAD DUP1 SWAP3 SWAP2 SWAP1 PUSH2 0x5C9 SWAP1 PUSH2 0x15A7 JUMP JUMPDEST SWAP2 SWAP1 POP SSTORE POP POP POP POP POP JUMP JUMPDEST PUSH0 DUP1 PUSH1 0x6 PUSH0 SWAP1 SLOAD SWAP1 PUSH2 0x100 EXP SWAP1 DIV PUSH20 0xFFFFFFFFFFFFFFFFFFFFFFFFFFFFFFFFFFFFFFFF AND PUSH20 0xFFFFFFFFFFFFFFFFFFFFFFFFFFFFFFFFFFFFFFFF AND PUSH4 0xFEAF968C PUSH1 0x40 MLOAD DUP2 PUSH4 0xFFFFFFFF AND PUSH1 0xE0 SHL DUP2 MSTORE PUSH1 0x4 ADD PUSH1 0xA0 PUSH1 0x40 MLOAD DUP1 DUP4 SUB DUP2 DUP7 GAS STATICCALL ISZERO DUP1 ISZERO PUSH2 0x640 JUMPI RETURNDATASIZE PUSH0 DUP1 RETURNDATACOPY RETURNDATASIZE PUSH0 REVERT JUMPDEST POP POP POP POP PUSH1 0x40 MLOAD RETURNDATASIZE PUSH1 0x1F NOT PUSH1 0x1F DUP3 ADD AND DUP3 ADD DUP1 PUSH1 0x40 MSTORE POP DUP2 ADD SWAP1 PUSH2 0x664 SWAP2 SWAP1 PUSH2 0x166B JUMP JUMPDEST POP POP POP SWAP2 POP POP DUP1 SWAP2 POP POP SWAP1 JUMP JUMPDEST PUSH1 0x3 PUSH1 0x20 MSTORE DUP1 PUSH0 MSTORE PUSH1 0x40 PUSH0 KECCAK256 PUSH0 SWAP2 POP SWAP1 POP SLOAD DUP2 JUMP JUMPDEST PUSH0 PUSH1 0x2 PUSH0 CALLER PUSH20 0xFFFFFFFFFFFFFFFFFFFFFFFFFFFFFFFFFFFFFFFF AND PUSH20 0xFFFFFFFFFFFFFFFFFFFFFFFFFFFFFFFFFFFFFFFF AND DUP2 MSTORE PUSH1 0x20 ADD SWAP1 DUP2 MSTORE PUSH1 0x20 ADD PUSH0 KECCAK256 PUSH0 DUP4 DUP2 MSTORE PUSH1 0x20 ADD SWAP1 DUP2 MSTORE PUSH1 0x20 ADD PUSH0 KECCAK256 SWAP1 POP DUP1 PUSH1 0x3 ADD PUSH0 SWAP1 SLOAD SWAP1 PUSH2 0x100 EXP SWAP1 DIV PUSH1 0xFF AND PUSH2 0x725 JUMPI PUSH1 0x40 MLOAD PUSH32 0x8C379A000000000000000000000000000000000000000000000000000000000 DUP2 MSTORE PUSH1 0x4 ADD PUSH2 0x71C SWAP1 PUSH2 0x1154 JUMP JUMPDEST PUSH1 0x40 MLOAD DUP1 SWAP2 SUB SWAP1 REVERT JUMPDEST CALLER PUSH20 0xFFFFFFFFFFFFFFFFFFFFFFFFFFFFFFFFFFFFFFFF AND DUP2 PUSH0 ADD PUSH0 SWAP1 SLOAD SWAP1 PUSH2 0x100 EXP SWAP1 DIV PUSH20 0xFFFFFFFFFFFFFFFFFFFFFFFFFFFFFFFFFFFFFFFF AND PUSH20 0xFFFFFFFFFFFFFFFFFFFFFFFFFFFFFFFFFFFFFFFF AND EQ PUSH2 0x7B5 JUMPI PUSH1 0x40 MLOAD PUSH32 0x8C379A000000000000000000000000000000000000000000000000000000000 DUP2 MSTORE PUSH1 0x4 ADD PUSH2 0x7AC SWAP1 PUSH2 0x1752 JUMP JUMPDEST PUSH1 0x40 MLOAD DUP1 SWAP2 SUB SWAP1 REVERT JUMPDEST PUSH0 DUP2 PUSH1 0x4 ADD DUP1 SLOAD PUSH2 0x7C5 SWAP1 PUSH2 0x1314 JUMP JUMPDEST DUP1 PUSH1 0x1F ADD PUSH1 0x20 DUP1 SWAP2 DIV MUL PUSH1 0x20 ADD PUSH1 0x40 MLOAD SWAP1 DUP2 ADD PUSH1 0x40 MSTORE DUP1 SWAP3 SWAP2 SWAP1 DUP2 DUP2 MSTORE PUSH1 0x20 ADD DUP3 DUP1 SLOAD PUSH2 0x7F1 SWAP1 PUSH2 0x1314 JUMP JUMPDEST DUP1 ISZERO PUSH2 0x83C JUMPI DUP1 PUSH1 0x1F LT PUSH2 0x813 JUMPI PUSH2 0x100 DUP1 DUP4 SLOAD DIV MUL DUP4 MSTORE SWAP2 PUSH1 0x20 ADD SWAP2 PUSH2 0x83C JUMP JUMPDEST DUP3 ADD SWAP2 SWAP1 PUSH0 MSTORE PUSH1 0x20 PUSH0 KECCAK256 SWAP1 JUMPDEST DUP2 SLOAD DUP2 MSTORE SWAP1 PUSH1 0x1 ADD SWAP1 PUSH1 0x20 ADD DUP1 DUP4 GT PUSH2 0x81F JUMPI DUP3 SWAP1 SUB PUSH1 0x1F AND DUP3 ADD SWAP2 JUMPDEST POP POP POP POP POP SWAP1 POP PUSH0 PUSH1 0x4 DUP3 PUSH1 0x40 MLOAD PUSH2 0x854 SWAP2 SWAP1 PUSH2 0x1274 JUMP JUMPDEST SWAP1 DUP2 MSTORE PUSH1 0x20 ADD PUSH1 0x40 MLOAD DUP1 SWAP2 SUB SWAP1 KECCAK256 SLOAD SWAP1 POP PUSH0 PUSH2 0x86E PUSH2 0x2B6 JUMP JUMPDEST SWAP1 POP PUSH0 DUP5 PUSH1 0x1 ADD SLOAD DUP3 DUP5 PUSH1 0x5 SLOAD PUSH2 0x885 SWAP2 SWAP1 PUSH2 0x12B7 JUMP JUMPDEST PUSH2 0x88F SWAP2 SWAP1 PUSH2 0x1770 JUMP JUMPDEST PUSH2 0x899 SWAP2 SWAP1 PUSH2 0x1770 JUMP JUMPDEST SWAP1 POP CALLER PUSH20 0xFFFFFFFFFFFFFFFFFFFFFFFFFFFFFFFFFFFFFFFF AND PUSH2 0x8FC DUP3 SWAP1 DUP2 ISZERO MUL SWAP1 PUSH1 0x40 MLOAD PUSH0 PUSH1 0x40 MLOAD DUP1 DUP4 SUB DUP2 DUP6 DUP9 DUP9 CALL SWAP4 POP POP POP POP ISZERO DUP1 ISZERO PUSH2 0x8DE JUMPI RETURNDATASIZE PUSH0 DUP1 RETURNDATACOPY RETURNDATASIZE PUSH0 REVERT JUMPDEST POP PUSH0 DUP6 PUSH1 0x3 ADD PUSH0 PUSH2 0x100 EXP DUP2 SLOAD DUP2 PUSH1 0xFF MUL NOT AND SWAP1 DUP4 ISZERO ISZERO MUL OR SWAP1 SSTORE POP POP POP POP POP POP POP JUMP JUMPDEST PUSH1 0x2 PUSH1 0x20 MSTORE DUP2 PUSH0 MSTORE PUSH1 0x40 PUSH0 KECCAK256 PUSH1 0x20 MSTORE DUP1 PUSH0 MSTORE PUSH1 0x40 PUSH0 KECCAK256 PUSH0 SWAP2 POP SWAP2 POP POP DUP1 PUSH0 ADD PUSH0 SWAP1 SLOAD SWAP1 PUSH2 0x100 EXP SWAP1 DIV PUSH20 0xFFFFFFFFFFFFFFFFFFFFFFFFFFFFFFFFFFFFFFFF AND SWAP1 DUP1 PUSH0 ADD PUSH1 0x14 SWAP1 SLOAD SWAP1 PUSH2 0x100 EXP SWAP1 DIV PUSH1 0xFF AND SWAP1 DUP1 PUSH1 0x1 ADD SLOAD SWAP1 DUP1 PUSH1 0x2 ADD SLOAD SWAP1 DUP1 PUSH1 0x3 ADD PUSH0 SWAP1 SLOAD SWAP1 PUSH2 0x100 EXP SWAP1 DIV PUSH1 0xFF AND SWAP1 DUP1 PUSH1 0x4 ADD DUP1 SLOAD PUSH2 0x981 SWAP1 PUSH2 0x1314 JUMP JUMPDEST DUP1 PUSH1 0x1F ADD PUSH1 0x20 DUP1 SWAP2 DIV MUL PUSH1 0x20 ADD PUSH1 0x40 MLOAD SWAP1 DUP2 ADD PUSH1 0x40 MSTORE DUP1 SWAP3 SWAP2 SWAP1 DUP2 DUP2 MSTORE PUSH1 0x20 ADD DUP3 DUP1 SLOAD PUSH2 0x9AD SWAP1 PUSH2 0x1314 JUMP JUMPDEST DUP1 ISZERO PUSH2 0x9F8 JUMPI DUP1 PUSH1 0x1F LT PUSH2 0x9CF JUMPI PUSH2 0x100 DUP1 DUP4 SLOAD DIV MUL DUP4 MSTORE SWAP2 PUSH1 0x20 ADD SWAP2 PUSH2 0x9F8 JUMP JUMPDEST DUP3 ADD SWAP2 SWAP1 PUSH0 MSTORE PUSH1 0x20 PUSH0 KECCAK256 SWAP1 JUMPDEST DUP2 SLOAD DUP2 MSTORE SWAP1 PUSH1 0x1 ADD SWAP1 PUSH1 0x20 ADD DUP1 DUP4 GT PUSH2 0x9DB JUMPI DUP3 SWAP1 SUB PUSH1 0x1F AND DUP3 ADD SWAP2 JUMPDEST POP POP POP POP POP SWAP1 DUP1 PUSH1 0x5 ADD SLOAD SWAP1 POP DUP8 JUMP JUMPDEST PUSH2 0xA10 PUSH2 0xAB9 JUMP JUMPDEST PUSH0 PUSH20 0xFFFFFFFFFFFFFFFFFFFFFFFFFFFFFFFFFFFFFFFF AND DUP2 PUSH20 0xFFFFFFFFFFFFFFFFFFFFFFFFFFFFFFFFFFFFFFFF AND SUB PUSH2 0xA80 JUMPI PUSH0 PUSH1 0x40 MLOAD PUSH32 0x1E4FBDF700000000000000000000000000000000000000000000000000000000 DUP2 MSTORE PUSH1 0x4 ADD PUSH2 0xA77 SWAP2 SWAP1 PUSH2 0xCEC JUMP JUMPDEST PUSH1 0x40 MLOAD DUP1 SWAP2 SUB SWAP1 REVERT JUMPDEST PUSH2 0xA89 DUP2 PUSH2 0xB40 JUMP JUMPDEST POP JUMP JUMPDEST PUSH1 0x4 DUP2 DUP1 MLOAD PUSH1 0x20 DUP2 ADD DUP3 ADD DUP1 MLOAD DUP5 DUP3 MSTORE PUSH1 0x20 DUP4 ADD PUSH1 0x20 DUP6 ADD KECCAK256 DUP2 DUP4 MSTORE DUP1 SWAP6 POP POP POP POP POP POP PUSH0 SWAP2 POP SWAP1 POP SLOAD DUP2 JUMP JUMPDEST PUSH2 0xAC1 PUSH2 0xC01 JUMP JUMPDEST PUSH20 0xFFFFFFFFFFFFFFFFFFFFFFFFFFFFFFFFFFFFFFFF AND PUSH2 0xADF PUSH2 0x2F5 JUMP JUMPDEST PUSH20 0xFFFFFFFFFFFFFFFFFFFFFFFFFFFFFFFFFFFFFFFF AND EQ PUSH2 0xB3E JUMPI PUSH2 0xB02 PUSH2 0xC01 JUMP JUMPDEST PUSH1 0x40 MLOAD PUSH32 0x118CDAA700000000000000000000000000000000000000000000000000000000 DUP2 MSTORE PUSH1 0x4 ADD PUSH2 0xB35 SWAP2 SWAP1 PUSH2 0xCEC JUMP JUMPDEST PUSH1 0x40 MLOAD DUP1 SWAP2 SUB SWAP1 REVERT JUMPDEST JUMP JUMPDEST PUSH0 DUP1 PUSH0 SWAP1 SLOAD SWAP1 PUSH2 0x100 EXP SWAP1 DIV PUSH20 0xFFFFFFFFFFFFFFFFFFFFFFFFFFFFFFFFFFFFFFFF AND SWAP1 POP DUP2 PUSH0 DUP1 PUSH2 0x100 EXP DUP2 SLOAD DUP2 PUSH20 0xFFFFFFFFFFFFFFFFFFFFFFFFFFFFFFFFFFFFFFFF MUL NOT AND SWAP1 DUP4 PUSH20 0xFFFFFFFFFFFFFFFFFFFFFFFFFFFFFFFFFFFFFFFF AND MUL OR SWAP1 SSTORE POP DUP2 PUSH20 0xFFFFFFFFFFFFFFFFFFFFFFFFFFFFFFFFFFFFFFFF AND DUP2 PUSH20 0xFFFFFFFFFFFFFFFFFFFFFFFFFFFFFFFFFFFFFFFF AND PUSH32 0x8BE0079C531659141344CD1FD0A4F28419497F9722A3DAAFE3B4186F6B6457E0 PUSH1 0x40 MLOAD PUSH1 0x40 MLOAD DUP1 SWAP2 SUB SWAP1 LOG3 POP POP JUMP JUMPDEST PUSH0 CALLER SWAP1 POP SWAP1 JUMP JUMPDEST PUSH0 DUP2 SWAP1 POP SWAP2 SWAP1 POP JUMP JUMPDEST PUSH2 0xC1A DUP2 PUSH2 0xC08 JUMP JUMPDEST DUP3 MSTORE POP POP JUMP JUMPDEST PUSH0 PUSH1 0x20 DUP3 ADD SWAP1 POP PUSH2 0xC33 PUSH0 DUP4 ADD DUP5 PUSH2 0xC11 JUMP JUMPDEST SWAP3 SWAP2 POP POP JUMP JUMPDEST PUSH0 PUSH20 0xFFFFFFFFFFFFFFFFFFFFFFFFFFFFFFFFFFFFFFFF DUP3 AND SWAP1 POP SWAP2 SWAP1 POP JUMP JUMPDEST PUSH0 DUP2 SWAP1 POP SWAP2 SWAP1 POP JUMP JUMPDEST PUSH0 PUSH2 0xC7B PUSH2 0xC76 PUSH2 0xC71 DUP5 PUSH2 0xC39 JUMP JUMPDEST PUSH2 0xC58 JUMP JUMPDEST PUSH2 0xC39 JUMP JUMPDEST SWAP1 POP SWAP2 SWAP1 POP JUMP JUMPDEST PUSH0 PUSH2 0xC8C DUP3 PUSH2 0xC61 JUMP JUMPDEST SWAP1 POP SWAP2 SWAP1 POP JUMP JUMPDEST PUSH0 PUSH2 0xC9D DUP3 PUSH2 0xC82 JUMP JUMPDEST SWAP1 POP SWAP2 SWAP1 POP JUMP JUMPDEST PUSH2 0xCAD DUP2 PUSH2 0xC93 JUMP JUMPDEST DUP3 MSTORE POP POP JUMP JUMPDEST PUSH0 PUSH1 0x20 DUP3 ADD SWAP1 POP PUSH2 0xCC6 PUSH0 DUP4 ADD DUP5 PUSH2 0xCA4 JUMP JUMPDEST SWAP3 SWAP2 POP POP JUMP JUMPDEST PUSH0 PUSH2 0xCD6 DUP3 PUSH2 0xC39 JUMP JUMPDEST SWAP1 POP SWAP2 SWAP1 POP JUMP JUMPDEST PUSH2 0xCE6 DUP2 PUSH2 0xCCC JUMP JUMPDEST DUP3 MSTORE POP POP JUMP JUMPDEST PUSH0 PUSH1 0x20 DUP3 ADD SWAP1 POP PUSH2 0xCFF PUSH0 DUP4 ADD DUP5 PUSH2 0xCDD JUMP JUMPDEST SWAP3 SWAP2 POP POP JUMP JUMPDEST PUSH0 PUSH1 0x40 MLOAD SWAP1 POP SWAP1 JUMP JUMPDEST PUSH0 DUP1 REVERT JUMPDEST PUSH0 DUP1 REVERT JUMPDEST PUSH2 0xD1F DUP2 PUSH2 0xC08 JUMP JUMPDEST DUP2 EQ PUSH2 0xD29 JUMPI PUSH0 DUP1 REVERT JUMPDEST POP JUMP JUMPDEST PUSH0 DUP2 CALLDATALOAD SWAP1 POP PUSH2 0xD3A DUP2 PUSH2 0xD16 JUMP JUMPDEST SWAP3 SWAP2 POP POP JUMP JUMPDEST PUSH2 0xD49 DUP2 PUSH2 0xCCC JUMP JUMPDEST DUP2 EQ PUSH2 0xD53 JUMPI PUSH0 DUP1 REVERT JUMPDEST POP JUMP JUMPDEST PUSH0 DUP2 CALLDATALOAD SWAP1 POP PUSH2 0xD64 DUP2 PUSH2 0xD40 JUMP JUMPDEST SWAP3 SWAP2 POP POP JUMP JUMPDEST PUSH0 DUP1 PUSH0 PUSH1 0x60 DUP5 DUP7 SUB SLT ISZERO PUSH2 0xD81 JUMPI PUSH2 0xD80 PUSH2 0xD0E JUMP JUMPDEST JUMPDEST PUSH0 PUSH2 0xD8E DUP7 DUP3 DUP8 ADD PUSH2 0xD2C JUMP JUMPDEST SWAP4 POP POP PUSH1 0x20 PUSH2 0xD9F DUP7 DUP3 DUP8 ADD PUSH2 0xD56 JUMP JUMPDEST SWAP3 POP POP PUSH1 0x40 PUSH2 0xDB0 DUP7 DUP3 DUP8 ADD PUSH2 0xD2C JUMP JUMPDEST SWAP2 POP POP SWAP3 POP SWAP3 POP SWAP3 JUMP JUMPDEST PUSH0 DUP1 REVERT JUMPDEST PUSH0 DUP1 REVERT JUMPDEST PUSH0 PUSH1 0x1F NOT PUSH1 0x1F DUP4 ADD AND SWAP1 POP SWAP2 SWAP1 POP JUMP JUMPDEST PUSH32 0x4E487B7100000000000000000000000000000000000000000000000000000000 PUSH0 MSTORE PUSH1 0x41 PUSH1 0x4 MSTORE PUSH1 0x24 PUSH0 REVERT JUMPDEST PUSH2 0xE08 DUP3 PUSH2 0xDC2 JUMP JUMPDEST DUP2 ADD DUP2 DUP2 LT PUSH8 0xFFFFFFFFFFFFFFFF DUP3 GT OR ISZERO PUSH2 0xE27 JUMPI PUSH2 0xE26 PUSH2 0xDD2 JUMP JUMPDEST JUMPDEST DUP1 PUSH1 0x40 MSTORE POP POP POP JUMP JUMPDEST PUSH0 PUSH2 0xE39 PUSH2 0xD05 JUMP JUMPDEST SWAP1 POP PUSH2 0xE45 DUP3 DUP3 PUSH2 0xDFF JUMP JUMPDEST SWAP2 SWAP1 POP JUMP JUMPDEST PUSH0 PUSH8 0xFFFFFFFFFFFFFFFF DUP3 GT ISZERO PUSH2 0xE64 JUMPI PUSH2 0xE63 PUSH2 0xDD2 JUMP JUMPDEST JUMPDEST PUSH2 0xE6D DUP3 PUSH2 0xDC2 JUMP JUMPDEST SWAP1 POP PUSH1 0x20 DUP2 ADD SWAP1 POP SWAP2 SWAP1 POP JUMP JUMPDEST DUP3 DUP2 DUP4 CALLDATACOPY PUSH0 DUP4 DUP4 ADD MSTORE POP POP POP JUMP JUMPDEST PUSH0 PUSH2 0xE9A PUSH2 0xE95 DUP5 PUSH2 0xE4A JUMP JUMPDEST PUSH2 0xE30 JUMP JUMPDEST SWAP1 POP DUP3 DUP2 MSTORE PUSH1 0x20 DUP2 ADD DUP5 DUP5 DUP5 ADD GT ISZERO PUSH2 0xEB6 JUMPI PUSH2 0xEB5 PUSH2 0xDBE JUMP JUMPDEST JUMPDEST PUSH2 0xEC1 DUP5 DUP3 DUP6 PUSH2 0xE7A JUMP JUMPDEST POP SWAP4 SWAP3 POP POP POP JUMP JUMPDEST PUSH0 DUP3 PUSH1 0x1F DUP4 ADD SLT PUSH2 0xEDD JUMPI PUSH2 0xEDC PUSH2 0xDBA JUMP JUMPDEST JUMPDEST DUP2 CALLDATALOAD PUSH2 0xEED DUP5 DUP3 PUSH1 0x20 DUP7 ADD PUSH2 0xE88 JUMP JUMPDEST SWAP2 POP POP SWAP3 SWAP2 POP POP JUMP JUMPDEST PUSH0 PUSH1 0x20 DUP3 DUP5 SUB SLT ISZERO PUSH2 0xF0B JUMPI PUSH2 0xF0A PUSH2 0xD0E JUMP JUMPDEST JUMPDEST PUSH0 DUP3 ADD CALLDATALOAD PUSH8 0xFFFFFFFFFFFFFFFF DUP2 GT ISZERO PUSH2 0xF28 JUMPI PUSH2 0xF27 PUSH2 0xD12 JUMP JUMPDEST JUMPDEST PUSH2 0xF34 DUP5 DUP3 DUP6 ADD PUSH2 0xEC9 JUMP JUMPDEST SWAP2 POP POP SWAP3 SWAP2 POP POP JUMP JUMPDEST PUSH0 DUP2 SWAP1 POP SWAP2 SWAP1 POP JUMP JUMPDEST PUSH2 0xF4F DUP2 PUSH2 0xF3D JUMP JUMPDEST DUP3 MSTORE POP POP JUMP JUMPDEST PUSH0 PUSH1 0x20 DUP3 ADD SWAP1 POP PUSH2 0xF68 PUSH0 DUP4 ADD DUP5 PUSH2 0xF46 JUMP JUMPDEST SWAP3 SWAP2 POP POP JUMP JUMPDEST PUSH0 PUSH1 0x20 DUP3 DUP5 SUB SLT ISZERO PUSH2 0xF83 JUMPI PUSH2 0xF82 PUSH2 0xD0E JUMP JUMPDEST JUMPDEST PUSH0 PUSH2 0xF90 DUP5 DUP3 DUP6 ADD PUSH2 0xD56 JUMP JUMPDEST SWAP2 POP POP SWAP3 SWAP2 POP POP JUMP JUMPDEST PUSH0 PUSH1 0x20 DUP3 DUP5 SUB SLT ISZERO PUSH2 0xFAE JUMPI PUSH2 0xFAD PUSH2 0xD0E JUMP JUMPDEST JUMPDEST PUSH0 PUSH2 0xFBB DUP5 DUP3 DUP6 ADD PUSH2 0xD2C JUMP JUMPDEST SWAP2 POP POP SWAP3 SWAP2 POP POP JUMP JUMPDEST PUSH0 DUP1 PUSH1 0x40 DUP4 DUP6 SUB SLT ISZERO PUSH2 0xFDA JUMPI PUSH2 0xFD9 PUSH2 0xD0E JUMP JUMPDEST JUMPDEST PUSH0 PUSH2 0xFE7 DUP6 DUP3 DUP7 ADD PUSH2 0xD56 JUMP JUMPDEST SWAP3 POP POP PUSH1 0x20 PUSH2 0xFF8 DUP6 DUP3 DUP7 ADD PUSH2 0xD2C JUMP JUMPDEST SWAP2 POP POP SWAP3 POP SWAP3 SWAP1 POP JUMP JUMPDEST PUSH0 DUP2 ISZERO ISZERO SWAP1 POP SWAP2 SWAP1 POP JUMP JUMPDEST PUSH2 0x1016 DUP2 PUSH2 0x1002 JUMP JUMPDEST DUP3 MSTORE POP POP JUMP JUMPDEST PUSH0 DUP2 MLOAD SWAP1 POP SWAP2 SWAP1 POP JUMP JUMPDEST PUSH0 DUP3 DUP3 MSTORE PUSH1 0x20 DUP3 ADD SWAP1 POP SWAP3 SWAP2 POP POP JUMP JUMPDEST PUSH0 JUMPDEST DUP4 DUP2 LT ISZERO PUSH2 0x1053 JUMPI DUP1 DUP3 ADD MLOAD DUP2 DUP5 ADD MSTORE PUSH1 0x20 DUP2 ADD SWAP1 POP PUSH2 0x1038 JUMP JUMPDEST PUSH0 DUP5 DUP5 ADD MSTORE POP POP POP POP JUMP JUMPDEST PUSH0 PUSH2 0x1068 DUP3 PUSH2 0x101C JUMP JUMPDEST PUSH2 0x1072 DUP2 DUP6 PUSH2 0x1026 JUMP JUMPDEST SWAP4 POP PUSH2 0x1082 DUP2 DUP6 PUSH1 0x20 DUP7 ADD PUSH2 0x1036 JUMP JUMPDEST PUSH2 0x108B DUP2 PUSH2 0xDC2 JUMP JUMPDEST DUP5 ADD SWAP2 POP POP SWAP3 SWAP2 POP POP JUMP JUMPDEST PUSH0 PUSH1 0xE0 DUP3 ADD SWAP1 POP PUSH2 0x10A9 PUSH0 DUP4 ADD DUP11 PUSH2 0xCDD JUMP JUMPDEST PUSH2 0x10B6 PUSH1 0x20 DUP4 ADD DUP10 PUSH2 0x100D JUMP JUMPDEST PUSH2 0x10C3 PUSH1 0x40 DUP4 ADD DUP9 PUSH2 0xC11 JUMP JUMPDEST PUSH2 0x10D0 PUSH1 0x60 DUP4 ADD DUP8 PUSH2 0xC11 JUMP JUMPDEST PUSH2 0x10DD PUSH1 0x80 DUP4 ADD DUP7 PUSH2 0x100D JUMP JUMPDEST DUP2 DUP2 SUB PUSH1 0xA0 DUP4 ADD MSTORE PUSH2 0x10EF DUP2 DUP6 PUSH2 0x105E JUMP JUMPDEST SWAP1 POP PUSH2 0x10FE PUSH1 0xC0 DUP4 ADD DUP5 PUSH2 0xC11 JUMP JUMPDEST SWAP9 SWAP8 POP POP POP POP POP POP POP POP JUMP JUMPDEST PUSH32 0x436F6E7472616374206973206E6F74206F70656E000000000000000000000000 PUSH0 DUP3 ADD MSTORE POP JUMP JUMPDEST PUSH0 PUSH2 0x113E PUSH1 0x14 DUP4 PUSH2 0x1026 JUMP JUMPDEST SWAP2 POP PUSH2 0x1149 DUP3 PUSH2 0x110A JUMP JUMPDEST PUSH1 0x20 DUP3 ADD SWAP1 POP SWAP2 SWAP1 POP JUMP JUMPDEST PUSH0 PUSH1 0x20 DUP3 ADD SWAP1 POP DUP2 DUP2 SUB PUSH0 DUP4 ADD MSTORE PUSH2 0x116B DUP2 PUSH2 0x1132 JUMP JUMPDEST SWAP1 POP SWAP2 SWAP1 POP JUMP JUMPDEST PUSH32 0x56616C7565206D7573742062652067726561746572207468616E207A65726F00 PUSH0 DUP3 ADD MSTORE POP JUMP JUMPDEST PUSH0 PUSH2 0x11A6 PUSH1 0x1F DUP4 PUSH2 0x1026 JUMP JUMPDEST SWAP2 POP PUSH2 0x11B1 DUP3 PUSH2 0x1172 JUMP JUMPDEST PUSH1 0x20 DUP3 ADD SWAP1 POP SWAP2 SWAP1 POP JUMP JUMPDEST PUSH0 PUSH1 0x20 DUP3 ADD SWAP1 POP DUP2 DUP2 SUB PUSH0 DUP4 ADD MSTORE PUSH2 0x11D3 DUP2 PUSH2 0x119A JUMP JUMPDEST SWAP1 POP SWAP2 SWAP1 POP JUMP JUMPDEST PUSH32 0x4E487B7100000000000000000000000000000000000000000000000000000000 PUSH0 MSTORE PUSH1 0x11 PUSH1 0x4 MSTORE PUSH1 0x24 PUSH0 REVERT JUMPDEST PUSH0 PUSH2 0x1211 DUP3 PUSH2 0xC08 JUMP JUMPDEST SWAP2 POP PUSH2 0x121C DUP4 PUSH2 0xC08 JUMP JUMPDEST SWAP3 POP DUP3 DUP3 ADD SWAP1 POP DUP1 DUP3 GT ISZERO PUSH2 0x1234 JUMPI PUSH2 0x1233 PUSH2 0x11DA JUMP JUMPDEST JUMPDEST SWAP3 SWAP2 POP POP JUMP JUMPDEST PUSH0 DUP2 SWAP1 POP SWAP3 SWAP2 POP POP JUMP JUMPDEST PUSH0 PUSH2 0x124E DUP3 PUSH2 0x101C JUMP JUMPDEST PUSH2 0x1258 DUP2 DUP6 PUSH2 0x123A JUMP JUMPDEST SWAP4 POP PUSH2 0x1268 DUP2 DUP6 PUSH1 0x20 DUP7 ADD PUSH2 0x1036 JUMP JUMPDEST DUP1 DUP5 ADD SWAP2 POP POP SWAP3 SWAP2 POP POP JUMP JUMPDEST PUSH0 PUSH2 0x127F DUP3 DUP5 PUSH2 0x1244 JUMP JUMPDEST SWAP2 POP DUP2 SWAP1 POP SWAP3 SWAP2 POP POP JUMP JUMPDEST PUSH32 0x4E487B7100000000000000000000000000000000000000000000000000000000 PUSH0 MSTORE PUSH1 0x12 PUSH1 0x4 MSTORE PUSH1 0x24 PUSH0 REVERT JUMPDEST PUSH0 PUSH2 0x12C1 DUP3 PUSH2 0xC08 JUMP JUMPDEST SWAP2 POP PUSH2 0x12CC DUP4 PUSH2 0xC08 JUMP JUMPDEST SWAP3 POP DUP3 PUSH2 0x12DC JUMPI PUSH2 0x12DB PUSH2 0x128A JUMP JUMPDEST JUMPDEST DUP3 DUP3 DIV SWAP1 POP SWAP3 SWAP2 POP POP JUMP JUMPDEST PUSH32 0x4E487B7100000000000000000000000000000000000000000000000000000000 PUSH0 MSTORE PUSH1 0x22 PUSH1 0x4 MSTORE PUSH1 0x24 PUSH0 REVERT JUMPDEST PUSH0 PUSH1 0x2 DUP3 DIV SWAP1 POP PUSH1 0x1 DUP3 AND DUP1 PUSH2 0x132B JUMPI PUSH1 0x7F DUP3 AND SWAP2 POP JUMPDEST PUSH1 0x20 DUP3 LT DUP2 SUB PUSH2 0x133E JUMPI PUSH2 0x133D PUSH2 0x12E7 JUMP JUMPDEST JUMPDEST POP SWAP2 SWAP1 POP JUMP JUMPDEST PUSH0 DUP2 SWAP1 POP DUP2 PUSH0 MSTORE PUSH1 0x20 PUSH0 KECCAK256 SWAP1 POP SWAP2 SWAP1 POP JUMP JUMPDEST PUSH0 PUSH1 0x20 PUSH1 0x1F DUP4 ADD DIV SWAP1 POP SWAP2 SWAP1 POP JUMP JUMPDEST PUSH0 DUP3 DUP3 SHL SWAP1 POP SWAP3 SWAP2 POP POP JUMP JUMPDEST PUSH0 PUSH1 0x8 DUP4 MUL PUSH2 0x13A0 PUSH32 0xFFFFFFFFFFFFFFFFFFFFFFFFFFFFFFFFFFFFFFFFFFFFFFFFFFFFFFFFFFFFFFFF DUP3 PUSH2 0x1365 JUMP JUMPDEST PUSH2 0x13AA DUP7 DUP4 PUSH2 0x1365 JUMP JUMPDEST SWAP6 POP DUP1 NOT DUP5 AND SWAP4 POP DUP1 DUP7 AND DUP5 OR SWAP3 POP POP POP SWAP4 SWAP3 POP POP POP JUMP JUMPDEST PUSH0 PUSH2 0x13DC PUSH2 0x13D7 PUSH2 0x13D2 DUP5 PUSH2 0xC08 JUMP JUMPDEST PUSH2 0xC58 JUMP JUMPDEST PUSH2 0xC08 JUMP JUMPDEST SWAP1 POP SWAP2 SWAP1 POP JUMP JUMPDEST PUSH0 DUP2 SWAP1 POP SWAP2 SWAP1 POP JUMP JUMPDEST PUSH2 0x13F5 DUP4 PUSH2 0x13C2 JUMP JUMPDEST PUSH2 0x1409 PUSH2 0x1401 DUP3 PUSH2 0x13E3 JUMP JUMPDEST DUP5 DUP5 SLOAD PUSH2 0x1371 JUMP JUMPDEST DUP3 SSTORE POP POP POP POP JUMP JUMPDEST PUSH0 SWAP1 JUMP JUMPDEST PUSH2 0x141D PUSH2 0x1411 JUMP JUMPDEST PUSH2 0x1428 DUP2 DUP5 DUP5 PUSH2 0x13EC JUMP JUMPDEST POP POP POP JUMP JUMPDEST JUMPDEST DUP2 DUP2 LT ISZERO PUSH2 0x144B JUMPI PUSH2 0x1440 PUSH0 DUP3 PUSH2 0x1415 JUMP JUMPDEST PUSH1 0x1 DUP2 ADD SWAP1 POP PUSH2 0x142E JUMP JUMPDEST POP POP JUMP JUMPDEST PUSH1 0x1F DUP3 GT ISZERO PUSH2 0x1490 JUMPI PUSH2 0x1461 DUP2 PUSH2 0x1344 JUMP JUMPDEST PUSH2 0x146A DUP5 PUSH2 0x1356 JUMP JUMPDEST DUP2 ADD PUSH1 0x20 DUP6 LT ISZERO PUSH2 0x1479 JUMPI DUP2 SWAP1 POP JUMPDEST PUSH2 0x148D PUSH2 0x1485 DUP6 PUSH2 0x1356 JUMP JUMPDEST DUP4 ADD DUP3 PUSH2 0x142D JUMP JUMPDEST POP POP JUMPDEST POP POP POP JUMP JUMPDEST PUSH0 DUP3 DUP3 SHR SWAP1 POP SWAP3 SWAP2 POP POP JUMP JUMPDEST PUSH0 PUSH2 0x14B0 PUSH0 NOT DUP5 PUSH1 0x8 MUL PUSH2 0x1495 JUMP JUMPDEST NOT DUP1 DUP4 AND SWAP2 POP POP SWAP3 SWAP2 POP POP JUMP JUMPDEST PUSH0 PUSH2 0x14C8 DUP4 DUP4 PUSH2 0x14A1 JUMP JUMPDEST SWAP2 POP DUP3 PUSH1 0x2 MUL DUP3 OR SWAP1 POP SWAP3 SWAP2 POP POP JUMP JUMPDEST PUSH2 0x14E1 DUP3 PUSH2 0x101C JUMP JUMPDEST PUSH8 0xFFFFFFFFFFFFFFFF DUP2 GT ISZERO PUSH2 0x14FA JUMPI PUSH2 0x14F9 PUSH2 0xDD2 JUMP JUMPDEST JUMPDEST PUSH2 0x1504 DUP3 SLOAD PUSH2 0x1314 JUMP JUMPDEST PUSH2 0x150F DUP3 DUP3 DUP6 PUSH2 0x144F JUMP JUMPDEST PUSH0 PUSH1 0x20 SWAP1 POP PUSH1 0x1F DUP4 GT PUSH1 0x1 DUP2 EQ PUSH2 0x1540 JUMPI PUSH0 DUP5 ISZERO PUSH2 0x152E JUMPI DUP3 DUP8 ADD MLOAD SWAP1 POP JUMPDEST PUSH2 0x1538 DUP6 DUP3 PUSH2 0x14BD JUMP JUMPDEST DUP7 SSTORE POP PUSH2 0x159F JUMP JUMPDEST PUSH1 0x1F NOT DUP5 AND PUSH2 0x154E DUP7 PUSH2 0x1344 JUMP JUMPDEST PUSH0 JUMPDEST DUP3 DUP2 LT ISZERO PUSH2 0x1575 JUMPI DUP5 DUP10 ADD MLOAD DUP3 SSTORE PUSH1 0x1 DUP3 ADD SWAP2 POP PUSH1 0x20 DUP6 ADD SWAP5 POP PUSH1 0x20 DUP2 ADD SWAP1 POP PUSH2 0x1550 JUMP JUMPDEST DUP7 DUP4 LT ISZERO PUSH2 0x1592 JUMPI DUP5 DUP10 ADD MLOAD PUSH2 0x158E PUSH1 0x1F DUP10 AND DUP3 PUSH2 0x14A1 JUMP JUMPDEST DUP4 SSTORE POP JUMPDEST PUSH1 0x1 PUSH1 0x2 DUP9 MUL ADD DUP9 SSTORE POP POP POP JUMPDEST POP POP POP POP POP POP JUMP JUMPDEST PUSH0 PUSH2 0x15B1 DUP3 PUSH2 0xC08 JUMP JUMPDEST SWAP2 POP PUSH32 0xFFFFFFFFFFFFFFFFFFFFFFFFFFFFFFFFFFFFFFFFFFFFFFFFFFFFFFFFFFFFFFFF DUP3 SUB PUSH2 0x15E3 JUMPI PUSH2 0x15E2 PUSH2 0x11DA JUMP JUMPDEST JUMPDEST PUSH1 0x1 DUP3 ADD SWAP1 POP SWAP2 SWAP1 POP JUMP JUMPDEST PUSH0 PUSH10 0xFFFFFFFFFFFFFFFFFFFF DUP3 AND SWAP1 POP SWAP2 SWAP1 POP JUMP JUMPDEST PUSH2 0x160C DUP2 PUSH2 0x15EE JUMP JUMPDEST DUP2 EQ PUSH2 0x1616 JUMPI PUSH0 DUP1 REVERT JUMPDEST POP JUMP JUMPDEST PUSH0 DUP2 MLOAD SWAP1 POP PUSH2 0x1627 DUP2 PUSH2 0x1603 JUMP JUMPDEST SWAP3 SWAP2 POP POP JUMP JUMPDEST PUSH2 0x1636 DUP2 PUSH2 0xF3D JUMP JUMPDEST DUP2 EQ PUSH2 0x1640 JUMPI PUSH0 DUP1 REVERT JUMPDEST POP JUMP JUMPDEST PUSH0 DUP2 MLOAD SWAP1 POP PUSH2 0x1651 DUP2 PUSH2 0x162D JUMP JUMPDEST SWAP3 SWAP2 POP POP JUMP JUMPDEST PUSH0 DUP2 MLOAD SWAP1 POP PUSH2 0x1665 DUP2 PUSH2 0xD16 JUMP JUMPDEST SWAP3 SWAP2 POP POP JUMP JUMPDEST PUSH0 DUP1 PUSH0 DUP1 PUSH0 PUSH1 0xA0 DUP7 DUP9 SUB SLT ISZERO PUSH2 0x1684 JUMPI PUSH2 0x1683 PUSH2 0xD0E JUMP JUMPDEST JUMPDEST PUSH0 PUSH2 0x1691 DUP9 DUP3 DUP10 ADD PUSH2 0x1619 JUMP JUMPDEST SWAP6 POP POP PUSH1 0x20 PUSH2 0x16A2 DUP9 DUP3 DUP10 ADD PUSH2 0x1643 JUMP JUMPDEST SWAP5 POP POP PUSH1 0x40 PUSH2 0x16B3 DUP9 DUP3 DUP10 ADD PUSH2 0x1657 JUMP JUMPDEST SWAP4 POP POP PUSH1 0x60 PUSH2 0x16C4 DUP9 DUP3 DUP10 ADD PUSH2 0x1657 JUMP JUMPDEST SWAP3 POP POP PUSH1 0x80 PUSH2 0x16D5 DUP9 DUP3 DUP10 ADD PUSH2 0x1619 JUMP JUMPDEST SWAP2 POP POP SWAP3 SWAP6 POP SWAP3 SWAP6 SWAP1 SWAP4 POP JUMP JUMPDEST PUSH32 0x4F6E6C79206C6F6E672070617274792063616E20636C6F73652074686520636F PUSH0 DUP3 ADD MSTORE PUSH32 0x6E74726163740000000000000000000000000000000000000000000000000000 PUSH1 0x20 DUP3 ADD MSTORE POP JUMP JUMPDEST PUSH0 PUSH2 0x173C PUSH1 0x26 DUP4 PUSH2 0x1026 JUMP JUMPDEST SWAP2 POP PUSH2 0x1747 DUP3 PUSH2 0x16E2 JUMP JUMPDEST PUSH1 0x40 DUP3 ADD SWAP1 POP SWAP2 SWAP1 POP JUMP JUMPDEST PUSH0 PUSH1 0x20 DUP3 ADD SWAP1 POP DUP2 DUP2 SUB PUSH0 DUP4 ADD MSTORE PUSH2 0x1769 DUP2 PUSH2 0x1730 JUMP JUMPDEST SWAP1 POP SWAP2 SWAP1 POP JUMP JUMPDEST PUSH0 PUSH2 0x177A DUP3 PUSH2 0xC08 JUMP JUMPDEST SWAP2 POP PUSH2 0x1785 DUP4 PUSH2 0xC08 JUMP JUMPDEST SWAP3 POP DUP3 DUP3 MUL PUSH2 0x1793 DUP2 PUSH2 0xC08 JUMP JUMPDEST SWAP2 POP DUP3 DUP3 DIV DUP5 EQ DUP4 ISZERO OR PUSH2 0x17AA JUMPI PUSH2 0x17A9 PUSH2 0x11DA JUMP JUMPDEST JUMPDEST POP SWAP3 SWAP2 POP POP JUMP INVALID LOG2 PUSH5 0x6970667358 0x22 SLT KECCAK256 EXTCODEHASH 0x5D LOG3 EXTCODESIZE ISZERO SELFBALANCE 0x26 0xC5 POP PUSH21 0x56956368E05977948421EC088FE8F2303AE3560663 0xE6 PUSH5 0x736F6C6343 STOP ADDMOD OR STOP CALLER "
				},
				"gasEstimates": {
					"creation": {
						"codeDepositCost": "1223800",
						"executionCost": "infinite",
						"totalCost": "infinite"
					},
					"external": {
						"closeContract(uint256)": "infinite",
						"contractCount(address)": "2824",
						"contracts(address,uint256)": "infinite",
						"getBalance()": "335",
						"getEloRanking()": "infinite",
						"openContract(string)": "infinite",
						"owner()": "2582",
						"priceFeed()": "infinite",
						"rankings(string)": "infinite",
						"renounceOwnership()": "infinite",
						"transferOwnership(address)": "infinite",
						"updateFundingRate(uint256,address,uint256)": "infinite"
					}
				},
				"methodIdentifiers": {
					"closeContract(uint256)": "d0ce7360",
					"contractCount(address)": "ac580de7",
					"contracts(address,uint256)": "ed23f8c3",
					"getBalance()": "12065fe0",
					"getEloRanking()": "a97496a5",
					"openContract(string)": "9da751bb",
					"owner()": "8da5cb5b",
					"priceFeed()": "741bef1a",
					"rankings(string)": "fdf3f74d",
					"renounceOwnership()": "715018a6",
					"transferOwnership(address)": "f2fde38b",
					"updateFundingRate(uint256,address,uint256)": "939e3572"
				}
			},
			"storageLayout": {
				"storage": [
					{
						"astId": 54,
						"contract": "PerpContract/Main.sol:PerpetualDEX",
						"label": "_owner",
						"offset": 0,
						"slot": "0",
						"type": "t_address"
					},
					{
						"astId": 327,
						"contract": "PerpContract/Main.sol:PerpetualDEX",
						"label": "quantity",
						"offset": 0,
						"slot": "1",
						"type": "t_mapping(t_uint256,t_uint256)"
					},
					{
						"astId": 334,
						"contract": "PerpContract/Main.sol:PerpetualDEX",
						"label": "contracts",
						"offset": 0,
						"slot": "2",
						"type": "t_mapping(t_address,t_mapping(t_uint256,t_struct(PerpContract)323_storage))"
					},
					{
						"astId": 338,
						"contract": "PerpContract/Main.sol:PerpetualDEX",
						"label": "contractCount",
						"offset": 0,
						"slot": "3",
						"type": "t_mapping(t_address,t_uint256)"
					},
					{
						"astId": 342,
						"contract": "PerpContract/Main.sol:PerpetualDEX",
						"label": "rankings",
						"offset": 0,
						"slot": "4",
						"type": "t_mapping(t_string_memory_ptr,t_uint256)"
					},
					{
						"astId": 345,
						"contract": "PerpContract/Main.sol:PerpetualDEX",
						"label": "totalPool",
						"offset": 0,
						"slot": "5",
						"type": "t_uint256"
					},
					{
						"astId": 348,
						"contract": "PerpContract/Main.sol:PerpetualDEX",
						"label": "priceFeed",
						"offset": 0,
						"slot": "6",
						"type": "t_contract(AggregatorV3Interface)45"
					}
				],
				"types": {
					"t_address": {
						"encoding": "inplace",
						"label": "address",
						"numberOfBytes": "20"
					},
					"t_bool": {
						"encoding": "inplace",
						"label": "bool",
						"numberOfBytes": "1"
					},
					"t_contract(AggregatorV3Interface)45": {
						"encoding": "inplace",
						"label": "contract AggregatorV3Interface",
						"numberOfBytes": "20"
					},
					"t_mapping(t_address,t_mapping(t_uint256,t_struct(PerpContract)323_storage))": {
						"encoding": "mapping",
						"key": "t_address",
						"label": "mapping(address => mapping(uint256 => struct PerpetualDEX.PerpContract))",
						"numberOfBytes": "32",
						"value": "t_mapping(t_uint256,t_struct(PerpContract)323_storage)"
					},
					"t_mapping(t_address,t_uint256)": {
						"encoding": "mapping",
						"key": "t_address",
						"label": "mapping(address => uint256)",
						"numberOfBytes": "32",
						"value": "t_uint256"
					},
					"t_mapping(t_string_memory_ptr,t_uint256)": {
						"encoding": "mapping",
						"key": "t_string_memory_ptr",
						"label": "mapping(string => uint256)",
						"numberOfBytes": "32",
						"value": "t_uint256"
					},
					"t_mapping(t_uint256,t_struct(PerpContract)323_storage)": {
						"encoding": "mapping",
						"key": "t_uint256",
						"label": "mapping(uint256 => struct PerpetualDEX.PerpContract)",
						"numberOfBytes": "32",
						"value": "t_struct(PerpContract)323_storage"
					},
					"t_mapping(t_uint256,t_uint256)": {
						"encoding": "mapping",
						"key": "t_uint256",
						"label": "mapping(uint256 => uint256)",
						"numberOfBytes": "32",
						"value": "t_uint256"
					},
					"t_string_memory_ptr": {
						"encoding": "bytes",
						"label": "string",
						"numberOfBytes": "32"
					},
					"t_string_storage": {
						"encoding": "bytes",
						"label": "string",
						"numberOfBytes": "32"
					},
					"t_struct(PerpContract)323_storage": {
						"encoding": "inplace",
						"label": "struct PerpetualDEX.PerpContract",
						"members": [
							{
								"astId": 310,
								"contract": "PerpContract/Main.sol:PerpetualDEX",
								"label": "longParty",
								"offset": 0,
								"slot": "0",
								"type": "t_address"
							},
							{
								"astId": 312,
								"contract": "PerpContract/Main.sol:PerpetualDEX",
								"label": "isBack",
								"offset": 20,
								"slot": "0",
								"type": "t_bool"
							},
							{
								"astId": 314,
								"contract": "PerpContract/Main.sol:PerpetualDEX",
								"label": "quantity",
								"offset": 0,
								"slot": "1",
								"type": "t_uint256"
							},
							{
								"astId": 316,
								"contract": "PerpContract/Main.sol:PerpetualDEX",
								"label": "fundingRate",
								"offset": 0,
								"slot": "2",
								"type": "t_uint256"
							},
							{
								"astId": 318,
								"contract": "PerpContract/Main.sol:PerpetualDEX",
								"label": "isOpen",
								"offset": 0,
								"slot": "3",
								"type": "t_bool"
							},
							{
								"astId": 320,
								"contract": "PerpContract/Main.sol:PerpetualDEX",
								"label": "team",
								"offset": 0,
								"slot": "4",
								"type": "t_string_storage"
							},
							{
								"astId": 322,
								"contract": "PerpContract/Main.sol:PerpetualDEX",
								"label": "initialElo",
								"offset": 0,
								"slot": "5",
								"type": "t_uint256"
							}
						],
						"numberOfBytes": "192"
					},
					"t_uint256": {
						"encoding": "inplace",
						"label": "uint256",
						"numberOfBytes": "32"
					}
				}
			},
			"userdoc": {
				"kind": "user",
				"methods": {},
				"version": 1
			}
		}
	}
}