{
	"PerpContract/Main.sol": {
		"PerpetualDEX": {
			"abi": [
				{
					"inputs": [
						{
							"internalType": "address",
							"name": "_priceFeedAddress",
							"type": "address"
						}
					],
					"stateMutability": "nonpayable",
					"type": "constructor"
				},
				{
					"inputs": [
						{
							"internalType": "address",
							"name": "owner",
							"type": "address"
						}
					],
					"name": "OwnableInvalidOwner",
					"type": "error"
				},
				{
					"inputs": [
						{
							"internalType": "address",
							"name": "account",
							"type": "address"
						}
					],
					"name": "OwnableUnauthorizedAccount",
					"type": "error"
				},
				{
					"anonymous": false,
					"inputs": [
						{
							"indexed": true,
							"internalType": "address",
							"name": "previousOwner",
							"type": "address"
						},
						{
							"indexed": true,
							"internalType": "address",
							"name": "newOwner",
							"type": "address"
						}
					],
					"name": "OwnershipTransferred",
					"type": "event"
				},
				{
					"inputs": [
						{
							"internalType": "uint256",
							"name": "_contractId",
							"type": "uint256"
						}
					],
					"name": "closeContract",
					"outputs": [],
					"stateMutability": "nonpayable",
					"type": "function"
				},
				{
					"inputs": [
						{
							"internalType": "address",
							"name": "",
							"type": "address"
						}
					],
					"name": "contractCount",
					"outputs": [
						{
							"internalType": "uint256",
							"name": "",
							"type": "uint256"
						}
					],
					"stateMutability": "view",
					"type": "function"
				},
				{
					"inputs": [
						{
							"internalType": "address",
							"name": "",
							"type": "address"
						},
						{
							"internalType": "uint256",
							"name": "",
							"type": "uint256"
						}
					],
					"name": "contracts",
					"outputs": [
						{
							"internalType": "address",
							"name": "longParty",
							"type": "address"
						},
						{
							"internalType": "bool",
							"name": "isBack",
							"type": "bool"
						},
						{
							"internalType": "uint256",
							"name": "quantity",
							"type": "uint256"
						},
						{
							"internalType": "uint256",
							"name": "fundingRate",
							"type": "uint256"
						},
						{
							"internalType": "bool",
							"name": "isOpen",
							"type": "bool"
						},
						{
							"internalType": "string",
							"name": "team",
							"type": "string"
						},
						{
							"internalType": "uint256",
							"name": "initialElo",
							"type": "uint256"
						}
					],
					"stateMutability": "view",
					"type": "function"
				},
				{
					"inputs": [],
					"name": "eloFeed",
					"outputs": [
						{
							"internalType": "contract IFunctionConsumer",
							"name": "",
							"type": "address"
						}
					],
					"stateMutability": "view",
					"type": "function"
				},
				{
					"inputs": [],
					"name": "getBalance",
					"outputs": [
						{
							"internalType": "uint256",
							"name": "",
							"type": "uint256"
						}
					],
					"stateMutability": "view",
					"type": "function"
				},
				{
					"inputs": [
						{
							"internalType": "string",
							"name": "teamId",
							"type": "string"
						}
					],
					"name": "getEloRanking",
					"outputs": [
						{
							"components": [
								{
									"internalType": "bytes",
									"name": "elo",
									"type": "bytes"
								},
								{
									"internalType": "uint256",
									"name": "timestamp",
									"type": "uint256"
								}
							],
							"internalType": "struct IFunctionConsumer.ELOInfo",
							"name": "",
							"type": "tuple"
						}
					],
					"stateMutability": "view",
					"type": "function"
				},
				{
					"inputs": [
						{
							"internalType": "string",
							"name": "_team",
							"type": "string"
						}
					],
					"name": "openContract",
					"outputs": [],
					"stateMutability": "payable",
					"type": "function"
				},
				{
					"inputs": [],
					"name": "owner",
					"outputs": [
						{
							"internalType": "address",
							"name": "",
							"type": "address"
						}
					],
					"stateMutability": "view",
					"type": "function"
				},
				{
					"inputs": [
						{
							"internalType": "string",
							"name": "",
							"type": "string"
						}
					],
					"name": "quantitiesLive",
					"outputs": [
						{
							"internalType": "uint256",
							"name": "",
							"type": "uint256"
						}
					],
					"stateMutability": "view",
					"type": "function"
				},
				{
					"inputs": [
						{
							"internalType": "string",
							"name": "",
							"type": "string"
						}
					],
					"name": "rankings",
					"outputs": [
						{
							"internalType": "uint256",
							"name": "",
							"type": "uint256"
						}
					],
					"stateMutability": "view",
					"type": "function"
				},
				{
					"inputs": [],
					"name": "renounceOwnership",
					"outputs": [],
					"stateMutability": "nonpayable",
					"type": "function"
				},
				{
					"inputs": [
						{
							"internalType": "address",
							"name": "newOwner",
							"type": "address"
						}
					],
					"name": "transferOwnership",
					"outputs": [],
					"stateMutability": "nonpayable",
					"type": "function"
				},
				{
					"inputs": [
						{
							"internalType": "uint256",
							"name": "_newRate",
							"type": "uint256"
						},
						{
							"internalType": "address",
							"name": "_shortParty",
							"type": "address"
						},
						{
							"internalType": "uint256",
							"name": "_contractId",
							"type": "uint256"
						}
					],
					"name": "updateFundingRate",
					"outputs": [],
					"stateMutability": "nonpayable",
					"type": "function"
				}
			],
			"devdoc": {
				"errors": {
					"OwnableInvalidOwner(address)": [
						{
							"details": "The owner is not a valid owner account. (eg. `address(0)`)"
						}
					],
					"OwnableUnauthorizedAccount(address)": [
						{
							"details": "The caller account is not authorized to perform an operation."
						}
					]
				},
				"kind": "dev",
				"methods": {
					"owner()": {
						"details": "Returns the address of the current owner."
					},
					"renounceOwnership()": {
						"details": "Leaves the contract without owner. It will not be possible to call `onlyOwner` functions. Can only be called by the current owner. NOTE: Renouncing ownership will leave the contract without an owner, thereby disabling any functionality that is only available to the owner."
					},
					"transferOwnership(address)": {
						"details": "Transfers ownership of the contract to a new account (`newOwner`). Can only be called by the current owner."
					}
				},
				"version": 1
			},
			"evm": {
				"assembly": "    /* \"PerpContract/Main.sol\":289:3822  contract PerpetualDEX is Ownable {... */\n  mstore(0x40, 0x80)\n    /* \"PerpContract/Main.sol\":1095:1101  100000 */\n  0x0186a0\n    /* \"PerpContract/Main.sol\":1075:1101  uint256 totalPool = 100000 */\n  0x07\n  sstore\n    /* \"PerpContract/Main.sol\":1161:1436  constructor(address _priceFeedAddress) Ownable(msg.sender) {... */\n  callvalue\n  dup1\n  iszero\n  tag_1\n  jumpi\n  0x00\n  dup1\n  revert\ntag_1:\n  pop\n  mload(0x40)\n  sub(codesize, bytecodeSize)\n  dup1\n  bytecodeSize\n  dup4\n  codecopy\n  dup2\n  dup2\n  add\n  0x40\n  mstore\n  dup2\n  add\n  swap1\n  tag_2\n  swap2\n  swap1\n  tag_3\n  jump\t// in\ntag_2:\n    /* \"PerpContract/Main.sol\":1208:1218  msg.sender */\n  caller\n    /* \"@openzeppelin/contracts/access/Ownable.sol\":1297:1298  0 */\n  0x00\n    /* \"@openzeppelin/contracts/access/Ownable.sol\":1273:1299  initialOwner == address(0) */\n  0xffffffffffffffffffffffffffffffffffffffff\n  and\n    /* \"@openzeppelin/contracts/access/Ownable.sol\":1273:1285  initialOwner */\n  dup2\n    /* \"@openzeppelin/contracts/access/Ownable.sol\":1273:1299  initialOwner == address(0) */\n  0xffffffffffffffffffffffffffffffffffffffff\n  and\n  sub\n    /* \"@openzeppelin/contracts/access/Ownable.sol\":1269:1364  if (initialOwner == address(0)) {... */\n  tag_7\n  jumpi\n    /* \"@openzeppelin/contracts/access/Ownable.sol\":1350:1351  0 */\n  0x00\n    /* \"@openzeppelin/contracts/access/Ownable.sol\":1322:1353  OwnableInvalidOwner(address(0)) */\n  mload(0x40)\n  0x1e4fbdf700000000000000000000000000000000000000000000000000000000\n  dup2\n  mstore\n  0x04\n  add\n  tag_8\n  swap2\n  swap1\n  tag_9\n  jump\t// in\ntag_8:\n  mload(0x40)\n  dup1\n  swap2\n  sub\n  swap1\n  revert\n    /* \"@openzeppelin/contracts/access/Ownable.sol\":1269:1364  if (initialOwner == address(0)) {... */\ntag_7:\n    /* \"@openzeppelin/contracts/access/Ownable.sol\":1373:1405  _transferOwnership(initialOwner) */\n  tag_10\n    /* \"@openzeppelin/contracts/access/Ownable.sol\":1392:1404  initialOwner */\n  dup2\n    /* \"@openzeppelin/contracts/access/Ownable.sol\":1373:1391  _transferOwnership */\n  shl(0x20, tag_11)\n    /* \"@openzeppelin/contracts/access/Ownable.sol\":1373:1405  _transferOwnership(initialOwner) */\n  0x20\n  shr\n  jump\t// in\ntag_10:\n    /* \"@openzeppelin/contracts/access/Ownable.sol\":1225:1412  constructor(address initialOwner) {... */\n  pop\n    /* \"PerpContract/Main.sol\":1259:1276  _priceFeedAddress */\n  dup1\n    /* \"PerpContract/Main.sol\":1231:1238  eloFeed */\n  0x01\n  0x00\n    /* \"PerpContract/Main.sol\":1231:1277  eloFeed = IFunctionConsumer(_priceFeedAddress) */\n  0x0100\n  exp\n  dup2\n  sload\n  dup2\n  0xffffffffffffffffffffffffffffffffffffffff\n  mul\n  not\n  and\n  swap1\n  dup4\n  0xffffffffffffffffffffffffffffffffffffffff\n  and\n  mul\n  or\n  swap1\n  sstore\n  pop\n    /* \"PerpContract/Main.sol\":1347:1351  1900 */\n  0x076c\n    /* \"PerpContract/Main.sol\":1325:1333  rankings */\n  0x05\n    /* \"PerpContract/Main.sol\":1325:1344  rankings[\"Arsenal\"] */\n  mload(0x40)\n  tag_13\n  swap1\n  tag_14\n  jump\t// in\ntag_13:\n  swap1\n  dup2\n  mstore\n  0x20\n  add\n  mload(0x40)\n  dup1\n  swap2\n  sub\n  swap1\n  keccak256\n    /* \"PerpContract/Main.sol\":1325:1351  rankings[\"Arsenal\"] = 1900 */\n  dup2\n  swap1\n  sstore\n  pop\n    /* \"PerpContract/Main.sol\":1384:1388  2000 */\n  0x07d0\n    /* \"PerpContract/Main.sol\":1362:1370  rankings */\n  0x05\n    /* \"PerpContract/Main.sol\":1362:1381  rankings[\"Chelsea\"] */\n  mload(0x40)\n  tag_15\n  swap1\n  tag_16\n  jump\t// in\ntag_15:\n  swap1\n  dup2\n  mstore\n  0x20\n  add\n  mload(0x40)\n  dup1\n  swap2\n  sub\n  swap1\n  keccak256\n    /* \"PerpContract/Main.sol\":1362:1388  rankings[\"Chelsea\"] = 2000 */\n  dup2\n  swap1\n  sstore\n  pop\n    /* \"PerpContract/Main.sol\":1422:1426  1800 */\n  0x0708\n    /* \"PerpContract/Main.sol\":1399:1407  rankings */\n  0x05\n    /* \"PerpContract/Main.sol\":1399:1419  rankings[\"Man City\"] */\n  mload(0x40)\n  tag_17\n  swap1\n  tag_18\n  jump\t// in\ntag_17:\n  swap1\n  dup2\n  mstore\n  0x20\n  add\n  mload(0x40)\n  dup1\n  swap2\n  sub\n  swap1\n  keccak256\n    /* \"PerpContract/Main.sol\":1399:1426  rankings[\"Man City\"] = 1800 */\n  dup2\n  swap1\n  sstore\n  pop\n    /* \"PerpContract/Main.sol\":1161:1436  constructor(address _priceFeedAddress) Ownable(msg.sender) {... */\n  pop\n    /* \"PerpContract/Main.sol\":289:3822  contract PerpetualDEX is Ownable {... */\n  jump(tag_19)\n    /* \"@openzeppelin/contracts/access/Ownable.sol\":2912:3099  function _transferOwnership(address newOwner) internal virtual {... */\ntag_11:\n    /* \"@openzeppelin/contracts/access/Ownable.sol\":2985:3001  address oldOwner */\n  0x00\n    /* \"@openzeppelin/contracts/access/Ownable.sol\":3004:3010  _owner */\n  dup1\n  0x00\n  swap1\n  sload\n  swap1\n  0x0100\n  exp\n  swap1\n  div\n  0xffffffffffffffffffffffffffffffffffffffff\n  and\n    /* \"@openzeppelin/contracts/access/Ownable.sol\":2985:3010  address oldOwner = _owner */\n  swap1\n  pop\n    /* \"@openzeppelin/contracts/access/Ownable.sol\":3029:3037  newOwner */\n  dup2\n    /* \"@openzeppelin/contracts/access/Ownable.sol\":3020:3026  _owner */\n  0x00\n  dup1\n    /* \"@openzeppelin/contracts/access/Ownable.sol\":3020:3037  _owner = newOwner */\n  0x0100\n  exp\n  dup2\n  sload\n  dup2\n  0xffffffffffffffffffffffffffffffffffffffff\n  mul\n  not\n  and\n  swap1\n  dup4\n  0xffffffffffffffffffffffffffffffffffffffff\n  and\n  mul\n  or\n  swap1\n  sstore\n  pop\n    /* \"@openzeppelin/contracts/access/Ownable.sol\":3083:3091  newOwner */\n  dup2\n    /* \"@openzeppelin/contracts/access/Ownable.sol\":3052:3092  OwnershipTransferred(oldOwner, newOwner) */\n  0xffffffffffffffffffffffffffffffffffffffff\n  and\n    /* \"@openzeppelin/contracts/access/Ownable.sol\":3073:3081  oldOwner */\n  dup2\n    /* \"@openzeppelin/contracts/access/Ownable.sol\":3052:3092  OwnershipTransferred(oldOwner, newOwner) */\n  0xffffffffffffffffffffffffffffffffffffffff\n  and\n  0x8be0079c531659141344cd1fd0a4f28419497f9722a3daafe3b4186f6b6457e0\n  mload(0x40)\n  mload(0x40)\n  dup1\n  swap2\n  sub\n  swap1\n  log3\n    /* \"@openzeppelin/contracts/access/Ownable.sol\":2975:3099  {... */\n  pop\n    /* \"@openzeppelin/contracts/access/Ownable.sol\":2912:3099  function _transferOwnership(address newOwner) internal virtual {... */\n  pop\n  jump\t// out\n    /* \"#utility.yul\":88:205   */\ntag_22:\n    /* \"#utility.yul\":197:198   */\n  0x00\n    /* \"#utility.yul\":194:195   */\n  dup1\n    /* \"#utility.yul\":187:199   */\n  revert\n    /* \"#utility.yul\":334:460   */\ntag_24:\n    /* \"#utility.yul\":371:378   */\n  0x00\n    /* \"#utility.yul\":411:453   */\n  0xffffffffffffffffffffffffffffffffffffffff\n    /* \"#utility.yul\":404:409   */\n  dup3\n    /* \"#utility.yul\":400:454   */\n  and\n    /* \"#utility.yul\":389:454   */\n  swap1\n  pop\n    /* \"#utility.yul\":334:460   */\n  swap2\n  swap1\n  pop\n  jump\t// out\n    /* \"#utility.yul\":466:562   */\ntag_25:\n    /* \"#utility.yul\":503:510   */\n  0x00\n    /* \"#utility.yul\":532:556   */\n  tag_42\n    /* \"#utility.yul\":550:555   */\n  dup3\n    /* \"#utility.yul\":532:556   */\n  tag_24\n  jump\t// in\ntag_42:\n    /* \"#utility.yul\":521:556   */\n  swap1\n  pop\n    /* \"#utility.yul\":466:562   */\n  swap2\n  swap1\n  pop\n  jump\t// out\n    /* \"#utility.yul\":568:690   */\ntag_26:\n    /* \"#utility.yul\":641:665   */\n  tag_44\n    /* \"#utility.yul\":659:664   */\n  dup2\n    /* \"#utility.yul\":641:665   */\n  tag_25\n  jump\t// in\ntag_44:\n    /* \"#utility.yul\":634:639   */\n  dup2\n    /* \"#utility.yul\":631:666   */\n  eq\n    /* \"#utility.yul\":621:684   */\n  tag_45\n  jumpi\n    /* \"#utility.yul\":680:681   */\n  0x00\n    /* \"#utility.yul\":677:678   */\n  dup1\n    /* \"#utility.yul\":670:682   */\n  revert\n    /* \"#utility.yul\":621:684   */\ntag_45:\n    /* \"#utility.yul\":568:690   */\n  pop\n  jump\t// out\n    /* \"#utility.yul\":696:839   */\ntag_27:\n    /* \"#utility.yul\":753:758   */\n  0x00\n    /* \"#utility.yul\":784:790   */\n  dup2\n    /* \"#utility.yul\":778:791   */\n  mload\n    /* \"#utility.yul\":769:791   */\n  swap1\n  pop\n    /* \"#utility.yul\":800:833   */\n  tag_47\n    /* \"#utility.yul\":827:832   */\n  dup2\n    /* \"#utility.yul\":800:833   */\n  tag_26\n  jump\t// in\ntag_47:\n    /* \"#utility.yul\":696:839   */\n  swap3\n  swap2\n  pop\n  pop\n  jump\t// out\n    /* \"#utility.yul\":845:1196   */\ntag_3:\n    /* \"#utility.yul\":915:921   */\n  0x00\n    /* \"#utility.yul\":964:966   */\n  0x20\n    /* \"#utility.yul\":952:961   */\n  dup3\n    /* \"#utility.yul\":943:950   */\n  dup5\n    /* \"#utility.yul\":939:962   */\n  sub\n    /* \"#utility.yul\":935:967   */\n  slt\n    /* \"#utility.yul\":932:1051   */\n  iszero\n  tag_49\n  jumpi\n    /* \"#utility.yul\":970:1049   */\n  tag_50\n  tag_22\n  jump\t// in\ntag_50:\n    /* \"#utility.yul\":932:1051   */\ntag_49:\n    /* \"#utility.yul\":1090:1091   */\n  0x00\n    /* \"#utility.yul\":1115:1179   */\n  tag_51\n    /* \"#utility.yul\":1171:1178   */\n  dup5\n    /* \"#utility.yul\":1162:1168   */\n  dup3\n    /* \"#utility.yul\":1151:1160   */\n  dup6\n    /* \"#utility.yul\":1147:1169   */\n  add\n    /* \"#utility.yul\":1115:1179   */\n  tag_27\n  jump\t// in\ntag_51:\n    /* \"#utility.yul\":1105:1179   */\n  swap2\n  pop\n    /* \"#utility.yul\":1061:1189   */\n  pop\n    /* \"#utility.yul\":845:1196   */\n  swap3\n  swap2\n  pop\n  pop\n  jump\t// out\n    /* \"#utility.yul\":1202:1320   */\ntag_28:\n    /* \"#utility.yul\":1289:1313   */\n  tag_53\n    /* \"#utility.yul\":1307:1312   */\n  dup2\n    /* \"#utility.yul\":1289:1313   */\n  tag_25\n  jump\t// in\ntag_53:\n    /* \"#utility.yul\":1284:1287   */\n  dup3\n    /* \"#utility.yul\":1277:1314   */\n  mstore\n    /* \"#utility.yul\":1202:1320   */\n  pop\n  pop\n  jump\t// out\n    /* \"#utility.yul\":1326:1548   */\ntag_9:\n    /* \"#utility.yul\":1419:1423   */\n  0x00\n    /* \"#utility.yul\":1457:1459   */\n  0x20\n    /* \"#utility.yul\":1446:1455   */\n  dup3\n    /* \"#utility.yul\":1442:1460   */\n  add\n    /* \"#utility.yul\":1434:1460   */\n  swap1\n  pop\n    /* \"#utility.yul\":1470:1541   */\n  tag_55\n    /* \"#utility.yul\":1538:1539   */\n  0x00\n    /* \"#utility.yul\":1527:1536   */\n  dup4\n    /* \"#utility.yul\":1523:1540   */\n  add\n    /* \"#utility.yul\":1514:1520   */\n  dup5\n    /* \"#utility.yul\":1470:1541   */\n  tag_28\n  jump\t// in\ntag_55:\n    /* \"#utility.yul\":1326:1548   */\n  swap3\n  swap2\n  pop\n  pop\n  jump\t// out\n    /* \"#utility.yul\":1554:1702   */\ntag_29:\n    /* \"#utility.yul\":1656:1667   */\n  0x00\n    /* \"#utility.yul\":1693:1696   */\n  dup2\n    /* \"#utility.yul\":1678:1696   */\n  swap1\n  pop\n    /* \"#utility.yul\":1554:1702   */\n  swap3\n  swap2\n  pop\n  pop\n  jump\t// out\n    /* \"#utility.yul\":1708:1865   */\ntag_30:\n    /* \"#utility.yul\":1848:1857   */\n  0x417273656e616c00000000000000000000000000000000000000000000000000\n    /* \"#utility.yul\":1844:1845   */\n  0x00\n    /* \"#utility.yul\":1836:1842   */\n  dup3\n    /* \"#utility.yul\":1832:1846   */\n  add\n    /* \"#utility.yul\":1825:1858   */\n  mstore\n    /* \"#utility.yul\":1708:1865   */\n  pop\n  jump\t// out\n    /* \"#utility.yul\":1871:2271   */\ntag_31:\n    /* \"#utility.yul\":2031:2034   */\n  0x00\n    /* \"#utility.yul\":2052:2136   */\n  tag_59\n    /* \"#utility.yul\":2134:2135   */\n  0x07\n    /* \"#utility.yul\":2129:2132   */\n  dup4\n    /* \"#utility.yul\":2052:2136   */\n  tag_29\n  jump\t// in\ntag_59:\n    /* \"#utility.yul\":2045:2136   */\n  swap2\n  pop\n    /* \"#utility.yul\":2145:2238   */\n  tag_60\n    /* \"#utility.yul\":2234:2237   */\n  dup3\n    /* \"#utility.yul\":2145:2238   */\n  tag_30\n  jump\t// in\ntag_60:\n    /* \"#utility.yul\":2263:2264   */\n  0x07\n    /* \"#utility.yul\":2258:2261   */\n  dup3\n    /* \"#utility.yul\":2254:2265   */\n  add\n    /* \"#utility.yul\":2247:2265   */\n  swap1\n  pop\n    /* \"#utility.yul\":1871:2271   */\n  swap2\n  swap1\n  pop\n  jump\t// out\n    /* \"#utility.yul\":2277:2658   */\ntag_14:\n    /* \"#utility.yul\":2462:2465   */\n  0x00\n    /* \"#utility.yul\":2484:2632   */\n  tag_62\n    /* \"#utility.yul\":2628:2631   */\n  dup3\n    /* \"#utility.yul\":2484:2632   */\n  tag_31\n  jump\t// in\ntag_62:\n    /* \"#utility.yul\":2477:2632   */\n  swap2\n  pop\n    /* \"#utility.yul\":2649:2652   */\n  dup2\n    /* \"#utility.yul\":2642:2652   */\n  swap1\n  pop\n    /* \"#utility.yul\":2277:2658   */\n  swap2\n  swap1\n  pop\n  jump\t// out\n    /* \"#utility.yul\":2664:2821   */\ntag_32:\n    /* \"#utility.yul\":2804:2813   */\n  0x4368656c73656100000000000000000000000000000000000000000000000000\n    /* \"#utility.yul\":2800:2801   */\n  0x00\n    /* \"#utility.yul\":2792:2798   */\n  dup3\n    /* \"#utility.yul\":2788:2802   */\n  add\n    /* \"#utility.yul\":2781:2814   */\n  mstore\n    /* \"#utility.yul\":2664:2821   */\n  pop\n  jump\t// out\n    /* \"#utility.yul\":2827:3227   */\ntag_33:\n    /* \"#utility.yul\":2987:2990   */\n  0x00\n    /* \"#utility.yul\":3008:3092   */\n  tag_65\n    /* \"#utility.yul\":3090:3091   */\n  0x07\n    /* \"#utility.yul\":3085:3088   */\n  dup4\n    /* \"#utility.yul\":3008:3092   */\n  tag_29\n  jump\t// in\ntag_65:\n    /* \"#utility.yul\":3001:3092   */\n  swap2\n  pop\n    /* \"#utility.yul\":3101:3194   */\n  tag_66\n    /* \"#utility.yul\":3190:3193   */\n  dup3\n    /* \"#utility.yul\":3101:3194   */\n  tag_32\n  jump\t// in\ntag_66:\n    /* \"#utility.yul\":3219:3220   */\n  0x07\n    /* \"#utility.yul\":3214:3217   */\n  dup3\n    /* \"#utility.yul\":3210:3221   */\n  add\n    /* \"#utility.yul\":3203:3221   */\n  swap1\n  pop\n    /* \"#utility.yul\":2827:3227   */\n  swap2\n  swap1\n  pop\n  jump\t// out\n    /* \"#utility.yul\":3233:3614   */\ntag_16:\n    /* \"#utility.yul\":3418:3421   */\n  0x00\n    /* \"#utility.yul\":3440:3588   */\n  tag_68\n    /* \"#utility.yul\":3584:3587   */\n  dup3\n    /* \"#utility.yul\":3440:3588   */\n  tag_33\n  jump\t// in\ntag_68:\n    /* \"#utility.yul\":3433:3588   */\n  swap2\n  pop\n    /* \"#utility.yul\":3605:3608   */\n  dup2\n    /* \"#utility.yul\":3598:3608   */\n  swap1\n  pop\n    /* \"#utility.yul\":3233:3614   */\n  swap2\n  swap1\n  pop\n  jump\t// out\n    /* \"#utility.yul\":3620:3778   */\ntag_34:\n    /* \"#utility.yul\":3760:3770   */\n  0x4d616e2043697479000000000000000000000000000000000000000000000000\n    /* \"#utility.yul\":3756:3757   */\n  0x00\n    /* \"#utility.yul\":3748:3754   */\n  dup3\n    /* \"#utility.yul\":3744:3758   */\n  add\n    /* \"#utility.yul\":3737:3771   */\n  mstore\n    /* \"#utility.yul\":3620:3778   */\n  pop\n  jump\t// out\n    /* \"#utility.yul\":3784:4184   */\ntag_35:\n    /* \"#utility.yul\":3944:3947   */\n  0x00\n    /* \"#utility.yul\":3965:4049   */\n  tag_71\n    /* \"#utility.yul\":4047:4048   */\n  0x08\n    /* \"#utility.yul\":4042:4045   */\n  dup4\n    /* \"#utility.yul\":3965:4049   */\n  tag_29\n  jump\t// in\ntag_71:\n    /* \"#utility.yul\":3958:4049   */\n  swap2\n  pop\n    /* \"#utility.yul\":4058:4151   */\n  tag_72\n    /* \"#utility.yul\":4147:4150   */\n  dup3\n    /* \"#utility.yul\":4058:4151   */\n  tag_34\n  jump\t// in\ntag_72:\n    /* \"#utility.yul\":4176:4177   */\n  0x08\n    /* \"#utility.yul\":4171:4174   */\n  dup3\n    /* \"#utility.yul\":4167:4178   */\n  add\n    /* \"#utility.yul\":4160:4178   */\n  swap1\n  pop\n    /* \"#utility.yul\":3784:4184   */\n  swap2\n  swap1\n  pop\n  jump\t// out\n    /* \"#utility.yul\":4190:4571   */\ntag_18:\n    /* \"#utility.yul\":4375:4378   */\n  0x00\n    /* \"#utility.yul\":4397:4545   */\n  tag_74\n    /* \"#utility.yul\":4541:4544   */\n  dup3\n    /* \"#utility.yul\":4397:4545   */\n  tag_35\n  jump\t// in\ntag_74:\n    /* \"#utility.yul\":4390:4545   */\n  swap2\n  pop\n    /* \"#utility.yul\":4562:4565   */\n  dup2\n    /* \"#utility.yul\":4555:4565   */\n  swap1\n  pop\n    /* \"#utility.yul\":4190:4571   */\n  swap2\n  swap1\n  pop\n  jump\t// out\n    /* \"PerpContract/Main.sol\":289:3822  contract PerpetualDEX is Ownable {... */\ntag_19:\n  dataSize(sub_0)\n  dup1\n  dataOffset(sub_0)\n  0x00\n  codecopy\n  0x00\n  return\nstop\n\nsub_0: assembly {\n        /* \"PerpContract/Main.sol\":289:3822  contract PerpetualDEX is Ownable {... */\n      mstore(0x40, 0x80)\n      jumpi(tag_1, lt(calldatasize, 0x04))\n      shr(0xe0, calldataload(0x00))\n      dup1\n      0x9da751bb\n      gt\n      tag_15\n      jumpi\n      dup1\n      0xdb027e05\n      gt\n      tag_16\n      jumpi\n      dup1\n      0xdb027e05\n      eq\n      tag_11\n      jumpi\n      dup1\n      0xed23f8c3\n      eq\n      tag_12\n      jumpi\n      dup1\n      0xf2fde38b\n      eq\n      tag_13\n      jumpi\n      dup1\n      0xfdf3f74d\n      eq\n      tag_14\n      jumpi\n      jump(tag_1)\n    tag_16:\n      dup1\n      0x9da751bb\n      eq\n      tag_8\n      jumpi\n      dup1\n      0xac580de7\n      eq\n      tag_9\n      jumpi\n      dup1\n      0xd0ce7360\n      eq\n      tag_10\n      jumpi\n      jump(tag_1)\n    tag_15:\n      dup1\n      0x0232424d\n      eq\n      tag_2\n      jumpi\n      dup1\n      0x08ab2d4b\n      eq\n      tag_3\n      jumpi\n      dup1\n      0x12065fe0\n      eq\n      tag_4\n      jumpi\n      dup1\n      0x715018a6\n      eq\n      tag_5\n      jumpi\n      dup1\n      0x8da5cb5b\n      eq\n      tag_6\n      jumpi\n      dup1\n      0x939e3572\n      eq\n      tag_7\n      jumpi\n    tag_1:\n      0x00\n      dup1\n      revert\n        /* \"PerpContract/Main.sol\":329:361  IFunctionConsumer public eloFeed */\n    tag_2:\n      callvalue\n      dup1\n      iszero\n      tag_17\n      jumpi\n      0x00\n      dup1\n      revert\n    tag_17:\n      pop\n      tag_18\n      tag_19\n      jump\t// in\n    tag_18:\n      mload(0x40)\n      tag_20\n      swap2\n      swap1\n      tag_21\n      jump\t// in\n    tag_20:\n      mload(0x40)\n      dup1\n      swap2\n      sub\n      swap1\n      return\n        /* \"PerpContract/Main.sol\":3656:3819  function getEloRanking(string memory teamId) external view returns (IFunctionConsumer.ELOInfo memory) {... */\n    tag_3:\n      callvalue\n      dup1\n      iszero\n      tag_22\n      jumpi\n      0x00\n      dup1\n      revert\n    tag_22:\n      pop\n      tag_23\n      0x04\n      dup1\n      calldatasize\n      sub\n      dup2\n      add\n      swap1\n      tag_24\n      swap2\n      swap1\n      tag_25\n      jump\t// in\n    tag_24:\n      tag_26\n      jump\t// in\n    tag_23:\n      mload(0x40)\n      tag_27\n      swap2\n      swap1\n      tag_28\n      jump\t// in\n    tag_27:\n      mload(0x40)\n      dup1\n      swap2\n      sub\n      swap1\n      return\n        /* \"PerpContract/Main.sol\":3088:3184  function getBalance() public view returns (uint) {... */\n    tag_4:\n      callvalue\n      dup1\n      iszero\n      tag_29\n      jumpi\n      0x00\n      dup1\n      revert\n    tag_29:\n      pop\n      tag_30\n      tag_31\n      jump\t// in\n    tag_30:\n      mload(0x40)\n      tag_32\n      swap2\n      swap1\n      tag_33\n      jump\t// in\n    tag_32:\n      mload(0x40)\n      dup1\n      swap2\n      sub\n      swap1\n      return\n        /* \"@openzeppelin/contracts/access/Ownable.sol\":2293:2394  function renounceOwnership() public virtual onlyOwner {... */\n    tag_5:\n      callvalue\n      dup1\n      iszero\n      tag_34\n      jumpi\n      0x00\n      dup1\n      revert\n    tag_34:\n      pop\n      tag_35\n      tag_36\n      jump\t// in\n    tag_35:\n      stop\n        /* \"@openzeppelin/contracts/access/Ownable.sol\":1638:1723  function owner() public view virtual returns (address) {... */\n    tag_6:\n      callvalue\n      dup1\n      iszero\n      tag_37\n      jumpi\n      0x00\n      dup1\n      revert\n    tag_37:\n      pop\n      tag_38\n      tag_39\n      jump\t// in\n    tag_38:\n      mload(0x40)\n      tag_40\n      swap2\n      swap1\n      tag_41\n      jump\t// in\n    tag_40:\n      mload(0x40)\n      dup1\n      swap2\n      sub\n      swap1\n      return\n        /* \"PerpContract/Main.sol\":3262:3583  function updateFundingRate(uint256 _newRate, address _shortParty, uint256 _contractId) external onlyOwner {... */\n    tag_7:\n      callvalue\n      dup1\n      iszero\n      tag_42\n      jumpi\n      0x00\n      dup1\n      revert\n    tag_42:\n      pop\n      tag_43\n      0x04\n      dup1\n      calldatasize\n      sub\n      dup2\n      add\n      swap1\n      tag_44\n      swap2\n      swap1\n      tag_45\n      jump\t// in\n    tag_44:\n      tag_46\n      jump\t// in\n    tag_43:\n      stop\n        /* \"PerpContract/Main.sol\":1492:2237  function openContract(string memory _team) public payable {... */\n    tag_8:\n      tag_47\n      0x04\n      dup1\n      calldatasize\n      sub\n      dup2\n      add\n      swap1\n      tag_48\n      swap2\n      swap1\n      tag_25\n      jump\t// in\n    tag_48:\n      tag_49\n      jump\t// in\n    tag_47:\n      stop\n        /* \"PerpContract/Main.sol\":880:928  mapping(address => uint256) public contractCount */\n    tag_9:\n      callvalue\n      dup1\n      iszero\n      tag_50\n      jumpi\n      0x00\n      dup1\n      revert\n    tag_50:\n      pop\n      tag_51\n      0x04\n      dup1\n      calldatasize\n      sub\n      dup2\n      add\n      swap1\n      tag_52\n      swap2\n      swap1\n      tag_53\n      jump\t// in\n    tag_52:\n      tag_54\n      jump\t// in\n    tag_51:\n      mload(0x40)\n      tag_55\n      swap2\n      swap1\n      tag_33\n      jump\t// in\n    tag_55:\n      mload(0x40)\n      dup1\n      swap2\n      sub\n      swap1\n      return\n        /* \"PerpContract/Main.sol\":2294:3078  function closeContract(uint256 _contractId) external {... */\n    tag_10:\n      callvalue\n      dup1\n      iszero\n      tag_56\n      jumpi\n      0x00\n      dup1\n      revert\n    tag_56:\n      pop\n      tag_57\n      0x04\n      dup1\n      calldatasize\n      sub\n      dup2\n      add\n      swap1\n      tag_58\n      swap2\n      swap1\n      tag_59\n      jump\t// in\n    tag_58:\n      tag_60\n      jump\t// in\n    tag_57:\n      stop\n        /* \"PerpContract/Main.sol\":1018:1066  mapping(string => uint256) public quantitiesLive */\n    tag_11:\n      callvalue\n      dup1\n      iszero\n      tag_61\n      jumpi\n      0x00\n      dup1\n      revert\n    tag_61:\n      pop\n      tag_62\n      0x04\n      dup1\n      calldatasize\n      sub\n      dup2\n      add\n      swap1\n      tag_63\n      swap2\n      swap1\n      tag_25\n      jump\t// in\n    tag_63:\n      tag_64\n      jump\t// in\n    tag_62:\n      mload(0x40)\n      tag_65\n      swap2\n      swap1\n      tag_33\n      jump\t// in\n    tag_65:\n      mload(0x40)\n      dup1\n      swap2\n      sub\n      swap1\n      return\n        /* \"PerpContract/Main.sol\":769:838  mapping(address => mapping(uint256 => PerpContract)) public contracts */\n    tag_12:\n      callvalue\n      dup1\n      iszero\n      tag_66\n      jumpi\n      0x00\n      dup1\n      revert\n    tag_66:\n      pop\n      tag_67\n      0x04\n      dup1\n      calldatasize\n      sub\n      dup2\n      add\n      swap1\n      tag_68\n      swap2\n      swap1\n      tag_69\n      jump\t// in\n    tag_68:\n      tag_70\n      jump\t// in\n    tag_67:\n      mload(0x40)\n      tag_71\n      swap8\n      swap7\n      swap6\n      swap5\n      swap4\n      swap3\n      swap2\n      swap1\n      tag_72\n      jump\t// in\n    tag_71:\n      mload(0x40)\n      dup1\n      swap2\n      sub\n      swap1\n      return\n        /* \"@openzeppelin/contracts/access/Ownable.sol\":2543:2758  function transferOwnership(address newOwner) public virtual onlyOwner {... */\n    tag_13:\n      callvalue\n      dup1\n      iszero\n      tag_73\n      jumpi\n      0x00\n      dup1\n      revert\n    tag_73:\n      pop\n      tag_74\n      0x04\n      dup1\n      calldatasize\n      sub\n      dup2\n      add\n      swap1\n      tag_75\n      swap2\n      swap1\n      tag_53\n      jump\t// in\n    tag_75:\n      tag_76\n      jump\t// in\n    tag_74:\n      stop\n        /* \"PerpContract/Main.sol\":972:1011  mapping(string => uint) public rankings */\n    tag_14:\n      callvalue\n      dup1\n      iszero\n      tag_77\n      jumpi\n      0x00\n      dup1\n      revert\n    tag_77:\n      pop\n      tag_78\n      0x04\n      dup1\n      calldatasize\n      sub\n      dup2\n      add\n      swap1\n      tag_79\n      swap2\n      swap1\n      tag_25\n      jump\t// in\n    tag_79:\n      tag_80\n      jump\t// in\n    tag_78:\n      mload(0x40)\n      tag_81\n      swap2\n      swap1\n      tag_33\n      jump\t// in\n    tag_81:\n      mload(0x40)\n      dup1\n      swap2\n      sub\n      swap1\n      return\n        /* \"PerpContract/Main.sol\":329:361  IFunctionConsumer public eloFeed */\n    tag_19:\n      0x01\n      0x00\n      swap1\n      sload\n      swap1\n      0x0100\n      exp\n      swap1\n      div\n      0xffffffffffffffffffffffffffffffffffffffff\n      and\n      dup2\n      jump\t// out\n        /* \"PerpContract/Main.sol\":3656:3819  function getEloRanking(string memory teamId) external view returns (IFunctionConsumer.ELOInfo memory) {... */\n    tag_26:\n        /* \"PerpContract/Main.sol\":3724:3756  IFunctionConsumer.ELOInfo memory */\n      tag_82\n      tag_83\n      jump\t// in\n    tag_82:\n        /* \"PerpContract/Main.sol\":3776:3783  eloFeed */\n      0x01\n      0x00\n      swap1\n      sload\n      swap1\n      0x0100\n      exp\n      swap1\n      div\n      0xffffffffffffffffffffffffffffffffffffffff\n      and\n        /* \"PerpContract/Main.sol\":3776:3803  eloFeed.getLatestEloRanking */\n      0xffffffffffffffffffffffffffffffffffffffff\n      and\n      0x475f1686\n        /* \"PerpContract/Main.sol\":3804:3810  teamId */\n      dup4\n        /* \"PerpContract/Main.sol\":3776:3811  eloFeed.getLatestEloRanking(teamId) */\n      mload(0x40)\n      dup3\n      0xffffffff\n      and\n      0xe0\n      shl\n      dup2\n      mstore\n      0x04\n      add\n      tag_85\n      swap2\n      swap1\n      tag_86\n      jump\t// in\n    tag_85:\n      0x00\n      mload(0x40)\n      dup1\n      dup4\n      sub\n      dup2\n      dup7\n      gas\n      staticcall\n      iszero\n      dup1\n      iszero\n      tag_88\n      jumpi\n      returndatasize\n      0x00\n      dup1\n      returndatacopy\n      revert(0x00, returndatasize)\n    tag_88:\n      pop\n      pop\n      pop\n      pop\n      mload(0x40)\n      returndatasize\n      0x00\n      dup3\n      returndatacopy\n      returndatasize\n      not(0x1f)\n      0x1f\n      dup3\n      add\n      and\n      dup3\n      add\n      dup1\n      0x40\n      mstore\n      pop\n      dup2\n      add\n      swap1\n      tag_89\n      swap2\n      swap1\n      tag_90\n      jump\t// in\n    tag_89:\n        /* \"PerpContract/Main.sol\":3769:3811  return eloFeed.getLatestEloRanking(teamId) */\n      swap1\n      pop\n        /* \"PerpContract/Main.sol\":3656:3819  function getEloRanking(string memory teamId) external view returns (IFunctionConsumer.ELOInfo memory) {... */\n      swap2\n      swap1\n      pop\n      jump\t// out\n        /* \"PerpContract/Main.sol\":3088:3184  function getBalance() public view returns (uint) {... */\n    tag_31:\n        /* \"PerpContract/Main.sol\":3131:3135  uint */\n      0x00\n        /* \"PerpContract/Main.sol\":3155:3176  address(this).balance */\n      selfbalance\n        /* \"PerpContract/Main.sol\":3148:3176  return address(this).balance */\n      swap1\n      pop\n        /* \"PerpContract/Main.sol\":3088:3184  function getBalance() public view returns (uint) {... */\n      swap1\n      jump\t// out\n        /* \"@openzeppelin/contracts/access/Ownable.sol\":2293:2394  function renounceOwnership() public virtual onlyOwner {... */\n    tag_36:\n        /* \"@openzeppelin/contracts/access/Ownable.sol\":1531:1544  _checkOwner() */\n      tag_93\n        /* \"@openzeppelin/contracts/access/Ownable.sol\":1531:1542  _checkOwner */\n      tag_94\n        /* \"@openzeppelin/contracts/access/Ownable.sol\":1531:1544  _checkOwner() */\n      jump\t// in\n    tag_93:\n        /* \"@openzeppelin/contracts/access/Ownable.sol\":2357:2387  _transferOwnership(address(0)) */\n      tag_96\n        /* \"@openzeppelin/contracts/access/Ownable.sol\":2384:2385  0 */\n      0x00\n        /* \"@openzeppelin/contracts/access/Ownable.sol\":2357:2375  _transferOwnership */\n      tag_97\n        /* \"@openzeppelin/contracts/access/Ownable.sol\":2357:2387  _transferOwnership(address(0)) */\n      jump\t// in\n    tag_96:\n        /* \"@openzeppelin/contracts/access/Ownable.sol\":2293:2394  function renounceOwnership() public virtual onlyOwner {... */\n      jump\t// out\n        /* \"@openzeppelin/contracts/access/Ownable.sol\":1638:1723  function owner() public view virtual returns (address) {... */\n    tag_39:\n        /* \"@openzeppelin/contracts/access/Ownable.sol\":1684:1691  address */\n      0x00\n        /* \"@openzeppelin/contracts/access/Ownable.sol\":1710:1716  _owner */\n      dup1\n      0x00\n      swap1\n      sload\n      swap1\n      0x0100\n      exp\n      swap1\n      div\n      0xffffffffffffffffffffffffffffffffffffffff\n      and\n        /* \"@openzeppelin/contracts/access/Ownable.sol\":1703:1716  return _owner */\n      swap1\n      pop\n        /* \"@openzeppelin/contracts/access/Ownable.sol\":1638:1723  function owner() public view virtual returns (address) {... */\n      swap1\n      jump\t// out\n        /* \"PerpContract/Main.sol\":3262:3583  function updateFundingRate(uint256 _newRate, address _shortParty, uint256 _contractId) external onlyOwner {... */\n    tag_46:\n        /* \"@openzeppelin/contracts/access/Ownable.sol\":1531:1544  _checkOwner() */\n      tag_100\n        /* \"@openzeppelin/contracts/access/Ownable.sol\":1531:1542  _checkOwner */\n      tag_94\n        /* \"@openzeppelin/contracts/access/Ownable.sol\":1531:1544  _checkOwner() */\n      jump\t// in\n    tag_100:\n        /* \"PerpContract/Main.sol\":3379:3416  PerpContract storage existingContract */\n      0x00\n        /* \"PerpContract/Main.sol\":3419:3428  contracts */\n      0x03\n        /* \"PerpContract/Main.sol\":3419:3441  contracts[_shortParty] */\n      0x00\n        /* \"PerpContract/Main.sol\":3429:3440  _shortParty */\n      dup5\n        /* \"PerpContract/Main.sol\":3419:3441  contracts[_shortParty] */\n      0xffffffffffffffffffffffffffffffffffffffff\n      and\n      0xffffffffffffffffffffffffffffffffffffffff\n      and\n      dup2\n      mstore\n      0x20\n      add\n      swap1\n      dup2\n      mstore\n      0x20\n      add\n      0x00\n      keccak256\n        /* \"PerpContract/Main.sol\":3419:3454  contracts[_shortParty][_contractId] */\n      0x00\n        /* \"PerpContract/Main.sol\":3442:3453  _contractId */\n      dup4\n        /* \"PerpContract/Main.sol\":3419:3454  contracts[_shortParty][_contractId] */\n      dup2\n      mstore\n      0x20\n      add\n      swap1\n      dup2\n      mstore\n      0x20\n      add\n      0x00\n      keccak256\n        /* \"PerpContract/Main.sol\":3379:3454  PerpContract storage existingContract = contracts[_shortParty][_contractId] */\n      swap1\n      pop\n        /* \"PerpContract/Main.sol\":3473:3489  existingContract */\n      dup1\n        /* \"PerpContract/Main.sol\":3473:3496  existingContract.isOpen */\n      0x03\n      add\n      0x00\n      swap1\n      sload\n      swap1\n      0x0100\n      exp\n      swap1\n      div\n      0xff\n      and\n        /* \"PerpContract/Main.sol\":3465:3521  require(existingContract.isOpen, \"Contract is not open\") */\n      tag_102\n      jumpi\n      mload(0x40)\n      0x08c379a000000000000000000000000000000000000000000000000000000000\n      dup2\n      mstore\n      0x04\n      add\n      tag_103\n      swap1\n      tag_104\n      jump\t// in\n    tag_103:\n      mload(0x40)\n      dup1\n      swap2\n      sub\n      swap1\n      revert\n    tag_102:\n        /* \"PerpContract/Main.sol\":3567:3575  _newRate */\n      dup4\n        /* \"PerpContract/Main.sol\":3536:3552  existingContract */\n      dup2\n        /* \"PerpContract/Main.sol\":3536:3564  existingContract.fundingRate */\n      0x02\n      add\n        /* \"PerpContract/Main.sol\":3536:3575  existingContract.fundingRate = _newRate */\n      dup2\n      swap1\n      sstore\n      pop\n        /* \"PerpContract/Main.sol\":3368:3583  {... */\n      pop\n        /* \"PerpContract/Main.sol\":3262:3583  function updateFundingRate(uint256 _newRate, address _shortParty, uint256 _contractId) external onlyOwner {... */\n      pop\n      pop\n      pop\n      jump\t// out\n        /* \"PerpContract/Main.sol\":1492:2237  function openContract(string memory _team) public payable {... */\n    tag_49:\n        /* \"PerpContract/Main.sol\":1581:1582  0 */\n      0x00\n        /* \"PerpContract/Main.sol\":1569:1578  msg.value */\n      callvalue\n        /* \"PerpContract/Main.sol\":1569:1582  msg.value > 0 */\n      gt\n        /* \"PerpContract/Main.sol\":1561:1618  require(msg.value > 0, \"Value must be greater than zero\") */\n      tag_106\n      jumpi\n      mload(0x40)\n      0x08c379a000000000000000000000000000000000000000000000000000000000\n      dup2\n      mstore\n      0x04\n      add\n      tag_107\n      swap1\n      tag_108\n      jump\t// in\n    tag_107:\n      mload(0x40)\n      dup1\n      swap2\n      sub\n      swap1\n      revert\n    tag_106:\n        /* \"PerpContract/Main.sol\":1631:1649  uint256 contractId */\n      0x00\n        /* \"PerpContract/Main.sol\":1680:1681  1 */\n      0x01\n        /* \"PerpContract/Main.sol\":1652:1665  contractCount */\n      0x04\n        /* \"PerpContract/Main.sol\":1652:1677  contractCount[msg.sender] */\n      0x00\n        /* \"PerpContract/Main.sol\":1666:1676  msg.sender */\n      caller\n        /* \"PerpContract/Main.sol\":1652:1677  contractCount[msg.sender] */\n      0xffffffffffffffffffffffffffffffffffffffff\n      and\n      0xffffffffffffffffffffffffffffffffffffffff\n      and\n      dup2\n      mstore\n      0x20\n      add\n      swap1\n      dup2\n      mstore\n      0x20\n      add\n      0x00\n      keccak256\n      sload\n        /* \"PerpContract/Main.sol\":1652:1681  contractCount[msg.sender] + 1 */\n      tag_109\n      swap2\n      swap1\n      tag_110\n      jump\t// in\n    tag_109:\n        /* \"PerpContract/Main.sol\":1631:1681  uint256 contractId = contractCount[msg.sender] + 1 */\n      swap1\n      pop\n        /* \"PerpContract/Main.sol\":1694:1712  uint256 perpAmount */\n      0x00\n        /* \"PerpContract/Main.sol\":1725:1733  rankings */\n      0x05\n        /* \"PerpContract/Main.sol\":1734:1739  _team */\n      dup4\n        /* \"PerpContract/Main.sol\":1725:1740  rankings[_team] */\n      mload(0x40)\n      tag_111\n      swap2\n      swap1\n      tag_112\n      jump\t// in\n    tag_111:\n      swap1\n      dup2\n      mstore\n      0x20\n      add\n      mload(0x40)\n      dup1\n      swap2\n      sub\n      swap1\n      keccak256\n      sload\n        /* \"PerpContract/Main.sol\":1715:1724  msg.value */\n      callvalue\n        /* \"PerpContract/Main.sol\":1715:1740  msg.value/rankings[_team] */\n      tag_113\n      swap2\n      swap1\n      tag_114\n      jump\t// in\n    tag_113:\n        /* \"PerpContract/Main.sol\":1694:1740  uint256 perpAmount = msg.value/rankings[_team] */\n      swap1\n      pop\n        /* \"PerpContract/Main.sol\":1797:1829  PerpContract storage newContract */\n      0x00\n        /* \"PerpContract/Main.sol\":1832:1841  contracts */\n      0x03\n        /* \"PerpContract/Main.sol\":1832:1853  contracts[msg.sender] */\n      0x00\n        /* \"PerpContract/Main.sol\":1842:1852  msg.sender */\n      caller\n        /* \"PerpContract/Main.sol\":1832:1853  contracts[msg.sender] */\n      0xffffffffffffffffffffffffffffffffffffffff\n      and\n      0xffffffffffffffffffffffffffffffffffffffff\n      and\n      dup2\n      mstore\n      0x20\n      add\n      swap1\n      dup2\n      mstore\n      0x20\n      add\n      0x00\n      keccak256\n        /* \"PerpContract/Main.sol\":1832:1865  contracts[msg.sender][contractId] */\n      0x00\n        /* \"PerpContract/Main.sol\":1854:1864  contractId */\n      dup5\n        /* \"PerpContract/Main.sol\":1832:1865  contracts[msg.sender][contractId] */\n      dup2\n      mstore\n      0x20\n      add\n      swap1\n      dup2\n      mstore\n      0x20\n      add\n      0x00\n      keccak256\n        /* \"PerpContract/Main.sol\":1797:1865  PerpContract storage newContract = contracts[msg.sender][contractId] */\n      swap1\n      pop\n        /* \"PerpContract/Main.sol\":1900:1910  msg.sender */\n      caller\n        /* \"PerpContract/Main.sol\":1876:1887  newContract */\n      dup2\n        /* \"PerpContract/Main.sol\":1876:1897  newContract.longParty */\n      0x00\n      add\n      0x00\n        /* \"PerpContract/Main.sol\":1876:1910  newContract.longParty = msg.sender */\n      0x0100\n      exp\n      dup2\n      sload\n      dup2\n      0xffffffffffffffffffffffffffffffffffffffff\n      mul\n      not\n      and\n      swap1\n      dup4\n      0xffffffffffffffffffffffffffffffffffffffff\n      and\n      mul\n      or\n      swap1\n      sstore\n      pop\n        /* \"PerpContract/Main.sol\":1940:1945  _team */\n      dup4\n        /* \"PerpContract/Main.sol\":1921:1932  newContract */\n      dup2\n        /* \"PerpContract/Main.sol\":1921:1937  newContract.team */\n      0x04\n      add\n        /* \"PerpContract/Main.sol\":1921:1945  newContract.team = _team */\n      swap1\n      dup2\n      tag_115\n      swap2\n      swap1\n      tag_116\n      jump\t// in\n    tag_115:\n      pop\n        /* \"PerpContract/Main.sol\":1979:1989  perpAmount */\n      dup2\n        /* \"PerpContract/Main.sol\":1956:1967  newContract */\n      dup2\n        /* \"PerpContract/Main.sol\":1956:1976  newContract.quantity */\n      0x01\n      add\n        /* \"PerpContract/Main.sol\":1956:1989  newContract.quantity = perpAmount */\n      dup2\n      swap1\n      sstore\n      pop\n        /* \"PerpContract/Main.sol\":2025:2033  rankings */\n      0x05\n        /* \"PerpContract/Main.sol\":2034:2039  _team */\n      dup5\n        /* \"PerpContract/Main.sol\":2025:2040  rankings[_team] */\n      mload(0x40)\n      tag_117\n      swap2\n      swap1\n      tag_112\n      jump\t// in\n    tag_117:\n      swap1\n      dup2\n      mstore\n      0x20\n      add\n      mload(0x40)\n      dup1\n      swap2\n      sub\n      swap1\n      keccak256\n      sload\n        /* \"PerpContract/Main.sol\":2000:2011  newContract */\n      dup2\n        /* \"PerpContract/Main.sol\":2000:2022  newContract.initialElo */\n      0x05\n      add\n        /* \"PerpContract/Main.sol\":2000:2040  newContract.initialElo = rankings[_team] */\n      dup2\n      swap1\n      sstore\n      pop\n        /* \"PerpContract/Main.sol\":2072:2076  true */\n      0x01\n        /* \"PerpContract/Main.sol\":2051:2062  newContract */\n      dup2\n        /* \"PerpContract/Main.sol\":2051:2069  newContract.isOpen */\n      0x03\n      add\n      0x00\n        /* \"PerpContract/Main.sol\":2051:2076  newContract.isOpen = true */\n      0x0100\n      exp\n      dup2\n      sload\n      dup2\n      0xff\n      mul\n      not\n      and\n      swap1\n      dup4\n      iszero\n      iszero\n      mul\n      or\n      swap1\n      sstore\n      pop\n        /* \"PerpContract/Main.sol\":2144:2157  contractCount */\n      0x04\n        /* \"PerpContract/Main.sol\":2144:2169  contractCount[msg.sender] */\n      0x00\n        /* \"PerpContract/Main.sol\":2158:2168  msg.sender */\n      caller\n        /* \"PerpContract/Main.sol\":2144:2169  contractCount[msg.sender] */\n      0xffffffffffffffffffffffffffffffffffffffff\n      and\n      0xffffffffffffffffffffffffffffffffffffffff\n      and\n      dup2\n      mstore\n      0x20\n      add\n      swap1\n      dup2\n      mstore\n      0x20\n      add\n      0x00\n      keccak256\n      0x00\n        /* \"PerpContract/Main.sol\":2144:2171  contractCount[msg.sender]++ */\n      dup2\n      sload\n      dup1\n      swap3\n      swap2\n      swap1\n      tag_118\n      swap1\n      tag_119\n      jump\t// in\n    tag_118:\n      swap2\n      swap1\n      pop\n      sstore\n      pop\n        /* \"PerpContract/Main.sol\":2207:2218  newContract */\n      dup1\n        /* \"PerpContract/Main.sol\":2207:2227  newContract.quantity */\n      0x01\n      add\n      sload\n        /* \"PerpContract/Main.sol\":2182:2196  quantitiesLive */\n      0x06\n        /* \"PerpContract/Main.sol\":2197:2202  _team */\n      dup6\n        /* \"PerpContract/Main.sol\":2182:2203  quantitiesLive[_team] */\n      mload(0x40)\n      tag_120\n      swap2\n      swap1\n      tag_112\n      jump\t// in\n    tag_120:\n      swap1\n      dup2\n      mstore\n      0x20\n      add\n      mload(0x40)\n      dup1\n      swap2\n      sub\n      swap1\n      keccak256\n      0x00\n        /* \"PerpContract/Main.sol\":2182:2227  quantitiesLive[_team] += newContract.quantity */\n      dup3\n      dup3\n      sload\n      tag_121\n      swap2\n      swap1\n      tag_110\n      jump\t// in\n    tag_121:\n      swap3\n      pop\n      pop\n      dup2\n      swap1\n      sstore\n      pop\n        /* \"PerpContract/Main.sol\":1550:2237  {... */\n      pop\n      pop\n      pop\n        /* \"PerpContract/Main.sol\":1492:2237  function openContract(string memory _team) public payable {... */\n      pop\n      jump\t// out\n        /* \"PerpContract/Main.sol\":880:928  mapping(address => uint256) public contractCount */\n    tag_54:\n      mstore(0x20, 0x04)\n      dup1\n      0x00\n      mstore\n      keccak256(0x00, 0x40)\n      0x00\n      swap2\n      pop\n      swap1\n      pop\n      sload\n      dup2\n      jump\t// out\n        /* \"PerpContract/Main.sol\":2294:3078  function closeContract(uint256 _contractId) external {... */\n    tag_60:\n        /* \"PerpContract/Main.sol\":2358:2395  PerpContract storage existingContract */\n      0x00\n        /* \"PerpContract/Main.sol\":2398:2407  contracts */\n      0x03\n        /* \"PerpContract/Main.sol\":2398:2419  contracts[msg.sender] */\n      0x00\n        /* \"PerpContract/Main.sol\":2408:2418  msg.sender */\n      caller\n        /* \"PerpContract/Main.sol\":2398:2419  contracts[msg.sender] */\n      0xffffffffffffffffffffffffffffffffffffffff\n      and\n      0xffffffffffffffffffffffffffffffffffffffff\n      and\n      dup2\n      mstore\n      0x20\n      add\n      swap1\n      dup2\n      mstore\n      0x20\n      add\n      0x00\n      keccak256\n        /* \"PerpContract/Main.sol\":2398:2432  contracts[msg.sender][_contractId] */\n      0x00\n        /* \"PerpContract/Main.sol\":2420:2431  _contractId */\n      dup4\n        /* \"PerpContract/Main.sol\":2398:2432  contracts[msg.sender][_contractId] */\n      dup2\n      mstore\n      0x20\n      add\n      swap1\n      dup2\n      mstore\n      0x20\n      add\n      0x00\n      keccak256\n        /* \"PerpContract/Main.sol\":2358:2432  PerpContract storage existingContract = contracts[msg.sender][_contractId] */\n      swap1\n      pop\n        /* \"PerpContract/Main.sol\":2451:2467  existingContract */\n      dup1\n        /* \"PerpContract/Main.sol\":2451:2474  existingContract.isOpen */\n      0x03\n      add\n      0x00\n      swap1\n      sload\n      swap1\n      0x0100\n      exp\n      swap1\n      div\n      0xff\n      and\n        /* \"PerpContract/Main.sol\":2443:2499  require(existingContract.isOpen, \"Contract is not open\") */\n      tag_123\n      jumpi\n      mload(0x40)\n      0x08c379a000000000000000000000000000000000000000000000000000000000\n      dup2\n      mstore\n      0x04\n      add\n      tag_124\n      swap1\n      tag_104\n      jump\t// in\n    tag_124:\n      mload(0x40)\n      dup1\n      swap2\n      sub\n      swap1\n      revert\n    tag_123:\n        /* \"PerpContract/Main.sol\":2548:2558  msg.sender */\n      caller\n        /* \"PerpContract/Main.sol\":2518:2558  existingContract.longParty == msg.sender */\n      0xffffffffffffffffffffffffffffffffffffffff\n      and\n        /* \"PerpContract/Main.sol\":2518:2534  existingContract */\n      dup2\n        /* \"PerpContract/Main.sol\":2518:2544  existingContract.longParty */\n      0x00\n      add\n      0x00\n      swap1\n      sload\n      swap1\n      0x0100\n      exp\n      swap1\n      div\n      0xffffffffffffffffffffffffffffffffffffffff\n      and\n        /* \"PerpContract/Main.sol\":2518:2558  existingContract.longParty == msg.sender */\n      0xffffffffffffffffffffffffffffffffffffffff\n      and\n      eq\n        /* \"PerpContract/Main.sol\":2510:2601  require(existingContract.longParty == msg.sender, \"Only long party can close the contract\") */\n      tag_125\n      jumpi\n      mload(0x40)\n      0x08c379a000000000000000000000000000000000000000000000000000000000\n      dup2\n      mstore\n      0x04\n      add\n      tag_126\n      swap1\n      tag_127\n      jump\t// in\n    tag_126:\n      mload(0x40)\n      dup1\n      swap2\n      sub\n      swap1\n      revert\n    tag_125:\n        /* \"PerpContract/Main.sol\":2612:2630  string memory team */\n      0x00\n        /* \"PerpContract/Main.sol\":2633:2649  existingContract */\n      dup2\n        /* \"PerpContract/Main.sol\":2633:2654  existingContract.team */\n      0x04\n      add\n        /* \"PerpContract/Main.sol\":2612:2654  string memory team = existingContract.team */\n      dup1\n      sload\n      tag_128\n      swap1\n      tag_129\n      jump\t// in\n    tag_128:\n      dup1\n      0x1f\n      add\n      0x20\n      dup1\n      swap2\n      div\n      mul\n      0x20\n      add\n      mload(0x40)\n      swap1\n      dup2\n      add\n      0x40\n      mstore\n      dup1\n      swap3\n      swap2\n      swap1\n      dup2\n      dup2\n      mstore\n      0x20\n      add\n      dup3\n      dup1\n      sload\n      tag_130\n      swap1\n      tag_129\n      jump\t// in\n    tag_130:\n      dup1\n      iszero\n      tag_131\n      jumpi\n      dup1\n      0x1f\n      lt\n      tag_132\n      jumpi\n      0x0100\n      dup1\n      dup4\n      sload\n      div\n      mul\n      dup4\n      mstore\n      swap2\n      0x20\n      add\n      swap2\n      jump(tag_131)\n    tag_132:\n      dup3\n      add\n      swap2\n      swap1\n      0x00\n      mstore\n      keccak256(0x00, 0x20)\n      swap1\n    tag_133:\n      dup2\n      sload\n      dup2\n      mstore\n      swap1\n      0x01\n      add\n      swap1\n      0x20\n      add\n      dup1\n      dup4\n      gt\n      tag_133\n      jumpi\n      dup3\n      swap1\n      sub\n      0x1f\n      and\n      dup3\n      add\n      swap2\n    tag_131:\n      pop\n      pop\n      pop\n      pop\n      pop\n      swap1\n      pop\n        /* \"PerpContract/Main.sol\":2665:2679  uint256 eloVal */\n      0x00\n        /* \"PerpContract/Main.sol\":2682:2690  rankings */\n      0x05\n        /* \"PerpContract/Main.sol\":2691:2695  team */\n      dup3\n        /* \"PerpContract/Main.sol\":2682:2696  rankings[team] */\n      mload(0x40)\n      tag_134\n      swap2\n      swap1\n      tag_112\n      jump\t// in\n    tag_134:\n      swap1\n      dup2\n      mstore\n      0x20\n      add\n      mload(0x40)\n      dup1\n      swap2\n      sub\n      swap1\n      keccak256\n      sload\n        /* \"PerpContract/Main.sol\":2665:2696  uint256 eloVal = rankings[team] */\n      swap1\n      pop\n        /* \"PerpContract/Main.sol\":2709:2724  uint256 balance */\n      0x00\n        /* \"PerpContract/Main.sol\":2727:2739  getBalance() */\n      tag_135\n        /* \"PerpContract/Main.sol\":2727:2737  getBalance */\n      tag_31\n        /* \"PerpContract/Main.sol\":2727:2739  getBalance() */\n      jump\t// in\n    tag_135:\n        /* \"PerpContract/Main.sol\":2709:2739  uint256 balance = getBalance() */\n      swap1\n      pop\n        /* \"PerpContract/Main.sol\":2822:2836  uint256 payout */\n      0x00\n        /* \"PerpContract/Main.sol\":2864:2880  existingContract */\n      dup5\n        /* \"PerpContract/Main.sol\":2864:2889  existingContract.quantity */\n      0x01\n      add\n      sload\n        /* \"PerpContract/Main.sol\":2856:2863  balance */\n      dup3\n        /* \"PerpContract/Main.sol\":2849:2855  eloVal */\n      dup5\n        /* \"PerpContract/Main.sol\":2839:2848  totalPool */\n      sload(0x07)\n        /* \"PerpContract/Main.sol\":2839:2855  totalPool/eloVal */\n      tag_136\n      swap2\n      swap1\n      tag_114\n      jump\t// in\n    tag_136:\n        /* \"PerpContract/Main.sol\":2839:2863  totalPool/eloVal*balance */\n      tag_137\n      swap2\n      swap1\n      tag_138\n      jump\t// in\n    tag_137:\n        /* \"PerpContract/Main.sol\":2839:2889  totalPool/eloVal*balance*existingContract.quantity */\n      tag_139\n      swap2\n      swap1\n      tag_138\n      jump\t// in\n    tag_139:\n        /* \"PerpContract/Main.sol\":2822:2889  uint256 payout = totalPool/eloVal*balance*existingContract.quantity */\n      swap1\n      pop\n        /* \"PerpContract/Main.sol\":2960:2970  msg.sender */\n      caller\n        /* \"PerpContract/Main.sol\":2952:2980  payable(msg.sender).transfer */\n      0xffffffffffffffffffffffffffffffffffffffff\n      and\n        /* \"PerpContract/Main.sol\":2952:2988  payable(msg.sender).transfer(payout) */\n      0x08fc\n        /* \"PerpContract/Main.sol\":2981:2987  payout */\n      dup3\n        /* \"PerpContract/Main.sol\":2952:2988  payable(msg.sender).transfer(payout) */\n      swap1\n      dup2\n      iszero\n      mul\n      swap1\n      mload(0x40)\n      0x00\n      mload(0x40)\n      dup1\n      dup4\n      sub\n      dup2\n      dup6\n      dup9\n      dup9\n      call\n      swap4\n      pop\n      pop\n      pop\n      pop\n      iszero\n      dup1\n      iszero\n      tag_141\n      jumpi\n      returndatasize\n      0x00\n      dup1\n      returndatacopy\n      revert(0x00, returndatasize)\n    tag_141:\n      pop\n        /* \"PerpContract/Main.sol\":3065:3070  false */\n      0x00\n        /* \"PerpContract/Main.sol\":3039:3055  existingContract */\n      dup6\n        /* \"PerpContract/Main.sol\":3039:3062  existingContract.isOpen */\n      0x03\n      add\n      0x00\n        /* \"PerpContract/Main.sol\":3039:3070  existingContract.isOpen = false */\n      0x0100\n      exp\n      dup2\n      sload\n      dup2\n      0xff\n      mul\n      not\n      and\n      swap1\n      dup4\n      iszero\n      iszero\n      mul\n      or\n      swap1\n      sstore\n      pop\n        /* \"PerpContract/Main.sol\":2347:3078  {... */\n      pop\n      pop\n      pop\n      pop\n      pop\n        /* \"PerpContract/Main.sol\":2294:3078  function closeContract(uint256 _contractId) external {... */\n      pop\n      jump\t// out\n        /* \"PerpContract/Main.sol\":1018:1066  mapping(string => uint256) public quantitiesLive */\n    tag_64:\n      0x06\n      dup2\n      dup1\n      mload\n      0x20\n      dup2\n      add\n      dup3\n      add\n      dup1\n      mload\n      dup5\n      dup3\n      mstore\n      0x20\n      dup4\n      add\n      0x20\n      dup6\n      add\n      keccak256\n      dup2\n      dup4\n      mstore\n      dup1\n      swap6\n      pop\n      pop\n      pop\n      pop\n      pop\n      pop\n      0x00\n      swap2\n      pop\n      swap1\n      pop\n      sload\n      dup2\n      jump\t// out\n        /* \"PerpContract/Main.sol\":769:838  mapping(address => mapping(uint256 => PerpContract)) public contracts */\n    tag_70:\n      mstore(0x20, 0x03)\n      dup2\n      0x00\n      mstore\n      mstore(0x20, keccak256(0x00, 0x40))\n      dup1\n      0x00\n      mstore\n      keccak256(0x00, 0x40)\n      0x00\n      swap2\n      pop\n      swap2\n      pop\n      pop\n      dup1\n      0x00\n      add\n      0x00\n      swap1\n      sload\n      swap1\n      0x0100\n      exp\n      swap1\n      div\n      0xffffffffffffffffffffffffffffffffffffffff\n      and\n      swap1\n      dup1\n      0x00\n      add\n      0x14\n      swap1\n      sload\n      swap1\n      0x0100\n      exp\n      swap1\n      div\n      0xff\n      and\n      swap1\n      dup1\n      0x01\n      add\n      sload\n      swap1\n      dup1\n      0x02\n      add\n      sload\n      swap1\n      dup1\n      0x03\n      add\n      0x00\n      swap1\n      sload\n      swap1\n      0x0100\n      exp\n      swap1\n      div\n      0xff\n      and\n      swap1\n      dup1\n      0x04\n      add\n      dup1\n      sload\n      tag_142\n      swap1\n      tag_129\n      jump\t// in\n    tag_142:\n      dup1\n      0x1f\n      add\n      0x20\n      dup1\n      swap2\n      div\n      mul\n      0x20\n      add\n      mload(0x40)\n      swap1\n      dup2\n      add\n      0x40\n      mstore\n      dup1\n      swap3\n      swap2\n      swap1\n      dup2\n      dup2\n      mstore\n      0x20\n      add\n      dup3\n      dup1\n      sload\n      tag_143\n      swap1\n      tag_129\n      jump\t// in\n    tag_143:\n      dup1\n      iszero\n      tag_144\n      jumpi\n      dup1\n      0x1f\n      lt\n      tag_145\n      jumpi\n      0x0100\n      dup1\n      dup4\n      sload\n      div\n      mul\n      dup4\n      mstore\n      swap2\n      0x20\n      add\n      swap2\n      jump(tag_144)\n    tag_145:\n      dup3\n      add\n      swap2\n      swap1\n      0x00\n      mstore\n      keccak256(0x00, 0x20)\n      swap1\n    tag_146:\n      dup2\n      sload\n      dup2\n      mstore\n      swap1\n      0x01\n      add\n      swap1\n      0x20\n      add\n      dup1\n      dup4\n      gt\n      tag_146\n      jumpi\n      dup3\n      swap1\n      sub\n      0x1f\n      and\n      dup3\n      add\n      swap2\n    tag_144:\n      pop\n      pop\n      pop\n      pop\n      pop\n      swap1\n      dup1\n      0x05\n      add\n      sload\n      swap1\n      pop\n      dup8\n      jump\t// out\n        /* \"@openzeppelin/contracts/access/Ownable.sol\":2543:2758  function transferOwnership(address newOwner) public virtual onlyOwner {... */\n    tag_76:\n        /* \"@openzeppelin/contracts/access/Ownable.sol\":1531:1544  _checkOwner() */\n      tag_148\n        /* \"@openzeppelin/contracts/access/Ownable.sol\":1531:1542  _checkOwner */\n      tag_94\n        /* \"@openzeppelin/contracts/access/Ownable.sol\":1531:1544  _checkOwner() */\n      jump\t// in\n    tag_148:\n        /* \"@openzeppelin/contracts/access/Ownable.sol\":2647:2648  0 */\n      0x00\n        /* \"@openzeppelin/contracts/access/Ownable.sol\":2627:2649  newOwner == address(0) */\n      0xffffffffffffffffffffffffffffffffffffffff\n      and\n        /* \"@openzeppelin/contracts/access/Ownable.sol\":2627:2635  newOwner */\n      dup2\n        /* \"@openzeppelin/contracts/access/Ownable.sol\":2627:2649  newOwner == address(0) */\n      0xffffffffffffffffffffffffffffffffffffffff\n      and\n      sub\n        /* \"@openzeppelin/contracts/access/Ownable.sol\":2623:2714  if (newOwner == address(0)) {... */\n      tag_150\n      jumpi\n        /* \"@openzeppelin/contracts/access/Ownable.sol\":2700:2701  0 */\n      0x00\n        /* \"@openzeppelin/contracts/access/Ownable.sol\":2672:2703  OwnableInvalidOwner(address(0)) */\n      mload(0x40)\n      0x1e4fbdf700000000000000000000000000000000000000000000000000000000\n      dup2\n      mstore\n      0x04\n      add\n      tag_151\n      swap2\n      swap1\n      tag_41\n      jump\t// in\n    tag_151:\n      mload(0x40)\n      dup1\n      swap2\n      sub\n      swap1\n      revert\n        /* \"@openzeppelin/contracts/access/Ownable.sol\":2623:2714  if (newOwner == address(0)) {... */\n    tag_150:\n        /* \"@openzeppelin/contracts/access/Ownable.sol\":2723:2751  _transferOwnership(newOwner) */\n      tag_152\n        /* \"@openzeppelin/contracts/access/Ownable.sol\":2742:2750  newOwner */\n      dup2\n        /* \"@openzeppelin/contracts/access/Ownable.sol\":2723:2741  _transferOwnership */\n      tag_97\n        /* \"@openzeppelin/contracts/access/Ownable.sol\":2723:2751  _transferOwnership(newOwner) */\n      jump\t// in\n    tag_152:\n        /* \"@openzeppelin/contracts/access/Ownable.sol\":2543:2758  function transferOwnership(address newOwner) public virtual onlyOwner {... */\n      pop\n      jump\t// out\n        /* \"PerpContract/Main.sol\":972:1011  mapping(string => uint) public rankings */\n    tag_80:\n      0x05\n      dup2\n      dup1\n      mload\n      0x20\n      dup2\n      add\n      dup3\n      add\n      dup1\n      mload\n      dup5\n      dup3\n      mstore\n      0x20\n      dup4\n      add\n      0x20\n      dup6\n      add\n      keccak256\n      dup2\n      dup4\n      mstore\n      dup1\n      swap6\n      pop\n      pop\n      pop\n      pop\n      pop\n      pop\n      0x00\n      swap2\n      pop\n      swap1\n      pop\n      sload\n      dup2\n      jump\t// out\n        /* \"@openzeppelin/contracts/access/Ownable.sol\":1796:1958  function _checkOwner() internal view virtual {... */\n    tag_94:\n        /* \"@openzeppelin/contracts/access/Ownable.sol\":1866:1878  _msgSender() */\n      tag_154\n        /* \"@openzeppelin/contracts/access/Ownable.sol\":1866:1876  _msgSender */\n      tag_155\n        /* \"@openzeppelin/contracts/access/Ownable.sol\":1866:1878  _msgSender() */\n      jump\t// in\n    tag_154:\n        /* \"@openzeppelin/contracts/access/Ownable.sol\":1855:1878  owner() != _msgSender() */\n      0xffffffffffffffffffffffffffffffffffffffff\n      and\n        /* \"@openzeppelin/contracts/access/Ownable.sol\":1855:1862  owner() */\n      tag_156\n        /* \"@openzeppelin/contracts/access/Ownable.sol\":1855:1860  owner */\n      tag_39\n        /* \"@openzeppelin/contracts/access/Ownable.sol\":1855:1862  owner() */\n      jump\t// in\n    tag_156:\n        /* \"@openzeppelin/contracts/access/Ownable.sol\":1855:1878  owner() != _msgSender() */\n      0xffffffffffffffffffffffffffffffffffffffff\n      and\n      eq\n        /* \"@openzeppelin/contracts/access/Ownable.sol\":1851:1952  if (owner() != _msgSender()) {... */\n      tag_157\n      jumpi\n        /* \"@openzeppelin/contracts/access/Ownable.sol\":1928:1940  _msgSender() */\n      tag_158\n        /* \"@openzeppelin/contracts/access/Ownable.sol\":1928:1938  _msgSender */\n      tag_155\n        /* \"@openzeppelin/contracts/access/Ownable.sol\":1928:1940  _msgSender() */\n      jump\t// in\n    tag_158:\n        /* \"@openzeppelin/contracts/access/Ownable.sol\":1901:1941  OwnableUnauthorizedAccount(_msgSender()) */\n      mload(0x40)\n      0x118cdaa700000000000000000000000000000000000000000000000000000000\n      dup2\n      mstore\n      0x04\n      add\n      tag_159\n      swap2\n      swap1\n      tag_41\n      jump\t// in\n    tag_159:\n      mload(0x40)\n      dup1\n      swap2\n      sub\n      swap1\n      revert\n        /* \"@openzeppelin/contracts/access/Ownable.sol\":1851:1952  if (owner() != _msgSender()) {... */\n    tag_157:\n        /* \"@openzeppelin/contracts/access/Ownable.sol\":1796:1958  function _checkOwner() internal view virtual {... */\n      jump\t// out\n        /* \"@openzeppelin/contracts/access/Ownable.sol\":2912:3099  function _transferOwnership(address newOwner) internal virtual {... */\n    tag_97:\n        /* \"@openzeppelin/contracts/access/Ownable.sol\":2985:3001  address oldOwner */\n      0x00\n        /* \"@openzeppelin/contracts/access/Ownable.sol\":3004:3010  _owner */\n      dup1\n      0x00\n      swap1\n      sload\n      swap1\n      0x0100\n      exp\n      swap1\n      div\n      0xffffffffffffffffffffffffffffffffffffffff\n      and\n        /* \"@openzeppelin/contracts/access/Ownable.sol\":2985:3010  address oldOwner = _owner */\n      swap1\n      pop\n        /* \"@openzeppelin/contracts/access/Ownable.sol\":3029:3037  newOwner */\n      dup2\n        /* \"@openzeppelin/contracts/access/Ownable.sol\":3020:3026  _owner */\n      0x00\n      dup1\n        /* \"@openzeppelin/contracts/access/Ownable.sol\":3020:3037  _owner = newOwner */\n      0x0100\n      exp\n      dup2\n      sload\n      dup2\n      0xffffffffffffffffffffffffffffffffffffffff\n      mul\n      not\n      and\n      swap1\n      dup4\n      0xffffffffffffffffffffffffffffffffffffffff\n      and\n      mul\n      or\n      swap1\n      sstore\n      pop\n        /* \"@openzeppelin/contracts/access/Ownable.sol\":3083:3091  newOwner */\n      dup2\n        /* \"@openzeppelin/contracts/access/Ownable.sol\":3052:3092  OwnershipTransferred(oldOwner, newOwner) */\n      0xffffffffffffffffffffffffffffffffffffffff\n      and\n        /* \"@openzeppelin/contracts/access/Ownable.sol\":3073:3081  oldOwner */\n      dup2\n        /* \"@openzeppelin/contracts/access/Ownable.sol\":3052:3092  OwnershipTransferred(oldOwner, newOwner) */\n      0xffffffffffffffffffffffffffffffffffffffff\n      and\n      0x8be0079c531659141344cd1fd0a4f28419497f9722a3daafe3b4186f6b6457e0\n      mload(0x40)\n      mload(0x40)\n      dup1\n      swap2\n      sub\n      swap1\n      log3\n        /* \"@openzeppelin/contracts/access/Ownable.sol\":2975:3099  {... */\n      pop\n        /* \"@openzeppelin/contracts/access/Ownable.sol\":2912:3099  function _transferOwnership(address newOwner) internal virtual {... */\n      pop\n      jump\t// out\n        /* \"@openzeppelin/contracts/utils/Context.sol\":656:752  function _msgSender() internal view virtual returns (address) {... */\n    tag_155:\n        /* \"@openzeppelin/contracts/utils/Context.sol\":709:716  address */\n      0x00\n        /* \"@openzeppelin/contracts/utils/Context.sol\":735:745  msg.sender */\n      caller\n        /* \"@openzeppelin/contracts/utils/Context.sol\":728:745  return msg.sender */\n      swap1\n      pop\n        /* \"@openzeppelin/contracts/utils/Context.sol\":656:752  function _msgSender() internal view virtual returns (address) {... */\n      swap1\n      jump\t// out\n    tag_83:\n      mload(0x40)\n      dup1\n      0x40\n      add\n      0x40\n      mstore\n      dup1\n      0x60\n      dup2\n      mstore\n      0x20\n      add\n      0x00\n      dup2\n      mstore\n      pop\n      swap1\n      jump\t// out\n        /* \"#utility.yul\":7:133   */\n    tag_162:\n        /* \"#utility.yul\":44:51   */\n      0x00\n        /* \"#utility.yul\":84:126   */\n      0xffffffffffffffffffffffffffffffffffffffff\n        /* \"#utility.yul\":77:82   */\n      dup3\n        /* \"#utility.yul\":73:127   */\n      and\n        /* \"#utility.yul\":62:127   */\n      swap1\n      pop\n        /* \"#utility.yul\":7:133   */\n      swap2\n      swap1\n      pop\n      jump\t// out\n        /* \"#utility.yul\":139:199   */\n    tag_163:\n        /* \"#utility.yul\":167:170   */\n      0x00\n        /* \"#utility.yul\":188:193   */\n      dup2\n        /* \"#utility.yul\":181:193   */\n      swap1\n      pop\n        /* \"#utility.yul\":139:199   */\n      swap2\n      swap1\n      pop\n      jump\t// out\n        /* \"#utility.yul\":205:347   */\n    tag_164:\n        /* \"#utility.yul\":255:264   */\n      0x00\n        /* \"#utility.yul\":288:341   */\n      tag_236\n        /* \"#utility.yul\":306:340   */\n      tag_237\n        /* \"#utility.yul\":315:339   */\n      tag_238\n        /* \"#utility.yul\":333:338   */\n      dup5\n        /* \"#utility.yul\":315:339   */\n      tag_162\n      jump\t// in\n    tag_238:\n        /* \"#utility.yul\":306:340   */\n      tag_163\n      jump\t// in\n    tag_237:\n        /* \"#utility.yul\":288:341   */\n      tag_162\n      jump\t// in\n    tag_236:\n        /* \"#utility.yul\":275:341   */\n      swap1\n      pop\n        /* \"#utility.yul\":205:347   */\n      swap2\n      swap1\n      pop\n      jump\t// out\n        /* \"#utility.yul\":353:479   */\n    tag_165:\n        /* \"#utility.yul\":403:412   */\n      0x00\n        /* \"#utility.yul\":436:473   */\n      tag_240\n        /* \"#utility.yul\":467:472   */\n      dup3\n        /* \"#utility.yul\":436:473   */\n      tag_164\n      jump\t// in\n    tag_240:\n        /* \"#utility.yul\":423:473   */\n      swap1\n      pop\n        /* \"#utility.yul\":353:479   */\n      swap2\n      swap1\n      pop\n      jump\t// out\n        /* \"#utility.yul\":485:636   */\n    tag_166:\n        /* \"#utility.yul\":560:569   */\n      0x00\n        /* \"#utility.yul\":593:630   */\n      tag_242\n        /* \"#utility.yul\":624:629   */\n      dup3\n        /* \"#utility.yul\":593:630   */\n      tag_165\n      jump\t// in\n    tag_242:\n        /* \"#utility.yul\":580:630   */\n      swap1\n      pop\n        /* \"#utility.yul\":485:636   */\n      swap2\n      swap1\n      pop\n      jump\t// out\n        /* \"#utility.yul\":642:823   */\n    tag_167:\n        /* \"#utility.yul\":754:816   */\n      tag_244\n        /* \"#utility.yul\":810:815   */\n      dup2\n        /* \"#utility.yul\":754:816   */\n      tag_166\n      jump\t// in\n    tag_244:\n        /* \"#utility.yul\":749:752   */\n      dup3\n        /* \"#utility.yul\":742:817   */\n      mstore\n        /* \"#utility.yul\":642:823   */\n      pop\n      pop\n      jump\t// out\n        /* \"#utility.yul\":829:1101   */\n    tag_21:\n        /* \"#utility.yul\":947:951   */\n      0x00\n        /* \"#utility.yul\":985:987   */\n      0x20\n        /* \"#utility.yul\":974:983   */\n      dup3\n        /* \"#utility.yul\":970:988   */\n      add\n        /* \"#utility.yul\":962:988   */\n      swap1\n      pop\n        /* \"#utility.yul\":998:1094   */\n      tag_246\n        /* \"#utility.yul\":1091:1092   */\n      0x00\n        /* \"#utility.yul\":1080:1089   */\n      dup4\n        /* \"#utility.yul\":1076:1093   */\n      add\n        /* \"#utility.yul\":1067:1073   */\n      dup5\n        /* \"#utility.yul\":998:1094   */\n      tag_167\n      jump\t// in\n    tag_246:\n        /* \"#utility.yul\":829:1101   */\n      swap3\n      swap2\n      pop\n      pop\n      jump\t// out\n        /* \"#utility.yul\":1107:1182   */\n    tag_168:\n        /* \"#utility.yul\":1140:1146   */\n      0x00\n        /* \"#utility.yul\":1173:1175   */\n      0x40\n        /* \"#utility.yul\":1167:1176   */\n      mload\n        /* \"#utility.yul\":1157:1176   */\n      swap1\n      pop\n        /* \"#utility.yul\":1107:1182   */\n      swap1\n      jump\t// out\n        /* \"#utility.yul\":1188:1305   */\n    tag_169:\n        /* \"#utility.yul\":1297:1298   */\n      0x00\n        /* \"#utility.yul\":1294:1295   */\n      dup1\n        /* \"#utility.yul\":1287:1299   */\n      revert\n        /* \"#utility.yul\":1311:1428   */\n    tag_170:\n        /* \"#utility.yul\":1420:1421   */\n      0x00\n        /* \"#utility.yul\":1417:1418   */\n      dup1\n        /* \"#utility.yul\":1410:1422   */\n      revert\n        /* \"#utility.yul\":1434:1551   */\n    tag_171:\n        /* \"#utility.yul\":1543:1544   */\n      0x00\n        /* \"#utility.yul\":1540:1541   */\n      dup1\n        /* \"#utility.yul\":1533:1545   */\n      revert\n        /* \"#utility.yul\":1557:1674   */\n    tag_172:\n        /* \"#utility.yul\":1666:1667   */\n      0x00\n        /* \"#utility.yul\":1663:1664   */\n      dup1\n        /* \"#utility.yul\":1656:1668   */\n      revert\n        /* \"#utility.yul\":1680:1782   */\n    tag_173:\n        /* \"#utility.yul\":1721:1727   */\n      0x00\n        /* \"#utility.yul\":1772:1774   */\n      0x1f\n        /* \"#utility.yul\":1768:1775   */\n      not\n        /* \"#utility.yul\":1763:1765   */\n      0x1f\n        /* \"#utility.yul\":1756:1761   */\n      dup4\n        /* \"#utility.yul\":1752:1766   */\n      add\n        /* \"#utility.yul\":1748:1776   */\n      and\n        /* \"#utility.yul\":1738:1776   */\n      swap1\n      pop\n        /* \"#utility.yul\":1680:1782   */\n      swap2\n      swap1\n      pop\n      jump\t// out\n        /* \"#utility.yul\":1788:1968   */\n    tag_174:\n        /* \"#utility.yul\":1836:1913   */\n      0x4e487b7100000000000000000000000000000000000000000000000000000000\n        /* \"#utility.yul\":1833:1834   */\n      0x00\n        /* \"#utility.yul\":1826:1914   */\n      mstore\n        /* \"#utility.yul\":1933:1937   */\n      0x41\n        /* \"#utility.yul\":1930:1931   */\n      0x04\n        /* \"#utility.yul\":1923:1938   */\n      mstore\n        /* \"#utility.yul\":1957:1961   */\n      0x24\n        /* \"#utility.yul\":1954:1955   */\n      0x00\n        /* \"#utility.yul\":1947:1962   */\n      revert\n        /* \"#utility.yul\":1974:2255   */\n    tag_175:\n        /* \"#utility.yul\":2057:2084   */\n      tag_255\n        /* \"#utility.yul\":2079:2083   */\n      dup3\n        /* \"#utility.yul\":2057:2084   */\n      tag_173\n      jump\t// in\n    tag_255:\n        /* \"#utility.yul\":2049:2055   */\n      dup2\n        /* \"#utility.yul\":2045:2085   */\n      add\n        /* \"#utility.yul\":2187:2193   */\n      dup2\n        /* \"#utility.yul\":2175:2185   */\n      dup2\n        /* \"#utility.yul\":2172:2194   */\n      lt\n        /* \"#utility.yul\":2151:2169   */\n      0xffffffffffffffff\n        /* \"#utility.yul\":2139:2149   */\n      dup3\n        /* \"#utility.yul\":2136:2170   */\n      gt\n        /* \"#utility.yul\":2133:2195   */\n      or\n        /* \"#utility.yul\":2130:2218   */\n      iszero\n      tag_256\n      jumpi\n        /* \"#utility.yul\":2198:2216   */\n      tag_257\n      tag_174\n      jump\t// in\n    tag_257:\n        /* \"#utility.yul\":2130:2218   */\n    tag_256:\n        /* \"#utility.yul\":2238:2248   */\n      dup1\n        /* \"#utility.yul\":2234:2236   */\n      0x40\n        /* \"#utility.yul\":2227:2249   */\n      mstore\n        /* \"#utility.yul\":2017:2255   */\n      pop\n        /* \"#utility.yul\":1974:2255   */\n      pop\n      pop\n      jump\t// out\n        /* \"#utility.yul\":2261:2390   */\n    tag_176:\n        /* \"#utility.yul\":2295:2301   */\n      0x00\n        /* \"#utility.yul\":2322:2342   */\n      tag_259\n      tag_168\n      jump\t// in\n    tag_259:\n        /* \"#utility.yul\":2312:2342   */\n      swap1\n      pop\n        /* \"#utility.yul\":2351:2384   */\n      tag_260\n        /* \"#utility.yul\":2379:2383   */\n      dup3\n        /* \"#utility.yul\":2371:2377   */\n      dup3\n        /* \"#utility.yul\":2351:2384   */\n      tag_175\n      jump\t// in\n    tag_260:\n        /* \"#utility.yul\":2261:2390   */\n      swap2\n      swap1\n      pop\n      jump\t// out\n        /* \"#utility.yul\":2396:2704   */\n    tag_177:\n        /* \"#utility.yul\":2458:2462   */\n      0x00\n        /* \"#utility.yul\":2548:2566   */\n      0xffffffffffffffff\n        /* \"#utility.yul\":2540:2546   */\n      dup3\n        /* \"#utility.yul\":2537:2567   */\n      gt\n        /* \"#utility.yul\":2534:2590   */\n      iszero\n      tag_262\n      jumpi\n        /* \"#utility.yul\":2570:2588   */\n      tag_263\n      tag_174\n      jump\t// in\n    tag_263:\n        /* \"#utility.yul\":2534:2590   */\n    tag_262:\n        /* \"#utility.yul\":2608:2637   */\n      tag_264\n        /* \"#utility.yul\":2630:2636   */\n      dup3\n        /* \"#utility.yul\":2608:2637   */\n      tag_173\n      jump\t// in\n    tag_264:\n        /* \"#utility.yul\":2600:2637   */\n      swap1\n      pop\n        /* \"#utility.yul\":2692:2696   */\n      0x20\n        /* \"#utility.yul\":2686:2690   */\n      dup2\n        /* \"#utility.yul\":2682:2697   */\n      add\n        /* \"#utility.yul\":2674:2697   */\n      swap1\n      pop\n        /* \"#utility.yul\":2396:2704   */\n      swap2\n      swap1\n      pop\n      jump\t// out\n        /* \"#utility.yul\":2710:2856   */\n    tag_178:\n        /* \"#utility.yul\":2807:2813   */\n      dup3\n        /* \"#utility.yul\":2802:2805   */\n      dup2\n        /* \"#utility.yul\":2797:2800   */\n      dup4\n        /* \"#utility.yul\":2784:2814   */\n      calldatacopy\n        /* \"#utility.yul\":2848:2849   */\n      0x00\n        /* \"#utility.yul\":2839:2845   */\n      dup4\n        /* \"#utility.yul\":2834:2837   */\n      dup4\n        /* \"#utility.yul\":2830:2846   */\n      add\n        /* \"#utility.yul\":2823:2850   */\n      mstore\n        /* \"#utility.yul\":2710:2856   */\n      pop\n      pop\n      pop\n      jump\t// out\n        /* \"#utility.yul\":2862:3287   */\n    tag_179:\n        /* \"#utility.yul\":2940:2945   */\n      0x00\n        /* \"#utility.yul\":2965:3031   */\n      tag_267\n        /* \"#utility.yul\":2981:3030   */\n      tag_268\n        /* \"#utility.yul\":3023:3029   */\n      dup5\n        /* \"#utility.yul\":2981:3030   */\n      tag_177\n      jump\t// in\n    tag_268:\n        /* \"#utility.yul\":2965:3031   */\n      tag_176\n      jump\t// in\n    tag_267:\n        /* \"#utility.yul\":2956:3031   */\n      swap1\n      pop\n        /* \"#utility.yul\":3054:3060   */\n      dup3\n        /* \"#utility.yul\":3047:3052   */\n      dup2\n        /* \"#utility.yul\":3040:3061   */\n      mstore\n        /* \"#utility.yul\":3092:3096   */\n      0x20\n        /* \"#utility.yul\":3085:3090   */\n      dup2\n        /* \"#utility.yul\":3081:3097   */\n      add\n        /* \"#utility.yul\":3130:3133   */\n      dup5\n        /* \"#utility.yul\":3121:3127   */\n      dup5\n        /* \"#utility.yul\":3116:3119   */\n      dup5\n        /* \"#utility.yul\":3112:3128   */\n      add\n        /* \"#utility.yul\":3109:3134   */\n      gt\n        /* \"#utility.yul\":3106:3218   */\n      iszero\n      tag_269\n      jumpi\n        /* \"#utility.yul\":3137:3216   */\n      tag_270\n      tag_172\n      jump\t// in\n    tag_270:\n        /* \"#utility.yul\":3106:3218   */\n    tag_269:\n        /* \"#utility.yul\":3227:3281   */\n      tag_271\n        /* \"#utility.yul\":3274:3280   */\n      dup5\n        /* \"#utility.yul\":3269:3272   */\n      dup3\n        /* \"#utility.yul\":3264:3267   */\n      dup6\n        /* \"#utility.yul\":3227:3281   */\n      tag_178\n      jump\t// in\n    tag_271:\n        /* \"#utility.yul\":2946:3287   */\n      pop\n        /* \"#utility.yul\":2862:3287   */\n      swap4\n      swap3\n      pop\n      pop\n      pop\n      jump\t// out\n        /* \"#utility.yul\":3307:3647   */\n    tag_180:\n        /* \"#utility.yul\":3363:3368   */\n      0x00\n        /* \"#utility.yul\":3412:3415   */\n      dup3\n        /* \"#utility.yul\":3405:3409   */\n      0x1f\n        /* \"#utility.yul\":3397:3403   */\n      dup4\n        /* \"#utility.yul\":3393:3410   */\n      add\n        /* \"#utility.yul\":3389:3416   */\n      slt\n        /* \"#utility.yul\":3379:3501   */\n      tag_273\n      jumpi\n        /* \"#utility.yul\":3420:3499   */\n      tag_274\n      tag_171\n      jump\t// in\n    tag_274:\n        /* \"#utility.yul\":3379:3501   */\n    tag_273:\n        /* \"#utility.yul\":3537:3543   */\n      dup2\n        /* \"#utility.yul\":3524:3544   */\n      calldataload\n        /* \"#utility.yul\":3562:3641   */\n      tag_275\n        /* \"#utility.yul\":3637:3640   */\n      dup5\n        /* \"#utility.yul\":3629:3635   */\n      dup3\n        /* \"#utility.yul\":3622:3626   */\n      0x20\n        /* \"#utility.yul\":3614:3620   */\n      dup7\n        /* \"#utility.yul\":3610:3627   */\n      add\n        /* \"#utility.yul\":3562:3641   */\n      tag_179\n      jump\t// in\n    tag_275:\n        /* \"#utility.yul\":3553:3641   */\n      swap2\n      pop\n        /* \"#utility.yul\":3369:3647   */\n      pop\n        /* \"#utility.yul\":3307:3647   */\n      swap3\n      swap2\n      pop\n      pop\n      jump\t// out\n        /* \"#utility.yul\":3653:4162   */\n    tag_25:\n        /* \"#utility.yul\":3722:3728   */\n      0x00\n        /* \"#utility.yul\":3771:3773   */\n      0x20\n        /* \"#utility.yul\":3759:3768   */\n      dup3\n        /* \"#utility.yul\":3750:3757   */\n      dup5\n        /* \"#utility.yul\":3746:3769   */\n      sub\n        /* \"#utility.yul\":3742:3774   */\n      slt\n        /* \"#utility.yul\":3739:3858   */\n      iszero\n      tag_277\n      jumpi\n        /* \"#utility.yul\":3777:3856   */\n      tag_278\n      tag_169\n      jump\t// in\n    tag_278:\n        /* \"#utility.yul\":3739:3858   */\n    tag_277:\n        /* \"#utility.yul\":3925:3926   */\n      0x00\n        /* \"#utility.yul\":3914:3923   */\n      dup3\n        /* \"#utility.yul\":3910:3927   */\n      add\n        /* \"#utility.yul\":3897:3928   */\n      calldataload\n        /* \"#utility.yul\":3955:3973   */\n      0xffffffffffffffff\n        /* \"#utility.yul\":3947:3953   */\n      dup2\n        /* \"#utility.yul\":3944:3974   */\n      gt\n        /* \"#utility.yul\":3941:4058   */\n      iszero\n      tag_279\n      jumpi\n        /* \"#utility.yul\":3977:4056   */\n      tag_280\n      tag_170\n      jump\t// in\n    tag_280:\n        /* \"#utility.yul\":3941:4058   */\n    tag_279:\n        /* \"#utility.yul\":4082:4145   */\n      tag_281\n        /* \"#utility.yul\":4137:4144   */\n      dup5\n        /* \"#utility.yul\":4128:4134   */\n      dup3\n        /* \"#utility.yul\":4117:4126   */\n      dup6\n        /* \"#utility.yul\":4113:4135   */\n      add\n        /* \"#utility.yul\":4082:4145   */\n      tag_180\n      jump\t// in\n    tag_281:\n        /* \"#utility.yul\":4072:4145   */\n      swap2\n      pop\n        /* \"#utility.yul\":3868:4155   */\n      pop\n        /* \"#utility.yul\":3653:4162   */\n      swap3\n      swap2\n      pop\n      pop\n      jump\t// out\n        /* \"#utility.yul\":4168:4266   */\n    tag_181:\n        /* \"#utility.yul\":4219:4225   */\n      0x00\n        /* \"#utility.yul\":4253:4258   */\n      dup2\n        /* \"#utility.yul\":4247:4259   */\n      mload\n        /* \"#utility.yul\":4237:4259   */\n      swap1\n      pop\n        /* \"#utility.yul\":4168:4266   */\n      swap2\n      swap1\n      pop\n      jump\t// out\n        /* \"#utility.yul\":4272:4430   */\n    tag_182:\n        /* \"#utility.yul\":4345:4356   */\n      0x00\n        /* \"#utility.yul\":4379:4385   */\n      dup3\n        /* \"#utility.yul\":4374:4377   */\n      dup3\n        /* \"#utility.yul\":4367:4386   */\n      mstore\n        /* \"#utility.yul\":4419:4423   */\n      0x20\n        /* \"#utility.yul\":4414:4417   */\n      dup3\n        /* \"#utility.yul\":4410:4424   */\n      add\n        /* \"#utility.yul\":4395:4424   */\n      swap1\n      pop\n        /* \"#utility.yul\":4272:4430   */\n      swap3\n      swap2\n      pop\n      pop\n      jump\t// out\n        /* \"#utility.yul\":4436:4682   */\n    tag_183:\n        /* \"#utility.yul\":4517:4518   */\n      0x00\n        /* \"#utility.yul\":4527:4640   */\n    tag_285:\n        /* \"#utility.yul\":4541:4547   */\n      dup4\n        /* \"#utility.yul\":4538:4539   */\n      dup2\n        /* \"#utility.yul\":4535:4548   */\n      lt\n        /* \"#utility.yul\":4527:4640   */\n      iszero\n      tag_287\n      jumpi\n        /* \"#utility.yul\":4626:4627   */\n      dup1\n        /* \"#utility.yul\":4621:4624   */\n      dup3\n        /* \"#utility.yul\":4617:4628   */\n      add\n        /* \"#utility.yul\":4611:4629   */\n      mload\n        /* \"#utility.yul\":4607:4608   */\n      dup2\n        /* \"#utility.yul\":4602:4605   */\n      dup5\n        /* \"#utility.yul\":4598:4609   */\n      add\n        /* \"#utility.yul\":4591:4630   */\n      mstore\n        /* \"#utility.yul\":4563:4565   */\n      0x20\n        /* \"#utility.yul\":4560:4561   */\n      dup2\n        /* \"#utility.yul\":4556:4566   */\n      add\n        /* \"#utility.yul\":4551:4566   */\n      swap1\n      pop\n        /* \"#utility.yul\":4527:4640   */\n      jump(tag_285)\n    tag_287:\n        /* \"#utility.yul\":4674:4675   */\n      0x00\n        /* \"#utility.yul\":4665:4671   */\n      dup5\n        /* \"#utility.yul\":4660:4663   */\n      dup5\n        /* \"#utility.yul\":4656:4672   */\n      add\n        /* \"#utility.yul\":4649:4676   */\n      mstore\n        /* \"#utility.yul\":4498:4682   */\n      pop\n        /* \"#utility.yul\":4436:4682   */\n      pop\n      pop\n      pop\n      jump\t// out\n        /* \"#utility.yul\":4688:5041   */\n    tag_184:\n        /* \"#utility.yul\":4764:4767   */\n      0x00\n        /* \"#utility.yul\":4792:4830   */\n      tag_289\n        /* \"#utility.yul\":4824:4829   */\n      dup3\n        /* \"#utility.yul\":4792:4830   */\n      tag_181\n      jump\t// in\n    tag_289:\n        /* \"#utility.yul\":4846:4906   */\n      tag_290\n        /* \"#utility.yul\":4899:4905   */\n      dup2\n        /* \"#utility.yul\":4894:4897   */\n      dup6\n        /* \"#utility.yul\":4846:4906   */\n      tag_182\n      jump\t// in\n    tag_290:\n        /* \"#utility.yul\":4839:4906   */\n      swap4\n      pop\n        /* \"#utility.yul\":4915:4980   */\n      tag_291\n        /* \"#utility.yul\":4973:4979   */\n      dup2\n        /* \"#utility.yul\":4968:4971   */\n      dup6\n        /* \"#utility.yul\":4961:4965   */\n      0x20\n        /* \"#utility.yul\":4954:4959   */\n      dup7\n        /* \"#utility.yul\":4950:4966   */\n      add\n        /* \"#utility.yul\":4915:4980   */\n      tag_183\n      jump\t// in\n    tag_291:\n        /* \"#utility.yul\":5005:5034   */\n      tag_292\n        /* \"#utility.yul\":5027:5033   */\n      dup2\n        /* \"#utility.yul\":5005:5034   */\n      tag_173\n      jump\t// in\n    tag_292:\n        /* \"#utility.yul\":5000:5003   */\n      dup5\n        /* \"#utility.yul\":4996:5035   */\n      add\n        /* \"#utility.yul\":4989:5035   */\n      swap2\n      pop\n        /* \"#utility.yul\":4768:5041   */\n      pop\n        /* \"#utility.yul\":4688:5041   */\n      swap3\n      swap2\n      pop\n      pop\n      jump\t// out\n        /* \"#utility.yul\":5047:5124   */\n    tag_185:\n        /* \"#utility.yul\":5084:5091   */\n      0x00\n        /* \"#utility.yul\":5113:5118   */\n      dup2\n        /* \"#utility.yul\":5102:5118   */\n      swap1\n      pop\n        /* \"#utility.yul\":5047:5124   */\n      swap2\n      swap1\n      pop\n      jump\t// out\n        /* \"#utility.yul\":5130:5238   */\n    tag_186:\n        /* \"#utility.yul\":5207:5231   */\n      tag_295\n        /* \"#utility.yul\":5225:5230   */\n      dup2\n        /* \"#utility.yul\":5207:5231   */\n      tag_185\n      jump\t// in\n    tag_295:\n        /* \"#utility.yul\":5202:5205   */\n      dup3\n        /* \"#utility.yul\":5195:5232   */\n      mstore\n        /* \"#utility.yul\":5130:5238   */\n      pop\n      pop\n      jump\t// out\n        /* \"#utility.yul\":5320:5926   */\n    tag_187:\n        /* \"#utility.yul\":5437:5440   */\n      0x00\n        /* \"#utility.yul\":5473:5477   */\n      0x40\n        /* \"#utility.yul\":5468:5471   */\n      dup4\n        /* \"#utility.yul\":5464:5478   */\n      add\n        /* \"#utility.yul\":5559:5563   */\n      0x00\n        /* \"#utility.yul\":5552:5557   */\n      dup4\n        /* \"#utility.yul\":5548:5564   */\n      add\n        /* \"#utility.yul\":5542:5565   */\n      mload\n        /* \"#utility.yul\":5612:5615   */\n      dup5\n        /* \"#utility.yul\":5606:5610   */\n      dup3\n        /* \"#utility.yul\":5602:5616   */\n      sub\n        /* \"#utility.yul\":5595:5599   */\n      0x00\n        /* \"#utility.yul\":5590:5593   */\n      dup7\n        /* \"#utility.yul\":5586:5600   */\n      add\n        /* \"#utility.yul\":5579:5617   */\n      mstore\n        /* \"#utility.yul\":5638:5709   */\n      tag_297\n        /* \"#utility.yul\":5704:5708   */\n      dup3\n        /* \"#utility.yul\":5690:5702   */\n      dup3\n        /* \"#utility.yul\":5638:5709   */\n      tag_184\n      jump\t// in\n    tag_297:\n        /* \"#utility.yul\":5630:5709   */\n      swap2\n      pop\n        /* \"#utility.yul\":5488:5720   */\n      pop\n        /* \"#utility.yul\":5807:5811   */\n      0x20\n        /* \"#utility.yul\":5800:5805   */\n      dup4\n        /* \"#utility.yul\":5796:5812   */\n      add\n        /* \"#utility.yul\":5790:5813   */\n      mload\n        /* \"#utility.yul\":5826:5889   */\n      tag_298\n        /* \"#utility.yul\":5883:5887   */\n      0x20\n        /* \"#utility.yul\":5878:5881   */\n      dup7\n        /* \"#utility.yul\":5874:5888   */\n      add\n        /* \"#utility.yul\":5860:5872   */\n      dup3\n        /* \"#utility.yul\":5826:5889   */\n      tag_186\n      jump\t// in\n    tag_298:\n        /* \"#utility.yul\":5730:5899   */\n      pop\n        /* \"#utility.yul\":5916:5920   */\n      dup1\n        /* \"#utility.yul\":5909:5920   */\n      swap2\n      pop\n        /* \"#utility.yul\":5442:5926   */\n      pop\n        /* \"#utility.yul\":5320:5926   */\n      swap3\n      swap2\n      pop\n      pop\n      jump\t// out\n        /* \"#utility.yul\":5932:6301   */\n    tag_28:\n        /* \"#utility.yul\":6073:6077   */\n      0x00\n        /* \"#utility.yul\":6111:6113   */\n      0x20\n        /* \"#utility.yul\":6100:6109   */\n      dup3\n        /* \"#utility.yul\":6096:6114   */\n      add\n        /* \"#utility.yul\":6088:6114   */\n      swap1\n      pop\n        /* \"#utility.yul\":6160:6169   */\n      dup2\n        /* \"#utility.yul\":6154:6158   */\n      dup2\n        /* \"#utility.yul\":6150:6170   */\n      sub\n        /* \"#utility.yul\":6146:6147   */\n      0x00\n        /* \"#utility.yul\":6135:6144   */\n      dup4\n        /* \"#utility.yul\":6131:6148   */\n      add\n        /* \"#utility.yul\":6124:6171   */\n      mstore\n        /* \"#utility.yul\":6188:6294   */\n      tag_300\n        /* \"#utility.yul\":6289:6293   */\n      dup2\n        /* \"#utility.yul\":6280:6286   */\n      dup5\n        /* \"#utility.yul\":6188:6294   */\n      tag_187\n      jump\t// in\n    tag_300:\n        /* \"#utility.yul\":6180:6294   */\n      swap1\n      pop\n        /* \"#utility.yul\":5932:6301   */\n      swap3\n      swap2\n      pop\n      pop\n      jump\t// out\n        /* \"#utility.yul\":6307:6425   */\n    tag_188:\n        /* \"#utility.yul\":6394:6418   */\n      tag_302\n        /* \"#utility.yul\":6412:6417   */\n      dup2\n        /* \"#utility.yul\":6394:6418   */\n      tag_185\n      jump\t// in\n    tag_302:\n        /* \"#utility.yul\":6389:6392   */\n      dup3\n        /* \"#utility.yul\":6382:6419   */\n      mstore\n        /* \"#utility.yul\":6307:6425   */\n      pop\n      pop\n      jump\t// out\n        /* \"#utility.yul\":6431:6653   */\n    tag_33:\n        /* \"#utility.yul\":6524:6528   */\n      0x00\n        /* \"#utility.yul\":6562:6564   */\n      0x20\n        /* \"#utility.yul\":6551:6560   */\n      dup3\n        /* \"#utility.yul\":6547:6565   */\n      add\n        /* \"#utility.yul\":6539:6565   */\n      swap1\n      pop\n        /* \"#utility.yul\":6575:6646   */\n      tag_304\n        /* \"#utility.yul\":6643:6644   */\n      0x00\n        /* \"#utility.yul\":6632:6641   */\n      dup4\n        /* \"#utility.yul\":6628:6645   */\n      add\n        /* \"#utility.yul\":6619:6625   */\n      dup5\n        /* \"#utility.yul\":6575:6646   */\n      tag_188\n      jump\t// in\n    tag_304:\n        /* \"#utility.yul\":6431:6653   */\n      swap3\n      swap2\n      pop\n      pop\n      jump\t// out\n        /* \"#utility.yul\":6659:6755   */\n    tag_189:\n        /* \"#utility.yul\":6696:6703   */\n      0x00\n        /* \"#utility.yul\":6725:6749   */\n      tag_306\n        /* \"#utility.yul\":6743:6748   */\n      dup3\n        /* \"#utility.yul\":6725:6749   */\n      tag_162\n      jump\t// in\n    tag_306:\n        /* \"#utility.yul\":6714:6749   */\n      swap1\n      pop\n        /* \"#utility.yul\":6659:6755   */\n      swap2\n      swap1\n      pop\n      jump\t// out\n        /* \"#utility.yul\":6761:6879   */\n    tag_190:\n        /* \"#utility.yul\":6848:6872   */\n      tag_308\n        /* \"#utility.yul\":6866:6871   */\n      dup2\n        /* \"#utility.yul\":6848:6872   */\n      tag_189\n      jump\t// in\n    tag_308:\n        /* \"#utility.yul\":6843:6846   */\n      dup3\n        /* \"#utility.yul\":6836:6873   */\n      mstore\n        /* \"#utility.yul\":6761:6879   */\n      pop\n      pop\n      jump\t// out\n        /* \"#utility.yul\":6885:7107   */\n    tag_41:\n        /* \"#utility.yul\":6978:6982   */\n      0x00\n        /* \"#utility.yul\":7016:7018   */\n      0x20\n        /* \"#utility.yul\":7005:7014   */\n      dup3\n        /* \"#utility.yul\":7001:7019   */\n      add\n        /* \"#utility.yul\":6993:7019   */\n      swap1\n      pop\n        /* \"#utility.yul\":7029:7100   */\n      tag_310\n        /* \"#utility.yul\":7097:7098   */\n      0x00\n        /* \"#utility.yul\":7086:7095   */\n      dup4\n        /* \"#utility.yul\":7082:7099   */\n      add\n        /* \"#utility.yul\":7073:7079   */\n      dup5\n        /* \"#utility.yul\":7029:7100   */\n      tag_190\n      jump\t// in\n    tag_310:\n        /* \"#utility.yul\":6885:7107   */\n      swap3\n      swap2\n      pop\n      pop\n      jump\t// out\n        /* \"#utility.yul\":7113:7235   */\n    tag_191:\n        /* \"#utility.yul\":7186:7210   */\n      tag_312\n        /* \"#utility.yul\":7204:7209   */\n      dup2\n        /* \"#utility.yul\":7186:7210   */\n      tag_185\n      jump\t// in\n    tag_312:\n        /* \"#utility.yul\":7179:7184   */\n      dup2\n        /* \"#utility.yul\":7176:7211   */\n      eq\n        /* \"#utility.yul\":7166:7229   */\n      tag_313\n      jumpi\n        /* \"#utility.yul\":7225:7226   */\n      0x00\n        /* \"#utility.yul\":7222:7223   */\n      dup1\n        /* \"#utility.yul\":7215:7227   */\n      revert\n        /* \"#utility.yul\":7166:7229   */\n    tag_313:\n        /* \"#utility.yul\":7113:7235   */\n      pop\n      jump\t// out\n        /* \"#utility.yul\":7241:7380   */\n    tag_192:\n        /* \"#utility.yul\":7287:7292   */\n      0x00\n        /* \"#utility.yul\":7325:7331   */\n      dup2\n        /* \"#utility.yul\":7312:7332   */\n      calldataload\n        /* \"#utility.yul\":7303:7332   */\n      swap1\n      pop\n        /* \"#utility.yul\":7341:7374   */\n      tag_315\n        /* \"#utility.yul\":7368:7373   */\n      dup2\n        /* \"#utility.yul\":7341:7374   */\n      tag_191\n      jump\t// in\n    tag_315:\n        /* \"#utility.yul\":7241:7380   */\n      swap3\n      swap2\n      pop\n      pop\n      jump\t// out\n        /* \"#utility.yul\":7386:7508   */\n    tag_193:\n        /* \"#utility.yul\":7459:7483   */\n      tag_317\n        /* \"#utility.yul\":7477:7482   */\n      dup2\n        /* \"#utility.yul\":7459:7483   */\n      tag_189\n      jump\t// in\n    tag_317:\n        /* \"#utility.yul\":7452:7457   */\n      dup2\n        /* \"#utility.yul\":7449:7484   */\n      eq\n        /* \"#utility.yul\":7439:7502   */\n      tag_318\n      jumpi\n        /* \"#utility.yul\":7498:7499   */\n      0x00\n        /* \"#utility.yul\":7495:7496   */\n      dup1\n        /* \"#utility.yul\":7488:7500   */\n      revert\n        /* \"#utility.yul\":7439:7502   */\n    tag_318:\n        /* \"#utility.yul\":7386:7508   */\n      pop\n      jump\t// out\n        /* \"#utility.yul\":7514:7653   */\n    tag_194:\n        /* \"#utility.yul\":7560:7565   */\n      0x00\n        /* \"#utility.yul\":7598:7604   */\n      dup2\n        /* \"#utility.yul\":7585:7605   */\n      calldataload\n        /* \"#utility.yul\":7576:7605   */\n      swap1\n      pop\n        /* \"#utility.yul\":7614:7647   */\n      tag_320\n        /* \"#utility.yul\":7641:7646   */\n      dup2\n        /* \"#utility.yul\":7614:7647   */\n      tag_193\n      jump\t// in\n    tag_320:\n        /* \"#utility.yul\":7514:7653   */\n      swap3\n      swap2\n      pop\n      pop\n      jump\t// out\n        /* \"#utility.yul\":7659:8278   */\n    tag_45:\n        /* \"#utility.yul\":7736:7742   */\n      0x00\n        /* \"#utility.yul\":7744:7750   */\n      dup1\n        /* \"#utility.yul\":7752:7758   */\n      0x00\n        /* \"#utility.yul\":7801:7803   */\n      0x60\n        /* \"#utility.yul\":7789:7798   */\n      dup5\n        /* \"#utility.yul\":7780:7787   */\n      dup7\n        /* \"#utility.yul\":7776:7799   */\n      sub\n        /* \"#utility.yul\":7772:7804   */\n      slt\n        /* \"#utility.yul\":7769:7888   */\n      iszero\n      tag_322\n      jumpi\n        /* \"#utility.yul\":7807:7886   */\n      tag_323\n      tag_169\n      jump\t// in\n    tag_323:\n        /* \"#utility.yul\":7769:7888   */\n    tag_322:\n        /* \"#utility.yul\":7927:7928   */\n      0x00\n        /* \"#utility.yul\":7952:8005   */\n      tag_324\n        /* \"#utility.yul\":7997:8004   */\n      dup7\n        /* \"#utility.yul\":7988:7994   */\n      dup3\n        /* \"#utility.yul\":7977:7986   */\n      dup8\n        /* \"#utility.yul\":7973:7995   */\n      add\n        /* \"#utility.yul\":7952:8005   */\n      tag_192\n      jump\t// in\n    tag_324:\n        /* \"#utility.yul\":7942:8005   */\n      swap4\n      pop\n        /* \"#utility.yul\":7898:8015   */\n      pop\n        /* \"#utility.yul\":8054:8056   */\n      0x20\n        /* \"#utility.yul\":8080:8133   */\n      tag_325\n        /* \"#utility.yul\":8125:8132   */\n      dup7\n        /* \"#utility.yul\":8116:8122   */\n      dup3\n        /* \"#utility.yul\":8105:8114   */\n      dup8\n        /* \"#utility.yul\":8101:8123   */\n      add\n        /* \"#utility.yul\":8080:8133   */\n      tag_194\n      jump\t// in\n    tag_325:\n        /* \"#utility.yul\":8070:8133   */\n      swap3\n      pop\n        /* \"#utility.yul\":8025:8143   */\n      pop\n        /* \"#utility.yul\":8182:8184   */\n      0x40\n        /* \"#utility.yul\":8208:8261   */\n      tag_326\n        /* \"#utility.yul\":8253:8260   */\n      dup7\n        /* \"#utility.yul\":8244:8250   */\n      dup3\n        /* \"#utility.yul\":8233:8242   */\n      dup8\n        /* \"#utility.yul\":8229:8251   */\n      add\n        /* \"#utility.yul\":8208:8261   */\n      tag_192\n      jump\t// in\n    tag_326:\n        /* \"#utility.yul\":8198:8261   */\n      swap2\n      pop\n        /* \"#utility.yul\":8153:8271   */\n      pop\n        /* \"#utility.yul\":7659:8278   */\n      swap3\n      pop\n      swap3\n      pop\n      swap3\n      jump\t// out\n        /* \"#utility.yul\":8284:8613   */\n    tag_53:\n        /* \"#utility.yul\":8343:8349   */\n      0x00\n        /* \"#utility.yul\":8392:8394   */\n      0x20\n        /* \"#utility.yul\":8380:8389   */\n      dup3\n        /* \"#utility.yul\":8371:8378   */\n      dup5\n        /* \"#utility.yul\":8367:8390   */\n      sub\n        /* \"#utility.yul\":8363:8395   */\n      slt\n        /* \"#utility.yul\":8360:8479   */\n      iszero\n      tag_328\n      jumpi\n        /* \"#utility.yul\":8398:8477   */\n      tag_329\n      tag_169\n      jump\t// in\n    tag_329:\n        /* \"#utility.yul\":8360:8479   */\n    tag_328:\n        /* \"#utility.yul\":8518:8519   */\n      0x00\n        /* \"#utility.yul\":8543:8596   */\n      tag_330\n        /* \"#utility.yul\":8588:8595   */\n      dup5\n        /* \"#utility.yul\":8579:8585   */\n      dup3\n        /* \"#utility.yul\":8568:8577   */\n      dup6\n        /* \"#utility.yul\":8564:8586   */\n      add\n        /* \"#utility.yul\":8543:8596   */\n      tag_194\n      jump\t// in\n    tag_330:\n        /* \"#utility.yul\":8533:8596   */\n      swap2\n      pop\n        /* \"#utility.yul\":8489:8606   */\n      pop\n        /* \"#utility.yul\":8284:8613   */\n      swap3\n      swap2\n      pop\n      pop\n      jump\t// out\n        /* \"#utility.yul\":8619:8948   */\n    tag_59:\n        /* \"#utility.yul\":8678:8684   */\n      0x00\n        /* \"#utility.yul\":8727:8729   */\n      0x20\n        /* \"#utility.yul\":8715:8724   */\n      dup3\n        /* \"#utility.yul\":8706:8713   */\n      dup5\n        /* \"#utility.yul\":8702:8725   */\n      sub\n        /* \"#utility.yul\":8698:8730   */\n      slt\n        /* \"#utility.yul\":8695:8814   */\n      iszero\n      tag_332\n      jumpi\n        /* \"#utility.yul\":8733:8812   */\n      tag_333\n      tag_169\n      jump\t// in\n    tag_333:\n        /* \"#utility.yul\":8695:8814   */\n    tag_332:\n        /* \"#utility.yul\":8853:8854   */\n      0x00\n        /* \"#utility.yul\":8878:8931   */\n      tag_334\n        /* \"#utility.yul\":8923:8930   */\n      dup5\n        /* \"#utility.yul\":8914:8920   */\n      dup3\n        /* \"#utility.yul\":8903:8912   */\n      dup6\n        /* \"#utility.yul\":8899:8921   */\n      add\n        /* \"#utility.yul\":8878:8931   */\n      tag_192\n      jump\t// in\n    tag_334:\n        /* \"#utility.yul\":8868:8931   */\n      swap2\n      pop\n        /* \"#utility.yul\":8824:8941   */\n      pop\n        /* \"#utility.yul\":8619:8948   */\n      swap3\n      swap2\n      pop\n      pop\n      jump\t// out\n        /* \"#utility.yul\":8954:9428   */\n    tag_69:\n        /* \"#utility.yul\":9022:9028   */\n      0x00\n        /* \"#utility.yul\":9030:9036   */\n      dup1\n        /* \"#utility.yul\":9079:9081   */\n      0x40\n        /* \"#utility.yul\":9067:9076   */\n      dup4\n        /* \"#utility.yul\":9058:9065   */\n      dup6\n        /* \"#utility.yul\":9054:9077   */\n      sub\n        /* \"#utility.yul\":9050:9082   */\n      slt\n        /* \"#utility.yul\":9047:9166   */\n      iszero\n      tag_336\n      jumpi\n        /* \"#utility.yul\":9085:9164   */\n      tag_337\n      tag_169\n      jump\t// in\n    tag_337:\n        /* \"#utility.yul\":9047:9166   */\n    tag_336:\n        /* \"#utility.yul\":9205:9206   */\n      0x00\n        /* \"#utility.yul\":9230:9283   */\n      tag_338\n        /* \"#utility.yul\":9275:9282   */\n      dup6\n        /* \"#utility.yul\":9266:9272   */\n      dup3\n        /* \"#utility.yul\":9255:9264   */\n      dup7\n        /* \"#utility.yul\":9251:9273   */\n      add\n        /* \"#utility.yul\":9230:9283   */\n      tag_194\n      jump\t// in\n    tag_338:\n        /* \"#utility.yul\":9220:9283   */\n      swap3\n      pop\n        /* \"#utility.yul\":9176:9293   */\n      pop\n        /* \"#utility.yul\":9332:9334   */\n      0x20\n        /* \"#utility.yul\":9358:9411   */\n      tag_339\n        /* \"#utility.yul\":9403:9410   */\n      dup6\n        /* \"#utility.yul\":9394:9400   */\n      dup3\n        /* \"#utility.yul\":9383:9392   */\n      dup7\n        /* \"#utility.yul\":9379:9401   */\n      add\n        /* \"#utility.yul\":9358:9411   */\n      tag_192\n      jump\t// in\n    tag_339:\n        /* \"#utility.yul\":9348:9411   */\n      swap2\n      pop\n        /* \"#utility.yul\":9303:9421   */\n      pop\n        /* \"#utility.yul\":8954:9428   */\n      swap3\n      pop\n      swap3\n      swap1\n      pop\n      jump\t// out\n        /* \"#utility.yul\":9434:9524   */\n    tag_195:\n        /* \"#utility.yul\":9468:9475   */\n      0x00\n        /* \"#utility.yul\":9511:9516   */\n      dup2\n        /* \"#utility.yul\":9504:9517   */\n      iszero\n        /* \"#utility.yul\":9497:9518   */\n      iszero\n        /* \"#utility.yul\":9486:9518   */\n      swap1\n      pop\n        /* \"#utility.yul\":9434:9524   */\n      swap2\n      swap1\n      pop\n      jump\t// out\n        /* \"#utility.yul\":9530:9639   */\n    tag_196:\n        /* \"#utility.yul\":9611:9632   */\n      tag_342\n        /* \"#utility.yul\":9626:9631   */\n      dup2\n        /* \"#utility.yul\":9611:9632   */\n      tag_195\n      jump\t// in\n    tag_342:\n        /* \"#utility.yul\":9606:9609   */\n      dup3\n        /* \"#utility.yul\":9599:9633   */\n      mstore\n        /* \"#utility.yul\":9530:9639   */\n      pop\n      pop\n      jump\t// out\n        /* \"#utility.yul\":9645:9744   */\n    tag_197:\n        /* \"#utility.yul\":9697:9703   */\n      0x00\n        /* \"#utility.yul\":9731:9736   */\n      dup2\n        /* \"#utility.yul\":9725:9737   */\n      mload\n        /* \"#utility.yul\":9715:9737   */\n      swap1\n      pop\n        /* \"#utility.yul\":9645:9744   */\n      swap2\n      swap1\n      pop\n      jump\t// out\n        /* \"#utility.yul\":9750:9919   */\n    tag_198:\n        /* \"#utility.yul\":9834:9845   */\n      0x00\n        /* \"#utility.yul\":9868:9874   */\n      dup3\n        /* \"#utility.yul\":9863:9866   */\n      dup3\n        /* \"#utility.yul\":9856:9875   */\n      mstore\n        /* \"#utility.yul\":9908:9912   */\n      0x20\n        /* \"#utility.yul\":9903:9906   */\n      dup3\n        /* \"#utility.yul\":9899:9913   */\n      add\n        /* \"#utility.yul\":9884:9913   */\n      swap1\n      pop\n        /* \"#utility.yul\":9750:9919   */\n      swap3\n      swap2\n      pop\n      pop\n      jump\t// out\n        /* \"#utility.yul\":9925:10302   */\n    tag_199:\n        /* \"#utility.yul\":10013:10016   */\n      0x00\n        /* \"#utility.yul\":10041:10080   */\n      tag_346\n        /* \"#utility.yul\":10074:10079   */\n      dup3\n        /* \"#utility.yul\":10041:10080   */\n      tag_197\n      jump\t// in\n    tag_346:\n        /* \"#utility.yul\":10096:10167   */\n      tag_347\n        /* \"#utility.yul\":10160:10166   */\n      dup2\n        /* \"#utility.yul\":10155:10158   */\n      dup6\n        /* \"#utility.yul\":10096:10167   */\n      tag_198\n      jump\t// in\n    tag_347:\n        /* \"#utility.yul\":10089:10167   */\n      swap4\n      pop\n        /* \"#utility.yul\":10176:10241   */\n      tag_348\n        /* \"#utility.yul\":10234:10240   */\n      dup2\n        /* \"#utility.yul\":10229:10232   */\n      dup6\n        /* \"#utility.yul\":10222:10226   */\n      0x20\n        /* \"#utility.yul\":10215:10220   */\n      dup7\n        /* \"#utility.yul\":10211:10227   */\n      add\n        /* \"#utility.yul\":10176:10241   */\n      tag_183\n      jump\t// in\n    tag_348:\n        /* \"#utility.yul\":10266:10295   */\n      tag_349\n        /* \"#utility.yul\":10288:10294   */\n      dup2\n        /* \"#utility.yul\":10266:10295   */\n      tag_173\n      jump\t// in\n    tag_349:\n        /* \"#utility.yul\":10261:10264   */\n      dup5\n        /* \"#utility.yul\":10257:10296   */\n      add\n        /* \"#utility.yul\":10250:10296   */\n      swap2\n      pop\n        /* \"#utility.yul\":10017:10302   */\n      pop\n        /* \"#utility.yul\":9925:10302   */\n      swap3\n      swap2\n      pop\n      pop\n      jump\t// out\n        /* \"#utility.yul\":10308:11261   */\n    tag_72:\n        /* \"#utility.yul\":10577:10581   */\n      0x00\n        /* \"#utility.yul\":10615:10618   */\n      0xe0\n        /* \"#utility.yul\":10604:10613   */\n      dup3\n        /* \"#utility.yul\":10600:10619   */\n      add\n        /* \"#utility.yul\":10592:10619   */\n      swap1\n      pop\n        /* \"#utility.yul\":10629:10700   */\n      tag_351\n        /* \"#utility.yul\":10697:10698   */\n      0x00\n        /* \"#utility.yul\":10686:10695   */\n      dup4\n        /* \"#utility.yul\":10682:10699   */\n      add\n        /* \"#utility.yul\":10673:10679   */\n      dup11\n        /* \"#utility.yul\":10629:10700   */\n      tag_190\n      jump\t// in\n    tag_351:\n        /* \"#utility.yul\":10710:10776   */\n      tag_352\n        /* \"#utility.yul\":10772:10774   */\n      0x20\n        /* \"#utility.yul\":10761:10770   */\n      dup4\n        /* \"#utility.yul\":10757:10775   */\n      add\n        /* \"#utility.yul\":10748:10754   */\n      dup10\n        /* \"#utility.yul\":10710:10776   */\n      tag_196\n      jump\t// in\n    tag_352:\n        /* \"#utility.yul\":10786:10858   */\n      tag_353\n        /* \"#utility.yul\":10854:10856   */\n      0x40\n        /* \"#utility.yul\":10843:10852   */\n      dup4\n        /* \"#utility.yul\":10839:10857   */\n      add\n        /* \"#utility.yul\":10830:10836   */\n      dup9\n        /* \"#utility.yul\":10786:10858   */\n      tag_188\n      jump\t// in\n    tag_353:\n        /* \"#utility.yul\":10868:10940   */\n      tag_354\n        /* \"#utility.yul\":10936:10938   */\n      0x60\n        /* \"#utility.yul\":10925:10934   */\n      dup4\n        /* \"#utility.yul\":10921:10939   */\n      add\n        /* \"#utility.yul\":10912:10918   */\n      dup8\n        /* \"#utility.yul\":10868:10940   */\n      tag_188\n      jump\t// in\n    tag_354:\n        /* \"#utility.yul\":10950:11017   */\n      tag_355\n        /* \"#utility.yul\":11012:11015   */\n      0x80\n        /* \"#utility.yul\":11001:11010   */\n      dup4\n        /* \"#utility.yul\":10997:11016   */\n      add\n        /* \"#utility.yul\":10988:10994   */\n      dup7\n        /* \"#utility.yul\":10950:11017   */\n      tag_196\n      jump\t// in\n    tag_355:\n        /* \"#utility.yul\":11065:11074   */\n      dup2\n        /* \"#utility.yul\":11059:11063   */\n      dup2\n        /* \"#utility.yul\":11055:11075   */\n      sub\n        /* \"#utility.yul\":11049:11052   */\n      0xa0\n        /* \"#utility.yul\":11038:11047   */\n      dup4\n        /* \"#utility.yul\":11034:11053   */\n      add\n        /* \"#utility.yul\":11027:11076   */\n      mstore\n        /* \"#utility.yul\":11093:11171   */\n      tag_356\n        /* \"#utility.yul\":11166:11170   */\n      dup2\n        /* \"#utility.yul\":11157:11163   */\n      dup6\n        /* \"#utility.yul\":11093:11171   */\n      tag_199\n      jump\t// in\n    tag_356:\n        /* \"#utility.yul\":11085:11171   */\n      swap1\n      pop\n        /* \"#utility.yul\":11181:11254   */\n      tag_357\n        /* \"#utility.yul\":11249:11252   */\n      0xc0\n        /* \"#utility.yul\":11238:11247   */\n      dup4\n        /* \"#utility.yul\":11234:11253   */\n      add\n        /* \"#utility.yul\":11225:11231   */\n      dup5\n        /* \"#utility.yul\":11181:11254   */\n      tag_188\n      jump\t// in\n    tag_357:\n        /* \"#utility.yul\":10308:11261   */\n      swap9\n      swap8\n      pop\n      pop\n      pop\n      pop\n      pop\n      pop\n      pop\n      pop\n      jump\t// out\n        /* \"#utility.yul\":11267:11580   */\n    tag_86:\n        /* \"#utility.yul\":11380:11384   */\n      0x00\n        /* \"#utility.yul\":11418:11420   */\n      0x20\n        /* \"#utility.yul\":11407:11416   */\n      dup3\n        /* \"#utility.yul\":11403:11421   */\n      add\n        /* \"#utility.yul\":11395:11421   */\n      swap1\n      pop\n        /* \"#utility.yul\":11467:11476   */\n      dup2\n        /* \"#utility.yul\":11461:11465   */\n      dup2\n        /* \"#utility.yul\":11457:11477   */\n      sub\n        /* \"#utility.yul\":11453:11454   */\n      0x00\n        /* \"#utility.yul\":11442:11451   */\n      dup4\n        /* \"#utility.yul\":11438:11455   */\n      add\n        /* \"#utility.yul\":11431:11478   */\n      mstore\n        /* \"#utility.yul\":11495:11573   */\n      tag_359\n        /* \"#utility.yul\":11568:11572   */\n      dup2\n        /* \"#utility.yul\":11559:11565   */\n      dup5\n        /* \"#utility.yul\":11495:11573   */\n      tag_199\n      jump\t// in\n    tag_359:\n        /* \"#utility.yul\":11487:11573   */\n      swap1\n      pop\n        /* \"#utility.yul\":11267:11580   */\n      swap3\n      swap2\n      pop\n      pop\n      jump\t// out\n        /* \"#utility.yul\":11586:11703   */\n    tag_200:\n        /* \"#utility.yul\":11695:11696   */\n      0x00\n        /* \"#utility.yul\":11692:11693   */\n      dup1\n        /* \"#utility.yul\":11685:11697   */\n      revert\n        /* \"#utility.yul\":11709:11826   */\n    tag_201:\n        /* \"#utility.yul\":11818:11819   */\n      0x00\n        /* \"#utility.yul\":11815:11816   */\n      dup1\n        /* \"#utility.yul\":11808:11820   */\n      revert\n        /* \"#utility.yul\":11832:12139   */\n    tag_202:\n        /* \"#utility.yul\":11893:11897   */\n      0x00\n        /* \"#utility.yul\":11983:12001   */\n      0xffffffffffffffff\n        /* \"#utility.yul\":11975:11981   */\n      dup3\n        /* \"#utility.yul\":11972:12002   */\n      gt\n        /* \"#utility.yul\":11969:12025   */\n      iszero\n      tag_363\n      jumpi\n        /* \"#utility.yul\":12005:12023   */\n      tag_364\n      tag_174\n      jump\t// in\n    tag_364:\n        /* \"#utility.yul\":11969:12025   */\n    tag_363:\n        /* \"#utility.yul\":12043:12072   */\n      tag_365\n        /* \"#utility.yul\":12065:12071   */\n      dup3\n        /* \"#utility.yul\":12043:12072   */\n      tag_173\n      jump\t// in\n    tag_365:\n        /* \"#utility.yul\":12035:12072   */\n      swap1\n      pop\n        /* \"#utility.yul\":12127:12131   */\n      0x20\n        /* \"#utility.yul\":12121:12125   */\n      dup2\n        /* \"#utility.yul\":12117:12132   */\n      add\n        /* \"#utility.yul\":12109:12132   */\n      swap1\n      pop\n        /* \"#utility.yul\":11832:12139   */\n      swap2\n      swap1\n      pop\n      jump\t// out\n        /* \"#utility.yul\":12145:12577   */\n    tag_203:\n        /* \"#utility.yul\":12233:12238   */\n      0x00\n        /* \"#utility.yul\":12258:12323   */\n      tag_367\n        /* \"#utility.yul\":12274:12322   */\n      tag_368\n        /* \"#utility.yul\":12315:12321   */\n      dup5\n        /* \"#utility.yul\":12274:12322   */\n      tag_202\n      jump\t// in\n    tag_368:\n        /* \"#utility.yul\":12258:12323   */\n      tag_176\n      jump\t// in\n    tag_367:\n        /* \"#utility.yul\":12249:12323   */\n      swap1\n      pop\n        /* \"#utility.yul\":12346:12352   */\n      dup3\n        /* \"#utility.yul\":12339:12344   */\n      dup2\n        /* \"#utility.yul\":12332:12353   */\n      mstore\n        /* \"#utility.yul\":12384:12388   */\n      0x20\n        /* \"#utility.yul\":12377:12382   */\n      dup2\n        /* \"#utility.yul\":12373:12389   */\n      add\n        /* \"#utility.yul\":12422:12425   */\n      dup5\n        /* \"#utility.yul\":12413:12419   */\n      dup5\n        /* \"#utility.yul\":12408:12411   */\n      dup5\n        /* \"#utility.yul\":12404:12420   */\n      add\n        /* \"#utility.yul\":12401:12426   */\n      gt\n        /* \"#utility.yul\":12398:12510   */\n      iszero\n      tag_369\n      jumpi\n        /* \"#utility.yul\":12429:12508   */\n      tag_370\n      tag_172\n      jump\t// in\n    tag_370:\n        /* \"#utility.yul\":12398:12510   */\n    tag_369:\n        /* \"#utility.yul\":12519:12571   */\n      tag_371\n        /* \"#utility.yul\":12564:12570   */\n      dup5\n        /* \"#utility.yul\":12559:12562   */\n      dup3\n        /* \"#utility.yul\":12554:12557   */\n      dup6\n        /* \"#utility.yul\":12519:12571   */\n      tag_183\n      jump\t// in\n    tag_371:\n        /* \"#utility.yul\":12239:12577   */\n      pop\n        /* \"#utility.yul\":12145:12577   */\n      swap4\n      swap3\n      pop\n      pop\n      pop\n      jump\t// out\n        /* \"#utility.yul\":12596:12949   */\n    tag_204:\n        /* \"#utility.yul\":12662:12667   */\n      0x00\n        /* \"#utility.yul\":12711:12714   */\n      dup3\n        /* \"#utility.yul\":12704:12708   */\n      0x1f\n        /* \"#utility.yul\":12696:12702   */\n      dup4\n        /* \"#utility.yul\":12692:12709   */\n      add\n        /* \"#utility.yul\":12688:12715   */\n      slt\n        /* \"#utility.yul\":12678:12800   */\n      tag_373\n      jumpi\n        /* \"#utility.yul\":12719:12798   */\n      tag_374\n      tag_171\n      jump\t// in\n    tag_374:\n        /* \"#utility.yul\":12678:12800   */\n    tag_373:\n        /* \"#utility.yul\":12829:12835   */\n      dup2\n        /* \"#utility.yul\":12823:12836   */\n      mload\n        /* \"#utility.yul\":12854:12943   */\n      tag_375\n        /* \"#utility.yul\":12939:12942   */\n      dup5\n        /* \"#utility.yul\":12931:12937   */\n      dup3\n        /* \"#utility.yul\":12924:12928   */\n      0x20\n        /* \"#utility.yul\":12916:12922   */\n      dup7\n        /* \"#utility.yul\":12912:12929   */\n      add\n        /* \"#utility.yul\":12854:12943   */\n      tag_203\n      jump\t// in\n    tag_375:\n        /* \"#utility.yul\":12845:12943   */\n      swap2\n      pop\n        /* \"#utility.yul\":12668:12949   */\n      pop\n        /* \"#utility.yul\":12596:12949   */\n      swap3\n      swap2\n      pop\n      pop\n      jump\t// out\n        /* \"#utility.yul\":12955:13098   */\n    tag_205:\n        /* \"#utility.yul\":13012:13017   */\n      0x00\n        /* \"#utility.yul\":13043:13049   */\n      dup2\n        /* \"#utility.yul\":13037:13050   */\n      mload\n        /* \"#utility.yul\":13028:13050   */\n      swap1\n      pop\n        /* \"#utility.yul\":13059:13092   */\n      tag_377\n        /* \"#utility.yul\":13086:13091   */\n      dup2\n        /* \"#utility.yul\":13059:13092   */\n      tag_191\n      jump\t// in\n    tag_377:\n        /* \"#utility.yul\":12955:13098   */\n      swap3\n      swap2\n      pop\n      pop\n      jump\t// out\n        /* \"#utility.yul\":13144:13916   */\n    tag_206:\n        /* \"#utility.yul\":13228:13233   */\n      0x00\n        /* \"#utility.yul\":13272:13276   */\n      0x40\n        /* \"#utility.yul\":13260:13269   */\n      dup3\n        /* \"#utility.yul\":13255:13258   */\n      dup5\n        /* \"#utility.yul\":13251:13270   */\n      sub\n        /* \"#utility.yul\":13247:13277   */\n      slt\n        /* \"#utility.yul\":13244:13361   */\n      iszero\n      tag_379\n      jumpi\n        /* \"#utility.yul\":13280:13359   */\n      tag_380\n      tag_200\n      jump\t// in\n    tag_380:\n        /* \"#utility.yul\":13244:13361   */\n    tag_379:\n        /* \"#utility.yul\":13379:13400   */\n      tag_381\n        /* \"#utility.yul\":13395:13399   */\n      0x40\n        /* \"#utility.yul\":13379:13400   */\n      tag_176\n      jump\t// in\n    tag_381:\n        /* \"#utility.yul\":13370:13400   */\n      swap1\n      pop\n        /* \"#utility.yul\":13479:13480   */\n      0x00\n        /* \"#utility.yul\":13468:13477   */\n      dup3\n        /* \"#utility.yul\":13464:13481   */\n      add\n        /* \"#utility.yul\":13458:13482   */\n      mload\n        /* \"#utility.yul\":13509:13527   */\n      0xffffffffffffffff\n        /* \"#utility.yul\":13501:13507   */\n      dup2\n        /* \"#utility.yul\":13498:13528   */\n      gt\n        /* \"#utility.yul\":13495:13612   */\n      iszero\n      tag_382\n      jumpi\n        /* \"#utility.yul\":13531:13610   */\n      tag_383\n      tag_201\n      jump\t// in\n    tag_383:\n        /* \"#utility.yul\":13495:13612   */\n    tag_382:\n        /* \"#utility.yul\":13651:13720   */\n      tag_384\n        /* \"#utility.yul\":13716:13719   */\n      dup5\n        /* \"#utility.yul\":13707:13713   */\n      dup3\n        /* \"#utility.yul\":13696:13705   */\n      dup6\n        /* \"#utility.yul\":13692:13714   */\n      add\n        /* \"#utility.yul\":13651:13720   */\n      tag_204\n      jump\t// in\n    tag_384:\n        /* \"#utility.yul\":13644:13648   */\n      0x00\n        /* \"#utility.yul\":13637:13642   */\n      dup4\n        /* \"#utility.yul\":13633:13649   */\n      add\n        /* \"#utility.yul\":13626:13721   */\n      mstore\n        /* \"#utility.yul\":13410:13732   */\n      pop\n        /* \"#utility.yul\":13796:13798   */\n      0x20\n        /* \"#utility.yul\":13837:13897   */\n      tag_385\n        /* \"#utility.yul\":13893:13896   */\n      dup5\n        /* \"#utility.yul\":13884:13890   */\n      dup3\n        /* \"#utility.yul\":13873:13882   */\n      dup6\n        /* \"#utility.yul\":13869:13891   */\n      add\n        /* \"#utility.yul\":13837:13897   */\n      tag_205\n      jump\t// in\n    tag_385:\n        /* \"#utility.yul\":13830:13834   */\n      0x20\n        /* \"#utility.yul\":13823:13828   */\n      dup4\n        /* \"#utility.yul\":13819:13835   */\n      add\n        /* \"#utility.yul\":13812:13898   */\n      mstore\n        /* \"#utility.yul\":13742:13909   */\n      pop\n        /* \"#utility.yul\":13144:13916   */\n      swap3\n      swap2\n      pop\n      pop\n      jump\t// out\n        /* \"#utility.yul\":13922:14474   */\n    tag_90:\n        /* \"#utility.yul\":14016:14022   */\n      0x00\n        /* \"#utility.yul\":14065:14067   */\n      0x20\n        /* \"#utility.yul\":14053:14062   */\n      dup3\n        /* \"#utility.yul\":14044:14051   */\n      dup5\n        /* \"#utility.yul\":14040:14063   */\n      sub\n        /* \"#utility.yul\":14036:14068   */\n      slt\n        /* \"#utility.yul\":14033:14152   */\n      iszero\n      tag_387\n      jumpi\n        /* \"#utility.yul\":14071:14150   */\n      tag_388\n      tag_169\n      jump\t// in\n    tag_388:\n        /* \"#utility.yul\":14033:14152   */\n    tag_387:\n        /* \"#utility.yul\":14212:14213   */\n      0x00\n        /* \"#utility.yul\":14201:14210   */\n      dup3\n        /* \"#utility.yul\":14197:14214   */\n      add\n        /* \"#utility.yul\":14191:14215   */\n      mload\n        /* \"#utility.yul\":14242:14260   */\n      0xffffffffffffffff\n        /* \"#utility.yul\":14234:14240   */\n      dup2\n        /* \"#utility.yul\":14231:14261   */\n      gt\n        /* \"#utility.yul\":14228:14345   */\n      iszero\n      tag_389\n      jumpi\n        /* \"#utility.yul\":14264:14343   */\n      tag_390\n      tag_170\n      jump\t// in\n    tag_390:\n        /* \"#utility.yul\":14228:14345   */\n    tag_389:\n        /* \"#utility.yul\":14369:14457   */\n      tag_391\n        /* \"#utility.yul\":14449:14456   */\n      dup5\n        /* \"#utility.yul\":14440:14446   */\n      dup3\n        /* \"#utility.yul\":14429:14438   */\n      dup6\n        /* \"#utility.yul\":14425:14447   */\n      add\n        /* \"#utility.yul\":14369:14457   */\n      tag_206\n      jump\t// in\n    tag_391:\n        /* \"#utility.yul\":14359:14457   */\n      swap2\n      pop\n        /* \"#utility.yul\":14162:14467   */\n      pop\n        /* \"#utility.yul\":13922:14474   */\n      swap3\n      swap2\n      pop\n      pop\n      jump\t// out\n        /* \"#utility.yul\":14480:14650   */\n    tag_207:\n        /* \"#utility.yul\":14620:14642   */\n      0x436f6e7472616374206973206e6f74206f70656e000000000000000000000000\n        /* \"#utility.yul\":14616:14617   */\n      0x00\n        /* \"#utility.yul\":14608:14614   */\n      dup3\n        /* \"#utility.yul\":14604:14618   */\n      add\n        /* \"#utility.yul\":14597:14643   */\n      mstore\n        /* \"#utility.yul\":14480:14650   */\n      pop\n      jump\t// out\n        /* \"#utility.yul\":14656:15022   */\n    tag_208:\n        /* \"#utility.yul\":14798:14801   */\n      0x00\n        /* \"#utility.yul\":14819:14886   */\n      tag_394\n        /* \"#utility.yul\":14883:14885   */\n      0x14\n        /* \"#utility.yul\":14878:14881   */\n      dup4\n        /* \"#utility.yul\":14819:14886   */\n      tag_198\n      jump\t// in\n    tag_394:\n        /* \"#utility.yul\":14812:14886   */\n      swap2\n      pop\n        /* \"#utility.yul\":14895:14988   */\n      tag_395\n        /* \"#utility.yul\":14984:14987   */\n      dup3\n        /* \"#utility.yul\":14895:14988   */\n      tag_207\n      jump\t// in\n    tag_395:\n        /* \"#utility.yul\":15013:15015   */\n      0x20\n        /* \"#utility.yul\":15008:15011   */\n      dup3\n        /* \"#utility.yul\":15004:15016   */\n      add\n        /* \"#utility.yul\":14997:15016   */\n      swap1\n      pop\n        /* \"#utility.yul\":14656:15022   */\n      swap2\n      swap1\n      pop\n      jump\t// out\n        /* \"#utility.yul\":15028:15447   */\n    tag_104:\n        /* \"#utility.yul\":15194:15198   */\n      0x00\n        /* \"#utility.yul\":15232:15234   */\n      0x20\n        /* \"#utility.yul\":15221:15230   */\n      dup3\n        /* \"#utility.yul\":15217:15235   */\n      add\n        /* \"#utility.yul\":15209:15235   */\n      swap1\n      pop\n        /* \"#utility.yul\":15281:15290   */\n      dup2\n        /* \"#utility.yul\":15275:15279   */\n      dup2\n        /* \"#utility.yul\":15271:15291   */\n      sub\n        /* \"#utility.yul\":15267:15268   */\n      0x00\n        /* \"#utility.yul\":15256:15265   */\n      dup4\n        /* \"#utility.yul\":15252:15269   */\n      add\n        /* \"#utility.yul\":15245:15292   */\n      mstore\n        /* \"#utility.yul\":15309:15440   */\n      tag_397\n        /* \"#utility.yul\":15435:15439   */\n      dup2\n        /* \"#utility.yul\":15309:15440   */\n      tag_208\n      jump\t// in\n    tag_397:\n        /* \"#utility.yul\":15301:15440   */\n      swap1\n      pop\n        /* \"#utility.yul\":15028:15447   */\n      swap2\n      swap1\n      pop\n      jump\t// out\n        /* \"#utility.yul\":15453:15634   */\n    tag_209:\n        /* \"#utility.yul\":15593:15626   */\n      0x56616c7565206d7573742062652067726561746572207468616e207a65726f00\n        /* \"#utility.yul\":15589:15590   */\n      0x00\n        /* \"#utility.yul\":15581:15587   */\n      dup3\n        /* \"#utility.yul\":15577:15591   */\n      add\n        /* \"#utility.yul\":15570:15627   */\n      mstore\n        /* \"#utility.yul\":15453:15634   */\n      pop\n      jump\t// out\n        /* \"#utility.yul\":15640:16006   */\n    tag_210:\n        /* \"#utility.yul\":15782:15785   */\n      0x00\n        /* \"#utility.yul\":15803:15870   */\n      tag_400\n        /* \"#utility.yul\":15867:15869   */\n      0x1f\n        /* \"#utility.yul\":15862:15865   */\n      dup4\n        /* \"#utility.yul\":15803:15870   */\n      tag_198\n      jump\t// in\n    tag_400:\n        /* \"#utility.yul\":15796:15870   */\n      swap2\n      pop\n        /* \"#utility.yul\":15879:15972   */\n      tag_401\n        /* \"#utility.yul\":15968:15971   */\n      dup3\n        /* \"#utility.yul\":15879:15972   */\n      tag_209\n      jump\t// in\n    tag_401:\n        /* \"#utility.yul\":15997:15999   */\n      0x20\n        /* \"#utility.yul\":15992:15995   */\n      dup3\n        /* \"#utility.yul\":15988:16000   */\n      add\n        /* \"#utility.yul\":15981:16000   */\n      swap1\n      pop\n        /* \"#utility.yul\":15640:16006   */\n      swap2\n      swap1\n      pop\n      jump\t// out\n        /* \"#utility.yul\":16012:16431   */\n    tag_108:\n        /* \"#utility.yul\":16178:16182   */\n      0x00\n        /* \"#utility.yul\":16216:16218   */\n      0x20\n        /* \"#utility.yul\":16205:16214   */\n      dup3\n        /* \"#utility.yul\":16201:16219   */\n      add\n        /* \"#utility.yul\":16193:16219   */\n      swap1\n      pop\n        /* \"#utility.yul\":16265:16274   */\n      dup2\n        /* \"#utility.yul\":16259:16263   */\n      dup2\n        /* \"#utility.yul\":16255:16275   */\n      sub\n        /* \"#utility.yul\":16251:16252   */\n      0x00\n        /* \"#utility.yul\":16240:16249   */\n      dup4\n        /* \"#utility.yul\":16236:16253   */\n      add\n        /* \"#utility.yul\":16229:16276   */\n      mstore\n        /* \"#utility.yul\":16293:16424   */\n      tag_403\n        /* \"#utility.yul\":16419:16423   */\n      dup2\n        /* \"#utility.yul\":16293:16424   */\n      tag_210\n      jump\t// in\n    tag_403:\n        /* \"#utility.yul\":16285:16424   */\n      swap1\n      pop\n        /* \"#utility.yul\":16012:16431   */\n      swap2\n      swap1\n      pop\n      jump\t// out\n        /* \"#utility.yul\":16437:16617   */\n    tag_211:\n        /* \"#utility.yul\":16485:16562   */\n      0x4e487b7100000000000000000000000000000000000000000000000000000000\n        /* \"#utility.yul\":16482:16483   */\n      0x00\n        /* \"#utility.yul\":16475:16563   */\n      mstore\n        /* \"#utility.yul\":16582:16586   */\n      0x11\n        /* \"#utility.yul\":16579:16580   */\n      0x04\n        /* \"#utility.yul\":16572:16587   */\n      mstore\n        /* \"#utility.yul\":16606:16610   */\n      0x24\n        /* \"#utility.yul\":16603:16604   */\n      0x00\n        /* \"#utility.yul\":16596:16611   */\n      revert\n        /* \"#utility.yul\":16623:16814   */\n    tag_110:\n        /* \"#utility.yul\":16663:16666   */\n      0x00\n        /* \"#utility.yul\":16682:16702   */\n      tag_406\n        /* \"#utility.yul\":16700:16701   */\n      dup3\n        /* \"#utility.yul\":16682:16702   */\n      tag_185\n      jump\t// in\n    tag_406:\n        /* \"#utility.yul\":16677:16702   */\n      swap2\n      pop\n        /* \"#utility.yul\":16716:16736   */\n      tag_407\n        /* \"#utility.yul\":16734:16735   */\n      dup4\n        /* \"#utility.yul\":16716:16736   */\n      tag_185\n      jump\t// in\n    tag_407:\n        /* \"#utility.yul\":16711:16736   */\n      swap3\n      pop\n        /* \"#utility.yul\":16759:16760   */\n      dup3\n        /* \"#utility.yul\":16756:16757   */\n      dup3\n        /* \"#utility.yul\":16752:16761   */\n      add\n        /* \"#utility.yul\":16745:16761   */\n      swap1\n      pop\n        /* \"#utility.yul\":16780:16783   */\n      dup1\n        /* \"#utility.yul\":16777:16778   */\n      dup3\n        /* \"#utility.yul\":16774:16784   */\n      gt\n        /* \"#utility.yul\":16771:16807   */\n      iszero\n      tag_408\n      jumpi\n        /* \"#utility.yul\":16787:16805   */\n      tag_409\n      tag_211\n      jump\t// in\n    tag_409:\n        /* \"#utility.yul\":16771:16807   */\n    tag_408:\n        /* \"#utility.yul\":16623:16814   */\n      swap3\n      swap2\n      pop\n      pop\n      jump\t// out\n        /* \"#utility.yul\":16820:16968   */\n    tag_212:\n        /* \"#utility.yul\":16922:16933   */\n      0x00\n        /* \"#utility.yul\":16959:16962   */\n      dup2\n        /* \"#utility.yul\":16944:16962   */\n      swap1\n      pop\n        /* \"#utility.yul\":16820:16968   */\n      swap3\n      swap2\n      pop\n      pop\n      jump\t// out\n        /* \"#utility.yul\":16974:17364   */\n    tag_213:\n        /* \"#utility.yul\":17080:17083   */\n      0x00\n        /* \"#utility.yul\":17108:17147   */\n      tag_412\n        /* \"#utility.yul\":17141:17146   */\n      dup3\n        /* \"#utility.yul\":17108:17147   */\n      tag_197\n      jump\t// in\n    tag_412:\n        /* \"#utility.yul\":17163:17252   */\n      tag_413\n        /* \"#utility.yul\":17245:17251   */\n      dup2\n        /* \"#utility.yul\":17240:17243   */\n      dup6\n        /* \"#utility.yul\":17163:17252   */\n      tag_212\n      jump\t// in\n    tag_413:\n        /* \"#utility.yul\":17156:17252   */\n      swap4\n      pop\n        /* \"#utility.yul\":17261:17326   */\n      tag_414\n        /* \"#utility.yul\":17319:17325   */\n      dup2\n        /* \"#utility.yul\":17314:17317   */\n      dup6\n        /* \"#utility.yul\":17307:17311   */\n      0x20\n        /* \"#utility.yul\":17300:17305   */\n      dup7\n        /* \"#utility.yul\":17296:17312   */\n      add\n        /* \"#utility.yul\":17261:17326   */\n      tag_183\n      jump\t// in\n    tag_414:\n        /* \"#utility.yul\":17351:17357   */\n      dup1\n        /* \"#utility.yul\":17346:17349   */\n      dup5\n        /* \"#utility.yul\":17342:17358   */\n      add\n        /* \"#utility.yul\":17335:17358   */\n      swap2\n      pop\n        /* \"#utility.yul\":17084:17364   */\n      pop\n        /* \"#utility.yul\":16974:17364   */\n      swap3\n      swap2\n      pop\n      pop\n      jump\t// out\n        /* \"#utility.yul\":17370:17645   */\n    tag_112:\n        /* \"#utility.yul\":17502:17505   */\n      0x00\n        /* \"#utility.yul\":17524:17619   */\n      tag_416\n        /* \"#utility.yul\":17615:17618   */\n      dup3\n        /* \"#utility.yul\":17606:17612   */\n      dup5\n        /* \"#utility.yul\":17524:17619   */\n      tag_213\n      jump\t// in\n    tag_416:\n        /* \"#utility.yul\":17517:17619   */\n      swap2\n      pop\n        /* \"#utility.yul\":17636:17639   */\n      dup2\n        /* \"#utility.yul\":17629:17639   */\n      swap1\n      pop\n        /* \"#utility.yul\":17370:17645   */\n      swap3\n      swap2\n      pop\n      pop\n      jump\t// out\n        /* \"#utility.yul\":17651:17831   */\n    tag_214:\n        /* \"#utility.yul\":17699:17776   */\n      0x4e487b7100000000000000000000000000000000000000000000000000000000\n        /* \"#utility.yul\":17696:17697   */\n      0x00\n        /* \"#utility.yul\":17689:17777   */\n      mstore\n        /* \"#utility.yul\":17796:17800   */\n      0x12\n        /* \"#utility.yul\":17793:17794   */\n      0x04\n        /* \"#utility.yul\":17786:17801   */\n      mstore\n        /* \"#utility.yul\":17820:17824   */\n      0x24\n        /* \"#utility.yul\":17817:17818   */\n      0x00\n        /* \"#utility.yul\":17810:17825   */\n      revert\n        /* \"#utility.yul\":17837:18022   */\n    tag_114:\n        /* \"#utility.yul\":17877:17878   */\n      0x00\n        /* \"#utility.yul\":17894:17914   */\n      tag_419\n        /* \"#utility.yul\":17912:17913   */\n      dup3\n        /* \"#utility.yul\":17894:17914   */\n      tag_185\n      jump\t// in\n    tag_419:\n        /* \"#utility.yul\":17889:17914   */\n      swap2\n      pop\n        /* \"#utility.yul\":17928:17948   */\n      tag_420\n        /* \"#utility.yul\":17946:17947   */\n      dup4\n        /* \"#utility.yul\":17928:17948   */\n      tag_185\n      jump\t// in\n    tag_420:\n        /* \"#utility.yul\":17923:17948   */\n      swap3\n      pop\n        /* \"#utility.yul\":17967:17968   */\n      dup3\n        /* \"#utility.yul\":17957:17992   */\n      tag_421\n      jumpi\n        /* \"#utility.yul\":17972:17990   */\n      tag_422\n      tag_214\n      jump\t// in\n    tag_422:\n        /* \"#utility.yul\":17957:17992   */\n    tag_421:\n        /* \"#utility.yul\":18014:18015   */\n      dup3\n        /* \"#utility.yul\":18011:18012   */\n      dup3\n        /* \"#utility.yul\":18007:18016   */\n      div\n        /* \"#utility.yul\":18002:18016   */\n      swap1\n      pop\n        /* \"#utility.yul\":17837:18022   */\n      swap3\n      swap2\n      pop\n      pop\n      jump\t// out\n        /* \"#utility.yul\":18028:18208   */\n    tag_215:\n        /* \"#utility.yul\":18076:18153   */\n      0x4e487b7100000000000000000000000000000000000000000000000000000000\n        /* \"#utility.yul\":18073:18074   */\n      0x00\n        /* \"#utility.yul\":18066:18154   */\n      mstore\n        /* \"#utility.yul\":18173:18177   */\n      0x22\n        /* \"#utility.yul\":18170:18171   */\n      0x04\n        /* \"#utility.yul\":18163:18178   */\n      mstore\n        /* \"#utility.yul\":18197:18201   */\n      0x24\n        /* \"#utility.yul\":18194:18195   */\n      0x00\n        /* \"#utility.yul\":18187:18202   */\n      revert\n        /* \"#utility.yul\":18214:18534   */\n    tag_129:\n        /* \"#utility.yul\":18258:18264   */\n      0x00\n        /* \"#utility.yul\":18295:18296   */\n      0x02\n        /* \"#utility.yul\":18289:18293   */\n      dup3\n        /* \"#utility.yul\":18285:18297   */\n      div\n        /* \"#utility.yul\":18275:18297   */\n      swap1\n      pop\n        /* \"#utility.yul\":18342:18343   */\n      0x01\n        /* \"#utility.yul\":18336:18340   */\n      dup3\n        /* \"#utility.yul\":18332:18344   */\n      and\n        /* \"#utility.yul\":18363:18381   */\n      dup1\n        /* \"#utility.yul\":18353:18434   */\n      tag_425\n      jumpi\n        /* \"#utility.yul\":18419:18423   */\n      0x7f\n        /* \"#utility.yul\":18411:18417   */\n      dup3\n        /* \"#utility.yul\":18407:18424   */\n      and\n        /* \"#utility.yul\":18397:18424   */\n      swap2\n      pop\n        /* \"#utility.yul\":18353:18434   */\n    tag_425:\n        /* \"#utility.yul\":18481:18483   */\n      0x20\n        /* \"#utility.yul\":18473:18479   */\n      dup3\n        /* \"#utility.yul\":18470:18484   */\n      lt\n        /* \"#utility.yul\":18450:18468   */\n      dup2\n        /* \"#utility.yul\":18447:18485   */\n      sub\n        /* \"#utility.yul\":18444:18528   */\n      tag_426\n      jumpi\n        /* \"#utility.yul\":18500:18518   */\n      tag_427\n      tag_215\n      jump\t// in\n    tag_427:\n        /* \"#utility.yul\":18444:18528   */\n    tag_426:\n        /* \"#utility.yul\":18265:18534   */\n      pop\n        /* \"#utility.yul\":18214:18534   */\n      swap2\n      swap1\n      pop\n      jump\t// out\n        /* \"#utility.yul\":18540:18681   */\n    tag_216:\n        /* \"#utility.yul\":18589:18593   */\n      0x00\n        /* \"#utility.yul\":18612:18615   */\n      dup2\n        /* \"#utility.yul\":18604:18615   */\n      swap1\n      pop\n        /* \"#utility.yul\":18635:18638   */\n      dup2\n        /* \"#utility.yul\":18632:18633   */\n      0x00\n        /* \"#utility.yul\":18625:18639   */\n      mstore\n        /* \"#utility.yul\":18669:18673   */\n      0x20\n        /* \"#utility.yul\":18666:18667   */\n      0x00\n        /* \"#utility.yul\":18656:18674   */\n      keccak256\n        /* \"#utility.yul\":18648:18674   */\n      swap1\n      pop\n        /* \"#utility.yul\":18540:18681   */\n      swap2\n      swap1\n      pop\n      jump\t// out\n        /* \"#utility.yul\":18687:18780   */\n    tag_217:\n        /* \"#utility.yul\":18724:18730   */\n      0x00\n        /* \"#utility.yul\":18771:18773   */\n      0x20\n        /* \"#utility.yul\":18766:18768   */\n      0x1f\n        /* \"#utility.yul\":18759:18764   */\n      dup4\n        /* \"#utility.yul\":18755:18769   */\n      add\n        /* \"#utility.yul\":18751:18774   */\n      div\n        /* \"#utility.yul\":18741:18774   */\n      swap1\n      pop\n        /* \"#utility.yul\":18687:18780   */\n      swap2\n      swap1\n      pop\n      jump\t// out\n        /* \"#utility.yul\":18786:18893   */\n    tag_218:\n        /* \"#utility.yul\":18830:18838   */\n      0x00\n        /* \"#utility.yul\":18880:18885   */\n      dup3\n        /* \"#utility.yul\":18874:18878   */\n      dup3\n        /* \"#utility.yul\":18870:18886   */\n      shl\n        /* \"#utility.yul\":18849:18886   */\n      swap1\n      pop\n        /* \"#utility.yul\":18786:18893   */\n      swap3\n      swap2\n      pop\n      pop\n      jump\t// out\n        /* \"#utility.yul\":18899:19292   */\n    tag_219:\n        /* \"#utility.yul\":18968:18974   */\n      0x00\n        /* \"#utility.yul\":19018:19019   */\n      0x08\n        /* \"#utility.yul\":19006:19016   */\n      dup4\n        /* \"#utility.yul\":19002:19020   */\n      mul\n        /* \"#utility.yul\":19041:19138   */\n      tag_432\n        /* \"#utility.yul\":19071:19137   */\n      0xffffffffffffffffffffffffffffffffffffffffffffffffffffffffffffffff\n        /* \"#utility.yul\":19060:19069   */\n      dup3\n        /* \"#utility.yul\":19041:19138   */\n      tag_218\n      jump\t// in\n    tag_432:\n        /* \"#utility.yul\":19159:19198   */\n      tag_433\n        /* \"#utility.yul\":19189:19197   */\n      dup7\n        /* \"#utility.yul\":19178:19187   */\n      dup4\n        /* \"#utility.yul\":19159:19198   */\n      tag_218\n      jump\t// in\n    tag_433:\n        /* \"#utility.yul\":19147:19198   */\n      swap6\n      pop\n        /* \"#utility.yul\":19231:19235   */\n      dup1\n        /* \"#utility.yul\":19227:19236   */\n      not\n        /* \"#utility.yul\":19220:19225   */\n      dup5\n        /* \"#utility.yul\":19216:19237   */\n      and\n        /* \"#utility.yul\":19207:19237   */\n      swap4\n      pop\n        /* \"#utility.yul\":19280:19284   */\n      dup1\n        /* \"#utility.yul\":19270:19278   */\n      dup7\n        /* \"#utility.yul\":19266:19285   */\n      and\n        /* \"#utility.yul\":19259:19264   */\n      dup5\n        /* \"#utility.yul\":19256:19286   */\n      or\n        /* \"#utility.yul\":19246:19286   */\n      swap3\n      pop\n        /* \"#utility.yul\":18975:19292   */\n      pop\n      pop\n        /* \"#utility.yul\":18899:19292   */\n      swap4\n      swap3\n      pop\n      pop\n      pop\n      jump\t// out\n        /* \"#utility.yul\":19298:19440   */\n    tag_220:\n        /* \"#utility.yul\":19348:19357   */\n      0x00\n        /* \"#utility.yul\":19381:19434   */\n      tag_435\n        /* \"#utility.yul\":19399:19433   */\n      tag_436\n        /* \"#utility.yul\":19408:19432   */\n      tag_437\n        /* \"#utility.yul\":19426:19431   */\n      dup5\n        /* \"#utility.yul\":19408:19432   */\n      tag_185\n      jump\t// in\n    tag_437:\n        /* \"#utility.yul\":19399:19433   */\n      tag_163\n      jump\t// in\n    tag_436:\n        /* \"#utility.yul\":19381:19434   */\n      tag_185\n      jump\t// in\n    tag_435:\n        /* \"#utility.yul\":19368:19434   */\n      swap1\n      pop\n        /* \"#utility.yul\":19298:19440   */\n      swap2\n      swap1\n      pop\n      jump\t// out\n        /* \"#utility.yul\":19446:19521   */\n    tag_221:\n        /* \"#utility.yul\":19489:19492   */\n      0x00\n        /* \"#utility.yul\":19510:19515   */\n      dup2\n        /* \"#utility.yul\":19503:19515   */\n      swap1\n      pop\n        /* \"#utility.yul\":19446:19521   */\n      swap2\n      swap1\n      pop\n      jump\t// out\n        /* \"#utility.yul\":19527:19796   */\n    tag_222:\n        /* \"#utility.yul\":19637:19676   */\n      tag_440\n        /* \"#utility.yul\":19668:19675   */\n      dup4\n        /* \"#utility.yul\":19637:19676   */\n      tag_220\n      jump\t// in\n    tag_440:\n        /* \"#utility.yul\":19698:19789   */\n      tag_441\n        /* \"#utility.yul\":19747:19788   */\n      tag_442\n        /* \"#utility.yul\":19771:19787   */\n      dup3\n        /* \"#utility.yul\":19747:19788   */\n      tag_221\n      jump\t// in\n    tag_442:\n        /* \"#utility.yul\":19739:19745   */\n      dup5\n        /* \"#utility.yul\":19732:19736   */\n      dup5\n        /* \"#utility.yul\":19726:19737   */\n      sload\n        /* \"#utility.yul\":19698:19789   */\n      tag_219\n      jump\t// in\n    tag_441:\n        /* \"#utility.yul\":19692:19696   */\n      dup3\n        /* \"#utility.yul\":19685:19790   */\n      sstore\n        /* \"#utility.yul\":19603:19796   */\n      pop\n        /* \"#utility.yul\":19527:19796   */\n      pop\n      pop\n      pop\n      jump\t// out\n        /* \"#utility.yul\":19802:19875   */\n    tag_223:\n        /* \"#utility.yul\":19847:19850   */\n      0x00\n        /* \"#utility.yul\":19802:19875   */\n      swap1\n      jump\t// out\n        /* \"#utility.yul\":19881:20070   */\n    tag_224:\n        /* \"#utility.yul\":19958:19990   */\n      tag_445\n      tag_223\n      jump\t// in\n    tag_445:\n        /* \"#utility.yul\":19999:20064   */\n      tag_446\n        /* \"#utility.yul\":20057:20063   */\n      dup2\n        /* \"#utility.yul\":20049:20055   */\n      dup5\n        /* \"#utility.yul\":20043:20047   */\n      dup5\n        /* \"#utility.yul\":19999:20064   */\n      tag_222\n      jump\t// in\n    tag_446:\n        /* \"#utility.yul\":19934:20070   */\n      pop\n        /* \"#utility.yul\":19881:20070   */\n      pop\n      pop\n      jump\t// out\n        /* \"#utility.yul\":20076:20262   */\n    tag_225:\n        /* \"#utility.yul\":20136:20256   */\n    tag_448:\n        /* \"#utility.yul\":20153:20156   */\n      dup2\n        /* \"#utility.yul\":20146:20151   */\n      dup2\n        /* \"#utility.yul\":20143:20157   */\n      lt\n        /* \"#utility.yul\":20136:20256   */\n      iszero\n      tag_450\n      jumpi\n        /* \"#utility.yul\":20207:20246   */\n      tag_451\n        /* \"#utility.yul\":20244:20245   */\n      0x00\n        /* \"#utility.yul\":20237:20242   */\n      dup3\n        /* \"#utility.yul\":20207:20246   */\n      tag_224\n      jump\t// in\n    tag_451:\n        /* \"#utility.yul\":20180:20181   */\n      0x01\n        /* \"#utility.yul\":20173:20178   */\n      dup2\n        /* \"#utility.yul\":20169:20182   */\n      add\n        /* \"#utility.yul\":20160:20182   */\n      swap1\n      pop\n        /* \"#utility.yul\":20136:20256   */\n      jump(tag_448)\n    tag_450:\n        /* \"#utility.yul\":20076:20262   */\n      pop\n      pop\n      jump\t// out\n        /* \"#utility.yul\":20268:20811   */\n    tag_226:\n        /* \"#utility.yul\":20369:20371   */\n      0x1f\n        /* \"#utility.yul\":20364:20367   */\n      dup3\n        /* \"#utility.yul\":20361:20372   */\n      gt\n        /* \"#utility.yul\":20358:20804   */\n      iszero\n      tag_453\n      jumpi\n        /* \"#utility.yul\":20403:20441   */\n      tag_454\n        /* \"#utility.yul\":20435:20440   */\n      dup2\n        /* \"#utility.yul\":20403:20441   */\n      tag_216\n      jump\t// in\n    tag_454:\n        /* \"#utility.yul\":20487:20516   */\n      tag_455\n        /* \"#utility.yul\":20505:20515   */\n      dup5\n        /* \"#utility.yul\":20487:20516   */\n      tag_217\n      jump\t// in\n    tag_455:\n        /* \"#utility.yul\":20477:20485   */\n      dup2\n        /* \"#utility.yul\":20473:20517   */\n      add\n        /* \"#utility.yul\":20670:20672   */\n      0x20\n        /* \"#utility.yul\":20658:20668   */\n      dup6\n        /* \"#utility.yul\":20655:20673   */\n      lt\n        /* \"#utility.yul\":20652:20701   */\n      iszero\n      tag_456\n      jumpi\n        /* \"#utility.yul\":20691:20699   */\n      dup2\n        /* \"#utility.yul\":20676:20699   */\n      swap1\n      pop\n        /* \"#utility.yul\":20652:20701   */\n    tag_456:\n        /* \"#utility.yul\":20714:20794   */\n      tag_457\n        /* \"#utility.yul\":20770:20792   */\n      tag_458\n        /* \"#utility.yul\":20788:20791   */\n      dup6\n        /* \"#utility.yul\":20770:20792   */\n      tag_217\n      jump\t// in\n    tag_458:\n        /* \"#utility.yul\":20760:20768   */\n      dup4\n        /* \"#utility.yul\":20756:20793   */\n      add\n        /* \"#utility.yul\":20743:20754   */\n      dup3\n        /* \"#utility.yul\":20714:20794   */\n      tag_225\n      jump\t// in\n    tag_457:\n        /* \"#utility.yul\":20373:20804   */\n      pop\n      pop\n        /* \"#utility.yul\":20358:20804   */\n    tag_453:\n        /* \"#utility.yul\":20268:20811   */\n      pop\n      pop\n      pop\n      jump\t// out\n        /* \"#utility.yul\":20817:20934   */\n    tag_227:\n        /* \"#utility.yul\":20871:20879   */\n      0x00\n        /* \"#utility.yul\":20921:20926   */\n      dup3\n        /* \"#utility.yul\":20915:20919   */\n      dup3\n        /* \"#utility.yul\":20911:20927   */\n      shr\n        /* \"#utility.yul\":20890:20927   */\n      swap1\n      pop\n        /* \"#utility.yul\":20817:20934   */\n      swap3\n      swap2\n      pop\n      pop\n      jump\t// out\n        /* \"#utility.yul\":20940:21109   */\n    tag_228:\n        /* \"#utility.yul\":20984:20990   */\n      0x00\n        /* \"#utility.yul\":21017:21068   */\n      tag_461\n        /* \"#utility.yul\":21065:21066   */\n      0x00\n        /* \"#utility.yul\":21061:21067   */\n      not\n        /* \"#utility.yul\":21053:21058   */\n      dup5\n        /* \"#utility.yul\":21050:21051   */\n      0x08\n        /* \"#utility.yul\":21046:21059   */\n      mul\n        /* \"#utility.yul\":21017:21068   */\n      tag_227\n      jump\t// in\n    tag_461:\n        /* \"#utility.yul\":21013:21069   */\n      not\n        /* \"#utility.yul\":21098:21102   */\n      dup1\n        /* \"#utility.yul\":21092:21096   */\n      dup4\n        /* \"#utility.yul\":21088:21103   */\n      and\n        /* \"#utility.yul\":21078:21103   */\n      swap2\n      pop\n        /* \"#utility.yul\":20991:21109   */\n      pop\n        /* \"#utility.yul\":20940:21109   */\n      swap3\n      swap2\n      pop\n      pop\n      jump\t// out\n        /* \"#utility.yul\":21114:21409   */\n    tag_229:\n        /* \"#utility.yul\":21190:21194   */\n      0x00\n        /* \"#utility.yul\":21336:21365   */\n      tag_463\n        /* \"#utility.yul\":21361:21364   */\n      dup4\n        /* \"#utility.yul\":21355:21359   */\n      dup4\n        /* \"#utility.yul\":21336:21365   */\n      tag_228\n      jump\t// in\n    tag_463:\n        /* \"#utility.yul\":21328:21365   */\n      swap2\n      pop\n        /* \"#utility.yul\":21398:21401   */\n      dup3\n        /* \"#utility.yul\":21395:21396   */\n      0x02\n        /* \"#utility.yul\":21391:21402   */\n      mul\n        /* \"#utility.yul\":21385:21389   */\n      dup3\n        /* \"#utility.yul\":21382:21403   */\n      or\n        /* \"#utility.yul\":21374:21403   */\n      swap1\n      pop\n        /* \"#utility.yul\":21114:21409   */\n      swap3\n      swap2\n      pop\n      pop\n      jump\t// out\n        /* \"#utility.yul\":21414:22809   */\n    tag_116:\n        /* \"#utility.yul\":21531:21568   */\n      tag_465\n        /* \"#utility.yul\":21564:21567   */\n      dup3\n        /* \"#utility.yul\":21531:21568   */\n      tag_197\n      jump\t// in\n    tag_465:\n        /* \"#utility.yul\":21633:21651   */\n      0xffffffffffffffff\n        /* \"#utility.yul\":21625:21631   */\n      dup2\n        /* \"#utility.yul\":21622:21652   */\n      gt\n        /* \"#utility.yul\":21619:21675   */\n      iszero\n      tag_466\n      jumpi\n        /* \"#utility.yul\":21655:21673   */\n      tag_467\n      tag_174\n      jump\t// in\n    tag_467:\n        /* \"#utility.yul\":21619:21675   */\n    tag_466:\n        /* \"#utility.yul\":21699:21737   */\n      tag_468\n        /* \"#utility.yul\":21731:21735   */\n      dup3\n        /* \"#utility.yul\":21725:21736   */\n      sload\n        /* \"#utility.yul\":21699:21737   */\n      tag_129\n      jump\t// in\n    tag_468:\n        /* \"#utility.yul\":21784:21851   */\n      tag_469\n        /* \"#utility.yul\":21844:21850   */\n      dup3\n        /* \"#utility.yul\":21836:21842   */\n      dup3\n        /* \"#utility.yul\":21830:21834   */\n      dup6\n        /* \"#utility.yul\":21784:21851   */\n      tag_226\n      jump\t// in\n    tag_469:\n        /* \"#utility.yul\":21878:21879   */\n      0x00\n        /* \"#utility.yul\":21902:21906   */\n      0x20\n        /* \"#utility.yul\":21889:21906   */\n      swap1\n      pop\n        /* \"#utility.yul\":21934:21936   */\n      0x1f\n        /* \"#utility.yul\":21926:21932   */\n      dup4\n        /* \"#utility.yul\":21923:21937   */\n      gt\n        /* \"#utility.yul\":21951:21952   */\n      0x01\n        /* \"#utility.yul\":21946:22564   */\n      dup2\n      eq\n      tag_471\n      jumpi\n        /* \"#utility.yul\":22608:22609   */\n      0x00\n        /* \"#utility.yul\":22625:22631   */\n      dup5\n        /* \"#utility.yul\":22622:22699   */\n      iszero\n      tag_472\n      jumpi\n        /* \"#utility.yul\":22674:22683   */\n      dup3\n        /* \"#utility.yul\":22669:22672   */\n      dup8\n        /* \"#utility.yul\":22665:22684   */\n      add\n        /* \"#utility.yul\":22659:22685   */\n      mload\n        /* \"#utility.yul\":22650:22685   */\n      swap1\n      pop\n        /* \"#utility.yul\":22622:22699   */\n    tag_472:\n        /* \"#utility.yul\":22725:22792   */\n      tag_473\n        /* \"#utility.yul\":22785:22791   */\n      dup6\n        /* \"#utility.yul\":22778:22783   */\n      dup3\n        /* \"#utility.yul\":22725:22792   */\n      tag_229\n      jump\t// in\n    tag_473:\n        /* \"#utility.yul\":22719:22723   */\n      dup7\n        /* \"#utility.yul\":22712:22793   */\n      sstore\n        /* \"#utility.yul\":22581:22803   */\n      pop\n        /* \"#utility.yul\":21916:22803   */\n      jump(tag_470)\n        /* \"#utility.yul\":21946:22564   */\n    tag_471:\n        /* \"#utility.yul\":21998:22002   */\n      0x1f\n        /* \"#utility.yul\":21994:22003   */\n      not\n        /* \"#utility.yul\":21986:21992   */\n      dup5\n        /* \"#utility.yul\":21982:22004   */\n      and\n        /* \"#utility.yul\":22032:22069   */\n      tag_474\n        /* \"#utility.yul\":22064:22068   */\n      dup7\n        /* \"#utility.yul\":22032:22069   */\n      tag_216\n      jump\t// in\n    tag_474:\n        /* \"#utility.yul\":22091:22092   */\n      0x00\n        /* \"#utility.yul\":22105:22313   */\n    tag_475:\n        /* \"#utility.yul\":22119:22126   */\n      dup3\n        /* \"#utility.yul\":22116:22117   */\n      dup2\n        /* \"#utility.yul\":22113:22127   */\n      lt\n        /* \"#utility.yul\":22105:22313   */\n      iszero\n      tag_477\n      jumpi\n        /* \"#utility.yul\":22198:22207   */\n      dup5\n        /* \"#utility.yul\":22193:22196   */\n      dup10\n        /* \"#utility.yul\":22189:22208   */\n      add\n        /* \"#utility.yul\":22183:22209   */\n      mload\n        /* \"#utility.yul\":22175:22181   */\n      dup3\n        /* \"#utility.yul\":22168:22210   */\n      sstore\n        /* \"#utility.yul\":22249:22250   */\n      0x01\n        /* \"#utility.yul\":22241:22247   */\n      dup3\n        /* \"#utility.yul\":22237:22251   */\n      add\n        /* \"#utility.yul\":22227:22251   */\n      swap2\n      pop\n        /* \"#utility.yul\":22296:22298   */\n      0x20\n        /* \"#utility.yul\":22285:22294   */\n      dup6\n        /* \"#utility.yul\":22281:22299   */\n      add\n        /* \"#utility.yul\":22268:22299   */\n      swap5\n      pop\n        /* \"#utility.yul\":22142:22146   */\n      0x20\n        /* \"#utility.yul\":22139:22140   */\n      dup2\n        /* \"#utility.yul\":22135:22147   */\n      add\n        /* \"#utility.yul\":22130:22147   */\n      swap1\n      pop\n        /* \"#utility.yul\":22105:22313   */\n      jump(tag_475)\n    tag_477:\n        /* \"#utility.yul\":22341:22347   */\n      dup7\n        /* \"#utility.yul\":22332:22339   */\n      dup4\n        /* \"#utility.yul\":22329:22348   */\n      lt\n        /* \"#utility.yul\":22326:22505   */\n      iszero\n      tag_478\n      jumpi\n        /* \"#utility.yul\":22399:22408   */\n      dup5\n        /* \"#utility.yul\":22394:22397   */\n      dup10\n        /* \"#utility.yul\":22390:22409   */\n      add\n        /* \"#utility.yul\":22384:22410   */\n      mload\n        /* \"#utility.yul\":22442:22490   */\n      tag_479\n        /* \"#utility.yul\":22484:22488   */\n      0x1f\n        /* \"#utility.yul\":22476:22482   */\n      dup10\n        /* \"#utility.yul\":22472:22489   */\n      and\n        /* \"#utility.yul\":22461:22470   */\n      dup3\n        /* \"#utility.yul\":22442:22490   */\n      tag_228\n      jump\t// in\n    tag_479:\n        /* \"#utility.yul\":22434:22440   */\n      dup4\n        /* \"#utility.yul\":22427:22491   */\n      sstore\n        /* \"#utility.yul\":22349:22505   */\n      pop\n        /* \"#utility.yul\":22326:22505   */\n    tag_478:\n        /* \"#utility.yul\":22551:22552   */\n      0x01\n        /* \"#utility.yul\":22547:22548   */\n      0x02\n        /* \"#utility.yul\":22539:22545   */\n      dup9\n        /* \"#utility.yul\":22535:22549   */\n      mul\n        /* \"#utility.yul\":22531:22553   */\n      add\n        /* \"#utility.yul\":22525:22529   */\n      dup9\n        /* \"#utility.yul\":22518:22554   */\n      sstore\n        /* \"#utility.yul\":21953:22564   */\n      pop\n      pop\n      pop\n        /* \"#utility.yul\":21916:22803   */\n    tag_470:\n      pop\n        /* \"#utility.yul\":21506:22809   */\n      pop\n      pop\n      pop\n        /* \"#utility.yul\":21414:22809   */\n      pop\n      pop\n      jump\t// out\n        /* \"#utility.yul\":22815:23048   */\n    tag_119:\n        /* \"#utility.yul\":22854:22857   */\n      0x00\n        /* \"#utility.yul\":22877:22901   */\n      tag_481\n        /* \"#utility.yul\":22895:22900   */\n      dup3\n        /* \"#utility.yul\":22877:22901   */\n      tag_185\n      jump\t// in\n    tag_481:\n        /* \"#utility.yul\":22868:22901   */\n      swap2\n      pop\n        /* \"#utility.yul\":22923:22989   */\n      0xffffffffffffffffffffffffffffffffffffffffffffffffffffffffffffffff\n        /* \"#utility.yul\":22916:22921   */\n      dup3\n        /* \"#utility.yul\":22913:22990   */\n      sub\n        /* \"#utility.yul\":22910:23013   */\n      tag_482\n      jumpi\n        /* \"#utility.yul\":22993:23011   */\n      tag_483\n      tag_211\n      jump\t// in\n    tag_483:\n        /* \"#utility.yul\":22910:23013   */\n    tag_482:\n        /* \"#utility.yul\":23040:23041   */\n      0x01\n        /* \"#utility.yul\":23033:23038   */\n      dup3\n        /* \"#utility.yul\":23029:23042   */\n      add\n        /* \"#utility.yul\":23022:23042   */\n      swap1\n      pop\n        /* \"#utility.yul\":22815:23048   */\n      swap2\n      swap1\n      pop\n      jump\t// out\n        /* \"#utility.yul\":23054:23279   */\n    tag_230:\n        /* \"#utility.yul\":23194:23228   */\n      0x4f6e6c79206c6f6e672070617274792063616e20636c6f73652074686520636f\n        /* \"#utility.yul\":23190:23191   */\n      0x00\n        /* \"#utility.yul\":23182:23188   */\n      dup3\n        /* \"#utility.yul\":23178:23192   */\n      add\n        /* \"#utility.yul\":23171:23229   */\n      mstore\n        /* \"#utility.yul\":23263:23271   */\n      0x6e74726163740000000000000000000000000000000000000000000000000000\n        /* \"#utility.yul\":23258:23260   */\n      0x20\n        /* \"#utility.yul\":23250:23256   */\n      dup3\n        /* \"#utility.yul\":23246:23261   */\n      add\n        /* \"#utility.yul\":23239:23272   */\n      mstore\n        /* \"#utility.yul\":23054:23279   */\n      pop\n      jump\t// out\n        /* \"#utility.yul\":23285:23651   */\n    tag_231:\n        /* \"#utility.yul\":23427:23430   */\n      0x00\n        /* \"#utility.yul\":23448:23515   */\n      tag_486\n        /* \"#utility.yul\":23512:23514   */\n      0x26\n        /* \"#utility.yul\":23507:23510   */\n      dup4\n        /* \"#utility.yul\":23448:23515   */\n      tag_198\n      jump\t// in\n    tag_486:\n        /* \"#utility.yul\":23441:23515   */\n      swap2\n      pop\n        /* \"#utility.yul\":23524:23617   */\n      tag_487\n        /* \"#utility.yul\":23613:23616   */\n      dup3\n        /* \"#utility.yul\":23524:23617   */\n      tag_230\n      jump\t// in\n    tag_487:\n        /* \"#utility.yul\":23642:23644   */\n      0x40\n        /* \"#utility.yul\":23637:23640   */\n      dup3\n        /* \"#utility.yul\":23633:23645   */\n      add\n        /* \"#utility.yul\":23626:23645   */\n      swap1\n      pop\n        /* \"#utility.yul\":23285:23651   */\n      swap2\n      swap1\n      pop\n      jump\t// out\n        /* \"#utility.yul\":23657:24076   */\n    tag_127:\n        /* \"#utility.yul\":23823:23827   */\n      0x00\n        /* \"#utility.yul\":23861:23863   */\n      0x20\n        /* \"#utility.yul\":23850:23859   */\n      dup3\n        /* \"#utility.yul\":23846:23864   */\n      add\n        /* \"#utility.yul\":23838:23864   */\n      swap1\n      pop\n        /* \"#utility.yul\":23910:23919   */\n      dup2\n        /* \"#utility.yul\":23904:23908   */\n      dup2\n        /* \"#utility.yul\":23900:23920   */\n      sub\n        /* \"#utility.yul\":23896:23897   */\n      0x00\n        /* \"#utility.yul\":23885:23894   */\n      dup4\n        /* \"#utility.yul\":23881:23898   */\n      add\n        /* \"#utility.yul\":23874:23921   */\n      mstore\n        /* \"#utility.yul\":23938:24069   */\n      tag_489\n        /* \"#utility.yul\":24064:24068   */\n      dup2\n        /* \"#utility.yul\":23938:24069   */\n      tag_231\n      jump\t// in\n    tag_489:\n        /* \"#utility.yul\":23930:24069   */\n      swap1\n      pop\n        /* \"#utility.yul\":23657:24076   */\n      swap2\n      swap1\n      pop\n      jump\t// out\n        /* \"#utility.yul\":24082:24492   */\n    tag_138:\n        /* \"#utility.yul\":24122:24129   */\n      0x00\n        /* \"#utility.yul\":24145:24165   */\n      tag_491\n        /* \"#utility.yul\":24163:24164   */\n      dup3\n        /* \"#utility.yul\":24145:24165   */\n      tag_185\n      jump\t// in\n    tag_491:\n        /* \"#utility.yul\":24140:24165   */\n      swap2\n      pop\n        /* \"#utility.yul\":24179:24199   */\n      tag_492\n        /* \"#utility.yul\":24197:24198   */\n      dup4\n        /* \"#utility.yul\":24179:24199   */\n      tag_185\n      jump\t// in\n    tag_492:\n        /* \"#utility.yul\":24174:24199   */\n      swap3\n      pop\n        /* \"#utility.yul\":24234:24235   */\n      dup3\n        /* \"#utility.yul\":24231:24232   */\n      dup3\n        /* \"#utility.yul\":24227:24236   */\n      mul\n        /* \"#utility.yul\":24256:24286   */\n      tag_493\n        /* \"#utility.yul\":24274:24285   */\n      dup2\n        /* \"#utility.yul\":24256:24286   */\n      tag_185\n      jump\t// in\n    tag_493:\n        /* \"#utility.yul\":24245:24286   */\n      swap2\n      pop\n        /* \"#utility.yul\":24435:24436   */\n      dup3\n        /* \"#utility.yul\":24426:24433   */\n      dup3\n        /* \"#utility.yul\":24422:24437   */\n      div\n        /* \"#utility.yul\":24419:24420   */\n      dup5\n        /* \"#utility.yul\":24416:24438   */\n      eq\n        /* \"#utility.yul\":24396:24397   */\n      dup4\n        /* \"#utility.yul\":24389:24398   */\n      iszero\n        /* \"#utility.yul\":24369:24452   */\n      or\n        /* \"#utility.yul\":24346:24485   */\n      tag_494\n      jumpi\n        /* \"#utility.yul\":24465:24483   */\n      tag_495\n      tag_211\n      jump\t// in\n    tag_495:\n        /* \"#utility.yul\":24346:24485   */\n    tag_494:\n        /* \"#utility.yul\":24130:24492   */\n      pop\n        /* \"#utility.yul\":24082:24492   */\n      swap3\n      swap2\n      pop\n      pop\n      jump\t// out\n\n    auxdata: 0xa26469706673582212201fff5d376aa85ed2b324652daaba8d561daaad465cffb47b61dc6084a3f6f87664736f6c63430008170033\n}\n",
				"bytecode": {
					"linkReferences": {},
					"object": "6080604052620186a060075534801562000017575f80fd5b5060405162001e3b38038062001e3b83398181016040528101906200003d91906200029f565b335f73ffffffffffffffffffffffffffffffffffffffff168173ffffffffffffffffffffffffffffffffffffffff1603620000b1575f6040517f1e4fbdf7000000000000000000000000000000000000000000000000000000008152600401620000a89190620002e0565b60405180910390fd5b620000c2816200017960201b60201c565b508060015f6101000a81548173ffffffffffffffffffffffffffffffffffffffff021916908373ffffffffffffffffffffffffffffffffffffffff16021790555061076c6005604051620001169062000353565b9081526020016040518091039020819055506107d060056040516200013b90620003b7565b908152602001604051809103902081905550610708600560405162000160906200041b565b9081526020016040518091039020819055505062000431565b5f805f9054906101000a900473ffffffffffffffffffffffffffffffffffffffff169050815f806101000a81548173ffffffffffffffffffffffffffffffffffffffff021916908373ffffffffffffffffffffffffffffffffffffffff1602179055508173ffffffffffffffffffffffffffffffffffffffff168173ffffffffffffffffffffffffffffffffffffffff167f8be0079c531659141344cd1fd0a4f28419497f9722a3daafe3b4186f6b6457e060405160405180910390a35050565b5f80fd5b5f73ffffffffffffffffffffffffffffffffffffffff82169050919050565b5f62000269826200023e565b9050919050565b6200027b816200025d565b811462000286575f80fd5b50565b5f81519050620002998162000270565b92915050565b5f60208284031215620002b757620002b66200023a565b5b5f620002c68482850162000289565b91505092915050565b620002da816200025d565b82525050565b5f602082019050620002f55f830184620002cf565b92915050565b5f81905092915050565b7f417273656e616c000000000000000000000000000000000000000000000000005f82015250565b5f6200033b600783620002fb565b9150620003488262000305565b600782019050919050565b5f6200035f826200032d565b9150819050919050565b7f4368656c736561000000000000000000000000000000000000000000000000005f82015250565b5f6200039f600783620002fb565b9150620003ac8262000369565b600782019050919050565b5f620003c38262000391565b9150819050919050565b7f4d616e20436974790000000000000000000000000000000000000000000000005f82015250565b5f62000403600883620002fb565b91506200041082620003cd565b600882019050919050565b5f6200042782620003f5565b9150819050919050565b6119fc806200043f5f395ff3fe6080604052600436106100c1575f3560e01c80639da751bb1161007e578063db027e0511610058578063db027e051461023d578063ed23f8c314610279578063f2fde38b146102bb578063fdf3f74d146102e3576100c1565b80639da751bb146101bd578063ac580de7146101d9578063d0ce736014610215576100c1565b80630232424d146100c557806308ab2d4b146100ef57806312065fe01461012b578063715018a6146101555780638da5cb5b1461016b578063939e357214610195575b5f80fd5b3480156100d0575f80fd5b506100d961031f565b6040516100e69190610d77565b60405180910390f35b3480156100fa575f80fd5b5061011560048036038101906101109190610edd565b610344565b6040516101229190610ff0565b60405180910390f35b348015610136575f80fd5b5061013f6103ef565b60405161014c919061101f565b60405180910390f35b348015610160575f80fd5b506101696103f6565b005b348015610176575f80fd5b5061017f610409565b60405161018c9190611058565b60405180910390f35b3480156101a0575f80fd5b506101bb60048036038101906101b691906110c5565b610430565b005b6101d760048036038101906101d29190610edd565b6104e6565b005b3480156101e4575f80fd5b506101ff60048036038101906101fa9190611115565b610720565b60405161020c919061101f565b60405180910390f35b348015610220575f80fd5b5061023b60048036038101906102369190611140565b610735565b005b348015610248575f80fd5b50610263600480360381019061025e9190610edd565b6109b1565b604051610270919061101f565b60405180910390f35b348015610284575f80fd5b5061029f600480360381019061029a919061116b565b6109de565b6040516102b29796959493929190611215565b60405180910390f35b3480156102c6575f80fd5b506102e160048036038101906102dc9190611115565b610ae4565b005b3480156102ee575f80fd5b5061030960048036038101906103049190610edd565b610b68565b604051610316919061101f565b60405180910390f35b60015f9054906101000a900473ffffffffffffffffffffffffffffffffffffffff1681565b61034c610ce4565b60015f9054906101000a900473ffffffffffffffffffffffffffffffffffffffff1673ffffffffffffffffffffffffffffffffffffffff1663475f1686836040518263ffffffff1660e01b81526004016103a69190611289565b5f60405180830381865afa1580156103c0573d5f803e3d5ffd5b505050506040513d5f823e3d601f19601f820116820180604052508101906103e891906113cc565b9050919050565b5f47905090565b6103fe610b95565b6104075f610c1c565b565b5f805f9054906101000a900473ffffffffffffffffffffffffffffffffffffffff16905090565b610438610b95565b5f60035f8473ffffffffffffffffffffffffffffffffffffffff1673ffffffffffffffffffffffffffffffffffffffff1681526020019081526020015f205f8381526020019081526020015f209050806003015f9054906101000a900460ff166104d7576040517f08c379a00000000000000000000000000000000000000000000000000000000081526004016104ce9061145d565b60405180910390fd5b83816002018190555050505050565b5f3411610528576040517f08c379a000000000000000000000000000000000000000000000000000000000815260040161051f906114c5565b60405180910390fd5b5f600160045f3373ffffffffffffffffffffffffffffffffffffffff1673ffffffffffffffffffffffffffffffffffffffff1681526020019081526020015f20546105739190611510565b90505f600583604051610586919061157d565b908152602001604051809103902054346105a091906115c0565b90505f60035f3373ffffffffffffffffffffffffffffffffffffffff1673ffffffffffffffffffffffffffffffffffffffff1681526020019081526020015f205f8481526020019081526020015f20905033815f015f6101000a81548173ffffffffffffffffffffffffffffffffffffffff021916908373ffffffffffffffffffffffffffffffffffffffff1602179055508381600401908161064391906117e1565b5081816001018190555060058460405161065d919061157d565b90815260200160405180910390205481600501819055506001816003015f6101000a81548160ff02191690831515021790555060045f3373ffffffffffffffffffffffffffffffffffffffff1673ffffffffffffffffffffffffffffffffffffffff1681526020019081526020015f205f8154809291906106dd906118b0565b919050555080600101546006856040516106f7919061157d565b90815260200160405180910390205f8282546107139190611510565b9250508190555050505050565b6004602052805f5260405f205f915090505481565b5f60035f3373ffffffffffffffffffffffffffffffffffffffff1673ffffffffffffffffffffffffffffffffffffffff1681526020019081526020015f205f8381526020019081526020015f209050806003015f9054906101000a900460ff166107d4576040517f08c379a00000000000000000000000000000000000000000000000000000000081526004016107cb9061145d565b60405180910390fd5b3373ffffffffffffffffffffffffffffffffffffffff16815f015f9054906101000a900473ffffffffffffffffffffffffffffffffffffffff1673ffffffffffffffffffffffffffffffffffffffff1614610864576040517f08c379a000000000000000000000000000000000000000000000000000000000815260040161085b90611967565b60405180910390fd5b5f8160040180546108749061161d565b80601f01602080910402602001604051908101604052809291908181526020018280546108a09061161d565b80156108eb5780601f106108c2576101008083540402835291602001916108eb565b820191905f5260205f20905b8154815290600101906020018083116108ce57829003601f168201915b505050505090505f600582604051610903919061157d565b90815260200160405180910390205490505f61091d6103ef565b90505f8460010154828460075461093491906115c0565b61093e9190611985565b6109489190611985565b90503373ffffffffffffffffffffffffffffffffffffffff166108fc8290811502906040515f60405180830381858888f1935050505015801561098d573d5f803e3d5ffd5b505f856003015f6101000a81548160ff021916908315150217905550505050505050565b6006818051602081018201805184825260208301602085012081835280955050505050505f915090505481565b6003602052815f5260405f20602052805f5260405f205f9150915050805f015f9054906101000a900473ffffffffffffffffffffffffffffffffffffffff1690805f0160149054906101000a900460ff1690806001015490806002015490806003015f9054906101000a900460ff1690806004018054610a5d9061161d565b80601f0160208091040260200160405190810160405280929190818152602001828054610a899061161d565b8015610ad45780601f10610aab57610100808354040283529160200191610ad4565b820191905f5260205f20905b815481529060010190602001808311610ab757829003601f168201915b5050505050908060050154905087565b610aec610b95565b5f73ffffffffffffffffffffffffffffffffffffffff168173ffffffffffffffffffffffffffffffffffffffff1603610b5c575f6040517f1e4fbdf7000000000000000000000000000000000000000000000000000000008152600401610b539190611058565b60405180910390fd5b610b6581610c1c565b50565b6005818051602081018201805184825260208301602085012081835280955050505050505f915090505481565b610b9d610cdd565b73ffffffffffffffffffffffffffffffffffffffff16610bbb610409565b73ffffffffffffffffffffffffffffffffffffffff1614610c1a57610bde610cdd565b6040517f118cdaa7000000000000000000000000000000000000000000000000000000008152600401610c119190611058565b60405180910390fd5b565b5f805f9054906101000a900473ffffffffffffffffffffffffffffffffffffffff169050815f806101000a81548173ffffffffffffffffffffffffffffffffffffffff021916908373ffffffffffffffffffffffffffffffffffffffff1602179055508173ffffffffffffffffffffffffffffffffffffffff168173ffffffffffffffffffffffffffffffffffffffff167f8be0079c531659141344cd1fd0a4f28419497f9722a3daafe3b4186f6b6457e060405160405180910390a35050565b5f33905090565b6040518060400160405280606081526020015f81525090565b5f73ffffffffffffffffffffffffffffffffffffffff82169050919050565b5f819050919050565b5f610d3f610d3a610d3584610cfd565b610d1c565b610cfd565b9050919050565b5f610d5082610d25565b9050919050565b5f610d6182610d46565b9050919050565b610d7181610d57565b82525050565b5f602082019050610d8a5f830184610d68565b92915050565b5f604051905090565b5f80fd5b5f80fd5b5f80fd5b5f80fd5b5f601f19601f8301169050919050565b7f4e487b71000000000000000000000000000000000000000000000000000000005f52604160045260245ffd5b610def82610da9565b810181811067ffffffffffffffff82111715610e0e57610e0d610db9565b5b80604052505050565b5f610e20610d90565b9050610e2c8282610de6565b919050565b5f67ffffffffffffffff821115610e4b57610e4a610db9565b5b610e5482610da9565b9050602081019050919050565b828183375f83830152505050565b5f610e81610e7c84610e31565b610e17565b905082815260208101848484011115610e9d57610e9c610da5565b5b610ea8848285610e61565b509392505050565b5f82601f830112610ec457610ec3610da1565b5b8135610ed4848260208601610e6f565b91505092915050565b5f60208284031215610ef257610ef1610d99565b5b5f82013567ffffffffffffffff811115610f0f57610f0e610d9d565b5b610f1b84828501610eb0565b91505092915050565b5f81519050919050565b5f82825260208201905092915050565b5f5b83811015610f5b578082015181840152602081019050610f40565b5f8484015250505050565b5f610f7082610f24565b610f7a8185610f2e565b9350610f8a818560208601610f3e565b610f9381610da9565b840191505092915050565b5f819050919050565b610fb081610f9e565b82525050565b5f604083015f8301518482035f860152610fd08282610f66565b9150506020830151610fe56020860182610fa7565b508091505092915050565b5f6020820190508181035f8301526110088184610fb6565b905092915050565b61101981610f9e565b82525050565b5f6020820190506110325f830184611010565b92915050565b5f61104282610cfd565b9050919050565b61105281611038565b82525050565b5f60208201905061106b5f830184611049565b92915050565b61107a81610f9e565b8114611084575f80fd5b50565b5f8135905061109581611071565b92915050565b6110a481611038565b81146110ae575f80fd5b50565b5f813590506110bf8161109b565b92915050565b5f805f606084860312156110dc576110db610d99565b5b5f6110e986828701611087565b93505060206110fa868287016110b1565b925050604061110b86828701611087565b9150509250925092565b5f6020828403121561112a57611129610d99565b5b5f611137848285016110b1565b91505092915050565b5f6020828403121561115557611154610d99565b5b5f61116284828501611087565b91505092915050565b5f806040838503121561118157611180610d99565b5b5f61118e858286016110b1565b925050602061119f85828601611087565b9150509250929050565b5f8115159050919050565b6111bd816111a9565b82525050565b5f81519050919050565b5f82825260208201905092915050565b5f6111e7826111c3565b6111f181856111cd565b9350611201818560208601610f3e565b61120a81610da9565b840191505092915050565b5f60e0820190506112285f83018a611049565b61123560208301896111b4565b6112426040830188611010565b61124f6060830187611010565b61125c60808301866111b4565b81810360a083015261126e81856111dd565b905061127d60c0830184611010565b98975050505050505050565b5f6020820190508181035f8301526112a181846111dd565b905092915050565b5f80fd5b5f80fd5b5f67ffffffffffffffff8211156112cb576112ca610db9565b5b6112d482610da9565b9050602081019050919050565b5f6112f36112ee846112b1565b610e17565b90508281526020810184848401111561130f5761130e610da5565b5b61131a848285610f3e565b509392505050565b5f82601f83011261133657611335610da1565b5b81516113468482602086016112e1565b91505092915050565b5f8151905061135d81611071565b92915050565b5f60408284031215611378576113776112a9565b5b6113826040610e17565b90505f82015167ffffffffffffffff8111156113a1576113a06112ad565b5b6113ad84828501611322565b5f8301525060206113c08482850161134f565b60208301525092915050565b5f602082840312156113e1576113e0610d99565b5b5f82015167ffffffffffffffff8111156113fe576113fd610d9d565b5b61140a84828501611363565b91505092915050565b7f436f6e7472616374206973206e6f74206f70656e0000000000000000000000005f82015250565b5f6114476014836111cd565b915061145282611413565b602082019050919050565b5f6020820190508181035f8301526114748161143b565b9050919050565b7f56616c7565206d7573742062652067726561746572207468616e207a65726f005f82015250565b5f6114af601f836111cd565b91506114ba8261147b565b602082019050919050565b5f6020820190508181035f8301526114dc816114a3565b9050919050565b7f4e487b71000000000000000000000000000000000000000000000000000000005f52601160045260245ffd5b5f61151a82610f9e565b915061152583610f9e565b925082820190508082111561153d5761153c6114e3565b5b92915050565b5f81905092915050565b5f611557826111c3565b6115618185611543565b9350611571818560208601610f3e565b80840191505092915050565b5f611588828461154d565b915081905092915050565b7f4e487b71000000000000000000000000000000000000000000000000000000005f52601260045260245ffd5b5f6115ca82610f9e565b91506115d583610f9e565b9250826115e5576115e4611593565b5b828204905092915050565b7f4e487b71000000000000000000000000000000000000000000000000000000005f52602260045260245ffd5b5f600282049050600182168061163457607f821691505b602082108103611647576116466115f0565b5b50919050565b5f819050815f5260205f209050919050565b5f6020601f8301049050919050565b5f82821b905092915050565b5f600883026116a97fffffffffffffffffffffffffffffffffffffffffffffffffffffffffffffffff8261166e565b6116b3868361166e565b95508019841693508086168417925050509392505050565b5f6116e56116e06116db84610f9e565b610d1c565b610f9e565b9050919050565b5f819050919050565b6116fe836116cb565b61171261170a826116ec565b84845461167a565b825550505050565b5f90565b61172661171a565b6117318184846116f5565b505050565b5b81811015611754576117495f8261171e565b600181019050611737565b5050565b601f8211156117995761176a8161164d565b6117738461165f565b81016020851015611782578190505b61179661178e8561165f565b830182611736565b50505b505050565b5f82821c905092915050565b5f6117b95f198460080261179e565b1980831691505092915050565b5f6117d183836117aa565b9150826002028217905092915050565b6117ea826111c3565b67ffffffffffffffff81111561180357611802610db9565b5b61180d825461161d565b611818828285611758565b5f60209050601f831160018114611849575f8415611837578287015190505b61184185826117c6565b8655506118a8565b601f1984166118578661164d565b5f5b8281101561187e57848901518255600182019150602085019450602081019050611859565b8683101561189b5784890151611897601f8916826117aa565b8355505b6001600288020188555050505b505050505050565b5f6118ba82610f9e565b91507fffffffffffffffffffffffffffffffffffffffffffffffffffffffffffffffff82036118ec576118eb6114e3565b5b600182019050919050565b7f4f6e6c79206c6f6e672070617274792063616e20636c6f73652074686520636f5f8201527f6e74726163740000000000000000000000000000000000000000000000000000602082015250565b5f6119516026836111cd565b915061195c826118f7565b604082019050919050565b5f6020820190508181035f83015261197e81611945565b9050919050565b5f61198f82610f9e565b915061199a83610f9e565b92508282026119a881610f9e565b915082820484148315176119bf576119be6114e3565b5b509291505056fea26469706673582212201fff5d376aa85ed2b324652daaba8d561daaad465cffb47b61dc6084a3f6f87664736f6c63430008170033",
					"opcodes": "PUSH1 0x80 PUSH1 0x40 MSTORE PUSH3 0x186A0 PUSH1 0x7 SSTORE CALLVALUE DUP1 ISZERO PUSH3 0x17 JUMPI PUSH0 DUP1 REVERT JUMPDEST POP PUSH1 0x40 MLOAD PUSH3 0x1E3B CODESIZE SUB DUP1 PUSH3 0x1E3B DUP4 CODECOPY DUP2 DUP2 ADD PUSH1 0x40 MSTORE DUP2 ADD SWAP1 PUSH3 0x3D SWAP2 SWAP1 PUSH3 0x29F JUMP JUMPDEST CALLER PUSH0 PUSH20 0xFFFFFFFFFFFFFFFFFFFFFFFFFFFFFFFFFFFFFFFF AND DUP2 PUSH20 0xFFFFFFFFFFFFFFFFFFFFFFFFFFFFFFFFFFFFFFFF AND SUB PUSH3 0xB1 JUMPI PUSH0 PUSH1 0x40 MLOAD PUSH32 0x1E4FBDF700000000000000000000000000000000000000000000000000000000 DUP2 MSTORE PUSH1 0x4 ADD PUSH3 0xA8 SWAP2 SWAP1 PUSH3 0x2E0 JUMP JUMPDEST PUSH1 0x40 MLOAD DUP1 SWAP2 SUB SWAP1 REVERT JUMPDEST PUSH3 0xC2 DUP2 PUSH3 0x179 PUSH1 0x20 SHL PUSH1 0x20 SHR JUMP JUMPDEST POP DUP1 PUSH1 0x1 PUSH0 PUSH2 0x100 EXP DUP2 SLOAD DUP2 PUSH20 0xFFFFFFFFFFFFFFFFFFFFFFFFFFFFFFFFFFFFFFFF MUL NOT AND SWAP1 DUP4 PUSH20 0xFFFFFFFFFFFFFFFFFFFFFFFFFFFFFFFFFFFFFFFF AND MUL OR SWAP1 SSTORE POP PUSH2 0x76C PUSH1 0x5 PUSH1 0x40 MLOAD PUSH3 0x116 SWAP1 PUSH3 0x353 JUMP JUMPDEST SWAP1 DUP2 MSTORE PUSH1 0x20 ADD PUSH1 0x40 MLOAD DUP1 SWAP2 SUB SWAP1 KECCAK256 DUP2 SWAP1 SSTORE POP PUSH2 0x7D0 PUSH1 0x5 PUSH1 0x40 MLOAD PUSH3 0x13B SWAP1 PUSH3 0x3B7 JUMP JUMPDEST SWAP1 DUP2 MSTORE PUSH1 0x20 ADD PUSH1 0x40 MLOAD DUP1 SWAP2 SUB SWAP1 KECCAK256 DUP2 SWAP1 SSTORE POP PUSH2 0x708 PUSH1 0x5 PUSH1 0x40 MLOAD PUSH3 0x160 SWAP1 PUSH3 0x41B JUMP JUMPDEST SWAP1 DUP2 MSTORE PUSH1 0x20 ADD PUSH1 0x40 MLOAD DUP1 SWAP2 SUB SWAP1 KECCAK256 DUP2 SWAP1 SSTORE POP POP PUSH3 0x431 JUMP JUMPDEST PUSH0 DUP1 PUSH0 SWAP1 SLOAD SWAP1 PUSH2 0x100 EXP SWAP1 DIV PUSH20 0xFFFFFFFFFFFFFFFFFFFFFFFFFFFFFFFFFFFFFFFF AND SWAP1 POP DUP2 PUSH0 DUP1 PUSH2 0x100 EXP DUP2 SLOAD DUP2 PUSH20 0xFFFFFFFFFFFFFFFFFFFFFFFFFFFFFFFFFFFFFFFF MUL NOT AND SWAP1 DUP4 PUSH20 0xFFFFFFFFFFFFFFFFFFFFFFFFFFFFFFFFFFFFFFFF AND MUL OR SWAP1 SSTORE POP DUP2 PUSH20 0xFFFFFFFFFFFFFFFFFFFFFFFFFFFFFFFFFFFFFFFF AND DUP2 PUSH20 0xFFFFFFFFFFFFFFFFFFFFFFFFFFFFFFFFFFFFFFFF AND PUSH32 0x8BE0079C531659141344CD1FD0A4F28419497F9722A3DAAFE3B4186F6B6457E0 PUSH1 0x40 MLOAD PUSH1 0x40 MLOAD DUP1 SWAP2 SUB SWAP1 LOG3 POP POP JUMP JUMPDEST PUSH0 DUP1 REVERT JUMPDEST PUSH0 PUSH20 0xFFFFFFFFFFFFFFFFFFFFFFFFFFFFFFFFFFFFFFFF DUP3 AND SWAP1 POP SWAP2 SWAP1 POP JUMP JUMPDEST PUSH0 PUSH3 0x269 DUP3 PUSH3 0x23E JUMP JUMPDEST SWAP1 POP SWAP2 SWAP1 POP JUMP JUMPDEST PUSH3 0x27B DUP2 PUSH3 0x25D JUMP JUMPDEST DUP2 EQ PUSH3 0x286 JUMPI PUSH0 DUP1 REVERT JUMPDEST POP JUMP JUMPDEST PUSH0 DUP2 MLOAD SWAP1 POP PUSH3 0x299 DUP2 PUSH3 0x270 JUMP JUMPDEST SWAP3 SWAP2 POP POP JUMP JUMPDEST PUSH0 PUSH1 0x20 DUP3 DUP5 SUB SLT ISZERO PUSH3 0x2B7 JUMPI PUSH3 0x2B6 PUSH3 0x23A JUMP JUMPDEST JUMPDEST PUSH0 PUSH3 0x2C6 DUP5 DUP3 DUP6 ADD PUSH3 0x289 JUMP JUMPDEST SWAP2 POP POP SWAP3 SWAP2 POP POP JUMP JUMPDEST PUSH3 0x2DA DUP2 PUSH3 0x25D JUMP JUMPDEST DUP3 MSTORE POP POP JUMP JUMPDEST PUSH0 PUSH1 0x20 DUP3 ADD SWAP1 POP PUSH3 0x2F5 PUSH0 DUP4 ADD DUP5 PUSH3 0x2CF JUMP JUMPDEST SWAP3 SWAP2 POP POP JUMP JUMPDEST PUSH0 DUP2 SWAP1 POP SWAP3 SWAP2 POP POP JUMP JUMPDEST PUSH32 0x417273656E616C00000000000000000000000000000000000000000000000000 PUSH0 DUP3 ADD MSTORE POP JUMP JUMPDEST PUSH0 PUSH3 0x33B PUSH1 0x7 DUP4 PUSH3 0x2FB JUMP JUMPDEST SWAP2 POP PUSH3 0x348 DUP3 PUSH3 0x305 JUMP JUMPDEST PUSH1 0x7 DUP3 ADD SWAP1 POP SWAP2 SWAP1 POP JUMP JUMPDEST PUSH0 PUSH3 0x35F DUP3 PUSH3 0x32D JUMP JUMPDEST SWAP2 POP DUP2 SWAP1 POP SWAP2 SWAP1 POP JUMP JUMPDEST PUSH32 0x4368656C73656100000000000000000000000000000000000000000000000000 PUSH0 DUP3 ADD MSTORE POP JUMP JUMPDEST PUSH0 PUSH3 0x39F PUSH1 0x7 DUP4 PUSH3 0x2FB JUMP JUMPDEST SWAP2 POP PUSH3 0x3AC DUP3 PUSH3 0x369 JUMP JUMPDEST PUSH1 0x7 DUP3 ADD SWAP1 POP SWAP2 SWAP1 POP JUMP JUMPDEST PUSH0 PUSH3 0x3C3 DUP3 PUSH3 0x391 JUMP JUMPDEST SWAP2 POP DUP2 SWAP1 POP SWAP2 SWAP1 POP JUMP JUMPDEST PUSH32 0x4D616E2043697479000000000000000000000000000000000000000000000000 PUSH0 DUP3 ADD MSTORE POP JUMP JUMPDEST PUSH0 PUSH3 0x403 PUSH1 0x8 DUP4 PUSH3 0x2FB JUMP JUMPDEST SWAP2 POP PUSH3 0x410 DUP3 PUSH3 0x3CD JUMP JUMPDEST PUSH1 0x8 DUP3 ADD SWAP1 POP SWAP2 SWAP1 POP JUMP JUMPDEST PUSH0 PUSH3 0x427 DUP3 PUSH3 0x3F5 JUMP JUMPDEST SWAP2 POP DUP2 SWAP1 POP SWAP2 SWAP1 POP JUMP JUMPDEST PUSH2 0x19FC DUP1 PUSH3 0x43F PUSH0 CODECOPY PUSH0 RETURN INVALID PUSH1 0x80 PUSH1 0x40 MSTORE PUSH1 0x4 CALLDATASIZE LT PUSH2 0xC1 JUMPI PUSH0 CALLDATALOAD PUSH1 0xE0 SHR DUP1 PUSH4 0x9DA751BB GT PUSH2 0x7E JUMPI DUP1 PUSH4 0xDB027E05 GT PUSH2 0x58 JUMPI DUP1 PUSH4 0xDB027E05 EQ PUSH2 0x23D JUMPI DUP1 PUSH4 0xED23F8C3 EQ PUSH2 0x279 JUMPI DUP1 PUSH4 0xF2FDE38B EQ PUSH2 0x2BB JUMPI DUP1 PUSH4 0xFDF3F74D EQ PUSH2 0x2E3 JUMPI PUSH2 0xC1 JUMP JUMPDEST DUP1 PUSH4 0x9DA751BB EQ PUSH2 0x1BD JUMPI DUP1 PUSH4 0xAC580DE7 EQ PUSH2 0x1D9 JUMPI DUP1 PUSH4 0xD0CE7360 EQ PUSH2 0x215 JUMPI PUSH2 0xC1 JUMP JUMPDEST DUP1 PUSH4 0x232424D EQ PUSH2 0xC5 JUMPI DUP1 PUSH4 0x8AB2D4B EQ PUSH2 0xEF JUMPI DUP1 PUSH4 0x12065FE0 EQ PUSH2 0x12B JUMPI DUP1 PUSH4 0x715018A6 EQ PUSH2 0x155 JUMPI DUP1 PUSH4 0x8DA5CB5B EQ PUSH2 0x16B JUMPI DUP1 PUSH4 0x939E3572 EQ PUSH2 0x195 JUMPI JUMPDEST PUSH0 DUP1 REVERT JUMPDEST CALLVALUE DUP1 ISZERO PUSH2 0xD0 JUMPI PUSH0 DUP1 REVERT JUMPDEST POP PUSH2 0xD9 PUSH2 0x31F JUMP JUMPDEST PUSH1 0x40 MLOAD PUSH2 0xE6 SWAP2 SWAP1 PUSH2 0xD77 JUMP JUMPDEST PUSH1 0x40 MLOAD DUP1 SWAP2 SUB SWAP1 RETURN JUMPDEST CALLVALUE DUP1 ISZERO PUSH2 0xFA JUMPI PUSH0 DUP1 REVERT JUMPDEST POP PUSH2 0x115 PUSH1 0x4 DUP1 CALLDATASIZE SUB DUP2 ADD SWAP1 PUSH2 0x110 SWAP2 SWAP1 PUSH2 0xEDD JUMP JUMPDEST PUSH2 0x344 JUMP JUMPDEST PUSH1 0x40 MLOAD PUSH2 0x122 SWAP2 SWAP1 PUSH2 0xFF0 JUMP JUMPDEST PUSH1 0x40 MLOAD DUP1 SWAP2 SUB SWAP1 RETURN JUMPDEST CALLVALUE DUP1 ISZERO PUSH2 0x136 JUMPI PUSH0 DUP1 REVERT JUMPDEST POP PUSH2 0x13F PUSH2 0x3EF JUMP JUMPDEST PUSH1 0x40 MLOAD PUSH2 0x14C SWAP2 SWAP1 PUSH2 0x101F JUMP JUMPDEST PUSH1 0x40 MLOAD DUP1 SWAP2 SUB SWAP1 RETURN JUMPDEST CALLVALUE DUP1 ISZERO PUSH2 0x160 JUMPI PUSH0 DUP1 REVERT JUMPDEST POP PUSH2 0x169 PUSH2 0x3F6 JUMP JUMPDEST STOP JUMPDEST CALLVALUE DUP1 ISZERO PUSH2 0x176 JUMPI PUSH0 DUP1 REVERT JUMPDEST POP PUSH2 0x17F PUSH2 0x409 JUMP JUMPDEST PUSH1 0x40 MLOAD PUSH2 0x18C SWAP2 SWAP1 PUSH2 0x1058 JUMP JUMPDEST PUSH1 0x40 MLOAD DUP1 SWAP2 SUB SWAP1 RETURN JUMPDEST CALLVALUE DUP1 ISZERO PUSH2 0x1A0 JUMPI PUSH0 DUP1 REVERT JUMPDEST POP PUSH2 0x1BB PUSH1 0x4 DUP1 CALLDATASIZE SUB DUP2 ADD SWAP1 PUSH2 0x1B6 SWAP2 SWAP1 PUSH2 0x10C5 JUMP JUMPDEST PUSH2 0x430 JUMP JUMPDEST STOP JUMPDEST PUSH2 0x1D7 PUSH1 0x4 DUP1 CALLDATASIZE SUB DUP2 ADD SWAP1 PUSH2 0x1D2 SWAP2 SWAP1 PUSH2 0xEDD JUMP JUMPDEST PUSH2 0x4E6 JUMP JUMPDEST STOP JUMPDEST CALLVALUE DUP1 ISZERO PUSH2 0x1E4 JUMPI PUSH0 DUP1 REVERT JUMPDEST POP PUSH2 0x1FF PUSH1 0x4 DUP1 CALLDATASIZE SUB DUP2 ADD SWAP1 PUSH2 0x1FA SWAP2 SWAP1 PUSH2 0x1115 JUMP JUMPDEST PUSH2 0x720 JUMP JUMPDEST PUSH1 0x40 MLOAD PUSH2 0x20C SWAP2 SWAP1 PUSH2 0x101F JUMP JUMPDEST PUSH1 0x40 MLOAD DUP1 SWAP2 SUB SWAP1 RETURN JUMPDEST CALLVALUE DUP1 ISZERO PUSH2 0x220 JUMPI PUSH0 DUP1 REVERT JUMPDEST POP PUSH2 0x23B PUSH1 0x4 DUP1 CALLDATASIZE SUB DUP2 ADD SWAP1 PUSH2 0x236 SWAP2 SWAP1 PUSH2 0x1140 JUMP JUMPDEST PUSH2 0x735 JUMP JUMPDEST STOP JUMPDEST CALLVALUE DUP1 ISZERO PUSH2 0x248 JUMPI PUSH0 DUP1 REVERT JUMPDEST POP PUSH2 0x263 PUSH1 0x4 DUP1 CALLDATASIZE SUB DUP2 ADD SWAP1 PUSH2 0x25E SWAP2 SWAP1 PUSH2 0xEDD JUMP JUMPDEST PUSH2 0x9B1 JUMP JUMPDEST PUSH1 0x40 MLOAD PUSH2 0x270 SWAP2 SWAP1 PUSH2 0x101F JUMP JUMPDEST PUSH1 0x40 MLOAD DUP1 SWAP2 SUB SWAP1 RETURN JUMPDEST CALLVALUE DUP1 ISZERO PUSH2 0x284 JUMPI PUSH0 DUP1 REVERT JUMPDEST POP PUSH2 0x29F PUSH1 0x4 DUP1 CALLDATASIZE SUB DUP2 ADD SWAP1 PUSH2 0x29A SWAP2 SWAP1 PUSH2 0x116B JUMP JUMPDEST PUSH2 0x9DE JUMP JUMPDEST PUSH1 0x40 MLOAD PUSH2 0x2B2 SWAP8 SWAP7 SWAP6 SWAP5 SWAP4 SWAP3 SWAP2 SWAP1 PUSH2 0x1215 JUMP JUMPDEST PUSH1 0x40 MLOAD DUP1 SWAP2 SUB SWAP1 RETURN JUMPDEST CALLVALUE DUP1 ISZERO PUSH2 0x2C6 JUMPI PUSH0 DUP1 REVERT JUMPDEST POP PUSH2 0x2E1 PUSH1 0x4 DUP1 CALLDATASIZE SUB DUP2 ADD SWAP1 PUSH2 0x2DC SWAP2 SWAP1 PUSH2 0x1115 JUMP JUMPDEST PUSH2 0xAE4 JUMP JUMPDEST STOP JUMPDEST CALLVALUE DUP1 ISZERO PUSH2 0x2EE JUMPI PUSH0 DUP1 REVERT JUMPDEST POP PUSH2 0x309 PUSH1 0x4 DUP1 CALLDATASIZE SUB DUP2 ADD SWAP1 PUSH2 0x304 SWAP2 SWAP1 PUSH2 0xEDD JUMP JUMPDEST PUSH2 0xB68 JUMP JUMPDEST PUSH1 0x40 MLOAD PUSH2 0x316 SWAP2 SWAP1 PUSH2 0x101F JUMP JUMPDEST PUSH1 0x40 MLOAD DUP1 SWAP2 SUB SWAP1 RETURN JUMPDEST PUSH1 0x1 PUSH0 SWAP1 SLOAD SWAP1 PUSH2 0x100 EXP SWAP1 DIV PUSH20 0xFFFFFFFFFFFFFFFFFFFFFFFFFFFFFFFFFFFFFFFF AND DUP2 JUMP JUMPDEST PUSH2 0x34C PUSH2 0xCE4 JUMP JUMPDEST PUSH1 0x1 PUSH0 SWAP1 SLOAD SWAP1 PUSH2 0x100 EXP SWAP1 DIV PUSH20 0xFFFFFFFFFFFFFFFFFFFFFFFFFFFFFFFFFFFFFFFF AND PUSH20 0xFFFFFFFFFFFFFFFFFFFFFFFFFFFFFFFFFFFFFFFF AND PUSH4 0x475F1686 DUP4 PUSH1 0x40 MLOAD DUP3 PUSH4 0xFFFFFFFF AND PUSH1 0xE0 SHL DUP2 MSTORE PUSH1 0x4 ADD PUSH2 0x3A6 SWAP2 SWAP1 PUSH2 0x1289 JUMP JUMPDEST PUSH0 PUSH1 0x40 MLOAD DUP1 DUP4 SUB DUP2 DUP7 GAS STATICCALL ISZERO DUP1 ISZERO PUSH2 0x3C0 JUMPI RETURNDATASIZE PUSH0 DUP1 RETURNDATACOPY RETURNDATASIZE PUSH0 REVERT JUMPDEST POP POP POP POP PUSH1 0x40 MLOAD RETURNDATASIZE PUSH0 DUP3 RETURNDATACOPY RETURNDATASIZE PUSH1 0x1F NOT PUSH1 0x1F DUP3 ADD AND DUP3 ADD DUP1 PUSH1 0x40 MSTORE POP DUP2 ADD SWAP1 PUSH2 0x3E8 SWAP2 SWAP1 PUSH2 0x13CC JUMP JUMPDEST SWAP1 POP SWAP2 SWAP1 POP JUMP JUMPDEST PUSH0 SELFBALANCE SWAP1 POP SWAP1 JUMP JUMPDEST PUSH2 0x3FE PUSH2 0xB95 JUMP JUMPDEST PUSH2 0x407 PUSH0 PUSH2 0xC1C JUMP JUMPDEST JUMP JUMPDEST PUSH0 DUP1 PUSH0 SWAP1 SLOAD SWAP1 PUSH2 0x100 EXP SWAP1 DIV PUSH20 0xFFFFFFFFFFFFFFFFFFFFFFFFFFFFFFFFFFFFFFFF AND SWAP1 POP SWAP1 JUMP JUMPDEST PUSH2 0x438 PUSH2 0xB95 JUMP JUMPDEST PUSH0 PUSH1 0x3 PUSH0 DUP5 PUSH20 0xFFFFFFFFFFFFFFFFFFFFFFFFFFFFFFFFFFFFFFFF AND PUSH20 0xFFFFFFFFFFFFFFFFFFFFFFFFFFFFFFFFFFFFFFFF AND DUP2 MSTORE PUSH1 0x20 ADD SWAP1 DUP2 MSTORE PUSH1 0x20 ADD PUSH0 KECCAK256 PUSH0 DUP4 DUP2 MSTORE PUSH1 0x20 ADD SWAP1 DUP2 MSTORE PUSH1 0x20 ADD PUSH0 KECCAK256 SWAP1 POP DUP1 PUSH1 0x3 ADD PUSH0 SWAP1 SLOAD SWAP1 PUSH2 0x100 EXP SWAP1 DIV PUSH1 0xFF AND PUSH2 0x4D7 JUMPI PUSH1 0x40 MLOAD PUSH32 0x8C379A000000000000000000000000000000000000000000000000000000000 DUP2 MSTORE PUSH1 0x4 ADD PUSH2 0x4CE SWAP1 PUSH2 0x145D JUMP JUMPDEST PUSH1 0x40 MLOAD DUP1 SWAP2 SUB SWAP1 REVERT JUMPDEST DUP4 DUP2 PUSH1 0x2 ADD DUP2 SWAP1 SSTORE POP POP POP POP POP JUMP JUMPDEST PUSH0 CALLVALUE GT PUSH2 0x528 JUMPI PUSH1 0x40 MLOAD PUSH32 0x8C379A000000000000000000000000000000000000000000000000000000000 DUP2 MSTORE PUSH1 0x4 ADD PUSH2 0x51F SWAP1 PUSH2 0x14C5 JUMP JUMPDEST PUSH1 0x40 MLOAD DUP1 SWAP2 SUB SWAP1 REVERT JUMPDEST PUSH0 PUSH1 0x1 PUSH1 0x4 PUSH0 CALLER PUSH20 0xFFFFFFFFFFFFFFFFFFFFFFFFFFFFFFFFFFFFFFFF AND PUSH20 0xFFFFFFFFFFFFFFFFFFFFFFFFFFFFFFFFFFFFFFFF AND DUP2 MSTORE PUSH1 0x20 ADD SWAP1 DUP2 MSTORE PUSH1 0x20 ADD PUSH0 KECCAK256 SLOAD PUSH2 0x573 SWAP2 SWAP1 PUSH2 0x1510 JUMP JUMPDEST SWAP1 POP PUSH0 PUSH1 0x5 DUP4 PUSH1 0x40 MLOAD PUSH2 0x586 SWAP2 SWAP1 PUSH2 0x157D JUMP JUMPDEST SWAP1 DUP2 MSTORE PUSH1 0x20 ADD PUSH1 0x40 MLOAD DUP1 SWAP2 SUB SWAP1 KECCAK256 SLOAD CALLVALUE PUSH2 0x5A0 SWAP2 SWAP1 PUSH2 0x15C0 JUMP JUMPDEST SWAP1 POP PUSH0 PUSH1 0x3 PUSH0 CALLER PUSH20 0xFFFFFFFFFFFFFFFFFFFFFFFFFFFFFFFFFFFFFFFF AND PUSH20 0xFFFFFFFFFFFFFFFFFFFFFFFFFFFFFFFFFFFFFFFF AND DUP2 MSTORE PUSH1 0x20 ADD SWAP1 DUP2 MSTORE PUSH1 0x20 ADD PUSH0 KECCAK256 PUSH0 DUP5 DUP2 MSTORE PUSH1 0x20 ADD SWAP1 DUP2 MSTORE PUSH1 0x20 ADD PUSH0 KECCAK256 SWAP1 POP CALLER DUP2 PUSH0 ADD PUSH0 PUSH2 0x100 EXP DUP2 SLOAD DUP2 PUSH20 0xFFFFFFFFFFFFFFFFFFFFFFFFFFFFFFFFFFFFFFFF MUL NOT AND SWAP1 DUP4 PUSH20 0xFFFFFFFFFFFFFFFFFFFFFFFFFFFFFFFFFFFFFFFF AND MUL OR SWAP1 SSTORE POP DUP4 DUP2 PUSH1 0x4 ADD SWAP1 DUP2 PUSH2 0x643 SWAP2 SWAP1 PUSH2 0x17E1 JUMP JUMPDEST POP DUP2 DUP2 PUSH1 0x1 ADD DUP2 SWAP1 SSTORE POP PUSH1 0x5 DUP5 PUSH1 0x40 MLOAD PUSH2 0x65D SWAP2 SWAP1 PUSH2 0x157D JUMP JUMPDEST SWAP1 DUP2 MSTORE PUSH1 0x20 ADD PUSH1 0x40 MLOAD DUP1 SWAP2 SUB SWAP1 KECCAK256 SLOAD DUP2 PUSH1 0x5 ADD DUP2 SWAP1 SSTORE POP PUSH1 0x1 DUP2 PUSH1 0x3 ADD PUSH0 PUSH2 0x100 EXP DUP2 SLOAD DUP2 PUSH1 0xFF MUL NOT AND SWAP1 DUP4 ISZERO ISZERO MUL OR SWAP1 SSTORE POP PUSH1 0x4 PUSH0 CALLER PUSH20 0xFFFFFFFFFFFFFFFFFFFFFFFFFFFFFFFFFFFFFFFF AND PUSH20 0xFFFFFFFFFFFFFFFFFFFFFFFFFFFFFFFFFFFFFFFF AND DUP2 MSTORE PUSH1 0x20 ADD SWAP1 DUP2 MSTORE PUSH1 0x20 ADD PUSH0 KECCAK256 PUSH0 DUP2 SLOAD DUP1 SWAP3 SWAP2 SWAP1 PUSH2 0x6DD SWAP1 PUSH2 0x18B0 JUMP JUMPDEST SWAP2 SWAP1 POP SSTORE POP DUP1 PUSH1 0x1 ADD SLOAD PUSH1 0x6 DUP6 PUSH1 0x40 MLOAD PUSH2 0x6F7 SWAP2 SWAP1 PUSH2 0x157D JUMP JUMPDEST SWAP1 DUP2 MSTORE PUSH1 0x20 ADD PUSH1 0x40 MLOAD DUP1 SWAP2 SUB SWAP1 KECCAK256 PUSH0 DUP3 DUP3 SLOAD PUSH2 0x713 SWAP2 SWAP1 PUSH2 0x1510 JUMP JUMPDEST SWAP3 POP POP DUP2 SWAP1 SSTORE POP POP POP POP POP JUMP JUMPDEST PUSH1 0x4 PUSH1 0x20 MSTORE DUP1 PUSH0 MSTORE PUSH1 0x40 PUSH0 KECCAK256 PUSH0 SWAP2 POP SWAP1 POP SLOAD DUP2 JUMP JUMPDEST PUSH0 PUSH1 0x3 PUSH0 CALLER PUSH20 0xFFFFFFFFFFFFFFFFFFFFFFFFFFFFFFFFFFFFFFFF AND PUSH20 0xFFFFFFFFFFFFFFFFFFFFFFFFFFFFFFFFFFFFFFFF AND DUP2 MSTORE PUSH1 0x20 ADD SWAP1 DUP2 MSTORE PUSH1 0x20 ADD PUSH0 KECCAK256 PUSH0 DUP4 DUP2 MSTORE PUSH1 0x20 ADD SWAP1 DUP2 MSTORE PUSH1 0x20 ADD PUSH0 KECCAK256 SWAP1 POP DUP1 PUSH1 0x3 ADD PUSH0 SWAP1 SLOAD SWAP1 PUSH2 0x100 EXP SWAP1 DIV PUSH1 0xFF AND PUSH2 0x7D4 JUMPI PUSH1 0x40 MLOAD PUSH32 0x8C379A000000000000000000000000000000000000000000000000000000000 DUP2 MSTORE PUSH1 0x4 ADD PUSH2 0x7CB SWAP1 PUSH2 0x145D JUMP JUMPDEST PUSH1 0x40 MLOAD DUP1 SWAP2 SUB SWAP1 REVERT JUMPDEST CALLER PUSH20 0xFFFFFFFFFFFFFFFFFFFFFFFFFFFFFFFFFFFFFFFF AND DUP2 PUSH0 ADD PUSH0 SWAP1 SLOAD SWAP1 PUSH2 0x100 EXP SWAP1 DIV PUSH20 0xFFFFFFFFFFFFFFFFFFFFFFFFFFFFFFFFFFFFFFFF AND PUSH20 0xFFFFFFFFFFFFFFFFFFFFFFFFFFFFFFFFFFFFFFFF AND EQ PUSH2 0x864 JUMPI PUSH1 0x40 MLOAD PUSH32 0x8C379A000000000000000000000000000000000000000000000000000000000 DUP2 MSTORE PUSH1 0x4 ADD PUSH2 0x85B SWAP1 PUSH2 0x1967 JUMP JUMPDEST PUSH1 0x40 MLOAD DUP1 SWAP2 SUB SWAP1 REVERT JUMPDEST PUSH0 DUP2 PUSH1 0x4 ADD DUP1 SLOAD PUSH2 0x874 SWAP1 PUSH2 0x161D JUMP JUMPDEST DUP1 PUSH1 0x1F ADD PUSH1 0x20 DUP1 SWAP2 DIV MUL PUSH1 0x20 ADD PUSH1 0x40 MLOAD SWAP1 DUP2 ADD PUSH1 0x40 MSTORE DUP1 SWAP3 SWAP2 SWAP1 DUP2 DUP2 MSTORE PUSH1 0x20 ADD DUP3 DUP1 SLOAD PUSH2 0x8A0 SWAP1 PUSH2 0x161D JUMP JUMPDEST DUP1 ISZERO PUSH2 0x8EB JUMPI DUP1 PUSH1 0x1F LT PUSH2 0x8C2 JUMPI PUSH2 0x100 DUP1 DUP4 SLOAD DIV MUL DUP4 MSTORE SWAP2 PUSH1 0x20 ADD SWAP2 PUSH2 0x8EB JUMP JUMPDEST DUP3 ADD SWAP2 SWAP1 PUSH0 MSTORE PUSH1 0x20 PUSH0 KECCAK256 SWAP1 JUMPDEST DUP2 SLOAD DUP2 MSTORE SWAP1 PUSH1 0x1 ADD SWAP1 PUSH1 0x20 ADD DUP1 DUP4 GT PUSH2 0x8CE JUMPI DUP3 SWAP1 SUB PUSH1 0x1F AND DUP3 ADD SWAP2 JUMPDEST POP POP POP POP POP SWAP1 POP PUSH0 PUSH1 0x5 DUP3 PUSH1 0x40 MLOAD PUSH2 0x903 SWAP2 SWAP1 PUSH2 0x157D JUMP JUMPDEST SWAP1 DUP2 MSTORE PUSH1 0x20 ADD PUSH1 0x40 MLOAD DUP1 SWAP2 SUB SWAP1 KECCAK256 SLOAD SWAP1 POP PUSH0 PUSH2 0x91D PUSH2 0x3EF JUMP JUMPDEST SWAP1 POP PUSH0 DUP5 PUSH1 0x1 ADD SLOAD DUP3 DUP5 PUSH1 0x7 SLOAD PUSH2 0x934 SWAP2 SWAP1 PUSH2 0x15C0 JUMP JUMPDEST PUSH2 0x93E SWAP2 SWAP1 PUSH2 0x1985 JUMP JUMPDEST PUSH2 0x948 SWAP2 SWAP1 PUSH2 0x1985 JUMP JUMPDEST SWAP1 POP CALLER PUSH20 0xFFFFFFFFFFFFFFFFFFFFFFFFFFFFFFFFFFFFFFFF AND PUSH2 0x8FC DUP3 SWAP1 DUP2 ISZERO MUL SWAP1 PUSH1 0x40 MLOAD PUSH0 PUSH1 0x40 MLOAD DUP1 DUP4 SUB DUP2 DUP6 DUP9 DUP9 CALL SWAP4 POP POP POP POP ISZERO DUP1 ISZERO PUSH2 0x98D JUMPI RETURNDATASIZE PUSH0 DUP1 RETURNDATACOPY RETURNDATASIZE PUSH0 REVERT JUMPDEST POP PUSH0 DUP6 PUSH1 0x3 ADD PUSH0 PUSH2 0x100 EXP DUP2 SLOAD DUP2 PUSH1 0xFF MUL NOT AND SWAP1 DUP4 ISZERO ISZERO MUL OR SWAP1 SSTORE POP POP POP POP POP POP POP JUMP JUMPDEST PUSH1 0x6 DUP2 DUP1 MLOAD PUSH1 0x20 DUP2 ADD DUP3 ADD DUP1 MLOAD DUP5 DUP3 MSTORE PUSH1 0x20 DUP4 ADD PUSH1 0x20 DUP6 ADD KECCAK256 DUP2 DUP4 MSTORE DUP1 SWAP6 POP POP POP POP POP POP PUSH0 SWAP2 POP SWAP1 POP SLOAD DUP2 JUMP JUMPDEST PUSH1 0x3 PUSH1 0x20 MSTORE DUP2 PUSH0 MSTORE PUSH1 0x40 PUSH0 KECCAK256 PUSH1 0x20 MSTORE DUP1 PUSH0 MSTORE PUSH1 0x40 PUSH0 KECCAK256 PUSH0 SWAP2 POP SWAP2 POP POP DUP1 PUSH0 ADD PUSH0 SWAP1 SLOAD SWAP1 PUSH2 0x100 EXP SWAP1 DIV PUSH20 0xFFFFFFFFFFFFFFFFFFFFFFFFFFFFFFFFFFFFFFFF AND SWAP1 DUP1 PUSH0 ADD PUSH1 0x14 SWAP1 SLOAD SWAP1 PUSH2 0x100 EXP SWAP1 DIV PUSH1 0xFF AND SWAP1 DUP1 PUSH1 0x1 ADD SLOAD SWAP1 DUP1 PUSH1 0x2 ADD SLOAD SWAP1 DUP1 PUSH1 0x3 ADD PUSH0 SWAP1 SLOAD SWAP1 PUSH2 0x100 EXP SWAP1 DIV PUSH1 0xFF AND SWAP1 DUP1 PUSH1 0x4 ADD DUP1 SLOAD PUSH2 0xA5D SWAP1 PUSH2 0x161D JUMP JUMPDEST DUP1 PUSH1 0x1F ADD PUSH1 0x20 DUP1 SWAP2 DIV MUL PUSH1 0x20 ADD PUSH1 0x40 MLOAD SWAP1 DUP2 ADD PUSH1 0x40 MSTORE DUP1 SWAP3 SWAP2 SWAP1 DUP2 DUP2 MSTORE PUSH1 0x20 ADD DUP3 DUP1 SLOAD PUSH2 0xA89 SWAP1 PUSH2 0x161D JUMP JUMPDEST DUP1 ISZERO PUSH2 0xAD4 JUMPI DUP1 PUSH1 0x1F LT PUSH2 0xAAB JUMPI PUSH2 0x100 DUP1 DUP4 SLOAD DIV MUL DUP4 MSTORE SWAP2 PUSH1 0x20 ADD SWAP2 PUSH2 0xAD4 JUMP JUMPDEST DUP3 ADD SWAP2 SWAP1 PUSH0 MSTORE PUSH1 0x20 PUSH0 KECCAK256 SWAP1 JUMPDEST DUP2 SLOAD DUP2 MSTORE SWAP1 PUSH1 0x1 ADD SWAP1 PUSH1 0x20 ADD DUP1 DUP4 GT PUSH2 0xAB7 JUMPI DUP3 SWAP1 SUB PUSH1 0x1F AND DUP3 ADD SWAP2 JUMPDEST POP POP POP POP POP SWAP1 DUP1 PUSH1 0x5 ADD SLOAD SWAP1 POP DUP8 JUMP JUMPDEST PUSH2 0xAEC PUSH2 0xB95 JUMP JUMPDEST PUSH0 PUSH20 0xFFFFFFFFFFFFFFFFFFFFFFFFFFFFFFFFFFFFFFFF AND DUP2 PUSH20 0xFFFFFFFFFFFFFFFFFFFFFFFFFFFFFFFFFFFFFFFF AND SUB PUSH2 0xB5C JUMPI PUSH0 PUSH1 0x40 MLOAD PUSH32 0x1E4FBDF700000000000000000000000000000000000000000000000000000000 DUP2 MSTORE PUSH1 0x4 ADD PUSH2 0xB53 SWAP2 SWAP1 PUSH2 0x1058 JUMP JUMPDEST PUSH1 0x40 MLOAD DUP1 SWAP2 SUB SWAP1 REVERT JUMPDEST PUSH2 0xB65 DUP2 PUSH2 0xC1C JUMP JUMPDEST POP JUMP JUMPDEST PUSH1 0x5 DUP2 DUP1 MLOAD PUSH1 0x20 DUP2 ADD DUP3 ADD DUP1 MLOAD DUP5 DUP3 MSTORE PUSH1 0x20 DUP4 ADD PUSH1 0x20 DUP6 ADD KECCAK256 DUP2 DUP4 MSTORE DUP1 SWAP6 POP POP POP POP POP POP PUSH0 SWAP2 POP SWAP1 POP SLOAD DUP2 JUMP JUMPDEST PUSH2 0xB9D PUSH2 0xCDD JUMP JUMPDEST PUSH20 0xFFFFFFFFFFFFFFFFFFFFFFFFFFFFFFFFFFFFFFFF AND PUSH2 0xBBB PUSH2 0x409 JUMP JUMPDEST PUSH20 0xFFFFFFFFFFFFFFFFFFFFFFFFFFFFFFFFFFFFFFFF AND EQ PUSH2 0xC1A JUMPI PUSH2 0xBDE PUSH2 0xCDD JUMP JUMPDEST PUSH1 0x40 MLOAD PUSH32 0x118CDAA700000000000000000000000000000000000000000000000000000000 DUP2 MSTORE PUSH1 0x4 ADD PUSH2 0xC11 SWAP2 SWAP1 PUSH2 0x1058 JUMP JUMPDEST PUSH1 0x40 MLOAD DUP1 SWAP2 SUB SWAP1 REVERT JUMPDEST JUMP JUMPDEST PUSH0 DUP1 PUSH0 SWAP1 SLOAD SWAP1 PUSH2 0x100 EXP SWAP1 DIV PUSH20 0xFFFFFFFFFFFFFFFFFFFFFFFFFFFFFFFFFFFFFFFF AND SWAP1 POP DUP2 PUSH0 DUP1 PUSH2 0x100 EXP DUP2 SLOAD DUP2 PUSH20 0xFFFFFFFFFFFFFFFFFFFFFFFFFFFFFFFFFFFFFFFF MUL NOT AND SWAP1 DUP4 PUSH20 0xFFFFFFFFFFFFFFFFFFFFFFFFFFFFFFFFFFFFFFFF AND MUL OR SWAP1 SSTORE POP DUP2 PUSH20 0xFFFFFFFFFFFFFFFFFFFFFFFFFFFFFFFFFFFFFFFF AND DUP2 PUSH20 0xFFFFFFFFFFFFFFFFFFFFFFFFFFFFFFFFFFFFFFFF AND PUSH32 0x8BE0079C531659141344CD1FD0A4F28419497F9722A3DAAFE3B4186F6B6457E0 PUSH1 0x40 MLOAD PUSH1 0x40 MLOAD DUP1 SWAP2 SUB SWAP1 LOG3 POP POP JUMP JUMPDEST PUSH0 CALLER SWAP1 POP SWAP1 JUMP JUMPDEST PUSH1 0x40 MLOAD DUP1 PUSH1 0x40 ADD PUSH1 0x40 MSTORE DUP1 PUSH1 0x60 DUP2 MSTORE PUSH1 0x20 ADD PUSH0 DUP2 MSTORE POP SWAP1 JUMP JUMPDEST PUSH0 PUSH20 0xFFFFFFFFFFFFFFFFFFFFFFFFFFFFFFFFFFFFFFFF DUP3 AND SWAP1 POP SWAP2 SWAP1 POP JUMP JUMPDEST PUSH0 DUP2 SWAP1 POP SWAP2 SWAP1 POP JUMP JUMPDEST PUSH0 PUSH2 0xD3F PUSH2 0xD3A PUSH2 0xD35 DUP5 PUSH2 0xCFD JUMP JUMPDEST PUSH2 0xD1C JUMP JUMPDEST PUSH2 0xCFD JUMP JUMPDEST SWAP1 POP SWAP2 SWAP1 POP JUMP JUMPDEST PUSH0 PUSH2 0xD50 DUP3 PUSH2 0xD25 JUMP JUMPDEST SWAP1 POP SWAP2 SWAP1 POP JUMP JUMPDEST PUSH0 PUSH2 0xD61 DUP3 PUSH2 0xD46 JUMP JUMPDEST SWAP1 POP SWAP2 SWAP1 POP JUMP JUMPDEST PUSH2 0xD71 DUP2 PUSH2 0xD57 JUMP JUMPDEST DUP3 MSTORE POP POP JUMP JUMPDEST PUSH0 PUSH1 0x20 DUP3 ADD SWAP1 POP PUSH2 0xD8A PUSH0 DUP4 ADD DUP5 PUSH2 0xD68 JUMP JUMPDEST SWAP3 SWAP2 POP POP JUMP JUMPDEST PUSH0 PUSH1 0x40 MLOAD SWAP1 POP SWAP1 JUMP JUMPDEST PUSH0 DUP1 REVERT JUMPDEST PUSH0 DUP1 REVERT JUMPDEST PUSH0 DUP1 REVERT JUMPDEST PUSH0 DUP1 REVERT JUMPDEST PUSH0 PUSH1 0x1F NOT PUSH1 0x1F DUP4 ADD AND SWAP1 POP SWAP2 SWAP1 POP JUMP JUMPDEST PUSH32 0x4E487B7100000000000000000000000000000000000000000000000000000000 PUSH0 MSTORE PUSH1 0x41 PUSH1 0x4 MSTORE PUSH1 0x24 PUSH0 REVERT JUMPDEST PUSH2 0xDEF DUP3 PUSH2 0xDA9 JUMP JUMPDEST DUP2 ADD DUP2 DUP2 LT PUSH8 0xFFFFFFFFFFFFFFFF DUP3 GT OR ISZERO PUSH2 0xE0E JUMPI PUSH2 0xE0D PUSH2 0xDB9 JUMP JUMPDEST JUMPDEST DUP1 PUSH1 0x40 MSTORE POP POP POP JUMP JUMPDEST PUSH0 PUSH2 0xE20 PUSH2 0xD90 JUMP JUMPDEST SWAP1 POP PUSH2 0xE2C DUP3 DUP3 PUSH2 0xDE6 JUMP JUMPDEST SWAP2 SWAP1 POP JUMP JUMPDEST PUSH0 PUSH8 0xFFFFFFFFFFFFFFFF DUP3 GT ISZERO PUSH2 0xE4B JUMPI PUSH2 0xE4A PUSH2 0xDB9 JUMP JUMPDEST JUMPDEST PUSH2 0xE54 DUP3 PUSH2 0xDA9 JUMP JUMPDEST SWAP1 POP PUSH1 0x20 DUP2 ADD SWAP1 POP SWAP2 SWAP1 POP JUMP JUMPDEST DUP3 DUP2 DUP4 CALLDATACOPY PUSH0 DUP4 DUP4 ADD MSTORE POP POP POP JUMP JUMPDEST PUSH0 PUSH2 0xE81 PUSH2 0xE7C DUP5 PUSH2 0xE31 JUMP JUMPDEST PUSH2 0xE17 JUMP JUMPDEST SWAP1 POP DUP3 DUP2 MSTORE PUSH1 0x20 DUP2 ADD DUP5 DUP5 DUP5 ADD GT ISZERO PUSH2 0xE9D JUMPI PUSH2 0xE9C PUSH2 0xDA5 JUMP JUMPDEST JUMPDEST PUSH2 0xEA8 DUP5 DUP3 DUP6 PUSH2 0xE61 JUMP JUMPDEST POP SWAP4 SWAP3 POP POP POP JUMP JUMPDEST PUSH0 DUP3 PUSH1 0x1F DUP4 ADD SLT PUSH2 0xEC4 JUMPI PUSH2 0xEC3 PUSH2 0xDA1 JUMP JUMPDEST JUMPDEST DUP2 CALLDATALOAD PUSH2 0xED4 DUP5 DUP3 PUSH1 0x20 DUP7 ADD PUSH2 0xE6F JUMP JUMPDEST SWAP2 POP POP SWAP3 SWAP2 POP POP JUMP JUMPDEST PUSH0 PUSH1 0x20 DUP3 DUP5 SUB SLT ISZERO PUSH2 0xEF2 JUMPI PUSH2 0xEF1 PUSH2 0xD99 JUMP JUMPDEST JUMPDEST PUSH0 DUP3 ADD CALLDATALOAD PUSH8 0xFFFFFFFFFFFFFFFF DUP2 GT ISZERO PUSH2 0xF0F JUMPI PUSH2 0xF0E PUSH2 0xD9D JUMP JUMPDEST JUMPDEST PUSH2 0xF1B DUP5 DUP3 DUP6 ADD PUSH2 0xEB0 JUMP JUMPDEST SWAP2 POP POP SWAP3 SWAP2 POP POP JUMP JUMPDEST PUSH0 DUP2 MLOAD SWAP1 POP SWAP2 SWAP1 POP JUMP JUMPDEST PUSH0 DUP3 DUP3 MSTORE PUSH1 0x20 DUP3 ADD SWAP1 POP SWAP3 SWAP2 POP POP JUMP JUMPDEST PUSH0 JUMPDEST DUP4 DUP2 LT ISZERO PUSH2 0xF5B JUMPI DUP1 DUP3 ADD MLOAD DUP2 DUP5 ADD MSTORE PUSH1 0x20 DUP2 ADD SWAP1 POP PUSH2 0xF40 JUMP JUMPDEST PUSH0 DUP5 DUP5 ADD MSTORE POP POP POP POP JUMP JUMPDEST PUSH0 PUSH2 0xF70 DUP3 PUSH2 0xF24 JUMP JUMPDEST PUSH2 0xF7A DUP2 DUP6 PUSH2 0xF2E JUMP JUMPDEST SWAP4 POP PUSH2 0xF8A DUP2 DUP6 PUSH1 0x20 DUP7 ADD PUSH2 0xF3E JUMP JUMPDEST PUSH2 0xF93 DUP2 PUSH2 0xDA9 JUMP JUMPDEST DUP5 ADD SWAP2 POP POP SWAP3 SWAP2 POP POP JUMP JUMPDEST PUSH0 DUP2 SWAP1 POP SWAP2 SWAP1 POP JUMP JUMPDEST PUSH2 0xFB0 DUP2 PUSH2 0xF9E JUMP JUMPDEST DUP3 MSTORE POP POP JUMP JUMPDEST PUSH0 PUSH1 0x40 DUP4 ADD PUSH0 DUP4 ADD MLOAD DUP5 DUP3 SUB PUSH0 DUP7 ADD MSTORE PUSH2 0xFD0 DUP3 DUP3 PUSH2 0xF66 JUMP JUMPDEST SWAP2 POP POP PUSH1 0x20 DUP4 ADD MLOAD PUSH2 0xFE5 PUSH1 0x20 DUP7 ADD DUP3 PUSH2 0xFA7 JUMP JUMPDEST POP DUP1 SWAP2 POP POP SWAP3 SWAP2 POP POP JUMP JUMPDEST PUSH0 PUSH1 0x20 DUP3 ADD SWAP1 POP DUP2 DUP2 SUB PUSH0 DUP4 ADD MSTORE PUSH2 0x1008 DUP2 DUP5 PUSH2 0xFB6 JUMP JUMPDEST SWAP1 POP SWAP3 SWAP2 POP POP JUMP JUMPDEST PUSH2 0x1019 DUP2 PUSH2 0xF9E JUMP JUMPDEST DUP3 MSTORE POP POP JUMP JUMPDEST PUSH0 PUSH1 0x20 DUP3 ADD SWAP1 POP PUSH2 0x1032 PUSH0 DUP4 ADD DUP5 PUSH2 0x1010 JUMP JUMPDEST SWAP3 SWAP2 POP POP JUMP JUMPDEST PUSH0 PUSH2 0x1042 DUP3 PUSH2 0xCFD JUMP JUMPDEST SWAP1 POP SWAP2 SWAP1 POP JUMP JUMPDEST PUSH2 0x1052 DUP2 PUSH2 0x1038 JUMP JUMPDEST DUP3 MSTORE POP POP JUMP JUMPDEST PUSH0 PUSH1 0x20 DUP3 ADD SWAP1 POP PUSH2 0x106B PUSH0 DUP4 ADD DUP5 PUSH2 0x1049 JUMP JUMPDEST SWAP3 SWAP2 POP POP JUMP JUMPDEST PUSH2 0x107A DUP2 PUSH2 0xF9E JUMP JUMPDEST DUP2 EQ PUSH2 0x1084 JUMPI PUSH0 DUP1 REVERT JUMPDEST POP JUMP JUMPDEST PUSH0 DUP2 CALLDATALOAD SWAP1 POP PUSH2 0x1095 DUP2 PUSH2 0x1071 JUMP JUMPDEST SWAP3 SWAP2 POP POP JUMP JUMPDEST PUSH2 0x10A4 DUP2 PUSH2 0x1038 JUMP JUMPDEST DUP2 EQ PUSH2 0x10AE JUMPI PUSH0 DUP1 REVERT JUMPDEST POP JUMP JUMPDEST PUSH0 DUP2 CALLDATALOAD SWAP1 POP PUSH2 0x10BF DUP2 PUSH2 0x109B JUMP JUMPDEST SWAP3 SWAP2 POP POP JUMP JUMPDEST PUSH0 DUP1 PUSH0 PUSH1 0x60 DUP5 DUP7 SUB SLT ISZERO PUSH2 0x10DC JUMPI PUSH2 0x10DB PUSH2 0xD99 JUMP JUMPDEST JUMPDEST PUSH0 PUSH2 0x10E9 DUP7 DUP3 DUP8 ADD PUSH2 0x1087 JUMP JUMPDEST SWAP4 POP POP PUSH1 0x20 PUSH2 0x10FA DUP7 DUP3 DUP8 ADD PUSH2 0x10B1 JUMP JUMPDEST SWAP3 POP POP PUSH1 0x40 PUSH2 0x110B DUP7 DUP3 DUP8 ADD PUSH2 0x1087 JUMP JUMPDEST SWAP2 POP POP SWAP3 POP SWAP3 POP SWAP3 JUMP JUMPDEST PUSH0 PUSH1 0x20 DUP3 DUP5 SUB SLT ISZERO PUSH2 0x112A JUMPI PUSH2 0x1129 PUSH2 0xD99 JUMP JUMPDEST JUMPDEST PUSH0 PUSH2 0x1137 DUP5 DUP3 DUP6 ADD PUSH2 0x10B1 JUMP JUMPDEST SWAP2 POP POP SWAP3 SWAP2 POP POP JUMP JUMPDEST PUSH0 PUSH1 0x20 DUP3 DUP5 SUB SLT ISZERO PUSH2 0x1155 JUMPI PUSH2 0x1154 PUSH2 0xD99 JUMP JUMPDEST JUMPDEST PUSH0 PUSH2 0x1162 DUP5 DUP3 DUP6 ADD PUSH2 0x1087 JUMP JUMPDEST SWAP2 POP POP SWAP3 SWAP2 POP POP JUMP JUMPDEST PUSH0 DUP1 PUSH1 0x40 DUP4 DUP6 SUB SLT ISZERO PUSH2 0x1181 JUMPI PUSH2 0x1180 PUSH2 0xD99 JUMP JUMPDEST JUMPDEST PUSH0 PUSH2 0x118E DUP6 DUP3 DUP7 ADD PUSH2 0x10B1 JUMP JUMPDEST SWAP3 POP POP PUSH1 0x20 PUSH2 0x119F DUP6 DUP3 DUP7 ADD PUSH2 0x1087 JUMP JUMPDEST SWAP2 POP POP SWAP3 POP SWAP3 SWAP1 POP JUMP JUMPDEST PUSH0 DUP2 ISZERO ISZERO SWAP1 POP SWAP2 SWAP1 POP JUMP JUMPDEST PUSH2 0x11BD DUP2 PUSH2 0x11A9 JUMP JUMPDEST DUP3 MSTORE POP POP JUMP JUMPDEST PUSH0 DUP2 MLOAD SWAP1 POP SWAP2 SWAP1 POP JUMP JUMPDEST PUSH0 DUP3 DUP3 MSTORE PUSH1 0x20 DUP3 ADD SWAP1 POP SWAP3 SWAP2 POP POP JUMP JUMPDEST PUSH0 PUSH2 0x11E7 DUP3 PUSH2 0x11C3 JUMP JUMPDEST PUSH2 0x11F1 DUP2 DUP6 PUSH2 0x11CD JUMP JUMPDEST SWAP4 POP PUSH2 0x1201 DUP2 DUP6 PUSH1 0x20 DUP7 ADD PUSH2 0xF3E JUMP JUMPDEST PUSH2 0x120A DUP2 PUSH2 0xDA9 JUMP JUMPDEST DUP5 ADD SWAP2 POP POP SWAP3 SWAP2 POP POP JUMP JUMPDEST PUSH0 PUSH1 0xE0 DUP3 ADD SWAP1 POP PUSH2 0x1228 PUSH0 DUP4 ADD DUP11 PUSH2 0x1049 JUMP JUMPDEST PUSH2 0x1235 PUSH1 0x20 DUP4 ADD DUP10 PUSH2 0x11B4 JUMP JUMPDEST PUSH2 0x1242 PUSH1 0x40 DUP4 ADD DUP9 PUSH2 0x1010 JUMP JUMPDEST PUSH2 0x124F PUSH1 0x60 DUP4 ADD DUP8 PUSH2 0x1010 JUMP JUMPDEST PUSH2 0x125C PUSH1 0x80 DUP4 ADD DUP7 PUSH2 0x11B4 JUMP JUMPDEST DUP2 DUP2 SUB PUSH1 0xA0 DUP4 ADD MSTORE PUSH2 0x126E DUP2 DUP6 PUSH2 0x11DD JUMP JUMPDEST SWAP1 POP PUSH2 0x127D PUSH1 0xC0 DUP4 ADD DUP5 PUSH2 0x1010 JUMP JUMPDEST SWAP9 SWAP8 POP POP POP POP POP POP POP POP JUMP JUMPDEST PUSH0 PUSH1 0x20 DUP3 ADD SWAP1 POP DUP2 DUP2 SUB PUSH0 DUP4 ADD MSTORE PUSH2 0x12A1 DUP2 DUP5 PUSH2 0x11DD JUMP JUMPDEST SWAP1 POP SWAP3 SWAP2 POP POP JUMP JUMPDEST PUSH0 DUP1 REVERT JUMPDEST PUSH0 DUP1 REVERT JUMPDEST PUSH0 PUSH8 0xFFFFFFFFFFFFFFFF DUP3 GT ISZERO PUSH2 0x12CB JUMPI PUSH2 0x12CA PUSH2 0xDB9 JUMP JUMPDEST JUMPDEST PUSH2 0x12D4 DUP3 PUSH2 0xDA9 JUMP JUMPDEST SWAP1 POP PUSH1 0x20 DUP2 ADD SWAP1 POP SWAP2 SWAP1 POP JUMP JUMPDEST PUSH0 PUSH2 0x12F3 PUSH2 0x12EE DUP5 PUSH2 0x12B1 JUMP JUMPDEST PUSH2 0xE17 JUMP JUMPDEST SWAP1 POP DUP3 DUP2 MSTORE PUSH1 0x20 DUP2 ADD DUP5 DUP5 DUP5 ADD GT ISZERO PUSH2 0x130F JUMPI PUSH2 0x130E PUSH2 0xDA5 JUMP JUMPDEST JUMPDEST PUSH2 0x131A DUP5 DUP3 DUP6 PUSH2 0xF3E JUMP JUMPDEST POP SWAP4 SWAP3 POP POP POP JUMP JUMPDEST PUSH0 DUP3 PUSH1 0x1F DUP4 ADD SLT PUSH2 0x1336 JUMPI PUSH2 0x1335 PUSH2 0xDA1 JUMP JUMPDEST JUMPDEST DUP2 MLOAD PUSH2 0x1346 DUP5 DUP3 PUSH1 0x20 DUP7 ADD PUSH2 0x12E1 JUMP JUMPDEST SWAP2 POP POP SWAP3 SWAP2 POP POP JUMP JUMPDEST PUSH0 DUP2 MLOAD SWAP1 POP PUSH2 0x135D DUP2 PUSH2 0x1071 JUMP JUMPDEST SWAP3 SWAP2 POP POP JUMP JUMPDEST PUSH0 PUSH1 0x40 DUP3 DUP5 SUB SLT ISZERO PUSH2 0x1378 JUMPI PUSH2 0x1377 PUSH2 0x12A9 JUMP JUMPDEST JUMPDEST PUSH2 0x1382 PUSH1 0x40 PUSH2 0xE17 JUMP JUMPDEST SWAP1 POP PUSH0 DUP3 ADD MLOAD PUSH8 0xFFFFFFFFFFFFFFFF DUP2 GT ISZERO PUSH2 0x13A1 JUMPI PUSH2 0x13A0 PUSH2 0x12AD JUMP JUMPDEST JUMPDEST PUSH2 0x13AD DUP5 DUP3 DUP6 ADD PUSH2 0x1322 JUMP JUMPDEST PUSH0 DUP4 ADD MSTORE POP PUSH1 0x20 PUSH2 0x13C0 DUP5 DUP3 DUP6 ADD PUSH2 0x134F JUMP JUMPDEST PUSH1 0x20 DUP4 ADD MSTORE POP SWAP3 SWAP2 POP POP JUMP JUMPDEST PUSH0 PUSH1 0x20 DUP3 DUP5 SUB SLT ISZERO PUSH2 0x13E1 JUMPI PUSH2 0x13E0 PUSH2 0xD99 JUMP JUMPDEST JUMPDEST PUSH0 DUP3 ADD MLOAD PUSH8 0xFFFFFFFFFFFFFFFF DUP2 GT ISZERO PUSH2 0x13FE JUMPI PUSH2 0x13FD PUSH2 0xD9D JUMP JUMPDEST JUMPDEST PUSH2 0x140A DUP5 DUP3 DUP6 ADD PUSH2 0x1363 JUMP JUMPDEST SWAP2 POP POP SWAP3 SWAP2 POP POP JUMP JUMPDEST PUSH32 0x436F6E7472616374206973206E6F74206F70656E000000000000000000000000 PUSH0 DUP3 ADD MSTORE POP JUMP JUMPDEST PUSH0 PUSH2 0x1447 PUSH1 0x14 DUP4 PUSH2 0x11CD JUMP JUMPDEST SWAP2 POP PUSH2 0x1452 DUP3 PUSH2 0x1413 JUMP JUMPDEST PUSH1 0x20 DUP3 ADD SWAP1 POP SWAP2 SWAP1 POP JUMP JUMPDEST PUSH0 PUSH1 0x20 DUP3 ADD SWAP1 POP DUP2 DUP2 SUB PUSH0 DUP4 ADD MSTORE PUSH2 0x1474 DUP2 PUSH2 0x143B JUMP JUMPDEST SWAP1 POP SWAP2 SWAP1 POP JUMP JUMPDEST PUSH32 0x56616C7565206D7573742062652067726561746572207468616E207A65726F00 PUSH0 DUP3 ADD MSTORE POP JUMP JUMPDEST PUSH0 PUSH2 0x14AF PUSH1 0x1F DUP4 PUSH2 0x11CD JUMP JUMPDEST SWAP2 POP PUSH2 0x14BA DUP3 PUSH2 0x147B JUMP JUMPDEST PUSH1 0x20 DUP3 ADD SWAP1 POP SWAP2 SWAP1 POP JUMP JUMPDEST PUSH0 PUSH1 0x20 DUP3 ADD SWAP1 POP DUP2 DUP2 SUB PUSH0 DUP4 ADD MSTORE PUSH2 0x14DC DUP2 PUSH2 0x14A3 JUMP JUMPDEST SWAP1 POP SWAP2 SWAP1 POP JUMP JUMPDEST PUSH32 0x4E487B7100000000000000000000000000000000000000000000000000000000 PUSH0 MSTORE PUSH1 0x11 PUSH1 0x4 MSTORE PUSH1 0x24 PUSH0 REVERT JUMPDEST PUSH0 PUSH2 0x151A DUP3 PUSH2 0xF9E JUMP JUMPDEST SWAP2 POP PUSH2 0x1525 DUP4 PUSH2 0xF9E JUMP JUMPDEST SWAP3 POP DUP3 DUP3 ADD SWAP1 POP DUP1 DUP3 GT ISZERO PUSH2 0x153D JUMPI PUSH2 0x153C PUSH2 0x14E3 JUMP JUMPDEST JUMPDEST SWAP3 SWAP2 POP POP JUMP JUMPDEST PUSH0 DUP2 SWAP1 POP SWAP3 SWAP2 POP POP JUMP JUMPDEST PUSH0 PUSH2 0x1557 DUP3 PUSH2 0x11C3 JUMP JUMPDEST PUSH2 0x1561 DUP2 DUP6 PUSH2 0x1543 JUMP JUMPDEST SWAP4 POP PUSH2 0x1571 DUP2 DUP6 PUSH1 0x20 DUP7 ADD PUSH2 0xF3E JUMP JUMPDEST DUP1 DUP5 ADD SWAP2 POP POP SWAP3 SWAP2 POP POP JUMP JUMPDEST PUSH0 PUSH2 0x1588 DUP3 DUP5 PUSH2 0x154D JUMP JUMPDEST SWAP2 POP DUP2 SWAP1 POP SWAP3 SWAP2 POP POP JUMP JUMPDEST PUSH32 0x4E487B7100000000000000000000000000000000000000000000000000000000 PUSH0 MSTORE PUSH1 0x12 PUSH1 0x4 MSTORE PUSH1 0x24 PUSH0 REVERT JUMPDEST PUSH0 PUSH2 0x15CA DUP3 PUSH2 0xF9E JUMP JUMPDEST SWAP2 POP PUSH2 0x15D5 DUP4 PUSH2 0xF9E JUMP JUMPDEST SWAP3 POP DUP3 PUSH2 0x15E5 JUMPI PUSH2 0x15E4 PUSH2 0x1593 JUMP JUMPDEST JUMPDEST DUP3 DUP3 DIV SWAP1 POP SWAP3 SWAP2 POP POP JUMP JUMPDEST PUSH32 0x4E487B7100000000000000000000000000000000000000000000000000000000 PUSH0 MSTORE PUSH1 0x22 PUSH1 0x4 MSTORE PUSH1 0x24 PUSH0 REVERT JUMPDEST PUSH0 PUSH1 0x2 DUP3 DIV SWAP1 POP PUSH1 0x1 DUP3 AND DUP1 PUSH2 0x1634 JUMPI PUSH1 0x7F DUP3 AND SWAP2 POP JUMPDEST PUSH1 0x20 DUP3 LT DUP2 SUB PUSH2 0x1647 JUMPI PUSH2 0x1646 PUSH2 0x15F0 JUMP JUMPDEST JUMPDEST POP SWAP2 SWAP1 POP JUMP JUMPDEST PUSH0 DUP2 SWAP1 POP DUP2 PUSH0 MSTORE PUSH1 0x20 PUSH0 KECCAK256 SWAP1 POP SWAP2 SWAP1 POP JUMP JUMPDEST PUSH0 PUSH1 0x20 PUSH1 0x1F DUP4 ADD DIV SWAP1 POP SWAP2 SWAP1 POP JUMP JUMPDEST PUSH0 DUP3 DUP3 SHL SWAP1 POP SWAP3 SWAP2 POP POP JUMP JUMPDEST PUSH0 PUSH1 0x8 DUP4 MUL PUSH2 0x16A9 PUSH32 0xFFFFFFFFFFFFFFFFFFFFFFFFFFFFFFFFFFFFFFFFFFFFFFFFFFFFFFFFFFFFFFFF DUP3 PUSH2 0x166E JUMP JUMPDEST PUSH2 0x16B3 DUP7 DUP4 PUSH2 0x166E JUMP JUMPDEST SWAP6 POP DUP1 NOT DUP5 AND SWAP4 POP DUP1 DUP7 AND DUP5 OR SWAP3 POP POP POP SWAP4 SWAP3 POP POP POP JUMP JUMPDEST PUSH0 PUSH2 0x16E5 PUSH2 0x16E0 PUSH2 0x16DB DUP5 PUSH2 0xF9E JUMP JUMPDEST PUSH2 0xD1C JUMP JUMPDEST PUSH2 0xF9E JUMP JUMPDEST SWAP1 POP SWAP2 SWAP1 POP JUMP JUMPDEST PUSH0 DUP2 SWAP1 POP SWAP2 SWAP1 POP JUMP JUMPDEST PUSH2 0x16FE DUP4 PUSH2 0x16CB JUMP JUMPDEST PUSH2 0x1712 PUSH2 0x170A DUP3 PUSH2 0x16EC JUMP JUMPDEST DUP5 DUP5 SLOAD PUSH2 0x167A JUMP JUMPDEST DUP3 SSTORE POP POP POP POP JUMP JUMPDEST PUSH0 SWAP1 JUMP JUMPDEST PUSH2 0x1726 PUSH2 0x171A JUMP JUMPDEST PUSH2 0x1731 DUP2 DUP5 DUP5 PUSH2 0x16F5 JUMP JUMPDEST POP POP POP JUMP JUMPDEST JUMPDEST DUP2 DUP2 LT ISZERO PUSH2 0x1754 JUMPI PUSH2 0x1749 PUSH0 DUP3 PUSH2 0x171E JUMP JUMPDEST PUSH1 0x1 DUP2 ADD SWAP1 POP PUSH2 0x1737 JUMP JUMPDEST POP POP JUMP JUMPDEST PUSH1 0x1F DUP3 GT ISZERO PUSH2 0x1799 JUMPI PUSH2 0x176A DUP2 PUSH2 0x164D JUMP JUMPDEST PUSH2 0x1773 DUP5 PUSH2 0x165F JUMP JUMPDEST DUP2 ADD PUSH1 0x20 DUP6 LT ISZERO PUSH2 0x1782 JUMPI DUP2 SWAP1 POP JUMPDEST PUSH2 0x1796 PUSH2 0x178E DUP6 PUSH2 0x165F JUMP JUMPDEST DUP4 ADD DUP3 PUSH2 0x1736 JUMP JUMPDEST POP POP JUMPDEST POP POP POP JUMP JUMPDEST PUSH0 DUP3 DUP3 SHR SWAP1 POP SWAP3 SWAP2 POP POP JUMP JUMPDEST PUSH0 PUSH2 0x17B9 PUSH0 NOT DUP5 PUSH1 0x8 MUL PUSH2 0x179E JUMP JUMPDEST NOT DUP1 DUP4 AND SWAP2 POP POP SWAP3 SWAP2 POP POP JUMP JUMPDEST PUSH0 PUSH2 0x17D1 DUP4 DUP4 PUSH2 0x17AA JUMP JUMPDEST SWAP2 POP DUP3 PUSH1 0x2 MUL DUP3 OR SWAP1 POP SWAP3 SWAP2 POP POP JUMP JUMPDEST PUSH2 0x17EA DUP3 PUSH2 0x11C3 JUMP JUMPDEST PUSH8 0xFFFFFFFFFFFFFFFF DUP2 GT ISZERO PUSH2 0x1803 JUMPI PUSH2 0x1802 PUSH2 0xDB9 JUMP JUMPDEST JUMPDEST PUSH2 0x180D DUP3 SLOAD PUSH2 0x161D JUMP JUMPDEST PUSH2 0x1818 DUP3 DUP3 DUP6 PUSH2 0x1758 JUMP JUMPDEST PUSH0 PUSH1 0x20 SWAP1 POP PUSH1 0x1F DUP4 GT PUSH1 0x1 DUP2 EQ PUSH2 0x1849 JUMPI PUSH0 DUP5 ISZERO PUSH2 0x1837 JUMPI DUP3 DUP8 ADD MLOAD SWAP1 POP JUMPDEST PUSH2 0x1841 DUP6 DUP3 PUSH2 0x17C6 JUMP JUMPDEST DUP7 SSTORE POP PUSH2 0x18A8 JUMP JUMPDEST PUSH1 0x1F NOT DUP5 AND PUSH2 0x1857 DUP7 PUSH2 0x164D JUMP JUMPDEST PUSH0 JUMPDEST DUP3 DUP2 LT ISZERO PUSH2 0x187E JUMPI DUP5 DUP10 ADD MLOAD DUP3 SSTORE PUSH1 0x1 DUP3 ADD SWAP2 POP PUSH1 0x20 DUP6 ADD SWAP5 POP PUSH1 0x20 DUP2 ADD SWAP1 POP PUSH2 0x1859 JUMP JUMPDEST DUP7 DUP4 LT ISZERO PUSH2 0x189B JUMPI DUP5 DUP10 ADD MLOAD PUSH2 0x1897 PUSH1 0x1F DUP10 AND DUP3 PUSH2 0x17AA JUMP JUMPDEST DUP4 SSTORE POP JUMPDEST PUSH1 0x1 PUSH1 0x2 DUP9 MUL ADD DUP9 SSTORE POP POP POP JUMPDEST POP POP POP POP POP POP JUMP JUMPDEST PUSH0 PUSH2 0x18BA DUP3 PUSH2 0xF9E JUMP JUMPDEST SWAP2 POP PUSH32 0xFFFFFFFFFFFFFFFFFFFFFFFFFFFFFFFFFFFFFFFFFFFFFFFFFFFFFFFFFFFFFFFF DUP3 SUB PUSH2 0x18EC JUMPI PUSH2 0x18EB PUSH2 0x14E3 JUMP JUMPDEST JUMPDEST PUSH1 0x1 DUP3 ADD SWAP1 POP SWAP2 SWAP1 POP JUMP JUMPDEST PUSH32 0x4F6E6C79206C6F6E672070617274792063616E20636C6F73652074686520636F PUSH0 DUP3 ADD MSTORE PUSH32 0x6E74726163740000000000000000000000000000000000000000000000000000 PUSH1 0x20 DUP3 ADD MSTORE POP JUMP JUMPDEST PUSH0 PUSH2 0x1951 PUSH1 0x26 DUP4 PUSH2 0x11CD JUMP JUMPDEST SWAP2 POP PUSH2 0x195C DUP3 PUSH2 0x18F7 JUMP JUMPDEST PUSH1 0x40 DUP3 ADD SWAP1 POP SWAP2 SWAP1 POP JUMP JUMPDEST PUSH0 PUSH1 0x20 DUP3 ADD SWAP1 POP DUP2 DUP2 SUB PUSH0 DUP4 ADD MSTORE PUSH2 0x197E DUP2 PUSH2 0x1945 JUMP JUMPDEST SWAP1 POP SWAP2 SWAP1 POP JUMP JUMPDEST PUSH0 PUSH2 0x198F DUP3 PUSH2 0xF9E JUMP JUMPDEST SWAP2 POP PUSH2 0x199A DUP4 PUSH2 0xF9E JUMP JUMPDEST SWAP3 POP DUP3 DUP3 MUL PUSH2 0x19A8 DUP2 PUSH2 0xF9E JUMP JUMPDEST SWAP2 POP DUP3 DUP3 DIV DUP5 EQ DUP4 ISZERO OR PUSH2 0x19BF JUMPI PUSH2 0x19BE PUSH2 0x14E3 JUMP JUMPDEST JUMPDEST POP SWAP3 SWAP2 POP POP JUMP INVALID LOG2 PUSH5 0x6970667358 0x22 SLT KECCAK256 0x1F SELFDESTRUCT 0x5D CALLDATACOPY PUSH11 0xA85ED2B324652DAABA8D56 SAR 0xAA 0xAD CHAINID 0x5C SELFDESTRUCT 0xB4 PUSH28 0x61DC6084A3F6F87664736F6C63430008170033000000000000000000 "
				},
				"gasEstimates": {
					"creation": {
						"codeDepositCost": "1330400",
						"executionCost": "infinite",
						"totalCost": "infinite"
					},
					"external": {
						"closeContract(uint256)": "infinite",
						"contractCount(address)": "2847",
						"contracts(address,uint256)": "infinite",
						"eloFeed()": "infinite",
						"getBalance()": "379",
						"getEloRanking(string)": "infinite",
						"openContract(string)": "infinite",
						"owner()": "2604",
						"quantitiesLive(string)": "infinite",
						"rankings(string)": "infinite",
						"renounceOwnership()": "infinite",
						"transferOwnership(address)": "infinite",
						"updateFundingRate(uint256,address,uint256)": "infinite"
					}
				},
				"methodIdentifiers": {
					"closeContract(uint256)": "d0ce7360",
					"contractCount(address)": "ac580de7",
					"contracts(address,uint256)": "ed23f8c3",
					"eloFeed()": "0232424d",
					"getBalance()": "12065fe0",
					"getEloRanking(string)": "08ab2d4b",
					"openContract(string)": "9da751bb",
					"owner()": "8da5cb5b",
					"quantitiesLive(string)": "db027e05",
					"rankings(string)": "fdf3f74d",
					"renounceOwnership()": "715018a6",
					"transferOwnership(address)": "f2fde38b",
					"updateFundingRate(uint256,address,uint256)": "939e3572"
				}
			},
			"storageLayout": {
				"storage": [
					{
						"astId": 54,
						"contract": "PerpContract/Main.sol:PerpetualDEX",
						"label": "_owner",
						"offset": 0,
						"slot": "0",
						"type": "t_address"
					},
					{
						"astId": 345,
						"contract": "PerpContract/Main.sol:PerpetualDEX",
						"label": "eloFeed",
						"offset": 0,
						"slot": "1",
						"type": "t_contract(IFunctionConsumer)334"
					},
					{
						"astId": 364,
						"contract": "PerpContract/Main.sol:PerpetualDEX",
						"label": "quantity",
						"offset": 0,
						"slot": "2",
						"type": "t_mapping(t_uint256,t_uint256)"
					},
					{
						"astId": 371,
						"contract": "PerpContract/Main.sol:PerpetualDEX",
						"label": "contracts",
						"offset": 0,
						"slot": "3",
						"type": "t_mapping(t_address,t_mapping(t_uint256,t_struct(PerpContract)360_storage))"
					},
					{
						"astId": 375,
						"contract": "PerpContract/Main.sol:PerpetualDEX",
						"label": "contractCount",
						"offset": 0,
						"slot": "4",
						"type": "t_mapping(t_address,t_uint256)"
					},
					{
						"astId": 379,
						"contract": "PerpContract/Main.sol:PerpetualDEX",
						"label": "rankings",
						"offset": 0,
						"slot": "5",
						"type": "t_mapping(t_string_memory_ptr,t_uint256)"
					},
					{
						"astId": 383,
						"contract": "PerpContract/Main.sol:PerpetualDEX",
						"label": "quantitiesLive",
						"offset": 0,
						"slot": "6",
						"type": "t_mapping(t_string_memory_ptr,t_uint256)"
					},
					{
						"astId": 386,
						"contract": "PerpContract/Main.sol:PerpetualDEX",
						"label": "totalPool",
						"offset": 0,
						"slot": "7",
						"type": "t_uint256"
					}
				],
				"types": {
					"t_address": {
						"encoding": "inplace",
						"label": "address",
						"numberOfBytes": "20"
					},
					"t_bool": {
						"encoding": "inplace",
						"label": "bool",
						"numberOfBytes": "1"
					},
					"t_contract(IFunctionConsumer)334": {
						"encoding": "inplace",
						"label": "contract IFunctionConsumer",
						"numberOfBytes": "20"
					},
					"t_mapping(t_address,t_mapping(t_uint256,t_struct(PerpContract)360_storage))": {
						"encoding": "mapping",
						"key": "t_address",
						"label": "mapping(address => mapping(uint256 => struct PerpetualDEX.PerpContract))",
						"numberOfBytes": "32",
						"value": "t_mapping(t_uint256,t_struct(PerpContract)360_storage)"
					},
					"t_mapping(t_address,t_uint256)": {
						"encoding": "mapping",
						"key": "t_address",
						"label": "mapping(address => uint256)",
						"numberOfBytes": "32",
						"value": "t_uint256"
					},
					"t_mapping(t_string_memory_ptr,t_uint256)": {
						"encoding": "mapping",
						"key": "t_string_memory_ptr",
						"label": "mapping(string => uint256)",
						"numberOfBytes": "32",
						"value": "t_uint256"
					},
					"t_mapping(t_uint256,t_struct(PerpContract)360_storage)": {
						"encoding": "mapping",
						"key": "t_uint256",
						"label": "mapping(uint256 => struct PerpetualDEX.PerpContract)",
						"numberOfBytes": "32",
						"value": "t_struct(PerpContract)360_storage"
					},
					"t_mapping(t_uint256,t_uint256)": {
						"encoding": "mapping",
						"key": "t_uint256",
						"label": "mapping(uint256 => uint256)",
						"numberOfBytes": "32",
						"value": "t_uint256"
					},
					"t_string_memory_ptr": {
						"encoding": "bytes",
						"label": "string",
						"numberOfBytes": "32"
					},
					"t_string_storage": {
						"encoding": "bytes",
						"label": "string",
						"numberOfBytes": "32"
					},
					"t_struct(PerpContract)360_storage": {
						"encoding": "inplace",
						"label": "struct PerpetualDEX.PerpContract",
						"members": [
							{
								"astId": 347,
								"contract": "PerpContract/Main.sol:PerpetualDEX",
								"label": "longParty",
								"offset": 0,
								"slot": "0",
								"type": "t_address"
							},
							{
								"astId": 349,
								"contract": "PerpContract/Main.sol:PerpetualDEX",
								"label": "isBack",
								"offset": 20,
								"slot": "0",
								"type": "t_bool"
							},
							{
								"astId": 351,
								"contract": "PerpContract/Main.sol:PerpetualDEX",
								"label": "quantity",
								"offset": 0,
								"slot": "1",
								"type": "t_uint256"
							},
							{
								"astId": 353,
								"contract": "PerpContract/Main.sol:PerpetualDEX",
								"label": "fundingRate",
								"offset": 0,
								"slot": "2",
								"type": "t_uint256"
							},
							{
								"astId": 355,
								"contract": "PerpContract/Main.sol:PerpetualDEX",
								"label": "isOpen",
								"offset": 0,
								"slot": "3",
								"type": "t_bool"
							},
							{
								"astId": 357,
								"contract": "PerpContract/Main.sol:PerpetualDEX",
								"label": "team",
								"offset": 0,
								"slot": "4",
								"type": "t_string_storage"
							},
							{
								"astId": 359,
								"contract": "PerpContract/Main.sol:PerpetualDEX",
								"label": "initialElo",
								"offset": 0,
								"slot": "5",
								"type": "t_uint256"
							}
						],
						"numberOfBytes": "192"
					},
					"t_uint256": {
						"encoding": "inplace",
						"label": "uint256",
						"numberOfBytes": "32"
					}
				}
			},
			"userdoc": {
				"kind": "user",
				"methods": {},
				"version": 1
			}
		}
	}
}