{
	"PerpContract/Main.sol": {
		"PerpetualDEX": {
			"abi": [
				{
					"inputs": [
						{
							"internalType": "address",
							"name": "_priceFeedAddress",
							"type": "address"
						}
					],
					"stateMutability": "nonpayable",
					"type": "constructor"
				},
				{
					"inputs": [
						{
							"internalType": "address",
							"name": "owner",
							"type": "address"
						}
					],
					"name": "OwnableInvalidOwner",
					"type": "error"
				},
				{
					"inputs": [
						{
							"internalType": "address",
							"name": "account",
							"type": "address"
						}
					],
					"name": "OwnableUnauthorizedAccount",
					"type": "error"
				},
				{
					"anonymous": false,
					"inputs": [
						{
							"indexed": true,
							"internalType": "address",
							"name": "previousOwner",
							"type": "address"
						},
						{
							"indexed": true,
							"internalType": "address",
							"name": "newOwner",
							"type": "address"
						}
					],
					"name": "OwnershipTransferred",
					"type": "event"
				},
				{
					"inputs": [
						{
							"internalType": "string",
							"name": "_teamName",
							"type": "string"
						}
					],
					"name": "addTeamName",
					"outputs": [],
					"stateMutability": "nonpayable",
					"type": "function"
				},
				{
					"inputs": [
						{
							"internalType": "bytes",
							"name": "b",
							"type": "bytes"
						}
					],
					"name": "bytesToUint",
					"outputs": [
						{
							"internalType": "uint256",
							"name": "",
							"type": "uint256"
						}
					],
					"stateMutability": "pure",
					"type": "function"
				},
				{
					"inputs": [
						{
							"internalType": "uint256",
							"name": "_contractId",
							"type": "uint256"
						}
					],
					"name": "calcPayout",
					"outputs": [
						{
							"internalType": "uint256",
							"name": "",
							"type": "uint256"
						}
					],
					"stateMutability": "view",
					"type": "function"
				},
				{
					"inputs": [
						{
							"internalType": "uint256",
							"name": "_contractId",
							"type": "uint256"
						}
					],
					"name": "closeContract",
					"outputs": [],
					"stateMutability": "nonpayable",
					"type": "function"
				},
				{
					"inputs": [
						{
							"internalType": "address",
							"name": "",
							"type": "address"
						}
					],
					"name": "contractCount",
					"outputs": [
						{
							"internalType": "uint256",
							"name": "",
							"type": "uint256"
						}
					],
					"stateMutability": "view",
					"type": "function"
				},
				{
					"inputs": [
						{
							"internalType": "address",
							"name": "",
							"type": "address"
						},
						{
							"internalType": "uint256",
							"name": "",
							"type": "uint256"
						}
					],
					"name": "contracts",
					"outputs": [
						{
							"internalType": "address",
							"name": "longParty",
							"type": "address"
						},
						{
							"internalType": "bool",
							"name": "isBack",
							"type": "bool"
						},
						{
							"internalType": "uint256",
							"name": "quantity",
							"type": "uint256"
						},
						{
							"internalType": "uint256",
							"name": "fundingRate",
							"type": "uint256"
						},
						{
							"internalType": "bool",
							"name": "isOpen",
							"type": "bool"
						},
						{
							"internalType": "string",
							"name": "team",
							"type": "string"
						},
						{
							"internalType": "uint256",
							"name": "initialElo",
							"type": "uint256"
						}
					],
					"stateMutability": "view",
					"type": "function"
				},
				{
					"inputs": [],
					"name": "eloFeed",
					"outputs": [
						{
							"internalType": "contract IFunctionConsumer",
							"name": "",
							"type": "address"
						}
					],
					"stateMutability": "view",
					"type": "function"
				},
				{
					"inputs": [],
					"name": "findTotalVal",
					"outputs": [
						{
							"internalType": "uint256",
							"name": "",
							"type": "uint256"
						}
					],
					"stateMutability": "view",
					"type": "function"
				},
				{
					"inputs": [],
					"name": "getBalance",
					"outputs": [
						{
							"internalType": "uint256",
							"name": "",
							"type": "uint256"
						}
					],
					"stateMutability": "view",
					"type": "function"
				},
				{
					"inputs": [
						{
							"internalType": "string",
							"name": "team",
							"type": "string"
						}
					],
					"name": "getEloRanking",
					"outputs": [
						{
							"internalType": "uint256",
							"name": "",
							"type": "uint256"
						}
					],
					"stateMutability": "view",
					"type": "function"
				},
				{
					"inputs": [
						{
							"internalType": "string",
							"name": "team",
							"type": "string"
						}
					],
					"name": "getEloRankingAsByte",
					"outputs": [
						{
							"internalType": "bytes",
							"name": "",
							"type": "bytes"
						}
					],
					"stateMutability": "view",
					"type": "function"
				},
				{
					"inputs": [
						{
							"internalType": "string",
							"name": "club",
							"type": "string"
						}
					],
					"name": "getRanking",
					"outputs": [
						{
							"internalType": "uint256",
							"name": "",
							"type": "uint256"
						}
					],
					"stateMutability": "view",
					"type": "function"
				},
				{
					"inputs": [
						{
							"internalType": "string",
							"name": "_team",
							"type": "string"
						}
					],
					"name": "openContract",
					"outputs": [],
					"stateMutability": "payable",
					"type": "function"
				},
				{
					"inputs": [],
					"name": "owner",
					"outputs": [
						{
							"internalType": "address",
							"name": "",
							"type": "address"
						}
					],
					"stateMutability": "view",
					"type": "function"
				},
				{
					"inputs": [
						{
							"internalType": "string",
							"name": "",
							"type": "string"
						}
					],
					"name": "quantitiesLive",
					"outputs": [
						{
							"internalType": "uint256",
							"name": "",
							"type": "uint256"
						}
					],
					"stateMutability": "view",
					"type": "function"
				},
				{
					"inputs": [
						{
							"internalType": "string",
							"name": "",
							"type": "string"
						}
					],
					"name": "rankings",
					"outputs": [
						{
							"internalType": "uint256",
							"name": "",
							"type": "uint256"
						}
					],
					"stateMutability": "view",
					"type": "function"
				},
				{
					"inputs": [],
					"name": "renounceOwnership",
					"outputs": [],
					"stateMutability": "nonpayable",
					"type": "function"
				},
				{
					"inputs": [
						{
							"internalType": "string",
							"name": "club",
							"type": "string"
						},
						{
							"internalType": "uint256",
							"name": "ranking",
							"type": "uint256"
						}
					],
					"name": "setRanking",
					"outputs": [],
					"stateMutability": "nonpayable",
					"type": "function"
				},
				{
					"inputs": [
						{
							"internalType": "uint256",
							"name": "",
							"type": "uint256"
						}
					],
					"name": "teamNames",
					"outputs": [
						{
							"internalType": "string",
							"name": "",
							"type": "string"
						}
					],
					"stateMutability": "view",
					"type": "function"
				},
				{
					"inputs": [
						{
							"internalType": "address",
							"name": "newOwner",
							"type": "address"
						}
					],
					"name": "transferOwnership",
					"outputs": [],
					"stateMutability": "nonpayable",
					"type": "function"
				}
			],
			"devdoc": {
				"errors": {
					"OwnableInvalidOwner(address)": [
						{
							"details": "The owner is not a valid owner account. (eg. `address(0)`)"
						}
					],
					"OwnableUnauthorizedAccount(address)": [
						{
							"details": "The caller account is not authorized to perform an operation."
						}
					]
				},
				"kind": "dev",
				"methods": {
					"owner()": {
						"details": "Returns the address of the current owner."
					},
					"renounceOwnership()": {
						"details": "Leaves the contract without owner. It will not be possible to call `onlyOwner` functions. Can only be called by the current owner. NOTE: Renouncing ownership will leave the contract without an owner, thereby disabling any functionality that is only available to the owner."
					},
					"transferOwnership(address)": {
						"details": "Transfers ownership of the contract to a new account (`newOwner`). Can only be called by the current owner."
					}
				},
				"version": 1
			},
			"evm": {
				"assembly": "    /* \"PerpContract/Main.sol\":279:5404  contract PerpetualDEX is Ownable {... */\n  mstore(0x40, 0x80)\n    /* \"PerpContract/Main.sol\":1152:1546  constructor(address _priceFeedAddress) Ownable(msg.sender) {... */\n  callvalue\n  dup1\n  iszero\n  tag_1\n  jumpi\n  0x00\n  dup1\n  revert\ntag_1:\n  pop\n  mload(0x40)\n  sub(codesize, bytecodeSize)\n  dup1\n  bytecodeSize\n  dup4\n  codecopy\n  dup2\n  dup2\n  add\n  0x40\n  mstore\n  dup2\n  add\n  swap1\n  tag_2\n  swap2\n  swap1\n  tag_3\n  jump\t// in\ntag_2:\n    /* \"PerpContract/Main.sol\":1199:1209  msg.sender */\n  caller\n    /* \"@openzeppelin/contracts/access/Ownable.sol\":1297:1298  0 */\n  0x00\n    /* \"@openzeppelin/contracts/access/Ownable.sol\":1273:1299  initialOwner == address(0) */\n  0xffffffffffffffffffffffffffffffffffffffff\n  and\n    /* \"@openzeppelin/contracts/access/Ownable.sol\":1273:1285  initialOwner */\n  dup2\n    /* \"@openzeppelin/contracts/access/Ownable.sol\":1273:1299  initialOwner == address(0) */\n  0xffffffffffffffffffffffffffffffffffffffff\n  and\n  sub\n    /* \"@openzeppelin/contracts/access/Ownable.sol\":1269:1364  if (initialOwner == address(0)) {... */\n  tag_7\n  jumpi\n    /* \"@openzeppelin/contracts/access/Ownable.sol\":1350:1351  0 */\n  0x00\n    /* \"@openzeppelin/contracts/access/Ownable.sol\":1322:1353  OwnableInvalidOwner(address(0)) */\n  mload(0x40)\n  0x1e4fbdf700000000000000000000000000000000000000000000000000000000\n  dup2\n  mstore\n  0x04\n  add\n  tag_8\n  swap2\n  swap1\n  tag_9\n  jump\t// in\ntag_8:\n  mload(0x40)\n  dup1\n  swap2\n  sub\n  swap1\n  revert\n    /* \"@openzeppelin/contracts/access/Ownable.sol\":1269:1364  if (initialOwner == address(0)) {... */\ntag_7:\n    /* \"@openzeppelin/contracts/access/Ownable.sol\":1373:1405  _transferOwnership(initialOwner) */\n  tag_10\n    /* \"@openzeppelin/contracts/access/Ownable.sol\":1392:1404  initialOwner */\n  dup2\n    /* \"@openzeppelin/contracts/access/Ownable.sol\":1373:1391  _transferOwnership */\n  shl(0x20, tag_11)\n    /* \"@openzeppelin/contracts/access/Ownable.sol\":1373:1405  _transferOwnership(initialOwner) */\n  0x20\n  shr\n  jump\t// in\ntag_10:\n    /* \"@openzeppelin/contracts/access/Ownable.sol\":1225:1412  constructor(address initialOwner) {... */\n  pop\n    /* \"PerpContract/Main.sol\":1249:1266  _priceFeedAddress */\n  dup1\n    /* \"PerpContract/Main.sol\":1221:1228  eloFeed */\n  0x01\n  0x00\n    /* \"PerpContract/Main.sol\":1221:1267  eloFeed = IFunctionConsumer(_priceFeedAddress) */\n  0x0100\n  exp\n  dup2\n  sload\n  dup2\n  0xffffffffffffffffffffffffffffffffffffffff\n  mul\n  not\n  and\n  swap1\n  dup4\n  0xffffffffffffffffffffffffffffffffffffffff\n  and\n  mul\n  or\n  swap1\n  sstore\n  pop\n    /* \"PerpContract/Main.sol\":1310:1369  teamNames = [\"Arsenal\", \"Chelsea\", \"Man City\", \"Liverpool\"] */\n  mload(0x40)\n  dup1\n  0x80\n  add\n  0x40\n  mstore\n  dup1\n  mload(0x40)\n  dup1\n  0x40\n  add\n  0x40\n  mstore\n  dup1\n  0x07\n  dup2\n  mstore\n  0x20\n  add\n  0x417273656e616c00000000000000000000000000000000000000000000000000\n  dup2\n  mstore\n  pop\n  dup2\n  mstore\n  0x20\n  add\n  mload(0x40)\n  dup1\n  0x40\n  add\n  0x40\n  mstore\n  dup1\n  0x07\n  dup2\n  mstore\n  0x20\n  add\n  0x4368656c73656100000000000000000000000000000000000000000000000000\n  dup2\n  mstore\n  pop\n  dup2\n  mstore\n  0x20\n  add\n  mload(0x40)\n  dup1\n  0x40\n  add\n  0x40\n  mstore\n  dup1\n  0x08\n  dup2\n  mstore\n  0x20\n  add\n  0x4d616e2043697479000000000000000000000000000000000000000000000000\n  dup2\n  mstore\n  pop\n  dup2\n  mstore\n  0x20\n  add\n  mload(0x40)\n  dup1\n  0x40\n  add\n  0x40\n  mstore\n  dup1\n  0x09\n  dup2\n  mstore\n  0x20\n  add\n  0x4c69766572706f6f6c0000000000000000000000000000000000000000000000\n  dup2\n  mstore\n  pop\n  dup2\n  mstore\n  pop\n    /* \"PerpContract/Main.sol\":1310:1319  teamNames */\n  0x07\n    /* \"PerpContract/Main.sol\":1310:1369  teamNames = [\"Arsenal\", \"Chelsea\", \"Man City\", \"Liverpool\"] */\n  swap1\n  0x04\n  tag_13\n  swap3\n  swap2\n  swap1\n  tag_14\n  jump\t// in\ntag_13:\n  pop\n    /* \"PerpContract/Main.sol\":1423:1427  1900 */\n  0x076c\n    /* \"PerpContract/Main.sol\":1401:1409  rankings */\n  0x05\n    /* \"PerpContract/Main.sol\":1401:1420  rankings[\"Arsenal\"] */\n  mload(0x40)\n  tag_15\n  swap1\n  tag_16\n  jump\t// in\ntag_15:\n  swap1\n  dup2\n  mstore\n  0x20\n  add\n  mload(0x40)\n  dup1\n  swap2\n  sub\n  swap1\n  keccak256\n    /* \"PerpContract/Main.sol\":1401:1427  rankings[\"Arsenal\"] = 1900 */\n  dup2\n  swap1\n  sstore\n  pop\n    /* \"PerpContract/Main.sol\":1459:1463  2000 */\n  0x07d0\n    /* \"PerpContract/Main.sol\":1437:1445  rankings */\n  0x05\n    /* \"PerpContract/Main.sol\":1437:1456  rankings[\"Chelsea\"] */\n  mload(0x40)\n  tag_17\n  swap1\n  tag_18\n  jump\t// in\ntag_17:\n  swap1\n  dup2\n  mstore\n  0x20\n  add\n  mload(0x40)\n  dup1\n  swap2\n  sub\n  swap1\n  keccak256\n    /* \"PerpContract/Main.sol\":1437:1463  rankings[\"Chelsea\"] = 2000 */\n  dup2\n  swap1\n  sstore\n  pop\n    /* \"PerpContract/Main.sol\":1496:1500  1800 */\n  0x0708\n    /* \"PerpContract/Main.sol\":1473:1481  rankings */\n  0x05\n    /* \"PerpContract/Main.sol\":1473:1493  rankings[\"Man City\"] */\n  mload(0x40)\n  tag_19\n  swap1\n  tag_20\n  jump\t// in\ntag_19:\n  swap1\n  dup2\n  mstore\n  0x20\n  add\n  mload(0x40)\n  dup1\n  swap2\n  sub\n  swap1\n  keccak256\n    /* \"PerpContract/Main.sol\":1473:1500  rankings[\"Man City\"] = 1800 */\n  dup2\n  swap1\n  sstore\n  pop\n    /* \"PerpContract/Main.sol\":1534:1538  1800 */\n  0x0708\n    /* \"PerpContract/Main.sol\":1510:1518  rankings */\n  0x05\n    /* \"PerpContract/Main.sol\":1510:1531  rankings[\"Liverpool\"] */\n  mload(0x40)\n  tag_21\n  swap1\n  tag_22\n  jump\t// in\ntag_21:\n  swap1\n  dup2\n  mstore\n  0x20\n  add\n  mload(0x40)\n  dup1\n  swap2\n  sub\n  swap1\n  keccak256\n    /* \"PerpContract/Main.sol\":1510:1538  rankings[\"Liverpool\"] = 1800 */\n  dup2\n  swap1\n  sstore\n  pop\n    /* \"PerpContract/Main.sol\":1152:1546  constructor(address _priceFeedAddress) Ownable(msg.sender) {... */\n  pop\n    /* \"PerpContract/Main.sol\":279:5404  contract PerpetualDEX is Ownable {... */\n  jump(tag_23)\n    /* \"@openzeppelin/contracts/access/Ownable.sol\":2912:3099  function _transferOwnership(address newOwner) internal virtual {... */\ntag_11:\n    /* \"@openzeppelin/contracts/access/Ownable.sol\":2985:3001  address oldOwner */\n  0x00\n    /* \"@openzeppelin/contracts/access/Ownable.sol\":3004:3010  _owner */\n  dup1\n  0x00\n  swap1\n  sload\n  swap1\n  0x0100\n  exp\n  swap1\n  div\n  0xffffffffffffffffffffffffffffffffffffffff\n  and\n    /* \"@openzeppelin/contracts/access/Ownable.sol\":2985:3010  address oldOwner = _owner */\n  swap1\n  pop\n    /* \"@openzeppelin/contracts/access/Ownable.sol\":3029:3037  newOwner */\n  dup2\n    /* \"@openzeppelin/contracts/access/Ownable.sol\":3020:3026  _owner */\n  0x00\n  dup1\n    /* \"@openzeppelin/contracts/access/Ownable.sol\":3020:3037  _owner = newOwner */\n  0x0100\n  exp\n  dup2\n  sload\n  dup2\n  0xffffffffffffffffffffffffffffffffffffffff\n  mul\n  not\n  and\n  swap1\n  dup4\n  0xffffffffffffffffffffffffffffffffffffffff\n  and\n  mul\n  or\n  swap1\n  sstore\n  pop\n    /* \"@openzeppelin/contracts/access/Ownable.sol\":3083:3091  newOwner */\n  dup2\n    /* \"@openzeppelin/contracts/access/Ownable.sol\":3052:3092  OwnershipTransferred(oldOwner, newOwner) */\n  0xffffffffffffffffffffffffffffffffffffffff\n  and\n    /* \"@openzeppelin/contracts/access/Ownable.sol\":3073:3081  oldOwner */\n  dup2\n    /* \"@openzeppelin/contracts/access/Ownable.sol\":3052:3092  OwnershipTransferred(oldOwner, newOwner) */\n  0xffffffffffffffffffffffffffffffffffffffff\n  and\n  0x8be0079c531659141344cd1fd0a4f28419497f9722a3daafe3b4186f6b6457e0\n  mload(0x40)\n  mload(0x40)\n  dup1\n  swap2\n  sub\n  swap1\n  log3\n    /* \"@openzeppelin/contracts/access/Ownable.sol\":2975:3099  {... */\n  pop\n    /* \"@openzeppelin/contracts/access/Ownable.sol\":2912:3099  function _transferOwnership(address newOwner) internal virtual {... */\n  pop\n  jump\t// out\n    /* \"PerpContract/Main.sol\":279:5404  contract PerpetualDEX is Ownable {... */\ntag_14:\n  dup3\n  dup1\n  sload\n  dup3\n  dup3\n  sstore\n  swap1\n  0x00\n  mstore\n  keccak256(0x00, 0x20)\n  swap1\n  dup2\n  add\n  swap3\n  dup3\n  iszero\n  tag_25\n  jumpi\n  swap2\n  0x20\n  mul\n  dup3\n  add\ntag_26:\n  dup3\n  dup2\n  gt\n  iszero\n  tag_27\n  jumpi\n  dup3\n  mload\n  dup3\n  swap1\n  dup2\n  tag_28\n  swap2\n  swap1\n  tag_29\n  jump\t// in\ntag_28:\n  pop\n  swap2\n  0x20\n  add\n  swap2\n  swap1\n  0x01\n  add\n  swap1\n  jump(tag_26)\ntag_27:\ntag_25:\n  pop\n  swap1\n  pop\n  tag_30\n  swap2\n  swap1\n  tag_31\n  jump\t// in\ntag_30:\n  pop\n  swap1\n  jump\t// out\ntag_31:\ntag_32:\n  dup1\n  dup3\n  gt\n  iszero\n  tag_33\n  jumpi\n  0x00\n  dup2\n  dup2\n  tag_34\n  swap2\n  swap1\n  tag_35\n  jump\t// in\ntag_34:\n  pop\n  0x01\n  add\n  jump(tag_32)\ntag_33:\n  pop\n  swap1\n  jump\t// out\ntag_35:\n  pop\n  dup1\n  sload\n  tag_36\n  swap1\n  tag_37\n  jump\t// in\ntag_36:\n  0x00\n  dup3\n  sstore\n  dup1\n  0x1f\n  lt\n  tag_39\n  jumpi\n  pop\n  jump(tag_38)\ntag_39:\n  0x1f\n  add\n  0x20\n  swap1\n  div\n  swap1\n  0x00\n  mstore\n  keccak256(0x00, 0x20)\n  swap1\n  dup2\n  add\n  swap1\n  tag_40\n  swap2\n  swap1\n  tag_41\n  jump\t// in\ntag_40:\ntag_38:\n  pop\n  jump\t// out\ntag_41:\ntag_42:\n  dup1\n  dup3\n  gt\n  iszero\n  tag_43\n  jumpi\n  0x00\n  dup2\n  0x00\n  swap1\n  sstore\n  pop\n  0x01\n  add\n  jump(tag_42)\ntag_43:\n  pop\n  swap1\n  jump\t// out\n    /* \"#utility.yul\":88:205   */\ntag_45:\n    /* \"#utility.yul\":197:198   */\n  0x00\n    /* \"#utility.yul\":194:195   */\n  dup1\n    /* \"#utility.yul\":187:199   */\n  revert\n    /* \"#utility.yul\":334:460   */\ntag_47:\n    /* \"#utility.yul\":371:378   */\n  0x00\n    /* \"#utility.yul\":411:453   */\n  0xffffffffffffffffffffffffffffffffffffffff\n    /* \"#utility.yul\":404:409   */\n  dup3\n    /* \"#utility.yul\":400:454   */\n  and\n    /* \"#utility.yul\":389:454   */\n  swap1\n  pop\n    /* \"#utility.yul\":334:460   */\n  swap2\n  swap1\n  pop\n  jump\t// out\n    /* \"#utility.yul\":466:562   */\ntag_48:\n    /* \"#utility.yul\":503:510   */\n  0x00\n    /* \"#utility.yul\":532:556   */\n  tag_86\n    /* \"#utility.yul\":550:555   */\n  dup3\n    /* \"#utility.yul\":532:556   */\n  tag_47\n  jump\t// in\ntag_86:\n    /* \"#utility.yul\":521:556   */\n  swap1\n  pop\n    /* \"#utility.yul\":466:562   */\n  swap2\n  swap1\n  pop\n  jump\t// out\n    /* \"#utility.yul\":568:690   */\ntag_49:\n    /* \"#utility.yul\":641:665   */\n  tag_88\n    /* \"#utility.yul\":659:664   */\n  dup2\n    /* \"#utility.yul\":641:665   */\n  tag_48\n  jump\t// in\ntag_88:\n    /* \"#utility.yul\":634:639   */\n  dup2\n    /* \"#utility.yul\":631:666   */\n  eq\n    /* \"#utility.yul\":621:684   */\n  tag_89\n  jumpi\n    /* \"#utility.yul\":680:681   */\n  0x00\n    /* \"#utility.yul\":677:678   */\n  dup1\n    /* \"#utility.yul\":670:682   */\n  revert\n    /* \"#utility.yul\":621:684   */\ntag_89:\n    /* \"#utility.yul\":568:690   */\n  pop\n  jump\t// out\n    /* \"#utility.yul\":696:839   */\ntag_50:\n    /* \"#utility.yul\":753:758   */\n  0x00\n    /* \"#utility.yul\":784:790   */\n  dup2\n    /* \"#utility.yul\":778:791   */\n  mload\n    /* \"#utility.yul\":769:791   */\n  swap1\n  pop\n    /* \"#utility.yul\":800:833   */\n  tag_91\n    /* \"#utility.yul\":827:832   */\n  dup2\n    /* \"#utility.yul\":800:833   */\n  tag_49\n  jump\t// in\ntag_91:\n    /* \"#utility.yul\":696:839   */\n  swap3\n  swap2\n  pop\n  pop\n  jump\t// out\n    /* \"#utility.yul\":845:1196   */\ntag_3:\n    /* \"#utility.yul\":915:921   */\n  0x00\n    /* \"#utility.yul\":964:966   */\n  0x20\n    /* \"#utility.yul\":952:961   */\n  dup3\n    /* \"#utility.yul\":943:950   */\n  dup5\n    /* \"#utility.yul\":939:962   */\n  sub\n    /* \"#utility.yul\":935:967   */\n  slt\n    /* \"#utility.yul\":932:1051   */\n  iszero\n  tag_93\n  jumpi\n    /* \"#utility.yul\":970:1049   */\n  tag_94\n  tag_45\n  jump\t// in\ntag_94:\n    /* \"#utility.yul\":932:1051   */\ntag_93:\n    /* \"#utility.yul\":1090:1091   */\n  0x00\n    /* \"#utility.yul\":1115:1179   */\n  tag_95\n    /* \"#utility.yul\":1171:1178   */\n  dup5\n    /* \"#utility.yul\":1162:1168   */\n  dup3\n    /* \"#utility.yul\":1151:1160   */\n  dup6\n    /* \"#utility.yul\":1147:1169   */\n  add\n    /* \"#utility.yul\":1115:1179   */\n  tag_50\n  jump\t// in\ntag_95:\n    /* \"#utility.yul\":1105:1179   */\n  swap2\n  pop\n    /* \"#utility.yul\":1061:1189   */\n  pop\n    /* \"#utility.yul\":845:1196   */\n  swap3\n  swap2\n  pop\n  pop\n  jump\t// out\n    /* \"#utility.yul\":1202:1320   */\ntag_51:\n    /* \"#utility.yul\":1289:1313   */\n  tag_97\n    /* \"#utility.yul\":1307:1312   */\n  dup2\n    /* \"#utility.yul\":1289:1313   */\n  tag_48\n  jump\t// in\ntag_97:\n    /* \"#utility.yul\":1284:1287   */\n  dup3\n    /* \"#utility.yul\":1277:1314   */\n  mstore\n    /* \"#utility.yul\":1202:1320   */\n  pop\n  pop\n  jump\t// out\n    /* \"#utility.yul\":1326:1548   */\ntag_9:\n    /* \"#utility.yul\":1419:1423   */\n  0x00\n    /* \"#utility.yul\":1457:1459   */\n  0x20\n    /* \"#utility.yul\":1446:1455   */\n  dup3\n    /* \"#utility.yul\":1442:1460   */\n  add\n    /* \"#utility.yul\":1434:1460   */\n  swap1\n  pop\n    /* \"#utility.yul\":1470:1541   */\n  tag_99\n    /* \"#utility.yul\":1538:1539   */\n  0x00\n    /* \"#utility.yul\":1527:1536   */\n  dup4\n    /* \"#utility.yul\":1523:1540   */\n  add\n    /* \"#utility.yul\":1514:1520   */\n  dup5\n    /* \"#utility.yul\":1470:1541   */\n  tag_51\n  jump\t// in\ntag_99:\n    /* \"#utility.yul\":1326:1548   */\n  swap3\n  swap2\n  pop\n  pop\n  jump\t// out\n    /* \"#utility.yul\":1554:1702   */\ntag_52:\n    /* \"#utility.yul\":1656:1667   */\n  0x00\n    /* \"#utility.yul\":1693:1696   */\n  dup2\n    /* \"#utility.yul\":1678:1696   */\n  swap1\n  pop\n    /* \"#utility.yul\":1554:1702   */\n  swap3\n  swap2\n  pop\n  pop\n  jump\t// out\n    /* \"#utility.yul\":1708:1865   */\ntag_53:\n    /* \"#utility.yul\":1848:1857   */\n  0x417273656e616c00000000000000000000000000000000000000000000000000\n    /* \"#utility.yul\":1844:1845   */\n  0x00\n    /* \"#utility.yul\":1836:1842   */\n  dup3\n    /* \"#utility.yul\":1832:1846   */\n  add\n    /* \"#utility.yul\":1825:1858   */\n  mstore\n    /* \"#utility.yul\":1708:1865   */\n  pop\n  jump\t// out\n    /* \"#utility.yul\":1871:2271   */\ntag_54:\n    /* \"#utility.yul\":2031:2034   */\n  0x00\n    /* \"#utility.yul\":2052:2136   */\n  tag_103\n    /* \"#utility.yul\":2134:2135   */\n  0x07\n    /* \"#utility.yul\":2129:2132   */\n  dup4\n    /* \"#utility.yul\":2052:2136   */\n  tag_52\n  jump\t// in\ntag_103:\n    /* \"#utility.yul\":2045:2136   */\n  swap2\n  pop\n    /* \"#utility.yul\":2145:2238   */\n  tag_104\n    /* \"#utility.yul\":2234:2237   */\n  dup3\n    /* \"#utility.yul\":2145:2238   */\n  tag_53\n  jump\t// in\ntag_104:\n    /* \"#utility.yul\":2263:2264   */\n  0x07\n    /* \"#utility.yul\":2258:2261   */\n  dup3\n    /* \"#utility.yul\":2254:2265   */\n  add\n    /* \"#utility.yul\":2247:2265   */\n  swap1\n  pop\n    /* \"#utility.yul\":1871:2271   */\n  swap2\n  swap1\n  pop\n  jump\t// out\n    /* \"#utility.yul\":2277:2658   */\ntag_16:\n    /* \"#utility.yul\":2462:2465   */\n  0x00\n    /* \"#utility.yul\":2484:2632   */\n  tag_106\n    /* \"#utility.yul\":2628:2631   */\n  dup3\n    /* \"#utility.yul\":2484:2632   */\n  tag_54\n  jump\t// in\ntag_106:\n    /* \"#utility.yul\":2477:2632   */\n  swap2\n  pop\n    /* \"#utility.yul\":2649:2652   */\n  dup2\n    /* \"#utility.yul\":2642:2652   */\n  swap1\n  pop\n    /* \"#utility.yul\":2277:2658   */\n  swap2\n  swap1\n  pop\n  jump\t// out\n    /* \"#utility.yul\":2664:2821   */\ntag_55:\n    /* \"#utility.yul\":2804:2813   */\n  0x4368656c73656100000000000000000000000000000000000000000000000000\n    /* \"#utility.yul\":2800:2801   */\n  0x00\n    /* \"#utility.yul\":2792:2798   */\n  dup3\n    /* \"#utility.yul\":2788:2802   */\n  add\n    /* \"#utility.yul\":2781:2814   */\n  mstore\n    /* \"#utility.yul\":2664:2821   */\n  pop\n  jump\t// out\n    /* \"#utility.yul\":2827:3227   */\ntag_56:\n    /* \"#utility.yul\":2987:2990   */\n  0x00\n    /* \"#utility.yul\":3008:3092   */\n  tag_109\n    /* \"#utility.yul\":3090:3091   */\n  0x07\n    /* \"#utility.yul\":3085:3088   */\n  dup4\n    /* \"#utility.yul\":3008:3092   */\n  tag_52\n  jump\t// in\ntag_109:\n    /* \"#utility.yul\":3001:3092   */\n  swap2\n  pop\n    /* \"#utility.yul\":3101:3194   */\n  tag_110\n    /* \"#utility.yul\":3190:3193   */\n  dup3\n    /* \"#utility.yul\":3101:3194   */\n  tag_55\n  jump\t// in\ntag_110:\n    /* \"#utility.yul\":3219:3220   */\n  0x07\n    /* \"#utility.yul\":3214:3217   */\n  dup3\n    /* \"#utility.yul\":3210:3221   */\n  add\n    /* \"#utility.yul\":3203:3221   */\n  swap1\n  pop\n    /* \"#utility.yul\":2827:3227   */\n  swap2\n  swap1\n  pop\n  jump\t// out\n    /* \"#utility.yul\":3233:3614   */\ntag_18:\n    /* \"#utility.yul\":3418:3421   */\n  0x00\n    /* \"#utility.yul\":3440:3588   */\n  tag_112\n    /* \"#utility.yul\":3584:3587   */\n  dup3\n    /* \"#utility.yul\":3440:3588   */\n  tag_56\n  jump\t// in\ntag_112:\n    /* \"#utility.yul\":3433:3588   */\n  swap2\n  pop\n    /* \"#utility.yul\":3605:3608   */\n  dup2\n    /* \"#utility.yul\":3598:3608   */\n  swap1\n  pop\n    /* \"#utility.yul\":3233:3614   */\n  swap2\n  swap1\n  pop\n  jump\t// out\n    /* \"#utility.yul\":3620:3778   */\ntag_57:\n    /* \"#utility.yul\":3760:3770   */\n  0x4d616e2043697479000000000000000000000000000000000000000000000000\n    /* \"#utility.yul\":3756:3757   */\n  0x00\n    /* \"#utility.yul\":3748:3754   */\n  dup3\n    /* \"#utility.yul\":3744:3758   */\n  add\n    /* \"#utility.yul\":3737:3771   */\n  mstore\n    /* \"#utility.yul\":3620:3778   */\n  pop\n  jump\t// out\n    /* \"#utility.yul\":3784:4184   */\ntag_58:\n    /* \"#utility.yul\":3944:3947   */\n  0x00\n    /* \"#utility.yul\":3965:4049   */\n  tag_115\n    /* \"#utility.yul\":4047:4048   */\n  0x08\n    /* \"#utility.yul\":4042:4045   */\n  dup4\n    /* \"#utility.yul\":3965:4049   */\n  tag_52\n  jump\t// in\ntag_115:\n    /* \"#utility.yul\":3958:4049   */\n  swap2\n  pop\n    /* \"#utility.yul\":4058:4151   */\n  tag_116\n    /* \"#utility.yul\":4147:4150   */\n  dup3\n    /* \"#utility.yul\":4058:4151   */\n  tag_57\n  jump\t// in\ntag_116:\n    /* \"#utility.yul\":4176:4177   */\n  0x08\n    /* \"#utility.yul\":4171:4174   */\n  dup3\n    /* \"#utility.yul\":4167:4178   */\n  add\n    /* \"#utility.yul\":4160:4178   */\n  swap1\n  pop\n    /* \"#utility.yul\":3784:4184   */\n  swap2\n  swap1\n  pop\n  jump\t// out\n    /* \"#utility.yul\":4190:4571   */\ntag_20:\n    /* \"#utility.yul\":4375:4378   */\n  0x00\n    /* \"#utility.yul\":4397:4545   */\n  tag_118\n    /* \"#utility.yul\":4541:4544   */\n  dup3\n    /* \"#utility.yul\":4397:4545   */\n  tag_58\n  jump\t// in\ntag_118:\n    /* \"#utility.yul\":4390:4545   */\n  swap2\n  pop\n    /* \"#utility.yul\":4562:4565   */\n  dup2\n    /* \"#utility.yul\":4555:4565   */\n  swap1\n  pop\n    /* \"#utility.yul\":4190:4571   */\n  swap2\n  swap1\n  pop\n  jump\t// out\n    /* \"#utility.yul\":4577:4736   */\ntag_59:\n    /* \"#utility.yul\":4717:4728   */\n  0x4c69766572706f6f6c0000000000000000000000000000000000000000000000\n    /* \"#utility.yul\":4713:4714   */\n  0x00\n    /* \"#utility.yul\":4705:4711   */\n  dup3\n    /* \"#utility.yul\":4701:4715   */\n  add\n    /* \"#utility.yul\":4694:4729   */\n  mstore\n    /* \"#utility.yul\":4577:4736   */\n  pop\n  jump\t// out\n    /* \"#utility.yul\":4742:5142   */\ntag_60:\n    /* \"#utility.yul\":4902:4905   */\n  0x00\n    /* \"#utility.yul\":4923:5007   */\n  tag_121\n    /* \"#utility.yul\":5005:5006   */\n  0x09\n    /* \"#utility.yul\":5000:5003   */\n  dup4\n    /* \"#utility.yul\":4923:5007   */\n  tag_52\n  jump\t// in\ntag_121:\n    /* \"#utility.yul\":4916:5007   */\n  swap2\n  pop\n    /* \"#utility.yul\":5016:5109   */\n  tag_122\n    /* \"#utility.yul\":5105:5108   */\n  dup3\n    /* \"#utility.yul\":5016:5109   */\n  tag_59\n  jump\t// in\ntag_122:\n    /* \"#utility.yul\":5134:5135   */\n  0x09\n    /* \"#utility.yul\":5129:5132   */\n  dup3\n    /* \"#utility.yul\":5125:5136   */\n  add\n    /* \"#utility.yul\":5118:5136   */\n  swap1\n  pop\n    /* \"#utility.yul\":4742:5142   */\n  swap2\n  swap1\n  pop\n  jump\t// out\n    /* \"#utility.yul\":5148:5529   */\ntag_22:\n    /* \"#utility.yul\":5333:5336   */\n  0x00\n    /* \"#utility.yul\":5355:5503   */\n  tag_124\n    /* \"#utility.yul\":5499:5502   */\n  dup3\n    /* \"#utility.yul\":5355:5503   */\n  tag_60\n  jump\t// in\ntag_124:\n    /* \"#utility.yul\":5348:5503   */\n  swap2\n  pop\n    /* \"#utility.yul\":5520:5523   */\n  dup2\n    /* \"#utility.yul\":5513:5523   */\n  swap1\n  pop\n    /* \"#utility.yul\":5148:5529   */\n  swap2\n  swap1\n  pop\n  jump\t// out\n    /* \"#utility.yul\":5535:5634   */\ntag_61:\n    /* \"#utility.yul\":5587:5593   */\n  0x00\n    /* \"#utility.yul\":5621:5626   */\n  dup2\n    /* \"#utility.yul\":5615:5627   */\n  mload\n    /* \"#utility.yul\":5605:5627   */\n  swap1\n  pop\n    /* \"#utility.yul\":5535:5634   */\n  swap2\n  swap1\n  pop\n  jump\t// out\n    /* \"#utility.yul\":5640:5820   */\ntag_62:\n    /* \"#utility.yul\":5688:5765   */\n  0x4e487b7100000000000000000000000000000000000000000000000000000000\n    /* \"#utility.yul\":5685:5686   */\n  0x00\n    /* \"#utility.yul\":5678:5766   */\n  mstore\n    /* \"#utility.yul\":5785:5789   */\n  0x41\n    /* \"#utility.yul\":5782:5783   */\n  0x04\n    /* \"#utility.yul\":5775:5790   */\n  mstore\n    /* \"#utility.yul\":5809:5813   */\n  0x24\n    /* \"#utility.yul\":5806:5807   */\n  0x00\n    /* \"#utility.yul\":5799:5814   */\n  revert\n    /* \"#utility.yul\":5826:6006   */\ntag_63:\n    /* \"#utility.yul\":5874:5951   */\n  0x4e487b7100000000000000000000000000000000000000000000000000000000\n    /* \"#utility.yul\":5871:5872   */\n  0x00\n    /* \"#utility.yul\":5864:5952   */\n  mstore\n    /* \"#utility.yul\":5971:5975   */\n  0x22\n    /* \"#utility.yul\":5968:5969   */\n  0x04\n    /* \"#utility.yul\":5961:5976   */\n  mstore\n    /* \"#utility.yul\":5995:5999   */\n  0x24\n    /* \"#utility.yul\":5992:5993   */\n  0x00\n    /* \"#utility.yul\":5985:6000   */\n  revert\n    /* \"#utility.yul\":6012:6332   */\ntag_37:\n    /* \"#utility.yul\":6056:6062   */\n  0x00\n    /* \"#utility.yul\":6093:6094   */\n  0x02\n    /* \"#utility.yul\":6087:6091   */\n  dup3\n    /* \"#utility.yul\":6083:6095   */\n  div\n    /* \"#utility.yul\":6073:6095   */\n  swap1\n  pop\n    /* \"#utility.yul\":6140:6141   */\n  0x01\n    /* \"#utility.yul\":6134:6138   */\n  dup3\n    /* \"#utility.yul\":6130:6142   */\n  and\n    /* \"#utility.yul\":6161:6179   */\n  dup1\n    /* \"#utility.yul\":6151:6232   */\n  tag_129\n  jumpi\n    /* \"#utility.yul\":6217:6221   */\n  0x7f\n    /* \"#utility.yul\":6209:6215   */\n  dup3\n    /* \"#utility.yul\":6205:6222   */\n  and\n    /* \"#utility.yul\":6195:6222   */\n  swap2\n  pop\n    /* \"#utility.yul\":6151:6232   */\ntag_129:\n    /* \"#utility.yul\":6279:6281   */\n  0x20\n    /* \"#utility.yul\":6271:6277   */\n  dup3\n    /* \"#utility.yul\":6268:6282   */\n  lt\n    /* \"#utility.yul\":6248:6266   */\n  dup2\n    /* \"#utility.yul\":6245:6283   */\n  sub\n    /* \"#utility.yul\":6242:6326   */\n  tag_130\n  jumpi\n    /* \"#utility.yul\":6298:6316   */\n  tag_131\n  tag_63\n  jump\t// in\ntag_131:\n    /* \"#utility.yul\":6242:6326   */\ntag_130:\n    /* \"#utility.yul\":6063:6332   */\n  pop\n    /* \"#utility.yul\":6012:6332   */\n  swap2\n  swap1\n  pop\n  jump\t// out\n    /* \"#utility.yul\":6338:6479   */\ntag_64:\n    /* \"#utility.yul\":6387:6391   */\n  0x00\n    /* \"#utility.yul\":6410:6413   */\n  dup2\n    /* \"#utility.yul\":6402:6413   */\n  swap1\n  pop\n    /* \"#utility.yul\":6433:6436   */\n  dup2\n    /* \"#utility.yul\":6430:6431   */\n  0x00\n    /* \"#utility.yul\":6423:6437   */\n  mstore\n    /* \"#utility.yul\":6467:6471   */\n  0x20\n    /* \"#utility.yul\":6464:6465   */\n  0x00\n    /* \"#utility.yul\":6454:6472   */\n  keccak256\n    /* \"#utility.yul\":6446:6472   */\n  swap1\n  pop\n    /* \"#utility.yul\":6338:6479   */\n  swap2\n  swap1\n  pop\n  jump\t// out\n    /* \"#utility.yul\":6485:6578   */\ntag_65:\n    /* \"#utility.yul\":6522:6528   */\n  0x00\n    /* \"#utility.yul\":6569:6571   */\n  0x20\n    /* \"#utility.yul\":6564:6566   */\n  0x1f\n    /* \"#utility.yul\":6557:6562   */\n  dup4\n    /* \"#utility.yul\":6553:6567   */\n  add\n    /* \"#utility.yul\":6549:6572   */\n  div\n    /* \"#utility.yul\":6539:6572   */\n  swap1\n  pop\n    /* \"#utility.yul\":6485:6578   */\n  swap2\n  swap1\n  pop\n  jump\t// out\n    /* \"#utility.yul\":6584:6691   */\ntag_66:\n    /* \"#utility.yul\":6628:6636   */\n  0x00\n    /* \"#utility.yul\":6678:6683   */\n  dup3\n    /* \"#utility.yul\":6672:6676   */\n  dup3\n    /* \"#utility.yul\":6668:6684   */\n  shl\n    /* \"#utility.yul\":6647:6684   */\n  swap1\n  pop\n    /* \"#utility.yul\":6584:6691   */\n  swap3\n  swap2\n  pop\n  pop\n  jump\t// out\n    /* \"#utility.yul\":6697:7090   */\ntag_67:\n    /* \"#utility.yul\":6766:6772   */\n  0x00\n    /* \"#utility.yul\":6816:6817   */\n  0x08\n    /* \"#utility.yul\":6804:6814   */\n  dup4\n    /* \"#utility.yul\":6800:6818   */\n  mul\n    /* \"#utility.yul\":6839:6936   */\n  tag_136\n    /* \"#utility.yul\":6869:6935   */\n  0xffffffffffffffffffffffffffffffffffffffffffffffffffffffffffffffff\n    /* \"#utility.yul\":6858:6867   */\n  dup3\n    /* \"#utility.yul\":6839:6936   */\n  tag_66\n  jump\t// in\ntag_136:\n    /* \"#utility.yul\":6957:6996   */\n  tag_137\n    /* \"#utility.yul\":6987:6995   */\n  dup7\n    /* \"#utility.yul\":6976:6985   */\n  dup4\n    /* \"#utility.yul\":6957:6996   */\n  tag_66\n  jump\t// in\ntag_137:\n    /* \"#utility.yul\":6945:6996   */\n  swap6\n  pop\n    /* \"#utility.yul\":7029:7033   */\n  dup1\n    /* \"#utility.yul\":7025:7034   */\n  not\n    /* \"#utility.yul\":7018:7023   */\n  dup5\n    /* \"#utility.yul\":7014:7035   */\n  and\n    /* \"#utility.yul\":7005:7035   */\n  swap4\n  pop\n    /* \"#utility.yul\":7078:7082   */\n  dup1\n    /* \"#utility.yul\":7068:7076   */\n  dup7\n    /* \"#utility.yul\":7064:7083   */\n  and\n    /* \"#utility.yul\":7057:7062   */\n  dup5\n    /* \"#utility.yul\":7054:7084   */\n  or\n    /* \"#utility.yul\":7044:7084   */\n  swap3\n  pop\n    /* \"#utility.yul\":6773:7090   */\n  pop\n  pop\n    /* \"#utility.yul\":6697:7090   */\n  swap4\n  swap3\n  pop\n  pop\n  pop\n  jump\t// out\n    /* \"#utility.yul\":7096:7173   */\ntag_68:\n    /* \"#utility.yul\":7133:7140   */\n  0x00\n    /* \"#utility.yul\":7162:7167   */\n  dup2\n    /* \"#utility.yul\":7151:7167   */\n  swap1\n  pop\n    /* \"#utility.yul\":7096:7173   */\n  swap2\n  swap1\n  pop\n  jump\t// out\n    /* \"#utility.yul\":7179:7239   */\ntag_69:\n    /* \"#utility.yul\":7207:7210   */\n  0x00\n    /* \"#utility.yul\":7228:7233   */\n  dup2\n    /* \"#utility.yul\":7221:7233   */\n  swap1\n  pop\n    /* \"#utility.yul\":7179:7239   */\n  swap2\n  swap1\n  pop\n  jump\t// out\n    /* \"#utility.yul\":7245:7387   */\ntag_70:\n    /* \"#utility.yul\":7295:7304   */\n  0x00\n    /* \"#utility.yul\":7328:7381   */\n  tag_141\n    /* \"#utility.yul\":7346:7380   */\n  tag_142\n    /* \"#utility.yul\":7355:7379   */\n  tag_143\n    /* \"#utility.yul\":7373:7378   */\n  dup5\n    /* \"#utility.yul\":7355:7379   */\n  tag_68\n  jump\t// in\ntag_143:\n    /* \"#utility.yul\":7346:7380   */\n  tag_69\n  jump\t// in\ntag_142:\n    /* \"#utility.yul\":7328:7381   */\n  tag_68\n  jump\t// in\ntag_141:\n    /* \"#utility.yul\":7315:7381   */\n  swap1\n  pop\n    /* \"#utility.yul\":7245:7387   */\n  swap2\n  swap1\n  pop\n  jump\t// out\n    /* \"#utility.yul\":7393:7468   */\ntag_71:\n    /* \"#utility.yul\":7436:7439   */\n  0x00\n    /* \"#utility.yul\":7457:7462   */\n  dup2\n    /* \"#utility.yul\":7450:7462   */\n  swap1\n  pop\n    /* \"#utility.yul\":7393:7468   */\n  swap2\n  swap1\n  pop\n  jump\t// out\n    /* \"#utility.yul\":7474:7743   */\ntag_72:\n    /* \"#utility.yul\":7584:7623   */\n  tag_146\n    /* \"#utility.yul\":7615:7622   */\n  dup4\n    /* \"#utility.yul\":7584:7623   */\n  tag_70\n  jump\t// in\ntag_146:\n    /* \"#utility.yul\":7645:7736   */\n  tag_147\n    /* \"#utility.yul\":7694:7735   */\n  tag_148\n    /* \"#utility.yul\":7718:7734   */\n  dup3\n    /* \"#utility.yul\":7694:7735   */\n  tag_71\n  jump\t// in\ntag_148:\n    /* \"#utility.yul\":7686:7692   */\n  dup5\n    /* \"#utility.yul\":7679:7683   */\n  dup5\n    /* \"#utility.yul\":7673:7684   */\n  sload\n    /* \"#utility.yul\":7645:7736   */\n  tag_67\n  jump\t// in\ntag_147:\n    /* \"#utility.yul\":7639:7643   */\n  dup3\n    /* \"#utility.yul\":7632:7737   */\n  sstore\n    /* \"#utility.yul\":7550:7743   */\n  pop\n    /* \"#utility.yul\":7474:7743   */\n  pop\n  pop\n  pop\n  jump\t// out\n    /* \"#utility.yul\":7749:7822   */\ntag_73:\n    /* \"#utility.yul\":7794:7797   */\n  0x00\n    /* \"#utility.yul\":7749:7822   */\n  swap1\n  jump\t// out\n    /* \"#utility.yul\":7828:8017   */\ntag_74:\n    /* \"#utility.yul\":7905:7937   */\n  tag_151\n  tag_73\n  jump\t// in\ntag_151:\n    /* \"#utility.yul\":7946:8011   */\n  tag_152\n    /* \"#utility.yul\":8004:8010   */\n  dup2\n    /* \"#utility.yul\":7996:8002   */\n  dup5\n    /* \"#utility.yul\":7990:7994   */\n  dup5\n    /* \"#utility.yul\":7946:8011   */\n  tag_72\n  jump\t// in\ntag_152:\n    /* \"#utility.yul\":7881:8017   */\n  pop\n    /* \"#utility.yul\":7828:8017   */\n  pop\n  pop\n  jump\t// out\n    /* \"#utility.yul\":8023:8209   */\ntag_75:\n    /* \"#utility.yul\":8083:8203   */\ntag_154:\n    /* \"#utility.yul\":8100:8103   */\n  dup2\n    /* \"#utility.yul\":8093:8098   */\n  dup2\n    /* \"#utility.yul\":8090:8104   */\n  lt\n    /* \"#utility.yul\":8083:8203   */\n  iszero\n  tag_156\n  jumpi\n    /* \"#utility.yul\":8154:8193   */\n  tag_157\n    /* \"#utility.yul\":8191:8192   */\n  0x00\n    /* \"#utility.yul\":8184:8189   */\n  dup3\n    /* \"#utility.yul\":8154:8193   */\n  tag_74\n  jump\t// in\ntag_157:\n    /* \"#utility.yul\":8127:8128   */\n  0x01\n    /* \"#utility.yul\":8120:8125   */\n  dup2\n    /* \"#utility.yul\":8116:8129   */\n  add\n    /* \"#utility.yul\":8107:8129   */\n  swap1\n  pop\n    /* \"#utility.yul\":8083:8203   */\n  jump(tag_154)\ntag_156:\n    /* \"#utility.yul\":8023:8209   */\n  pop\n  pop\n  jump\t// out\n    /* \"#utility.yul\":8215:8758   */\ntag_76:\n    /* \"#utility.yul\":8316:8318   */\n  0x1f\n    /* \"#utility.yul\":8311:8314   */\n  dup3\n    /* \"#utility.yul\":8308:8319   */\n  gt\n    /* \"#utility.yul\":8305:8751   */\n  iszero\n  tag_159\n  jumpi\n    /* \"#utility.yul\":8350:8388   */\n  tag_160\n    /* \"#utility.yul\":8382:8387   */\n  dup2\n    /* \"#utility.yul\":8350:8388   */\n  tag_64\n  jump\t// in\ntag_160:\n    /* \"#utility.yul\":8434:8463   */\n  tag_161\n    /* \"#utility.yul\":8452:8462   */\n  dup5\n    /* \"#utility.yul\":8434:8463   */\n  tag_65\n  jump\t// in\ntag_161:\n    /* \"#utility.yul\":8424:8432   */\n  dup2\n    /* \"#utility.yul\":8420:8464   */\n  add\n    /* \"#utility.yul\":8617:8619   */\n  0x20\n    /* \"#utility.yul\":8605:8615   */\n  dup6\n    /* \"#utility.yul\":8602:8620   */\n  lt\n    /* \"#utility.yul\":8599:8648   */\n  iszero\n  tag_162\n  jumpi\n    /* \"#utility.yul\":8638:8646   */\n  dup2\n    /* \"#utility.yul\":8623:8646   */\n  swap1\n  pop\n    /* \"#utility.yul\":8599:8648   */\ntag_162:\n    /* \"#utility.yul\":8661:8741   */\n  tag_163\n    /* \"#utility.yul\":8717:8739   */\n  tag_164\n    /* \"#utility.yul\":8735:8738   */\n  dup6\n    /* \"#utility.yul\":8717:8739   */\n  tag_65\n  jump\t// in\ntag_164:\n    /* \"#utility.yul\":8707:8715   */\n  dup4\n    /* \"#utility.yul\":8703:8740   */\n  add\n    /* \"#utility.yul\":8690:8701   */\n  dup3\n    /* \"#utility.yul\":8661:8741   */\n  tag_75\n  jump\t// in\ntag_163:\n    /* \"#utility.yul\":8320:8751   */\n  pop\n  pop\n    /* \"#utility.yul\":8305:8751   */\ntag_159:\n    /* \"#utility.yul\":8215:8758   */\n  pop\n  pop\n  pop\n  jump\t// out\n    /* \"#utility.yul\":8764:8881   */\ntag_77:\n    /* \"#utility.yul\":8818:8826   */\n  0x00\n    /* \"#utility.yul\":8868:8873   */\n  dup3\n    /* \"#utility.yul\":8862:8866   */\n  dup3\n    /* \"#utility.yul\":8858:8874   */\n  shr\n    /* \"#utility.yul\":8837:8874   */\n  swap1\n  pop\n    /* \"#utility.yul\":8764:8881   */\n  swap3\n  swap2\n  pop\n  pop\n  jump\t// out\n    /* \"#utility.yul\":8887:9056   */\ntag_78:\n    /* \"#utility.yul\":8931:8937   */\n  0x00\n    /* \"#utility.yul\":8964:9015   */\n  tag_167\n    /* \"#utility.yul\":9012:9013   */\n  0x00\n    /* \"#utility.yul\":9008:9014   */\n  not\n    /* \"#utility.yul\":9000:9005   */\n  dup5\n    /* \"#utility.yul\":8997:8998   */\n  0x08\n    /* \"#utility.yul\":8993:9006   */\n  mul\n    /* \"#utility.yul\":8964:9015   */\n  tag_77\n  jump\t// in\ntag_167:\n    /* \"#utility.yul\":8960:9016   */\n  not\n    /* \"#utility.yul\":9045:9049   */\n  dup1\n    /* \"#utility.yul\":9039:9043   */\n  dup4\n    /* \"#utility.yul\":9035:9050   */\n  and\n    /* \"#utility.yul\":9025:9050   */\n  swap2\n  pop\n    /* \"#utility.yul\":8938:9056   */\n  pop\n    /* \"#utility.yul\":8887:9056   */\n  swap3\n  swap2\n  pop\n  pop\n  jump\t// out\n    /* \"#utility.yul\":9061:9356   */\ntag_79:\n    /* \"#utility.yul\":9137:9141   */\n  0x00\n    /* \"#utility.yul\":9283:9312   */\n  tag_169\n    /* \"#utility.yul\":9308:9311   */\n  dup4\n    /* \"#utility.yul\":9302:9306   */\n  dup4\n    /* \"#utility.yul\":9283:9312   */\n  tag_78\n  jump\t// in\ntag_169:\n    /* \"#utility.yul\":9275:9312   */\n  swap2\n  pop\n    /* \"#utility.yul\":9345:9348   */\n  dup3\n    /* \"#utility.yul\":9342:9343   */\n  0x02\n    /* \"#utility.yul\":9338:9349   */\n  mul\n    /* \"#utility.yul\":9332:9336   */\n  dup3\n    /* \"#utility.yul\":9329:9350   */\n  or\n    /* \"#utility.yul\":9321:9350   */\n  swap1\n  pop\n    /* \"#utility.yul\":9061:9356   */\n  swap3\n  swap2\n  pop\n  pop\n  jump\t// out\n    /* \"#utility.yul\":9361:10756   */\ntag_29:\n    /* \"#utility.yul\":9478:9515   */\n  tag_171\n    /* \"#utility.yul\":9511:9514   */\n  dup3\n    /* \"#utility.yul\":9478:9515   */\n  tag_61\n  jump\t// in\ntag_171:\n    /* \"#utility.yul\":9580:9598   */\n  0xffffffffffffffff\n    /* \"#utility.yul\":9572:9578   */\n  dup2\n    /* \"#utility.yul\":9569:9599   */\n  gt\n    /* \"#utility.yul\":9566:9622   */\n  iszero\n  tag_172\n  jumpi\n    /* \"#utility.yul\":9602:9620   */\n  tag_173\n  tag_62\n  jump\t// in\ntag_173:\n    /* \"#utility.yul\":9566:9622   */\ntag_172:\n    /* \"#utility.yul\":9646:9684   */\n  tag_174\n    /* \"#utility.yul\":9678:9682   */\n  dup3\n    /* \"#utility.yul\":9672:9683   */\n  sload\n    /* \"#utility.yul\":9646:9684   */\n  tag_37\n  jump\t// in\ntag_174:\n    /* \"#utility.yul\":9731:9798   */\n  tag_175\n    /* \"#utility.yul\":9791:9797   */\n  dup3\n    /* \"#utility.yul\":9783:9789   */\n  dup3\n    /* \"#utility.yul\":9777:9781   */\n  dup6\n    /* \"#utility.yul\":9731:9798   */\n  tag_76\n  jump\t// in\ntag_175:\n    /* \"#utility.yul\":9825:9826   */\n  0x00\n    /* \"#utility.yul\":9849:9853   */\n  0x20\n    /* \"#utility.yul\":9836:9853   */\n  swap1\n  pop\n    /* \"#utility.yul\":9881:9883   */\n  0x1f\n    /* \"#utility.yul\":9873:9879   */\n  dup4\n    /* \"#utility.yul\":9870:9884   */\n  gt\n    /* \"#utility.yul\":9898:9899   */\n  0x01\n    /* \"#utility.yul\":9893:10511   */\n  dup2\n  eq\n  tag_177\n  jumpi\n    /* \"#utility.yul\":10555:10556   */\n  0x00\n    /* \"#utility.yul\":10572:10578   */\n  dup5\n    /* \"#utility.yul\":10569:10646   */\n  iszero\n  tag_178\n  jumpi\n    /* \"#utility.yul\":10621:10630   */\n  dup3\n    /* \"#utility.yul\":10616:10619   */\n  dup8\n    /* \"#utility.yul\":10612:10631   */\n  add\n    /* \"#utility.yul\":10606:10632   */\n  mload\n    /* \"#utility.yul\":10597:10632   */\n  swap1\n  pop\n    /* \"#utility.yul\":10569:10646   */\ntag_178:\n    /* \"#utility.yul\":10672:10739   */\n  tag_179\n    /* \"#utility.yul\":10732:10738   */\n  dup6\n    /* \"#utility.yul\":10725:10730   */\n  dup3\n    /* \"#utility.yul\":10672:10739   */\n  tag_79\n  jump\t// in\ntag_179:\n    /* \"#utility.yul\":10666:10670   */\n  dup7\n    /* \"#utility.yul\":10659:10740   */\n  sstore\n    /* \"#utility.yul\":10528:10750   */\n  pop\n    /* \"#utility.yul\":9863:10750   */\n  jump(tag_176)\n    /* \"#utility.yul\":9893:10511   */\ntag_177:\n    /* \"#utility.yul\":9945:9949   */\n  0x1f\n    /* \"#utility.yul\":9941:9950   */\n  not\n    /* \"#utility.yul\":9933:9939   */\n  dup5\n    /* \"#utility.yul\":9929:9951   */\n  and\n    /* \"#utility.yul\":9979:10016   */\n  tag_180\n    /* \"#utility.yul\":10011:10015   */\n  dup7\n    /* \"#utility.yul\":9979:10016   */\n  tag_64\n  jump\t// in\ntag_180:\n    /* \"#utility.yul\":10038:10039   */\n  0x00\n    /* \"#utility.yul\":10052:10260   */\ntag_181:\n    /* \"#utility.yul\":10066:10073   */\n  dup3\n    /* \"#utility.yul\":10063:10064   */\n  dup2\n    /* \"#utility.yul\":10060:10074   */\n  lt\n    /* \"#utility.yul\":10052:10260   */\n  iszero\n  tag_183\n  jumpi\n    /* \"#utility.yul\":10145:10154   */\n  dup5\n    /* \"#utility.yul\":10140:10143   */\n  dup10\n    /* \"#utility.yul\":10136:10155   */\n  add\n    /* \"#utility.yul\":10130:10156   */\n  mload\n    /* \"#utility.yul\":10122:10128   */\n  dup3\n    /* \"#utility.yul\":10115:10157   */\n  sstore\n    /* \"#utility.yul\":10196:10197   */\n  0x01\n    /* \"#utility.yul\":10188:10194   */\n  dup3\n    /* \"#utility.yul\":10184:10198   */\n  add\n    /* \"#utility.yul\":10174:10198   */\n  swap2\n  pop\n    /* \"#utility.yul\":10243:10245   */\n  0x20\n    /* \"#utility.yul\":10232:10241   */\n  dup6\n    /* \"#utility.yul\":10228:10246   */\n  add\n    /* \"#utility.yul\":10215:10246   */\n  swap5\n  pop\n    /* \"#utility.yul\":10089:10093   */\n  0x20\n    /* \"#utility.yul\":10086:10087   */\n  dup2\n    /* \"#utility.yul\":10082:10094   */\n  add\n    /* \"#utility.yul\":10077:10094   */\n  swap1\n  pop\n    /* \"#utility.yul\":10052:10260   */\n  jump(tag_181)\ntag_183:\n    /* \"#utility.yul\":10288:10294   */\n  dup7\n    /* \"#utility.yul\":10279:10286   */\n  dup4\n    /* \"#utility.yul\":10276:10295   */\n  lt\n    /* \"#utility.yul\":10273:10452   */\n  iszero\n  tag_184\n  jumpi\n    /* \"#utility.yul\":10346:10355   */\n  dup5\n    /* \"#utility.yul\":10341:10344   */\n  dup10\n    /* \"#utility.yul\":10337:10356   */\n  add\n    /* \"#utility.yul\":10331:10357   */\n  mload\n    /* \"#utility.yul\":10389:10437   */\n  tag_185\n    /* \"#utility.yul\":10431:10435   */\n  0x1f\n    /* \"#utility.yul\":10423:10429   */\n  dup10\n    /* \"#utility.yul\":10419:10436   */\n  and\n    /* \"#utility.yul\":10408:10417   */\n  dup3\n    /* \"#utility.yul\":10389:10437   */\n  tag_78\n  jump\t// in\ntag_185:\n    /* \"#utility.yul\":10381:10387   */\n  dup4\n    /* \"#utility.yul\":10374:10438   */\n  sstore\n    /* \"#utility.yul\":10296:10452   */\n  pop\n    /* \"#utility.yul\":10273:10452   */\ntag_184:\n    /* \"#utility.yul\":10498:10499   */\n  0x01\n    /* \"#utility.yul\":10494:10495   */\n  0x02\n    /* \"#utility.yul\":10486:10492   */\n  dup9\n    /* \"#utility.yul\":10482:10496   */\n  mul\n    /* \"#utility.yul\":10478:10500   */\n  add\n    /* \"#utility.yul\":10472:10476   */\n  dup9\n    /* \"#utility.yul\":10465:10501   */\n  sstore\n    /* \"#utility.yul\":9900:10511   */\n  pop\n  pop\n  pop\n    /* \"#utility.yul\":9863:10750   */\ntag_176:\n  pop\n    /* \"#utility.yul\":9453:10756   */\n  pop\n  pop\n  pop\n    /* \"#utility.yul\":9361:10756   */\n  pop\n  pop\n  jump\t// out\n    /* \"PerpContract/Main.sol\":279:5404  contract PerpetualDEX is Ownable {... */\ntag_23:\n  dataSize(sub_0)\n  dup1\n  dataOffset(sub_0)\n  0x00\n  codecopy\n  0x00\n  return\nstop\n\nsub_0: assembly {\n        /* \"PerpContract/Main.sol\":279:5404  contract PerpetualDEX is Ownable {... */\n      mstore(0x40, 0x80)\n      jumpi(tag_1, lt(calldatasize, 0x04))\n      shr(0xe0, calldataload(0x00))\n      dup1\n      0x8da5cb5b\n      gt\n      tag_22\n      jumpi\n      dup1\n      0xd0ce7360\n      gt\n      tag_23\n      jumpi\n      dup1\n      0xd0ce7360\n      eq\n      tag_17\n      jumpi\n      dup1\n      0xdb027e05\n      eq\n      tag_18\n      jumpi\n      dup1\n      0xed23f8c3\n      eq\n      tag_19\n      jumpi\n      dup1\n      0xf2fde38b\n      eq\n      tag_20\n      jumpi\n      dup1\n      0xfdf3f74d\n      eq\n      tag_21\n      jumpi\n      jump(tag_1)\n    tag_23:\n      dup1\n      0x8da5cb5b\n      eq\n      tag_12\n      jumpi\n      dup1\n      0x9da751bb\n      eq\n      tag_13\n      jumpi\n      dup1\n      0xa265b84d\n      eq\n      tag_14\n      jumpi\n      dup1\n      0xac580de7\n      eq\n      tag_15\n      jumpi\n      dup1\n      0xce13ec89\n      eq\n      tag_16\n      jumpi\n      jump(tag_1)\n    tag_22:\n      dup1\n      0x4406d219\n      gt\n      tag_24\n      jumpi\n      dup1\n      0x4406d219\n      eq\n      tag_7\n      jumpi\n      dup1\n      0x46e7a1dc\n      eq\n      tag_8\n      jumpi\n      dup1\n      0x5ae725f7\n      eq\n      tag_9\n      jumpi\n      dup1\n      0x715018a6\n      eq\n      tag_10\n      jumpi\n      dup1\n      0x89279378\n      eq\n      tag_11\n      jumpi\n      jump(tag_1)\n    tag_24:\n      dup1\n      0x0232424d\n      eq\n      tag_2\n      jumpi\n      dup1\n      0x02d06d05\n      eq\n      tag_3\n      jumpi\n      dup1\n      0x08ab2d4b\n      eq\n      tag_4\n      jumpi\n      dup1\n      0x12065fe0\n      eq\n      tag_5\n      jumpi\n      dup1\n      0x27826f1e\n      eq\n      tag_6\n      jumpi\n    tag_1:\n      0x00\n      dup1\n      revert\n        /* \"PerpContract/Main.sol\":318:350  IFunctionConsumer public eloFeed */\n    tag_2:\n      callvalue\n      dup1\n      iszero\n      tag_25\n      jumpi\n      0x00\n      dup1\n      revert\n    tag_25:\n      pop\n      tag_26\n      tag_27\n      jump\t// in\n    tag_26:\n      mload(0x40)\n      tag_28\n      swap2\n      swap1\n      tag_29\n      jump\t// in\n    tag_28:\n      mload(0x40)\n      dup1\n      swap2\n      sub\n      swap1\n      return\n        /* \"PerpContract/Main.sol\":4682:4944  function bytesToUint(bytes memory b) public pure returns (uint256) {... */\n    tag_3:\n      callvalue\n      dup1\n      iszero\n      tag_30\n      jumpi\n      0x00\n      dup1\n      revert\n    tag_30:\n      pop\n      tag_31\n      0x04\n      dup1\n      calldatasize\n      sub\n      dup2\n      add\n      swap1\n      tag_32\n      swap2\n      swap1\n      tag_33\n      jump\t// in\n    tag_32:\n      tag_34\n      jump\t// in\n    tag_31:\n      mload(0x40)\n      tag_35\n      swap2\n      swap1\n      tag_36\n      jump\t// in\n    tag_35:\n      mload(0x40)\n      dup1\n      swap2\n      sub\n      swap1\n      return\n        /* \"PerpContract/Main.sol\":4229:4459  function getEloRanking(string memory team) public view returns (uint256)... */\n    tag_4:\n      callvalue\n      dup1\n      iszero\n      tag_37\n      jumpi\n      0x00\n      dup1\n      revert\n    tag_37:\n      pop\n      tag_38\n      0x04\n      dup1\n      calldatasize\n      sub\n      dup2\n      add\n      swap1\n      tag_39\n      swap2\n      swap1\n      tag_40\n      jump\t// in\n    tag_39:\n      tag_41\n      jump\t// in\n    tag_38:\n      mload(0x40)\n      tag_42\n      swap2\n      swap1\n      tag_36\n      jump\t// in\n    tag_42:\n      mload(0x40)\n      dup1\n      swap2\n      sub\n      swap1\n      return\n        /* \"PerpContract/Main.sol\":4064:4161  function getBalance() public view returns (uint256) {... */\n    tag_5:\n      callvalue\n      dup1\n      iszero\n      tag_43\n      jumpi\n      0x00\n      dup1\n      revert\n    tag_43:\n      pop\n      tag_44\n      tag_45\n      jump\t// in\n    tag_44:\n      mload(0x40)\n      tag_46\n      swap2\n      swap1\n      tag_36\n      jump\t// in\n    tag_46:\n      mload(0x40)\n      dup1\n      swap2\n      sub\n      swap1\n      return\n        /* \"PerpContract/Main.sol\":4527:4676  function getEloRankingAsByte(string memory team) public view returns (bytes memory)... */\n    tag_6:\n      callvalue\n      dup1\n      iszero\n      tag_47\n      jumpi\n      0x00\n      dup1\n      revert\n    tag_47:\n      pop\n      tag_48\n      0x04\n      dup1\n      calldatasize\n      sub\n      dup2\n      add\n      swap1\n      tag_49\n      swap2\n      swap1\n      tag_40\n      jump\t// in\n    tag_49:\n      tag_50\n      jump\t// in\n    tag_48:\n      mload(0x40)\n      tag_51\n      swap2\n      swap1\n      tag_52\n      jump\t// in\n    tag_51:\n      mload(0x40)\n      dup1\n      swap2\n      sub\n      swap1\n      return\n        /* \"PerpContract/Main.sol\":5306:5401  function addTeamName(string memory _teamName) public {... */\n    tag_7:\n      callvalue\n      dup1\n      iszero\n      tag_53\n      jumpi\n      0x00\n      dup1\n      revert\n    tag_53:\n      pop\n      tag_54\n      0x04\n      dup1\n      calldatasize\n      sub\n      dup2\n      add\n      swap1\n      tag_55\n      swap2\n      swap1\n      tag_40\n      jump\t// in\n    tag_55:\n      tag_56\n      jump\t// in\n    tag_54:\n      stop\n        /* \"PerpContract/Main.sol\":5148:5253  function getRanking(string memory club) public view returns (uint) {... */\n    tag_8:\n      callvalue\n      dup1\n      iszero\n      tag_57\n      jumpi\n      0x00\n      dup1\n      revert\n    tag_57:\n      pop\n      tag_58\n      0x04\n      dup1\n      calldatasize\n      sub\n      dup2\n      add\n      swap1\n      tag_59\n      swap2\n      swap1\n      tag_40\n      jump\t// in\n    tag_59:\n      tag_60\n      jump\t// in\n    tag_58:\n      mload(0x40)\n      tag_61\n      swap2\n      swap1\n      tag_36\n      jump\t// in\n    tag_61:\n      mload(0x40)\n      dup1\n      swap2\n      sub\n      swap1\n      return\n        /* \"PerpContract/Main.sol\":1047:1072  string[] public teamNames */\n    tag_9:\n      callvalue\n      dup1\n      iszero\n      tag_62\n      jumpi\n      0x00\n      dup1\n      revert\n    tag_62:\n      pop\n      tag_63\n      0x04\n      dup1\n      calldatasize\n      sub\n      dup2\n      add\n      swap1\n      tag_64\n      swap2\n      swap1\n      tag_65\n      jump\t// in\n    tag_64:\n      tag_66\n      jump\t// in\n    tag_63:\n      mload(0x40)\n      tag_67\n      swap2\n      swap1\n      tag_68\n      jump\t// in\n    tag_67:\n      mload(0x40)\n      dup1\n      swap2\n      sub\n      swap1\n      return\n        /* \"@openzeppelin/contracts/access/Ownable.sol\":2293:2394  function renounceOwnership() public virtual onlyOwner {... */\n    tag_10:\n      callvalue\n      dup1\n      iszero\n      tag_69\n      jumpi\n      0x00\n      dup1\n      revert\n    tag_69:\n      pop\n      tag_70\n      tag_71\n      jump\t// in\n    tag_70:\n      stop\n        /* \"PerpContract/Main.sol\":3678:4057  function findTotalVal() public view returns (uint256) {... */\n    tag_11:\n      callvalue\n      dup1\n      iszero\n      tag_72\n      jumpi\n      0x00\n      dup1\n      revert\n    tag_72:\n      pop\n      tag_73\n      tag_74\n      jump\t// in\n    tag_73:\n      mload(0x40)\n      tag_75\n      swap2\n      swap1\n      tag_36\n      jump\t// in\n    tag_75:\n      mload(0x40)\n      dup1\n      swap2\n      sub\n      swap1\n      return\n        /* \"@openzeppelin/contracts/access/Ownable.sol\":1638:1723  function owner() public view virtual returns (address) {... */\n    tag_12:\n      callvalue\n      dup1\n      iszero\n      tag_76\n      jumpi\n      0x00\n      dup1\n      revert\n    tag_76:\n      pop\n      tag_77\n      tag_78\n      jump\t// in\n    tag_77:\n      mload(0x40)\n      tag_79\n      swap2\n      swap1\n      tag_80\n      jump\t// in\n    tag_79:\n      mload(0x40)\n      dup1\n      swap2\n      sub\n      swap1\n      return\n        /* \"PerpContract/Main.sol\":1597:2383  function openContract(string memory _team) public payable {... */\n    tag_13:\n      tag_81\n      0x04\n      dup1\n      calldatasize\n      sub\n      dup2\n      add\n      swap1\n      tag_82\n      swap2\n      swap1\n      tag_40\n      jump\t// in\n    tag_82:\n      tag_83\n      jump\t// in\n    tag_81:\n      stop\n        /* \"PerpContract/Main.sol\":3109:3671  function calcPayout(uint256 _contractId) public view returns (uint256) {... */\n    tag_14:\n      callvalue\n      dup1\n      iszero\n      tag_84\n      jumpi\n      0x00\n      dup1\n      revert\n    tag_84:\n      pop\n      tag_85\n      0x04\n      dup1\n      calldatasize\n      sub\n      dup2\n      add\n      swap1\n      tag_86\n      swap2\n      swap1\n      tag_65\n      jump\t// in\n    tag_86:\n      tag_87\n      jump\t// in\n    tag_85:\n      mload(0x40)\n      tag_88\n      swap2\n      swap1\n      tag_36\n      jump\t// in\n    tag_88:\n      mload(0x40)\n      dup1\n      swap2\n      sub\n      swap1\n      return\n        /* \"PerpContract/Main.sol\":855:903  mapping(address => uint256) public contractCount */\n    tag_15:\n      callvalue\n      dup1\n      iszero\n      tag_89\n      jumpi\n      0x00\n      dup1\n      revert\n    tag_89:\n      pop\n      tag_90\n      0x04\n      dup1\n      calldatasize\n      sub\n      dup2\n      add\n      swap1\n      tag_91\n      swap2\n      swap1\n      tag_92\n      jump\t// in\n    tag_91:\n      tag_93\n      jump\t// in\n    tag_90:\n      mload(0x40)\n      tag_94\n      swap2\n      swap1\n      tag_36\n      jump\t// in\n    tag_94:\n      mload(0x40)\n      dup1\n      swap2\n      sub\n      swap1\n      return\n        /* \"PerpContract/Main.sol\":4995:5097  function setRanking(string memory club, uint ranking) public {... */\n    tag_16:\n      callvalue\n      dup1\n      iszero\n      tag_95\n      jumpi\n      0x00\n      dup1\n      revert\n    tag_95:\n      pop\n      tag_96\n      0x04\n      dup1\n      calldatasize\n      sub\n      dup2\n      add\n      swap1\n      tag_97\n      swap2\n      swap1\n      tag_98\n      jump\t// in\n    tag_97:\n      tag_99\n      jump\t// in\n    tag_96:\n      stop\n        /* \"PerpContract/Main.sol\":2435:3103  function closeContract(uint256 _contractId) external {... */\n    tag_17:\n      callvalue\n      dup1\n      iszero\n      tag_100\n      jumpi\n      0x00\n      dup1\n      revert\n    tag_100:\n      pop\n      tag_101\n      0x04\n      dup1\n      calldatasize\n      sub\n      dup2\n      add\n      swap1\n      tag_102\n      swap2\n      swap1\n      tag_65\n      jump\t// in\n    tag_102:\n      tag_103\n      jump\t// in\n    tag_101:\n      stop\n        /* \"PerpContract/Main.sol\":993:1041  mapping(string => uint256) public quantitiesLive */\n    tag_18:\n      callvalue\n      dup1\n      iszero\n      tag_104\n      jumpi\n      0x00\n      dup1\n      revert\n    tag_104:\n      pop\n      tag_105\n      0x04\n      dup1\n      calldatasize\n      sub\n      dup2\n      add\n      swap1\n      tag_106\n      swap2\n      swap1\n      tag_40\n      jump\t// in\n    tag_106:\n      tag_107\n      jump\t// in\n    tag_105:\n      mload(0x40)\n      tag_108\n      swap2\n      swap1\n      tag_36\n      jump\t// in\n    tag_108:\n      mload(0x40)\n      dup1\n      swap2\n      sub\n      swap1\n      return\n        /* \"PerpContract/Main.sol\":745:814  mapping(address => mapping(uint256 => PerpContract)) public contracts */\n    tag_19:\n      callvalue\n      dup1\n      iszero\n      tag_109\n      jumpi\n      0x00\n      dup1\n      revert\n    tag_109:\n      pop\n      tag_110\n      0x04\n      dup1\n      calldatasize\n      sub\n      dup2\n      add\n      swap1\n      tag_111\n      swap2\n      swap1\n      tag_112\n      jump\t// in\n    tag_111:\n      tag_113\n      jump\t// in\n    tag_110:\n      mload(0x40)\n      tag_114\n      swap8\n      swap7\n      swap6\n      swap5\n      swap4\n      swap3\n      swap2\n      swap1\n      tag_115\n      jump\t// in\n    tag_114:\n      mload(0x40)\n      dup1\n      swap2\n      sub\n      swap1\n      return\n        /* \"@openzeppelin/contracts/access/Ownable.sol\":2543:2758  function transferOwnership(address newOwner) public virtual onlyOwner {... */\n    tag_20:\n      callvalue\n      dup1\n      iszero\n      tag_116\n      jumpi\n      0x00\n      dup1\n      revert\n    tag_116:\n      pop\n      tag_117\n      0x04\n      dup1\n      calldatasize\n      sub\n      dup2\n      add\n      swap1\n      tag_118\n      swap2\n      swap1\n      tag_92\n      jump\t// in\n    tag_118:\n      tag_119\n      jump\t// in\n    tag_117:\n      stop\n        /* \"PerpContract/Main.sol\":945:987  mapping(string => uint256) public rankings */\n    tag_21:\n      callvalue\n      dup1\n      iszero\n      tag_120\n      jumpi\n      0x00\n      dup1\n      revert\n    tag_120:\n      pop\n      tag_121\n      0x04\n      dup1\n      calldatasize\n      sub\n      dup2\n      add\n      swap1\n      tag_122\n      swap2\n      swap1\n      tag_40\n      jump\t// in\n    tag_122:\n      tag_123\n      jump\t// in\n    tag_121:\n      mload(0x40)\n      tag_124\n      swap2\n      swap1\n      tag_36\n      jump\t// in\n    tag_124:\n      mload(0x40)\n      dup1\n      swap2\n      sub\n      swap1\n      return\n        /* \"PerpContract/Main.sol\":318:350  IFunctionConsumer public eloFeed */\n    tag_27:\n      0x01\n      0x00\n      swap1\n      sload\n      swap1\n      0x0100\n      exp\n      swap1\n      div\n      0xffffffffffffffffffffffffffffffffffffffff\n      and\n      dup2\n      jump\t// out\n        /* \"PerpContract/Main.sol\":4682:4944  function bytesToUint(bytes memory b) public pure returns (uint256) {... */\n    tag_34:\n        /* \"PerpContract/Main.sol\":4740:4747  uint256 */\n      0x00\n        /* \"PerpContract/Main.sol\":4779:4781  32 */\n      0x20\n        /* \"PerpContract/Main.sol\":4767:4768  b */\n      dup3\n        /* \"PerpContract/Main.sol\":4767:4775  b.length */\n      mload\n        /* \"PerpContract/Main.sol\":4767:4781  b.length == 32 */\n      eq\n        /* \"PerpContract/Main.sol\":4759:4809  require(b.length == 32, \"Bytes length must be 32\") */\n      tag_126\n      jumpi\n      mload(0x40)\n      0x08c379a000000000000000000000000000000000000000000000000000000000\n      dup2\n      mstore\n      0x04\n      add\n      tag_127\n      swap1\n      tag_128\n      jump\t// in\n    tag_127:\n      mload(0x40)\n      dup1\n      swap2\n      sub\n      swap1\n      revert\n    tag_126:\n        /* \"PerpContract/Main.sol\":4828:4843  uint256 number1 */\n      0x00\n        /* \"PerpContract/Main.sol\":4900:4902  32 */\n      0x20\n        /* \"PerpContract/Main.sol\":4897:4898  b */\n      dup4\n        /* \"PerpContract/Main.sol\":4893:4903  add(b, 32) */\n      add\n        /* \"PerpContract/Main.sol\":4887:4904  mload(add(b, 32)) */\n      mload\n        /* \"PerpContract/Main.sol\":4876:4904  number1 := mload(add(b, 32)) */\n      swap1\n      pop\n        /* \"PerpContract/Main.sol\":4930:4937  number1 */\n      dup1\n        /* \"PerpContract/Main.sol\":4923:4937  return number1 */\n      swap2\n      pop\n      pop\n        /* \"PerpContract/Main.sol\":4682:4944  function bytesToUint(bytes memory b) public pure returns (uint256) {... */\n      swap2\n      swap1\n      pop\n      jump\t// out\n        /* \"PerpContract/Main.sol\":4229:4459  function getEloRanking(string memory team) public view returns (uint256)... */\n    tag_41:\n        /* \"PerpContract/Main.sol\":4293:4300  uint256 */\n      0x00\n        /* \"PerpContract/Main.sol\":4402:4452  bytesToUint(eloFeed.getLatestEloRanking(team).elo) */\n      tag_130\n        /* \"PerpContract/Main.sol\":4414:4421  eloFeed */\n      0x01\n      0x00\n      swap1\n      sload\n      swap1\n      0x0100\n      exp\n      swap1\n      div\n      0xffffffffffffffffffffffffffffffffffffffff\n      and\n        /* \"PerpContract/Main.sol\":4414:4441  eloFeed.getLatestEloRanking */\n      0xffffffffffffffffffffffffffffffffffffffff\n      and\n      0x475f1686\n        /* \"PerpContract/Main.sol\":4442:4446  team */\n      dup5\n        /* \"PerpContract/Main.sol\":4414:4447  eloFeed.getLatestEloRanking(team) */\n      mload(0x40)\n      dup3\n      0xffffffff\n      and\n      0xe0\n      shl\n      dup2\n      mstore\n      0x04\n      add\n      tag_131\n      swap2\n      swap1\n      tag_68\n      jump\t// in\n    tag_131:\n      0x00\n      mload(0x40)\n      dup1\n      dup4\n      sub\n      dup2\n      dup7\n      gas\n      staticcall\n      iszero\n      dup1\n      iszero\n      tag_133\n      jumpi\n      returndatasize\n      0x00\n      dup1\n      returndatacopy\n      revert(0x00, returndatasize)\n    tag_133:\n      pop\n      pop\n      pop\n      pop\n      mload(0x40)\n      returndatasize\n      0x00\n      dup3\n      returndatacopy\n      returndatasize\n      not(0x1f)\n      0x1f\n      dup3\n      add\n      and\n      dup3\n      add\n      dup1\n      0x40\n      mstore\n      pop\n      dup2\n      add\n      swap1\n      tag_134\n      swap2\n      swap1\n      tag_135\n      jump\t// in\n    tag_134:\n        /* \"PerpContract/Main.sol\":4414:4451  eloFeed.getLatestEloRanking(team).elo */\n      0x00\n      add\n      mload\n        /* \"PerpContract/Main.sol\":4402:4413  bytesToUint */\n      tag_34\n        /* \"PerpContract/Main.sol\":4402:4452  bytesToUint(eloFeed.getLatestEloRanking(team).elo) */\n      jump\t// in\n    tag_130:\n        /* \"PerpContract/Main.sol\":4395:4452  return bytesToUint(eloFeed.getLatestEloRanking(team).elo) */\n      swap1\n      pop\n        /* \"PerpContract/Main.sol\":4229:4459  function getEloRanking(string memory team) public view returns (uint256)... */\n      swap2\n      swap1\n      pop\n      jump\t// out\n        /* \"PerpContract/Main.sol\":4064:4161  function getBalance() public view returns (uint256) {... */\n    tag_45:\n        /* \"PerpContract/Main.sol\":4107:4114  uint256 */\n      0x00\n        /* \"PerpContract/Main.sol\":4133:4154  address(this).balance */\n      selfbalance\n        /* \"PerpContract/Main.sol\":4126:4154  return address(this).balance */\n      swap1\n      pop\n        /* \"PerpContract/Main.sol\":4064:4161  function getBalance() public view returns (uint256) {... */\n      swap1\n      jump\t// out\n        /* \"PerpContract/Main.sol\":4527:4676  function getEloRankingAsByte(string memory team) public view returns (bytes memory)... */\n    tag_50:\n        /* \"PerpContract/Main.sol\":4597:4609  bytes memory */\n      0x60\n        /* \"PerpContract/Main.sol\":4632:4639  eloFeed */\n      0x01\n      0x00\n      swap1\n      sload\n      swap1\n      0x0100\n      exp\n      swap1\n      div\n      0xffffffffffffffffffffffffffffffffffffffff\n      and\n        /* \"PerpContract/Main.sol\":4632:4659  eloFeed.getLatestEloRanking */\n      0xffffffffffffffffffffffffffffffffffffffff\n      and\n      0x475f1686\n        /* \"PerpContract/Main.sol\":4660:4664  team */\n      dup4\n        /* \"PerpContract/Main.sol\":4632:4665  eloFeed.getLatestEloRanking(team) */\n      mload(0x40)\n      dup3\n      0xffffffff\n      and\n      0xe0\n      shl\n      dup2\n      mstore\n      0x04\n      add\n      tag_138\n      swap2\n      swap1\n      tag_68\n      jump\t// in\n    tag_138:\n      0x00\n      mload(0x40)\n      dup1\n      dup4\n      sub\n      dup2\n      dup7\n      gas\n      staticcall\n      iszero\n      dup1\n      iszero\n      tag_140\n      jumpi\n      returndatasize\n      0x00\n      dup1\n      returndatacopy\n      revert(0x00, returndatasize)\n    tag_140:\n      pop\n      pop\n      pop\n      pop\n      mload(0x40)\n      returndatasize\n      0x00\n      dup3\n      returndatacopy\n      returndatasize\n      not(0x1f)\n      0x1f\n      dup3\n      add\n      and\n      dup3\n      add\n      dup1\n      0x40\n      mstore\n      pop\n      dup2\n      add\n      swap1\n      tag_141\n      swap2\n      swap1\n      tag_135\n      jump\t// in\n    tag_141:\n        /* \"PerpContract/Main.sol\":4632:4669  eloFeed.getLatestEloRanking(team).elo */\n      0x00\n      add\n      mload\n        /* \"PerpContract/Main.sol\":4625:4669  return eloFeed.getLatestEloRanking(team).elo */\n      swap1\n      pop\n        /* \"PerpContract/Main.sol\":4527:4676  function getEloRankingAsByte(string memory team) public view returns (bytes memory)... */\n      swap2\n      swap1\n      pop\n      jump\t// out\n        /* \"PerpContract/Main.sol\":5306:5401  function addTeamName(string memory _teamName) public {... */\n    tag_56:\n        /* \"PerpContract/Main.sol\":5369:5378  teamNames */\n      0x07\n        /* \"PerpContract/Main.sol\":5384:5393  _teamName */\n      dup2\n        /* \"PerpContract/Main.sol\":5369:5394  teamNames.push(_teamName) */\n      swap1\n      dup1\n      0x01\n      dup2\n      sload\n      add\n      dup1\n      dup3\n      sstore\n      dup1\n      swap2\n      pop\n      pop\n      0x01\n      swap1\n      sub\n      swap1\n      0x00\n      mstore\n      keccak256(0x00, 0x20)\n      add\n      0x00\n      swap1\n      swap2\n      swap1\n      swap2\n      swap1\n      swap2\n      pop\n      swap1\n      dup2\n      tag_144\n      swap2\n      swap1\n      tag_145\n      jump\t// in\n    tag_144:\n      pop\n        /* \"PerpContract/Main.sol\":5306:5401  function addTeamName(string memory _teamName) public {... */\n      pop\n      jump\t// out\n        /* \"PerpContract/Main.sol\":5148:5253  function getRanking(string memory club) public view returns (uint) {... */\n    tag_60:\n        /* \"PerpContract/Main.sol\":5209:5213  uint */\n      0x00\n        /* \"PerpContract/Main.sol\":5232:5240  rankings */\n      0x05\n        /* \"PerpContract/Main.sol\":5241:5245  club */\n      dup3\n        /* \"PerpContract/Main.sol\":5232:5246  rankings[club] */\n      mload(0x40)\n      tag_147\n      swap2\n      swap1\n      tag_148\n      jump\t// in\n    tag_147:\n      swap1\n      dup2\n      mstore\n      0x20\n      add\n      mload(0x40)\n      dup1\n      swap2\n      sub\n      swap1\n      keccak256\n      sload\n        /* \"PerpContract/Main.sol\":5225:5246  return rankings[club] */\n      swap1\n      pop\n        /* \"PerpContract/Main.sol\":5148:5253  function getRanking(string memory club) public view returns (uint) {... */\n      swap2\n      swap1\n      pop\n      jump\t// out\n        /* \"PerpContract/Main.sol\":1047:1072  string[] public teamNames */\n    tag_66:\n      0x07\n      dup2\n      dup2\n      sload\n      dup2\n      lt\n      tag_149\n      jumpi\n      0x00\n      dup1\n      revert\n    tag_149:\n      swap1\n      0x00\n      mstore\n      keccak256(0x00, 0x20)\n      add\n      0x00\n      swap2\n      pop\n      swap1\n      pop\n      dup1\n      sload\n      tag_151\n      swap1\n      tag_152\n      jump\t// in\n    tag_151:\n      dup1\n      0x1f\n      add\n      0x20\n      dup1\n      swap2\n      div\n      mul\n      0x20\n      add\n      mload(0x40)\n      swap1\n      dup2\n      add\n      0x40\n      mstore\n      dup1\n      swap3\n      swap2\n      swap1\n      dup2\n      dup2\n      mstore\n      0x20\n      add\n      dup3\n      dup1\n      sload\n      tag_153\n      swap1\n      tag_152\n      jump\t// in\n    tag_153:\n      dup1\n      iszero\n      tag_154\n      jumpi\n      dup1\n      0x1f\n      lt\n      tag_155\n      jumpi\n      0x0100\n      dup1\n      dup4\n      sload\n      div\n      mul\n      dup4\n      mstore\n      swap2\n      0x20\n      add\n      swap2\n      jump(tag_154)\n    tag_155:\n      dup3\n      add\n      swap2\n      swap1\n      0x00\n      mstore\n      keccak256(0x00, 0x20)\n      swap1\n    tag_156:\n      dup2\n      sload\n      dup2\n      mstore\n      swap1\n      0x01\n      add\n      swap1\n      0x20\n      add\n      dup1\n      dup4\n      gt\n      tag_156\n      jumpi\n      dup3\n      swap1\n      sub\n      0x1f\n      and\n      dup3\n      add\n      swap2\n    tag_154:\n      pop\n      pop\n      pop\n      pop\n      pop\n      dup2\n      jump\t// out\n        /* \"@openzeppelin/contracts/access/Ownable.sol\":2293:2394  function renounceOwnership() public virtual onlyOwner {... */\n    tag_71:\n        /* \"@openzeppelin/contracts/access/Ownable.sol\":1531:1544  _checkOwner() */\n      tag_158\n        /* \"@openzeppelin/contracts/access/Ownable.sol\":1531:1542  _checkOwner */\n      tag_159\n        /* \"@openzeppelin/contracts/access/Ownable.sol\":1531:1544  _checkOwner() */\n      jump\t// in\n    tag_158:\n        /* \"@openzeppelin/contracts/access/Ownable.sol\":2357:2387  _transferOwnership(address(0)) */\n      tag_161\n        /* \"@openzeppelin/contracts/access/Ownable.sol\":2384:2385  0 */\n      0x00\n        /* \"@openzeppelin/contracts/access/Ownable.sol\":2357:2375  _transferOwnership */\n      tag_162\n        /* \"@openzeppelin/contracts/access/Ownable.sol\":2357:2387  _transferOwnership(address(0)) */\n      jump\t// in\n    tag_161:\n        /* \"@openzeppelin/contracts/access/Ownable.sol\":2293:2394  function renounceOwnership() public virtual onlyOwner {... */\n      jump\t// out\n        /* \"PerpContract/Main.sol\":3678:4057  function findTotalVal() public view returns (uint256) {... */\n    tag_74:\n        /* \"PerpContract/Main.sol\":3723:3730  uint256 */\n      0x00\n        /* \"PerpContract/Main.sol\":3742:3758  uint256 totalVal */\n      dup1\n        /* \"PerpContract/Main.sol\":3761:3762  0 */\n      0x00\n        /* \"PerpContract/Main.sol\":3742:3762  uint256 totalVal = 0 */\n      swap1\n      pop\n        /* \"PerpContract/Main.sol\":3777:3783  uint i */\n      0x00\n        /* \"PerpContract/Main.sol\":3772:4024  for (uint i = 0; i < teamNames.length; i++) {... */\n    tag_164:\n        /* \"PerpContract/Main.sol\":3793:3802  teamNames */\n      0x07\n        /* \"PerpContract/Main.sol\":3793:3809  teamNames.length */\n      dup1\n      sload\n      swap1\n      pop\n        /* \"PerpContract/Main.sol\":3789:3790  i */\n      dup2\n        /* \"PerpContract/Main.sol\":3789:3809  i < teamNames.length */\n      lt\n        /* \"PerpContract/Main.sol\":3772:4024  for (uint i = 0; i < teamNames.length; i++) {... */\n      iszero\n      tag_165\n      jumpi\n        /* \"PerpContract/Main.sol\":3830:3848  string memory team */\n      0x00\n        /* \"PerpContract/Main.sol\":3851:3860  teamNames */\n      0x07\n        /* \"PerpContract/Main.sol\":3861:3862  i */\n      dup3\n        /* \"PerpContract/Main.sol\":3851:3863  teamNames[i] */\n      dup2\n      sload\n      dup2\n      lt\n      tag_167\n      jumpi\n      tag_168\n      tag_169\n      jump\t// in\n    tag_168:\n    tag_167:\n      swap1\n      0x00\n      mstore\n      keccak256(0x00, 0x20)\n      add\n        /* \"PerpContract/Main.sol\":3830:3863  string memory team = teamNames[i] */\n      dup1\n      sload\n      tag_171\n      swap1\n      tag_152\n      jump\t// in\n    tag_171:\n      dup1\n      0x1f\n      add\n      0x20\n      dup1\n      swap2\n      div\n      mul\n      0x20\n      add\n      mload(0x40)\n      swap1\n      dup2\n      add\n      0x40\n      mstore\n      dup1\n      swap3\n      swap2\n      swap1\n      dup2\n      dup2\n      mstore\n      0x20\n      add\n      dup3\n      dup1\n      sload\n      tag_172\n      swap1\n      tag_152\n      jump\t// in\n    tag_172:\n      dup1\n      iszero\n      tag_173\n      jumpi\n      dup1\n      0x1f\n      lt\n      tag_174\n      jumpi\n      0x0100\n      dup1\n      dup4\n      sload\n      div\n      mul\n      dup4\n      mstore\n      swap2\n      0x20\n      add\n      swap2\n      jump(tag_173)\n    tag_174:\n      dup3\n      add\n      swap2\n      swap1\n      0x00\n      mstore\n      keccak256(0x00, 0x20)\n      swap1\n    tag_175:\n      dup2\n      sload\n      dup2\n      mstore\n      swap1\n      0x01\n      add\n      swap1\n      0x20\n      add\n      dup1\n      dup4\n      gt\n      tag_175\n      jumpi\n      dup3\n      swap1\n      sub\n      0x1f\n      and\n      dup3\n      add\n      swap2\n    tag_173:\n      pop\n      pop\n      pop\n      pop\n      pop\n      swap1\n      pop\n        /* \"PerpContract/Main.sol\":3877:3891  uint256 eloVal */\n      0x00\n        /* \"PerpContract/Main.sol\":3894:3913  getEloRanking(team) */\n      tag_176\n        /* \"PerpContract/Main.sol\":3908:3912  team */\n      dup3\n        /* \"PerpContract/Main.sol\":3894:3907  getEloRanking */\n      tag_41\n        /* \"PerpContract/Main.sol\":3894:3913  getEloRanking(team) */\n      jump\t// in\n    tag_176:\n        /* \"PerpContract/Main.sol\":3877:3913  uint256 eloVal = getEloRanking(team) */\n      swap1\n      pop\n        /* \"PerpContract/Main.sol\":4007:4013  eloVal */\n      dup1\n        /* \"PerpContract/Main.sol\":3986:4000  quantitiesLive */\n      0x06\n        /* \"PerpContract/Main.sol\":4001:4005  team */\n      dup4\n        /* \"PerpContract/Main.sol\":3986:4006  quantitiesLive[team] */\n      mload(0x40)\n      tag_177\n      swap2\n      swap1\n      tag_148\n      jump\t// in\n    tag_177:\n      swap1\n      dup2\n      mstore\n      0x20\n      add\n      mload(0x40)\n      dup1\n      swap2\n      sub\n      swap1\n      keccak256\n      sload\n        /* \"PerpContract/Main.sol\":3986:4013  quantitiesLive[team]*eloVal */\n      tag_178\n      swap2\n      swap1\n      tag_179\n      jump\t// in\n    tag_178:\n        /* \"PerpContract/Main.sol\":3974:4013  totalVal += quantitiesLive[team]*eloVal */\n      dup5\n      tag_180\n      swap2\n      swap1\n      tag_181\n      jump\t// in\n    tag_180:\n      swap4\n      pop\n        /* \"PerpContract/Main.sol\":3816:4024  {... */\n      pop\n      pop\n        /* \"PerpContract/Main.sol\":3811:3814  i++ */\n      dup1\n      dup1\n      0x01\n      add\n      swap2\n      pop\n      pop\n        /* \"PerpContract/Main.sol\":3772:4024  for (uint i = 0; i < teamNames.length; i++) {... */\n      jump(tag_164)\n    tag_165:\n      pop\n        /* \"PerpContract/Main.sol\":4041:4049  totalVal */\n      dup1\n        /* \"PerpContract/Main.sol\":4034:4049  return totalVal */\n      swap2\n      pop\n      pop\n        /* \"PerpContract/Main.sol\":3678:4057  function findTotalVal() public view returns (uint256) {... */\n      swap1\n      jump\t// out\n        /* \"@openzeppelin/contracts/access/Ownable.sol\":1638:1723  function owner() public view virtual returns (address) {... */\n    tag_78:\n        /* \"@openzeppelin/contracts/access/Ownable.sol\":1684:1691  address */\n      0x00\n        /* \"@openzeppelin/contracts/access/Ownable.sol\":1710:1716  _owner */\n      dup1\n      0x00\n      swap1\n      sload\n      swap1\n      0x0100\n      exp\n      swap1\n      div\n      0xffffffffffffffffffffffffffffffffffffffff\n      and\n        /* \"@openzeppelin/contracts/access/Ownable.sol\":1703:1716  return _owner */\n      swap1\n      pop\n        /* \"@openzeppelin/contracts/access/Ownable.sol\":1638:1723  function owner() public view virtual returns (address) {... */\n      swap1\n      jump\t// out\n        /* \"PerpContract/Main.sol\":1597:2383  function openContract(string memory _team) public payable {... */\n    tag_83:\n        /* \"PerpContract/Main.sol\":1685:1686  0 */\n      0x00\n        /* \"PerpContract/Main.sol\":1673:1682  msg.value */\n      callvalue\n        /* \"PerpContract/Main.sol\":1673:1686  msg.value > 0 */\n      gt\n        /* \"PerpContract/Main.sol\":1665:1722  require(msg.value > 0, \"Value must be greater than zero\") */\n      tag_184\n      jumpi\n      mload(0x40)\n      0x08c379a000000000000000000000000000000000000000000000000000000000\n      dup2\n      mstore\n      0x04\n      add\n      tag_185\n      swap1\n      tag_186\n      jump\t// in\n    tag_185:\n      mload(0x40)\n      dup1\n      swap2\n      sub\n      swap1\n      revert\n    tag_184:\n        /* \"PerpContract/Main.sol\":1733:1751  uint256 contractId */\n      0x00\n        /* \"PerpContract/Main.sol\":1782:1783  1 */\n      0x01\n        /* \"PerpContract/Main.sol\":1754:1767  contractCount */\n      0x04\n        /* \"PerpContract/Main.sol\":1754:1779  contractCount[msg.sender] */\n      0x00\n        /* \"PerpContract/Main.sol\":1768:1778  msg.sender */\n      caller\n        /* \"PerpContract/Main.sol\":1754:1779  contractCount[msg.sender] */\n      0xffffffffffffffffffffffffffffffffffffffff\n      and\n      0xffffffffffffffffffffffffffffffffffffffff\n      and\n      dup2\n      mstore\n      0x20\n      add\n      swap1\n      dup2\n      mstore\n      0x20\n      add\n      0x00\n      keccak256\n      sload\n        /* \"PerpContract/Main.sol\":1754:1783  contractCount[msg.sender] + 1 */\n      tag_187\n      swap2\n      swap1\n      tag_181\n      jump\t// in\n    tag_187:\n        /* \"PerpContract/Main.sol\":1733:1783  uint256 contractId = contractCount[msg.sender] + 1 */\n      swap1\n      pop\n        /* \"PerpContract/Main.sol\":1793:1804  uint256 elo */\n      0x00\n        /* \"PerpContract/Main.sol\":1807:1827  getEloRanking(_team) */\n      tag_188\n        /* \"PerpContract/Main.sol\":1821:1826  _team */\n      dup4\n        /* \"PerpContract/Main.sol\":1807:1820  getEloRanking */\n      tag_41\n        /* \"PerpContract/Main.sol\":1807:1827  getEloRanking(_team) */\n      jump\t// in\n    tag_188:\n        /* \"PerpContract/Main.sol\":1793:1827  uint256 elo = getEloRanking(_team) */\n      swap1\n      pop\n        /* \"PerpContract/Main.sol\":1892:1893  0 */\n      0x00\n        /* \"PerpContract/Main.sol\":1886:1889  elo */\n      dup2\n        /* \"PerpContract/Main.sol\":1886:1893  elo > 0 */\n      gt\n        /* \"PerpContract/Main.sol\":1878:1917  require(elo > 0, \"Team does not exist\") */\n      tag_189\n      jumpi\n      mload(0x40)\n      0x08c379a000000000000000000000000000000000000000000000000000000000\n      dup2\n      mstore\n      0x04\n      add\n      tag_190\n      swap1\n      tag_191\n      jump\t// in\n    tag_190:\n      mload(0x40)\n      dup1\n      swap2\n      sub\n      swap1\n      revert\n    tag_189:\n        /* \"PerpContract/Main.sol\":1928:1946  uint256 perpAmount */\n      0x00\n        /* \"PerpContract/Main.sol\":1961:1964  elo */\n      dup2\n        /* \"PerpContract/Main.sol\":1949:1958  msg.value */\n      callvalue\n        /* \"PerpContract/Main.sol\":1949:1964  msg.value / elo */\n      tag_192\n      swap2\n      swap1\n      tag_193\n      jump\t// in\n    tag_192:\n        /* \"PerpContract/Main.sol\":1928:1964  uint256 perpAmount = msg.value / elo */\n      swap1\n      pop\n        /* \"PerpContract/Main.sol\":2018:2050  PerpContract storage newContract */\n      0x00\n        /* \"PerpContract/Main.sol\":2053:2062  contracts */\n      0x03\n        /* \"PerpContract/Main.sol\":2053:2074  contracts[msg.sender] */\n      0x00\n        /* \"PerpContract/Main.sol\":2063:2073  msg.sender */\n      caller\n        /* \"PerpContract/Main.sol\":2053:2074  contracts[msg.sender] */\n      0xffffffffffffffffffffffffffffffffffffffff\n      and\n      0xffffffffffffffffffffffffffffffffffffffff\n      and\n      dup2\n      mstore\n      0x20\n      add\n      swap1\n      dup2\n      mstore\n      0x20\n      add\n      0x00\n      keccak256\n        /* \"PerpContract/Main.sol\":2053:2086  contracts[msg.sender][contractId] */\n      0x00\n        /* \"PerpContract/Main.sol\":2075:2085  contractId */\n      dup6\n        /* \"PerpContract/Main.sol\":2053:2086  contracts[msg.sender][contractId] */\n      dup2\n      mstore\n      0x20\n      add\n      swap1\n      dup2\n      mstore\n      0x20\n      add\n      0x00\n      keccak256\n        /* \"PerpContract/Main.sol\":2018:2086  PerpContract storage newContract = contracts[msg.sender][contractId] */\n      swap1\n      pop\n        /* \"PerpContract/Main.sol\":2120:2130  msg.sender */\n      caller\n        /* \"PerpContract/Main.sol\":2096:2107  newContract */\n      dup2\n        /* \"PerpContract/Main.sol\":2096:2117  newContract.longParty */\n      0x00\n      add\n      0x00\n        /* \"PerpContract/Main.sol\":2096:2130  newContract.longParty = msg.sender */\n      0x0100\n      exp\n      dup2\n      sload\n      dup2\n      0xffffffffffffffffffffffffffffffffffffffff\n      mul\n      not\n      and\n      swap1\n      dup4\n      0xffffffffffffffffffffffffffffffffffffffff\n      and\n      mul\n      or\n      swap1\n      sstore\n      pop\n        /* \"PerpContract/Main.sol\":2159:2164  _team */\n      dup5\n        /* \"PerpContract/Main.sol\":2140:2151  newContract */\n      dup2\n        /* \"PerpContract/Main.sol\":2140:2156  newContract.team */\n      0x04\n      add\n        /* \"PerpContract/Main.sol\":2140:2164  newContract.team = _team */\n      swap1\n      dup2\n      tag_194\n      swap2\n      swap1\n      tag_145\n      jump\t// in\n    tag_194:\n      pop\n        /* \"PerpContract/Main.sol\":2197:2207  perpAmount */\n      dup2\n        /* \"PerpContract/Main.sol\":2174:2185  newContract */\n      dup2\n        /* \"PerpContract/Main.sol\":2174:2194  newContract.quantity */\n      0x01\n      add\n        /* \"PerpContract/Main.sol\":2174:2207  newContract.quantity = perpAmount */\n      dup2\n      swap1\n      sstore\n      pop\n        /* \"PerpContract/Main.sol\":2242:2245  elo */\n      dup3\n        /* \"PerpContract/Main.sol\":2217:2228  newContract */\n      dup2\n        /* \"PerpContract/Main.sol\":2217:2239  newContract.initialElo */\n      0x05\n      add\n        /* \"PerpContract/Main.sol\":2217:2245  newContract.initialElo = elo */\n      dup2\n      swap1\n      sstore\n      pop\n        /* \"PerpContract/Main.sol\":2276:2280  true */\n      0x01\n        /* \"PerpContract/Main.sol\":2255:2266  newContract */\n      dup2\n        /* \"PerpContract/Main.sol\":2255:2273  newContract.isOpen */\n      0x03\n      add\n      0x00\n        /* \"PerpContract/Main.sol\":2255:2280  newContract.isOpen = true */\n      0x0100\n      exp\n      dup2\n      sload\n      dup2\n      0xff\n      mul\n      not\n      and\n      swap1\n      dup4\n      iszero\n      iszero\n      mul\n      or\n      swap1\n      sstore\n      pop\n        /* \"PerpContract/Main.sol\":2316:2327  newContract */\n      dup1\n        /* \"PerpContract/Main.sol\":2316:2336  newContract.quantity */\n      0x01\n      add\n      sload\n        /* \"PerpContract/Main.sol\":2291:2305  quantitiesLive */\n      0x06\n        /* \"PerpContract/Main.sol\":2306:2311  _team */\n      dup7\n        /* \"PerpContract/Main.sol\":2291:2312  quantitiesLive[_team] */\n      mload(0x40)\n      tag_195\n      swap2\n      swap1\n      tag_148\n      jump\t// in\n    tag_195:\n      swap1\n      dup2\n      mstore\n      0x20\n      add\n      mload(0x40)\n      dup1\n      swap2\n      sub\n      swap1\n      keccak256\n      0x00\n        /* \"PerpContract/Main.sol\":2291:2336  quantitiesLive[_team] += newContract.quantity */\n      dup3\n      dup3\n      sload\n      tag_196\n      swap2\n      swap1\n      tag_181\n      jump\t// in\n    tag_196:\n      swap3\n      pop\n      pop\n      dup2\n      swap1\n      sstore\n      pop\n        /* \"PerpContract/Main.sol\":2375:2376  1 */\n      0x01\n        /* \"PerpContract/Main.sol\":2346:2359  contractCount */\n      0x04\n        /* \"PerpContract/Main.sol\":2346:2371  contractCount[msg.sender] */\n      0x00\n        /* \"PerpContract/Main.sol\":2360:2370  msg.sender */\n      caller\n        /* \"PerpContract/Main.sol\":2346:2371  contractCount[msg.sender] */\n      0xffffffffffffffffffffffffffffffffffffffff\n      and\n      0xffffffffffffffffffffffffffffffffffffffff\n      and\n      dup2\n      mstore\n      0x20\n      add\n      swap1\n      dup2\n      mstore\n      0x20\n      add\n      0x00\n      keccak256\n      0x00\n        /* \"PerpContract/Main.sol\":2346:2376  contractCount[msg.sender] += 1 */\n      dup3\n      dup3\n      sload\n      tag_197\n      swap2\n      swap1\n      tag_181\n      jump\t// in\n    tag_197:\n      swap3\n      pop\n      pop\n      dup2\n      swap1\n      sstore\n      pop\n        /* \"PerpContract/Main.sol\":1655:2383  {... */\n      pop\n      pop\n      pop\n      pop\n        /* \"PerpContract/Main.sol\":1597:2383  function openContract(string memory _team) public payable {... */\n      pop\n      jump\t// out\n        /* \"PerpContract/Main.sol\":3109:3671  function calcPayout(uint256 _contractId) public view returns (uint256) {... */\n    tag_87:\n        /* \"PerpContract/Main.sol\":3171:3178  uint256 */\n      0x00\n        /* \"PerpContract/Main.sol\":3190:3227  PerpContract storage existingContract */\n      dup1\n        /* \"PerpContract/Main.sol\":3230:3239  contracts */\n      0x03\n        /* \"PerpContract/Main.sol\":3230:3251  contracts[msg.sender] */\n      0x00\n        /* \"PerpContract/Main.sol\":3240:3250  msg.sender */\n      caller\n        /* \"PerpContract/Main.sol\":3230:3251  contracts[msg.sender] */\n      0xffffffffffffffffffffffffffffffffffffffff\n      and\n      0xffffffffffffffffffffffffffffffffffffffff\n      and\n      dup2\n      mstore\n      0x20\n      add\n      swap1\n      dup2\n      mstore\n      0x20\n      add\n      0x00\n      keccak256\n        /* \"PerpContract/Main.sol\":3230:3264  contracts[msg.sender][_contractId] */\n      0x00\n        /* \"PerpContract/Main.sol\":3252:3263  _contractId */\n      dup5\n        /* \"PerpContract/Main.sol\":3230:3264  contracts[msg.sender][_contractId] */\n      dup2\n      mstore\n      0x20\n      add\n      swap1\n      dup2\n      mstore\n      0x20\n      add\n      0x00\n      keccak256\n        /* \"PerpContract/Main.sol\":3190:3264  PerpContract storage existingContract = contracts[msg.sender][_contractId] */\n      swap1\n      pop\n        /* \"PerpContract/Main.sol\":3274:3292  string memory team */\n      0x00\n        /* \"PerpContract/Main.sol\":3295:3311  existingContract */\n      dup2\n        /* \"PerpContract/Main.sol\":3295:3316  existingContract.team */\n      0x04\n      add\n        /* \"PerpContract/Main.sol\":3274:3316  string memory team = existingContract.team */\n      dup1\n      sload\n      tag_199\n      swap1\n      tag_152\n      jump\t// in\n    tag_199:\n      dup1\n      0x1f\n      add\n      0x20\n      dup1\n      swap2\n      div\n      mul\n      0x20\n      add\n      mload(0x40)\n      swap1\n      dup2\n      add\n      0x40\n      mstore\n      dup1\n      swap3\n      swap2\n      swap1\n      dup2\n      dup2\n      mstore\n      0x20\n      add\n      dup3\n      dup1\n      sload\n      tag_200\n      swap1\n      tag_152\n      jump\t// in\n    tag_200:\n      dup1\n      iszero\n      tag_201\n      jumpi\n      dup1\n      0x1f\n      lt\n      tag_202\n      jumpi\n      0x0100\n      dup1\n      dup4\n      sload\n      div\n      mul\n      dup4\n      mstore\n      swap2\n      0x20\n      add\n      swap2\n      jump(tag_201)\n    tag_202:\n      dup3\n      add\n      swap2\n      swap1\n      0x00\n      mstore\n      keccak256(0x00, 0x20)\n      swap1\n    tag_203:\n      dup2\n      sload\n      dup2\n      mstore\n      swap1\n      0x01\n      add\n      swap1\n      0x20\n      add\n      dup1\n      dup4\n      gt\n      tag_203\n      jumpi\n      dup3\n      swap1\n      sub\n      0x1f\n      and\n      dup3\n      add\n      swap2\n    tag_201:\n      pop\n      pop\n      pop\n      pop\n      pop\n      swap1\n      pop\n        /* \"PerpContract/Main.sol\":3326:3340  uint256 eloVal */\n      0x00\n        /* \"PerpContract/Main.sol\":3343:3362  getEloRanking(team) */\n      tag_204\n        /* \"PerpContract/Main.sol\":3357:3361  team */\n      dup3\n        /* \"PerpContract/Main.sol\":3343:3356  getEloRanking */\n      tag_41\n        /* \"PerpContract/Main.sol\":3343:3362  getEloRanking(team) */\n      jump\t// in\n    tag_204:\n        /* \"PerpContract/Main.sol\":3326:3362  uint256 eloVal = getEloRanking(team) */\n      swap1\n      pop\n        /* \"PerpContract/Main.sol\":3416:3431  uint256 balance */\n      0x00\n        /* \"PerpContract/Main.sol\":3434:3446  getBalance() */\n      tag_205\n        /* \"PerpContract/Main.sol\":3434:3444  getBalance */\n      tag_45\n        /* \"PerpContract/Main.sol\":3434:3446  getBalance() */\n      jump\t// in\n    tag_205:\n        /* \"PerpContract/Main.sol\":3416:3446  uint256 balance = getBalance() */\n      swap1\n      pop\n        /* \"PerpContract/Main.sol\":3456:3472  uint256 totalVal */\n      0x00\n        /* \"PerpContract/Main.sol\":3475:3489  findTotalVal() */\n      tag_206\n        /* \"PerpContract/Main.sol\":3475:3487  findTotalVal */\n      tag_74\n        /* \"PerpContract/Main.sol\":3475:3489  findTotalVal() */\n      jump\t// in\n    tag_206:\n        /* \"PerpContract/Main.sol\":3456:3489  uint256 totalVal = findTotalVal() */\n      swap1\n      pop\n        /* \"PerpContract/Main.sol\":3570:3584  uint256 payout */\n      0x00\n        /* \"PerpContract/Main.sol\":3632:3640  totalVal */\n      dup2\n        /* \"PerpContract/Main.sol\":3623:3630  balance */\n      dup4\n        /* \"PerpContract/Main.sol\":3616:3622  eloVal */\n      dup6\n        /* \"PerpContract/Main.sol\":3588:3604  existingContract */\n      dup9\n        /* \"PerpContract/Main.sol\":3588:3613  existingContract.quantity */\n      0x01\n      add\n      sload\n        /* \"PerpContract/Main.sol\":3588:3622  existingContract.quantity * eloVal */\n      tag_207\n      swap2\n      swap1\n      tag_179\n      jump\t// in\n    tag_207:\n        /* \"PerpContract/Main.sol\":3588:3630  existingContract.quantity * eloVal*balance */\n      tag_208\n      swap2\n      swap1\n      tag_179\n      jump\t// in\n    tag_208:\n        /* \"PerpContract/Main.sol\":3587:3640  (existingContract.quantity * eloVal*balance)/totalVal */\n      tag_209\n      swap2\n      swap1\n      tag_193\n      jump\t// in\n    tag_209:\n        /* \"PerpContract/Main.sol\":3570:3640  uint256 payout = (existingContract.quantity * eloVal*balance)/totalVal */\n      swap1\n      pop\n        /* \"PerpContract/Main.sol\":3657:3663  payout */\n      dup1\n        /* \"PerpContract/Main.sol\":3650:3663  return payout */\n      swap7\n      pop\n      pop\n      pop\n      pop\n      pop\n      pop\n      pop\n        /* \"PerpContract/Main.sol\":3109:3671  function calcPayout(uint256 _contractId) public view returns (uint256) {... */\n      swap2\n      swap1\n      pop\n      jump\t// out\n        /* \"PerpContract/Main.sol\":855:903  mapping(address => uint256) public contractCount */\n    tag_93:\n      mstore(0x20, 0x04)\n      dup1\n      0x00\n      mstore\n      keccak256(0x00, 0x40)\n      0x00\n      swap2\n      pop\n      swap1\n      pop\n      sload\n      dup2\n      jump\t// out\n        /* \"PerpContract/Main.sol\":4995:5097  function setRanking(string memory club, uint ranking) public {... */\n    tag_99:\n        /* \"PerpContract/Main.sol\":5083:5090  ranking */\n      dup1\n        /* \"PerpContract/Main.sol\":5066:5074  rankings */\n      0x05\n        /* \"PerpContract/Main.sol\":5075:5079  club */\n      dup4\n        /* \"PerpContract/Main.sol\":5066:5080  rankings[club] */\n      mload(0x40)\n      tag_211\n      swap2\n      swap1\n      tag_148\n      jump\t// in\n    tag_211:\n      swap1\n      dup2\n      mstore\n      0x20\n      add\n      mload(0x40)\n      dup1\n      swap2\n      sub\n      swap1\n      keccak256\n        /* \"PerpContract/Main.sol\":5066:5090  rankings[club] = ranking */\n      dup2\n      swap1\n      sstore\n      pop\n        /* \"PerpContract/Main.sol\":4995:5097  function setRanking(string memory club, uint ranking) public {... */\n      pop\n      pop\n      jump\t// out\n        /* \"PerpContract/Main.sol\":2435:3103  function closeContract(uint256 _contractId) external {... */\n    tag_103:\n        /* \"PerpContract/Main.sol\":2498:2535  PerpContract storage existingContract */\n      0x00\n        /* \"PerpContract/Main.sol\":2538:2547  contracts */\n      0x03\n        /* \"PerpContract/Main.sol\":2538:2559  contracts[msg.sender] */\n      0x00\n        /* \"PerpContract/Main.sol\":2548:2558  msg.sender */\n      caller\n        /* \"PerpContract/Main.sol\":2538:2559  contracts[msg.sender] */\n      0xffffffffffffffffffffffffffffffffffffffff\n      and\n      0xffffffffffffffffffffffffffffffffffffffff\n      and\n      dup2\n      mstore\n      0x20\n      add\n      swap1\n      dup2\n      mstore\n      0x20\n      add\n      0x00\n      keccak256\n        /* \"PerpContract/Main.sol\":2538:2572  contracts[msg.sender][_contractId] */\n      0x00\n        /* \"PerpContract/Main.sol\":2560:2571  _contractId */\n      dup4\n        /* \"PerpContract/Main.sol\":2538:2572  contracts[msg.sender][_contractId] */\n      dup2\n      mstore\n      0x20\n      add\n      swap1\n      dup2\n      mstore\n      0x20\n      add\n      0x00\n      keccak256\n        /* \"PerpContract/Main.sol\":2498:2572  PerpContract storage existingContract = contracts[msg.sender][_contractId] */\n      swap1\n      pop\n        /* \"PerpContract/Main.sol\":2590:2606  existingContract */\n      dup1\n        /* \"PerpContract/Main.sol\":2590:2613  existingContract.isOpen */\n      0x03\n      add\n      0x00\n      swap1\n      sload\n      swap1\n      0x0100\n      exp\n      swap1\n      div\n      0xff\n      and\n        /* \"PerpContract/Main.sol\":2582:2638  require(existingContract.isOpen, \"Contract is not open\") */\n      tag_213\n      jumpi\n      mload(0x40)\n      0x08c379a000000000000000000000000000000000000000000000000000000000\n      dup2\n      mstore\n      0x04\n      add\n      tag_214\n      swap1\n      tag_215\n      jump\t// in\n    tag_214:\n      mload(0x40)\n      dup1\n      swap2\n      sub\n      swap1\n      revert\n    tag_213:\n        /* \"PerpContract/Main.sol\":2699:2709  msg.sender */\n      caller\n        /* \"PerpContract/Main.sol\":2669:2709  existingContract.longParty == msg.sender */\n      0xffffffffffffffffffffffffffffffffffffffff\n      and\n        /* \"PerpContract/Main.sol\":2669:2685  existingContract */\n      dup2\n        /* \"PerpContract/Main.sol\":2669:2695  existingContract.longParty */\n      0x00\n      add\n      0x00\n      swap1\n      sload\n      swap1\n      0x0100\n      exp\n      swap1\n      div\n      0xffffffffffffffffffffffffffffffffffffffff\n      and\n        /* \"PerpContract/Main.sol\":2669:2709  existingContract.longParty == msg.sender */\n      0xffffffffffffffffffffffffffffffffffffffff\n      and\n      eq\n        /* \"PerpContract/Main.sol\":2648:2773  require(... */\n      tag_216\n      jumpi\n      mload(0x40)\n      0x08c379a000000000000000000000000000000000000000000000000000000000\n      dup2\n      mstore\n      0x04\n      add\n      tag_217\n      swap1\n      tag_218\n      jump\t// in\n    tag_217:\n      mload(0x40)\n      dup1\n      swap2\n      sub\n      swap1\n      revert\n    tag_216:\n        /* \"PerpContract/Main.sol\":2784:2802  string memory team */\n      0x00\n        /* \"PerpContract/Main.sol\":2805:2821  existingContract */\n      dup2\n        /* \"PerpContract/Main.sol\":2805:2826  existingContract.team */\n      0x04\n      add\n        /* \"PerpContract/Main.sol\":2784:2826  string memory team = existingContract.team */\n      dup1\n      sload\n      tag_219\n      swap1\n      tag_152\n      jump\t// in\n    tag_219:\n      dup1\n      0x1f\n      add\n      0x20\n      dup1\n      swap2\n      div\n      mul\n      0x20\n      add\n      mload(0x40)\n      swap1\n      dup2\n      add\n      0x40\n      mstore\n      dup1\n      swap3\n      swap2\n      swap1\n      dup2\n      dup2\n      mstore\n      0x20\n      add\n      dup3\n      dup1\n      sload\n      tag_220\n      swap1\n      tag_152\n      jump\t// in\n    tag_220:\n      dup1\n      iszero\n      tag_221\n      jumpi\n      dup1\n      0x1f\n      lt\n      tag_222\n      jumpi\n      0x0100\n      dup1\n      dup4\n      sload\n      div\n      mul\n      dup4\n      mstore\n      swap2\n      0x20\n      add\n      swap2\n      jump(tag_221)\n    tag_222:\n      dup3\n      add\n      swap2\n      swap1\n      0x00\n      mstore\n      keccak256(0x00, 0x20)\n      swap1\n    tag_223:\n      dup2\n      sload\n      dup2\n      mstore\n      swap1\n      0x01\n      add\n      swap1\n      0x20\n      add\n      dup1\n      dup4\n      gt\n      tag_223\n      jumpi\n      dup3\n      swap1\n      sub\n      0x1f\n      and\n      dup3\n      add\n      swap2\n    tag_221:\n      pop\n      pop\n      pop\n      pop\n      pop\n      swap1\n      pop\n        /* \"PerpContract/Main.sol\":2837:2851  uint256 payout */\n      0x00\n        /* \"PerpContract/Main.sol\":2854:2877  calcPayout(_contractId) */\n      tag_224\n        /* \"PerpContract/Main.sol\":2865:2876  _contractId */\n      dup5\n        /* \"PerpContract/Main.sol\":2854:2864  calcPayout */\n      tag_87\n        /* \"PerpContract/Main.sol\":2854:2877  calcPayout(_contractId) */\n      jump\t// in\n    tag_224:\n        /* \"PerpContract/Main.sol\":2837:2877  uint256 payout = calcPayout(_contractId) */\n      swap1\n      pop\n        /* \"PerpContract/Main.sol\":2937:2947  msg.sender */\n      caller\n        /* \"PerpContract/Main.sol\":2929:2957  payable(msg.sender).transfer */\n      0xffffffffffffffffffffffffffffffffffffffff\n      and\n        /* \"PerpContract/Main.sol\":2929:2965  payable(msg.sender).transfer(payout) */\n      0x08fc\n        /* \"PerpContract/Main.sol\":2958:2964  payout */\n      dup3\n        /* \"PerpContract/Main.sol\":2929:2965  payable(msg.sender).transfer(payout) */\n      swap1\n      dup2\n      iszero\n      mul\n      swap1\n      mload(0x40)\n      0x00\n      mload(0x40)\n      dup1\n      dup4\n      sub\n      dup2\n      dup6\n      dup9\n      dup9\n      call\n      swap4\n      pop\n      pop\n      pop\n      pop\n      iszero\n      dup1\n      iszero\n      tag_226\n      jumpi\n      returndatasize\n      0x00\n      dup1\n      returndatacopy\n      revert(0x00, returndatasize)\n    tag_226:\n      pop\n        /* \"PerpContract/Main.sol\":3031:3036  false */\n      0x00\n        /* \"PerpContract/Main.sol\":3005:3021  existingContract */\n      dup4\n        /* \"PerpContract/Main.sol\":3005:3028  existingContract.isOpen */\n      0x03\n      add\n      0x00\n        /* \"PerpContract/Main.sol\":3005:3036  existingContract.isOpen = false */\n      0x0100\n      exp\n      dup2\n      sload\n      dup2\n      0xff\n      mul\n      not\n      and\n      swap1\n      dup4\n      iszero\n      iszero\n      mul\n      or\n      swap1\n      sstore\n      pop\n        /* \"PerpContract/Main.sol\":3070:3086  existingContract */\n      dup3\n        /* \"PerpContract/Main.sol\":3070:3095  existingContract.quantity */\n      0x01\n      add\n      sload\n        /* \"PerpContract/Main.sol\":3046:3060  quantitiesLive */\n      0x06\n        /* \"PerpContract/Main.sol\":3061:3065  team */\n      dup4\n        /* \"PerpContract/Main.sol\":3046:3066  quantitiesLive[team] */\n      mload(0x40)\n      tag_227\n      swap2\n      swap1\n      tag_148\n      jump\t// in\n    tag_227:\n      swap1\n      dup2\n      mstore\n      0x20\n      add\n      mload(0x40)\n      dup1\n      swap2\n      sub\n      swap1\n      keccak256\n      0x00\n        /* \"PerpContract/Main.sol\":3046:3095  quantitiesLive[team] -= existingContract.quantity */\n      dup3\n      dup3\n      sload\n      tag_228\n      swap2\n      swap1\n      tag_229\n      jump\t// in\n    tag_228:\n      swap3\n      pop\n      pop\n      dup2\n      swap1\n      sstore\n      pop\n        /* \"PerpContract/Main.sol\":2488:3103  {... */\n      pop\n      pop\n      pop\n        /* \"PerpContract/Main.sol\":2435:3103  function closeContract(uint256 _contractId) external {... */\n      pop\n      jump\t// out\n        /* \"PerpContract/Main.sol\":993:1041  mapping(string => uint256) public quantitiesLive */\n    tag_107:\n      0x06\n      dup2\n      dup1\n      mload\n      0x20\n      dup2\n      add\n      dup3\n      add\n      dup1\n      mload\n      dup5\n      dup3\n      mstore\n      0x20\n      dup4\n      add\n      0x20\n      dup6\n      add\n      keccak256\n      dup2\n      dup4\n      mstore\n      dup1\n      swap6\n      pop\n      pop\n      pop\n      pop\n      pop\n      pop\n      0x00\n      swap2\n      pop\n      swap1\n      pop\n      sload\n      dup2\n      jump\t// out\n        /* \"PerpContract/Main.sol\":745:814  mapping(address => mapping(uint256 => PerpContract)) public contracts */\n    tag_113:\n      mstore(0x20, 0x03)\n      dup2\n      0x00\n      mstore\n      mstore(0x20, keccak256(0x00, 0x40))\n      dup1\n      0x00\n      mstore\n      keccak256(0x00, 0x40)\n      0x00\n      swap2\n      pop\n      swap2\n      pop\n      pop\n      dup1\n      0x00\n      add\n      0x00\n      swap1\n      sload\n      swap1\n      0x0100\n      exp\n      swap1\n      div\n      0xffffffffffffffffffffffffffffffffffffffff\n      and\n      swap1\n      dup1\n      0x00\n      add\n      0x14\n      swap1\n      sload\n      swap1\n      0x0100\n      exp\n      swap1\n      div\n      0xff\n      and\n      swap1\n      dup1\n      0x01\n      add\n      sload\n      swap1\n      dup1\n      0x02\n      add\n      sload\n      swap1\n      dup1\n      0x03\n      add\n      0x00\n      swap1\n      sload\n      swap1\n      0x0100\n      exp\n      swap1\n      div\n      0xff\n      and\n      swap1\n      dup1\n      0x04\n      add\n      dup1\n      sload\n      tag_230\n      swap1\n      tag_152\n      jump\t// in\n    tag_230:\n      dup1\n      0x1f\n      add\n      0x20\n      dup1\n      swap2\n      div\n      mul\n      0x20\n      add\n      mload(0x40)\n      swap1\n      dup2\n      add\n      0x40\n      mstore\n      dup1\n      swap3\n      swap2\n      swap1\n      dup2\n      dup2\n      mstore\n      0x20\n      add\n      dup3\n      dup1\n      sload\n      tag_231\n      swap1\n      tag_152\n      jump\t// in\n    tag_231:\n      dup1\n      iszero\n      tag_232\n      jumpi\n      dup1\n      0x1f\n      lt\n      tag_233\n      jumpi\n      0x0100\n      dup1\n      dup4\n      sload\n      div\n      mul\n      dup4\n      mstore\n      swap2\n      0x20\n      add\n      swap2\n      jump(tag_232)\n    tag_233:\n      dup3\n      add\n      swap2\n      swap1\n      0x00\n      mstore\n      keccak256(0x00, 0x20)\n      swap1\n    tag_234:\n      dup2\n      sload\n      dup2\n      mstore\n      swap1\n      0x01\n      add\n      swap1\n      0x20\n      add\n      dup1\n      dup4\n      gt\n      tag_234\n      jumpi\n      dup3\n      swap1\n      sub\n      0x1f\n      and\n      dup3\n      add\n      swap2\n    tag_232:\n      pop\n      pop\n      pop\n      pop\n      pop\n      swap1\n      dup1\n      0x05\n      add\n      sload\n      swap1\n      pop\n      dup8\n      jump\t// out\n        /* \"@openzeppelin/contracts/access/Ownable.sol\":2543:2758  function transferOwnership(address newOwner) public virtual onlyOwner {... */\n    tag_119:\n        /* \"@openzeppelin/contracts/access/Ownable.sol\":1531:1544  _checkOwner() */\n      tag_236\n        /* \"@openzeppelin/contracts/access/Ownable.sol\":1531:1542  _checkOwner */\n      tag_159\n        /* \"@openzeppelin/contracts/access/Ownable.sol\":1531:1544  _checkOwner() */\n      jump\t// in\n    tag_236:\n        /* \"@openzeppelin/contracts/access/Ownable.sol\":2647:2648  0 */\n      0x00\n        /* \"@openzeppelin/contracts/access/Ownable.sol\":2627:2649  newOwner == address(0) */\n      0xffffffffffffffffffffffffffffffffffffffff\n      and\n        /* \"@openzeppelin/contracts/access/Ownable.sol\":2627:2635  newOwner */\n      dup2\n        /* \"@openzeppelin/contracts/access/Ownable.sol\":2627:2649  newOwner == address(0) */\n      0xffffffffffffffffffffffffffffffffffffffff\n      and\n      sub\n        /* \"@openzeppelin/contracts/access/Ownable.sol\":2623:2714  if (newOwner == address(0)) {... */\n      tag_238\n      jumpi\n        /* \"@openzeppelin/contracts/access/Ownable.sol\":2700:2701  0 */\n      0x00\n        /* \"@openzeppelin/contracts/access/Ownable.sol\":2672:2703  OwnableInvalidOwner(address(0)) */\n      mload(0x40)\n      0x1e4fbdf700000000000000000000000000000000000000000000000000000000\n      dup2\n      mstore\n      0x04\n      add\n      tag_239\n      swap2\n      swap1\n      tag_80\n      jump\t// in\n    tag_239:\n      mload(0x40)\n      dup1\n      swap2\n      sub\n      swap1\n      revert\n        /* \"@openzeppelin/contracts/access/Ownable.sol\":2623:2714  if (newOwner == address(0)) {... */\n    tag_238:\n        /* \"@openzeppelin/contracts/access/Ownable.sol\":2723:2751  _transferOwnership(newOwner) */\n      tag_240\n        /* \"@openzeppelin/contracts/access/Ownable.sol\":2742:2750  newOwner */\n      dup2\n        /* \"@openzeppelin/contracts/access/Ownable.sol\":2723:2741  _transferOwnership */\n      tag_162\n        /* \"@openzeppelin/contracts/access/Ownable.sol\":2723:2751  _transferOwnership(newOwner) */\n      jump\t// in\n    tag_240:\n        /* \"@openzeppelin/contracts/access/Ownable.sol\":2543:2758  function transferOwnership(address newOwner) public virtual onlyOwner {... */\n      pop\n      jump\t// out\n        /* \"PerpContract/Main.sol\":945:987  mapping(string => uint256) public rankings */\n    tag_123:\n      0x05\n      dup2\n      dup1\n      mload\n      0x20\n      dup2\n      add\n      dup3\n      add\n      dup1\n      mload\n      dup5\n      dup3\n      mstore\n      0x20\n      dup4\n      add\n      0x20\n      dup6\n      add\n      keccak256\n      dup2\n      dup4\n      mstore\n      dup1\n      swap6\n      pop\n      pop\n      pop\n      pop\n      pop\n      pop\n      0x00\n      swap2\n      pop\n      swap1\n      pop\n      sload\n      dup2\n      jump\t// out\n        /* \"@openzeppelin/contracts/access/Ownable.sol\":1796:1958  function _checkOwner() internal view virtual {... */\n    tag_159:\n        /* \"@openzeppelin/contracts/access/Ownable.sol\":1866:1878  _msgSender() */\n      tag_242\n        /* \"@openzeppelin/contracts/access/Ownable.sol\":1866:1876  _msgSender */\n      tag_243\n        /* \"@openzeppelin/contracts/access/Ownable.sol\":1866:1878  _msgSender() */\n      jump\t// in\n    tag_242:\n        /* \"@openzeppelin/contracts/access/Ownable.sol\":1855:1878  owner() != _msgSender() */\n      0xffffffffffffffffffffffffffffffffffffffff\n      and\n        /* \"@openzeppelin/contracts/access/Ownable.sol\":1855:1862  owner() */\n      tag_244\n        /* \"@openzeppelin/contracts/access/Ownable.sol\":1855:1860  owner */\n      tag_78\n        /* \"@openzeppelin/contracts/access/Ownable.sol\":1855:1862  owner() */\n      jump\t// in\n    tag_244:\n        /* \"@openzeppelin/contracts/access/Ownable.sol\":1855:1878  owner() != _msgSender() */\n      0xffffffffffffffffffffffffffffffffffffffff\n      and\n      eq\n        /* \"@openzeppelin/contracts/access/Ownable.sol\":1851:1952  if (owner() != _msgSender()) {... */\n      tag_245\n      jumpi\n        /* \"@openzeppelin/contracts/access/Ownable.sol\":1928:1940  _msgSender() */\n      tag_246\n        /* \"@openzeppelin/contracts/access/Ownable.sol\":1928:1938  _msgSender */\n      tag_243\n        /* \"@openzeppelin/contracts/access/Ownable.sol\":1928:1940  _msgSender() */\n      jump\t// in\n    tag_246:\n        /* \"@openzeppelin/contracts/access/Ownable.sol\":1901:1941  OwnableUnauthorizedAccount(_msgSender()) */\n      mload(0x40)\n      0x118cdaa700000000000000000000000000000000000000000000000000000000\n      dup2\n      mstore\n      0x04\n      add\n      tag_247\n      swap2\n      swap1\n      tag_80\n      jump\t// in\n    tag_247:\n      mload(0x40)\n      dup1\n      swap2\n      sub\n      swap1\n      revert\n        /* \"@openzeppelin/contracts/access/Ownable.sol\":1851:1952  if (owner() != _msgSender()) {... */\n    tag_245:\n        /* \"@openzeppelin/contracts/access/Ownable.sol\":1796:1958  function _checkOwner() internal view virtual {... */\n      jump\t// out\n        /* \"@openzeppelin/contracts/access/Ownable.sol\":2912:3099  function _transferOwnership(address newOwner) internal virtual {... */\n    tag_162:\n        /* \"@openzeppelin/contracts/access/Ownable.sol\":2985:3001  address oldOwner */\n      0x00\n        /* \"@openzeppelin/contracts/access/Ownable.sol\":3004:3010  _owner */\n      dup1\n      0x00\n      swap1\n      sload\n      swap1\n      0x0100\n      exp\n      swap1\n      div\n      0xffffffffffffffffffffffffffffffffffffffff\n      and\n        /* \"@openzeppelin/contracts/access/Ownable.sol\":2985:3010  address oldOwner = _owner */\n      swap1\n      pop\n        /* \"@openzeppelin/contracts/access/Ownable.sol\":3029:3037  newOwner */\n      dup2\n        /* \"@openzeppelin/contracts/access/Ownable.sol\":3020:3026  _owner */\n      0x00\n      dup1\n        /* \"@openzeppelin/contracts/access/Ownable.sol\":3020:3037  _owner = newOwner */\n      0x0100\n      exp\n      dup2\n      sload\n      dup2\n      0xffffffffffffffffffffffffffffffffffffffff\n      mul\n      not\n      and\n      swap1\n      dup4\n      0xffffffffffffffffffffffffffffffffffffffff\n      and\n      mul\n      or\n      swap1\n      sstore\n      pop\n        /* \"@openzeppelin/contracts/access/Ownable.sol\":3083:3091  newOwner */\n      dup2\n        /* \"@openzeppelin/contracts/access/Ownable.sol\":3052:3092  OwnershipTransferred(oldOwner, newOwner) */\n      0xffffffffffffffffffffffffffffffffffffffff\n      and\n        /* \"@openzeppelin/contracts/access/Ownable.sol\":3073:3081  oldOwner */\n      dup2\n        /* \"@openzeppelin/contracts/access/Ownable.sol\":3052:3092  OwnershipTransferred(oldOwner, newOwner) */\n      0xffffffffffffffffffffffffffffffffffffffff\n      and\n      0x8be0079c531659141344cd1fd0a4f28419497f9722a3daafe3b4186f6b6457e0\n      mload(0x40)\n      mload(0x40)\n      dup1\n      swap2\n      sub\n      swap1\n      log3\n        /* \"@openzeppelin/contracts/access/Ownable.sol\":2975:3099  {... */\n      pop\n        /* \"@openzeppelin/contracts/access/Ownable.sol\":2912:3099  function _transferOwnership(address newOwner) internal virtual {... */\n      pop\n      jump\t// out\n        /* \"@openzeppelin/contracts/utils/Context.sol\":656:752  function _msgSender() internal view virtual returns (address) {... */\n    tag_243:\n        /* \"@openzeppelin/contracts/utils/Context.sol\":709:716  address */\n      0x00\n        /* \"@openzeppelin/contracts/utils/Context.sol\":735:745  msg.sender */\n      caller\n        /* \"@openzeppelin/contracts/utils/Context.sol\":728:745  return msg.sender */\n      swap1\n      pop\n        /* \"@openzeppelin/contracts/utils/Context.sol\":656:752  function _msgSender() internal view virtual returns (address) {... */\n      swap1\n      jump\t// out\n        /* \"#utility.yul\":7:133   */\n    tag_250:\n        /* \"#utility.yul\":44:51   */\n      0x00\n        /* \"#utility.yul\":84:126   */\n      0xffffffffffffffffffffffffffffffffffffffff\n        /* \"#utility.yul\":77:82   */\n      dup3\n        /* \"#utility.yul\":73:127   */\n      and\n        /* \"#utility.yul\":62:127   */\n      swap1\n      pop\n        /* \"#utility.yul\":7:133   */\n      swap2\n      swap1\n      pop\n      jump\t// out\n        /* \"#utility.yul\":139:199   */\n    tag_251:\n        /* \"#utility.yul\":167:170   */\n      0x00\n        /* \"#utility.yul\":188:193   */\n      dup2\n        /* \"#utility.yul\":181:193   */\n      swap1\n      pop\n        /* \"#utility.yul\":139:199   */\n      swap2\n      swap1\n      pop\n      jump\t// out\n        /* \"#utility.yul\":205:347   */\n    tag_252:\n        /* \"#utility.yul\":255:264   */\n      0x00\n        /* \"#utility.yul\":288:341   */\n      tag_328\n        /* \"#utility.yul\":306:340   */\n      tag_329\n        /* \"#utility.yul\":315:339   */\n      tag_330\n        /* \"#utility.yul\":333:338   */\n      dup5\n        /* \"#utility.yul\":315:339   */\n      tag_250\n      jump\t// in\n    tag_330:\n        /* \"#utility.yul\":306:340   */\n      tag_251\n      jump\t// in\n    tag_329:\n        /* \"#utility.yul\":288:341   */\n      tag_250\n      jump\t// in\n    tag_328:\n        /* \"#utility.yul\":275:341   */\n      swap1\n      pop\n        /* \"#utility.yul\":205:347   */\n      swap2\n      swap1\n      pop\n      jump\t// out\n        /* \"#utility.yul\":353:479   */\n    tag_253:\n        /* \"#utility.yul\":403:412   */\n      0x00\n        /* \"#utility.yul\":436:473   */\n      tag_332\n        /* \"#utility.yul\":467:472   */\n      dup3\n        /* \"#utility.yul\":436:473   */\n      tag_252\n      jump\t// in\n    tag_332:\n        /* \"#utility.yul\":423:473   */\n      swap1\n      pop\n        /* \"#utility.yul\":353:479   */\n      swap2\n      swap1\n      pop\n      jump\t// out\n        /* \"#utility.yul\":485:636   */\n    tag_254:\n        /* \"#utility.yul\":560:569   */\n      0x00\n        /* \"#utility.yul\":593:630   */\n      tag_334\n        /* \"#utility.yul\":624:629   */\n      dup3\n        /* \"#utility.yul\":593:630   */\n      tag_253\n      jump\t// in\n    tag_334:\n        /* \"#utility.yul\":580:630   */\n      swap1\n      pop\n        /* \"#utility.yul\":485:636   */\n      swap2\n      swap1\n      pop\n      jump\t// out\n        /* \"#utility.yul\":642:823   */\n    tag_255:\n        /* \"#utility.yul\":754:816   */\n      tag_336\n        /* \"#utility.yul\":810:815   */\n      dup2\n        /* \"#utility.yul\":754:816   */\n      tag_254\n      jump\t// in\n    tag_336:\n        /* \"#utility.yul\":749:752   */\n      dup3\n        /* \"#utility.yul\":742:817   */\n      mstore\n        /* \"#utility.yul\":642:823   */\n      pop\n      pop\n      jump\t// out\n        /* \"#utility.yul\":829:1101   */\n    tag_29:\n        /* \"#utility.yul\":947:951   */\n      0x00\n        /* \"#utility.yul\":985:987   */\n      0x20\n        /* \"#utility.yul\":974:983   */\n      dup3\n        /* \"#utility.yul\":970:988   */\n      add\n        /* \"#utility.yul\":962:988   */\n      swap1\n      pop\n        /* \"#utility.yul\":998:1094   */\n      tag_338\n        /* \"#utility.yul\":1091:1092   */\n      0x00\n        /* \"#utility.yul\":1080:1089   */\n      dup4\n        /* \"#utility.yul\":1076:1093   */\n      add\n        /* \"#utility.yul\":1067:1073   */\n      dup5\n        /* \"#utility.yul\":998:1094   */\n      tag_255\n      jump\t// in\n    tag_338:\n        /* \"#utility.yul\":829:1101   */\n      swap3\n      swap2\n      pop\n      pop\n      jump\t// out\n        /* \"#utility.yul\":1107:1182   */\n    tag_256:\n        /* \"#utility.yul\":1140:1146   */\n      0x00\n        /* \"#utility.yul\":1173:1175   */\n      0x40\n        /* \"#utility.yul\":1167:1176   */\n      mload\n        /* \"#utility.yul\":1157:1176   */\n      swap1\n      pop\n        /* \"#utility.yul\":1107:1182   */\n      swap1\n      jump\t// out\n        /* \"#utility.yul\":1188:1305   */\n    tag_257:\n        /* \"#utility.yul\":1297:1298   */\n      0x00\n        /* \"#utility.yul\":1294:1295   */\n      dup1\n        /* \"#utility.yul\":1287:1299   */\n      revert\n        /* \"#utility.yul\":1311:1428   */\n    tag_258:\n        /* \"#utility.yul\":1420:1421   */\n      0x00\n        /* \"#utility.yul\":1417:1418   */\n      dup1\n        /* \"#utility.yul\":1410:1422   */\n      revert\n        /* \"#utility.yul\":1434:1551   */\n    tag_259:\n        /* \"#utility.yul\":1543:1544   */\n      0x00\n        /* \"#utility.yul\":1540:1541   */\n      dup1\n        /* \"#utility.yul\":1533:1545   */\n      revert\n        /* \"#utility.yul\":1557:1674   */\n    tag_260:\n        /* \"#utility.yul\":1666:1667   */\n      0x00\n        /* \"#utility.yul\":1663:1664   */\n      dup1\n        /* \"#utility.yul\":1656:1668   */\n      revert\n        /* \"#utility.yul\":1680:1782   */\n    tag_261:\n        /* \"#utility.yul\":1721:1727   */\n      0x00\n        /* \"#utility.yul\":1772:1774   */\n      0x1f\n        /* \"#utility.yul\":1768:1775   */\n      not\n        /* \"#utility.yul\":1763:1765   */\n      0x1f\n        /* \"#utility.yul\":1756:1761   */\n      dup4\n        /* \"#utility.yul\":1752:1766   */\n      add\n        /* \"#utility.yul\":1748:1776   */\n      and\n        /* \"#utility.yul\":1738:1776   */\n      swap1\n      pop\n        /* \"#utility.yul\":1680:1782   */\n      swap2\n      swap1\n      pop\n      jump\t// out\n        /* \"#utility.yul\":1788:1968   */\n    tag_262:\n        /* \"#utility.yul\":1836:1913   */\n      0x4e487b7100000000000000000000000000000000000000000000000000000000\n        /* \"#utility.yul\":1833:1834   */\n      0x00\n        /* \"#utility.yul\":1826:1914   */\n      mstore\n        /* \"#utility.yul\":1933:1937   */\n      0x41\n        /* \"#utility.yul\":1930:1931   */\n      0x04\n        /* \"#utility.yul\":1923:1938   */\n      mstore\n        /* \"#utility.yul\":1957:1961   */\n      0x24\n        /* \"#utility.yul\":1954:1955   */\n      0x00\n        /* \"#utility.yul\":1947:1962   */\n      revert\n        /* \"#utility.yul\":1974:2255   */\n    tag_263:\n        /* \"#utility.yul\":2057:2084   */\n      tag_347\n        /* \"#utility.yul\":2079:2083   */\n      dup3\n        /* \"#utility.yul\":2057:2084   */\n      tag_261\n      jump\t// in\n    tag_347:\n        /* \"#utility.yul\":2049:2055   */\n      dup2\n        /* \"#utility.yul\":2045:2085   */\n      add\n        /* \"#utility.yul\":2187:2193   */\n      dup2\n        /* \"#utility.yul\":2175:2185   */\n      dup2\n        /* \"#utility.yul\":2172:2194   */\n      lt\n        /* \"#utility.yul\":2151:2169   */\n      0xffffffffffffffff\n        /* \"#utility.yul\":2139:2149   */\n      dup3\n        /* \"#utility.yul\":2136:2170   */\n      gt\n        /* \"#utility.yul\":2133:2195   */\n      or\n        /* \"#utility.yul\":2130:2218   */\n      iszero\n      tag_348\n      jumpi\n        /* \"#utility.yul\":2198:2216   */\n      tag_349\n      tag_262\n      jump\t// in\n    tag_349:\n        /* \"#utility.yul\":2130:2218   */\n    tag_348:\n        /* \"#utility.yul\":2238:2248   */\n      dup1\n        /* \"#utility.yul\":2234:2236   */\n      0x40\n        /* \"#utility.yul\":2227:2249   */\n      mstore\n        /* \"#utility.yul\":2017:2255   */\n      pop\n        /* \"#utility.yul\":1974:2255   */\n      pop\n      pop\n      jump\t// out\n        /* \"#utility.yul\":2261:2390   */\n    tag_264:\n        /* \"#utility.yul\":2295:2301   */\n      0x00\n        /* \"#utility.yul\":2322:2342   */\n      tag_351\n      tag_256\n      jump\t// in\n    tag_351:\n        /* \"#utility.yul\":2312:2342   */\n      swap1\n      pop\n        /* \"#utility.yul\":2351:2384   */\n      tag_352\n        /* \"#utility.yul\":2379:2383   */\n      dup3\n        /* \"#utility.yul\":2371:2377   */\n      dup3\n        /* \"#utility.yul\":2351:2384   */\n      tag_263\n      jump\t// in\n    tag_352:\n        /* \"#utility.yul\":2261:2390   */\n      swap2\n      swap1\n      pop\n      jump\t// out\n        /* \"#utility.yul\":2396:2703   */\n    tag_265:\n        /* \"#utility.yul\":2457:2461   */\n      0x00\n        /* \"#utility.yul\":2547:2565   */\n      0xffffffffffffffff\n        /* \"#utility.yul\":2539:2545   */\n      dup3\n        /* \"#utility.yul\":2536:2566   */\n      gt\n        /* \"#utility.yul\":2533:2589   */\n      iszero\n      tag_354\n      jumpi\n        /* \"#utility.yul\":2569:2587   */\n      tag_355\n      tag_262\n      jump\t// in\n    tag_355:\n        /* \"#utility.yul\":2533:2589   */\n    tag_354:\n        /* \"#utility.yul\":2607:2636   */\n      tag_356\n        /* \"#utility.yul\":2629:2635   */\n      dup3\n        /* \"#utility.yul\":2607:2636   */\n      tag_261\n      jump\t// in\n    tag_356:\n        /* \"#utility.yul\":2599:2636   */\n      swap1\n      pop\n        /* \"#utility.yul\":2691:2695   */\n      0x20\n        /* \"#utility.yul\":2685:2689   */\n      dup2\n        /* \"#utility.yul\":2681:2696   */\n      add\n        /* \"#utility.yul\":2673:2696   */\n      swap1\n      pop\n        /* \"#utility.yul\":2396:2703   */\n      swap2\n      swap1\n      pop\n      jump\t// out\n        /* \"#utility.yul\":2709:2855   */\n    tag_266:\n        /* \"#utility.yul\":2806:2812   */\n      dup3\n        /* \"#utility.yul\":2801:2804   */\n      dup2\n        /* \"#utility.yul\":2796:2799   */\n      dup4\n        /* \"#utility.yul\":2783:2813   */\n      calldatacopy\n        /* \"#utility.yul\":2847:2848   */\n      0x00\n        /* \"#utility.yul\":2838:2844   */\n      dup4\n        /* \"#utility.yul\":2833:2836   */\n      dup4\n        /* \"#utility.yul\":2829:2845   */\n      add\n        /* \"#utility.yul\":2822:2849   */\n      mstore\n        /* \"#utility.yul\":2709:2855   */\n      pop\n      pop\n      pop\n      jump\t// out\n        /* \"#utility.yul\":2861:3284   */\n    tag_267:\n        /* \"#utility.yul\":2938:2943   */\n      0x00\n        /* \"#utility.yul\":2963:3028   */\n      tag_359\n        /* \"#utility.yul\":2979:3027   */\n      tag_360\n        /* \"#utility.yul\":3020:3026   */\n      dup5\n        /* \"#utility.yul\":2979:3027   */\n      tag_265\n      jump\t// in\n    tag_360:\n        /* \"#utility.yul\":2963:3028   */\n      tag_264\n      jump\t// in\n    tag_359:\n        /* \"#utility.yul\":2954:3028   */\n      swap1\n      pop\n        /* \"#utility.yul\":3051:3057   */\n      dup3\n        /* \"#utility.yul\":3044:3049   */\n      dup2\n        /* \"#utility.yul\":3037:3058   */\n      mstore\n        /* \"#utility.yul\":3089:3093   */\n      0x20\n        /* \"#utility.yul\":3082:3087   */\n      dup2\n        /* \"#utility.yul\":3078:3094   */\n      add\n        /* \"#utility.yul\":3127:3130   */\n      dup5\n        /* \"#utility.yul\":3118:3124   */\n      dup5\n        /* \"#utility.yul\":3113:3116   */\n      dup5\n        /* \"#utility.yul\":3109:3125   */\n      add\n        /* \"#utility.yul\":3106:3131   */\n      gt\n        /* \"#utility.yul\":3103:3215   */\n      iszero\n      tag_361\n      jumpi\n        /* \"#utility.yul\":3134:3213   */\n      tag_362\n      tag_260\n      jump\t// in\n    tag_362:\n        /* \"#utility.yul\":3103:3215   */\n    tag_361:\n        /* \"#utility.yul\":3224:3278   */\n      tag_363\n        /* \"#utility.yul\":3271:3277   */\n      dup5\n        /* \"#utility.yul\":3266:3269   */\n      dup3\n        /* \"#utility.yul\":3261:3264   */\n      dup6\n        /* \"#utility.yul\":3224:3278   */\n      tag_266\n      jump\t// in\n    tag_363:\n        /* \"#utility.yul\":2944:3284   */\n      pop\n        /* \"#utility.yul\":2861:3284   */\n      swap4\n      swap3\n      pop\n      pop\n      pop\n      jump\t// out\n        /* \"#utility.yul\":3303:3641   */\n    tag_268:\n        /* \"#utility.yul\":3358:3363   */\n      0x00\n        /* \"#utility.yul\":3407:3410   */\n      dup3\n        /* \"#utility.yul\":3400:3404   */\n      0x1f\n        /* \"#utility.yul\":3392:3398   */\n      dup4\n        /* \"#utility.yul\":3388:3405   */\n      add\n        /* \"#utility.yul\":3384:3411   */\n      slt\n        /* \"#utility.yul\":3374:3496   */\n      tag_365\n      jumpi\n        /* \"#utility.yul\":3415:3494   */\n      tag_366\n      tag_259\n      jump\t// in\n    tag_366:\n        /* \"#utility.yul\":3374:3496   */\n    tag_365:\n        /* \"#utility.yul\":3532:3538   */\n      dup2\n        /* \"#utility.yul\":3519:3539   */\n      calldataload\n        /* \"#utility.yul\":3557:3635   */\n      tag_367\n        /* \"#utility.yul\":3631:3634   */\n      dup5\n        /* \"#utility.yul\":3623:3629   */\n      dup3\n        /* \"#utility.yul\":3616:3620   */\n      0x20\n        /* \"#utility.yul\":3608:3614   */\n      dup7\n        /* \"#utility.yul\":3604:3621   */\n      add\n        /* \"#utility.yul\":3557:3635   */\n      tag_267\n      jump\t// in\n    tag_367:\n        /* \"#utility.yul\":3548:3635   */\n      swap2\n      pop\n        /* \"#utility.yul\":3364:3641   */\n      pop\n        /* \"#utility.yul\":3303:3641   */\n      swap3\n      swap2\n      pop\n      pop\n      jump\t// out\n        /* \"#utility.yul\":3647:4154   */\n    tag_33:\n        /* \"#utility.yul\":3715:3721   */\n      0x00\n        /* \"#utility.yul\":3764:3766   */\n      0x20\n        /* \"#utility.yul\":3752:3761   */\n      dup3\n        /* \"#utility.yul\":3743:3750   */\n      dup5\n        /* \"#utility.yul\":3739:3762   */\n      sub\n        /* \"#utility.yul\":3735:3767   */\n      slt\n        /* \"#utility.yul\":3732:3851   */\n      iszero\n      tag_369\n      jumpi\n        /* \"#utility.yul\":3770:3849   */\n      tag_370\n      tag_257\n      jump\t// in\n    tag_370:\n        /* \"#utility.yul\":3732:3851   */\n    tag_369:\n        /* \"#utility.yul\":3918:3919   */\n      0x00\n        /* \"#utility.yul\":3907:3916   */\n      dup3\n        /* \"#utility.yul\":3903:3920   */\n      add\n        /* \"#utility.yul\":3890:3921   */\n      calldataload\n        /* \"#utility.yul\":3948:3966   */\n      0xffffffffffffffff\n        /* \"#utility.yul\":3940:3946   */\n      dup2\n        /* \"#utility.yul\":3937:3967   */\n      gt\n        /* \"#utility.yul\":3934:4051   */\n      iszero\n      tag_371\n      jumpi\n        /* \"#utility.yul\":3970:4049   */\n      tag_372\n      tag_258\n      jump\t// in\n    tag_372:\n        /* \"#utility.yul\":3934:4051   */\n    tag_371:\n        /* \"#utility.yul\":4075:4137   */\n      tag_373\n        /* \"#utility.yul\":4129:4136   */\n      dup5\n        /* \"#utility.yul\":4120:4126   */\n      dup3\n        /* \"#utility.yul\":4109:4118   */\n      dup6\n        /* \"#utility.yul\":4105:4127   */\n      add\n        /* \"#utility.yul\":4075:4137   */\n      tag_268\n      jump\t// in\n    tag_373:\n        /* \"#utility.yul\":4065:4137   */\n      swap2\n      pop\n        /* \"#utility.yul\":3861:4147   */\n      pop\n        /* \"#utility.yul\":3647:4154   */\n      swap3\n      swap2\n      pop\n      pop\n      jump\t// out\n        /* \"#utility.yul\":4160:4237   */\n    tag_269:\n        /* \"#utility.yul\":4197:4204   */\n      0x00\n        /* \"#utility.yul\":4226:4231   */\n      dup2\n        /* \"#utility.yul\":4215:4231   */\n      swap1\n      pop\n        /* \"#utility.yul\":4160:4237   */\n      swap2\n      swap1\n      pop\n      jump\t// out\n        /* \"#utility.yul\":4243:4361   */\n    tag_270:\n        /* \"#utility.yul\":4330:4354   */\n      tag_376\n        /* \"#utility.yul\":4348:4353   */\n      dup2\n        /* \"#utility.yul\":4330:4354   */\n      tag_269\n      jump\t// in\n    tag_376:\n        /* \"#utility.yul\":4325:4328   */\n      dup3\n        /* \"#utility.yul\":4318:4355   */\n      mstore\n        /* \"#utility.yul\":4243:4361   */\n      pop\n      pop\n      jump\t// out\n        /* \"#utility.yul\":4367:4589   */\n    tag_36:\n        /* \"#utility.yul\":4460:4464   */\n      0x00\n        /* \"#utility.yul\":4498:4500   */\n      0x20\n        /* \"#utility.yul\":4487:4496   */\n      dup3\n        /* \"#utility.yul\":4483:4501   */\n      add\n        /* \"#utility.yul\":4475:4501   */\n      swap1\n      pop\n        /* \"#utility.yul\":4511:4582   */\n      tag_378\n        /* \"#utility.yul\":4579:4580   */\n      0x00\n        /* \"#utility.yul\":4568:4577   */\n      dup4\n        /* \"#utility.yul\":4564:4581   */\n      add\n        /* \"#utility.yul\":4555:4561   */\n      dup5\n        /* \"#utility.yul\":4511:4582   */\n      tag_270\n      jump\t// in\n    tag_378:\n        /* \"#utility.yul\":4367:4589   */\n      swap3\n      swap2\n      pop\n      pop\n      jump\t// out\n        /* \"#utility.yul\":4595:4903   */\n    tag_271:\n        /* \"#utility.yul\":4657:4661   */\n      0x00\n        /* \"#utility.yul\":4747:4765   */\n      0xffffffffffffffff\n        /* \"#utility.yul\":4739:4745   */\n      dup3\n        /* \"#utility.yul\":4736:4766   */\n      gt\n        /* \"#utility.yul\":4733:4789   */\n      iszero\n      tag_380\n      jumpi\n        /* \"#utility.yul\":4769:4787   */\n      tag_381\n      tag_262\n      jump\t// in\n    tag_381:\n        /* \"#utility.yul\":4733:4789   */\n    tag_380:\n        /* \"#utility.yul\":4807:4836   */\n      tag_382\n        /* \"#utility.yul\":4829:4835   */\n      dup3\n        /* \"#utility.yul\":4807:4836   */\n      tag_261\n      jump\t// in\n    tag_382:\n        /* \"#utility.yul\":4799:4836   */\n      swap1\n      pop\n        /* \"#utility.yul\":4891:4895   */\n      0x20\n        /* \"#utility.yul\":4885:4889   */\n      dup2\n        /* \"#utility.yul\":4881:4896   */\n      add\n        /* \"#utility.yul\":4873:4896   */\n      swap1\n      pop\n        /* \"#utility.yul\":4595:4903   */\n      swap2\n      swap1\n      pop\n      jump\t// out\n        /* \"#utility.yul\":4909:5334   */\n    tag_272:\n        /* \"#utility.yul\":4987:4992   */\n      0x00\n        /* \"#utility.yul\":5012:5078   */\n      tag_384\n        /* \"#utility.yul\":5028:5077   */\n      tag_385\n        /* \"#utility.yul\":5070:5076   */\n      dup5\n        /* \"#utility.yul\":5028:5077   */\n      tag_271\n      jump\t// in\n    tag_385:\n        /* \"#utility.yul\":5012:5078   */\n      tag_264\n      jump\t// in\n    tag_384:\n        /* \"#utility.yul\":5003:5078   */\n      swap1\n      pop\n        /* \"#utility.yul\":5101:5107   */\n      dup3\n        /* \"#utility.yul\":5094:5099   */\n      dup2\n        /* \"#utility.yul\":5087:5108   */\n      mstore\n        /* \"#utility.yul\":5139:5143   */\n      0x20\n        /* \"#utility.yul\":5132:5137   */\n      dup2\n        /* \"#utility.yul\":5128:5144   */\n      add\n        /* \"#utility.yul\":5177:5180   */\n      dup5\n        /* \"#utility.yul\":5168:5174   */\n      dup5\n        /* \"#utility.yul\":5163:5166   */\n      dup5\n        /* \"#utility.yul\":5159:5175   */\n      add\n        /* \"#utility.yul\":5156:5181   */\n      gt\n        /* \"#utility.yul\":5153:5265   */\n      iszero\n      tag_386\n      jumpi\n        /* \"#utility.yul\":5184:5263   */\n      tag_387\n      tag_260\n      jump\t// in\n    tag_387:\n        /* \"#utility.yul\":5153:5265   */\n    tag_386:\n        /* \"#utility.yul\":5274:5328   */\n      tag_388\n        /* \"#utility.yul\":5321:5327   */\n      dup5\n        /* \"#utility.yul\":5316:5319   */\n      dup3\n        /* \"#utility.yul\":5311:5314   */\n      dup6\n        /* \"#utility.yul\":5274:5328   */\n      tag_266\n      jump\t// in\n    tag_388:\n        /* \"#utility.yul\":4993:5334   */\n      pop\n        /* \"#utility.yul\":4909:5334   */\n      swap4\n      swap3\n      pop\n      pop\n      pop\n      jump\t// out\n        /* \"#utility.yul\":5354:5694   */\n    tag_273:\n        /* \"#utility.yul\":5410:5415   */\n      0x00\n        /* \"#utility.yul\":5459:5462   */\n      dup3\n        /* \"#utility.yul\":5452:5456   */\n      0x1f\n        /* \"#utility.yul\":5444:5450   */\n      dup4\n        /* \"#utility.yul\":5440:5457   */\n      add\n        /* \"#utility.yul\":5436:5463   */\n      slt\n        /* \"#utility.yul\":5426:5548   */\n      tag_390\n      jumpi\n        /* \"#utility.yul\":5467:5546   */\n      tag_391\n      tag_259\n      jump\t// in\n    tag_391:\n        /* \"#utility.yul\":5426:5548   */\n    tag_390:\n        /* \"#utility.yul\":5584:5590   */\n      dup2\n        /* \"#utility.yul\":5571:5591   */\n      calldataload\n        /* \"#utility.yul\":5609:5688   */\n      tag_392\n        /* \"#utility.yul\":5684:5687   */\n      dup5\n        /* \"#utility.yul\":5676:5682   */\n      dup3\n        /* \"#utility.yul\":5669:5673   */\n      0x20\n        /* \"#utility.yul\":5661:5667   */\n      dup7\n        /* \"#utility.yul\":5657:5674   */\n      add\n        /* \"#utility.yul\":5609:5688   */\n      tag_272\n      jump\t// in\n    tag_392:\n        /* \"#utility.yul\":5600:5688   */\n      swap2\n      pop\n        /* \"#utility.yul\":5416:5694   */\n      pop\n        /* \"#utility.yul\":5354:5694   */\n      swap3\n      swap2\n      pop\n      pop\n      jump\t// out\n        /* \"#utility.yul\":5700:6209   */\n    tag_40:\n        /* \"#utility.yul\":5769:5775   */\n      0x00\n        /* \"#utility.yul\":5818:5820   */\n      0x20\n        /* \"#utility.yul\":5806:5815   */\n      dup3\n        /* \"#utility.yul\":5797:5804   */\n      dup5\n        /* \"#utility.yul\":5793:5816   */\n      sub\n        /* \"#utility.yul\":5789:5821   */\n      slt\n        /* \"#utility.yul\":5786:5905   */\n      iszero\n      tag_394\n      jumpi\n        /* \"#utility.yul\":5824:5903   */\n      tag_395\n      tag_257\n      jump\t// in\n    tag_395:\n        /* \"#utility.yul\":5786:5905   */\n    tag_394:\n        /* \"#utility.yul\":5972:5973   */\n      0x00\n        /* \"#utility.yul\":5961:5970   */\n      dup3\n        /* \"#utility.yul\":5957:5974   */\n      add\n        /* \"#utility.yul\":5944:5975   */\n      calldataload\n        /* \"#utility.yul\":6002:6020   */\n      0xffffffffffffffff\n        /* \"#utility.yul\":5994:6000   */\n      dup2\n        /* \"#utility.yul\":5991:6021   */\n      gt\n        /* \"#utility.yul\":5988:6105   */\n      iszero\n      tag_396\n      jumpi\n        /* \"#utility.yul\":6024:6103   */\n      tag_397\n      tag_258\n      jump\t// in\n    tag_397:\n        /* \"#utility.yul\":5988:6105   */\n    tag_396:\n        /* \"#utility.yul\":6129:6192   */\n      tag_398\n        /* \"#utility.yul\":6184:6191   */\n      dup5\n        /* \"#utility.yul\":6175:6181   */\n      dup3\n        /* \"#utility.yul\":6164:6173   */\n      dup6\n        /* \"#utility.yul\":6160:6182   */\n      add\n        /* \"#utility.yul\":6129:6192   */\n      tag_273\n      jump\t// in\n    tag_398:\n        /* \"#utility.yul\":6119:6192   */\n      swap2\n      pop\n        /* \"#utility.yul\":5915:6202   */\n      pop\n        /* \"#utility.yul\":5700:6209   */\n      swap3\n      swap2\n      pop\n      pop\n      jump\t// out\n        /* \"#utility.yul\":6215:6313   */\n    tag_274:\n        /* \"#utility.yul\":6266:6272   */\n      0x00\n        /* \"#utility.yul\":6300:6305   */\n      dup2\n        /* \"#utility.yul\":6294:6306   */\n      mload\n        /* \"#utility.yul\":6284:6306   */\n      swap1\n      pop\n        /* \"#utility.yul\":6215:6313   */\n      swap2\n      swap1\n      pop\n      jump\t// out\n        /* \"#utility.yul\":6319:6487   */\n    tag_275:\n        /* \"#utility.yul\":6402:6413   */\n      0x00\n        /* \"#utility.yul\":6436:6442   */\n      dup3\n        /* \"#utility.yul\":6431:6434   */\n      dup3\n        /* \"#utility.yul\":6424:6443   */\n      mstore\n        /* \"#utility.yul\":6476:6480   */\n      0x20\n        /* \"#utility.yul\":6471:6474   */\n      dup3\n        /* \"#utility.yul\":6467:6481   */\n      add\n        /* \"#utility.yul\":6452:6481   */\n      swap1\n      pop\n        /* \"#utility.yul\":6319:6487   */\n      swap3\n      swap2\n      pop\n      pop\n      jump\t// out\n        /* \"#utility.yul\":6493:6739   */\n    tag_276:\n        /* \"#utility.yul\":6574:6575   */\n      0x00\n        /* \"#utility.yul\":6584:6697   */\n    tag_402:\n        /* \"#utility.yul\":6598:6604   */\n      dup4\n        /* \"#utility.yul\":6595:6596   */\n      dup2\n        /* \"#utility.yul\":6592:6605   */\n      lt\n        /* \"#utility.yul\":6584:6697   */\n      iszero\n      tag_404\n      jumpi\n        /* \"#utility.yul\":6683:6684   */\n      dup1\n        /* \"#utility.yul\":6678:6681   */\n      dup3\n        /* \"#utility.yul\":6674:6685   */\n      add\n        /* \"#utility.yul\":6668:6686   */\n      mload\n        /* \"#utility.yul\":6664:6665   */\n      dup2\n        /* \"#utility.yul\":6659:6662   */\n      dup5\n        /* \"#utility.yul\":6655:6666   */\n      add\n        /* \"#utility.yul\":6648:6687   */\n      mstore\n        /* \"#utility.yul\":6620:6622   */\n      0x20\n        /* \"#utility.yul\":6617:6618   */\n      dup2\n        /* \"#utility.yul\":6613:6623   */\n      add\n        /* \"#utility.yul\":6608:6623   */\n      swap1\n      pop\n        /* \"#utility.yul\":6584:6697   */\n      jump(tag_402)\n    tag_404:\n        /* \"#utility.yul\":6731:6732   */\n      0x00\n        /* \"#utility.yul\":6722:6728   */\n      dup5\n        /* \"#utility.yul\":6717:6720   */\n      dup5\n        /* \"#utility.yul\":6713:6729   */\n      add\n        /* \"#utility.yul\":6706:6733   */\n      mstore\n        /* \"#utility.yul\":6555:6739   */\n      pop\n        /* \"#utility.yul\":6493:6739   */\n      pop\n      pop\n      pop\n      jump\t// out\n        /* \"#utility.yul\":6745:7118   */\n    tag_277:\n        /* \"#utility.yul\":6831:6834   */\n      0x00\n        /* \"#utility.yul\":6859:6897   */\n      tag_406\n        /* \"#utility.yul\":6891:6896   */\n      dup3\n        /* \"#utility.yul\":6859:6897   */\n      tag_274\n      jump\t// in\n    tag_406:\n        /* \"#utility.yul\":6913:6983   */\n      tag_407\n        /* \"#utility.yul\":6976:6982   */\n      dup2\n        /* \"#utility.yul\":6971:6974   */\n      dup6\n        /* \"#utility.yul\":6913:6983   */\n      tag_275\n      jump\t// in\n    tag_407:\n        /* \"#utility.yul\":6906:6983   */\n      swap4\n      pop\n        /* \"#utility.yul\":6992:7057   */\n      tag_408\n        /* \"#utility.yul\":7050:7056   */\n      dup2\n        /* \"#utility.yul\":7045:7048   */\n      dup6\n        /* \"#utility.yul\":7038:7042   */\n      0x20\n        /* \"#utility.yul\":7031:7036   */\n      dup7\n        /* \"#utility.yul\":7027:7043   */\n      add\n        /* \"#utility.yul\":6992:7057   */\n      tag_276\n      jump\t// in\n    tag_408:\n        /* \"#utility.yul\":7082:7111   */\n      tag_409\n        /* \"#utility.yul\":7104:7110   */\n      dup2\n        /* \"#utility.yul\":7082:7111   */\n      tag_261\n      jump\t// in\n    tag_409:\n        /* \"#utility.yul\":7077:7080   */\n      dup5\n        /* \"#utility.yul\":7073:7112   */\n      add\n        /* \"#utility.yul\":7066:7112   */\n      swap2\n      pop\n        /* \"#utility.yul\":6835:7118   */\n      pop\n        /* \"#utility.yul\":6745:7118   */\n      swap3\n      swap2\n      pop\n      pop\n      jump\t// out\n        /* \"#utility.yul\":7124:7433   */\n    tag_52:\n        /* \"#utility.yul\":7235:7239   */\n      0x00\n        /* \"#utility.yul\":7273:7275   */\n      0x20\n        /* \"#utility.yul\":7262:7271   */\n      dup3\n        /* \"#utility.yul\":7258:7276   */\n      add\n        /* \"#utility.yul\":7250:7276   */\n      swap1\n      pop\n        /* \"#utility.yul\":7322:7331   */\n      dup2\n        /* \"#utility.yul\":7316:7320   */\n      dup2\n        /* \"#utility.yul\":7312:7332   */\n      sub\n        /* \"#utility.yul\":7308:7309   */\n      0x00\n        /* \"#utility.yul\":7297:7306   */\n      dup4\n        /* \"#utility.yul\":7293:7310   */\n      add\n        /* \"#utility.yul\":7286:7333   */\n      mstore\n        /* \"#utility.yul\":7350:7426   */\n      tag_411\n        /* \"#utility.yul\":7421:7425   */\n      dup2\n        /* \"#utility.yul\":7412:7418   */\n      dup5\n        /* \"#utility.yul\":7350:7426   */\n      tag_277\n      jump\t// in\n    tag_411:\n        /* \"#utility.yul\":7342:7426   */\n      swap1\n      pop\n        /* \"#utility.yul\":7124:7433   */\n      swap3\n      swap2\n      pop\n      pop\n      jump\t// out\n        /* \"#utility.yul\":7439:7561   */\n    tag_278:\n        /* \"#utility.yul\":7512:7536   */\n      tag_413\n        /* \"#utility.yul\":7530:7535   */\n      dup2\n        /* \"#utility.yul\":7512:7536   */\n      tag_269\n      jump\t// in\n    tag_413:\n        /* \"#utility.yul\":7505:7510   */\n      dup2\n        /* \"#utility.yul\":7502:7537   */\n      eq\n        /* \"#utility.yul\":7492:7555   */\n      tag_414\n      jumpi\n        /* \"#utility.yul\":7551:7552   */\n      0x00\n        /* \"#utility.yul\":7548:7549   */\n      dup1\n        /* \"#utility.yul\":7541:7553   */\n      revert\n        /* \"#utility.yul\":7492:7555   */\n    tag_414:\n        /* \"#utility.yul\":7439:7561   */\n      pop\n      jump\t// out\n        /* \"#utility.yul\":7567:7706   */\n    tag_279:\n        /* \"#utility.yul\":7613:7618   */\n      0x00\n        /* \"#utility.yul\":7651:7657   */\n      dup2\n        /* \"#utility.yul\":7638:7658   */\n      calldataload\n        /* \"#utility.yul\":7629:7658   */\n      swap1\n      pop\n        /* \"#utility.yul\":7667:7700   */\n      tag_416\n        /* \"#utility.yul\":7694:7699   */\n      dup2\n        /* \"#utility.yul\":7667:7700   */\n      tag_278\n      jump\t// in\n    tag_416:\n        /* \"#utility.yul\":7567:7706   */\n      swap3\n      swap2\n      pop\n      pop\n      jump\t// out\n        /* \"#utility.yul\":7712:8041   */\n    tag_65:\n        /* \"#utility.yul\":7771:7777   */\n      0x00\n        /* \"#utility.yul\":7820:7822   */\n      0x20\n        /* \"#utility.yul\":7808:7817   */\n      dup3\n        /* \"#utility.yul\":7799:7806   */\n      dup5\n        /* \"#utility.yul\":7795:7818   */\n      sub\n        /* \"#utility.yul\":7791:7823   */\n      slt\n        /* \"#utility.yul\":7788:7907   */\n      iszero\n      tag_418\n      jumpi\n        /* \"#utility.yul\":7826:7905   */\n      tag_419\n      tag_257\n      jump\t// in\n    tag_419:\n        /* \"#utility.yul\":7788:7907   */\n    tag_418:\n        /* \"#utility.yul\":7946:7947   */\n      0x00\n        /* \"#utility.yul\":7971:8024   */\n      tag_420\n        /* \"#utility.yul\":8016:8023   */\n      dup5\n        /* \"#utility.yul\":8007:8013   */\n      dup3\n        /* \"#utility.yul\":7996:8005   */\n      dup6\n        /* \"#utility.yul\":7992:8014   */\n      add\n        /* \"#utility.yul\":7971:8024   */\n      tag_279\n      jump\t// in\n    tag_420:\n        /* \"#utility.yul\":7961:8024   */\n      swap2\n      pop\n        /* \"#utility.yul\":7917:8034   */\n      pop\n        /* \"#utility.yul\":7712:8041   */\n      swap3\n      swap2\n      pop\n      pop\n      jump\t// out\n        /* \"#utility.yul\":8047:8146   */\n    tag_280:\n        /* \"#utility.yul\":8099:8105   */\n      0x00\n        /* \"#utility.yul\":8133:8138   */\n      dup2\n        /* \"#utility.yul\":8127:8139   */\n      mload\n        /* \"#utility.yul\":8117:8139   */\n      swap1\n      pop\n        /* \"#utility.yul\":8047:8146   */\n      swap2\n      swap1\n      pop\n      jump\t// out\n        /* \"#utility.yul\":8152:8321   */\n    tag_281:\n        /* \"#utility.yul\":8236:8247   */\n      0x00\n        /* \"#utility.yul\":8270:8276   */\n      dup3\n        /* \"#utility.yul\":8265:8268   */\n      dup3\n        /* \"#utility.yul\":8258:8277   */\n      mstore\n        /* \"#utility.yul\":8310:8314   */\n      0x20\n        /* \"#utility.yul\":8305:8308   */\n      dup3\n        /* \"#utility.yul\":8301:8315   */\n      add\n        /* \"#utility.yul\":8286:8315   */\n      swap1\n      pop\n        /* \"#utility.yul\":8152:8321   */\n      swap3\n      swap2\n      pop\n      pop\n      jump\t// out\n        /* \"#utility.yul\":8327:8704   */\n    tag_282:\n        /* \"#utility.yul\":8415:8418   */\n      0x00\n        /* \"#utility.yul\":8443:8482   */\n      tag_424\n        /* \"#utility.yul\":8476:8481   */\n      dup3\n        /* \"#utility.yul\":8443:8482   */\n      tag_280\n      jump\t// in\n    tag_424:\n        /* \"#utility.yul\":8498:8569   */\n      tag_425\n        /* \"#utility.yul\":8562:8568   */\n      dup2\n        /* \"#utility.yul\":8557:8560   */\n      dup6\n        /* \"#utility.yul\":8498:8569   */\n      tag_281\n      jump\t// in\n    tag_425:\n        /* \"#utility.yul\":8491:8569   */\n      swap4\n      pop\n        /* \"#utility.yul\":8578:8643   */\n      tag_426\n        /* \"#utility.yul\":8636:8642   */\n      dup2\n        /* \"#utility.yul\":8631:8634   */\n      dup6\n        /* \"#utility.yul\":8624:8628   */\n      0x20\n        /* \"#utility.yul\":8617:8622   */\n      dup7\n        /* \"#utility.yul\":8613:8629   */\n      add\n        /* \"#utility.yul\":8578:8643   */\n      tag_276\n      jump\t// in\n    tag_426:\n        /* \"#utility.yul\":8668:8697   */\n      tag_427\n        /* \"#utility.yul\":8690:8696   */\n      dup2\n        /* \"#utility.yul\":8668:8697   */\n      tag_261\n      jump\t// in\n    tag_427:\n        /* \"#utility.yul\":8663:8666   */\n      dup5\n        /* \"#utility.yul\":8659:8698   */\n      add\n        /* \"#utility.yul\":8652:8698   */\n      swap2\n      pop\n        /* \"#utility.yul\":8419:8704   */\n      pop\n        /* \"#utility.yul\":8327:8704   */\n      swap3\n      swap2\n      pop\n      pop\n      jump\t// out\n        /* \"#utility.yul\":8710:9023   */\n    tag_68:\n        /* \"#utility.yul\":8823:8827   */\n      0x00\n        /* \"#utility.yul\":8861:8863   */\n      0x20\n        /* \"#utility.yul\":8850:8859   */\n      dup3\n        /* \"#utility.yul\":8846:8864   */\n      add\n        /* \"#utility.yul\":8838:8864   */\n      swap1\n      pop\n        /* \"#utility.yul\":8910:8919   */\n      dup2\n        /* \"#utility.yul\":8904:8908   */\n      dup2\n        /* \"#utility.yul\":8900:8920   */\n      sub\n        /* \"#utility.yul\":8896:8897   */\n      0x00\n        /* \"#utility.yul\":8885:8894   */\n      dup4\n        /* \"#utility.yul\":8881:8898   */\n      add\n        /* \"#utility.yul\":8874:8921   */\n      mstore\n        /* \"#utility.yul\":8938:9016   */\n      tag_429\n        /* \"#utility.yul\":9011:9015   */\n      dup2\n        /* \"#utility.yul\":9002:9008   */\n      dup5\n        /* \"#utility.yul\":8938:9016   */\n      tag_282\n      jump\t// in\n    tag_429:\n        /* \"#utility.yul\":8930:9016   */\n      swap1\n      pop\n        /* \"#utility.yul\":8710:9023   */\n      swap3\n      swap2\n      pop\n      pop\n      jump\t// out\n        /* \"#utility.yul\":9029:9125   */\n    tag_283:\n        /* \"#utility.yul\":9066:9073   */\n      0x00\n        /* \"#utility.yul\":9095:9119   */\n      tag_431\n        /* \"#utility.yul\":9113:9118   */\n      dup3\n        /* \"#utility.yul\":9095:9119   */\n      tag_250\n      jump\t// in\n    tag_431:\n        /* \"#utility.yul\":9084:9119   */\n      swap1\n      pop\n        /* \"#utility.yul\":9029:9125   */\n      swap2\n      swap1\n      pop\n      jump\t// out\n        /* \"#utility.yul\":9131:9249   */\n    tag_284:\n        /* \"#utility.yul\":9218:9242   */\n      tag_433\n        /* \"#utility.yul\":9236:9241   */\n      dup2\n        /* \"#utility.yul\":9218:9242   */\n      tag_283\n      jump\t// in\n    tag_433:\n        /* \"#utility.yul\":9213:9216   */\n      dup3\n        /* \"#utility.yul\":9206:9243   */\n      mstore\n        /* \"#utility.yul\":9131:9249   */\n      pop\n      pop\n      jump\t// out\n        /* \"#utility.yul\":9255:9477   */\n    tag_80:\n        /* \"#utility.yul\":9348:9352   */\n      0x00\n        /* \"#utility.yul\":9386:9388   */\n      0x20\n        /* \"#utility.yul\":9375:9384   */\n      dup3\n        /* \"#utility.yul\":9371:9389   */\n      add\n        /* \"#utility.yul\":9363:9389   */\n      swap1\n      pop\n        /* \"#utility.yul\":9399:9470   */\n      tag_435\n        /* \"#utility.yul\":9467:9468   */\n      0x00\n        /* \"#utility.yul\":9456:9465   */\n      dup4\n        /* \"#utility.yul\":9452:9469   */\n      add\n        /* \"#utility.yul\":9443:9449   */\n      dup5\n        /* \"#utility.yul\":9399:9470   */\n      tag_284\n      jump\t// in\n    tag_435:\n        /* \"#utility.yul\":9255:9477   */\n      swap3\n      swap2\n      pop\n      pop\n      jump\t// out\n        /* \"#utility.yul\":9483:9605   */\n    tag_285:\n        /* \"#utility.yul\":9556:9580   */\n      tag_437\n        /* \"#utility.yul\":9574:9579   */\n      dup2\n        /* \"#utility.yul\":9556:9580   */\n      tag_283\n      jump\t// in\n    tag_437:\n        /* \"#utility.yul\":9549:9554   */\n      dup2\n        /* \"#utility.yul\":9546:9581   */\n      eq\n        /* \"#utility.yul\":9536:9599   */\n      tag_438\n      jumpi\n        /* \"#utility.yul\":9595:9596   */\n      0x00\n        /* \"#utility.yul\":9592:9593   */\n      dup1\n        /* \"#utility.yul\":9585:9597   */\n      revert\n        /* \"#utility.yul\":9536:9599   */\n    tag_438:\n        /* \"#utility.yul\":9483:9605   */\n      pop\n      jump\t// out\n        /* \"#utility.yul\":9611:9750   */\n    tag_286:\n        /* \"#utility.yul\":9657:9662   */\n      0x00\n        /* \"#utility.yul\":9695:9701   */\n      dup2\n        /* \"#utility.yul\":9682:9702   */\n      calldataload\n        /* \"#utility.yul\":9673:9702   */\n      swap1\n      pop\n        /* \"#utility.yul\":9711:9744   */\n      tag_440\n        /* \"#utility.yul\":9738:9743   */\n      dup2\n        /* \"#utility.yul\":9711:9744   */\n      tag_285\n      jump\t// in\n    tag_440:\n        /* \"#utility.yul\":9611:9750   */\n      swap3\n      swap2\n      pop\n      pop\n      jump\t// out\n        /* \"#utility.yul\":9756:10085   */\n    tag_92:\n        /* \"#utility.yul\":9815:9821   */\n      0x00\n        /* \"#utility.yul\":9864:9866   */\n      0x20\n        /* \"#utility.yul\":9852:9861   */\n      dup3\n        /* \"#utility.yul\":9843:9850   */\n      dup5\n        /* \"#utility.yul\":9839:9862   */\n      sub\n        /* \"#utility.yul\":9835:9867   */\n      slt\n        /* \"#utility.yul\":9832:9951   */\n      iszero\n      tag_442\n      jumpi\n        /* \"#utility.yul\":9870:9949   */\n      tag_443\n      tag_257\n      jump\t// in\n    tag_443:\n        /* \"#utility.yul\":9832:9951   */\n    tag_442:\n        /* \"#utility.yul\":9990:9991   */\n      0x00\n        /* \"#utility.yul\":10015:10068   */\n      tag_444\n        /* \"#utility.yul\":10060:10067   */\n      dup5\n        /* \"#utility.yul\":10051:10057   */\n      dup3\n        /* \"#utility.yul\":10040:10049   */\n      dup6\n        /* \"#utility.yul\":10036:10058   */\n      add\n        /* \"#utility.yul\":10015:10068   */\n      tag_286\n      jump\t// in\n    tag_444:\n        /* \"#utility.yul\":10005:10068   */\n      swap2\n      pop\n        /* \"#utility.yul\":9961:10078   */\n      pop\n        /* \"#utility.yul\":9756:10085   */\n      swap3\n      swap2\n      pop\n      pop\n      jump\t// out\n        /* \"#utility.yul\":10091:10745   */\n    tag_98:\n        /* \"#utility.yul\":10169:10175   */\n      0x00\n        /* \"#utility.yul\":10177:10183   */\n      dup1\n        /* \"#utility.yul\":10226:10228   */\n      0x40\n        /* \"#utility.yul\":10214:10223   */\n      dup4\n        /* \"#utility.yul\":10205:10212   */\n      dup6\n        /* \"#utility.yul\":10201:10224   */\n      sub\n        /* \"#utility.yul\":10197:10229   */\n      slt\n        /* \"#utility.yul\":10194:10313   */\n      iszero\n      tag_446\n      jumpi\n        /* \"#utility.yul\":10232:10311   */\n      tag_447\n      tag_257\n      jump\t// in\n    tag_447:\n        /* \"#utility.yul\":10194:10313   */\n    tag_446:\n        /* \"#utility.yul\":10380:10381   */\n      0x00\n        /* \"#utility.yul\":10369:10378   */\n      dup4\n        /* \"#utility.yul\":10365:10382   */\n      add\n        /* \"#utility.yul\":10352:10383   */\n      calldataload\n        /* \"#utility.yul\":10410:10428   */\n      0xffffffffffffffff\n        /* \"#utility.yul\":10402:10408   */\n      dup2\n        /* \"#utility.yul\":10399:10429   */\n      gt\n        /* \"#utility.yul\":10396:10513   */\n      iszero\n      tag_448\n      jumpi\n        /* \"#utility.yul\":10432:10511   */\n      tag_449\n      tag_258\n      jump\t// in\n    tag_449:\n        /* \"#utility.yul\":10396:10513   */\n    tag_448:\n        /* \"#utility.yul\":10537:10600   */\n      tag_450\n        /* \"#utility.yul\":10592:10599   */\n      dup6\n        /* \"#utility.yul\":10583:10589   */\n      dup3\n        /* \"#utility.yul\":10572:10581   */\n      dup7\n        /* \"#utility.yul\":10568:10590   */\n      add\n        /* \"#utility.yul\":10537:10600   */\n      tag_273\n      jump\t// in\n    tag_450:\n        /* \"#utility.yul\":10527:10600   */\n      swap3\n      pop\n        /* \"#utility.yul\":10323:10610   */\n      pop\n        /* \"#utility.yul\":10649:10651   */\n      0x20\n        /* \"#utility.yul\":10675:10728   */\n      tag_451\n        /* \"#utility.yul\":10720:10727   */\n      dup6\n        /* \"#utility.yul\":10711:10717   */\n      dup3\n        /* \"#utility.yul\":10700:10709   */\n      dup7\n        /* \"#utility.yul\":10696:10718   */\n      add\n        /* \"#utility.yul\":10675:10728   */\n      tag_279\n      jump\t// in\n    tag_451:\n        /* \"#utility.yul\":10665:10728   */\n      swap2\n      pop\n        /* \"#utility.yul\":10620:10738   */\n      pop\n        /* \"#utility.yul\":10091:10745   */\n      swap3\n      pop\n      swap3\n      swap1\n      pop\n      jump\t// out\n        /* \"#utility.yul\":10751:11225   */\n    tag_112:\n        /* \"#utility.yul\":10819:10825   */\n      0x00\n        /* \"#utility.yul\":10827:10833   */\n      dup1\n        /* \"#utility.yul\":10876:10878   */\n      0x40\n        /* \"#utility.yul\":10864:10873   */\n      dup4\n        /* \"#utility.yul\":10855:10862   */\n      dup6\n        /* \"#utility.yul\":10851:10874   */\n      sub\n        /* \"#utility.yul\":10847:10879   */\n      slt\n        /* \"#utility.yul\":10844:10963   */\n      iszero\n      tag_453\n      jumpi\n        /* \"#utility.yul\":10882:10961   */\n      tag_454\n      tag_257\n      jump\t// in\n    tag_454:\n        /* \"#utility.yul\":10844:10963   */\n    tag_453:\n        /* \"#utility.yul\":11002:11003   */\n      0x00\n        /* \"#utility.yul\":11027:11080   */\n      tag_455\n        /* \"#utility.yul\":11072:11079   */\n      dup6\n        /* \"#utility.yul\":11063:11069   */\n      dup3\n        /* \"#utility.yul\":11052:11061   */\n      dup7\n        /* \"#utility.yul\":11048:11070   */\n      add\n        /* \"#utility.yul\":11027:11080   */\n      tag_286\n      jump\t// in\n    tag_455:\n        /* \"#utility.yul\":11017:11080   */\n      swap3\n      pop\n        /* \"#utility.yul\":10973:11090   */\n      pop\n        /* \"#utility.yul\":11129:11131   */\n      0x20\n        /* \"#utility.yul\":11155:11208   */\n      tag_456\n        /* \"#utility.yul\":11200:11207   */\n      dup6\n        /* \"#utility.yul\":11191:11197   */\n      dup3\n        /* \"#utility.yul\":11180:11189   */\n      dup7\n        /* \"#utility.yul\":11176:11198   */\n      add\n        /* \"#utility.yul\":11155:11208   */\n      tag_279\n      jump\t// in\n    tag_456:\n        /* \"#utility.yul\":11145:11208   */\n      swap2\n      pop\n        /* \"#utility.yul\":11100:11218   */\n      pop\n        /* \"#utility.yul\":10751:11225   */\n      swap3\n      pop\n      swap3\n      swap1\n      pop\n      jump\t// out\n        /* \"#utility.yul\":11231:11321   */\n    tag_287:\n        /* \"#utility.yul\":11265:11272   */\n      0x00\n        /* \"#utility.yul\":11308:11313   */\n      dup2\n        /* \"#utility.yul\":11301:11314   */\n      iszero\n        /* \"#utility.yul\":11294:11315   */\n      iszero\n        /* \"#utility.yul\":11283:11315   */\n      swap1\n      pop\n        /* \"#utility.yul\":11231:11321   */\n      swap2\n      swap1\n      pop\n      jump\t// out\n        /* \"#utility.yul\":11327:11436   */\n    tag_288:\n        /* \"#utility.yul\":11408:11429   */\n      tag_459\n        /* \"#utility.yul\":11423:11428   */\n      dup2\n        /* \"#utility.yul\":11408:11429   */\n      tag_287\n      jump\t// in\n    tag_459:\n        /* \"#utility.yul\":11403:11406   */\n      dup3\n        /* \"#utility.yul\":11396:11430   */\n      mstore\n        /* \"#utility.yul\":11327:11436   */\n      pop\n      pop\n      jump\t// out\n        /* \"#utility.yul\":11442:12395   */\n    tag_115:\n        /* \"#utility.yul\":11711:11715   */\n      0x00\n        /* \"#utility.yul\":11749:11752   */\n      0xe0\n        /* \"#utility.yul\":11738:11747   */\n      dup3\n        /* \"#utility.yul\":11734:11753   */\n      add\n        /* \"#utility.yul\":11726:11753   */\n      swap1\n      pop\n        /* \"#utility.yul\":11763:11834   */\n      tag_461\n        /* \"#utility.yul\":11831:11832   */\n      0x00\n        /* \"#utility.yul\":11820:11829   */\n      dup4\n        /* \"#utility.yul\":11816:11833   */\n      add\n        /* \"#utility.yul\":11807:11813   */\n      dup11\n        /* \"#utility.yul\":11763:11834   */\n      tag_284\n      jump\t// in\n    tag_461:\n        /* \"#utility.yul\":11844:11910   */\n      tag_462\n        /* \"#utility.yul\":11906:11908   */\n      0x20\n        /* \"#utility.yul\":11895:11904   */\n      dup4\n        /* \"#utility.yul\":11891:11909   */\n      add\n        /* \"#utility.yul\":11882:11888   */\n      dup10\n        /* \"#utility.yul\":11844:11910   */\n      tag_288\n      jump\t// in\n    tag_462:\n        /* \"#utility.yul\":11920:11992   */\n      tag_463\n        /* \"#utility.yul\":11988:11990   */\n      0x40\n        /* \"#utility.yul\":11977:11986   */\n      dup4\n        /* \"#utility.yul\":11973:11991   */\n      add\n        /* \"#utility.yul\":11964:11970   */\n      dup9\n        /* \"#utility.yul\":11920:11992   */\n      tag_270\n      jump\t// in\n    tag_463:\n        /* \"#utility.yul\":12002:12074   */\n      tag_464\n        /* \"#utility.yul\":12070:12072   */\n      0x60\n        /* \"#utility.yul\":12059:12068   */\n      dup4\n        /* \"#utility.yul\":12055:12073   */\n      add\n        /* \"#utility.yul\":12046:12052   */\n      dup8\n        /* \"#utility.yul\":12002:12074   */\n      tag_270\n      jump\t// in\n    tag_464:\n        /* \"#utility.yul\":12084:12151   */\n      tag_465\n        /* \"#utility.yul\":12146:12149   */\n      0x80\n        /* \"#utility.yul\":12135:12144   */\n      dup4\n        /* \"#utility.yul\":12131:12150   */\n      add\n        /* \"#utility.yul\":12122:12128   */\n      dup7\n        /* \"#utility.yul\":12084:12151   */\n      tag_288\n      jump\t// in\n    tag_465:\n        /* \"#utility.yul\":12199:12208   */\n      dup2\n        /* \"#utility.yul\":12193:12197   */\n      dup2\n        /* \"#utility.yul\":12189:12209   */\n      sub\n        /* \"#utility.yul\":12183:12186   */\n      0xa0\n        /* \"#utility.yul\":12172:12181   */\n      dup4\n        /* \"#utility.yul\":12168:12187   */\n      add\n        /* \"#utility.yul\":12161:12210   */\n      mstore\n        /* \"#utility.yul\":12227:12305   */\n      tag_466\n        /* \"#utility.yul\":12300:12304   */\n      dup2\n        /* \"#utility.yul\":12291:12297   */\n      dup6\n        /* \"#utility.yul\":12227:12305   */\n      tag_282\n      jump\t// in\n    tag_466:\n        /* \"#utility.yul\":12219:12305   */\n      swap1\n      pop\n        /* \"#utility.yul\":12315:12388   */\n      tag_467\n        /* \"#utility.yul\":12383:12386   */\n      0xc0\n        /* \"#utility.yul\":12372:12381   */\n      dup4\n        /* \"#utility.yul\":12368:12387   */\n      add\n        /* \"#utility.yul\":12359:12365   */\n      dup5\n        /* \"#utility.yul\":12315:12388   */\n      tag_270\n      jump\t// in\n    tag_467:\n        /* \"#utility.yul\":11442:12395   */\n      swap9\n      swap8\n      pop\n      pop\n      pop\n      pop\n      pop\n      pop\n      pop\n      pop\n      jump\t// out\n        /* \"#utility.yul\":12401:12574   */\n    tag_289:\n        /* \"#utility.yul\":12541:12566   */\n      0x4279746573206c656e677468206d757374206265203332000000000000000000\n        /* \"#utility.yul\":12537:12538   */\n      0x00\n        /* \"#utility.yul\":12529:12535   */\n      dup3\n        /* \"#utility.yul\":12525:12539   */\n      add\n        /* \"#utility.yul\":12518:12567   */\n      mstore\n        /* \"#utility.yul\":12401:12574   */\n      pop\n      jump\t// out\n        /* \"#utility.yul\":12580:12946   */\n    tag_290:\n        /* \"#utility.yul\":12722:12725   */\n      0x00\n        /* \"#utility.yul\":12743:12810   */\n      tag_470\n        /* \"#utility.yul\":12807:12809   */\n      0x17\n        /* \"#utility.yul\":12802:12805   */\n      dup4\n        /* \"#utility.yul\":12743:12810   */\n      tag_281\n      jump\t// in\n    tag_470:\n        /* \"#utility.yul\":12736:12810   */\n      swap2\n      pop\n        /* \"#utility.yul\":12819:12912   */\n      tag_471\n        /* \"#utility.yul\":12908:12911   */\n      dup3\n        /* \"#utility.yul\":12819:12912   */\n      tag_289\n      jump\t// in\n    tag_471:\n        /* \"#utility.yul\":12937:12939   */\n      0x20\n        /* \"#utility.yul\":12932:12935   */\n      dup3\n        /* \"#utility.yul\":12928:12940   */\n      add\n        /* \"#utility.yul\":12921:12940   */\n      swap1\n      pop\n        /* \"#utility.yul\":12580:12946   */\n      swap2\n      swap1\n      pop\n      jump\t// out\n        /* \"#utility.yul\":12952:13371   */\n    tag_128:\n        /* \"#utility.yul\":13118:13122   */\n      0x00\n        /* \"#utility.yul\":13156:13158   */\n      0x20\n        /* \"#utility.yul\":13145:13154   */\n      dup3\n        /* \"#utility.yul\":13141:13159   */\n      add\n        /* \"#utility.yul\":13133:13159   */\n      swap1\n      pop\n        /* \"#utility.yul\":13205:13214   */\n      dup2\n        /* \"#utility.yul\":13199:13203   */\n      dup2\n        /* \"#utility.yul\":13195:13215   */\n      sub\n        /* \"#utility.yul\":13191:13192   */\n      0x00\n        /* \"#utility.yul\":13180:13189   */\n      dup4\n        /* \"#utility.yul\":13176:13193   */\n      add\n        /* \"#utility.yul\":13169:13216   */\n      mstore\n        /* \"#utility.yul\":13233:13364   */\n      tag_473\n        /* \"#utility.yul\":13359:13363   */\n      dup2\n        /* \"#utility.yul\":13233:13364   */\n      tag_290\n      jump\t// in\n    tag_473:\n        /* \"#utility.yul\":13225:13364   */\n      swap1\n      pop\n        /* \"#utility.yul\":12952:13371   */\n      swap2\n      swap1\n      pop\n      jump\t// out\n        /* \"#utility.yul\":13377:13494   */\n    tag_291:\n        /* \"#utility.yul\":13486:13487   */\n      0x00\n        /* \"#utility.yul\":13483:13484   */\n      dup1\n        /* \"#utility.yul\":13476:13488   */\n      revert\n        /* \"#utility.yul\":13500:13617   */\n    tag_292:\n        /* \"#utility.yul\":13609:13610   */\n      0x00\n        /* \"#utility.yul\":13606:13607   */\n      dup1\n        /* \"#utility.yul\":13599:13611   */\n      revert\n        /* \"#utility.yul\":13623:14055   */\n    tag_293:\n        /* \"#utility.yul\":13711:13716   */\n      0x00\n        /* \"#utility.yul\":13736:13801   */\n      tag_477\n        /* \"#utility.yul\":13752:13800   */\n      tag_478\n        /* \"#utility.yul\":13793:13799   */\n      dup5\n        /* \"#utility.yul\":13752:13800   */\n      tag_265\n      jump\t// in\n    tag_478:\n        /* \"#utility.yul\":13736:13801   */\n      tag_264\n      jump\t// in\n    tag_477:\n        /* \"#utility.yul\":13727:13801   */\n      swap1\n      pop\n        /* \"#utility.yul\":13824:13830   */\n      dup3\n        /* \"#utility.yul\":13817:13822   */\n      dup2\n        /* \"#utility.yul\":13810:13831   */\n      mstore\n        /* \"#utility.yul\":13862:13866   */\n      0x20\n        /* \"#utility.yul\":13855:13860   */\n      dup2\n        /* \"#utility.yul\":13851:13867   */\n      add\n        /* \"#utility.yul\":13900:13903   */\n      dup5\n        /* \"#utility.yul\":13891:13897   */\n      dup5\n        /* \"#utility.yul\":13886:13889   */\n      dup5\n        /* \"#utility.yul\":13882:13898   */\n      add\n        /* \"#utility.yul\":13879:13904   */\n      gt\n        /* \"#utility.yul\":13876:13988   */\n      iszero\n      tag_479\n      jumpi\n        /* \"#utility.yul\":13907:13986   */\n      tag_480\n      tag_260\n      jump\t// in\n    tag_480:\n        /* \"#utility.yul\":13876:13988   */\n    tag_479:\n        /* \"#utility.yul\":13997:14049   */\n      tag_481\n        /* \"#utility.yul\":14042:14048   */\n      dup5\n        /* \"#utility.yul\":14037:14040   */\n      dup3\n        /* \"#utility.yul\":14032:14035   */\n      dup6\n        /* \"#utility.yul\":13997:14049   */\n      tag_276\n      jump\t// in\n    tag_481:\n        /* \"#utility.yul\":13717:14055   */\n      pop\n        /* \"#utility.yul\":13623:14055   */\n      swap4\n      swap3\n      pop\n      pop\n      pop\n      jump\t// out\n        /* \"#utility.yul\":14074:14427   */\n    tag_294:\n        /* \"#utility.yul\":14140:14145   */\n      0x00\n        /* \"#utility.yul\":14189:14192   */\n      dup3\n        /* \"#utility.yul\":14182:14186   */\n      0x1f\n        /* \"#utility.yul\":14174:14180   */\n      dup4\n        /* \"#utility.yul\":14170:14187   */\n      add\n        /* \"#utility.yul\":14166:14193   */\n      slt\n        /* \"#utility.yul\":14156:14278   */\n      tag_483\n      jumpi\n        /* \"#utility.yul\":14197:14276   */\n      tag_484\n      tag_259\n      jump\t// in\n    tag_484:\n        /* \"#utility.yul\":14156:14278   */\n    tag_483:\n        /* \"#utility.yul\":14307:14313   */\n      dup2\n        /* \"#utility.yul\":14301:14314   */\n      mload\n        /* \"#utility.yul\":14332:14421   */\n      tag_485\n        /* \"#utility.yul\":14417:14420   */\n      dup5\n        /* \"#utility.yul\":14409:14415   */\n      dup3\n        /* \"#utility.yul\":14402:14406   */\n      0x20\n        /* \"#utility.yul\":14394:14400   */\n      dup7\n        /* \"#utility.yul\":14390:14407   */\n      add\n        /* \"#utility.yul\":14332:14421   */\n      tag_293\n      jump\t// in\n    tag_485:\n        /* \"#utility.yul\":14323:14421   */\n      swap2\n      pop\n        /* \"#utility.yul\":14146:14427   */\n      pop\n        /* \"#utility.yul\":14074:14427   */\n      swap3\n      swap2\n      pop\n      pop\n      jump\t// out\n        /* \"#utility.yul\":14433:14576   */\n    tag_295:\n        /* \"#utility.yul\":14490:14495   */\n      0x00\n        /* \"#utility.yul\":14521:14527   */\n      dup2\n        /* \"#utility.yul\":14515:14528   */\n      mload\n        /* \"#utility.yul\":14506:14528   */\n      swap1\n      pop\n        /* \"#utility.yul\":14537:14570   */\n      tag_487\n        /* \"#utility.yul\":14564:14569   */\n      dup2\n        /* \"#utility.yul\":14537:14570   */\n      tag_278\n      jump\t// in\n    tag_487:\n        /* \"#utility.yul\":14433:14576   */\n      swap3\n      swap2\n      pop\n      pop\n      jump\t// out\n        /* \"#utility.yul\":14622:15394   */\n    tag_296:\n        /* \"#utility.yul\":14706:14711   */\n      0x00\n        /* \"#utility.yul\":14750:14754   */\n      0x40\n        /* \"#utility.yul\":14738:14747   */\n      dup3\n        /* \"#utility.yul\":14733:14736   */\n      dup5\n        /* \"#utility.yul\":14729:14748   */\n      sub\n        /* \"#utility.yul\":14725:14755   */\n      slt\n        /* \"#utility.yul\":14722:14839   */\n      iszero\n      tag_489\n      jumpi\n        /* \"#utility.yul\":14758:14837   */\n      tag_490\n      tag_291\n      jump\t// in\n    tag_490:\n        /* \"#utility.yul\":14722:14839   */\n    tag_489:\n        /* \"#utility.yul\":14857:14878   */\n      tag_491\n        /* \"#utility.yul\":14873:14877   */\n      0x40\n        /* \"#utility.yul\":14857:14878   */\n      tag_264\n      jump\t// in\n    tag_491:\n        /* \"#utility.yul\":14848:14878   */\n      swap1\n      pop\n        /* \"#utility.yul\":14957:14958   */\n      0x00\n        /* \"#utility.yul\":14946:14955   */\n      dup3\n        /* \"#utility.yul\":14942:14959   */\n      add\n        /* \"#utility.yul\":14936:14960   */\n      mload\n        /* \"#utility.yul\":14987:15005   */\n      0xffffffffffffffff\n        /* \"#utility.yul\":14979:14985   */\n      dup2\n        /* \"#utility.yul\":14976:15006   */\n      gt\n        /* \"#utility.yul\":14973:15090   */\n      iszero\n      tag_492\n      jumpi\n        /* \"#utility.yul\":15009:15088   */\n      tag_493\n      tag_292\n      jump\t// in\n    tag_493:\n        /* \"#utility.yul\":14973:15090   */\n    tag_492:\n        /* \"#utility.yul\":15129:15198   */\n      tag_494\n        /* \"#utility.yul\":15194:15197   */\n      dup5\n        /* \"#utility.yul\":15185:15191   */\n      dup3\n        /* \"#utility.yul\":15174:15183   */\n      dup6\n        /* \"#utility.yul\":15170:15192   */\n      add\n        /* \"#utility.yul\":15129:15198   */\n      tag_294\n      jump\t// in\n    tag_494:\n        /* \"#utility.yul\":15122:15126   */\n      0x00\n        /* \"#utility.yul\":15115:15120   */\n      dup4\n        /* \"#utility.yul\":15111:15127   */\n      add\n        /* \"#utility.yul\":15104:15199   */\n      mstore\n        /* \"#utility.yul\":14888:15210   */\n      pop\n        /* \"#utility.yul\":15274:15276   */\n      0x20\n        /* \"#utility.yul\":15315:15375   */\n      tag_495\n        /* \"#utility.yul\":15371:15374   */\n      dup5\n        /* \"#utility.yul\":15362:15368   */\n      dup3\n        /* \"#utility.yul\":15351:15360   */\n      dup6\n        /* \"#utility.yul\":15347:15369   */\n      add\n        /* \"#utility.yul\":15315:15375   */\n      tag_295\n      jump\t// in\n    tag_495:\n        /* \"#utility.yul\":15308:15312   */\n      0x20\n        /* \"#utility.yul\":15301:15306   */\n      dup4\n        /* \"#utility.yul\":15297:15313   */\n      add\n        /* \"#utility.yul\":15290:15376   */\n      mstore\n        /* \"#utility.yul\":15220:15387   */\n      pop\n        /* \"#utility.yul\":14622:15394   */\n      swap3\n      swap2\n      pop\n      pop\n      jump\t// out\n        /* \"#utility.yul\":15400:15952   */\n    tag_135:\n        /* \"#utility.yul\":15494:15500   */\n      0x00\n        /* \"#utility.yul\":15543:15545   */\n      0x20\n        /* \"#utility.yul\":15531:15540   */\n      dup3\n        /* \"#utility.yul\":15522:15529   */\n      dup5\n        /* \"#utility.yul\":15518:15541   */\n      sub\n        /* \"#utility.yul\":15514:15546   */\n      slt\n        /* \"#utility.yul\":15511:15630   */\n      iszero\n      tag_497\n      jumpi\n        /* \"#utility.yul\":15549:15628   */\n      tag_498\n      tag_257\n      jump\t// in\n    tag_498:\n        /* \"#utility.yul\":15511:15630   */\n    tag_497:\n        /* \"#utility.yul\":15690:15691   */\n      0x00\n        /* \"#utility.yul\":15679:15688   */\n      dup3\n        /* \"#utility.yul\":15675:15692   */\n      add\n        /* \"#utility.yul\":15669:15693   */\n      mload\n        /* \"#utility.yul\":15720:15738   */\n      0xffffffffffffffff\n        /* \"#utility.yul\":15712:15718   */\n      dup2\n        /* \"#utility.yul\":15709:15739   */\n      gt\n        /* \"#utility.yul\":15706:15823   */\n      iszero\n      tag_499\n      jumpi\n        /* \"#utility.yul\":15742:15821   */\n      tag_500\n      tag_258\n      jump\t// in\n    tag_500:\n        /* \"#utility.yul\":15706:15823   */\n    tag_499:\n        /* \"#utility.yul\":15847:15935   */\n      tag_501\n        /* \"#utility.yul\":15927:15934   */\n      dup5\n        /* \"#utility.yul\":15918:15924   */\n      dup3\n        /* \"#utility.yul\":15907:15916   */\n      dup6\n        /* \"#utility.yul\":15903:15925   */\n      add\n        /* \"#utility.yul\":15847:15935   */\n      tag_296\n      jump\t// in\n    tag_501:\n        /* \"#utility.yul\":15837:15935   */\n      swap2\n      pop\n        /* \"#utility.yul\":15640:15945   */\n      pop\n        /* \"#utility.yul\":15400:15952   */\n      swap3\n      swap2\n      pop\n      pop\n      jump\t// out\n        /* \"#utility.yul\":15958:16138   */\n    tag_297:\n        /* \"#utility.yul\":16006:16083   */\n      0x4e487b7100000000000000000000000000000000000000000000000000000000\n        /* \"#utility.yul\":16003:16004   */\n      0x00\n        /* \"#utility.yul\":15996:16084   */\n      mstore\n        /* \"#utility.yul\":16103:16107   */\n      0x22\n        /* \"#utility.yul\":16100:16101   */\n      0x04\n        /* \"#utility.yul\":16093:16108   */\n      mstore\n        /* \"#utility.yul\":16127:16131   */\n      0x24\n        /* \"#utility.yul\":16124:16125   */\n      0x00\n        /* \"#utility.yul\":16117:16132   */\n      revert\n        /* \"#utility.yul\":16144:16464   */\n    tag_152:\n        /* \"#utility.yul\":16188:16194   */\n      0x00\n        /* \"#utility.yul\":16225:16226   */\n      0x02\n        /* \"#utility.yul\":16219:16223   */\n      dup3\n        /* \"#utility.yul\":16215:16227   */\n      div\n        /* \"#utility.yul\":16205:16227   */\n      swap1\n      pop\n        /* \"#utility.yul\":16272:16273   */\n      0x01\n        /* \"#utility.yul\":16266:16270   */\n      dup3\n        /* \"#utility.yul\":16262:16274   */\n      and\n        /* \"#utility.yul\":16293:16311   */\n      dup1\n        /* \"#utility.yul\":16283:16364   */\n      tag_504\n      jumpi\n        /* \"#utility.yul\":16349:16353   */\n      0x7f\n        /* \"#utility.yul\":16341:16347   */\n      dup3\n        /* \"#utility.yul\":16337:16354   */\n      and\n        /* \"#utility.yul\":16327:16354   */\n      swap2\n      pop\n        /* \"#utility.yul\":16283:16364   */\n    tag_504:\n        /* \"#utility.yul\":16411:16413   */\n      0x20\n        /* \"#utility.yul\":16403:16409   */\n      dup3\n        /* \"#utility.yul\":16400:16414   */\n      lt\n        /* \"#utility.yul\":16380:16398   */\n      dup2\n        /* \"#utility.yul\":16377:16415   */\n      sub\n        /* \"#utility.yul\":16374:16458   */\n      tag_505\n      jumpi\n        /* \"#utility.yul\":16430:16448   */\n      tag_506\n      tag_297\n      jump\t// in\n    tag_506:\n        /* \"#utility.yul\":16374:16458   */\n    tag_505:\n        /* \"#utility.yul\":16195:16464   */\n      pop\n        /* \"#utility.yul\":16144:16464   */\n      swap2\n      swap1\n      pop\n      jump\t// out\n        /* \"#utility.yul\":16470:16611   */\n    tag_298:\n        /* \"#utility.yul\":16519:16523   */\n      0x00\n        /* \"#utility.yul\":16542:16545   */\n      dup2\n        /* \"#utility.yul\":16534:16545   */\n      swap1\n      pop\n        /* \"#utility.yul\":16565:16568   */\n      dup2\n        /* \"#utility.yul\":16562:16563   */\n      0x00\n        /* \"#utility.yul\":16555:16569   */\n      mstore\n        /* \"#utility.yul\":16599:16603   */\n      0x20\n        /* \"#utility.yul\":16596:16597   */\n      0x00\n        /* \"#utility.yul\":16586:16604   */\n      keccak256\n        /* \"#utility.yul\":16578:16604   */\n      swap1\n      pop\n        /* \"#utility.yul\":16470:16611   */\n      swap2\n      swap1\n      pop\n      jump\t// out\n        /* \"#utility.yul\":16617:16710   */\n    tag_299:\n        /* \"#utility.yul\":16654:16660   */\n      0x00\n        /* \"#utility.yul\":16701:16703   */\n      0x20\n        /* \"#utility.yul\":16696:16698   */\n      0x1f\n        /* \"#utility.yul\":16689:16694   */\n      dup4\n        /* \"#utility.yul\":16685:16699   */\n      add\n        /* \"#utility.yul\":16681:16704   */\n      div\n        /* \"#utility.yul\":16671:16704   */\n      swap1\n      pop\n        /* \"#utility.yul\":16617:16710   */\n      swap2\n      swap1\n      pop\n      jump\t// out\n        /* \"#utility.yul\":16716:16823   */\n    tag_300:\n        /* \"#utility.yul\":16760:16768   */\n      0x00\n        /* \"#utility.yul\":16810:16815   */\n      dup3\n        /* \"#utility.yul\":16804:16808   */\n      dup3\n        /* \"#utility.yul\":16800:16816   */\n      shl\n        /* \"#utility.yul\":16779:16816   */\n      swap1\n      pop\n        /* \"#utility.yul\":16716:16823   */\n      swap3\n      swap2\n      pop\n      pop\n      jump\t// out\n        /* \"#utility.yul\":16829:17222   */\n    tag_301:\n        /* \"#utility.yul\":16898:16904   */\n      0x00\n        /* \"#utility.yul\":16948:16949   */\n      0x08\n        /* \"#utility.yul\":16936:16946   */\n      dup4\n        /* \"#utility.yul\":16932:16950   */\n      mul\n        /* \"#utility.yul\":16971:17068   */\n      tag_511\n        /* \"#utility.yul\":17001:17067   */\n      0xffffffffffffffffffffffffffffffffffffffffffffffffffffffffffffffff\n        /* \"#utility.yul\":16990:16999   */\n      dup3\n        /* \"#utility.yul\":16971:17068   */\n      tag_300\n      jump\t// in\n    tag_511:\n        /* \"#utility.yul\":17089:17128   */\n      tag_512\n        /* \"#utility.yul\":17119:17127   */\n      dup7\n        /* \"#utility.yul\":17108:17117   */\n      dup4\n        /* \"#utility.yul\":17089:17128   */\n      tag_300\n      jump\t// in\n    tag_512:\n        /* \"#utility.yul\":17077:17128   */\n      swap6\n      pop\n        /* \"#utility.yul\":17161:17165   */\n      dup1\n        /* \"#utility.yul\":17157:17166   */\n      not\n        /* \"#utility.yul\":17150:17155   */\n      dup5\n        /* \"#utility.yul\":17146:17167   */\n      and\n        /* \"#utility.yul\":17137:17167   */\n      swap4\n      pop\n        /* \"#utility.yul\":17210:17214   */\n      dup1\n        /* \"#utility.yul\":17200:17208   */\n      dup7\n        /* \"#utility.yul\":17196:17215   */\n      and\n        /* \"#utility.yul\":17189:17194   */\n      dup5\n        /* \"#utility.yul\":17186:17216   */\n      or\n        /* \"#utility.yul\":17176:17216   */\n      swap3\n      pop\n        /* \"#utility.yul\":16905:17222   */\n      pop\n      pop\n        /* \"#utility.yul\":16829:17222   */\n      swap4\n      swap3\n      pop\n      pop\n      pop\n      jump\t// out\n        /* \"#utility.yul\":17228:17370   */\n    tag_302:\n        /* \"#utility.yul\":17278:17287   */\n      0x00\n        /* \"#utility.yul\":17311:17364   */\n      tag_514\n        /* \"#utility.yul\":17329:17363   */\n      tag_515\n        /* \"#utility.yul\":17338:17362   */\n      tag_516\n        /* \"#utility.yul\":17356:17361   */\n      dup5\n        /* \"#utility.yul\":17338:17362   */\n      tag_269\n      jump\t// in\n    tag_516:\n        /* \"#utility.yul\":17329:17363   */\n      tag_251\n      jump\t// in\n    tag_515:\n        /* \"#utility.yul\":17311:17364   */\n      tag_269\n      jump\t// in\n    tag_514:\n        /* \"#utility.yul\":17298:17364   */\n      swap1\n      pop\n        /* \"#utility.yul\":17228:17370   */\n      swap2\n      swap1\n      pop\n      jump\t// out\n        /* \"#utility.yul\":17376:17451   */\n    tag_303:\n        /* \"#utility.yul\":17419:17422   */\n      0x00\n        /* \"#utility.yul\":17440:17445   */\n      dup2\n        /* \"#utility.yul\":17433:17445   */\n      swap1\n      pop\n        /* \"#utility.yul\":17376:17451   */\n      swap2\n      swap1\n      pop\n      jump\t// out\n        /* \"#utility.yul\":17457:17726   */\n    tag_304:\n        /* \"#utility.yul\":17567:17606   */\n      tag_519\n        /* \"#utility.yul\":17598:17605   */\n      dup4\n        /* \"#utility.yul\":17567:17606   */\n      tag_302\n      jump\t// in\n    tag_519:\n        /* \"#utility.yul\":17628:17719   */\n      tag_520\n        /* \"#utility.yul\":17677:17718   */\n      tag_521\n        /* \"#utility.yul\":17701:17717   */\n      dup3\n        /* \"#utility.yul\":17677:17718   */\n      tag_303\n      jump\t// in\n    tag_521:\n        /* \"#utility.yul\":17669:17675   */\n      dup5\n        /* \"#utility.yul\":17662:17666   */\n      dup5\n        /* \"#utility.yul\":17656:17667   */\n      sload\n        /* \"#utility.yul\":17628:17719   */\n      tag_301\n      jump\t// in\n    tag_520:\n        /* \"#utility.yul\":17622:17626   */\n      dup3\n        /* \"#utility.yul\":17615:17720   */\n      sstore\n        /* \"#utility.yul\":17533:17726   */\n      pop\n        /* \"#utility.yul\":17457:17726   */\n      pop\n      pop\n      pop\n      jump\t// out\n        /* \"#utility.yul\":17732:17805   */\n    tag_305:\n        /* \"#utility.yul\":17777:17780   */\n      0x00\n        /* \"#utility.yul\":17732:17805   */\n      swap1\n      jump\t// out\n        /* \"#utility.yul\":17811:18000   */\n    tag_306:\n        /* \"#utility.yul\":17888:17920   */\n      tag_524\n      tag_305\n      jump\t// in\n    tag_524:\n        /* \"#utility.yul\":17929:17994   */\n      tag_525\n        /* \"#utility.yul\":17987:17993   */\n      dup2\n        /* \"#utility.yul\":17979:17985   */\n      dup5\n        /* \"#utility.yul\":17973:17977   */\n      dup5\n        /* \"#utility.yul\":17929:17994   */\n      tag_304\n      jump\t// in\n    tag_525:\n        /* \"#utility.yul\":17864:18000   */\n      pop\n        /* \"#utility.yul\":17811:18000   */\n      pop\n      pop\n      jump\t// out\n        /* \"#utility.yul\":18006:18192   */\n    tag_307:\n        /* \"#utility.yul\":18066:18186   */\n    tag_527:\n        /* \"#utility.yul\":18083:18086   */\n      dup2\n        /* \"#utility.yul\":18076:18081   */\n      dup2\n        /* \"#utility.yul\":18073:18087   */\n      lt\n        /* \"#utility.yul\":18066:18186   */\n      iszero\n      tag_529\n      jumpi\n        /* \"#utility.yul\":18137:18176   */\n      tag_530\n        /* \"#utility.yul\":18174:18175   */\n      0x00\n        /* \"#utility.yul\":18167:18172   */\n      dup3\n        /* \"#utility.yul\":18137:18176   */\n      tag_306\n      jump\t// in\n    tag_530:\n        /* \"#utility.yul\":18110:18111   */\n      0x01\n        /* \"#utility.yul\":18103:18108   */\n      dup2\n        /* \"#utility.yul\":18099:18112   */\n      add\n        /* \"#utility.yul\":18090:18112   */\n      swap1\n      pop\n        /* \"#utility.yul\":18066:18186   */\n      jump(tag_527)\n    tag_529:\n        /* \"#utility.yul\":18006:18192   */\n      pop\n      pop\n      jump\t// out\n        /* \"#utility.yul\":18198:18741   */\n    tag_308:\n        /* \"#utility.yul\":18299:18301   */\n      0x1f\n        /* \"#utility.yul\":18294:18297   */\n      dup3\n        /* \"#utility.yul\":18291:18302   */\n      gt\n        /* \"#utility.yul\":18288:18734   */\n      iszero\n      tag_532\n      jumpi\n        /* \"#utility.yul\":18333:18371   */\n      tag_533\n        /* \"#utility.yul\":18365:18370   */\n      dup2\n        /* \"#utility.yul\":18333:18371   */\n      tag_298\n      jump\t// in\n    tag_533:\n        /* \"#utility.yul\":18417:18446   */\n      tag_534\n        /* \"#utility.yul\":18435:18445   */\n      dup5\n        /* \"#utility.yul\":18417:18446   */\n      tag_299\n      jump\t// in\n    tag_534:\n        /* \"#utility.yul\":18407:18415   */\n      dup2\n        /* \"#utility.yul\":18403:18447   */\n      add\n        /* \"#utility.yul\":18600:18602   */\n      0x20\n        /* \"#utility.yul\":18588:18598   */\n      dup6\n        /* \"#utility.yul\":18585:18603   */\n      lt\n        /* \"#utility.yul\":18582:18631   */\n      iszero\n      tag_535\n      jumpi\n        /* \"#utility.yul\":18621:18629   */\n      dup2\n        /* \"#utility.yul\":18606:18629   */\n      swap1\n      pop\n        /* \"#utility.yul\":18582:18631   */\n    tag_535:\n        /* \"#utility.yul\":18644:18724   */\n      tag_536\n        /* \"#utility.yul\":18700:18722   */\n      tag_537\n        /* \"#utility.yul\":18718:18721   */\n      dup6\n        /* \"#utility.yul\":18700:18722   */\n      tag_299\n      jump\t// in\n    tag_537:\n        /* \"#utility.yul\":18690:18698   */\n      dup4\n        /* \"#utility.yul\":18686:18723   */\n      add\n        /* \"#utility.yul\":18673:18684   */\n      dup3\n        /* \"#utility.yul\":18644:18724   */\n      tag_307\n      jump\t// in\n    tag_536:\n        /* \"#utility.yul\":18303:18734   */\n      pop\n      pop\n        /* \"#utility.yul\":18288:18734   */\n    tag_532:\n        /* \"#utility.yul\":18198:18741   */\n      pop\n      pop\n      pop\n      jump\t// out\n        /* \"#utility.yul\":18747:18864   */\n    tag_309:\n        /* \"#utility.yul\":18801:18809   */\n      0x00\n        /* \"#utility.yul\":18851:18856   */\n      dup3\n        /* \"#utility.yul\":18845:18849   */\n      dup3\n        /* \"#utility.yul\":18841:18857   */\n      shr\n        /* \"#utility.yul\":18820:18857   */\n      swap1\n      pop\n        /* \"#utility.yul\":18747:18864   */\n      swap3\n      swap2\n      pop\n      pop\n      jump\t// out\n        /* \"#utility.yul\":18870:19039   */\n    tag_310:\n        /* \"#utility.yul\":18914:18920   */\n      0x00\n        /* \"#utility.yul\":18947:18998   */\n      tag_540\n        /* \"#utility.yul\":18995:18996   */\n      0x00\n        /* \"#utility.yul\":18991:18997   */\n      not\n        /* \"#utility.yul\":18983:18988   */\n      dup5\n        /* \"#utility.yul\":18980:18981   */\n      0x08\n        /* \"#utility.yul\":18976:18989   */\n      mul\n        /* \"#utility.yul\":18947:18998   */\n      tag_309\n      jump\t// in\n    tag_540:\n        /* \"#utility.yul\":18943:18999   */\n      not\n        /* \"#utility.yul\":19028:19032   */\n      dup1\n        /* \"#utility.yul\":19022:19026   */\n      dup4\n        /* \"#utility.yul\":19018:19033   */\n      and\n        /* \"#utility.yul\":19008:19033   */\n      swap2\n      pop\n        /* \"#utility.yul\":18921:19039   */\n      pop\n        /* \"#utility.yul\":18870:19039   */\n      swap3\n      swap2\n      pop\n      pop\n      jump\t// out\n        /* \"#utility.yul\":19044:19339   */\n    tag_311:\n        /* \"#utility.yul\":19120:19124   */\n      0x00\n        /* \"#utility.yul\":19266:19295   */\n      tag_542\n        /* \"#utility.yul\":19291:19294   */\n      dup4\n        /* \"#utility.yul\":19285:19289   */\n      dup4\n        /* \"#utility.yul\":19266:19295   */\n      tag_310\n      jump\t// in\n    tag_542:\n        /* \"#utility.yul\":19258:19295   */\n      swap2\n      pop\n        /* \"#utility.yul\":19328:19331   */\n      dup3\n        /* \"#utility.yul\":19325:19326   */\n      0x02\n        /* \"#utility.yul\":19321:19332   */\n      mul\n        /* \"#utility.yul\":19315:19319   */\n      dup3\n        /* \"#utility.yul\":19312:19333   */\n      or\n        /* \"#utility.yul\":19304:19333   */\n      swap1\n      pop\n        /* \"#utility.yul\":19044:19339   */\n      swap3\n      swap2\n      pop\n      pop\n      jump\t// out\n        /* \"#utility.yul\":19344:20739   */\n    tag_145:\n        /* \"#utility.yul\":19461:19498   */\n      tag_544\n        /* \"#utility.yul\":19494:19497   */\n      dup3\n        /* \"#utility.yul\":19461:19498   */\n      tag_280\n      jump\t// in\n    tag_544:\n        /* \"#utility.yul\":19563:19581   */\n      0xffffffffffffffff\n        /* \"#utility.yul\":19555:19561   */\n      dup2\n        /* \"#utility.yul\":19552:19582   */\n      gt\n        /* \"#utility.yul\":19549:19605   */\n      iszero\n      tag_545\n      jumpi\n        /* \"#utility.yul\":19585:19603   */\n      tag_546\n      tag_262\n      jump\t// in\n    tag_546:\n        /* \"#utility.yul\":19549:19605   */\n    tag_545:\n        /* \"#utility.yul\":19629:19667   */\n      tag_547\n        /* \"#utility.yul\":19661:19665   */\n      dup3\n        /* \"#utility.yul\":19655:19666   */\n      sload\n        /* \"#utility.yul\":19629:19667   */\n      tag_152\n      jump\t// in\n    tag_547:\n        /* \"#utility.yul\":19714:19781   */\n      tag_548\n        /* \"#utility.yul\":19774:19780   */\n      dup3\n        /* \"#utility.yul\":19766:19772   */\n      dup3\n        /* \"#utility.yul\":19760:19764   */\n      dup6\n        /* \"#utility.yul\":19714:19781   */\n      tag_308\n      jump\t// in\n    tag_548:\n        /* \"#utility.yul\":19808:19809   */\n      0x00\n        /* \"#utility.yul\":19832:19836   */\n      0x20\n        /* \"#utility.yul\":19819:19836   */\n      swap1\n      pop\n        /* \"#utility.yul\":19864:19866   */\n      0x1f\n        /* \"#utility.yul\":19856:19862   */\n      dup4\n        /* \"#utility.yul\":19853:19867   */\n      gt\n        /* \"#utility.yul\":19881:19882   */\n      0x01\n        /* \"#utility.yul\":19876:20494   */\n      dup2\n      eq\n      tag_550\n      jumpi\n        /* \"#utility.yul\":20538:20539   */\n      0x00\n        /* \"#utility.yul\":20555:20561   */\n      dup5\n        /* \"#utility.yul\":20552:20629   */\n      iszero\n      tag_551\n      jumpi\n        /* \"#utility.yul\":20604:20613   */\n      dup3\n        /* \"#utility.yul\":20599:20602   */\n      dup8\n        /* \"#utility.yul\":20595:20614   */\n      add\n        /* \"#utility.yul\":20589:20615   */\n      mload\n        /* \"#utility.yul\":20580:20615   */\n      swap1\n      pop\n        /* \"#utility.yul\":20552:20629   */\n    tag_551:\n        /* \"#utility.yul\":20655:20722   */\n      tag_552\n        /* \"#utility.yul\":20715:20721   */\n      dup6\n        /* \"#utility.yul\":20708:20713   */\n      dup3\n        /* \"#utility.yul\":20655:20722   */\n      tag_311\n      jump\t// in\n    tag_552:\n        /* \"#utility.yul\":20649:20653   */\n      dup7\n        /* \"#utility.yul\":20642:20723   */\n      sstore\n        /* \"#utility.yul\":20511:20733   */\n      pop\n        /* \"#utility.yul\":19846:20733   */\n      jump(tag_549)\n        /* \"#utility.yul\":19876:20494   */\n    tag_550:\n        /* \"#utility.yul\":19928:19932   */\n      0x1f\n        /* \"#utility.yul\":19924:19933   */\n      not\n        /* \"#utility.yul\":19916:19922   */\n      dup5\n        /* \"#utility.yul\":19912:19934   */\n      and\n        /* \"#utility.yul\":19962:19999   */\n      tag_553\n        /* \"#utility.yul\":19994:19998   */\n      dup7\n        /* \"#utility.yul\":19962:19999   */\n      tag_298\n      jump\t// in\n    tag_553:\n        /* \"#utility.yul\":20021:20022   */\n      0x00\n        /* \"#utility.yul\":20035:20243   */\n    tag_554:\n        /* \"#utility.yul\":20049:20056   */\n      dup3\n        /* \"#utility.yul\":20046:20047   */\n      dup2\n        /* \"#utility.yul\":20043:20057   */\n      lt\n        /* \"#utility.yul\":20035:20243   */\n      iszero\n      tag_556\n      jumpi\n        /* \"#utility.yul\":20128:20137   */\n      dup5\n        /* \"#utility.yul\":20123:20126   */\n      dup10\n        /* \"#utility.yul\":20119:20138   */\n      add\n        /* \"#utility.yul\":20113:20139   */\n      mload\n        /* \"#utility.yul\":20105:20111   */\n      dup3\n        /* \"#utility.yul\":20098:20140   */\n      sstore\n        /* \"#utility.yul\":20179:20180   */\n      0x01\n        /* \"#utility.yul\":20171:20177   */\n      dup3\n        /* \"#utility.yul\":20167:20181   */\n      add\n        /* \"#utility.yul\":20157:20181   */\n      swap2\n      pop\n        /* \"#utility.yul\":20226:20228   */\n      0x20\n        /* \"#utility.yul\":20215:20224   */\n      dup6\n        /* \"#utility.yul\":20211:20229   */\n      add\n        /* \"#utility.yul\":20198:20229   */\n      swap5\n      pop\n        /* \"#utility.yul\":20072:20076   */\n      0x20\n        /* \"#utility.yul\":20069:20070   */\n      dup2\n        /* \"#utility.yul\":20065:20077   */\n      add\n        /* \"#utility.yul\":20060:20077   */\n      swap1\n      pop\n        /* \"#utility.yul\":20035:20243   */\n      jump(tag_554)\n    tag_556:\n        /* \"#utility.yul\":20271:20277   */\n      dup7\n        /* \"#utility.yul\":20262:20269   */\n      dup4\n        /* \"#utility.yul\":20259:20278   */\n      lt\n        /* \"#utility.yul\":20256:20435   */\n      iszero\n      tag_557\n      jumpi\n        /* \"#utility.yul\":20329:20338   */\n      dup5\n        /* \"#utility.yul\":20324:20327   */\n      dup10\n        /* \"#utility.yul\":20320:20339   */\n      add\n        /* \"#utility.yul\":20314:20340   */\n      mload\n        /* \"#utility.yul\":20372:20420   */\n      tag_558\n        /* \"#utility.yul\":20414:20418   */\n      0x1f\n        /* \"#utility.yul\":20406:20412   */\n      dup10\n        /* \"#utility.yul\":20402:20419   */\n      and\n        /* \"#utility.yul\":20391:20400   */\n      dup3\n        /* \"#utility.yul\":20372:20420   */\n      tag_310\n      jump\t// in\n    tag_558:\n        /* \"#utility.yul\":20364:20370   */\n      dup4\n        /* \"#utility.yul\":20357:20421   */\n      sstore\n        /* \"#utility.yul\":20279:20435   */\n      pop\n        /* \"#utility.yul\":20256:20435   */\n    tag_557:\n        /* \"#utility.yul\":20481:20482   */\n      0x01\n        /* \"#utility.yul\":20477:20478   */\n      0x02\n        /* \"#utility.yul\":20469:20475   */\n      dup9\n        /* \"#utility.yul\":20465:20479   */\n      mul\n        /* \"#utility.yul\":20461:20483   */\n      add\n        /* \"#utility.yul\":20455:20459   */\n      dup9\n        /* \"#utility.yul\":20448:20484   */\n      sstore\n        /* \"#utility.yul\":19883:20494   */\n      pop\n      pop\n      pop\n        /* \"#utility.yul\":19846:20733   */\n    tag_549:\n      pop\n        /* \"#utility.yul\":19436:20739   */\n      pop\n      pop\n      pop\n        /* \"#utility.yul\":19344:20739   */\n      pop\n      pop\n      jump\t// out\n        /* \"#utility.yul\":20745:20893   */\n    tag_312:\n        /* \"#utility.yul\":20847:20858   */\n      0x00\n        /* \"#utility.yul\":20884:20887   */\n      dup2\n        /* \"#utility.yul\":20869:20887   */\n      swap1\n      pop\n        /* \"#utility.yul\":20745:20893   */\n      swap3\n      swap2\n      pop\n      pop\n      jump\t// out\n        /* \"#utility.yul\":20899:21289   */\n    tag_313:\n        /* \"#utility.yul\":21005:21008   */\n      0x00\n        /* \"#utility.yul\":21033:21072   */\n      tag_561\n        /* \"#utility.yul\":21066:21071   */\n      dup3\n        /* \"#utility.yul\":21033:21072   */\n      tag_280\n      jump\t// in\n    tag_561:\n        /* \"#utility.yul\":21088:21177   */\n      tag_562\n        /* \"#utility.yul\":21170:21176   */\n      dup2\n        /* \"#utility.yul\":21165:21168   */\n      dup6\n        /* \"#utility.yul\":21088:21177   */\n      tag_312\n      jump\t// in\n    tag_562:\n        /* \"#utility.yul\":21081:21177   */\n      swap4\n      pop\n        /* \"#utility.yul\":21186:21251   */\n      tag_563\n        /* \"#utility.yul\":21244:21250   */\n      dup2\n        /* \"#utility.yul\":21239:21242   */\n      dup6\n        /* \"#utility.yul\":21232:21236   */\n      0x20\n        /* \"#utility.yul\":21225:21230   */\n      dup7\n        /* \"#utility.yul\":21221:21237   */\n      add\n        /* \"#utility.yul\":21186:21251   */\n      tag_276\n      jump\t// in\n    tag_563:\n        /* \"#utility.yul\":21276:21282   */\n      dup1\n        /* \"#utility.yul\":21271:21274   */\n      dup5\n        /* \"#utility.yul\":21267:21283   */\n      add\n        /* \"#utility.yul\":21260:21283   */\n      swap2\n      pop\n        /* \"#utility.yul\":21009:21289   */\n      pop\n        /* \"#utility.yul\":20899:21289   */\n      swap3\n      swap2\n      pop\n      pop\n      jump\t// out\n        /* \"#utility.yul\":21295:21570   */\n    tag_148:\n        /* \"#utility.yul\":21427:21430   */\n      0x00\n        /* \"#utility.yul\":21449:21544   */\n      tag_565\n        /* \"#utility.yul\":21540:21543   */\n      dup3\n        /* \"#utility.yul\":21531:21537   */\n      dup5\n        /* \"#utility.yul\":21449:21544   */\n      tag_313\n      jump\t// in\n    tag_565:\n        /* \"#utility.yul\":21442:21544   */\n      swap2\n      pop\n        /* \"#utility.yul\":21561:21564   */\n      dup2\n        /* \"#utility.yul\":21554:21564   */\n      swap1\n      pop\n        /* \"#utility.yul\":21295:21570   */\n      swap3\n      swap2\n      pop\n      pop\n      jump\t// out\n        /* \"#utility.yul\":21576:21756   */\n    tag_169:\n        /* \"#utility.yul\":21624:21701   */\n      0x4e487b7100000000000000000000000000000000000000000000000000000000\n        /* \"#utility.yul\":21621:21622   */\n      0x00\n        /* \"#utility.yul\":21614:21702   */\n      mstore\n        /* \"#utility.yul\":21721:21725   */\n      0x32\n        /* \"#utility.yul\":21718:21719   */\n      0x04\n        /* \"#utility.yul\":21711:21726   */\n      mstore\n        /* \"#utility.yul\":21745:21749   */\n      0x24\n        /* \"#utility.yul\":21742:21743   */\n      0x00\n        /* \"#utility.yul\":21735:21750   */\n      revert\n        /* \"#utility.yul\":21762:21942   */\n    tag_314:\n        /* \"#utility.yul\":21810:21887   */\n      0x4e487b7100000000000000000000000000000000000000000000000000000000\n        /* \"#utility.yul\":21807:21808   */\n      0x00\n        /* \"#utility.yul\":21800:21888   */\n      mstore\n        /* \"#utility.yul\":21907:21911   */\n      0x11\n        /* \"#utility.yul\":21904:21905   */\n      0x04\n        /* \"#utility.yul\":21897:21912   */\n      mstore\n        /* \"#utility.yul\":21931:21935   */\n      0x24\n        /* \"#utility.yul\":21928:21929   */\n      0x00\n        /* \"#utility.yul\":21921:21936   */\n      revert\n        /* \"#utility.yul\":21948:22358   */\n    tag_179:\n        /* \"#utility.yul\":21988:21995   */\n      0x00\n        /* \"#utility.yul\":22011:22031   */\n      tag_569\n        /* \"#utility.yul\":22029:22030   */\n      dup3\n        /* \"#utility.yul\":22011:22031   */\n      tag_269\n      jump\t// in\n    tag_569:\n        /* \"#utility.yul\":22006:22031   */\n      swap2\n      pop\n        /* \"#utility.yul\":22045:22065   */\n      tag_570\n        /* \"#utility.yul\":22063:22064   */\n      dup4\n        /* \"#utility.yul\":22045:22065   */\n      tag_269\n      jump\t// in\n    tag_570:\n        /* \"#utility.yul\":22040:22065   */\n      swap3\n      pop\n        /* \"#utility.yul\":22100:22101   */\n      dup3\n        /* \"#utility.yul\":22097:22098   */\n      dup3\n        /* \"#utility.yul\":22093:22102   */\n      mul\n        /* \"#utility.yul\":22122:22152   */\n      tag_571\n        /* \"#utility.yul\":22140:22151   */\n      dup2\n        /* \"#utility.yul\":22122:22152   */\n      tag_269\n      jump\t// in\n    tag_571:\n        /* \"#utility.yul\":22111:22152   */\n      swap2\n      pop\n        /* \"#utility.yul\":22301:22302   */\n      dup3\n        /* \"#utility.yul\":22292:22299   */\n      dup3\n        /* \"#utility.yul\":22288:22303   */\n      div\n        /* \"#utility.yul\":22285:22286   */\n      dup5\n        /* \"#utility.yul\":22282:22304   */\n      eq\n        /* \"#utility.yul\":22262:22263   */\n      dup4\n        /* \"#utility.yul\":22255:22264   */\n      iszero\n        /* \"#utility.yul\":22235:22318   */\n      or\n        /* \"#utility.yul\":22212:22351   */\n      tag_572\n      jumpi\n        /* \"#utility.yul\":22331:22349   */\n      tag_573\n      tag_314\n      jump\t// in\n    tag_573:\n        /* \"#utility.yul\":22212:22351   */\n    tag_572:\n        /* \"#utility.yul\":21996:22358   */\n      pop\n        /* \"#utility.yul\":21948:22358   */\n      swap3\n      swap2\n      pop\n      pop\n      jump\t// out\n        /* \"#utility.yul\":22364:22555   */\n    tag_181:\n        /* \"#utility.yul\":22404:22407   */\n      0x00\n        /* \"#utility.yul\":22423:22443   */\n      tag_575\n        /* \"#utility.yul\":22441:22442   */\n      dup3\n        /* \"#utility.yul\":22423:22443   */\n      tag_269\n      jump\t// in\n    tag_575:\n        /* \"#utility.yul\":22418:22443   */\n      swap2\n      pop\n        /* \"#utility.yul\":22457:22477   */\n      tag_576\n        /* \"#utility.yul\":22475:22476   */\n      dup4\n        /* \"#utility.yul\":22457:22477   */\n      tag_269\n      jump\t// in\n    tag_576:\n        /* \"#utility.yul\":22452:22477   */\n      swap3\n      pop\n        /* \"#utility.yul\":22500:22501   */\n      dup3\n        /* \"#utility.yul\":22497:22498   */\n      dup3\n        /* \"#utility.yul\":22493:22502   */\n      add\n        /* \"#utility.yul\":22486:22502   */\n      swap1\n      pop\n        /* \"#utility.yul\":22521:22524   */\n      dup1\n        /* \"#utility.yul\":22518:22519   */\n      dup3\n        /* \"#utility.yul\":22515:22525   */\n      gt\n        /* \"#utility.yul\":22512:22548   */\n      iszero\n      tag_577\n      jumpi\n        /* \"#utility.yul\":22528:22546   */\n      tag_578\n      tag_314\n      jump\t// in\n    tag_578:\n        /* \"#utility.yul\":22512:22548   */\n    tag_577:\n        /* \"#utility.yul\":22364:22555   */\n      swap3\n      swap2\n      pop\n      pop\n      jump\t// out\n        /* \"#utility.yul\":22561:22742   */\n    tag_315:\n        /* \"#utility.yul\":22701:22734   */\n      0x56616c7565206d7573742062652067726561746572207468616e207a65726f00\n        /* \"#utility.yul\":22697:22698   */\n      0x00\n        /* \"#utility.yul\":22689:22695   */\n      dup3\n        /* \"#utility.yul\":22685:22699   */\n      add\n        /* \"#utility.yul\":22678:22735   */\n      mstore\n        /* \"#utility.yul\":22561:22742   */\n      pop\n      jump\t// out\n        /* \"#utility.yul\":22748:23114   */\n    tag_316:\n        /* \"#utility.yul\":22890:22893   */\n      0x00\n        /* \"#utility.yul\":22911:22978   */\n      tag_581\n        /* \"#utility.yul\":22975:22977   */\n      0x1f\n        /* \"#utility.yul\":22970:22973   */\n      dup4\n        /* \"#utility.yul\":22911:22978   */\n      tag_281\n      jump\t// in\n    tag_581:\n        /* \"#utility.yul\":22904:22978   */\n      swap2\n      pop\n        /* \"#utility.yul\":22987:23080   */\n      tag_582\n        /* \"#utility.yul\":23076:23079   */\n      dup3\n        /* \"#utility.yul\":22987:23080   */\n      tag_315\n      jump\t// in\n    tag_582:\n        /* \"#utility.yul\":23105:23107   */\n      0x20\n        /* \"#utility.yul\":23100:23103   */\n      dup3\n        /* \"#utility.yul\":23096:23108   */\n      add\n        /* \"#utility.yul\":23089:23108   */\n      swap1\n      pop\n        /* \"#utility.yul\":22748:23114   */\n      swap2\n      swap1\n      pop\n      jump\t// out\n        /* \"#utility.yul\":23120:23539   */\n    tag_186:\n        /* \"#utility.yul\":23286:23290   */\n      0x00\n        /* \"#utility.yul\":23324:23326   */\n      0x20\n        /* \"#utility.yul\":23313:23322   */\n      dup3\n        /* \"#utility.yul\":23309:23327   */\n      add\n        /* \"#utility.yul\":23301:23327   */\n      swap1\n      pop\n        /* \"#utility.yul\":23373:23382   */\n      dup2\n        /* \"#utility.yul\":23367:23371   */\n      dup2\n        /* \"#utility.yul\":23363:23383   */\n      sub\n        /* \"#utility.yul\":23359:23360   */\n      0x00\n        /* \"#utility.yul\":23348:23357   */\n      dup4\n        /* \"#utility.yul\":23344:23361   */\n      add\n        /* \"#utility.yul\":23337:23384   */\n      mstore\n        /* \"#utility.yul\":23401:23532   */\n      tag_584\n        /* \"#utility.yul\":23527:23531   */\n      dup2\n        /* \"#utility.yul\":23401:23532   */\n      tag_316\n      jump\t// in\n    tag_584:\n        /* \"#utility.yul\":23393:23532   */\n      swap1\n      pop\n        /* \"#utility.yul\":23120:23539   */\n      swap2\n      swap1\n      pop\n      jump\t// out\n        /* \"#utility.yul\":23545:23714   */\n    tag_317:\n        /* \"#utility.yul\":23685:23706   */\n      0x5465616d20646f6573206e6f7420657869737400000000000000000000000000\n        /* \"#utility.yul\":23681:23682   */\n      0x00\n        /* \"#utility.yul\":23673:23679   */\n      dup3\n        /* \"#utility.yul\":23669:23683   */\n      add\n        /* \"#utility.yul\":23662:23707   */\n      mstore\n        /* \"#utility.yul\":23545:23714   */\n      pop\n      jump\t// out\n        /* \"#utility.yul\":23720:24086   */\n    tag_318:\n        /* \"#utility.yul\":23862:23865   */\n      0x00\n        /* \"#utility.yul\":23883:23950   */\n      tag_587\n        /* \"#utility.yul\":23947:23949   */\n      0x13\n        /* \"#utility.yul\":23942:23945   */\n      dup4\n        /* \"#utility.yul\":23883:23950   */\n      tag_281\n      jump\t// in\n    tag_587:\n        /* \"#utility.yul\":23876:23950   */\n      swap2\n      pop\n        /* \"#utility.yul\":23959:24052   */\n      tag_588\n        /* \"#utility.yul\":24048:24051   */\n      dup3\n        /* \"#utility.yul\":23959:24052   */\n      tag_317\n      jump\t// in\n    tag_588:\n        /* \"#utility.yul\":24077:24079   */\n      0x20\n        /* \"#utility.yul\":24072:24075   */\n      dup3\n        /* \"#utility.yul\":24068:24080   */\n      add\n        /* \"#utility.yul\":24061:24080   */\n      swap1\n      pop\n        /* \"#utility.yul\":23720:24086   */\n      swap2\n      swap1\n      pop\n      jump\t// out\n        /* \"#utility.yul\":24092:24511   */\n    tag_191:\n        /* \"#utility.yul\":24258:24262   */\n      0x00\n        /* \"#utility.yul\":24296:24298   */\n      0x20\n        /* \"#utility.yul\":24285:24294   */\n      dup3\n        /* \"#utility.yul\":24281:24299   */\n      add\n        /* \"#utility.yul\":24273:24299   */\n      swap1\n      pop\n        /* \"#utility.yul\":24345:24354   */\n      dup2\n        /* \"#utility.yul\":24339:24343   */\n      dup2\n        /* \"#utility.yul\":24335:24355   */\n      sub\n        /* \"#utility.yul\":24331:24332   */\n      0x00\n        /* \"#utility.yul\":24320:24329   */\n      dup4\n        /* \"#utility.yul\":24316:24333   */\n      add\n        /* \"#utility.yul\":24309:24356   */\n      mstore\n        /* \"#utility.yul\":24373:24504   */\n      tag_590\n        /* \"#utility.yul\":24499:24503   */\n      dup2\n        /* \"#utility.yul\":24373:24504   */\n      tag_318\n      jump\t// in\n    tag_590:\n        /* \"#utility.yul\":24365:24504   */\n      swap1\n      pop\n        /* \"#utility.yul\":24092:24511   */\n      swap2\n      swap1\n      pop\n      jump\t// out\n        /* \"#utility.yul\":24517:24697   */\n    tag_319:\n        /* \"#utility.yul\":24565:24642   */\n      0x4e487b7100000000000000000000000000000000000000000000000000000000\n        /* \"#utility.yul\":24562:24563   */\n      0x00\n        /* \"#utility.yul\":24555:24643   */\n      mstore\n        /* \"#utility.yul\":24662:24666   */\n      0x12\n        /* \"#utility.yul\":24659:24660   */\n      0x04\n        /* \"#utility.yul\":24652:24667   */\n      mstore\n        /* \"#utility.yul\":24686:24690   */\n      0x24\n        /* \"#utility.yul\":24683:24684   */\n      0x00\n        /* \"#utility.yul\":24676:24691   */\n      revert\n        /* \"#utility.yul\":24703:24888   */\n    tag_193:\n        /* \"#utility.yul\":24743:24744   */\n      0x00\n        /* \"#utility.yul\":24760:24780   */\n      tag_593\n        /* \"#utility.yul\":24778:24779   */\n      dup3\n        /* \"#utility.yul\":24760:24780   */\n      tag_269\n      jump\t// in\n    tag_593:\n        /* \"#utility.yul\":24755:24780   */\n      swap2\n      pop\n        /* \"#utility.yul\":24794:24814   */\n      tag_594\n        /* \"#utility.yul\":24812:24813   */\n      dup4\n        /* \"#utility.yul\":24794:24814   */\n      tag_269\n      jump\t// in\n    tag_594:\n        /* \"#utility.yul\":24789:24814   */\n      swap3\n      pop\n        /* \"#utility.yul\":24833:24834   */\n      dup3\n        /* \"#utility.yul\":24823:24858   */\n      tag_595\n      jumpi\n        /* \"#utility.yul\":24838:24856   */\n      tag_596\n      tag_319\n      jump\t// in\n    tag_596:\n        /* \"#utility.yul\":24823:24858   */\n    tag_595:\n        /* \"#utility.yul\":24880:24881   */\n      dup3\n        /* \"#utility.yul\":24877:24878   */\n      dup3\n        /* \"#utility.yul\":24873:24882   */\n      div\n        /* \"#utility.yul\":24868:24882   */\n      swap1\n      pop\n        /* \"#utility.yul\":24703:24888   */\n      swap3\n      swap2\n      pop\n      pop\n      jump\t// out\n        /* \"#utility.yul\":24894:25064   */\n    tag_320:\n        /* \"#utility.yul\":25034:25056   */\n      0x436f6e7472616374206973206e6f74206f70656e000000000000000000000000\n        /* \"#utility.yul\":25030:25031   */\n      0x00\n        /* \"#utility.yul\":25022:25028   */\n      dup3\n        /* \"#utility.yul\":25018:25032   */\n      add\n        /* \"#utility.yul\":25011:25057   */\n      mstore\n        /* \"#utility.yul\":24894:25064   */\n      pop\n      jump\t// out\n        /* \"#utility.yul\":25070:25436   */\n    tag_321:\n        /* \"#utility.yul\":25212:25215   */\n      0x00\n        /* \"#utility.yul\":25233:25300   */\n      tag_599\n        /* \"#utility.yul\":25297:25299   */\n      0x14\n        /* \"#utility.yul\":25292:25295   */\n      dup4\n        /* \"#utility.yul\":25233:25300   */\n      tag_281\n      jump\t// in\n    tag_599:\n        /* \"#utility.yul\":25226:25300   */\n      swap2\n      pop\n        /* \"#utility.yul\":25309:25402   */\n      tag_600\n        /* \"#utility.yul\":25398:25401   */\n      dup3\n        /* \"#utility.yul\":25309:25402   */\n      tag_320\n      jump\t// in\n    tag_600:\n        /* \"#utility.yul\":25427:25429   */\n      0x20\n        /* \"#utility.yul\":25422:25425   */\n      dup3\n        /* \"#utility.yul\":25418:25430   */\n      add\n        /* \"#utility.yul\":25411:25430   */\n      swap1\n      pop\n        /* \"#utility.yul\":25070:25436   */\n      swap2\n      swap1\n      pop\n      jump\t// out\n        /* \"#utility.yul\":25442:25861   */\n    tag_215:\n        /* \"#utility.yul\":25608:25612   */\n      0x00\n        /* \"#utility.yul\":25646:25648   */\n      0x20\n        /* \"#utility.yul\":25635:25644   */\n      dup3\n        /* \"#utility.yul\":25631:25649   */\n      add\n        /* \"#utility.yul\":25623:25649   */\n      swap1\n      pop\n        /* \"#utility.yul\":25695:25704   */\n      dup2\n        /* \"#utility.yul\":25689:25693   */\n      dup2\n        /* \"#utility.yul\":25685:25705   */\n      sub\n        /* \"#utility.yul\":25681:25682   */\n      0x00\n        /* \"#utility.yul\":25670:25679   */\n      dup4\n        /* \"#utility.yul\":25666:25683   */\n      add\n        /* \"#utility.yul\":25659:25706   */\n      mstore\n        /* \"#utility.yul\":25723:25854   */\n      tag_602\n        /* \"#utility.yul\":25849:25853   */\n      dup2\n        /* \"#utility.yul\":25723:25854   */\n      tag_321\n      jump\t// in\n    tag_602:\n        /* \"#utility.yul\":25715:25854   */\n      swap1\n      pop\n        /* \"#utility.yul\":25442:25861   */\n      swap2\n      swap1\n      pop\n      jump\t// out\n        /* \"#utility.yul\":25867:26092   */\n    tag_322:\n        /* \"#utility.yul\":26007:26041   */\n      0x4f6e6c79206c6f6e672070617274792063616e20636c6f73652074686520636f\n        /* \"#utility.yul\":26003:26004   */\n      0x00\n        /* \"#utility.yul\":25995:26001   */\n      dup3\n        /* \"#utility.yul\":25991:26005   */\n      add\n        /* \"#utility.yul\":25984:26042   */\n      mstore\n        /* \"#utility.yul\":26076:26084   */\n      0x6e74726163740000000000000000000000000000000000000000000000000000\n        /* \"#utility.yul\":26071:26073   */\n      0x20\n        /* \"#utility.yul\":26063:26069   */\n      dup3\n        /* \"#utility.yul\":26059:26074   */\n      add\n        /* \"#utility.yul\":26052:26085   */\n      mstore\n        /* \"#utility.yul\":25867:26092   */\n      pop\n      jump\t// out\n        /* \"#utility.yul\":26098:26464   */\n    tag_323:\n        /* \"#utility.yul\":26240:26243   */\n      0x00\n        /* \"#utility.yul\":26261:26328   */\n      tag_605\n        /* \"#utility.yul\":26325:26327   */\n      0x26\n        /* \"#utility.yul\":26320:26323   */\n      dup4\n        /* \"#utility.yul\":26261:26328   */\n      tag_281\n      jump\t// in\n    tag_605:\n        /* \"#utility.yul\":26254:26328   */\n      swap2\n      pop\n        /* \"#utility.yul\":26337:26430   */\n      tag_606\n        /* \"#utility.yul\":26426:26429   */\n      dup3\n        /* \"#utility.yul\":26337:26430   */\n      tag_322\n      jump\t// in\n    tag_606:\n        /* \"#utility.yul\":26455:26457   */\n      0x40\n        /* \"#utility.yul\":26450:26453   */\n      dup3\n        /* \"#utility.yul\":26446:26458   */\n      add\n        /* \"#utility.yul\":26439:26458   */\n      swap1\n      pop\n        /* \"#utility.yul\":26098:26464   */\n      swap2\n      swap1\n      pop\n      jump\t// out\n        /* \"#utility.yul\":26470:26889   */\n    tag_218:\n        /* \"#utility.yul\":26636:26640   */\n      0x00\n        /* \"#utility.yul\":26674:26676   */\n      0x20\n        /* \"#utility.yul\":26663:26672   */\n      dup3\n        /* \"#utility.yul\":26659:26677   */\n      add\n        /* \"#utility.yul\":26651:26677   */\n      swap1\n      pop\n        /* \"#utility.yul\":26723:26732   */\n      dup2\n        /* \"#utility.yul\":26717:26721   */\n      dup2\n        /* \"#utility.yul\":26713:26733   */\n      sub\n        /* \"#utility.yul\":26709:26710   */\n      0x00\n        /* \"#utility.yul\":26698:26707   */\n      dup4\n        /* \"#utility.yul\":26694:26711   */\n      add\n        /* \"#utility.yul\":26687:26734   */\n      mstore\n        /* \"#utility.yul\":26751:26882   */\n      tag_608\n        /* \"#utility.yul\":26877:26881   */\n      dup2\n        /* \"#utility.yul\":26751:26882   */\n      tag_323\n      jump\t// in\n    tag_608:\n        /* \"#utility.yul\":26743:26882   */\n      swap1\n      pop\n        /* \"#utility.yul\":26470:26889   */\n      swap2\n      swap1\n      pop\n      jump\t// out\n        /* \"#utility.yul\":26895:27089   */\n    tag_229:\n        /* \"#utility.yul\":26935:26939   */\n      0x00\n        /* \"#utility.yul\":26955:26975   */\n      tag_610\n        /* \"#utility.yul\":26973:26974   */\n      dup3\n        /* \"#utility.yul\":26955:26975   */\n      tag_269\n      jump\t// in\n    tag_610:\n        /* \"#utility.yul\":26950:26975   */\n      swap2\n      pop\n        /* \"#utility.yul\":26989:27009   */\n      tag_611\n        /* \"#utility.yul\":27007:27008   */\n      dup4\n        /* \"#utility.yul\":26989:27009   */\n      tag_269\n      jump\t// in\n    tag_611:\n        /* \"#utility.yul\":26984:27009   */\n      swap3\n      pop\n        /* \"#utility.yul\":27033:27034   */\n      dup3\n        /* \"#utility.yul\":27030:27031   */\n      dup3\n        /* \"#utility.yul\":27026:27035   */\n      sub\n        /* \"#utility.yul\":27018:27035   */\n      swap1\n      pop\n        /* \"#utility.yul\":27057:27058   */\n      dup2\n        /* \"#utility.yul\":27051:27055   */\n      dup2\n        /* \"#utility.yul\":27048:27059   */\n      gt\n        /* \"#utility.yul\":27045:27082   */\n      iszero\n      tag_612\n      jumpi\n        /* \"#utility.yul\":27062:27080   */\n      tag_613\n      tag_314\n      jump\t// in\n    tag_613:\n        /* \"#utility.yul\":27045:27082   */\n    tag_612:\n        /* \"#utility.yul\":26895:27089   */\n      swap3\n      swap2\n      pop\n      pop\n      jump\t// out\n\n    auxdata: 0xa2646970667358221220068442c5b13d478eb533f657a4fd8da3818e7d78703fd126a7900a3cd0e446ee64736f6c63430008170033\n}\n",
				"bytecode": {
					"linkReferences": {},
					"object": "608060405234801562000010575f80fd5b5060405162002ad238038062002ad28339818101604052810190620000369190620004aa565b335f73ffffffffffffffffffffffffffffffffffffffff168173ffffffffffffffffffffffffffffffffffffffff1603620000aa575f6040517f1e4fbdf7000000000000000000000000000000000000000000000000000000008152600401620000a19190620004eb565b60405180910390fd5b620000bb816200029f60201b60201c565b508060015f6101000a81548173ffffffffffffffffffffffffffffffffffffffff021916908373ffffffffffffffffffffffffffffffffffffffff16021790555060405180608001604052806040518060400160405280600781526020017f417273656e616c0000000000000000000000000000000000000000000000000081525081526020016040518060400160405280600781526020017f4368656c7365610000000000000000000000000000000000000000000000000081525081526020016040518060400160405280600881526020017f4d616e204369747900000000000000000000000000000000000000000000000081525081526020016040518060400160405280600981526020017f4c69766572706f6f6c000000000000000000000000000000000000000000000081525081525060079060046200020392919062000360565b5061076c600560405162000217906200055e565b9081526020016040518091039020819055506107d060056040516200023c90620005c2565b9081526020016040518091039020819055506107086005604051620002619062000626565b908152602001604051809103902081905550610708600560405162000286906200068a565b90815260200160405180910390208190555050620009e8565b5f805f9054906101000a900473ffffffffffffffffffffffffffffffffffffffff169050815f806101000a81548173ffffffffffffffffffffffffffffffffffffffff021916908373ffffffffffffffffffffffffffffffffffffffff1602179055508173ffffffffffffffffffffffffffffffffffffffff168173ffffffffffffffffffffffffffffffffffffffff167f8be0079c531659141344cd1fd0a4f28419497f9722a3daafe3b4186f6b6457e060405160405180910390a35050565b828054828255905f5260205f20908101928215620003ab579160200282015b82811115620003aa57825182908162000399919062000904565b50916020019190600101906200037f565b5b509050620003ba9190620003be565b5090565b5b80821115620003e1575f8181620003d79190620003e5565b50600101620003bf565b5090565b508054620003f39062000704565b5f825580601f1062000406575062000425565b601f0160209004905f5260205f209081019062000424919062000428565b5b50565b5b8082111562000441575f815f90555060010162000429565b5090565b5f80fd5b5f73ffffffffffffffffffffffffffffffffffffffff82169050919050565b5f620004748262000449565b9050919050565b620004868162000468565b811462000491575f80fd5b50565b5f81519050620004a4816200047b565b92915050565b5f60208284031215620004c257620004c162000445565b5b5f620004d18482850162000494565b91505092915050565b620004e58162000468565b82525050565b5f602082019050620005005f830184620004da565b92915050565b5f81905092915050565b7f417273656e616c000000000000000000000000000000000000000000000000005f82015250565b5f6200054660078362000506565b9150620005538262000510565b600782019050919050565b5f6200056a8262000538565b9150819050919050565b7f4368656c736561000000000000000000000000000000000000000000000000005f82015250565b5f620005aa60078362000506565b9150620005b78262000574565b600782019050919050565b5f620005ce826200059c565b9150819050919050565b7f4d616e20436974790000000000000000000000000000000000000000000000005f82015250565b5f6200060e60088362000506565b91506200061b82620005d8565b600882019050919050565b5f620006328262000600565b9150819050919050565b7f4c69766572706f6f6c00000000000000000000000000000000000000000000005f82015250565b5f6200067260098362000506565b91506200067f826200063c565b600982019050919050565b5f620006968262000664565b9150819050919050565b5f81519050919050565b7f4e487b71000000000000000000000000000000000000000000000000000000005f52604160045260245ffd5b7f4e487b71000000000000000000000000000000000000000000000000000000005f52602260045260245ffd5b5f60028204905060018216806200071c57607f821691505b602082108103620007325762000731620006d7565b5b50919050565b5f819050815f5260205f209050919050565b5f6020601f8301049050919050565b5f82821b905092915050565b5f60088302620007967fffffffffffffffffffffffffffffffffffffffffffffffffffffffffffffffff8262000759565b620007a2868362000759565b95508019841693508086168417925050509392505050565b5f819050919050565b5f819050919050565b5f620007ec620007e6620007e084620007ba565b620007c3565b620007ba565b9050919050565b5f819050919050565b6200080783620007cc565b6200081f6200081682620007f3565b84845462000765565b825550505050565b5f90565b6200083562000827565b62000842818484620007fc565b505050565b5b8181101562000869576200085d5f826200082b565b60018101905062000848565b5050565b601f821115620008b857620008828162000738565b6200088d846200074a565b810160208510156200089d578190505b620008b5620008ac856200074a565b83018262000847565b50505b505050565b5f82821c905092915050565b5f620008da5f1984600802620008bd565b1980831691505092915050565b5f620008f48383620008c9565b9150826002028217905092915050565b6200090f82620006a0565b67ffffffffffffffff8111156200092b576200092a620006aa565b5b62000937825462000704565b620009448282856200086d565b5f60209050601f8311600181146200097a575f841562000965578287015190505b620009718582620008e7565b865550620009e0565b601f1984166200098a8662000738565b5f5b82811015620009b3578489015182556001820191506020850194506020810190506200098c565b86831015620009d35784890151620009cf601f891682620008c9565b8355505b6001600288020188555050505b505050505050565b6120dc80620009f65f395ff3fe60806040526004361061011e575f3560e01c80638da5cb5b1161009f578063d0ce736011610063578063d0ce7360146103f0578063db027e0514610418578063ed23f8c314610454578063f2fde38b14610496578063fdf3f74d146104be5761011e565b80638da5cb5b1461030a5780639da751bb14610334578063a265b84d14610350578063ac580de71461038c578063ce13ec89146103c85761011e565b80634406d219116100e65780634406d2191461022a57806346e7a1dc146102525780635ae725f71461028e578063715018a6146102ca57806389279378146102e05761011e565b80630232424d1461012257806302d06d051461014c57806308ab2d4b1461018857806312065fe0146101c457806327826f1e146101ee575b5f80fd5b34801561012d575f80fd5b506101366104fa565b60405161014391906112f8565b60405180910390f35b348015610157575f80fd5b50610172600480360381019061016d919061145e565b61051f565b60405161017f91906114bd565b60405180910390f35b348015610193575f80fd5b506101ae60048036038101906101a99190611574565b610575565b6040516101bb91906114bd565b60405180910390f35b3480156101cf575f80fd5b506101d8610624565b6040516101e591906114bd565b60405180910390f35b3480156101f9575f80fd5b50610214600480360381019061020f9190611574565b61062b565b6040516102219190611635565b60405180910390f35b348015610235575f80fd5b50610250600480360381019061024b9190611574565b6106d3565b005b34801561025d575f80fd5b5061027860048036038101906102739190611574565b610708565b60405161028591906114bd565b60405180910390f35b348015610299575f80fd5b506102b460048036038101906102af919061167f565b61072f565b6040516102c191906116fc565b60405180910390f35b3480156102d5575f80fd5b506102de6107d5565b005b3480156102eb575f80fd5b506102f46107e8565b60405161030191906114bd565b60405180910390f35b348015610315575f80fd5b5061031e6108fc565b60405161032b919061173c565b60405180910390f35b61034e60048036038101906103499190611574565b610923565b005b34801561035b575f80fd5b506103766004803603810190610371919061167f565b610b72565b60405161038391906114bd565b60405180910390f35b348015610397575f80fd5b506103b260048036038101906103ad919061177f565b610ca9565b6040516103bf91906114bd565b60405180910390f35b3480156103d3575f80fd5b506103ee60048036038101906103e991906117aa565b610cbe565b005b3480156103fb575f80fd5b506104166004803603810190610411919061167f565b610ce5565b005b348015610423575f80fd5b5061043e60048036038101906104399190611574565b610f4b565b60405161044b91906114bd565b60405180910390f35b34801561045f575f80fd5b5061047a60048036038101906104759190611804565b610f78565b60405161048d979695949392919061185c565b60405180910390f35b3480156104a1575f80fd5b506104bc60048036038101906104b7919061177f565b61107e565b005b3480156104c9575f80fd5b506104e460048036038101906104df9190611574565b611102565b6040516104f191906114bd565b60405180910390f35b60015f9054906101000a900473ffffffffffffffffffffffffffffffffffffffff1681565b5f6020825114610564576040517f08c379a000000000000000000000000000000000000000000000000000000000815260040161055b9061191a565b60405180910390fd5b5f6020830151905080915050919050565b5f61061d60015f9054906101000a900473ffffffffffffffffffffffffffffffffffffffff1673ffffffffffffffffffffffffffffffffffffffff1663475f1686846040518263ffffffff1660e01b81526004016105d391906116fc565b5f60405180830381865afa1580156105ed573d5f803e3d5ffd5b505050506040513d5f823e3d601f19601f820116820180604052508101906106159190611a2b565b5f015161051f565b9050919050565b5f47905090565b606060015f9054906101000a900473ffffffffffffffffffffffffffffffffffffffff1673ffffffffffffffffffffffffffffffffffffffff1663475f1686836040518263ffffffff1660e01b815260040161068791906116fc565b5f60405180830381865afa1580156106a1573d5f803e3d5ffd5b505050506040513d5f823e3d601f19601f820116820180604052508101906106c99190611a2b565b5f01519050919050565b600781908060018154018082558091505060019003905f5260205f20015f9091909190915090816107049190611c63565b5050565b5f6005826040516107199190611d6c565b9081526020016040518091039020549050919050565b6007818154811061073e575f80fd5b905f5260205f20015f91509050805461075690611a9f565b80601f016020809104026020016040519081016040528092919081815260200182805461078290611a9f565b80156107cd5780601f106107a4576101008083540402835291602001916107cd565b820191905f5260205f20905b8154815290600101906020018083116107b057829003601f168201915b505050505081565b6107dd61112f565b6107e65f6111b6565b565b5f805f90505f5b6007805490508110156108f4575f6007828154811061081157610810611d82565b5b905f5260205f2001805461082490611a9f565b80601f016020809104026020016040519081016040528092919081815260200182805461085090611a9f565b801561089b5780601f106108725761010080835404028352916020019161089b565b820191905f5260205f20905b81548152906001019060200180831161087e57829003601f168201915b505050505090505f6108ac82610575565b9050806006836040516108bf9190611d6c565b9081526020016040518091039020546108d89190611ddc565b846108e39190611e1d565b9350505080806001019150506107ef565b508091505090565b5f805f9054906101000a900473ffffffffffffffffffffffffffffffffffffffff16905090565b5f3411610965576040517f08c379a000000000000000000000000000000000000000000000000000000000815260040161095c90611e9a565b60405180910390fd5b5f600160045f3373ffffffffffffffffffffffffffffffffffffffff1673ffffffffffffffffffffffffffffffffffffffff1681526020019081526020015f20546109b09190611e1d565b90505f6109bc83610575565b90505f8111610a00576040517f08c379a00000000000000000000000000000000000000000000000000000000081526004016109f790611f02565b60405180910390fd5b5f8134610a0d9190611f4d565b90505f60035f3373ffffffffffffffffffffffffffffffffffffffff1673ffffffffffffffffffffffffffffffffffffffff1681526020019081526020015f205f8581526020019081526020015f20905033815f015f6101000a81548173ffffffffffffffffffffffffffffffffffffffff021916908373ffffffffffffffffffffffffffffffffffffffff16021790555084816004019081610ab09190611c63565b508181600101819055508281600501819055506001816003015f6101000a81548160ff0219169083151502179055508060010154600686604051610af49190611d6c565b90815260200160405180910390205f828254610b109190611e1d565b92505081905550600160045f3373ffffffffffffffffffffffffffffffffffffffff1673ffffffffffffffffffffffffffffffffffffffff1681526020019081526020015f205f828254610b649190611e1d565b925050819055505050505050565b5f8060035f3373ffffffffffffffffffffffffffffffffffffffff1673ffffffffffffffffffffffffffffffffffffffff1681526020019081526020015f205f8481526020019081526020015f2090505f816004018054610bd290611a9f565b80601f0160208091040260200160405190810160405280929190818152602001828054610bfe90611a9f565b8015610c495780601f10610c2057610100808354040283529160200191610c49565b820191905f5260205f20905b815481529060010190602001808311610c2c57829003601f168201915b505050505090505f610c5a82610575565b90505f610c65610624565b90505f610c706107e8565b90505f8183858860010154610c859190611ddc565b610c8f9190611ddc565b610c999190611f4d565b9050809650505050505050919050565b6004602052805f5260405f205f915090505481565b80600583604051610ccf9190611d6c565b9081526020016040518091039020819055505050565b5f60035f3373ffffffffffffffffffffffffffffffffffffffff1673ffffffffffffffffffffffffffffffffffffffff1681526020019081526020015f205f8381526020019081526020015f209050806003015f9054906101000a900460ff16610d84576040517f08c379a0000000000000000000000000000000000000000000000000000000008152600401610d7b90611fc7565b60405180910390fd5b3373ffffffffffffffffffffffffffffffffffffffff16815f015f9054906101000a900473ffffffffffffffffffffffffffffffffffffffff1673ffffffffffffffffffffffffffffffffffffffff1614610e14576040517f08c379a0000000000000000000000000000000000000000000000000000000008152600401610e0b90612055565b60405180910390fd5b5f816004018054610e2490611a9f565b80601f0160208091040260200160405190810160405280929190818152602001828054610e5090611a9f565b8015610e9b5780601f10610e7257610100808354040283529160200191610e9b565b820191905f5260205f20905b815481529060010190602001808311610e7e57829003601f168201915b505050505090505f610eac84610b72565b90503373ffffffffffffffffffffffffffffffffffffffff166108fc8290811502906040515f60405180830381858888f19350505050158015610ef1573d5f803e3d5ffd5b505f836003015f6101000a81548160ff0219169083151502179055508260010154600683604051610f229190611d6c565b90815260200160405180910390205f828254610f3e9190612073565b9250508190555050505050565b6006818051602081018201805184825260208301602085012081835280955050505050505f915090505481565b6003602052815f5260405f20602052805f5260405f205f9150915050805f015f9054906101000a900473ffffffffffffffffffffffffffffffffffffffff1690805f0160149054906101000a900460ff1690806001015490806002015490806003015f9054906101000a900460ff1690806004018054610ff790611a9f565b80601f016020809104026020016040519081016040528092919081815260200182805461102390611a9f565b801561106e5780601f106110455761010080835404028352916020019161106e565b820191905f5260205f20905b81548152906001019060200180831161105157829003601f168201915b5050505050908060050154905087565b61108661112f565b5f73ffffffffffffffffffffffffffffffffffffffff168173ffffffffffffffffffffffffffffffffffffffff16036110f6575f6040517f1e4fbdf70000000000000000000000000000000000000000000000000000000081526004016110ed919061173c565b60405180910390fd5b6110ff816111b6565b50565b6005818051602081018201805184825260208301602085012081835280955050505050505f915090505481565b611137611277565b73ffffffffffffffffffffffffffffffffffffffff166111556108fc565b73ffffffffffffffffffffffffffffffffffffffff16146111b457611178611277565b6040517f118cdaa70000000000000000000000000000000000000000000000000000000081526004016111ab919061173c565b60405180910390fd5b565b5f805f9054906101000a900473ffffffffffffffffffffffffffffffffffffffff169050815f806101000a81548173ffffffffffffffffffffffffffffffffffffffff021916908373ffffffffffffffffffffffffffffffffffffffff1602179055508173ffffffffffffffffffffffffffffffffffffffff168173ffffffffffffffffffffffffffffffffffffffff167f8be0079c531659141344cd1fd0a4f28419497f9722a3daafe3b4186f6b6457e060405160405180910390a35050565b5f33905090565b5f73ffffffffffffffffffffffffffffffffffffffff82169050919050565b5f819050919050565b5f6112c06112bb6112b68461127e565b61129d565b61127e565b9050919050565b5f6112d1826112a6565b9050919050565b5f6112e2826112c7565b9050919050565b6112f2816112d8565b82525050565b5f60208201905061130b5f8301846112e9565b92915050565b5f604051905090565b5f80fd5b5f80fd5b5f80fd5b5f80fd5b5f601f19601f8301169050919050565b7f4e487b71000000000000000000000000000000000000000000000000000000005f52604160045260245ffd5b6113708261132a565b810181811067ffffffffffffffff8211171561138f5761138e61133a565b5b80604052505050565b5f6113a1611311565b90506113ad8282611367565b919050565b5f67ffffffffffffffff8211156113cc576113cb61133a565b5b6113d58261132a565b9050602081019050919050565b828183375f83830152505050565b5f6114026113fd846113b2565b611398565b90508281526020810184848401111561141e5761141d611326565b5b6114298482856113e2565b509392505050565b5f82601f83011261144557611444611322565b5b81356114558482602086016113f0565b91505092915050565b5f602082840312156114735761147261131a565b5b5f82013567ffffffffffffffff8111156114905761148f61131e565b5b61149c84828501611431565b91505092915050565b5f819050919050565b6114b7816114a5565b82525050565b5f6020820190506114d05f8301846114ae565b92915050565b5f67ffffffffffffffff8211156114f0576114ef61133a565b5b6114f98261132a565b9050602081019050919050565b5f611518611513846114d6565b611398565b90508281526020810184848401111561153457611533611326565b5b61153f8482856113e2565b509392505050565b5f82601f83011261155b5761155a611322565b5b813561156b848260208601611506565b91505092915050565b5f602082840312156115895761158861131a565b5b5f82013567ffffffffffffffff8111156115a6576115a561131e565b5b6115b284828501611547565b91505092915050565b5f81519050919050565b5f82825260208201905092915050565b5f5b838110156115f25780820151818401526020810190506115d7565b5f8484015250505050565b5f611607826115bb565b61161181856115c5565b93506116218185602086016115d5565b61162a8161132a565b840191505092915050565b5f6020820190508181035f83015261164d81846115fd565b905092915050565b61165e816114a5565b8114611668575f80fd5b50565b5f8135905061167981611655565b92915050565b5f602082840312156116945761169361131a565b5b5f6116a18482850161166b565b91505092915050565b5f81519050919050565b5f82825260208201905092915050565b5f6116ce826116aa565b6116d881856116b4565b93506116e88185602086016115d5565b6116f18161132a565b840191505092915050565b5f6020820190508181035f83015261171481846116c4565b905092915050565b5f6117268261127e565b9050919050565b6117368161171c565b82525050565b5f60208201905061174f5f83018461172d565b92915050565b61175e8161171c565b8114611768575f80fd5b50565b5f8135905061177981611755565b92915050565b5f602082840312156117945761179361131a565b5b5f6117a18482850161176b565b91505092915050565b5f80604083850312156117c0576117bf61131a565b5b5f83013567ffffffffffffffff8111156117dd576117dc61131e565b5b6117e985828601611547565b92505060206117fa8582860161166b565b9150509250929050565b5f806040838503121561181a5761181961131a565b5b5f6118278582860161176b565b92505060206118388582860161166b565b9150509250929050565b5f8115159050919050565b61185681611842565b82525050565b5f60e08201905061186f5f83018a61172d565b61187c602083018961184d565b61188960408301886114ae565b61189660608301876114ae565b6118a3608083018661184d565b81810360a08301526118b581856116c4565b90506118c460c08301846114ae565b98975050505050505050565b7f4279746573206c656e677468206d7573742062652033320000000000000000005f82015250565b5f6119046017836116b4565b915061190f826118d0565b602082019050919050565b5f6020820190508181035f830152611931816118f8565b9050919050565b5f80fd5b5f80fd5b5f61195261194d846113b2565b611398565b90508281526020810184848401111561196e5761196d611326565b5b6119798482856115d5565b509392505050565b5f82601f83011261199557611994611322565b5b81516119a5848260208601611940565b91505092915050565b5f815190506119bc81611655565b92915050565b5f604082840312156119d7576119d6611938565b5b6119e16040611398565b90505f82015167ffffffffffffffff811115611a00576119ff61193c565b5b611a0c84828501611981565b5f830152506020611a1f848285016119ae565b60208301525092915050565b5f60208284031215611a4057611a3f61131a565b5b5f82015167ffffffffffffffff811115611a5d57611a5c61131e565b5b611a69848285016119c2565b91505092915050565b7f4e487b71000000000000000000000000000000000000000000000000000000005f52602260045260245ffd5b5f6002820490506001821680611ab657607f821691505b602082108103611ac957611ac8611a72565b5b50919050565b5f819050815f5260205f209050919050565b5f6020601f8301049050919050565b5f82821b905092915050565b5f60088302611b2b7fffffffffffffffffffffffffffffffffffffffffffffffffffffffffffffffff82611af0565b611b358683611af0565b95508019841693508086168417925050509392505050565b5f611b67611b62611b5d846114a5565b61129d565b6114a5565b9050919050565b5f819050919050565b611b8083611b4d565b611b94611b8c82611b6e565b848454611afc565b825550505050565b5f90565b611ba8611b9c565b611bb3818484611b77565b505050565b5b81811015611bd657611bcb5f82611ba0565b600181019050611bb9565b5050565b601f821115611c1b57611bec81611acf565b611bf584611ae1565b81016020851015611c04578190505b611c18611c1085611ae1565b830182611bb8565b50505b505050565b5f82821c905092915050565b5f611c3b5f1984600802611c20565b1980831691505092915050565b5f611c538383611c2c565b9150826002028217905092915050565b611c6c826116aa565b67ffffffffffffffff811115611c8557611c8461133a565b5b611c8f8254611a9f565b611c9a828285611bda565b5f60209050601f831160018114611ccb575f8415611cb9578287015190505b611cc38582611c48565b865550611d2a565b601f198416611cd986611acf565b5f5b82811015611d0057848901518255600182019150602085019450602081019050611cdb565b86831015611d1d5784890151611d19601f891682611c2c565b8355505b6001600288020188555050505b505050505050565b5f81905092915050565b5f611d46826116aa565b611d508185611d32565b9350611d608185602086016115d5565b80840191505092915050565b5f611d778284611d3c565b915081905092915050565b7f4e487b71000000000000000000000000000000000000000000000000000000005f52603260045260245ffd5b7f4e487b71000000000000000000000000000000000000000000000000000000005f52601160045260245ffd5b5f611de6826114a5565b9150611df1836114a5565b9250828202611dff816114a5565b91508282048414831517611e1657611e15611daf565b5b5092915050565b5f611e27826114a5565b9150611e32836114a5565b9250828201905080821115611e4a57611e49611daf565b5b92915050565b7f56616c7565206d7573742062652067726561746572207468616e207a65726f005f82015250565b5f611e84601f836116b4565b9150611e8f82611e50565b602082019050919050565b5f6020820190508181035f830152611eb181611e78565b9050919050565b7f5465616d20646f6573206e6f74206578697374000000000000000000000000005f82015250565b5f611eec6013836116b4565b9150611ef782611eb8565b602082019050919050565b5f6020820190508181035f830152611f1981611ee0565b9050919050565b7f4e487b71000000000000000000000000000000000000000000000000000000005f52601260045260245ffd5b5f611f57826114a5565b9150611f62836114a5565b925082611f7257611f71611f20565b5b828204905092915050565b7f436f6e7472616374206973206e6f74206f70656e0000000000000000000000005f82015250565b5f611fb16014836116b4565b9150611fbc82611f7d565b602082019050919050565b5f6020820190508181035f830152611fde81611fa5565b9050919050565b7f4f6e6c79206c6f6e672070617274792063616e20636c6f73652074686520636f5f8201527f6e74726163740000000000000000000000000000000000000000000000000000602082015250565b5f61203f6026836116b4565b915061204a82611fe5565b604082019050919050565b5f6020820190508181035f83015261206c81612033565b9050919050565b5f61207d826114a5565b9150612088836114a5565b92508282039050818111156120a05761209f611daf565b5b9291505056fea2646970667358221220068442c5b13d478eb533f657a4fd8da3818e7d78703fd126a7900a3cd0e446ee64736f6c63430008170033",
					"opcodes": "PUSH1 0x80 PUSH1 0x40 MSTORE CALLVALUE DUP1 ISZERO PUSH3 0x10 JUMPI PUSH0 DUP1 REVERT JUMPDEST POP PUSH1 0x40 MLOAD PUSH3 0x2AD2 CODESIZE SUB DUP1 PUSH3 0x2AD2 DUP4 CODECOPY DUP2 DUP2 ADD PUSH1 0x40 MSTORE DUP2 ADD SWAP1 PUSH3 0x36 SWAP2 SWAP1 PUSH3 0x4AA JUMP JUMPDEST CALLER PUSH0 PUSH20 0xFFFFFFFFFFFFFFFFFFFFFFFFFFFFFFFFFFFFFFFF AND DUP2 PUSH20 0xFFFFFFFFFFFFFFFFFFFFFFFFFFFFFFFFFFFFFFFF AND SUB PUSH3 0xAA JUMPI PUSH0 PUSH1 0x40 MLOAD PUSH32 0x1E4FBDF700000000000000000000000000000000000000000000000000000000 DUP2 MSTORE PUSH1 0x4 ADD PUSH3 0xA1 SWAP2 SWAP1 PUSH3 0x4EB JUMP JUMPDEST PUSH1 0x40 MLOAD DUP1 SWAP2 SUB SWAP1 REVERT JUMPDEST PUSH3 0xBB DUP2 PUSH3 0x29F PUSH1 0x20 SHL PUSH1 0x20 SHR JUMP JUMPDEST POP DUP1 PUSH1 0x1 PUSH0 PUSH2 0x100 EXP DUP2 SLOAD DUP2 PUSH20 0xFFFFFFFFFFFFFFFFFFFFFFFFFFFFFFFFFFFFFFFF MUL NOT AND SWAP1 DUP4 PUSH20 0xFFFFFFFFFFFFFFFFFFFFFFFFFFFFFFFFFFFFFFFF AND MUL OR SWAP1 SSTORE POP PUSH1 0x40 MLOAD DUP1 PUSH1 0x80 ADD PUSH1 0x40 MSTORE DUP1 PUSH1 0x40 MLOAD DUP1 PUSH1 0x40 ADD PUSH1 0x40 MSTORE DUP1 PUSH1 0x7 DUP2 MSTORE PUSH1 0x20 ADD PUSH32 0x417273656E616C00000000000000000000000000000000000000000000000000 DUP2 MSTORE POP DUP2 MSTORE PUSH1 0x20 ADD PUSH1 0x40 MLOAD DUP1 PUSH1 0x40 ADD PUSH1 0x40 MSTORE DUP1 PUSH1 0x7 DUP2 MSTORE PUSH1 0x20 ADD PUSH32 0x4368656C73656100000000000000000000000000000000000000000000000000 DUP2 MSTORE POP DUP2 MSTORE PUSH1 0x20 ADD PUSH1 0x40 MLOAD DUP1 PUSH1 0x40 ADD PUSH1 0x40 MSTORE DUP1 PUSH1 0x8 DUP2 MSTORE PUSH1 0x20 ADD PUSH32 0x4D616E2043697479000000000000000000000000000000000000000000000000 DUP2 MSTORE POP DUP2 MSTORE PUSH1 0x20 ADD PUSH1 0x40 MLOAD DUP1 PUSH1 0x40 ADD PUSH1 0x40 MSTORE DUP1 PUSH1 0x9 DUP2 MSTORE PUSH1 0x20 ADD PUSH32 0x4C69766572706F6F6C0000000000000000000000000000000000000000000000 DUP2 MSTORE POP DUP2 MSTORE POP PUSH1 0x7 SWAP1 PUSH1 0x4 PUSH3 0x203 SWAP3 SWAP2 SWAP1 PUSH3 0x360 JUMP JUMPDEST POP PUSH2 0x76C PUSH1 0x5 PUSH1 0x40 MLOAD PUSH3 0x217 SWAP1 PUSH3 0x55E JUMP JUMPDEST SWAP1 DUP2 MSTORE PUSH1 0x20 ADD PUSH1 0x40 MLOAD DUP1 SWAP2 SUB SWAP1 KECCAK256 DUP2 SWAP1 SSTORE POP PUSH2 0x7D0 PUSH1 0x5 PUSH1 0x40 MLOAD PUSH3 0x23C SWAP1 PUSH3 0x5C2 JUMP JUMPDEST SWAP1 DUP2 MSTORE PUSH1 0x20 ADD PUSH1 0x40 MLOAD DUP1 SWAP2 SUB SWAP1 KECCAK256 DUP2 SWAP1 SSTORE POP PUSH2 0x708 PUSH1 0x5 PUSH1 0x40 MLOAD PUSH3 0x261 SWAP1 PUSH3 0x626 JUMP JUMPDEST SWAP1 DUP2 MSTORE PUSH1 0x20 ADD PUSH1 0x40 MLOAD DUP1 SWAP2 SUB SWAP1 KECCAK256 DUP2 SWAP1 SSTORE POP PUSH2 0x708 PUSH1 0x5 PUSH1 0x40 MLOAD PUSH3 0x286 SWAP1 PUSH3 0x68A JUMP JUMPDEST SWAP1 DUP2 MSTORE PUSH1 0x20 ADD PUSH1 0x40 MLOAD DUP1 SWAP2 SUB SWAP1 KECCAK256 DUP2 SWAP1 SSTORE POP POP PUSH3 0x9E8 JUMP JUMPDEST PUSH0 DUP1 PUSH0 SWAP1 SLOAD SWAP1 PUSH2 0x100 EXP SWAP1 DIV PUSH20 0xFFFFFFFFFFFFFFFFFFFFFFFFFFFFFFFFFFFFFFFF AND SWAP1 POP DUP2 PUSH0 DUP1 PUSH2 0x100 EXP DUP2 SLOAD DUP2 PUSH20 0xFFFFFFFFFFFFFFFFFFFFFFFFFFFFFFFFFFFFFFFF MUL NOT AND SWAP1 DUP4 PUSH20 0xFFFFFFFFFFFFFFFFFFFFFFFFFFFFFFFFFFFFFFFF AND MUL OR SWAP1 SSTORE POP DUP2 PUSH20 0xFFFFFFFFFFFFFFFFFFFFFFFFFFFFFFFFFFFFFFFF AND DUP2 PUSH20 0xFFFFFFFFFFFFFFFFFFFFFFFFFFFFFFFFFFFFFFFF AND PUSH32 0x8BE0079C531659141344CD1FD0A4F28419497F9722A3DAAFE3B4186F6B6457E0 PUSH1 0x40 MLOAD PUSH1 0x40 MLOAD DUP1 SWAP2 SUB SWAP1 LOG3 POP POP JUMP JUMPDEST DUP3 DUP1 SLOAD DUP3 DUP3 SSTORE SWAP1 PUSH0 MSTORE PUSH1 0x20 PUSH0 KECCAK256 SWAP1 DUP2 ADD SWAP3 DUP3 ISZERO PUSH3 0x3AB JUMPI SWAP2 PUSH1 0x20 MUL DUP3 ADD JUMPDEST DUP3 DUP2 GT ISZERO PUSH3 0x3AA JUMPI DUP3 MLOAD DUP3 SWAP1 DUP2 PUSH3 0x399 SWAP2 SWAP1 PUSH3 0x904 JUMP JUMPDEST POP SWAP2 PUSH1 0x20 ADD SWAP2 SWAP1 PUSH1 0x1 ADD SWAP1 PUSH3 0x37F JUMP JUMPDEST JUMPDEST POP SWAP1 POP PUSH3 0x3BA SWAP2 SWAP1 PUSH3 0x3BE JUMP JUMPDEST POP SWAP1 JUMP JUMPDEST JUMPDEST DUP1 DUP3 GT ISZERO PUSH3 0x3E1 JUMPI PUSH0 DUP2 DUP2 PUSH3 0x3D7 SWAP2 SWAP1 PUSH3 0x3E5 JUMP JUMPDEST POP PUSH1 0x1 ADD PUSH3 0x3BF JUMP JUMPDEST POP SWAP1 JUMP JUMPDEST POP DUP1 SLOAD PUSH3 0x3F3 SWAP1 PUSH3 0x704 JUMP JUMPDEST PUSH0 DUP3 SSTORE DUP1 PUSH1 0x1F LT PUSH3 0x406 JUMPI POP PUSH3 0x425 JUMP JUMPDEST PUSH1 0x1F ADD PUSH1 0x20 SWAP1 DIV SWAP1 PUSH0 MSTORE PUSH1 0x20 PUSH0 KECCAK256 SWAP1 DUP2 ADD SWAP1 PUSH3 0x424 SWAP2 SWAP1 PUSH3 0x428 JUMP JUMPDEST JUMPDEST POP JUMP JUMPDEST JUMPDEST DUP1 DUP3 GT ISZERO PUSH3 0x441 JUMPI PUSH0 DUP2 PUSH0 SWAP1 SSTORE POP PUSH1 0x1 ADD PUSH3 0x429 JUMP JUMPDEST POP SWAP1 JUMP JUMPDEST PUSH0 DUP1 REVERT JUMPDEST PUSH0 PUSH20 0xFFFFFFFFFFFFFFFFFFFFFFFFFFFFFFFFFFFFFFFF DUP3 AND SWAP1 POP SWAP2 SWAP1 POP JUMP JUMPDEST PUSH0 PUSH3 0x474 DUP3 PUSH3 0x449 JUMP JUMPDEST SWAP1 POP SWAP2 SWAP1 POP JUMP JUMPDEST PUSH3 0x486 DUP2 PUSH3 0x468 JUMP JUMPDEST DUP2 EQ PUSH3 0x491 JUMPI PUSH0 DUP1 REVERT JUMPDEST POP JUMP JUMPDEST PUSH0 DUP2 MLOAD SWAP1 POP PUSH3 0x4A4 DUP2 PUSH3 0x47B JUMP JUMPDEST SWAP3 SWAP2 POP POP JUMP JUMPDEST PUSH0 PUSH1 0x20 DUP3 DUP5 SUB SLT ISZERO PUSH3 0x4C2 JUMPI PUSH3 0x4C1 PUSH3 0x445 JUMP JUMPDEST JUMPDEST PUSH0 PUSH3 0x4D1 DUP5 DUP3 DUP6 ADD PUSH3 0x494 JUMP JUMPDEST SWAP2 POP POP SWAP3 SWAP2 POP POP JUMP JUMPDEST PUSH3 0x4E5 DUP2 PUSH3 0x468 JUMP JUMPDEST DUP3 MSTORE POP POP JUMP JUMPDEST PUSH0 PUSH1 0x20 DUP3 ADD SWAP1 POP PUSH3 0x500 PUSH0 DUP4 ADD DUP5 PUSH3 0x4DA JUMP JUMPDEST SWAP3 SWAP2 POP POP JUMP JUMPDEST PUSH0 DUP2 SWAP1 POP SWAP3 SWAP2 POP POP JUMP JUMPDEST PUSH32 0x417273656E616C00000000000000000000000000000000000000000000000000 PUSH0 DUP3 ADD MSTORE POP JUMP JUMPDEST PUSH0 PUSH3 0x546 PUSH1 0x7 DUP4 PUSH3 0x506 JUMP JUMPDEST SWAP2 POP PUSH3 0x553 DUP3 PUSH3 0x510 JUMP JUMPDEST PUSH1 0x7 DUP3 ADD SWAP1 POP SWAP2 SWAP1 POP JUMP JUMPDEST PUSH0 PUSH3 0x56A DUP3 PUSH3 0x538 JUMP JUMPDEST SWAP2 POP DUP2 SWAP1 POP SWAP2 SWAP1 POP JUMP JUMPDEST PUSH32 0x4368656C73656100000000000000000000000000000000000000000000000000 PUSH0 DUP3 ADD MSTORE POP JUMP JUMPDEST PUSH0 PUSH3 0x5AA PUSH1 0x7 DUP4 PUSH3 0x506 JUMP JUMPDEST SWAP2 POP PUSH3 0x5B7 DUP3 PUSH3 0x574 JUMP JUMPDEST PUSH1 0x7 DUP3 ADD SWAP1 POP SWAP2 SWAP1 POP JUMP JUMPDEST PUSH0 PUSH3 0x5CE DUP3 PUSH3 0x59C JUMP JUMPDEST SWAP2 POP DUP2 SWAP1 POP SWAP2 SWAP1 POP JUMP JUMPDEST PUSH32 0x4D616E2043697479000000000000000000000000000000000000000000000000 PUSH0 DUP3 ADD MSTORE POP JUMP JUMPDEST PUSH0 PUSH3 0x60E PUSH1 0x8 DUP4 PUSH3 0x506 JUMP JUMPDEST SWAP2 POP PUSH3 0x61B DUP3 PUSH3 0x5D8 JUMP JUMPDEST PUSH1 0x8 DUP3 ADD SWAP1 POP SWAP2 SWAP1 POP JUMP JUMPDEST PUSH0 PUSH3 0x632 DUP3 PUSH3 0x600 JUMP JUMPDEST SWAP2 POP DUP2 SWAP1 POP SWAP2 SWAP1 POP JUMP JUMPDEST PUSH32 0x4C69766572706F6F6C0000000000000000000000000000000000000000000000 PUSH0 DUP3 ADD MSTORE POP JUMP JUMPDEST PUSH0 PUSH3 0x672 PUSH1 0x9 DUP4 PUSH3 0x506 JUMP JUMPDEST SWAP2 POP PUSH3 0x67F DUP3 PUSH3 0x63C JUMP JUMPDEST PUSH1 0x9 DUP3 ADD SWAP1 POP SWAP2 SWAP1 POP JUMP JUMPDEST PUSH0 PUSH3 0x696 DUP3 PUSH3 0x664 JUMP JUMPDEST SWAP2 POP DUP2 SWAP1 POP SWAP2 SWAP1 POP JUMP JUMPDEST PUSH0 DUP2 MLOAD SWAP1 POP SWAP2 SWAP1 POP JUMP JUMPDEST PUSH32 0x4E487B7100000000000000000000000000000000000000000000000000000000 PUSH0 MSTORE PUSH1 0x41 PUSH1 0x4 MSTORE PUSH1 0x24 PUSH0 REVERT JUMPDEST PUSH32 0x4E487B7100000000000000000000000000000000000000000000000000000000 PUSH0 MSTORE PUSH1 0x22 PUSH1 0x4 MSTORE PUSH1 0x24 PUSH0 REVERT JUMPDEST PUSH0 PUSH1 0x2 DUP3 DIV SWAP1 POP PUSH1 0x1 DUP3 AND DUP1 PUSH3 0x71C JUMPI PUSH1 0x7F DUP3 AND SWAP2 POP JUMPDEST PUSH1 0x20 DUP3 LT DUP2 SUB PUSH3 0x732 JUMPI PUSH3 0x731 PUSH3 0x6D7 JUMP JUMPDEST JUMPDEST POP SWAP2 SWAP1 POP JUMP JUMPDEST PUSH0 DUP2 SWAP1 POP DUP2 PUSH0 MSTORE PUSH1 0x20 PUSH0 KECCAK256 SWAP1 POP SWAP2 SWAP1 POP JUMP JUMPDEST PUSH0 PUSH1 0x20 PUSH1 0x1F DUP4 ADD DIV SWAP1 POP SWAP2 SWAP1 POP JUMP JUMPDEST PUSH0 DUP3 DUP3 SHL SWAP1 POP SWAP3 SWAP2 POP POP JUMP JUMPDEST PUSH0 PUSH1 0x8 DUP4 MUL PUSH3 0x796 PUSH32 0xFFFFFFFFFFFFFFFFFFFFFFFFFFFFFFFFFFFFFFFFFFFFFFFFFFFFFFFFFFFFFFFF DUP3 PUSH3 0x759 JUMP JUMPDEST PUSH3 0x7A2 DUP7 DUP4 PUSH3 0x759 JUMP JUMPDEST SWAP6 POP DUP1 NOT DUP5 AND SWAP4 POP DUP1 DUP7 AND DUP5 OR SWAP3 POP POP POP SWAP4 SWAP3 POP POP POP JUMP JUMPDEST PUSH0 DUP2 SWAP1 POP SWAP2 SWAP1 POP JUMP JUMPDEST PUSH0 DUP2 SWAP1 POP SWAP2 SWAP1 POP JUMP JUMPDEST PUSH0 PUSH3 0x7EC PUSH3 0x7E6 PUSH3 0x7E0 DUP5 PUSH3 0x7BA JUMP JUMPDEST PUSH3 0x7C3 JUMP JUMPDEST PUSH3 0x7BA JUMP JUMPDEST SWAP1 POP SWAP2 SWAP1 POP JUMP JUMPDEST PUSH0 DUP2 SWAP1 POP SWAP2 SWAP1 POP JUMP JUMPDEST PUSH3 0x807 DUP4 PUSH3 0x7CC JUMP JUMPDEST PUSH3 0x81F PUSH3 0x816 DUP3 PUSH3 0x7F3 JUMP JUMPDEST DUP5 DUP5 SLOAD PUSH3 0x765 JUMP JUMPDEST DUP3 SSTORE POP POP POP POP JUMP JUMPDEST PUSH0 SWAP1 JUMP JUMPDEST PUSH3 0x835 PUSH3 0x827 JUMP JUMPDEST PUSH3 0x842 DUP2 DUP5 DUP5 PUSH3 0x7FC JUMP JUMPDEST POP POP POP JUMP JUMPDEST JUMPDEST DUP2 DUP2 LT ISZERO PUSH3 0x869 JUMPI PUSH3 0x85D PUSH0 DUP3 PUSH3 0x82B JUMP JUMPDEST PUSH1 0x1 DUP2 ADD SWAP1 POP PUSH3 0x848 JUMP JUMPDEST POP POP JUMP JUMPDEST PUSH1 0x1F DUP3 GT ISZERO PUSH3 0x8B8 JUMPI PUSH3 0x882 DUP2 PUSH3 0x738 JUMP JUMPDEST PUSH3 0x88D DUP5 PUSH3 0x74A JUMP JUMPDEST DUP2 ADD PUSH1 0x20 DUP6 LT ISZERO PUSH3 0x89D JUMPI DUP2 SWAP1 POP JUMPDEST PUSH3 0x8B5 PUSH3 0x8AC DUP6 PUSH3 0x74A JUMP JUMPDEST DUP4 ADD DUP3 PUSH3 0x847 JUMP JUMPDEST POP POP JUMPDEST POP POP POP JUMP JUMPDEST PUSH0 DUP3 DUP3 SHR SWAP1 POP SWAP3 SWAP2 POP POP JUMP JUMPDEST PUSH0 PUSH3 0x8DA PUSH0 NOT DUP5 PUSH1 0x8 MUL PUSH3 0x8BD JUMP JUMPDEST NOT DUP1 DUP4 AND SWAP2 POP POP SWAP3 SWAP2 POP POP JUMP JUMPDEST PUSH0 PUSH3 0x8F4 DUP4 DUP4 PUSH3 0x8C9 JUMP JUMPDEST SWAP2 POP DUP3 PUSH1 0x2 MUL DUP3 OR SWAP1 POP SWAP3 SWAP2 POP POP JUMP JUMPDEST PUSH3 0x90F DUP3 PUSH3 0x6A0 JUMP JUMPDEST PUSH8 0xFFFFFFFFFFFFFFFF DUP2 GT ISZERO PUSH3 0x92B JUMPI PUSH3 0x92A PUSH3 0x6AA JUMP JUMPDEST JUMPDEST PUSH3 0x937 DUP3 SLOAD PUSH3 0x704 JUMP JUMPDEST PUSH3 0x944 DUP3 DUP3 DUP6 PUSH3 0x86D JUMP JUMPDEST PUSH0 PUSH1 0x20 SWAP1 POP PUSH1 0x1F DUP4 GT PUSH1 0x1 DUP2 EQ PUSH3 0x97A JUMPI PUSH0 DUP5 ISZERO PUSH3 0x965 JUMPI DUP3 DUP8 ADD MLOAD SWAP1 POP JUMPDEST PUSH3 0x971 DUP6 DUP3 PUSH3 0x8E7 JUMP JUMPDEST DUP7 SSTORE POP PUSH3 0x9E0 JUMP JUMPDEST PUSH1 0x1F NOT DUP5 AND PUSH3 0x98A DUP7 PUSH3 0x738 JUMP JUMPDEST PUSH0 JUMPDEST DUP3 DUP2 LT ISZERO PUSH3 0x9B3 JUMPI DUP5 DUP10 ADD MLOAD DUP3 SSTORE PUSH1 0x1 DUP3 ADD SWAP2 POP PUSH1 0x20 DUP6 ADD SWAP5 POP PUSH1 0x20 DUP2 ADD SWAP1 POP PUSH3 0x98C JUMP JUMPDEST DUP7 DUP4 LT ISZERO PUSH3 0x9D3 JUMPI DUP5 DUP10 ADD MLOAD PUSH3 0x9CF PUSH1 0x1F DUP10 AND DUP3 PUSH3 0x8C9 JUMP JUMPDEST DUP4 SSTORE POP JUMPDEST PUSH1 0x1 PUSH1 0x2 DUP9 MUL ADD DUP9 SSTORE POP POP POP JUMPDEST POP POP POP POP POP POP JUMP JUMPDEST PUSH2 0x20DC DUP1 PUSH3 0x9F6 PUSH0 CODECOPY PUSH0 RETURN INVALID PUSH1 0x80 PUSH1 0x40 MSTORE PUSH1 0x4 CALLDATASIZE LT PUSH2 0x11E JUMPI PUSH0 CALLDATALOAD PUSH1 0xE0 SHR DUP1 PUSH4 0x8DA5CB5B GT PUSH2 0x9F JUMPI DUP1 PUSH4 0xD0CE7360 GT PUSH2 0x63 JUMPI DUP1 PUSH4 0xD0CE7360 EQ PUSH2 0x3F0 JUMPI DUP1 PUSH4 0xDB027E05 EQ PUSH2 0x418 JUMPI DUP1 PUSH4 0xED23F8C3 EQ PUSH2 0x454 JUMPI DUP1 PUSH4 0xF2FDE38B EQ PUSH2 0x496 JUMPI DUP1 PUSH4 0xFDF3F74D EQ PUSH2 0x4BE JUMPI PUSH2 0x11E JUMP JUMPDEST DUP1 PUSH4 0x8DA5CB5B EQ PUSH2 0x30A JUMPI DUP1 PUSH4 0x9DA751BB EQ PUSH2 0x334 JUMPI DUP1 PUSH4 0xA265B84D EQ PUSH2 0x350 JUMPI DUP1 PUSH4 0xAC580DE7 EQ PUSH2 0x38C JUMPI DUP1 PUSH4 0xCE13EC89 EQ PUSH2 0x3C8 JUMPI PUSH2 0x11E JUMP JUMPDEST DUP1 PUSH4 0x4406D219 GT PUSH2 0xE6 JUMPI DUP1 PUSH4 0x4406D219 EQ PUSH2 0x22A JUMPI DUP1 PUSH4 0x46E7A1DC EQ PUSH2 0x252 JUMPI DUP1 PUSH4 0x5AE725F7 EQ PUSH2 0x28E JUMPI DUP1 PUSH4 0x715018A6 EQ PUSH2 0x2CA JUMPI DUP1 PUSH4 0x89279378 EQ PUSH2 0x2E0 JUMPI PUSH2 0x11E JUMP JUMPDEST DUP1 PUSH4 0x232424D EQ PUSH2 0x122 JUMPI DUP1 PUSH4 0x2D06D05 EQ PUSH2 0x14C JUMPI DUP1 PUSH4 0x8AB2D4B EQ PUSH2 0x188 JUMPI DUP1 PUSH4 0x12065FE0 EQ PUSH2 0x1C4 JUMPI DUP1 PUSH4 0x27826F1E EQ PUSH2 0x1EE JUMPI JUMPDEST PUSH0 DUP1 REVERT JUMPDEST CALLVALUE DUP1 ISZERO PUSH2 0x12D JUMPI PUSH0 DUP1 REVERT JUMPDEST POP PUSH2 0x136 PUSH2 0x4FA JUMP JUMPDEST PUSH1 0x40 MLOAD PUSH2 0x143 SWAP2 SWAP1 PUSH2 0x12F8 JUMP JUMPDEST PUSH1 0x40 MLOAD DUP1 SWAP2 SUB SWAP1 RETURN JUMPDEST CALLVALUE DUP1 ISZERO PUSH2 0x157 JUMPI PUSH0 DUP1 REVERT JUMPDEST POP PUSH2 0x172 PUSH1 0x4 DUP1 CALLDATASIZE SUB DUP2 ADD SWAP1 PUSH2 0x16D SWAP2 SWAP1 PUSH2 0x145E JUMP JUMPDEST PUSH2 0x51F JUMP JUMPDEST PUSH1 0x40 MLOAD PUSH2 0x17F SWAP2 SWAP1 PUSH2 0x14BD JUMP JUMPDEST PUSH1 0x40 MLOAD DUP1 SWAP2 SUB SWAP1 RETURN JUMPDEST CALLVALUE DUP1 ISZERO PUSH2 0x193 JUMPI PUSH0 DUP1 REVERT JUMPDEST POP PUSH2 0x1AE PUSH1 0x4 DUP1 CALLDATASIZE SUB DUP2 ADD SWAP1 PUSH2 0x1A9 SWAP2 SWAP1 PUSH2 0x1574 JUMP JUMPDEST PUSH2 0x575 JUMP JUMPDEST PUSH1 0x40 MLOAD PUSH2 0x1BB SWAP2 SWAP1 PUSH2 0x14BD JUMP JUMPDEST PUSH1 0x40 MLOAD DUP1 SWAP2 SUB SWAP1 RETURN JUMPDEST CALLVALUE DUP1 ISZERO PUSH2 0x1CF JUMPI PUSH0 DUP1 REVERT JUMPDEST POP PUSH2 0x1D8 PUSH2 0x624 JUMP JUMPDEST PUSH1 0x40 MLOAD PUSH2 0x1E5 SWAP2 SWAP1 PUSH2 0x14BD JUMP JUMPDEST PUSH1 0x40 MLOAD DUP1 SWAP2 SUB SWAP1 RETURN JUMPDEST CALLVALUE DUP1 ISZERO PUSH2 0x1F9 JUMPI PUSH0 DUP1 REVERT JUMPDEST POP PUSH2 0x214 PUSH1 0x4 DUP1 CALLDATASIZE SUB DUP2 ADD SWAP1 PUSH2 0x20F SWAP2 SWAP1 PUSH2 0x1574 JUMP JUMPDEST PUSH2 0x62B JUMP JUMPDEST PUSH1 0x40 MLOAD PUSH2 0x221 SWAP2 SWAP1 PUSH2 0x1635 JUMP JUMPDEST PUSH1 0x40 MLOAD DUP1 SWAP2 SUB SWAP1 RETURN JUMPDEST CALLVALUE DUP1 ISZERO PUSH2 0x235 JUMPI PUSH0 DUP1 REVERT JUMPDEST POP PUSH2 0x250 PUSH1 0x4 DUP1 CALLDATASIZE SUB DUP2 ADD SWAP1 PUSH2 0x24B SWAP2 SWAP1 PUSH2 0x1574 JUMP JUMPDEST PUSH2 0x6D3 JUMP JUMPDEST STOP JUMPDEST CALLVALUE DUP1 ISZERO PUSH2 0x25D JUMPI PUSH0 DUP1 REVERT JUMPDEST POP PUSH2 0x278 PUSH1 0x4 DUP1 CALLDATASIZE SUB DUP2 ADD SWAP1 PUSH2 0x273 SWAP2 SWAP1 PUSH2 0x1574 JUMP JUMPDEST PUSH2 0x708 JUMP JUMPDEST PUSH1 0x40 MLOAD PUSH2 0x285 SWAP2 SWAP1 PUSH2 0x14BD JUMP JUMPDEST PUSH1 0x40 MLOAD DUP1 SWAP2 SUB SWAP1 RETURN JUMPDEST CALLVALUE DUP1 ISZERO PUSH2 0x299 JUMPI PUSH0 DUP1 REVERT JUMPDEST POP PUSH2 0x2B4 PUSH1 0x4 DUP1 CALLDATASIZE SUB DUP2 ADD SWAP1 PUSH2 0x2AF SWAP2 SWAP1 PUSH2 0x167F JUMP JUMPDEST PUSH2 0x72F JUMP JUMPDEST PUSH1 0x40 MLOAD PUSH2 0x2C1 SWAP2 SWAP1 PUSH2 0x16FC JUMP JUMPDEST PUSH1 0x40 MLOAD DUP1 SWAP2 SUB SWAP1 RETURN JUMPDEST CALLVALUE DUP1 ISZERO PUSH2 0x2D5 JUMPI PUSH0 DUP1 REVERT JUMPDEST POP PUSH2 0x2DE PUSH2 0x7D5 JUMP JUMPDEST STOP JUMPDEST CALLVALUE DUP1 ISZERO PUSH2 0x2EB JUMPI PUSH0 DUP1 REVERT JUMPDEST POP PUSH2 0x2F4 PUSH2 0x7E8 JUMP JUMPDEST PUSH1 0x40 MLOAD PUSH2 0x301 SWAP2 SWAP1 PUSH2 0x14BD JUMP JUMPDEST PUSH1 0x40 MLOAD DUP1 SWAP2 SUB SWAP1 RETURN JUMPDEST CALLVALUE DUP1 ISZERO PUSH2 0x315 JUMPI PUSH0 DUP1 REVERT JUMPDEST POP PUSH2 0x31E PUSH2 0x8FC JUMP JUMPDEST PUSH1 0x40 MLOAD PUSH2 0x32B SWAP2 SWAP1 PUSH2 0x173C JUMP JUMPDEST PUSH1 0x40 MLOAD DUP1 SWAP2 SUB SWAP1 RETURN JUMPDEST PUSH2 0x34E PUSH1 0x4 DUP1 CALLDATASIZE SUB DUP2 ADD SWAP1 PUSH2 0x349 SWAP2 SWAP1 PUSH2 0x1574 JUMP JUMPDEST PUSH2 0x923 JUMP JUMPDEST STOP JUMPDEST CALLVALUE DUP1 ISZERO PUSH2 0x35B JUMPI PUSH0 DUP1 REVERT JUMPDEST POP PUSH2 0x376 PUSH1 0x4 DUP1 CALLDATASIZE SUB DUP2 ADD SWAP1 PUSH2 0x371 SWAP2 SWAP1 PUSH2 0x167F JUMP JUMPDEST PUSH2 0xB72 JUMP JUMPDEST PUSH1 0x40 MLOAD PUSH2 0x383 SWAP2 SWAP1 PUSH2 0x14BD JUMP JUMPDEST PUSH1 0x40 MLOAD DUP1 SWAP2 SUB SWAP1 RETURN JUMPDEST CALLVALUE DUP1 ISZERO PUSH2 0x397 JUMPI PUSH0 DUP1 REVERT JUMPDEST POP PUSH2 0x3B2 PUSH1 0x4 DUP1 CALLDATASIZE SUB DUP2 ADD SWAP1 PUSH2 0x3AD SWAP2 SWAP1 PUSH2 0x177F JUMP JUMPDEST PUSH2 0xCA9 JUMP JUMPDEST PUSH1 0x40 MLOAD PUSH2 0x3BF SWAP2 SWAP1 PUSH2 0x14BD JUMP JUMPDEST PUSH1 0x40 MLOAD DUP1 SWAP2 SUB SWAP1 RETURN JUMPDEST CALLVALUE DUP1 ISZERO PUSH2 0x3D3 JUMPI PUSH0 DUP1 REVERT JUMPDEST POP PUSH2 0x3EE PUSH1 0x4 DUP1 CALLDATASIZE SUB DUP2 ADD SWAP1 PUSH2 0x3E9 SWAP2 SWAP1 PUSH2 0x17AA JUMP JUMPDEST PUSH2 0xCBE JUMP JUMPDEST STOP JUMPDEST CALLVALUE DUP1 ISZERO PUSH2 0x3FB JUMPI PUSH0 DUP1 REVERT JUMPDEST POP PUSH2 0x416 PUSH1 0x4 DUP1 CALLDATASIZE SUB DUP2 ADD SWAP1 PUSH2 0x411 SWAP2 SWAP1 PUSH2 0x167F JUMP JUMPDEST PUSH2 0xCE5 JUMP JUMPDEST STOP JUMPDEST CALLVALUE DUP1 ISZERO PUSH2 0x423 JUMPI PUSH0 DUP1 REVERT JUMPDEST POP PUSH2 0x43E PUSH1 0x4 DUP1 CALLDATASIZE SUB DUP2 ADD SWAP1 PUSH2 0x439 SWAP2 SWAP1 PUSH2 0x1574 JUMP JUMPDEST PUSH2 0xF4B JUMP JUMPDEST PUSH1 0x40 MLOAD PUSH2 0x44B SWAP2 SWAP1 PUSH2 0x14BD JUMP JUMPDEST PUSH1 0x40 MLOAD DUP1 SWAP2 SUB SWAP1 RETURN JUMPDEST CALLVALUE DUP1 ISZERO PUSH2 0x45F JUMPI PUSH0 DUP1 REVERT JUMPDEST POP PUSH2 0x47A PUSH1 0x4 DUP1 CALLDATASIZE SUB DUP2 ADD SWAP1 PUSH2 0x475 SWAP2 SWAP1 PUSH2 0x1804 JUMP JUMPDEST PUSH2 0xF78 JUMP JUMPDEST PUSH1 0x40 MLOAD PUSH2 0x48D SWAP8 SWAP7 SWAP6 SWAP5 SWAP4 SWAP3 SWAP2 SWAP1 PUSH2 0x185C JUMP JUMPDEST PUSH1 0x40 MLOAD DUP1 SWAP2 SUB SWAP1 RETURN JUMPDEST CALLVALUE DUP1 ISZERO PUSH2 0x4A1 JUMPI PUSH0 DUP1 REVERT JUMPDEST POP PUSH2 0x4BC PUSH1 0x4 DUP1 CALLDATASIZE SUB DUP2 ADD SWAP1 PUSH2 0x4B7 SWAP2 SWAP1 PUSH2 0x177F JUMP JUMPDEST PUSH2 0x107E JUMP JUMPDEST STOP JUMPDEST CALLVALUE DUP1 ISZERO PUSH2 0x4C9 JUMPI PUSH0 DUP1 REVERT JUMPDEST POP PUSH2 0x4E4 PUSH1 0x4 DUP1 CALLDATASIZE SUB DUP2 ADD SWAP1 PUSH2 0x4DF SWAP2 SWAP1 PUSH2 0x1574 JUMP JUMPDEST PUSH2 0x1102 JUMP JUMPDEST PUSH1 0x40 MLOAD PUSH2 0x4F1 SWAP2 SWAP1 PUSH2 0x14BD JUMP JUMPDEST PUSH1 0x40 MLOAD DUP1 SWAP2 SUB SWAP1 RETURN JUMPDEST PUSH1 0x1 PUSH0 SWAP1 SLOAD SWAP1 PUSH2 0x100 EXP SWAP1 DIV PUSH20 0xFFFFFFFFFFFFFFFFFFFFFFFFFFFFFFFFFFFFFFFF AND DUP2 JUMP JUMPDEST PUSH0 PUSH1 0x20 DUP3 MLOAD EQ PUSH2 0x564 JUMPI PUSH1 0x40 MLOAD PUSH32 0x8C379A000000000000000000000000000000000000000000000000000000000 DUP2 MSTORE PUSH1 0x4 ADD PUSH2 0x55B SWAP1 PUSH2 0x191A JUMP JUMPDEST PUSH1 0x40 MLOAD DUP1 SWAP2 SUB SWAP1 REVERT JUMPDEST PUSH0 PUSH1 0x20 DUP4 ADD MLOAD SWAP1 POP DUP1 SWAP2 POP POP SWAP2 SWAP1 POP JUMP JUMPDEST PUSH0 PUSH2 0x61D PUSH1 0x1 PUSH0 SWAP1 SLOAD SWAP1 PUSH2 0x100 EXP SWAP1 DIV PUSH20 0xFFFFFFFFFFFFFFFFFFFFFFFFFFFFFFFFFFFFFFFF AND PUSH20 0xFFFFFFFFFFFFFFFFFFFFFFFFFFFFFFFFFFFFFFFF AND PUSH4 0x475F1686 DUP5 PUSH1 0x40 MLOAD DUP3 PUSH4 0xFFFFFFFF AND PUSH1 0xE0 SHL DUP2 MSTORE PUSH1 0x4 ADD PUSH2 0x5D3 SWAP2 SWAP1 PUSH2 0x16FC JUMP JUMPDEST PUSH0 PUSH1 0x40 MLOAD DUP1 DUP4 SUB DUP2 DUP7 GAS STATICCALL ISZERO DUP1 ISZERO PUSH2 0x5ED JUMPI RETURNDATASIZE PUSH0 DUP1 RETURNDATACOPY RETURNDATASIZE PUSH0 REVERT JUMPDEST POP POP POP POP PUSH1 0x40 MLOAD RETURNDATASIZE PUSH0 DUP3 RETURNDATACOPY RETURNDATASIZE PUSH1 0x1F NOT PUSH1 0x1F DUP3 ADD AND DUP3 ADD DUP1 PUSH1 0x40 MSTORE POP DUP2 ADD SWAP1 PUSH2 0x615 SWAP2 SWAP1 PUSH2 0x1A2B JUMP JUMPDEST PUSH0 ADD MLOAD PUSH2 0x51F JUMP JUMPDEST SWAP1 POP SWAP2 SWAP1 POP JUMP JUMPDEST PUSH0 SELFBALANCE SWAP1 POP SWAP1 JUMP JUMPDEST PUSH1 0x60 PUSH1 0x1 PUSH0 SWAP1 SLOAD SWAP1 PUSH2 0x100 EXP SWAP1 DIV PUSH20 0xFFFFFFFFFFFFFFFFFFFFFFFFFFFFFFFFFFFFFFFF AND PUSH20 0xFFFFFFFFFFFFFFFFFFFFFFFFFFFFFFFFFFFFFFFF AND PUSH4 0x475F1686 DUP4 PUSH1 0x40 MLOAD DUP3 PUSH4 0xFFFFFFFF AND PUSH1 0xE0 SHL DUP2 MSTORE PUSH1 0x4 ADD PUSH2 0x687 SWAP2 SWAP1 PUSH2 0x16FC JUMP JUMPDEST PUSH0 PUSH1 0x40 MLOAD DUP1 DUP4 SUB DUP2 DUP7 GAS STATICCALL ISZERO DUP1 ISZERO PUSH2 0x6A1 JUMPI RETURNDATASIZE PUSH0 DUP1 RETURNDATACOPY RETURNDATASIZE PUSH0 REVERT JUMPDEST POP POP POP POP PUSH1 0x40 MLOAD RETURNDATASIZE PUSH0 DUP3 RETURNDATACOPY RETURNDATASIZE PUSH1 0x1F NOT PUSH1 0x1F DUP3 ADD AND DUP3 ADD DUP1 PUSH1 0x40 MSTORE POP DUP2 ADD SWAP1 PUSH2 0x6C9 SWAP2 SWAP1 PUSH2 0x1A2B JUMP JUMPDEST PUSH0 ADD MLOAD SWAP1 POP SWAP2 SWAP1 POP JUMP JUMPDEST PUSH1 0x7 DUP2 SWAP1 DUP1 PUSH1 0x1 DUP2 SLOAD ADD DUP1 DUP3 SSTORE DUP1 SWAP2 POP POP PUSH1 0x1 SWAP1 SUB SWAP1 PUSH0 MSTORE PUSH1 0x20 PUSH0 KECCAK256 ADD PUSH0 SWAP1 SWAP2 SWAP1 SWAP2 SWAP1 SWAP2 POP SWAP1 DUP2 PUSH2 0x704 SWAP2 SWAP1 PUSH2 0x1C63 JUMP JUMPDEST POP POP JUMP JUMPDEST PUSH0 PUSH1 0x5 DUP3 PUSH1 0x40 MLOAD PUSH2 0x719 SWAP2 SWAP1 PUSH2 0x1D6C JUMP JUMPDEST SWAP1 DUP2 MSTORE PUSH1 0x20 ADD PUSH1 0x40 MLOAD DUP1 SWAP2 SUB SWAP1 KECCAK256 SLOAD SWAP1 POP SWAP2 SWAP1 POP JUMP JUMPDEST PUSH1 0x7 DUP2 DUP2 SLOAD DUP2 LT PUSH2 0x73E JUMPI PUSH0 DUP1 REVERT JUMPDEST SWAP1 PUSH0 MSTORE PUSH1 0x20 PUSH0 KECCAK256 ADD PUSH0 SWAP2 POP SWAP1 POP DUP1 SLOAD PUSH2 0x756 SWAP1 PUSH2 0x1A9F JUMP JUMPDEST DUP1 PUSH1 0x1F ADD PUSH1 0x20 DUP1 SWAP2 DIV MUL PUSH1 0x20 ADD PUSH1 0x40 MLOAD SWAP1 DUP2 ADD PUSH1 0x40 MSTORE DUP1 SWAP3 SWAP2 SWAP1 DUP2 DUP2 MSTORE PUSH1 0x20 ADD DUP3 DUP1 SLOAD PUSH2 0x782 SWAP1 PUSH2 0x1A9F JUMP JUMPDEST DUP1 ISZERO PUSH2 0x7CD JUMPI DUP1 PUSH1 0x1F LT PUSH2 0x7A4 JUMPI PUSH2 0x100 DUP1 DUP4 SLOAD DIV MUL DUP4 MSTORE SWAP2 PUSH1 0x20 ADD SWAP2 PUSH2 0x7CD JUMP JUMPDEST DUP3 ADD SWAP2 SWAP1 PUSH0 MSTORE PUSH1 0x20 PUSH0 KECCAK256 SWAP1 JUMPDEST DUP2 SLOAD DUP2 MSTORE SWAP1 PUSH1 0x1 ADD SWAP1 PUSH1 0x20 ADD DUP1 DUP4 GT PUSH2 0x7B0 JUMPI DUP3 SWAP1 SUB PUSH1 0x1F AND DUP3 ADD SWAP2 JUMPDEST POP POP POP POP POP DUP2 JUMP JUMPDEST PUSH2 0x7DD PUSH2 0x112F JUMP JUMPDEST PUSH2 0x7E6 PUSH0 PUSH2 0x11B6 JUMP JUMPDEST JUMP JUMPDEST PUSH0 DUP1 PUSH0 SWAP1 POP PUSH0 JUMPDEST PUSH1 0x7 DUP1 SLOAD SWAP1 POP DUP2 LT ISZERO PUSH2 0x8F4 JUMPI PUSH0 PUSH1 0x7 DUP3 DUP2 SLOAD DUP2 LT PUSH2 0x811 JUMPI PUSH2 0x810 PUSH2 0x1D82 JUMP JUMPDEST JUMPDEST SWAP1 PUSH0 MSTORE PUSH1 0x20 PUSH0 KECCAK256 ADD DUP1 SLOAD PUSH2 0x824 SWAP1 PUSH2 0x1A9F JUMP JUMPDEST DUP1 PUSH1 0x1F ADD PUSH1 0x20 DUP1 SWAP2 DIV MUL PUSH1 0x20 ADD PUSH1 0x40 MLOAD SWAP1 DUP2 ADD PUSH1 0x40 MSTORE DUP1 SWAP3 SWAP2 SWAP1 DUP2 DUP2 MSTORE PUSH1 0x20 ADD DUP3 DUP1 SLOAD PUSH2 0x850 SWAP1 PUSH2 0x1A9F JUMP JUMPDEST DUP1 ISZERO PUSH2 0x89B JUMPI DUP1 PUSH1 0x1F LT PUSH2 0x872 JUMPI PUSH2 0x100 DUP1 DUP4 SLOAD DIV MUL DUP4 MSTORE SWAP2 PUSH1 0x20 ADD SWAP2 PUSH2 0x89B JUMP JUMPDEST DUP3 ADD SWAP2 SWAP1 PUSH0 MSTORE PUSH1 0x20 PUSH0 KECCAK256 SWAP1 JUMPDEST DUP2 SLOAD DUP2 MSTORE SWAP1 PUSH1 0x1 ADD SWAP1 PUSH1 0x20 ADD DUP1 DUP4 GT PUSH2 0x87E JUMPI DUP3 SWAP1 SUB PUSH1 0x1F AND DUP3 ADD SWAP2 JUMPDEST POP POP POP POP POP SWAP1 POP PUSH0 PUSH2 0x8AC DUP3 PUSH2 0x575 JUMP JUMPDEST SWAP1 POP DUP1 PUSH1 0x6 DUP4 PUSH1 0x40 MLOAD PUSH2 0x8BF SWAP2 SWAP1 PUSH2 0x1D6C JUMP JUMPDEST SWAP1 DUP2 MSTORE PUSH1 0x20 ADD PUSH1 0x40 MLOAD DUP1 SWAP2 SUB SWAP1 KECCAK256 SLOAD PUSH2 0x8D8 SWAP2 SWAP1 PUSH2 0x1DDC JUMP JUMPDEST DUP5 PUSH2 0x8E3 SWAP2 SWAP1 PUSH2 0x1E1D JUMP JUMPDEST SWAP4 POP POP POP DUP1 DUP1 PUSH1 0x1 ADD SWAP2 POP POP PUSH2 0x7EF JUMP JUMPDEST POP DUP1 SWAP2 POP POP SWAP1 JUMP JUMPDEST PUSH0 DUP1 PUSH0 SWAP1 SLOAD SWAP1 PUSH2 0x100 EXP SWAP1 DIV PUSH20 0xFFFFFFFFFFFFFFFFFFFFFFFFFFFFFFFFFFFFFFFF AND SWAP1 POP SWAP1 JUMP JUMPDEST PUSH0 CALLVALUE GT PUSH2 0x965 JUMPI PUSH1 0x40 MLOAD PUSH32 0x8C379A000000000000000000000000000000000000000000000000000000000 DUP2 MSTORE PUSH1 0x4 ADD PUSH2 0x95C SWAP1 PUSH2 0x1E9A JUMP JUMPDEST PUSH1 0x40 MLOAD DUP1 SWAP2 SUB SWAP1 REVERT JUMPDEST PUSH0 PUSH1 0x1 PUSH1 0x4 PUSH0 CALLER PUSH20 0xFFFFFFFFFFFFFFFFFFFFFFFFFFFFFFFFFFFFFFFF AND PUSH20 0xFFFFFFFFFFFFFFFFFFFFFFFFFFFFFFFFFFFFFFFF AND DUP2 MSTORE PUSH1 0x20 ADD SWAP1 DUP2 MSTORE PUSH1 0x20 ADD PUSH0 KECCAK256 SLOAD PUSH2 0x9B0 SWAP2 SWAP1 PUSH2 0x1E1D JUMP JUMPDEST SWAP1 POP PUSH0 PUSH2 0x9BC DUP4 PUSH2 0x575 JUMP JUMPDEST SWAP1 POP PUSH0 DUP2 GT PUSH2 0xA00 JUMPI PUSH1 0x40 MLOAD PUSH32 0x8C379A000000000000000000000000000000000000000000000000000000000 DUP2 MSTORE PUSH1 0x4 ADD PUSH2 0x9F7 SWAP1 PUSH2 0x1F02 JUMP JUMPDEST PUSH1 0x40 MLOAD DUP1 SWAP2 SUB SWAP1 REVERT JUMPDEST PUSH0 DUP2 CALLVALUE PUSH2 0xA0D SWAP2 SWAP1 PUSH2 0x1F4D JUMP JUMPDEST SWAP1 POP PUSH0 PUSH1 0x3 PUSH0 CALLER PUSH20 0xFFFFFFFFFFFFFFFFFFFFFFFFFFFFFFFFFFFFFFFF AND PUSH20 0xFFFFFFFFFFFFFFFFFFFFFFFFFFFFFFFFFFFFFFFF AND DUP2 MSTORE PUSH1 0x20 ADD SWAP1 DUP2 MSTORE PUSH1 0x20 ADD PUSH0 KECCAK256 PUSH0 DUP6 DUP2 MSTORE PUSH1 0x20 ADD SWAP1 DUP2 MSTORE PUSH1 0x20 ADD PUSH0 KECCAK256 SWAP1 POP CALLER DUP2 PUSH0 ADD PUSH0 PUSH2 0x100 EXP DUP2 SLOAD DUP2 PUSH20 0xFFFFFFFFFFFFFFFFFFFFFFFFFFFFFFFFFFFFFFFF MUL NOT AND SWAP1 DUP4 PUSH20 0xFFFFFFFFFFFFFFFFFFFFFFFFFFFFFFFFFFFFFFFF AND MUL OR SWAP1 SSTORE POP DUP5 DUP2 PUSH1 0x4 ADD SWAP1 DUP2 PUSH2 0xAB0 SWAP2 SWAP1 PUSH2 0x1C63 JUMP JUMPDEST POP DUP2 DUP2 PUSH1 0x1 ADD DUP2 SWAP1 SSTORE POP DUP3 DUP2 PUSH1 0x5 ADD DUP2 SWAP1 SSTORE POP PUSH1 0x1 DUP2 PUSH1 0x3 ADD PUSH0 PUSH2 0x100 EXP DUP2 SLOAD DUP2 PUSH1 0xFF MUL NOT AND SWAP1 DUP4 ISZERO ISZERO MUL OR SWAP1 SSTORE POP DUP1 PUSH1 0x1 ADD SLOAD PUSH1 0x6 DUP7 PUSH1 0x40 MLOAD PUSH2 0xAF4 SWAP2 SWAP1 PUSH2 0x1D6C JUMP JUMPDEST SWAP1 DUP2 MSTORE PUSH1 0x20 ADD PUSH1 0x40 MLOAD DUP1 SWAP2 SUB SWAP1 KECCAK256 PUSH0 DUP3 DUP3 SLOAD PUSH2 0xB10 SWAP2 SWAP1 PUSH2 0x1E1D JUMP JUMPDEST SWAP3 POP POP DUP2 SWAP1 SSTORE POP PUSH1 0x1 PUSH1 0x4 PUSH0 CALLER PUSH20 0xFFFFFFFFFFFFFFFFFFFFFFFFFFFFFFFFFFFFFFFF AND PUSH20 0xFFFFFFFFFFFFFFFFFFFFFFFFFFFFFFFFFFFFFFFF AND DUP2 MSTORE PUSH1 0x20 ADD SWAP1 DUP2 MSTORE PUSH1 0x20 ADD PUSH0 KECCAK256 PUSH0 DUP3 DUP3 SLOAD PUSH2 0xB64 SWAP2 SWAP1 PUSH2 0x1E1D JUMP JUMPDEST SWAP3 POP POP DUP2 SWAP1 SSTORE POP POP POP POP POP POP JUMP JUMPDEST PUSH0 DUP1 PUSH1 0x3 PUSH0 CALLER PUSH20 0xFFFFFFFFFFFFFFFFFFFFFFFFFFFFFFFFFFFFFFFF AND PUSH20 0xFFFFFFFFFFFFFFFFFFFFFFFFFFFFFFFFFFFFFFFF AND DUP2 MSTORE PUSH1 0x20 ADD SWAP1 DUP2 MSTORE PUSH1 0x20 ADD PUSH0 KECCAK256 PUSH0 DUP5 DUP2 MSTORE PUSH1 0x20 ADD SWAP1 DUP2 MSTORE PUSH1 0x20 ADD PUSH0 KECCAK256 SWAP1 POP PUSH0 DUP2 PUSH1 0x4 ADD DUP1 SLOAD PUSH2 0xBD2 SWAP1 PUSH2 0x1A9F JUMP JUMPDEST DUP1 PUSH1 0x1F ADD PUSH1 0x20 DUP1 SWAP2 DIV MUL PUSH1 0x20 ADD PUSH1 0x40 MLOAD SWAP1 DUP2 ADD PUSH1 0x40 MSTORE DUP1 SWAP3 SWAP2 SWAP1 DUP2 DUP2 MSTORE PUSH1 0x20 ADD DUP3 DUP1 SLOAD PUSH2 0xBFE SWAP1 PUSH2 0x1A9F JUMP JUMPDEST DUP1 ISZERO PUSH2 0xC49 JUMPI DUP1 PUSH1 0x1F LT PUSH2 0xC20 JUMPI PUSH2 0x100 DUP1 DUP4 SLOAD DIV MUL DUP4 MSTORE SWAP2 PUSH1 0x20 ADD SWAP2 PUSH2 0xC49 JUMP JUMPDEST DUP3 ADD SWAP2 SWAP1 PUSH0 MSTORE PUSH1 0x20 PUSH0 KECCAK256 SWAP1 JUMPDEST DUP2 SLOAD DUP2 MSTORE SWAP1 PUSH1 0x1 ADD SWAP1 PUSH1 0x20 ADD DUP1 DUP4 GT PUSH2 0xC2C JUMPI DUP3 SWAP1 SUB PUSH1 0x1F AND DUP3 ADD SWAP2 JUMPDEST POP POP POP POP POP SWAP1 POP PUSH0 PUSH2 0xC5A DUP3 PUSH2 0x575 JUMP JUMPDEST SWAP1 POP PUSH0 PUSH2 0xC65 PUSH2 0x624 JUMP JUMPDEST SWAP1 POP PUSH0 PUSH2 0xC70 PUSH2 0x7E8 JUMP JUMPDEST SWAP1 POP PUSH0 DUP2 DUP4 DUP6 DUP9 PUSH1 0x1 ADD SLOAD PUSH2 0xC85 SWAP2 SWAP1 PUSH2 0x1DDC JUMP JUMPDEST PUSH2 0xC8F SWAP2 SWAP1 PUSH2 0x1DDC JUMP JUMPDEST PUSH2 0xC99 SWAP2 SWAP1 PUSH2 0x1F4D JUMP JUMPDEST SWAP1 POP DUP1 SWAP7 POP POP POP POP POP POP POP SWAP2 SWAP1 POP JUMP JUMPDEST PUSH1 0x4 PUSH1 0x20 MSTORE DUP1 PUSH0 MSTORE PUSH1 0x40 PUSH0 KECCAK256 PUSH0 SWAP2 POP SWAP1 POP SLOAD DUP2 JUMP JUMPDEST DUP1 PUSH1 0x5 DUP4 PUSH1 0x40 MLOAD PUSH2 0xCCF SWAP2 SWAP1 PUSH2 0x1D6C JUMP JUMPDEST SWAP1 DUP2 MSTORE PUSH1 0x20 ADD PUSH1 0x40 MLOAD DUP1 SWAP2 SUB SWAP1 KECCAK256 DUP2 SWAP1 SSTORE POP POP POP JUMP JUMPDEST PUSH0 PUSH1 0x3 PUSH0 CALLER PUSH20 0xFFFFFFFFFFFFFFFFFFFFFFFFFFFFFFFFFFFFFFFF AND PUSH20 0xFFFFFFFFFFFFFFFFFFFFFFFFFFFFFFFFFFFFFFFF AND DUP2 MSTORE PUSH1 0x20 ADD SWAP1 DUP2 MSTORE PUSH1 0x20 ADD PUSH0 KECCAK256 PUSH0 DUP4 DUP2 MSTORE PUSH1 0x20 ADD SWAP1 DUP2 MSTORE PUSH1 0x20 ADD PUSH0 KECCAK256 SWAP1 POP DUP1 PUSH1 0x3 ADD PUSH0 SWAP1 SLOAD SWAP1 PUSH2 0x100 EXP SWAP1 DIV PUSH1 0xFF AND PUSH2 0xD84 JUMPI PUSH1 0x40 MLOAD PUSH32 0x8C379A000000000000000000000000000000000000000000000000000000000 DUP2 MSTORE PUSH1 0x4 ADD PUSH2 0xD7B SWAP1 PUSH2 0x1FC7 JUMP JUMPDEST PUSH1 0x40 MLOAD DUP1 SWAP2 SUB SWAP1 REVERT JUMPDEST CALLER PUSH20 0xFFFFFFFFFFFFFFFFFFFFFFFFFFFFFFFFFFFFFFFF AND DUP2 PUSH0 ADD PUSH0 SWAP1 SLOAD SWAP1 PUSH2 0x100 EXP SWAP1 DIV PUSH20 0xFFFFFFFFFFFFFFFFFFFFFFFFFFFFFFFFFFFFFFFF AND PUSH20 0xFFFFFFFFFFFFFFFFFFFFFFFFFFFFFFFFFFFFFFFF AND EQ PUSH2 0xE14 JUMPI PUSH1 0x40 MLOAD PUSH32 0x8C379A000000000000000000000000000000000000000000000000000000000 DUP2 MSTORE PUSH1 0x4 ADD PUSH2 0xE0B SWAP1 PUSH2 0x2055 JUMP JUMPDEST PUSH1 0x40 MLOAD DUP1 SWAP2 SUB SWAP1 REVERT JUMPDEST PUSH0 DUP2 PUSH1 0x4 ADD DUP1 SLOAD PUSH2 0xE24 SWAP1 PUSH2 0x1A9F JUMP JUMPDEST DUP1 PUSH1 0x1F ADD PUSH1 0x20 DUP1 SWAP2 DIV MUL PUSH1 0x20 ADD PUSH1 0x40 MLOAD SWAP1 DUP2 ADD PUSH1 0x40 MSTORE DUP1 SWAP3 SWAP2 SWAP1 DUP2 DUP2 MSTORE PUSH1 0x20 ADD DUP3 DUP1 SLOAD PUSH2 0xE50 SWAP1 PUSH2 0x1A9F JUMP JUMPDEST DUP1 ISZERO PUSH2 0xE9B JUMPI DUP1 PUSH1 0x1F LT PUSH2 0xE72 JUMPI PUSH2 0x100 DUP1 DUP4 SLOAD DIV MUL DUP4 MSTORE SWAP2 PUSH1 0x20 ADD SWAP2 PUSH2 0xE9B JUMP JUMPDEST DUP3 ADD SWAP2 SWAP1 PUSH0 MSTORE PUSH1 0x20 PUSH0 KECCAK256 SWAP1 JUMPDEST DUP2 SLOAD DUP2 MSTORE SWAP1 PUSH1 0x1 ADD SWAP1 PUSH1 0x20 ADD DUP1 DUP4 GT PUSH2 0xE7E JUMPI DUP3 SWAP1 SUB PUSH1 0x1F AND DUP3 ADD SWAP2 JUMPDEST POP POP POP POP POP SWAP1 POP PUSH0 PUSH2 0xEAC DUP5 PUSH2 0xB72 JUMP JUMPDEST SWAP1 POP CALLER PUSH20 0xFFFFFFFFFFFFFFFFFFFFFFFFFFFFFFFFFFFFFFFF AND PUSH2 0x8FC DUP3 SWAP1 DUP2 ISZERO MUL SWAP1 PUSH1 0x40 MLOAD PUSH0 PUSH1 0x40 MLOAD DUP1 DUP4 SUB DUP2 DUP6 DUP9 DUP9 CALL SWAP4 POP POP POP POP ISZERO DUP1 ISZERO PUSH2 0xEF1 JUMPI RETURNDATASIZE PUSH0 DUP1 RETURNDATACOPY RETURNDATASIZE PUSH0 REVERT JUMPDEST POP PUSH0 DUP4 PUSH1 0x3 ADD PUSH0 PUSH2 0x100 EXP DUP2 SLOAD DUP2 PUSH1 0xFF MUL NOT AND SWAP1 DUP4 ISZERO ISZERO MUL OR SWAP1 SSTORE POP DUP3 PUSH1 0x1 ADD SLOAD PUSH1 0x6 DUP4 PUSH1 0x40 MLOAD PUSH2 0xF22 SWAP2 SWAP1 PUSH2 0x1D6C JUMP JUMPDEST SWAP1 DUP2 MSTORE PUSH1 0x20 ADD PUSH1 0x40 MLOAD DUP1 SWAP2 SUB SWAP1 KECCAK256 PUSH0 DUP3 DUP3 SLOAD PUSH2 0xF3E SWAP2 SWAP1 PUSH2 0x2073 JUMP JUMPDEST SWAP3 POP POP DUP2 SWAP1 SSTORE POP POP POP POP POP JUMP JUMPDEST PUSH1 0x6 DUP2 DUP1 MLOAD PUSH1 0x20 DUP2 ADD DUP3 ADD DUP1 MLOAD DUP5 DUP3 MSTORE PUSH1 0x20 DUP4 ADD PUSH1 0x20 DUP6 ADD KECCAK256 DUP2 DUP4 MSTORE DUP1 SWAP6 POP POP POP POP POP POP PUSH0 SWAP2 POP SWAP1 POP SLOAD DUP2 JUMP JUMPDEST PUSH1 0x3 PUSH1 0x20 MSTORE DUP2 PUSH0 MSTORE PUSH1 0x40 PUSH0 KECCAK256 PUSH1 0x20 MSTORE DUP1 PUSH0 MSTORE PUSH1 0x40 PUSH0 KECCAK256 PUSH0 SWAP2 POP SWAP2 POP POP DUP1 PUSH0 ADD PUSH0 SWAP1 SLOAD SWAP1 PUSH2 0x100 EXP SWAP1 DIV PUSH20 0xFFFFFFFFFFFFFFFFFFFFFFFFFFFFFFFFFFFFFFFF AND SWAP1 DUP1 PUSH0 ADD PUSH1 0x14 SWAP1 SLOAD SWAP1 PUSH2 0x100 EXP SWAP1 DIV PUSH1 0xFF AND SWAP1 DUP1 PUSH1 0x1 ADD SLOAD SWAP1 DUP1 PUSH1 0x2 ADD SLOAD SWAP1 DUP1 PUSH1 0x3 ADD PUSH0 SWAP1 SLOAD SWAP1 PUSH2 0x100 EXP SWAP1 DIV PUSH1 0xFF AND SWAP1 DUP1 PUSH1 0x4 ADD DUP1 SLOAD PUSH2 0xFF7 SWAP1 PUSH2 0x1A9F JUMP JUMPDEST DUP1 PUSH1 0x1F ADD PUSH1 0x20 DUP1 SWAP2 DIV MUL PUSH1 0x20 ADD PUSH1 0x40 MLOAD SWAP1 DUP2 ADD PUSH1 0x40 MSTORE DUP1 SWAP3 SWAP2 SWAP1 DUP2 DUP2 MSTORE PUSH1 0x20 ADD DUP3 DUP1 SLOAD PUSH2 0x1023 SWAP1 PUSH2 0x1A9F JUMP JUMPDEST DUP1 ISZERO PUSH2 0x106E JUMPI DUP1 PUSH1 0x1F LT PUSH2 0x1045 JUMPI PUSH2 0x100 DUP1 DUP4 SLOAD DIV MUL DUP4 MSTORE SWAP2 PUSH1 0x20 ADD SWAP2 PUSH2 0x106E JUMP JUMPDEST DUP3 ADD SWAP2 SWAP1 PUSH0 MSTORE PUSH1 0x20 PUSH0 KECCAK256 SWAP1 JUMPDEST DUP2 SLOAD DUP2 MSTORE SWAP1 PUSH1 0x1 ADD SWAP1 PUSH1 0x20 ADD DUP1 DUP4 GT PUSH2 0x1051 JUMPI DUP3 SWAP1 SUB PUSH1 0x1F AND DUP3 ADD SWAP2 JUMPDEST POP POP POP POP POP SWAP1 DUP1 PUSH1 0x5 ADD SLOAD SWAP1 POP DUP8 JUMP JUMPDEST PUSH2 0x1086 PUSH2 0x112F JUMP JUMPDEST PUSH0 PUSH20 0xFFFFFFFFFFFFFFFFFFFFFFFFFFFFFFFFFFFFFFFF AND DUP2 PUSH20 0xFFFFFFFFFFFFFFFFFFFFFFFFFFFFFFFFFFFFFFFF AND SUB PUSH2 0x10F6 JUMPI PUSH0 PUSH1 0x40 MLOAD PUSH32 0x1E4FBDF700000000000000000000000000000000000000000000000000000000 DUP2 MSTORE PUSH1 0x4 ADD PUSH2 0x10ED SWAP2 SWAP1 PUSH2 0x173C JUMP JUMPDEST PUSH1 0x40 MLOAD DUP1 SWAP2 SUB SWAP1 REVERT JUMPDEST PUSH2 0x10FF DUP2 PUSH2 0x11B6 JUMP JUMPDEST POP JUMP JUMPDEST PUSH1 0x5 DUP2 DUP1 MLOAD PUSH1 0x20 DUP2 ADD DUP3 ADD DUP1 MLOAD DUP5 DUP3 MSTORE PUSH1 0x20 DUP4 ADD PUSH1 0x20 DUP6 ADD KECCAK256 DUP2 DUP4 MSTORE DUP1 SWAP6 POP POP POP POP POP POP PUSH0 SWAP2 POP SWAP1 POP SLOAD DUP2 JUMP JUMPDEST PUSH2 0x1137 PUSH2 0x1277 JUMP JUMPDEST PUSH20 0xFFFFFFFFFFFFFFFFFFFFFFFFFFFFFFFFFFFFFFFF AND PUSH2 0x1155 PUSH2 0x8FC JUMP JUMPDEST PUSH20 0xFFFFFFFFFFFFFFFFFFFFFFFFFFFFFFFFFFFFFFFF AND EQ PUSH2 0x11B4 JUMPI PUSH2 0x1178 PUSH2 0x1277 JUMP JUMPDEST PUSH1 0x40 MLOAD PUSH32 0x118CDAA700000000000000000000000000000000000000000000000000000000 DUP2 MSTORE PUSH1 0x4 ADD PUSH2 0x11AB SWAP2 SWAP1 PUSH2 0x173C JUMP JUMPDEST PUSH1 0x40 MLOAD DUP1 SWAP2 SUB SWAP1 REVERT JUMPDEST JUMP JUMPDEST PUSH0 DUP1 PUSH0 SWAP1 SLOAD SWAP1 PUSH2 0x100 EXP SWAP1 DIV PUSH20 0xFFFFFFFFFFFFFFFFFFFFFFFFFFFFFFFFFFFFFFFF AND SWAP1 POP DUP2 PUSH0 DUP1 PUSH2 0x100 EXP DUP2 SLOAD DUP2 PUSH20 0xFFFFFFFFFFFFFFFFFFFFFFFFFFFFFFFFFFFFFFFF MUL NOT AND SWAP1 DUP4 PUSH20 0xFFFFFFFFFFFFFFFFFFFFFFFFFFFFFFFFFFFFFFFF AND MUL OR SWAP1 SSTORE POP DUP2 PUSH20 0xFFFFFFFFFFFFFFFFFFFFFFFFFFFFFFFFFFFFFFFF AND DUP2 PUSH20 0xFFFFFFFFFFFFFFFFFFFFFFFFFFFFFFFFFFFFFFFF AND PUSH32 0x8BE0079C531659141344CD1FD0A4F28419497F9722A3DAAFE3B4186F6B6457E0 PUSH1 0x40 MLOAD PUSH1 0x40 MLOAD DUP1 SWAP2 SUB SWAP1 LOG3 POP POP JUMP JUMPDEST PUSH0 CALLER SWAP1 POP SWAP1 JUMP JUMPDEST PUSH0 PUSH20 0xFFFFFFFFFFFFFFFFFFFFFFFFFFFFFFFFFFFFFFFF DUP3 AND SWAP1 POP SWAP2 SWAP1 POP JUMP JUMPDEST PUSH0 DUP2 SWAP1 POP SWAP2 SWAP1 POP JUMP JUMPDEST PUSH0 PUSH2 0x12C0 PUSH2 0x12BB PUSH2 0x12B6 DUP5 PUSH2 0x127E JUMP JUMPDEST PUSH2 0x129D JUMP JUMPDEST PUSH2 0x127E JUMP JUMPDEST SWAP1 POP SWAP2 SWAP1 POP JUMP JUMPDEST PUSH0 PUSH2 0x12D1 DUP3 PUSH2 0x12A6 JUMP JUMPDEST SWAP1 POP SWAP2 SWAP1 POP JUMP JUMPDEST PUSH0 PUSH2 0x12E2 DUP3 PUSH2 0x12C7 JUMP JUMPDEST SWAP1 POP SWAP2 SWAP1 POP JUMP JUMPDEST PUSH2 0x12F2 DUP2 PUSH2 0x12D8 JUMP JUMPDEST DUP3 MSTORE POP POP JUMP JUMPDEST PUSH0 PUSH1 0x20 DUP3 ADD SWAP1 POP PUSH2 0x130B PUSH0 DUP4 ADD DUP5 PUSH2 0x12E9 JUMP JUMPDEST SWAP3 SWAP2 POP POP JUMP JUMPDEST PUSH0 PUSH1 0x40 MLOAD SWAP1 POP SWAP1 JUMP JUMPDEST PUSH0 DUP1 REVERT JUMPDEST PUSH0 DUP1 REVERT JUMPDEST PUSH0 DUP1 REVERT JUMPDEST PUSH0 DUP1 REVERT JUMPDEST PUSH0 PUSH1 0x1F NOT PUSH1 0x1F DUP4 ADD AND SWAP1 POP SWAP2 SWAP1 POP JUMP JUMPDEST PUSH32 0x4E487B7100000000000000000000000000000000000000000000000000000000 PUSH0 MSTORE PUSH1 0x41 PUSH1 0x4 MSTORE PUSH1 0x24 PUSH0 REVERT JUMPDEST PUSH2 0x1370 DUP3 PUSH2 0x132A JUMP JUMPDEST DUP2 ADD DUP2 DUP2 LT PUSH8 0xFFFFFFFFFFFFFFFF DUP3 GT OR ISZERO PUSH2 0x138F JUMPI PUSH2 0x138E PUSH2 0x133A JUMP JUMPDEST JUMPDEST DUP1 PUSH1 0x40 MSTORE POP POP POP JUMP JUMPDEST PUSH0 PUSH2 0x13A1 PUSH2 0x1311 JUMP JUMPDEST SWAP1 POP PUSH2 0x13AD DUP3 DUP3 PUSH2 0x1367 JUMP JUMPDEST SWAP2 SWAP1 POP JUMP JUMPDEST PUSH0 PUSH8 0xFFFFFFFFFFFFFFFF DUP3 GT ISZERO PUSH2 0x13CC JUMPI PUSH2 0x13CB PUSH2 0x133A JUMP JUMPDEST JUMPDEST PUSH2 0x13D5 DUP3 PUSH2 0x132A JUMP JUMPDEST SWAP1 POP PUSH1 0x20 DUP2 ADD SWAP1 POP SWAP2 SWAP1 POP JUMP JUMPDEST DUP3 DUP2 DUP4 CALLDATACOPY PUSH0 DUP4 DUP4 ADD MSTORE POP POP POP JUMP JUMPDEST PUSH0 PUSH2 0x1402 PUSH2 0x13FD DUP5 PUSH2 0x13B2 JUMP JUMPDEST PUSH2 0x1398 JUMP JUMPDEST SWAP1 POP DUP3 DUP2 MSTORE PUSH1 0x20 DUP2 ADD DUP5 DUP5 DUP5 ADD GT ISZERO PUSH2 0x141E JUMPI PUSH2 0x141D PUSH2 0x1326 JUMP JUMPDEST JUMPDEST PUSH2 0x1429 DUP5 DUP3 DUP6 PUSH2 0x13E2 JUMP JUMPDEST POP SWAP4 SWAP3 POP POP POP JUMP JUMPDEST PUSH0 DUP3 PUSH1 0x1F DUP4 ADD SLT PUSH2 0x1445 JUMPI PUSH2 0x1444 PUSH2 0x1322 JUMP JUMPDEST JUMPDEST DUP2 CALLDATALOAD PUSH2 0x1455 DUP5 DUP3 PUSH1 0x20 DUP7 ADD PUSH2 0x13F0 JUMP JUMPDEST SWAP2 POP POP SWAP3 SWAP2 POP POP JUMP JUMPDEST PUSH0 PUSH1 0x20 DUP3 DUP5 SUB SLT ISZERO PUSH2 0x1473 JUMPI PUSH2 0x1472 PUSH2 0x131A JUMP JUMPDEST JUMPDEST PUSH0 DUP3 ADD CALLDATALOAD PUSH8 0xFFFFFFFFFFFFFFFF DUP2 GT ISZERO PUSH2 0x1490 JUMPI PUSH2 0x148F PUSH2 0x131E JUMP JUMPDEST JUMPDEST PUSH2 0x149C DUP5 DUP3 DUP6 ADD PUSH2 0x1431 JUMP JUMPDEST SWAP2 POP POP SWAP3 SWAP2 POP POP JUMP JUMPDEST PUSH0 DUP2 SWAP1 POP SWAP2 SWAP1 POP JUMP JUMPDEST PUSH2 0x14B7 DUP2 PUSH2 0x14A5 JUMP JUMPDEST DUP3 MSTORE POP POP JUMP JUMPDEST PUSH0 PUSH1 0x20 DUP3 ADD SWAP1 POP PUSH2 0x14D0 PUSH0 DUP4 ADD DUP5 PUSH2 0x14AE JUMP JUMPDEST SWAP3 SWAP2 POP POP JUMP JUMPDEST PUSH0 PUSH8 0xFFFFFFFFFFFFFFFF DUP3 GT ISZERO PUSH2 0x14F0 JUMPI PUSH2 0x14EF PUSH2 0x133A JUMP JUMPDEST JUMPDEST PUSH2 0x14F9 DUP3 PUSH2 0x132A JUMP JUMPDEST SWAP1 POP PUSH1 0x20 DUP2 ADD SWAP1 POP SWAP2 SWAP1 POP JUMP JUMPDEST PUSH0 PUSH2 0x1518 PUSH2 0x1513 DUP5 PUSH2 0x14D6 JUMP JUMPDEST PUSH2 0x1398 JUMP JUMPDEST SWAP1 POP DUP3 DUP2 MSTORE PUSH1 0x20 DUP2 ADD DUP5 DUP5 DUP5 ADD GT ISZERO PUSH2 0x1534 JUMPI PUSH2 0x1533 PUSH2 0x1326 JUMP JUMPDEST JUMPDEST PUSH2 0x153F DUP5 DUP3 DUP6 PUSH2 0x13E2 JUMP JUMPDEST POP SWAP4 SWAP3 POP POP POP JUMP JUMPDEST PUSH0 DUP3 PUSH1 0x1F DUP4 ADD SLT PUSH2 0x155B JUMPI PUSH2 0x155A PUSH2 0x1322 JUMP JUMPDEST JUMPDEST DUP2 CALLDATALOAD PUSH2 0x156B DUP5 DUP3 PUSH1 0x20 DUP7 ADD PUSH2 0x1506 JUMP JUMPDEST SWAP2 POP POP SWAP3 SWAP2 POP POP JUMP JUMPDEST PUSH0 PUSH1 0x20 DUP3 DUP5 SUB SLT ISZERO PUSH2 0x1589 JUMPI PUSH2 0x1588 PUSH2 0x131A JUMP JUMPDEST JUMPDEST PUSH0 DUP3 ADD CALLDATALOAD PUSH8 0xFFFFFFFFFFFFFFFF DUP2 GT ISZERO PUSH2 0x15A6 JUMPI PUSH2 0x15A5 PUSH2 0x131E JUMP JUMPDEST JUMPDEST PUSH2 0x15B2 DUP5 DUP3 DUP6 ADD PUSH2 0x1547 JUMP JUMPDEST SWAP2 POP POP SWAP3 SWAP2 POP POP JUMP JUMPDEST PUSH0 DUP2 MLOAD SWAP1 POP SWAP2 SWAP1 POP JUMP JUMPDEST PUSH0 DUP3 DUP3 MSTORE PUSH1 0x20 DUP3 ADD SWAP1 POP SWAP3 SWAP2 POP POP JUMP JUMPDEST PUSH0 JUMPDEST DUP4 DUP2 LT ISZERO PUSH2 0x15F2 JUMPI DUP1 DUP3 ADD MLOAD DUP2 DUP5 ADD MSTORE PUSH1 0x20 DUP2 ADD SWAP1 POP PUSH2 0x15D7 JUMP JUMPDEST PUSH0 DUP5 DUP5 ADD MSTORE POP POP POP POP JUMP JUMPDEST PUSH0 PUSH2 0x1607 DUP3 PUSH2 0x15BB JUMP JUMPDEST PUSH2 0x1611 DUP2 DUP6 PUSH2 0x15C5 JUMP JUMPDEST SWAP4 POP PUSH2 0x1621 DUP2 DUP6 PUSH1 0x20 DUP7 ADD PUSH2 0x15D5 JUMP JUMPDEST PUSH2 0x162A DUP2 PUSH2 0x132A JUMP JUMPDEST DUP5 ADD SWAP2 POP POP SWAP3 SWAP2 POP POP JUMP JUMPDEST PUSH0 PUSH1 0x20 DUP3 ADD SWAP1 POP DUP2 DUP2 SUB PUSH0 DUP4 ADD MSTORE PUSH2 0x164D DUP2 DUP5 PUSH2 0x15FD JUMP JUMPDEST SWAP1 POP SWAP3 SWAP2 POP POP JUMP JUMPDEST PUSH2 0x165E DUP2 PUSH2 0x14A5 JUMP JUMPDEST DUP2 EQ PUSH2 0x1668 JUMPI PUSH0 DUP1 REVERT JUMPDEST POP JUMP JUMPDEST PUSH0 DUP2 CALLDATALOAD SWAP1 POP PUSH2 0x1679 DUP2 PUSH2 0x1655 JUMP JUMPDEST SWAP3 SWAP2 POP POP JUMP JUMPDEST PUSH0 PUSH1 0x20 DUP3 DUP5 SUB SLT ISZERO PUSH2 0x1694 JUMPI PUSH2 0x1693 PUSH2 0x131A JUMP JUMPDEST JUMPDEST PUSH0 PUSH2 0x16A1 DUP5 DUP3 DUP6 ADD PUSH2 0x166B JUMP JUMPDEST SWAP2 POP POP SWAP3 SWAP2 POP POP JUMP JUMPDEST PUSH0 DUP2 MLOAD SWAP1 POP SWAP2 SWAP1 POP JUMP JUMPDEST PUSH0 DUP3 DUP3 MSTORE PUSH1 0x20 DUP3 ADD SWAP1 POP SWAP3 SWAP2 POP POP JUMP JUMPDEST PUSH0 PUSH2 0x16CE DUP3 PUSH2 0x16AA JUMP JUMPDEST PUSH2 0x16D8 DUP2 DUP6 PUSH2 0x16B4 JUMP JUMPDEST SWAP4 POP PUSH2 0x16E8 DUP2 DUP6 PUSH1 0x20 DUP7 ADD PUSH2 0x15D5 JUMP JUMPDEST PUSH2 0x16F1 DUP2 PUSH2 0x132A JUMP JUMPDEST DUP5 ADD SWAP2 POP POP SWAP3 SWAP2 POP POP JUMP JUMPDEST PUSH0 PUSH1 0x20 DUP3 ADD SWAP1 POP DUP2 DUP2 SUB PUSH0 DUP4 ADD MSTORE PUSH2 0x1714 DUP2 DUP5 PUSH2 0x16C4 JUMP JUMPDEST SWAP1 POP SWAP3 SWAP2 POP POP JUMP JUMPDEST PUSH0 PUSH2 0x1726 DUP3 PUSH2 0x127E JUMP JUMPDEST SWAP1 POP SWAP2 SWAP1 POP JUMP JUMPDEST PUSH2 0x1736 DUP2 PUSH2 0x171C JUMP JUMPDEST DUP3 MSTORE POP POP JUMP JUMPDEST PUSH0 PUSH1 0x20 DUP3 ADD SWAP1 POP PUSH2 0x174F PUSH0 DUP4 ADD DUP5 PUSH2 0x172D JUMP JUMPDEST SWAP3 SWAP2 POP POP JUMP JUMPDEST PUSH2 0x175E DUP2 PUSH2 0x171C JUMP JUMPDEST DUP2 EQ PUSH2 0x1768 JUMPI PUSH0 DUP1 REVERT JUMPDEST POP JUMP JUMPDEST PUSH0 DUP2 CALLDATALOAD SWAP1 POP PUSH2 0x1779 DUP2 PUSH2 0x1755 JUMP JUMPDEST SWAP3 SWAP2 POP POP JUMP JUMPDEST PUSH0 PUSH1 0x20 DUP3 DUP5 SUB SLT ISZERO PUSH2 0x1794 JUMPI PUSH2 0x1793 PUSH2 0x131A JUMP JUMPDEST JUMPDEST PUSH0 PUSH2 0x17A1 DUP5 DUP3 DUP6 ADD PUSH2 0x176B JUMP JUMPDEST SWAP2 POP POP SWAP3 SWAP2 POP POP JUMP JUMPDEST PUSH0 DUP1 PUSH1 0x40 DUP4 DUP6 SUB SLT ISZERO PUSH2 0x17C0 JUMPI PUSH2 0x17BF PUSH2 0x131A JUMP JUMPDEST JUMPDEST PUSH0 DUP4 ADD CALLDATALOAD PUSH8 0xFFFFFFFFFFFFFFFF DUP2 GT ISZERO PUSH2 0x17DD JUMPI PUSH2 0x17DC PUSH2 0x131E JUMP JUMPDEST JUMPDEST PUSH2 0x17E9 DUP6 DUP3 DUP7 ADD PUSH2 0x1547 JUMP JUMPDEST SWAP3 POP POP PUSH1 0x20 PUSH2 0x17FA DUP6 DUP3 DUP7 ADD PUSH2 0x166B JUMP JUMPDEST SWAP2 POP POP SWAP3 POP SWAP3 SWAP1 POP JUMP JUMPDEST PUSH0 DUP1 PUSH1 0x40 DUP4 DUP6 SUB SLT ISZERO PUSH2 0x181A JUMPI PUSH2 0x1819 PUSH2 0x131A JUMP JUMPDEST JUMPDEST PUSH0 PUSH2 0x1827 DUP6 DUP3 DUP7 ADD PUSH2 0x176B JUMP JUMPDEST SWAP3 POP POP PUSH1 0x20 PUSH2 0x1838 DUP6 DUP3 DUP7 ADD PUSH2 0x166B JUMP JUMPDEST SWAP2 POP POP SWAP3 POP SWAP3 SWAP1 POP JUMP JUMPDEST PUSH0 DUP2 ISZERO ISZERO SWAP1 POP SWAP2 SWAP1 POP JUMP JUMPDEST PUSH2 0x1856 DUP2 PUSH2 0x1842 JUMP JUMPDEST DUP3 MSTORE POP POP JUMP JUMPDEST PUSH0 PUSH1 0xE0 DUP3 ADD SWAP1 POP PUSH2 0x186F PUSH0 DUP4 ADD DUP11 PUSH2 0x172D JUMP JUMPDEST PUSH2 0x187C PUSH1 0x20 DUP4 ADD DUP10 PUSH2 0x184D JUMP JUMPDEST PUSH2 0x1889 PUSH1 0x40 DUP4 ADD DUP9 PUSH2 0x14AE JUMP JUMPDEST PUSH2 0x1896 PUSH1 0x60 DUP4 ADD DUP8 PUSH2 0x14AE JUMP JUMPDEST PUSH2 0x18A3 PUSH1 0x80 DUP4 ADD DUP7 PUSH2 0x184D JUMP JUMPDEST DUP2 DUP2 SUB PUSH1 0xA0 DUP4 ADD MSTORE PUSH2 0x18B5 DUP2 DUP6 PUSH2 0x16C4 JUMP JUMPDEST SWAP1 POP PUSH2 0x18C4 PUSH1 0xC0 DUP4 ADD DUP5 PUSH2 0x14AE JUMP JUMPDEST SWAP9 SWAP8 POP POP POP POP POP POP POP POP JUMP JUMPDEST PUSH32 0x4279746573206C656E677468206D757374206265203332000000000000000000 PUSH0 DUP3 ADD MSTORE POP JUMP JUMPDEST PUSH0 PUSH2 0x1904 PUSH1 0x17 DUP4 PUSH2 0x16B4 JUMP JUMPDEST SWAP2 POP PUSH2 0x190F DUP3 PUSH2 0x18D0 JUMP JUMPDEST PUSH1 0x20 DUP3 ADD SWAP1 POP SWAP2 SWAP1 POP JUMP JUMPDEST PUSH0 PUSH1 0x20 DUP3 ADD SWAP1 POP DUP2 DUP2 SUB PUSH0 DUP4 ADD MSTORE PUSH2 0x1931 DUP2 PUSH2 0x18F8 JUMP JUMPDEST SWAP1 POP SWAP2 SWAP1 POP JUMP JUMPDEST PUSH0 DUP1 REVERT JUMPDEST PUSH0 DUP1 REVERT JUMPDEST PUSH0 PUSH2 0x1952 PUSH2 0x194D DUP5 PUSH2 0x13B2 JUMP JUMPDEST PUSH2 0x1398 JUMP JUMPDEST SWAP1 POP DUP3 DUP2 MSTORE PUSH1 0x20 DUP2 ADD DUP5 DUP5 DUP5 ADD GT ISZERO PUSH2 0x196E JUMPI PUSH2 0x196D PUSH2 0x1326 JUMP JUMPDEST JUMPDEST PUSH2 0x1979 DUP5 DUP3 DUP6 PUSH2 0x15D5 JUMP JUMPDEST POP SWAP4 SWAP3 POP POP POP JUMP JUMPDEST PUSH0 DUP3 PUSH1 0x1F DUP4 ADD SLT PUSH2 0x1995 JUMPI PUSH2 0x1994 PUSH2 0x1322 JUMP JUMPDEST JUMPDEST DUP2 MLOAD PUSH2 0x19A5 DUP5 DUP3 PUSH1 0x20 DUP7 ADD PUSH2 0x1940 JUMP JUMPDEST SWAP2 POP POP SWAP3 SWAP2 POP POP JUMP JUMPDEST PUSH0 DUP2 MLOAD SWAP1 POP PUSH2 0x19BC DUP2 PUSH2 0x1655 JUMP JUMPDEST SWAP3 SWAP2 POP POP JUMP JUMPDEST PUSH0 PUSH1 0x40 DUP3 DUP5 SUB SLT ISZERO PUSH2 0x19D7 JUMPI PUSH2 0x19D6 PUSH2 0x1938 JUMP JUMPDEST JUMPDEST PUSH2 0x19E1 PUSH1 0x40 PUSH2 0x1398 JUMP JUMPDEST SWAP1 POP PUSH0 DUP3 ADD MLOAD PUSH8 0xFFFFFFFFFFFFFFFF DUP2 GT ISZERO PUSH2 0x1A00 JUMPI PUSH2 0x19FF PUSH2 0x193C JUMP JUMPDEST JUMPDEST PUSH2 0x1A0C DUP5 DUP3 DUP6 ADD PUSH2 0x1981 JUMP JUMPDEST PUSH0 DUP4 ADD MSTORE POP PUSH1 0x20 PUSH2 0x1A1F DUP5 DUP3 DUP6 ADD PUSH2 0x19AE JUMP JUMPDEST PUSH1 0x20 DUP4 ADD MSTORE POP SWAP3 SWAP2 POP POP JUMP JUMPDEST PUSH0 PUSH1 0x20 DUP3 DUP5 SUB SLT ISZERO PUSH2 0x1A40 JUMPI PUSH2 0x1A3F PUSH2 0x131A JUMP JUMPDEST JUMPDEST PUSH0 DUP3 ADD MLOAD PUSH8 0xFFFFFFFFFFFFFFFF DUP2 GT ISZERO PUSH2 0x1A5D JUMPI PUSH2 0x1A5C PUSH2 0x131E JUMP JUMPDEST JUMPDEST PUSH2 0x1A69 DUP5 DUP3 DUP6 ADD PUSH2 0x19C2 JUMP JUMPDEST SWAP2 POP POP SWAP3 SWAP2 POP POP JUMP JUMPDEST PUSH32 0x4E487B7100000000000000000000000000000000000000000000000000000000 PUSH0 MSTORE PUSH1 0x22 PUSH1 0x4 MSTORE PUSH1 0x24 PUSH0 REVERT JUMPDEST PUSH0 PUSH1 0x2 DUP3 DIV SWAP1 POP PUSH1 0x1 DUP3 AND DUP1 PUSH2 0x1AB6 JUMPI PUSH1 0x7F DUP3 AND SWAP2 POP JUMPDEST PUSH1 0x20 DUP3 LT DUP2 SUB PUSH2 0x1AC9 JUMPI PUSH2 0x1AC8 PUSH2 0x1A72 JUMP JUMPDEST JUMPDEST POP SWAP2 SWAP1 POP JUMP JUMPDEST PUSH0 DUP2 SWAP1 POP DUP2 PUSH0 MSTORE PUSH1 0x20 PUSH0 KECCAK256 SWAP1 POP SWAP2 SWAP1 POP JUMP JUMPDEST PUSH0 PUSH1 0x20 PUSH1 0x1F DUP4 ADD DIV SWAP1 POP SWAP2 SWAP1 POP JUMP JUMPDEST PUSH0 DUP3 DUP3 SHL SWAP1 POP SWAP3 SWAP2 POP POP JUMP JUMPDEST PUSH0 PUSH1 0x8 DUP4 MUL PUSH2 0x1B2B PUSH32 0xFFFFFFFFFFFFFFFFFFFFFFFFFFFFFFFFFFFFFFFFFFFFFFFFFFFFFFFFFFFFFFFF DUP3 PUSH2 0x1AF0 JUMP JUMPDEST PUSH2 0x1B35 DUP7 DUP4 PUSH2 0x1AF0 JUMP JUMPDEST SWAP6 POP DUP1 NOT DUP5 AND SWAP4 POP DUP1 DUP7 AND DUP5 OR SWAP3 POP POP POP SWAP4 SWAP3 POP POP POP JUMP JUMPDEST PUSH0 PUSH2 0x1B67 PUSH2 0x1B62 PUSH2 0x1B5D DUP5 PUSH2 0x14A5 JUMP JUMPDEST PUSH2 0x129D JUMP JUMPDEST PUSH2 0x14A5 JUMP JUMPDEST SWAP1 POP SWAP2 SWAP1 POP JUMP JUMPDEST PUSH0 DUP2 SWAP1 POP SWAP2 SWAP1 POP JUMP JUMPDEST PUSH2 0x1B80 DUP4 PUSH2 0x1B4D JUMP JUMPDEST PUSH2 0x1B94 PUSH2 0x1B8C DUP3 PUSH2 0x1B6E JUMP JUMPDEST DUP5 DUP5 SLOAD PUSH2 0x1AFC JUMP JUMPDEST DUP3 SSTORE POP POP POP POP JUMP JUMPDEST PUSH0 SWAP1 JUMP JUMPDEST PUSH2 0x1BA8 PUSH2 0x1B9C JUMP JUMPDEST PUSH2 0x1BB3 DUP2 DUP5 DUP5 PUSH2 0x1B77 JUMP JUMPDEST POP POP POP JUMP JUMPDEST JUMPDEST DUP2 DUP2 LT ISZERO PUSH2 0x1BD6 JUMPI PUSH2 0x1BCB PUSH0 DUP3 PUSH2 0x1BA0 JUMP JUMPDEST PUSH1 0x1 DUP2 ADD SWAP1 POP PUSH2 0x1BB9 JUMP JUMPDEST POP POP JUMP JUMPDEST PUSH1 0x1F DUP3 GT ISZERO PUSH2 0x1C1B JUMPI PUSH2 0x1BEC DUP2 PUSH2 0x1ACF JUMP JUMPDEST PUSH2 0x1BF5 DUP5 PUSH2 0x1AE1 JUMP JUMPDEST DUP2 ADD PUSH1 0x20 DUP6 LT ISZERO PUSH2 0x1C04 JUMPI DUP2 SWAP1 POP JUMPDEST PUSH2 0x1C18 PUSH2 0x1C10 DUP6 PUSH2 0x1AE1 JUMP JUMPDEST DUP4 ADD DUP3 PUSH2 0x1BB8 JUMP JUMPDEST POP POP JUMPDEST POP POP POP JUMP JUMPDEST PUSH0 DUP3 DUP3 SHR SWAP1 POP SWAP3 SWAP2 POP POP JUMP JUMPDEST PUSH0 PUSH2 0x1C3B PUSH0 NOT DUP5 PUSH1 0x8 MUL PUSH2 0x1C20 JUMP JUMPDEST NOT DUP1 DUP4 AND SWAP2 POP POP SWAP3 SWAP2 POP POP JUMP JUMPDEST PUSH0 PUSH2 0x1C53 DUP4 DUP4 PUSH2 0x1C2C JUMP JUMPDEST SWAP2 POP DUP3 PUSH1 0x2 MUL DUP3 OR SWAP1 POP SWAP3 SWAP2 POP POP JUMP JUMPDEST PUSH2 0x1C6C DUP3 PUSH2 0x16AA JUMP JUMPDEST PUSH8 0xFFFFFFFFFFFFFFFF DUP2 GT ISZERO PUSH2 0x1C85 JUMPI PUSH2 0x1C84 PUSH2 0x133A JUMP JUMPDEST JUMPDEST PUSH2 0x1C8F DUP3 SLOAD PUSH2 0x1A9F JUMP JUMPDEST PUSH2 0x1C9A DUP3 DUP3 DUP6 PUSH2 0x1BDA JUMP JUMPDEST PUSH0 PUSH1 0x20 SWAP1 POP PUSH1 0x1F DUP4 GT PUSH1 0x1 DUP2 EQ PUSH2 0x1CCB JUMPI PUSH0 DUP5 ISZERO PUSH2 0x1CB9 JUMPI DUP3 DUP8 ADD MLOAD SWAP1 POP JUMPDEST PUSH2 0x1CC3 DUP6 DUP3 PUSH2 0x1C48 JUMP JUMPDEST DUP7 SSTORE POP PUSH2 0x1D2A JUMP JUMPDEST PUSH1 0x1F NOT DUP5 AND PUSH2 0x1CD9 DUP7 PUSH2 0x1ACF JUMP JUMPDEST PUSH0 JUMPDEST DUP3 DUP2 LT ISZERO PUSH2 0x1D00 JUMPI DUP5 DUP10 ADD MLOAD DUP3 SSTORE PUSH1 0x1 DUP3 ADD SWAP2 POP PUSH1 0x20 DUP6 ADD SWAP5 POP PUSH1 0x20 DUP2 ADD SWAP1 POP PUSH2 0x1CDB JUMP JUMPDEST DUP7 DUP4 LT ISZERO PUSH2 0x1D1D JUMPI DUP5 DUP10 ADD MLOAD PUSH2 0x1D19 PUSH1 0x1F DUP10 AND DUP3 PUSH2 0x1C2C JUMP JUMPDEST DUP4 SSTORE POP JUMPDEST PUSH1 0x1 PUSH1 0x2 DUP9 MUL ADD DUP9 SSTORE POP POP POP JUMPDEST POP POP POP POP POP POP JUMP JUMPDEST PUSH0 DUP2 SWAP1 POP SWAP3 SWAP2 POP POP JUMP JUMPDEST PUSH0 PUSH2 0x1D46 DUP3 PUSH2 0x16AA JUMP JUMPDEST PUSH2 0x1D50 DUP2 DUP6 PUSH2 0x1D32 JUMP JUMPDEST SWAP4 POP PUSH2 0x1D60 DUP2 DUP6 PUSH1 0x20 DUP7 ADD PUSH2 0x15D5 JUMP JUMPDEST DUP1 DUP5 ADD SWAP2 POP POP SWAP3 SWAP2 POP POP JUMP JUMPDEST PUSH0 PUSH2 0x1D77 DUP3 DUP5 PUSH2 0x1D3C JUMP JUMPDEST SWAP2 POP DUP2 SWAP1 POP SWAP3 SWAP2 POP POP JUMP JUMPDEST PUSH32 0x4E487B7100000000000000000000000000000000000000000000000000000000 PUSH0 MSTORE PUSH1 0x32 PUSH1 0x4 MSTORE PUSH1 0x24 PUSH0 REVERT JUMPDEST PUSH32 0x4E487B7100000000000000000000000000000000000000000000000000000000 PUSH0 MSTORE PUSH1 0x11 PUSH1 0x4 MSTORE PUSH1 0x24 PUSH0 REVERT JUMPDEST PUSH0 PUSH2 0x1DE6 DUP3 PUSH2 0x14A5 JUMP JUMPDEST SWAP2 POP PUSH2 0x1DF1 DUP4 PUSH2 0x14A5 JUMP JUMPDEST SWAP3 POP DUP3 DUP3 MUL PUSH2 0x1DFF DUP2 PUSH2 0x14A5 JUMP JUMPDEST SWAP2 POP DUP3 DUP3 DIV DUP5 EQ DUP4 ISZERO OR PUSH2 0x1E16 JUMPI PUSH2 0x1E15 PUSH2 0x1DAF JUMP JUMPDEST JUMPDEST POP SWAP3 SWAP2 POP POP JUMP JUMPDEST PUSH0 PUSH2 0x1E27 DUP3 PUSH2 0x14A5 JUMP JUMPDEST SWAP2 POP PUSH2 0x1E32 DUP4 PUSH2 0x14A5 JUMP JUMPDEST SWAP3 POP DUP3 DUP3 ADD SWAP1 POP DUP1 DUP3 GT ISZERO PUSH2 0x1E4A JUMPI PUSH2 0x1E49 PUSH2 0x1DAF JUMP JUMPDEST JUMPDEST SWAP3 SWAP2 POP POP JUMP JUMPDEST PUSH32 0x56616C7565206D7573742062652067726561746572207468616E207A65726F00 PUSH0 DUP3 ADD MSTORE POP JUMP JUMPDEST PUSH0 PUSH2 0x1E84 PUSH1 0x1F DUP4 PUSH2 0x16B4 JUMP JUMPDEST SWAP2 POP PUSH2 0x1E8F DUP3 PUSH2 0x1E50 JUMP JUMPDEST PUSH1 0x20 DUP3 ADD SWAP1 POP SWAP2 SWAP1 POP JUMP JUMPDEST PUSH0 PUSH1 0x20 DUP3 ADD SWAP1 POP DUP2 DUP2 SUB PUSH0 DUP4 ADD MSTORE PUSH2 0x1EB1 DUP2 PUSH2 0x1E78 JUMP JUMPDEST SWAP1 POP SWAP2 SWAP1 POP JUMP JUMPDEST PUSH32 0x5465616D20646F6573206E6F7420657869737400000000000000000000000000 PUSH0 DUP3 ADD MSTORE POP JUMP JUMPDEST PUSH0 PUSH2 0x1EEC PUSH1 0x13 DUP4 PUSH2 0x16B4 JUMP JUMPDEST SWAP2 POP PUSH2 0x1EF7 DUP3 PUSH2 0x1EB8 JUMP JUMPDEST PUSH1 0x20 DUP3 ADD SWAP1 POP SWAP2 SWAP1 POP JUMP JUMPDEST PUSH0 PUSH1 0x20 DUP3 ADD SWAP1 POP DUP2 DUP2 SUB PUSH0 DUP4 ADD MSTORE PUSH2 0x1F19 DUP2 PUSH2 0x1EE0 JUMP JUMPDEST SWAP1 POP SWAP2 SWAP1 POP JUMP JUMPDEST PUSH32 0x4E487B7100000000000000000000000000000000000000000000000000000000 PUSH0 MSTORE PUSH1 0x12 PUSH1 0x4 MSTORE PUSH1 0x24 PUSH0 REVERT JUMPDEST PUSH0 PUSH2 0x1F57 DUP3 PUSH2 0x14A5 JUMP JUMPDEST SWAP2 POP PUSH2 0x1F62 DUP4 PUSH2 0x14A5 JUMP JUMPDEST SWAP3 POP DUP3 PUSH2 0x1F72 JUMPI PUSH2 0x1F71 PUSH2 0x1F20 JUMP JUMPDEST JUMPDEST DUP3 DUP3 DIV SWAP1 POP SWAP3 SWAP2 POP POP JUMP JUMPDEST PUSH32 0x436F6E7472616374206973206E6F74206F70656E000000000000000000000000 PUSH0 DUP3 ADD MSTORE POP JUMP JUMPDEST PUSH0 PUSH2 0x1FB1 PUSH1 0x14 DUP4 PUSH2 0x16B4 JUMP JUMPDEST SWAP2 POP PUSH2 0x1FBC DUP3 PUSH2 0x1F7D JUMP JUMPDEST PUSH1 0x20 DUP3 ADD SWAP1 POP SWAP2 SWAP1 POP JUMP JUMPDEST PUSH0 PUSH1 0x20 DUP3 ADD SWAP1 POP DUP2 DUP2 SUB PUSH0 DUP4 ADD MSTORE PUSH2 0x1FDE DUP2 PUSH2 0x1FA5 JUMP JUMPDEST SWAP1 POP SWAP2 SWAP1 POP JUMP JUMPDEST PUSH32 0x4F6E6C79206C6F6E672070617274792063616E20636C6F73652074686520636F PUSH0 DUP3 ADD MSTORE PUSH32 0x6E74726163740000000000000000000000000000000000000000000000000000 PUSH1 0x20 DUP3 ADD MSTORE POP JUMP JUMPDEST PUSH0 PUSH2 0x203F PUSH1 0x26 DUP4 PUSH2 0x16B4 JUMP JUMPDEST SWAP2 POP PUSH2 0x204A DUP3 PUSH2 0x1FE5 JUMP JUMPDEST PUSH1 0x40 DUP3 ADD SWAP1 POP SWAP2 SWAP1 POP JUMP JUMPDEST PUSH0 PUSH1 0x20 DUP3 ADD SWAP1 POP DUP2 DUP2 SUB PUSH0 DUP4 ADD MSTORE PUSH2 0x206C DUP2 PUSH2 0x2033 JUMP JUMPDEST SWAP1 POP SWAP2 SWAP1 POP JUMP JUMPDEST PUSH0 PUSH2 0x207D DUP3 PUSH2 0x14A5 JUMP JUMPDEST SWAP2 POP PUSH2 0x2088 DUP4 PUSH2 0x14A5 JUMP JUMPDEST SWAP3 POP DUP3 DUP3 SUB SWAP1 POP DUP2 DUP2 GT ISZERO PUSH2 0x20A0 JUMPI PUSH2 0x209F PUSH2 0x1DAF JUMP JUMPDEST JUMPDEST SWAP3 SWAP2 POP POP JUMP INVALID LOG2 PUSH5 0x6970667358 0x22 SLT KECCAK256 MOD DUP5 TIMESTAMP 0xC5 0xB1 RETURNDATASIZE SELFBALANCE DUP15 0xB5 CALLER 0xF6 JUMPI LOG4 REVERT DUP14 LOG3 DUP2 DUP15 PUSH30 0x78703FD126A7900A3CD0E446EE64736F6C63430008170033000000000000 "
				},
				"gasEstimates": {
					"creation": {
						"codeDepositCost": "1682400",
						"executionCost": "infinite",
						"totalCost": "infinite"
					},
					"external": {
						"addTeamName(string)": "infinite",
						"bytesToUint(bytes)": "infinite",
						"calcPayout(uint256)": "infinite",
						"closeContract(uint256)": "infinite",
						"contractCount(address)": "2891",
						"contracts(address,uint256)": "infinite",
						"eloFeed()": "infinite",
						"findTotalVal()": "infinite",
						"getBalance()": "424",
						"getEloRanking(string)": "infinite",
						"getEloRankingAsByte(string)": "infinite",
						"getRanking(string)": "infinite",
						"openContract(string)": "infinite",
						"owner()": "2538",
						"quantitiesLive(string)": "infinite",
						"rankings(string)": "infinite",
						"renounceOwnership()": "infinite",
						"setRanking(string,uint256)": "infinite",
						"teamNames(uint256)": "infinite",
						"transferOwnership(address)": "infinite"
					}
				},
				"methodIdentifiers": {
					"addTeamName(string)": "4406d219",
					"bytesToUint(bytes)": "02d06d05",
					"calcPayout(uint256)": "a265b84d",
					"closeContract(uint256)": "d0ce7360",
					"contractCount(address)": "ac580de7",
					"contracts(address,uint256)": "ed23f8c3",
					"eloFeed()": "0232424d",
					"findTotalVal()": "89279378",
					"getBalance()": "12065fe0",
					"getEloRanking(string)": "08ab2d4b",
					"getEloRankingAsByte(string)": "27826f1e",
					"getRanking(string)": "46e7a1dc",
					"openContract(string)": "9da751bb",
					"owner()": "8da5cb5b",
					"quantitiesLive(string)": "db027e05",
					"rankings(string)": "fdf3f74d",
					"renounceOwnership()": "715018a6",
					"setRanking(string,uint256)": "ce13ec89",
					"teamNames(uint256)": "5ae725f7",
					"transferOwnership(address)": "f2fde38b"
				}
			},
			"storageLayout": {
				"storage": [
					{
						"astId": 54,
						"contract": "PerpContract/Main.sol:PerpetualDEX",
						"label": "_owner",
						"offset": 0,
						"slot": "0",
						"type": "t_address"
					},
					{
						"astId": 345,
						"contract": "PerpContract/Main.sol:PerpetualDEX",
						"label": "eloFeed",
						"offset": 0,
						"slot": "1",
						"type": "t_contract(IFunctionConsumer)334"
					},
					{
						"astId": 364,
						"contract": "PerpContract/Main.sol:PerpetualDEX",
						"label": "quantity",
						"offset": 0,
						"slot": "2",
						"type": "t_mapping(t_uint256,t_uint256)"
					},
					{
						"astId": 371,
						"contract": "PerpContract/Main.sol:PerpetualDEX",
						"label": "contracts",
						"offset": 0,
						"slot": "3",
						"type": "t_mapping(t_address,t_mapping(t_uint256,t_struct(PerpContract)360_storage))"
					},
					{
						"astId": 375,
						"contract": "PerpContract/Main.sol:PerpetualDEX",
						"label": "contractCount",
						"offset": 0,
						"slot": "4",
						"type": "t_mapping(t_address,t_uint256)"
					},
					{
						"astId": 379,
						"contract": "PerpContract/Main.sol:PerpetualDEX",
						"label": "rankings",
						"offset": 0,
						"slot": "5",
						"type": "t_mapping(t_string_memory_ptr,t_uint256)"
					},
					{
						"astId": 383,
						"contract": "PerpContract/Main.sol:PerpetualDEX",
						"label": "quantitiesLive",
						"offset": 0,
						"slot": "6",
						"type": "t_mapping(t_string_memory_ptr,t_uint256)"
					},
					{
						"astId": 386,
						"contract": "PerpContract/Main.sol:PerpetualDEX",
						"label": "teamNames",
						"offset": 0,
						"slot": "7",
						"type": "t_array(t_string_storage)dyn_storage"
					},
					{
						"astId": 388,
						"contract": "PerpContract/Main.sol:PerpetualDEX",
						"label": "totalPool",
						"offset": 0,
						"slot": "8",
						"type": "t_uint256"
					}
				],
				"types": {
					"t_address": {
						"encoding": "inplace",
						"label": "address",
						"numberOfBytes": "20"
					},
					"t_array(t_string_storage)dyn_storage": {
						"base": "t_string_storage",
						"encoding": "dynamic_array",
						"label": "string[]",
						"numberOfBytes": "32"
					},
					"t_bool": {
						"encoding": "inplace",
						"label": "bool",
						"numberOfBytes": "1"
					},
					"t_contract(IFunctionConsumer)334": {
						"encoding": "inplace",
						"label": "contract IFunctionConsumer",
						"numberOfBytes": "20"
					},
					"t_mapping(t_address,t_mapping(t_uint256,t_struct(PerpContract)360_storage))": {
						"encoding": "mapping",
						"key": "t_address",
						"label": "mapping(address => mapping(uint256 => struct PerpetualDEX.PerpContract))",
						"numberOfBytes": "32",
						"value": "t_mapping(t_uint256,t_struct(PerpContract)360_storage)"
					},
					"t_mapping(t_address,t_uint256)": {
						"encoding": "mapping",
						"key": "t_address",
						"label": "mapping(address => uint256)",
						"numberOfBytes": "32",
						"value": "t_uint256"
					},
					"t_mapping(t_string_memory_ptr,t_uint256)": {
						"encoding": "mapping",
						"key": "t_string_memory_ptr",
						"label": "mapping(string => uint256)",
						"numberOfBytes": "32",
						"value": "t_uint256"
					},
					"t_mapping(t_uint256,t_struct(PerpContract)360_storage)": {
						"encoding": "mapping",
						"key": "t_uint256",
						"label": "mapping(uint256 => struct PerpetualDEX.PerpContract)",
						"numberOfBytes": "32",
						"value": "t_struct(PerpContract)360_storage"
					},
					"t_mapping(t_uint256,t_uint256)": {
						"encoding": "mapping",
						"key": "t_uint256",
						"label": "mapping(uint256 => uint256)",
						"numberOfBytes": "32",
						"value": "t_uint256"
					},
					"t_string_memory_ptr": {
						"encoding": "bytes",
						"label": "string",
						"numberOfBytes": "32"
					},
					"t_string_storage": {
						"encoding": "bytes",
						"label": "string",
						"numberOfBytes": "32"
					},
					"t_struct(PerpContract)360_storage": {
						"encoding": "inplace",
						"label": "struct PerpetualDEX.PerpContract",
						"members": [
							{
								"astId": 347,
								"contract": "PerpContract/Main.sol:PerpetualDEX",
								"label": "longParty",
								"offset": 0,
								"slot": "0",
								"type": "t_address"
							},
							{
								"astId": 349,
								"contract": "PerpContract/Main.sol:PerpetualDEX",
								"label": "isBack",
								"offset": 20,
								"slot": "0",
								"type": "t_bool"
							},
							{
								"astId": 351,
								"contract": "PerpContract/Main.sol:PerpetualDEX",
								"label": "quantity",
								"offset": 0,
								"slot": "1",
								"type": "t_uint256"
							},
							{
								"astId": 353,
								"contract": "PerpContract/Main.sol:PerpetualDEX",
								"label": "fundingRate",
								"offset": 0,
								"slot": "2",
								"type": "t_uint256"
							},
							{
								"astId": 355,
								"contract": "PerpContract/Main.sol:PerpetualDEX",
								"label": "isOpen",
								"offset": 0,
								"slot": "3",
								"type": "t_bool"
							},
							{
								"astId": 357,
								"contract": "PerpContract/Main.sol:PerpetualDEX",
								"label": "team",
								"offset": 0,
								"slot": "4",
								"type": "t_string_storage"
							},
							{
								"astId": 359,
								"contract": "PerpContract/Main.sol:PerpetualDEX",
								"label": "initialElo",
								"offset": 0,
								"slot": "5",
								"type": "t_uint256"
							}
						],
						"numberOfBytes": "192"
					},
					"t_uint256": {
						"encoding": "inplace",
						"label": "uint256",
						"numberOfBytes": "32"
					}
				}
			},
			"userdoc": {
				"kind": "user",
				"methods": {},
				"version": 1
			}
		}
	}
}