{
	"PerpContract/Main.sol": {
		"PerpetualDEX": {
			"abi": [
				{
					"inputs": [
						{
							"internalType": "address",
							"name": "_priceFeedAddress",
							"type": "address"
						}
					],
					"stateMutability": "nonpayable",
					"type": "constructor"
				},
				{
					"inputs": [
						{
							"internalType": "address",
							"name": "owner",
							"type": "address"
						}
					],
					"name": "OwnableInvalidOwner",
					"type": "error"
				},
				{
					"inputs": [
						{
							"internalType": "address",
							"name": "account",
							"type": "address"
						}
					],
					"name": "OwnableUnauthorizedAccount",
					"type": "error"
				},
				{
					"anonymous": false,
					"inputs": [
						{
							"indexed": true,
							"internalType": "address",
							"name": "previousOwner",
							"type": "address"
						},
						{
							"indexed": true,
							"internalType": "address",
							"name": "newOwner",
							"type": "address"
						}
					],
					"name": "OwnershipTransferred",
					"type": "event"
				},
				{
					"inputs": [
						{
							"internalType": "bytes",
							"name": "b",
							"type": "bytes"
						}
					],
					"name": "bytesToUint",
					"outputs": [
						{
							"internalType": "uint256",
							"name": "",
							"type": "uint256"
						}
					],
					"stateMutability": "pure",
					"type": "function"
				},
				{
					"inputs": [
						{
							"internalType": "uint256",
							"name": "_contractId",
							"type": "uint256"
						}
					],
					"name": "closeContract",
					"outputs": [],
					"stateMutability": "nonpayable",
					"type": "function"
				},
				{
					"inputs": [
						{
							"internalType": "address",
							"name": "",
							"type": "address"
						}
					],
					"name": "contractCount",
					"outputs": [
						{
							"internalType": "uint256",
							"name": "",
							"type": "uint256"
						}
					],
					"stateMutability": "view",
					"type": "function"
				},
				{
					"inputs": [
						{
							"internalType": "address",
							"name": "",
							"type": "address"
						},
						{
							"internalType": "uint256",
							"name": "",
							"type": "uint256"
						}
					],
					"name": "contracts",
					"outputs": [
						{
							"internalType": "address",
							"name": "longParty",
							"type": "address"
						},
						{
							"internalType": "bool",
							"name": "isBack",
							"type": "bool"
						},
						{
							"internalType": "uint256",
							"name": "quantity",
							"type": "uint256"
						},
						{
							"internalType": "uint256",
							"name": "fundingRate",
							"type": "uint256"
						},
						{
							"internalType": "bool",
							"name": "isOpen",
							"type": "bool"
						},
						{
							"internalType": "string",
							"name": "team",
							"type": "string"
						},
						{
							"internalType": "uint256",
							"name": "initialElo",
							"type": "uint256"
						}
					],
					"stateMutability": "view",
					"type": "function"
				},
				{
					"inputs": [],
					"name": "eloFeed",
					"outputs": [
						{
							"internalType": "contract IFunctionConsumer",
							"name": "",
							"type": "address"
						}
					],
					"stateMutability": "view",
					"type": "function"
				},
				{
					"inputs": [],
					"name": "getBalance",
					"outputs": [
						{
							"internalType": "uint256",
							"name": "",
							"type": "uint256"
						}
					],
					"stateMutability": "view",
					"type": "function"
				},
				{
					"inputs": [
						{
							"internalType": "string",
							"name": "team",
							"type": "string"
						}
					],
					"name": "getEloRanking",
					"outputs": [
						{
							"internalType": "uint256",
							"name": "",
							"type": "uint256"
						}
					],
					"stateMutability": "view",
					"type": "function"
				},
				{
					"inputs": [
						{
							"internalType": "string",
							"name": "team",
							"type": "string"
						}
					],
					"name": "getEloRankingAsByte",
					"outputs": [
						{
							"internalType": "bytes",
							"name": "",
							"type": "bytes"
						}
					],
					"stateMutability": "view",
					"type": "function"
				},
				{
					"inputs": [
						{
							"internalType": "string",
							"name": "_team",
							"type": "string"
						}
					],
					"name": "openContract",
					"outputs": [],
					"stateMutability": "payable",
					"type": "function"
				},
				{
					"inputs": [],
					"name": "owner",
					"outputs": [
						{
							"internalType": "address",
							"name": "",
							"type": "address"
						}
					],
					"stateMutability": "view",
					"type": "function"
				},
				{
					"inputs": [
						{
							"internalType": "string",
							"name": "",
							"type": "string"
						}
					],
					"name": "quantitiesLive",
					"outputs": [
						{
							"internalType": "uint256",
							"name": "",
							"type": "uint256"
						}
					],
					"stateMutability": "view",
					"type": "function"
				},
				{
					"inputs": [
						{
							"internalType": "string",
							"name": "",
							"type": "string"
						}
					],
					"name": "rankings",
					"outputs": [
						{
							"internalType": "uint256",
							"name": "",
							"type": "uint256"
						}
					],
					"stateMutability": "view",
					"type": "function"
				},
				{
					"inputs": [],
					"name": "renounceOwnership",
					"outputs": [],
					"stateMutability": "nonpayable",
					"type": "function"
				},
				{
					"inputs": [
						{
							"internalType": "address",
							"name": "newOwner",
							"type": "address"
						}
					],
					"name": "transferOwnership",
					"outputs": [],
					"stateMutability": "nonpayable",
					"type": "function"
				}
			],
			"devdoc": {
				"errors": {
					"OwnableInvalidOwner(address)": [
						{
							"details": "The owner is not a valid owner account. (eg. `address(0)`)"
						}
					],
					"OwnableUnauthorizedAccount(address)": [
						{
							"details": "The caller account is not authorized to perform an operation."
						}
					]
				},
				"kind": "dev",
				"methods": {
					"owner()": {
						"details": "Returns the address of the current owner."
					},
					"renounceOwnership()": {
						"details": "Leaves the contract without owner. It will not be possible to call `onlyOwner` functions. Can only be called by the current owner. NOTE: Renouncing ownership will leave the contract without an owner, thereby disabling any functionality that is only available to the owner."
					},
					"transferOwnership(address)": {
						"details": "Transfers ownership of the contract to a new account (`newOwner`). Can only be called by the current owner."
					}
				},
				"version": 1
			},
			"evm": {
				"assembly": "    /* \"PerpContract/Main.sol\":279:3689  contract PerpetualDEX is Ownable {... */\n  mstore(0x40, 0x80)\n    /* \"PerpContract/Main.sol\":1121:1243  constructor(address _priceFeedAddress) Ownable(msg.sender) {... */\n  callvalue\n  dup1\n  iszero\n  tag_1\n  jumpi\n  0x00\n  dup1\n  revert\ntag_1:\n  pop\n  mload(0x40)\n  sub(codesize, bytecodeSize)\n  dup1\n  bytecodeSize\n  dup4\n  codecopy\n  dup2\n  dup2\n  add\n  0x40\n  mstore\n  dup2\n  add\n  swap1\n  tag_2\n  swap2\n  swap1\n  tag_3\n  jump\t// in\ntag_2:\n    /* \"PerpContract/Main.sol\":1168:1178  msg.sender */\n  caller\n    /* \"@openzeppelin/contracts/access/Ownable.sol\":1297:1298  0 */\n  0x00\n    /* \"@openzeppelin/contracts/access/Ownable.sol\":1273:1299  initialOwner == address(0) */\n  0xffffffffffffffffffffffffffffffffffffffff\n  and\n    /* \"@openzeppelin/contracts/access/Ownable.sol\":1273:1285  initialOwner */\n  dup2\n    /* \"@openzeppelin/contracts/access/Ownable.sol\":1273:1299  initialOwner == address(0) */\n  0xffffffffffffffffffffffffffffffffffffffff\n  and\n  sub\n    /* \"@openzeppelin/contracts/access/Ownable.sol\":1269:1364  if (initialOwner == address(0)) {... */\n  tag_7\n  jumpi\n    /* \"@openzeppelin/contracts/access/Ownable.sol\":1350:1351  0 */\n  0x00\n    /* \"@openzeppelin/contracts/access/Ownable.sol\":1322:1353  OwnableInvalidOwner(address(0)) */\n  mload(0x40)\n  0x1e4fbdf700000000000000000000000000000000000000000000000000000000\n  dup2\n  mstore\n  0x04\n  add\n  tag_8\n  swap2\n  swap1\n  tag_9\n  jump\t// in\ntag_8:\n  mload(0x40)\n  dup1\n  swap2\n  sub\n  swap1\n  revert\n    /* \"@openzeppelin/contracts/access/Ownable.sol\":1269:1364  if (initialOwner == address(0)) {... */\ntag_7:\n    /* \"@openzeppelin/contracts/access/Ownable.sol\":1373:1405  _transferOwnership(initialOwner) */\n  tag_10\n    /* \"@openzeppelin/contracts/access/Ownable.sol\":1392:1404  initialOwner */\n  dup2\n    /* \"@openzeppelin/contracts/access/Ownable.sol\":1373:1391  _transferOwnership */\n  shl(0x20, tag_11)\n    /* \"@openzeppelin/contracts/access/Ownable.sol\":1373:1405  _transferOwnership(initialOwner) */\n  0x20\n  shr\n  jump\t// in\ntag_10:\n    /* \"@openzeppelin/contracts/access/Ownable.sol\":1225:1412  constructor(address initialOwner) {... */\n  pop\n    /* \"PerpContract/Main.sol\":1218:1235  _priceFeedAddress */\n  dup1\n    /* \"PerpContract/Main.sol\":1190:1197  eloFeed */\n  0x01\n  0x00\n    /* \"PerpContract/Main.sol\":1190:1236  eloFeed = IFunctionConsumer(_priceFeedAddress) */\n  0x0100\n  exp\n  dup2\n  sload\n  dup2\n  0xffffffffffffffffffffffffffffffffffffffff\n  mul\n  not\n  and\n  swap1\n  dup4\n  0xffffffffffffffffffffffffffffffffffffffff\n  and\n  mul\n  or\n  swap1\n  sstore\n  pop\n    /* \"PerpContract/Main.sol\":1121:1243  constructor(address _priceFeedAddress) Ownable(msg.sender) {... */\n  pop\n    /* \"PerpContract/Main.sol\":279:3689  contract PerpetualDEX is Ownable {... */\n  jump(tag_13)\n    /* \"@openzeppelin/contracts/access/Ownable.sol\":2912:3099  function _transferOwnership(address newOwner) internal virtual {... */\ntag_11:\n    /* \"@openzeppelin/contracts/access/Ownable.sol\":2985:3001  address oldOwner */\n  0x00\n    /* \"@openzeppelin/contracts/access/Ownable.sol\":3004:3010  _owner */\n  dup1\n  0x00\n  swap1\n  sload\n  swap1\n  0x0100\n  exp\n  swap1\n  div\n  0xffffffffffffffffffffffffffffffffffffffff\n  and\n    /* \"@openzeppelin/contracts/access/Ownable.sol\":2985:3010  address oldOwner = _owner */\n  swap1\n  pop\n    /* \"@openzeppelin/contracts/access/Ownable.sol\":3029:3037  newOwner */\n  dup2\n    /* \"@openzeppelin/contracts/access/Ownable.sol\":3020:3026  _owner */\n  0x00\n  dup1\n    /* \"@openzeppelin/contracts/access/Ownable.sol\":3020:3037  _owner = newOwner */\n  0x0100\n  exp\n  dup2\n  sload\n  dup2\n  0xffffffffffffffffffffffffffffffffffffffff\n  mul\n  not\n  and\n  swap1\n  dup4\n  0xffffffffffffffffffffffffffffffffffffffff\n  and\n  mul\n  or\n  swap1\n  sstore\n  pop\n    /* \"@openzeppelin/contracts/access/Ownable.sol\":3083:3091  newOwner */\n  dup2\n    /* \"@openzeppelin/contracts/access/Ownable.sol\":3052:3092  OwnershipTransferred(oldOwner, newOwner) */\n  0xffffffffffffffffffffffffffffffffffffffff\n  and\n    /* \"@openzeppelin/contracts/access/Ownable.sol\":3073:3081  oldOwner */\n  dup2\n    /* \"@openzeppelin/contracts/access/Ownable.sol\":3052:3092  OwnershipTransferred(oldOwner, newOwner) */\n  0xffffffffffffffffffffffffffffffffffffffff\n  and\n  0x8be0079c531659141344cd1fd0a4f28419497f9722a3daafe3b4186f6b6457e0\n  mload(0x40)\n  mload(0x40)\n  dup1\n  swap2\n  sub\n  swap1\n  log3\n    /* \"@openzeppelin/contracts/access/Ownable.sol\":2975:3099  {... */\n  pop\n    /* \"@openzeppelin/contracts/access/Ownable.sol\":2912:3099  function _transferOwnership(address newOwner) internal virtual {... */\n  pop\n  jump\t// out\n    /* \"#utility.yul\":88:205   */\ntag_16:\n    /* \"#utility.yul\":197:198   */\n  0x00\n    /* \"#utility.yul\":194:195   */\n  dup1\n    /* \"#utility.yul\":187:199   */\n  revert\n    /* \"#utility.yul\":334:460   */\ntag_18:\n    /* \"#utility.yul\":371:378   */\n  0x00\n    /* \"#utility.yul\":411:453   */\n  0xffffffffffffffffffffffffffffffffffffffff\n    /* \"#utility.yul\":404:409   */\n  dup3\n    /* \"#utility.yul\":400:454   */\n  and\n    /* \"#utility.yul\":389:454   */\n  swap1\n  pop\n    /* \"#utility.yul\":334:460   */\n  swap2\n  swap1\n  pop\n  jump\t// out\n    /* \"#utility.yul\":466:562   */\ntag_19:\n    /* \"#utility.yul\":503:510   */\n  0x00\n    /* \"#utility.yul\":532:556   */\n  tag_29\n    /* \"#utility.yul\":550:555   */\n  dup3\n    /* \"#utility.yul\":532:556   */\n  tag_18\n  jump\t// in\ntag_29:\n    /* \"#utility.yul\":521:556   */\n  swap1\n  pop\n    /* \"#utility.yul\":466:562   */\n  swap2\n  swap1\n  pop\n  jump\t// out\n    /* \"#utility.yul\":568:690   */\ntag_20:\n    /* \"#utility.yul\":641:665   */\n  tag_31\n    /* \"#utility.yul\":659:664   */\n  dup2\n    /* \"#utility.yul\":641:665   */\n  tag_19\n  jump\t// in\ntag_31:\n    /* \"#utility.yul\":634:639   */\n  dup2\n    /* \"#utility.yul\":631:666   */\n  eq\n    /* \"#utility.yul\":621:684   */\n  tag_32\n  jumpi\n    /* \"#utility.yul\":680:681   */\n  0x00\n    /* \"#utility.yul\":677:678   */\n  dup1\n    /* \"#utility.yul\":670:682   */\n  revert\n    /* \"#utility.yul\":621:684   */\ntag_32:\n    /* \"#utility.yul\":568:690   */\n  pop\n  jump\t// out\n    /* \"#utility.yul\":696:839   */\ntag_21:\n    /* \"#utility.yul\":753:758   */\n  0x00\n    /* \"#utility.yul\":784:790   */\n  dup2\n    /* \"#utility.yul\":778:791   */\n  mload\n    /* \"#utility.yul\":769:791   */\n  swap1\n  pop\n    /* \"#utility.yul\":800:833   */\n  tag_34\n    /* \"#utility.yul\":827:832   */\n  dup2\n    /* \"#utility.yul\":800:833   */\n  tag_20\n  jump\t// in\ntag_34:\n    /* \"#utility.yul\":696:839   */\n  swap3\n  swap2\n  pop\n  pop\n  jump\t// out\n    /* \"#utility.yul\":845:1196   */\ntag_3:\n    /* \"#utility.yul\":915:921   */\n  0x00\n    /* \"#utility.yul\":964:966   */\n  0x20\n    /* \"#utility.yul\":952:961   */\n  dup3\n    /* \"#utility.yul\":943:950   */\n  dup5\n    /* \"#utility.yul\":939:962   */\n  sub\n    /* \"#utility.yul\":935:967   */\n  slt\n    /* \"#utility.yul\":932:1051   */\n  iszero\n  tag_36\n  jumpi\n    /* \"#utility.yul\":970:1049   */\n  tag_37\n  tag_16\n  jump\t// in\ntag_37:\n    /* \"#utility.yul\":932:1051   */\ntag_36:\n    /* \"#utility.yul\":1090:1091   */\n  0x00\n    /* \"#utility.yul\":1115:1179   */\n  tag_38\n    /* \"#utility.yul\":1171:1178   */\n  dup5\n    /* \"#utility.yul\":1162:1168   */\n  dup3\n    /* \"#utility.yul\":1151:1160   */\n  dup6\n    /* \"#utility.yul\":1147:1169   */\n  add\n    /* \"#utility.yul\":1115:1179   */\n  tag_21\n  jump\t// in\ntag_38:\n    /* \"#utility.yul\":1105:1179   */\n  swap2\n  pop\n    /* \"#utility.yul\":1061:1189   */\n  pop\n    /* \"#utility.yul\":845:1196   */\n  swap3\n  swap2\n  pop\n  pop\n  jump\t// out\n    /* \"#utility.yul\":1202:1320   */\ntag_22:\n    /* \"#utility.yul\":1289:1313   */\n  tag_40\n    /* \"#utility.yul\":1307:1312   */\n  dup2\n    /* \"#utility.yul\":1289:1313   */\n  tag_19\n  jump\t// in\ntag_40:\n    /* \"#utility.yul\":1284:1287   */\n  dup3\n    /* \"#utility.yul\":1277:1314   */\n  mstore\n    /* \"#utility.yul\":1202:1320   */\n  pop\n  pop\n  jump\t// out\n    /* \"#utility.yul\":1326:1548   */\ntag_9:\n    /* \"#utility.yul\":1419:1423   */\n  0x00\n    /* \"#utility.yul\":1457:1459   */\n  0x20\n    /* \"#utility.yul\":1446:1455   */\n  dup3\n    /* \"#utility.yul\":1442:1460   */\n  add\n    /* \"#utility.yul\":1434:1460   */\n  swap1\n  pop\n    /* \"#utility.yul\":1470:1541   */\n  tag_42\n    /* \"#utility.yul\":1538:1539   */\n  0x00\n    /* \"#utility.yul\":1527:1536   */\n  dup4\n    /* \"#utility.yul\":1523:1540   */\n  add\n    /* \"#utility.yul\":1514:1520   */\n  dup5\n    /* \"#utility.yul\":1470:1541   */\n  tag_22\n  jump\t// in\ntag_42:\n    /* \"#utility.yul\":1326:1548   */\n  swap3\n  swap2\n  pop\n  pop\n  jump\t// out\n    /* \"PerpContract/Main.sol\":279:3689  contract PerpetualDEX is Ownable {... */\ntag_13:\n  dataSize(sub_0)\n  dup1\n  dataOffset(sub_0)\n  0x00\n  codecopy\n  0x00\n  return\nstop\n\nsub_0: assembly {\n        /* \"PerpContract/Main.sol\":279:3689  contract PerpetualDEX is Ownable {... */\n      mstore(0x40, 0x80)\n      jumpi(tag_1, lt(calldatasize, 0x04))\n      shr(0xe0, calldataload(0x00))\n      dup1\n      0x9da751bb\n      gt\n      tag_16\n      jumpi\n      dup1\n      0xdb027e05\n      gt\n      tag_17\n      jumpi\n      dup1\n      0xdb027e05\n      eq\n      tag_12\n      jumpi\n      dup1\n      0xed23f8c3\n      eq\n      tag_13\n      jumpi\n      dup1\n      0xf2fde38b\n      eq\n      tag_14\n      jumpi\n      dup1\n      0xfdf3f74d\n      eq\n      tag_15\n      jumpi\n      jump(tag_1)\n    tag_17:\n      dup1\n      0x9da751bb\n      eq\n      tag_9\n      jumpi\n      dup1\n      0xac580de7\n      eq\n      tag_10\n      jumpi\n      dup1\n      0xd0ce7360\n      eq\n      tag_11\n      jumpi\n      jump(tag_1)\n    tag_16:\n      dup1\n      0x12065fe0\n      gt\n      tag_18\n      jumpi\n      dup1\n      0x12065fe0\n      eq\n      tag_5\n      jumpi\n      dup1\n      0x27826f1e\n      eq\n      tag_6\n      jumpi\n      dup1\n      0x715018a6\n      eq\n      tag_7\n      jumpi\n      dup1\n      0x8da5cb5b\n      eq\n      tag_8\n      jumpi\n      jump(tag_1)\n    tag_18:\n      dup1\n      0x0232424d\n      eq\n      tag_2\n      jumpi\n      dup1\n      0x02d06d05\n      eq\n      tag_3\n      jumpi\n      dup1\n      0x08ab2d4b\n      eq\n      tag_4\n      jumpi\n    tag_1:\n      0x00\n      dup1\n      revert\n        /* \"PerpContract/Main.sol\":318:350  IFunctionConsumer public eloFeed */\n    tag_2:\n      callvalue\n      dup1\n      iszero\n      tag_19\n      jumpi\n      0x00\n      dup1\n      revert\n    tag_19:\n      pop\n      tag_20\n      tag_21\n      jump\t// in\n    tag_20:\n      mload(0x40)\n      tag_22\n      swap2\n      swap1\n      tag_23\n      jump\t// in\n    tag_22:\n      mload(0x40)\n      dup1\n      swap2\n      sub\n      swap1\n      return\n        /* \"PerpContract/Main.sol\":3423:3685  function bytesToUint(bytes memory b) public pure returns (uint256) {... */\n    tag_3:\n      callvalue\n      dup1\n      iszero\n      tag_24\n      jumpi\n      0x00\n      dup1\n      revert\n    tag_24:\n      pop\n      tag_25\n      0x04\n      dup1\n      calldatasize\n      sub\n      dup2\n      add\n      swap1\n      tag_26\n      swap2\n      swap1\n      tag_27\n      jump\t// in\n    tag_26:\n      tag_28\n      jump\t// in\n    tag_25:\n      mload(0x40)\n      tag_29\n      swap2\n      swap1\n      tag_30\n      jump\t// in\n    tag_29:\n      mload(0x40)\n      dup1\n      swap2\n      sub\n      swap1\n      return\n        /* \"PerpContract/Main.sol\":3049:3200  function getEloRanking(string memory team) public view returns (uint256)... */\n    tag_4:\n      callvalue\n      dup1\n      iszero\n      tag_31\n      jumpi\n      0x00\n      dup1\n      revert\n    tag_31:\n      pop\n      tag_32\n      0x04\n      dup1\n      calldatasize\n      sub\n      dup2\n      add\n      swap1\n      tag_33\n      swap2\n      swap1\n      tag_34\n      jump\t// in\n    tag_33:\n      tag_35\n      jump\t// in\n    tag_32:\n      mload(0x40)\n      tag_36\n      swap2\n      swap1\n      tag_30\n      jump\t// in\n    tag_36:\n      mload(0x40)\n      dup1\n      swap2\n      sub\n      swap1\n      return\n        /* \"PerpContract/Main.sol\":2884:2981  function getBalance() public view returns (uint256) {... */\n    tag_5:\n      callvalue\n      dup1\n      iszero\n      tag_37\n      jumpi\n      0x00\n      dup1\n      revert\n    tag_37:\n      pop\n      tag_38\n      tag_39\n      jump\t// in\n    tag_38:\n      mload(0x40)\n      tag_40\n      swap2\n      swap1\n      tag_30\n      jump\t// in\n    tag_40:\n      mload(0x40)\n      dup1\n      swap2\n      sub\n      swap1\n      return\n        /* \"PerpContract/Main.sol\":3268:3417  function getEloRankingAsByte(string memory team) public view returns (bytes memory)... */\n    tag_6:\n      callvalue\n      dup1\n      iszero\n      tag_41\n      jumpi\n      0x00\n      dup1\n      revert\n    tag_41:\n      pop\n      tag_42\n      0x04\n      dup1\n      calldatasize\n      sub\n      dup2\n      add\n      swap1\n      tag_43\n      swap2\n      swap1\n      tag_34\n      jump\t// in\n    tag_43:\n      tag_44\n      jump\t// in\n    tag_42:\n      mload(0x40)\n      tag_45\n      swap2\n      swap1\n      tag_46\n      jump\t// in\n    tag_45:\n      mload(0x40)\n      dup1\n      swap2\n      sub\n      swap1\n      return\n        /* \"@openzeppelin/contracts/access/Ownable.sol\":2293:2394  function renounceOwnership() public virtual onlyOwner {... */\n    tag_7:\n      callvalue\n      dup1\n      iszero\n      tag_47\n      jumpi\n      0x00\n      dup1\n      revert\n    tag_47:\n      pop\n      tag_48\n      tag_49\n      jump\t// in\n    tag_48:\n      stop\n        /* \"@openzeppelin/contracts/access/Ownable.sol\":1638:1723  function owner() public view virtual returns (address) {... */\n    tag_8:\n      callvalue\n      dup1\n      iszero\n      tag_50\n      jumpi\n      0x00\n      dup1\n      revert\n    tag_50:\n      pop\n      tag_51\n      tag_52\n      jump\t// in\n    tag_51:\n      mload(0x40)\n      tag_53\n      swap2\n      swap1\n      tag_54\n      jump\t// in\n    tag_53:\n      mload(0x40)\n      dup1\n      swap2\n      sub\n      swap1\n      return\n        /* \"PerpContract/Main.sol\":1294:2001  function openContract(string memory _team) public payable {... */\n    tag_9:\n      tag_55\n      0x04\n      dup1\n      calldatasize\n      sub\n      dup2\n      add\n      swap1\n      tag_56\n      swap2\n      swap1\n      tag_34\n      jump\t// in\n    tag_56:\n      tag_57\n      jump\t// in\n    tag_55:\n      stop\n        /* \"PerpContract/Main.sol\":855:903  mapping(address => uint256) public contractCount */\n    tag_10:\n      callvalue\n      dup1\n      iszero\n      tag_58\n      jumpi\n      0x00\n      dup1\n      revert\n    tag_58:\n      pop\n      tag_59\n      0x04\n      dup1\n      calldatasize\n      sub\n      dup2\n      add\n      swap1\n      tag_60\n      swap2\n      swap1\n      tag_61\n      jump\t// in\n    tag_60:\n      tag_62\n      jump\t// in\n    tag_59:\n      mload(0x40)\n      tag_63\n      swap2\n      swap1\n      tag_30\n      jump\t// in\n    tag_63:\n      mload(0x40)\n      dup1\n      swap2\n      sub\n      swap1\n      return\n        /* \"PerpContract/Main.sol\":2053:2878  function closeContract(uint256 _contractId) external {... */\n    tag_11:\n      callvalue\n      dup1\n      iszero\n      tag_64\n      jumpi\n      0x00\n      dup1\n      revert\n    tag_64:\n      pop\n      tag_65\n      0x04\n      dup1\n      calldatasize\n      sub\n      dup2\n      add\n      swap1\n      tag_66\n      swap2\n      swap1\n      tag_67\n      jump\t// in\n    tag_66:\n      tag_68\n      jump\t// in\n    tag_65:\n      stop\n        /* \"PerpContract/Main.sol\":993:1041  mapping(string => uint256) public quantitiesLive */\n    tag_12:\n      callvalue\n      dup1\n      iszero\n      tag_69\n      jumpi\n      0x00\n      dup1\n      revert\n    tag_69:\n      pop\n      tag_70\n      0x04\n      dup1\n      calldatasize\n      sub\n      dup2\n      add\n      swap1\n      tag_71\n      swap2\n      swap1\n      tag_34\n      jump\t// in\n    tag_71:\n      tag_72\n      jump\t// in\n    tag_70:\n      mload(0x40)\n      tag_73\n      swap2\n      swap1\n      tag_30\n      jump\t// in\n    tag_73:\n      mload(0x40)\n      dup1\n      swap2\n      sub\n      swap1\n      return\n        /* \"PerpContract/Main.sol\":745:814  mapping(address => mapping(uint256 => PerpContract)) public contracts */\n    tag_13:\n      callvalue\n      dup1\n      iszero\n      tag_74\n      jumpi\n      0x00\n      dup1\n      revert\n    tag_74:\n      pop\n      tag_75\n      0x04\n      dup1\n      calldatasize\n      sub\n      dup2\n      add\n      swap1\n      tag_76\n      swap2\n      swap1\n      tag_77\n      jump\t// in\n    tag_76:\n      tag_78\n      jump\t// in\n    tag_75:\n      mload(0x40)\n      tag_79\n      swap8\n      swap7\n      swap6\n      swap5\n      swap4\n      swap3\n      swap2\n      swap1\n      tag_80\n      jump\t// in\n    tag_79:\n      mload(0x40)\n      dup1\n      swap2\n      sub\n      swap1\n      return\n        /* \"@openzeppelin/contracts/access/Ownable.sol\":2543:2758  function transferOwnership(address newOwner) public virtual onlyOwner {... */\n    tag_14:\n      callvalue\n      dup1\n      iszero\n      tag_81\n      jumpi\n      0x00\n      dup1\n      revert\n    tag_81:\n      pop\n      tag_82\n      0x04\n      dup1\n      calldatasize\n      sub\n      dup2\n      add\n      swap1\n      tag_83\n      swap2\n      swap1\n      tag_61\n      jump\t// in\n    tag_83:\n      tag_84\n      jump\t// in\n    tag_82:\n      stop\n        /* \"PerpContract/Main.sol\":945:987  mapping(string => uint256) public rankings */\n    tag_15:\n      callvalue\n      dup1\n      iszero\n      tag_85\n      jumpi\n      0x00\n      dup1\n      revert\n    tag_85:\n      pop\n      tag_86\n      0x04\n      dup1\n      calldatasize\n      sub\n      dup2\n      add\n      swap1\n      tag_87\n      swap2\n      swap1\n      tag_34\n      jump\t// in\n    tag_87:\n      tag_88\n      jump\t// in\n    tag_86:\n      mload(0x40)\n      tag_89\n      swap2\n      swap1\n      tag_30\n      jump\t// in\n    tag_89:\n      mload(0x40)\n      dup1\n      swap2\n      sub\n      swap1\n      return\n        /* \"PerpContract/Main.sol\":318:350  IFunctionConsumer public eloFeed */\n    tag_21:\n      0x01\n      0x00\n      swap1\n      sload\n      swap1\n      0x0100\n      exp\n      swap1\n      div\n      0xffffffffffffffffffffffffffffffffffffffff\n      and\n      dup2\n      jump\t// out\n        /* \"PerpContract/Main.sol\":3423:3685  function bytesToUint(bytes memory b) public pure returns (uint256) {... */\n    tag_28:\n        /* \"PerpContract/Main.sol\":3481:3488  uint256 */\n      0x00\n        /* \"PerpContract/Main.sol\":3520:3522  32 */\n      0x20\n        /* \"PerpContract/Main.sol\":3508:3509  b */\n      dup3\n        /* \"PerpContract/Main.sol\":3508:3516  b.length */\n      mload\n        /* \"PerpContract/Main.sol\":3508:3522  b.length == 32 */\n      eq\n        /* \"PerpContract/Main.sol\":3500:3550  require(b.length == 32, \"Bytes length must be 32\") */\n      tag_91\n      jumpi\n      mload(0x40)\n      0x08c379a000000000000000000000000000000000000000000000000000000000\n      dup2\n      mstore\n      0x04\n      add\n      tag_92\n      swap1\n      tag_93\n      jump\t// in\n    tag_92:\n      mload(0x40)\n      dup1\n      swap2\n      sub\n      swap1\n      revert\n    tag_91:\n        /* \"PerpContract/Main.sol\":3569:3584  uint256 number1 */\n      0x00\n        /* \"PerpContract/Main.sol\":3641:3643  32 */\n      0x20\n        /* \"PerpContract/Main.sol\":3638:3639  b */\n      dup4\n        /* \"PerpContract/Main.sol\":3634:3644  add(b, 32) */\n      add\n        /* \"PerpContract/Main.sol\":3628:3645  mload(add(b, 32)) */\n      mload\n        /* \"PerpContract/Main.sol\":3617:3645  number1 := mload(add(b, 32)) */\n      swap1\n      pop\n        /* \"PerpContract/Main.sol\":3671:3678  number1 */\n      dup1\n        /* \"PerpContract/Main.sol\":3664:3678  return number1 */\n      swap2\n      pop\n      pop\n        /* \"PerpContract/Main.sol\":3423:3685  function bytesToUint(bytes memory b) public pure returns (uint256) {... */\n      swap2\n      swap1\n      pop\n      jump\t// out\n        /* \"PerpContract/Main.sol\":3049:3200  function getEloRanking(string memory team) public view returns (uint256)... */\n    tag_35:\n        /* \"PerpContract/Main.sol\":3113:3120  uint256 */\n      0x00\n        /* \"PerpContract/Main.sol\":3143:3193  bytesToUint(eloFeed.getLatestEloRanking(team).elo) */\n      tag_95\n        /* \"PerpContract/Main.sol\":3155:3162  eloFeed */\n      0x01\n      0x00\n      swap1\n      sload\n      swap1\n      0x0100\n      exp\n      swap1\n      div\n      0xffffffffffffffffffffffffffffffffffffffff\n      and\n        /* \"PerpContract/Main.sol\":3155:3182  eloFeed.getLatestEloRanking */\n      0xffffffffffffffffffffffffffffffffffffffff\n      and\n      0x475f1686\n        /* \"PerpContract/Main.sol\":3183:3187  team */\n      dup5\n        /* \"PerpContract/Main.sol\":3155:3188  eloFeed.getLatestEloRanking(team) */\n      mload(0x40)\n      dup3\n      0xffffffff\n      and\n      0xe0\n      shl\n      dup2\n      mstore\n      0x04\n      add\n      tag_96\n      swap2\n      swap1\n      tag_97\n      jump\t// in\n    tag_96:\n      0x00\n      mload(0x40)\n      dup1\n      dup4\n      sub\n      dup2\n      dup7\n      gas\n      staticcall\n      iszero\n      dup1\n      iszero\n      tag_99\n      jumpi\n      returndatasize\n      0x00\n      dup1\n      returndatacopy\n      revert(0x00, returndatasize)\n    tag_99:\n      pop\n      pop\n      pop\n      pop\n      mload(0x40)\n      returndatasize\n      0x00\n      dup3\n      returndatacopy\n      returndatasize\n      not(0x1f)\n      0x1f\n      dup3\n      add\n      and\n      dup3\n      add\n      dup1\n      0x40\n      mstore\n      pop\n      dup2\n      add\n      swap1\n      tag_100\n      swap2\n      swap1\n      tag_101\n      jump\t// in\n    tag_100:\n        /* \"PerpContract/Main.sol\":3155:3192  eloFeed.getLatestEloRanking(team).elo */\n      0x00\n      add\n      mload\n        /* \"PerpContract/Main.sol\":3143:3154  bytesToUint */\n      tag_28\n        /* \"PerpContract/Main.sol\":3143:3193  bytesToUint(eloFeed.getLatestEloRanking(team).elo) */\n      jump\t// in\n    tag_95:\n        /* \"PerpContract/Main.sol\":3136:3193  return bytesToUint(eloFeed.getLatestEloRanking(team).elo) */\n      swap1\n      pop\n        /* \"PerpContract/Main.sol\":3049:3200  function getEloRanking(string memory team) public view returns (uint256)... */\n      swap2\n      swap1\n      pop\n      jump\t// out\n        /* \"PerpContract/Main.sol\":2884:2981  function getBalance() public view returns (uint256) {... */\n    tag_39:\n        /* \"PerpContract/Main.sol\":2927:2934  uint256 */\n      0x00\n        /* \"PerpContract/Main.sol\":2953:2974  address(this).balance */\n      selfbalance\n        /* \"PerpContract/Main.sol\":2946:2974  return address(this).balance */\n      swap1\n      pop\n        /* \"PerpContract/Main.sol\":2884:2981  function getBalance() public view returns (uint256) {... */\n      swap1\n      jump\t// out\n        /* \"PerpContract/Main.sol\":3268:3417  function getEloRankingAsByte(string memory team) public view returns (bytes memory)... */\n    tag_44:\n        /* \"PerpContract/Main.sol\":3338:3350  bytes memory */\n      0x60\n        /* \"PerpContract/Main.sol\":3373:3380  eloFeed */\n      0x01\n      0x00\n      swap1\n      sload\n      swap1\n      0x0100\n      exp\n      swap1\n      div\n      0xffffffffffffffffffffffffffffffffffffffff\n      and\n        /* \"PerpContract/Main.sol\":3373:3400  eloFeed.getLatestEloRanking */\n      0xffffffffffffffffffffffffffffffffffffffff\n      and\n      0x475f1686\n        /* \"PerpContract/Main.sol\":3401:3405  team */\n      dup4\n        /* \"PerpContract/Main.sol\":3373:3406  eloFeed.getLatestEloRanking(team) */\n      mload(0x40)\n      dup3\n      0xffffffff\n      and\n      0xe0\n      shl\n      dup2\n      mstore\n      0x04\n      add\n      tag_104\n      swap2\n      swap1\n      tag_97\n      jump\t// in\n    tag_104:\n      0x00\n      mload(0x40)\n      dup1\n      dup4\n      sub\n      dup2\n      dup7\n      gas\n      staticcall\n      iszero\n      dup1\n      iszero\n      tag_106\n      jumpi\n      returndatasize\n      0x00\n      dup1\n      returndatacopy\n      revert(0x00, returndatasize)\n    tag_106:\n      pop\n      pop\n      pop\n      pop\n      mload(0x40)\n      returndatasize\n      0x00\n      dup3\n      returndatacopy\n      returndatasize\n      not(0x1f)\n      0x1f\n      dup3\n      add\n      and\n      dup3\n      add\n      dup1\n      0x40\n      mstore\n      pop\n      dup2\n      add\n      swap1\n      tag_107\n      swap2\n      swap1\n      tag_101\n      jump\t// in\n    tag_107:\n        /* \"PerpContract/Main.sol\":3373:3410  eloFeed.getLatestEloRanking(team).elo */\n      0x00\n      add\n      mload\n        /* \"PerpContract/Main.sol\":3366:3410  return eloFeed.getLatestEloRanking(team).elo */\n      swap1\n      pop\n        /* \"PerpContract/Main.sol\":3268:3417  function getEloRankingAsByte(string memory team) public view returns (bytes memory)... */\n      swap2\n      swap1\n      pop\n      jump\t// out\n        /* \"@openzeppelin/contracts/access/Ownable.sol\":2293:2394  function renounceOwnership() public virtual onlyOwner {... */\n    tag_49:\n        /* \"@openzeppelin/contracts/access/Ownable.sol\":1531:1544  _checkOwner() */\n      tag_109\n        /* \"@openzeppelin/contracts/access/Ownable.sol\":1531:1542  _checkOwner */\n      tag_110\n        /* \"@openzeppelin/contracts/access/Ownable.sol\":1531:1544  _checkOwner() */\n      jump\t// in\n    tag_109:\n        /* \"@openzeppelin/contracts/access/Ownable.sol\":2357:2387  _transferOwnership(address(0)) */\n      tag_112\n        /* \"@openzeppelin/contracts/access/Ownable.sol\":2384:2385  0 */\n      0x00\n        /* \"@openzeppelin/contracts/access/Ownable.sol\":2357:2375  _transferOwnership */\n      tag_113\n        /* \"@openzeppelin/contracts/access/Ownable.sol\":2357:2387  _transferOwnership(address(0)) */\n      jump\t// in\n    tag_112:\n        /* \"@openzeppelin/contracts/access/Ownable.sol\":2293:2394  function renounceOwnership() public virtual onlyOwner {... */\n      jump\t// out\n        /* \"@openzeppelin/contracts/access/Ownable.sol\":1638:1723  function owner() public view virtual returns (address) {... */\n    tag_52:\n        /* \"@openzeppelin/contracts/access/Ownable.sol\":1684:1691  address */\n      0x00\n        /* \"@openzeppelin/contracts/access/Ownable.sol\":1710:1716  _owner */\n      dup1\n      0x00\n      swap1\n      sload\n      swap1\n      0x0100\n      exp\n      swap1\n      div\n      0xffffffffffffffffffffffffffffffffffffffff\n      and\n        /* \"@openzeppelin/contracts/access/Ownable.sol\":1703:1716  return _owner */\n      swap1\n      pop\n        /* \"@openzeppelin/contracts/access/Ownable.sol\":1638:1723  function owner() public view virtual returns (address) {... */\n      swap1\n      jump\t// out\n        /* \"PerpContract/Main.sol\":1294:2001  function openContract(string memory _team) public payable {... */\n    tag_57:\n        /* \"PerpContract/Main.sol\":1382:1383  0 */\n      0x00\n        /* \"PerpContract/Main.sol\":1370:1379  msg.value */\n      callvalue\n        /* \"PerpContract/Main.sol\":1370:1383  msg.value > 0 */\n      gt\n        /* \"PerpContract/Main.sol\":1362:1419  require(msg.value > 0, \"Value must be greater than zero\") */\n      tag_116\n      jumpi\n      mload(0x40)\n      0x08c379a000000000000000000000000000000000000000000000000000000000\n      dup2\n      mstore\n      0x04\n      add\n      tag_117\n      swap1\n      tag_118\n      jump\t// in\n    tag_117:\n      mload(0x40)\n      dup1\n      swap2\n      sub\n      swap1\n      revert\n    tag_116:\n        /* \"PerpContract/Main.sol\":1430:1448  uint256 contractId */\n      0x00\n        /* \"PerpContract/Main.sol\":1479:1480  1 */\n      0x01\n        /* \"PerpContract/Main.sol\":1451:1464  contractCount */\n      0x04\n        /* \"PerpContract/Main.sol\":1451:1476  contractCount[msg.sender] */\n      0x00\n        /* \"PerpContract/Main.sol\":1465:1475  msg.sender */\n      caller\n        /* \"PerpContract/Main.sol\":1451:1476  contractCount[msg.sender] */\n      0xffffffffffffffffffffffffffffffffffffffff\n      and\n      0xffffffffffffffffffffffffffffffffffffffff\n      and\n      dup2\n      mstore\n      0x20\n      add\n      swap1\n      dup2\n      mstore\n      0x20\n      add\n      0x00\n      keccak256\n      sload\n        /* \"PerpContract/Main.sol\":1451:1480  contractCount[msg.sender] + 1 */\n      tag_119\n      swap2\n      swap1\n      tag_120\n      jump\t// in\n    tag_119:\n        /* \"PerpContract/Main.sol\":1430:1480  uint256 contractId = contractCount[msg.sender] + 1 */\n      swap1\n      pop\n        /* \"PerpContract/Main.sol\":1490:1501  uint256 elo */\n      0x00\n        /* \"PerpContract/Main.sol\":1504:1524  getEloRanking(_team) */\n      tag_121\n        /* \"PerpContract/Main.sol\":1518:1523  _team */\n      dup4\n        /* \"PerpContract/Main.sol\":1504:1517  getEloRanking */\n      tag_35\n        /* \"PerpContract/Main.sol\":1504:1524  getEloRanking(_team) */\n      jump\t// in\n    tag_121:\n        /* \"PerpContract/Main.sol\":1490:1524  uint256 elo = getEloRanking(_team) */\n      swap1\n      pop\n        /* \"PerpContract/Main.sol\":1549:1550  0 */\n      0x00\n        /* \"PerpContract/Main.sol\":1542:1545  elo */\n      dup2\n        /* \"PerpContract/Main.sol\":1542:1550  elo <= 0 */\n      gt\n      iszero\n        /* \"PerpContract/Main.sol\":1534:1574  require(elo <= 0, \"Team does not exist\") */\n      tag_122\n      jumpi\n      mload(0x40)\n      0x08c379a000000000000000000000000000000000000000000000000000000000\n      dup2\n      mstore\n      0x04\n      add\n      tag_123\n      swap1\n      tag_124\n      jump\t// in\n    tag_123:\n      mload(0x40)\n      dup1\n      swap2\n      sub\n      swap1\n      revert\n    tag_122:\n        /* \"PerpContract/Main.sol\":1585:1603  uint256 perpAmount */\n      0x00\n        /* \"PerpContract/Main.sol\":1618:1621  elo */\n      dup2\n        /* \"PerpContract/Main.sol\":1606:1615  msg.value */\n      callvalue\n        /* \"PerpContract/Main.sol\":1606:1621  msg.value / elo */\n      tag_125\n      swap2\n      swap1\n      tag_126\n      jump\t// in\n    tag_125:\n        /* \"PerpContract/Main.sol\":1585:1621  uint256 perpAmount = msg.value / elo */\n      swap1\n      pop\n        /* \"PerpContract/Main.sol\":1676:1708  PerpContract storage newContract */\n      0x00\n        /* \"PerpContract/Main.sol\":1711:1720  contracts */\n      0x03\n        /* \"PerpContract/Main.sol\":1711:1732  contracts[msg.sender] */\n      0x00\n        /* \"PerpContract/Main.sol\":1721:1731  msg.sender */\n      caller\n        /* \"PerpContract/Main.sol\":1711:1732  contracts[msg.sender] */\n      0xffffffffffffffffffffffffffffffffffffffff\n      and\n      0xffffffffffffffffffffffffffffffffffffffff\n      and\n      dup2\n      mstore\n      0x20\n      add\n      swap1\n      dup2\n      mstore\n      0x20\n      add\n      0x00\n      keccak256\n        /* \"PerpContract/Main.sol\":1711:1744  contracts[msg.sender][contractId] */\n      0x00\n        /* \"PerpContract/Main.sol\":1733:1743  contractId */\n      dup6\n        /* \"PerpContract/Main.sol\":1711:1744  contracts[msg.sender][contractId] */\n      dup2\n      mstore\n      0x20\n      add\n      swap1\n      dup2\n      mstore\n      0x20\n      add\n      0x00\n      keccak256\n        /* \"PerpContract/Main.sol\":1676:1744  PerpContract storage newContract = contracts[msg.sender][contractId] */\n      swap1\n      pop\n        /* \"PerpContract/Main.sol\":1778:1788  msg.sender */\n      caller\n        /* \"PerpContract/Main.sol\":1754:1765  newContract */\n      dup2\n        /* \"PerpContract/Main.sol\":1754:1775  newContract.longParty */\n      0x00\n      add\n      0x00\n        /* \"PerpContract/Main.sol\":1754:1788  newContract.longParty = msg.sender */\n      0x0100\n      exp\n      dup2\n      sload\n      dup2\n      0xffffffffffffffffffffffffffffffffffffffff\n      mul\n      not\n      and\n      swap1\n      dup4\n      0xffffffffffffffffffffffffffffffffffffffff\n      and\n      mul\n      or\n      swap1\n      sstore\n      pop\n        /* \"PerpContract/Main.sol\":1817:1822  _team */\n      dup5\n        /* \"PerpContract/Main.sol\":1798:1809  newContract */\n      dup2\n        /* \"PerpContract/Main.sol\":1798:1814  newContract.team */\n      0x04\n      add\n        /* \"PerpContract/Main.sol\":1798:1822  newContract.team = _team */\n      swap1\n      dup2\n      tag_127\n      swap2\n      swap1\n      tag_128\n      jump\t// in\n    tag_127:\n      pop\n        /* \"PerpContract/Main.sol\":1855:1865  perpAmount */\n      dup2\n        /* \"PerpContract/Main.sol\":1832:1843  newContract */\n      dup2\n        /* \"PerpContract/Main.sol\":1832:1852  newContract.quantity */\n      0x01\n      add\n        /* \"PerpContract/Main.sol\":1832:1865  newContract.quantity = perpAmount */\n      dup2\n      swap1\n      sstore\n      pop\n        /* \"PerpContract/Main.sol\":1900:1903  elo */\n      dup3\n        /* \"PerpContract/Main.sol\":1875:1886  newContract */\n      dup2\n        /* \"PerpContract/Main.sol\":1875:1897  newContract.initialElo */\n      0x05\n      add\n        /* \"PerpContract/Main.sol\":1875:1903  newContract.initialElo = elo */\n      dup2\n      swap1\n      sstore\n      pop\n        /* \"PerpContract/Main.sol\":1934:1938  true */\n      0x01\n        /* \"PerpContract/Main.sol\":1913:1924  newContract */\n      dup2\n        /* \"PerpContract/Main.sol\":1913:1931  newContract.isOpen */\n      0x03\n      add\n      0x00\n        /* \"PerpContract/Main.sol\":1913:1938  newContract.isOpen = true */\n      0x0100\n      exp\n      dup2\n      sload\n      dup2\n      0xff\n      mul\n      not\n      and\n      swap1\n      dup4\n      iszero\n      iszero\n      mul\n      or\n      swap1\n      sstore\n      pop\n        /* \"PerpContract/Main.sol\":1974:1985  newContract */\n      dup1\n        /* \"PerpContract/Main.sol\":1974:1994  newContract.quantity */\n      0x01\n      add\n      sload\n        /* \"PerpContract/Main.sol\":1949:1963  quantitiesLive */\n      0x06\n        /* \"PerpContract/Main.sol\":1964:1969  _team */\n      dup7\n        /* \"PerpContract/Main.sol\":1949:1970  quantitiesLive[_team] */\n      mload(0x40)\n      tag_129\n      swap2\n      swap1\n      tag_130\n      jump\t// in\n    tag_129:\n      swap1\n      dup2\n      mstore\n      0x20\n      add\n      mload(0x40)\n      dup1\n      swap2\n      sub\n      swap1\n      keccak256\n      0x00\n        /* \"PerpContract/Main.sol\":1949:1994  quantitiesLive[_team] += newContract.quantity */\n      dup3\n      dup3\n      sload\n      tag_131\n      swap2\n      swap1\n      tag_120\n      jump\t// in\n    tag_131:\n      swap3\n      pop\n      pop\n      dup2\n      swap1\n      sstore\n      pop\n        /* \"PerpContract/Main.sol\":1352:2001  {... */\n      pop\n      pop\n      pop\n      pop\n        /* \"PerpContract/Main.sol\":1294:2001  function openContract(string memory _team) public payable {... */\n      pop\n      jump\t// out\n        /* \"PerpContract/Main.sol\":855:903  mapping(address => uint256) public contractCount */\n    tag_62:\n      mstore(0x20, 0x04)\n      dup1\n      0x00\n      mstore\n      keccak256(0x00, 0x40)\n      0x00\n      swap2\n      pop\n      swap1\n      pop\n      sload\n      dup2\n      jump\t// out\n        /* \"PerpContract/Main.sol\":2053:2878  function closeContract(uint256 _contractId) external {... */\n    tag_68:\n        /* \"PerpContract/Main.sol\":2116:2153  PerpContract storage existingContract */\n      0x00\n        /* \"PerpContract/Main.sol\":2156:2165  contracts */\n      0x03\n        /* \"PerpContract/Main.sol\":2156:2177  contracts[msg.sender] */\n      0x00\n        /* \"PerpContract/Main.sol\":2166:2176  msg.sender */\n      caller\n        /* \"PerpContract/Main.sol\":2156:2177  contracts[msg.sender] */\n      0xffffffffffffffffffffffffffffffffffffffff\n      and\n      0xffffffffffffffffffffffffffffffffffffffff\n      and\n      dup2\n      mstore\n      0x20\n      add\n      swap1\n      dup2\n      mstore\n      0x20\n      add\n      0x00\n      keccak256\n        /* \"PerpContract/Main.sol\":2156:2190  contracts[msg.sender][_contractId] */\n      0x00\n        /* \"PerpContract/Main.sol\":2178:2189  _contractId */\n      dup4\n        /* \"PerpContract/Main.sol\":2156:2190  contracts[msg.sender][_contractId] */\n      dup2\n      mstore\n      0x20\n      add\n      swap1\n      dup2\n      mstore\n      0x20\n      add\n      0x00\n      keccak256\n        /* \"PerpContract/Main.sol\":2116:2190  PerpContract storage existingContract = contracts[msg.sender][_contractId] */\n      swap1\n      pop\n        /* \"PerpContract/Main.sol\":2208:2224  existingContract */\n      dup1\n        /* \"PerpContract/Main.sol\":2208:2231  existingContract.isOpen */\n      0x03\n      add\n      0x00\n      swap1\n      sload\n      swap1\n      0x0100\n      exp\n      swap1\n      div\n      0xff\n      and\n        /* \"PerpContract/Main.sol\":2200:2256  require(existingContract.isOpen, \"Contract is not open\") */\n      tag_133\n      jumpi\n      mload(0x40)\n      0x08c379a000000000000000000000000000000000000000000000000000000000\n      dup2\n      mstore\n      0x04\n      add\n      tag_134\n      swap1\n      tag_135\n      jump\t// in\n    tag_134:\n      mload(0x40)\n      dup1\n      swap2\n      sub\n      swap1\n      revert\n    tag_133:\n        /* \"PerpContract/Main.sol\":2317:2327  msg.sender */\n      caller\n        /* \"PerpContract/Main.sol\":2287:2327  existingContract.longParty == msg.sender */\n      0xffffffffffffffffffffffffffffffffffffffff\n      and\n        /* \"PerpContract/Main.sol\":2287:2303  existingContract */\n      dup2\n        /* \"PerpContract/Main.sol\":2287:2313  existingContract.longParty */\n      0x00\n      add\n      0x00\n      swap1\n      sload\n      swap1\n      0x0100\n      exp\n      swap1\n      div\n      0xffffffffffffffffffffffffffffffffffffffff\n      and\n        /* \"PerpContract/Main.sol\":2287:2327  existingContract.longParty == msg.sender */\n      0xffffffffffffffffffffffffffffffffffffffff\n      and\n      eq\n        /* \"PerpContract/Main.sol\":2266:2391  require(... */\n      tag_136\n      jumpi\n      mload(0x40)\n      0x08c379a000000000000000000000000000000000000000000000000000000000\n      dup2\n      mstore\n      0x04\n      add\n      tag_137\n      swap1\n      tag_138\n      jump\t// in\n    tag_137:\n      mload(0x40)\n      dup1\n      swap2\n      sub\n      swap1\n      revert\n    tag_136:\n        /* \"PerpContract/Main.sol\":2401:2419  string memory team */\n      0x00\n        /* \"PerpContract/Main.sol\":2422:2438  existingContract */\n      dup2\n        /* \"PerpContract/Main.sol\":2422:2443  existingContract.team */\n      0x04\n      add\n        /* \"PerpContract/Main.sol\":2401:2443  string memory team = existingContract.team */\n      dup1\n      sload\n      tag_139\n      swap1\n      tag_140\n      jump\t// in\n    tag_139:\n      dup1\n      0x1f\n      add\n      0x20\n      dup1\n      swap2\n      div\n      mul\n      0x20\n      add\n      mload(0x40)\n      swap1\n      dup2\n      add\n      0x40\n      mstore\n      dup1\n      swap3\n      swap2\n      swap1\n      dup2\n      dup2\n      mstore\n      0x20\n      add\n      dup3\n      dup1\n      sload\n      tag_141\n      swap1\n      tag_140\n      jump\t// in\n    tag_141:\n      dup1\n      iszero\n      tag_142\n      jumpi\n      dup1\n      0x1f\n      lt\n      tag_143\n      jumpi\n      0x0100\n      dup1\n      dup4\n      sload\n      div\n      mul\n      dup4\n      mstore\n      swap2\n      0x20\n      add\n      swap2\n      jump(tag_142)\n    tag_143:\n      dup3\n      add\n      swap2\n      swap1\n      0x00\n      mstore\n      keccak256(0x00, 0x20)\n      swap1\n    tag_144:\n      dup2\n      sload\n      dup2\n      mstore\n      swap1\n      0x01\n      add\n      swap1\n      0x20\n      add\n      dup1\n      dup4\n      gt\n      tag_144\n      jumpi\n      dup3\n      swap1\n      sub\n      0x1f\n      and\n      dup3\n      add\n      swap2\n    tag_142:\n      pop\n      pop\n      pop\n      pop\n      pop\n      swap1\n      pop\n        /* \"PerpContract/Main.sol\":2453:2467  uint256 eloVal */\n      0x00\n        /* \"PerpContract/Main.sol\":2470:2489  getEloRanking(team) */\n      tag_145\n        /* \"PerpContract/Main.sol\":2484:2488  team */\n      dup3\n        /* \"PerpContract/Main.sol\":2470:2483  getEloRanking */\n      tag_35\n        /* \"PerpContract/Main.sol\":2470:2489  getEloRanking(team) */\n      jump\t// in\n    tag_145:\n        /* \"PerpContract/Main.sol\":2453:2489  uint256 eloVal = getEloRanking(team) */\n      swap1\n      pop\n        /* \"PerpContract/Main.sol\":2500:2515  uint256 balance */\n      0x00\n        /* \"PerpContract/Main.sol\":2518:2530  getBalance() */\n      tag_146\n        /* \"PerpContract/Main.sol\":2518:2528  getBalance */\n      tag_39\n        /* \"PerpContract/Main.sol\":2518:2530  getBalance() */\n      jump\t// in\n    tag_146:\n        /* \"PerpContract/Main.sol\":2500:2530  uint256 balance = getBalance() */\n      swap1\n      pop\n        /* \"PerpContract/Main.sol\":2611:2625  uint256 payout */\n      0x00\n        /* \"PerpContract/Main.sol\":2685:2701  existingContract */\n      dup5\n        /* \"PerpContract/Main.sol\":2685:2710  existingContract.quantity */\n      0x01\n      add\n      sload\n        /* \"PerpContract/Main.sol\":2663:2670  balance */\n      dup3\n        /* \"PerpContract/Main.sol\":2641:2647  eloVal */\n      dup5\n        /* \"PerpContract/Main.sol\":2629:2638  totalPool */\n      sload(0x07)\n        /* \"PerpContract/Main.sol\":2629:2647  totalPool / eloVal */\n      tag_147\n      swap2\n      swap1\n      tag_126\n      jump\t// in\n    tag_147:\n        /* \"PerpContract/Main.sol\":2628:2670  (totalPool / eloVal) *... */\n      tag_148\n      swap2\n      swap1\n      tag_149\n      jump\t// in\n    tag_148:\n        /* \"PerpContract/Main.sol\":2628:2710  (totalPool / eloVal) *... */\n      tag_150\n      swap2\n      swap1\n      tag_149\n      jump\t// in\n    tag_150:\n        /* \"PerpContract/Main.sol\":2611:2710  uint256 payout = (totalPool / eloVal) *... */\n      swap1\n      pop\n        /* \"PerpContract/Main.sol\":2771:2781  msg.sender */\n      caller\n        /* \"PerpContract/Main.sol\":2763:2791  payable(msg.sender).transfer */\n      0xffffffffffffffffffffffffffffffffffffffff\n      and\n        /* \"PerpContract/Main.sol\":2763:2799  payable(msg.sender).transfer(payout) */\n      0x08fc\n        /* \"PerpContract/Main.sol\":2792:2798  payout */\n      dup3\n        /* \"PerpContract/Main.sol\":2763:2799  payable(msg.sender).transfer(payout) */\n      swap1\n      dup2\n      iszero\n      mul\n      swap1\n      mload(0x40)\n      0x00\n      mload(0x40)\n      dup1\n      dup4\n      sub\n      dup2\n      dup6\n      dup9\n      dup9\n      call\n      swap4\n      pop\n      pop\n      pop\n      pop\n      iszero\n      dup1\n      iszero\n      tag_152\n      jumpi\n      returndatasize\n      0x00\n      dup1\n      returndatacopy\n      revert(0x00, returndatasize)\n    tag_152:\n      pop\n        /* \"PerpContract/Main.sol\":2866:2871  false */\n      0x00\n        /* \"PerpContract/Main.sol\":2840:2856  existingContract */\n      dup6\n        /* \"PerpContract/Main.sol\":2840:2863  existingContract.isOpen */\n      0x03\n      add\n      0x00\n        /* \"PerpContract/Main.sol\":2840:2871  existingContract.isOpen = false */\n      0x0100\n      exp\n      dup2\n      sload\n      dup2\n      0xff\n      mul\n      not\n      and\n      swap1\n      dup4\n      iszero\n      iszero\n      mul\n      or\n      swap1\n      sstore\n      pop\n        /* \"PerpContract/Main.sol\":2106:2878  {... */\n      pop\n      pop\n      pop\n      pop\n      pop\n        /* \"PerpContract/Main.sol\":2053:2878  function closeContract(uint256 _contractId) external {... */\n      pop\n      jump\t// out\n        /* \"PerpContract/Main.sol\":993:1041  mapping(string => uint256) public quantitiesLive */\n    tag_72:\n      0x06\n      dup2\n      dup1\n      mload\n      0x20\n      dup2\n      add\n      dup3\n      add\n      dup1\n      mload\n      dup5\n      dup3\n      mstore\n      0x20\n      dup4\n      add\n      0x20\n      dup6\n      add\n      keccak256\n      dup2\n      dup4\n      mstore\n      dup1\n      swap6\n      pop\n      pop\n      pop\n      pop\n      pop\n      pop\n      0x00\n      swap2\n      pop\n      swap1\n      pop\n      sload\n      dup2\n      jump\t// out\n        /* \"PerpContract/Main.sol\":745:814  mapping(address => mapping(uint256 => PerpContract)) public contracts */\n    tag_78:\n      mstore(0x20, 0x03)\n      dup2\n      0x00\n      mstore\n      mstore(0x20, keccak256(0x00, 0x40))\n      dup1\n      0x00\n      mstore\n      keccak256(0x00, 0x40)\n      0x00\n      swap2\n      pop\n      swap2\n      pop\n      pop\n      dup1\n      0x00\n      add\n      0x00\n      swap1\n      sload\n      swap1\n      0x0100\n      exp\n      swap1\n      div\n      0xffffffffffffffffffffffffffffffffffffffff\n      and\n      swap1\n      dup1\n      0x00\n      add\n      0x14\n      swap1\n      sload\n      swap1\n      0x0100\n      exp\n      swap1\n      div\n      0xff\n      and\n      swap1\n      dup1\n      0x01\n      add\n      sload\n      swap1\n      dup1\n      0x02\n      add\n      sload\n      swap1\n      dup1\n      0x03\n      add\n      0x00\n      swap1\n      sload\n      swap1\n      0x0100\n      exp\n      swap1\n      div\n      0xff\n      and\n      swap1\n      dup1\n      0x04\n      add\n      dup1\n      sload\n      tag_153\n      swap1\n      tag_140\n      jump\t// in\n    tag_153:\n      dup1\n      0x1f\n      add\n      0x20\n      dup1\n      swap2\n      div\n      mul\n      0x20\n      add\n      mload(0x40)\n      swap1\n      dup2\n      add\n      0x40\n      mstore\n      dup1\n      swap3\n      swap2\n      swap1\n      dup2\n      dup2\n      mstore\n      0x20\n      add\n      dup3\n      dup1\n      sload\n      tag_154\n      swap1\n      tag_140\n      jump\t// in\n    tag_154:\n      dup1\n      iszero\n      tag_155\n      jumpi\n      dup1\n      0x1f\n      lt\n      tag_156\n      jumpi\n      0x0100\n      dup1\n      dup4\n      sload\n      div\n      mul\n      dup4\n      mstore\n      swap2\n      0x20\n      add\n      swap2\n      jump(tag_155)\n    tag_156:\n      dup3\n      add\n      swap2\n      swap1\n      0x00\n      mstore\n      keccak256(0x00, 0x20)\n      swap1\n    tag_157:\n      dup2\n      sload\n      dup2\n      mstore\n      swap1\n      0x01\n      add\n      swap1\n      0x20\n      add\n      dup1\n      dup4\n      gt\n      tag_157\n      jumpi\n      dup3\n      swap1\n      sub\n      0x1f\n      and\n      dup3\n      add\n      swap2\n    tag_155:\n      pop\n      pop\n      pop\n      pop\n      pop\n      swap1\n      dup1\n      0x05\n      add\n      sload\n      swap1\n      pop\n      dup8\n      jump\t// out\n        /* \"@openzeppelin/contracts/access/Ownable.sol\":2543:2758  function transferOwnership(address newOwner) public virtual onlyOwner {... */\n    tag_84:\n        /* \"@openzeppelin/contracts/access/Ownable.sol\":1531:1544  _checkOwner() */\n      tag_159\n        /* \"@openzeppelin/contracts/access/Ownable.sol\":1531:1542  _checkOwner */\n      tag_110\n        /* \"@openzeppelin/contracts/access/Ownable.sol\":1531:1544  _checkOwner() */\n      jump\t// in\n    tag_159:\n        /* \"@openzeppelin/contracts/access/Ownable.sol\":2647:2648  0 */\n      0x00\n        /* \"@openzeppelin/contracts/access/Ownable.sol\":2627:2649  newOwner == address(0) */\n      0xffffffffffffffffffffffffffffffffffffffff\n      and\n        /* \"@openzeppelin/contracts/access/Ownable.sol\":2627:2635  newOwner */\n      dup2\n        /* \"@openzeppelin/contracts/access/Ownable.sol\":2627:2649  newOwner == address(0) */\n      0xffffffffffffffffffffffffffffffffffffffff\n      and\n      sub\n        /* \"@openzeppelin/contracts/access/Ownable.sol\":2623:2714  if (newOwner == address(0)) {... */\n      tag_161\n      jumpi\n        /* \"@openzeppelin/contracts/access/Ownable.sol\":2700:2701  0 */\n      0x00\n        /* \"@openzeppelin/contracts/access/Ownable.sol\":2672:2703  OwnableInvalidOwner(address(0)) */\n      mload(0x40)\n      0x1e4fbdf700000000000000000000000000000000000000000000000000000000\n      dup2\n      mstore\n      0x04\n      add\n      tag_162\n      swap2\n      swap1\n      tag_54\n      jump\t// in\n    tag_162:\n      mload(0x40)\n      dup1\n      swap2\n      sub\n      swap1\n      revert\n        /* \"@openzeppelin/contracts/access/Ownable.sol\":2623:2714  if (newOwner == address(0)) {... */\n    tag_161:\n        /* \"@openzeppelin/contracts/access/Ownable.sol\":2723:2751  _transferOwnership(newOwner) */\n      tag_163\n        /* \"@openzeppelin/contracts/access/Ownable.sol\":2742:2750  newOwner */\n      dup2\n        /* \"@openzeppelin/contracts/access/Ownable.sol\":2723:2741  _transferOwnership */\n      tag_113\n        /* \"@openzeppelin/contracts/access/Ownable.sol\":2723:2751  _transferOwnership(newOwner) */\n      jump\t// in\n    tag_163:\n        /* \"@openzeppelin/contracts/access/Ownable.sol\":2543:2758  function transferOwnership(address newOwner) public virtual onlyOwner {... */\n      pop\n      jump\t// out\n        /* \"PerpContract/Main.sol\":945:987  mapping(string => uint256) public rankings */\n    tag_88:\n      0x05\n      dup2\n      dup1\n      mload\n      0x20\n      dup2\n      add\n      dup3\n      add\n      dup1\n      mload\n      dup5\n      dup3\n      mstore\n      0x20\n      dup4\n      add\n      0x20\n      dup6\n      add\n      keccak256\n      dup2\n      dup4\n      mstore\n      dup1\n      swap6\n      pop\n      pop\n      pop\n      pop\n      pop\n      pop\n      0x00\n      swap2\n      pop\n      swap1\n      pop\n      sload\n      dup2\n      jump\t// out\n        /* \"@openzeppelin/contracts/access/Ownable.sol\":1796:1958  function _checkOwner() internal view virtual {... */\n    tag_110:\n        /* \"@openzeppelin/contracts/access/Ownable.sol\":1866:1878  _msgSender() */\n      tag_165\n        /* \"@openzeppelin/contracts/access/Ownable.sol\":1866:1876  _msgSender */\n      tag_166\n        /* \"@openzeppelin/contracts/access/Ownable.sol\":1866:1878  _msgSender() */\n      jump\t// in\n    tag_165:\n        /* \"@openzeppelin/contracts/access/Ownable.sol\":1855:1878  owner() != _msgSender() */\n      0xffffffffffffffffffffffffffffffffffffffff\n      and\n        /* \"@openzeppelin/contracts/access/Ownable.sol\":1855:1862  owner() */\n      tag_167\n        /* \"@openzeppelin/contracts/access/Ownable.sol\":1855:1860  owner */\n      tag_52\n        /* \"@openzeppelin/contracts/access/Ownable.sol\":1855:1862  owner() */\n      jump\t// in\n    tag_167:\n        /* \"@openzeppelin/contracts/access/Ownable.sol\":1855:1878  owner() != _msgSender() */\n      0xffffffffffffffffffffffffffffffffffffffff\n      and\n      eq\n        /* \"@openzeppelin/contracts/access/Ownable.sol\":1851:1952  if (owner() != _msgSender()) {... */\n      tag_168\n      jumpi\n        /* \"@openzeppelin/contracts/access/Ownable.sol\":1928:1940  _msgSender() */\n      tag_169\n        /* \"@openzeppelin/contracts/access/Ownable.sol\":1928:1938  _msgSender */\n      tag_166\n        /* \"@openzeppelin/contracts/access/Ownable.sol\":1928:1940  _msgSender() */\n      jump\t// in\n    tag_169:\n        /* \"@openzeppelin/contracts/access/Ownable.sol\":1901:1941  OwnableUnauthorizedAccount(_msgSender()) */\n      mload(0x40)\n      0x118cdaa700000000000000000000000000000000000000000000000000000000\n      dup2\n      mstore\n      0x04\n      add\n      tag_170\n      swap2\n      swap1\n      tag_54\n      jump\t// in\n    tag_170:\n      mload(0x40)\n      dup1\n      swap2\n      sub\n      swap1\n      revert\n        /* \"@openzeppelin/contracts/access/Ownable.sol\":1851:1952  if (owner() != _msgSender()) {... */\n    tag_168:\n        /* \"@openzeppelin/contracts/access/Ownable.sol\":1796:1958  function _checkOwner() internal view virtual {... */\n      jump\t// out\n        /* \"@openzeppelin/contracts/access/Ownable.sol\":2912:3099  function _transferOwnership(address newOwner) internal virtual {... */\n    tag_113:\n        /* \"@openzeppelin/contracts/access/Ownable.sol\":2985:3001  address oldOwner */\n      0x00\n        /* \"@openzeppelin/contracts/access/Ownable.sol\":3004:3010  _owner */\n      dup1\n      0x00\n      swap1\n      sload\n      swap1\n      0x0100\n      exp\n      swap1\n      div\n      0xffffffffffffffffffffffffffffffffffffffff\n      and\n        /* \"@openzeppelin/contracts/access/Ownable.sol\":2985:3010  address oldOwner = _owner */\n      swap1\n      pop\n        /* \"@openzeppelin/contracts/access/Ownable.sol\":3029:3037  newOwner */\n      dup2\n        /* \"@openzeppelin/contracts/access/Ownable.sol\":3020:3026  _owner */\n      0x00\n      dup1\n        /* \"@openzeppelin/contracts/access/Ownable.sol\":3020:3037  _owner = newOwner */\n      0x0100\n      exp\n      dup2\n      sload\n      dup2\n      0xffffffffffffffffffffffffffffffffffffffff\n      mul\n      not\n      and\n      swap1\n      dup4\n      0xffffffffffffffffffffffffffffffffffffffff\n      and\n      mul\n      or\n      swap1\n      sstore\n      pop\n        /* \"@openzeppelin/contracts/access/Ownable.sol\":3083:3091  newOwner */\n      dup2\n        /* \"@openzeppelin/contracts/access/Ownable.sol\":3052:3092  OwnershipTransferred(oldOwner, newOwner) */\n      0xffffffffffffffffffffffffffffffffffffffff\n      and\n        /* \"@openzeppelin/contracts/access/Ownable.sol\":3073:3081  oldOwner */\n      dup2\n        /* \"@openzeppelin/contracts/access/Ownable.sol\":3052:3092  OwnershipTransferred(oldOwner, newOwner) */\n      0xffffffffffffffffffffffffffffffffffffffff\n      and\n      0x8be0079c531659141344cd1fd0a4f28419497f9722a3daafe3b4186f6b6457e0\n      mload(0x40)\n      mload(0x40)\n      dup1\n      swap2\n      sub\n      swap1\n      log3\n        /* \"@openzeppelin/contracts/access/Ownable.sol\":2975:3099  {... */\n      pop\n        /* \"@openzeppelin/contracts/access/Ownable.sol\":2912:3099  function _transferOwnership(address newOwner) internal virtual {... */\n      pop\n      jump\t// out\n        /* \"@openzeppelin/contracts/utils/Context.sol\":656:752  function _msgSender() internal view virtual returns (address) {... */\n    tag_166:\n        /* \"@openzeppelin/contracts/utils/Context.sol\":709:716  address */\n      0x00\n        /* \"@openzeppelin/contracts/utils/Context.sol\":735:745  msg.sender */\n      caller\n        /* \"@openzeppelin/contracts/utils/Context.sol\":728:745  return msg.sender */\n      swap1\n      pop\n        /* \"@openzeppelin/contracts/utils/Context.sol\":656:752  function _msgSender() internal view virtual returns (address) {... */\n      swap1\n      jump\t// out\n        /* \"#utility.yul\":7:133   */\n    tag_173:\n        /* \"#utility.yul\":44:51   */\n      0x00\n        /* \"#utility.yul\":84:126   */\n      0xffffffffffffffffffffffffffffffffffffffff\n        /* \"#utility.yul\":77:82   */\n      dup3\n        /* \"#utility.yul\":73:127   */\n      and\n        /* \"#utility.yul\":62:127   */\n      swap1\n      pop\n        /* \"#utility.yul\":7:133   */\n      swap2\n      swap1\n      pop\n      jump\t// out\n        /* \"#utility.yul\":139:199   */\n    tag_174:\n        /* \"#utility.yul\":167:170   */\n      0x00\n        /* \"#utility.yul\":188:193   */\n      dup2\n        /* \"#utility.yul\":181:193   */\n      swap1\n      pop\n        /* \"#utility.yul\":139:199   */\n      swap2\n      swap1\n      pop\n      jump\t// out\n        /* \"#utility.yul\":205:347   */\n    tag_175:\n        /* \"#utility.yul\":255:264   */\n      0x00\n        /* \"#utility.yul\":288:341   */\n      tag_251\n        /* \"#utility.yul\":306:340   */\n      tag_252\n        /* \"#utility.yul\":315:339   */\n      tag_253\n        /* \"#utility.yul\":333:338   */\n      dup5\n        /* \"#utility.yul\":315:339   */\n      tag_173\n      jump\t// in\n    tag_253:\n        /* \"#utility.yul\":306:340   */\n      tag_174\n      jump\t// in\n    tag_252:\n        /* \"#utility.yul\":288:341   */\n      tag_173\n      jump\t// in\n    tag_251:\n        /* \"#utility.yul\":275:341   */\n      swap1\n      pop\n        /* \"#utility.yul\":205:347   */\n      swap2\n      swap1\n      pop\n      jump\t// out\n        /* \"#utility.yul\":353:479   */\n    tag_176:\n        /* \"#utility.yul\":403:412   */\n      0x00\n        /* \"#utility.yul\":436:473   */\n      tag_255\n        /* \"#utility.yul\":467:472   */\n      dup3\n        /* \"#utility.yul\":436:473   */\n      tag_175\n      jump\t// in\n    tag_255:\n        /* \"#utility.yul\":423:473   */\n      swap1\n      pop\n        /* \"#utility.yul\":353:479   */\n      swap2\n      swap1\n      pop\n      jump\t// out\n        /* \"#utility.yul\":485:636   */\n    tag_177:\n        /* \"#utility.yul\":560:569   */\n      0x00\n        /* \"#utility.yul\":593:630   */\n      tag_257\n        /* \"#utility.yul\":624:629   */\n      dup3\n        /* \"#utility.yul\":593:630   */\n      tag_176\n      jump\t// in\n    tag_257:\n        /* \"#utility.yul\":580:630   */\n      swap1\n      pop\n        /* \"#utility.yul\":485:636   */\n      swap2\n      swap1\n      pop\n      jump\t// out\n        /* \"#utility.yul\":642:823   */\n    tag_178:\n        /* \"#utility.yul\":754:816   */\n      tag_259\n        /* \"#utility.yul\":810:815   */\n      dup2\n        /* \"#utility.yul\":754:816   */\n      tag_177\n      jump\t// in\n    tag_259:\n        /* \"#utility.yul\":749:752   */\n      dup3\n        /* \"#utility.yul\":742:817   */\n      mstore\n        /* \"#utility.yul\":642:823   */\n      pop\n      pop\n      jump\t// out\n        /* \"#utility.yul\":829:1101   */\n    tag_23:\n        /* \"#utility.yul\":947:951   */\n      0x00\n        /* \"#utility.yul\":985:987   */\n      0x20\n        /* \"#utility.yul\":974:983   */\n      dup3\n        /* \"#utility.yul\":970:988   */\n      add\n        /* \"#utility.yul\":962:988   */\n      swap1\n      pop\n        /* \"#utility.yul\":998:1094   */\n      tag_261\n        /* \"#utility.yul\":1091:1092   */\n      0x00\n        /* \"#utility.yul\":1080:1089   */\n      dup4\n        /* \"#utility.yul\":1076:1093   */\n      add\n        /* \"#utility.yul\":1067:1073   */\n      dup5\n        /* \"#utility.yul\":998:1094   */\n      tag_178\n      jump\t// in\n    tag_261:\n        /* \"#utility.yul\":829:1101   */\n      swap3\n      swap2\n      pop\n      pop\n      jump\t// out\n        /* \"#utility.yul\":1107:1182   */\n    tag_179:\n        /* \"#utility.yul\":1140:1146   */\n      0x00\n        /* \"#utility.yul\":1173:1175   */\n      0x40\n        /* \"#utility.yul\":1167:1176   */\n      mload\n        /* \"#utility.yul\":1157:1176   */\n      swap1\n      pop\n        /* \"#utility.yul\":1107:1182   */\n      swap1\n      jump\t// out\n        /* \"#utility.yul\":1188:1305   */\n    tag_180:\n        /* \"#utility.yul\":1297:1298   */\n      0x00\n        /* \"#utility.yul\":1294:1295   */\n      dup1\n        /* \"#utility.yul\":1287:1299   */\n      revert\n        /* \"#utility.yul\":1311:1428   */\n    tag_181:\n        /* \"#utility.yul\":1420:1421   */\n      0x00\n        /* \"#utility.yul\":1417:1418   */\n      dup1\n        /* \"#utility.yul\":1410:1422   */\n      revert\n        /* \"#utility.yul\":1434:1551   */\n    tag_182:\n        /* \"#utility.yul\":1543:1544   */\n      0x00\n        /* \"#utility.yul\":1540:1541   */\n      dup1\n        /* \"#utility.yul\":1533:1545   */\n      revert\n        /* \"#utility.yul\":1557:1674   */\n    tag_183:\n        /* \"#utility.yul\":1666:1667   */\n      0x00\n        /* \"#utility.yul\":1663:1664   */\n      dup1\n        /* \"#utility.yul\":1656:1668   */\n      revert\n        /* \"#utility.yul\":1680:1782   */\n    tag_184:\n        /* \"#utility.yul\":1721:1727   */\n      0x00\n        /* \"#utility.yul\":1772:1774   */\n      0x1f\n        /* \"#utility.yul\":1768:1775   */\n      not\n        /* \"#utility.yul\":1763:1765   */\n      0x1f\n        /* \"#utility.yul\":1756:1761   */\n      dup4\n        /* \"#utility.yul\":1752:1766   */\n      add\n        /* \"#utility.yul\":1748:1776   */\n      and\n        /* \"#utility.yul\":1738:1776   */\n      swap1\n      pop\n        /* \"#utility.yul\":1680:1782   */\n      swap2\n      swap1\n      pop\n      jump\t// out\n        /* \"#utility.yul\":1788:1968   */\n    tag_185:\n        /* \"#utility.yul\":1836:1913   */\n      0x4e487b7100000000000000000000000000000000000000000000000000000000\n        /* \"#utility.yul\":1833:1834   */\n      0x00\n        /* \"#utility.yul\":1826:1914   */\n      mstore\n        /* \"#utility.yul\":1933:1937   */\n      0x41\n        /* \"#utility.yul\":1930:1931   */\n      0x04\n        /* \"#utility.yul\":1923:1938   */\n      mstore\n        /* \"#utility.yul\":1957:1961   */\n      0x24\n        /* \"#utility.yul\":1954:1955   */\n      0x00\n        /* \"#utility.yul\":1947:1962   */\n      revert\n        /* \"#utility.yul\":1974:2255   */\n    tag_186:\n        /* \"#utility.yul\":2057:2084   */\n      tag_270\n        /* \"#utility.yul\":2079:2083   */\n      dup3\n        /* \"#utility.yul\":2057:2084   */\n      tag_184\n      jump\t// in\n    tag_270:\n        /* \"#utility.yul\":2049:2055   */\n      dup2\n        /* \"#utility.yul\":2045:2085   */\n      add\n        /* \"#utility.yul\":2187:2193   */\n      dup2\n        /* \"#utility.yul\":2175:2185   */\n      dup2\n        /* \"#utility.yul\":2172:2194   */\n      lt\n        /* \"#utility.yul\":2151:2169   */\n      0xffffffffffffffff\n        /* \"#utility.yul\":2139:2149   */\n      dup3\n        /* \"#utility.yul\":2136:2170   */\n      gt\n        /* \"#utility.yul\":2133:2195   */\n      or\n        /* \"#utility.yul\":2130:2218   */\n      iszero\n      tag_271\n      jumpi\n        /* \"#utility.yul\":2198:2216   */\n      tag_272\n      tag_185\n      jump\t// in\n    tag_272:\n        /* \"#utility.yul\":2130:2218   */\n    tag_271:\n        /* \"#utility.yul\":2238:2248   */\n      dup1\n        /* \"#utility.yul\":2234:2236   */\n      0x40\n        /* \"#utility.yul\":2227:2249   */\n      mstore\n        /* \"#utility.yul\":2017:2255   */\n      pop\n        /* \"#utility.yul\":1974:2255   */\n      pop\n      pop\n      jump\t// out\n        /* \"#utility.yul\":2261:2390   */\n    tag_187:\n        /* \"#utility.yul\":2295:2301   */\n      0x00\n        /* \"#utility.yul\":2322:2342   */\n      tag_274\n      tag_179\n      jump\t// in\n    tag_274:\n        /* \"#utility.yul\":2312:2342   */\n      swap1\n      pop\n        /* \"#utility.yul\":2351:2384   */\n      tag_275\n        /* \"#utility.yul\":2379:2383   */\n      dup3\n        /* \"#utility.yul\":2371:2377   */\n      dup3\n        /* \"#utility.yul\":2351:2384   */\n      tag_186\n      jump\t// in\n    tag_275:\n        /* \"#utility.yul\":2261:2390   */\n      swap2\n      swap1\n      pop\n      jump\t// out\n        /* \"#utility.yul\":2396:2703   */\n    tag_188:\n        /* \"#utility.yul\":2457:2461   */\n      0x00\n        /* \"#utility.yul\":2547:2565   */\n      0xffffffffffffffff\n        /* \"#utility.yul\":2539:2545   */\n      dup3\n        /* \"#utility.yul\":2536:2566   */\n      gt\n        /* \"#utility.yul\":2533:2589   */\n      iszero\n      tag_277\n      jumpi\n        /* \"#utility.yul\":2569:2587   */\n      tag_278\n      tag_185\n      jump\t// in\n    tag_278:\n        /* \"#utility.yul\":2533:2589   */\n    tag_277:\n        /* \"#utility.yul\":2607:2636   */\n      tag_279\n        /* \"#utility.yul\":2629:2635   */\n      dup3\n        /* \"#utility.yul\":2607:2636   */\n      tag_184\n      jump\t// in\n    tag_279:\n        /* \"#utility.yul\":2599:2636   */\n      swap1\n      pop\n        /* \"#utility.yul\":2691:2695   */\n      0x20\n        /* \"#utility.yul\":2685:2689   */\n      dup2\n        /* \"#utility.yul\":2681:2696   */\n      add\n        /* \"#utility.yul\":2673:2696   */\n      swap1\n      pop\n        /* \"#utility.yul\":2396:2703   */\n      swap2\n      swap1\n      pop\n      jump\t// out\n        /* \"#utility.yul\":2709:2855   */\n    tag_189:\n        /* \"#utility.yul\":2806:2812   */\n      dup3\n        /* \"#utility.yul\":2801:2804   */\n      dup2\n        /* \"#utility.yul\":2796:2799   */\n      dup4\n        /* \"#utility.yul\":2783:2813   */\n      calldatacopy\n        /* \"#utility.yul\":2847:2848   */\n      0x00\n        /* \"#utility.yul\":2838:2844   */\n      dup4\n        /* \"#utility.yul\":2833:2836   */\n      dup4\n        /* \"#utility.yul\":2829:2845   */\n      add\n        /* \"#utility.yul\":2822:2849   */\n      mstore\n        /* \"#utility.yul\":2709:2855   */\n      pop\n      pop\n      pop\n      jump\t// out\n        /* \"#utility.yul\":2861:3284   */\n    tag_190:\n        /* \"#utility.yul\":2938:2943   */\n      0x00\n        /* \"#utility.yul\":2963:3028   */\n      tag_282\n        /* \"#utility.yul\":2979:3027   */\n      tag_283\n        /* \"#utility.yul\":3020:3026   */\n      dup5\n        /* \"#utility.yul\":2979:3027   */\n      tag_188\n      jump\t// in\n    tag_283:\n        /* \"#utility.yul\":2963:3028   */\n      tag_187\n      jump\t// in\n    tag_282:\n        /* \"#utility.yul\":2954:3028   */\n      swap1\n      pop\n        /* \"#utility.yul\":3051:3057   */\n      dup3\n        /* \"#utility.yul\":3044:3049   */\n      dup2\n        /* \"#utility.yul\":3037:3058   */\n      mstore\n        /* \"#utility.yul\":3089:3093   */\n      0x20\n        /* \"#utility.yul\":3082:3087   */\n      dup2\n        /* \"#utility.yul\":3078:3094   */\n      add\n        /* \"#utility.yul\":3127:3130   */\n      dup5\n        /* \"#utility.yul\":3118:3124   */\n      dup5\n        /* \"#utility.yul\":3113:3116   */\n      dup5\n        /* \"#utility.yul\":3109:3125   */\n      add\n        /* \"#utility.yul\":3106:3131   */\n      gt\n        /* \"#utility.yul\":3103:3215   */\n      iszero\n      tag_284\n      jumpi\n        /* \"#utility.yul\":3134:3213   */\n      tag_285\n      tag_183\n      jump\t// in\n    tag_285:\n        /* \"#utility.yul\":3103:3215   */\n    tag_284:\n        /* \"#utility.yul\":3224:3278   */\n      tag_286\n        /* \"#utility.yul\":3271:3277   */\n      dup5\n        /* \"#utility.yul\":3266:3269   */\n      dup3\n        /* \"#utility.yul\":3261:3264   */\n      dup6\n        /* \"#utility.yul\":3224:3278   */\n      tag_189\n      jump\t// in\n    tag_286:\n        /* \"#utility.yul\":2944:3284   */\n      pop\n        /* \"#utility.yul\":2861:3284   */\n      swap4\n      swap3\n      pop\n      pop\n      pop\n      jump\t// out\n        /* \"#utility.yul\":3303:3641   */\n    tag_191:\n        /* \"#utility.yul\":3358:3363   */\n      0x00\n        /* \"#utility.yul\":3407:3410   */\n      dup3\n        /* \"#utility.yul\":3400:3404   */\n      0x1f\n        /* \"#utility.yul\":3392:3398   */\n      dup4\n        /* \"#utility.yul\":3388:3405   */\n      add\n        /* \"#utility.yul\":3384:3411   */\n      slt\n        /* \"#utility.yul\":3374:3496   */\n      tag_288\n      jumpi\n        /* \"#utility.yul\":3415:3494   */\n      tag_289\n      tag_182\n      jump\t// in\n    tag_289:\n        /* \"#utility.yul\":3374:3496   */\n    tag_288:\n        /* \"#utility.yul\":3532:3538   */\n      dup2\n        /* \"#utility.yul\":3519:3539   */\n      calldataload\n        /* \"#utility.yul\":3557:3635   */\n      tag_290\n        /* \"#utility.yul\":3631:3634   */\n      dup5\n        /* \"#utility.yul\":3623:3629   */\n      dup3\n        /* \"#utility.yul\":3616:3620   */\n      0x20\n        /* \"#utility.yul\":3608:3614   */\n      dup7\n        /* \"#utility.yul\":3604:3621   */\n      add\n        /* \"#utility.yul\":3557:3635   */\n      tag_190\n      jump\t// in\n    tag_290:\n        /* \"#utility.yul\":3548:3635   */\n      swap2\n      pop\n        /* \"#utility.yul\":3364:3641   */\n      pop\n        /* \"#utility.yul\":3303:3641   */\n      swap3\n      swap2\n      pop\n      pop\n      jump\t// out\n        /* \"#utility.yul\":3647:4154   */\n    tag_27:\n        /* \"#utility.yul\":3715:3721   */\n      0x00\n        /* \"#utility.yul\":3764:3766   */\n      0x20\n        /* \"#utility.yul\":3752:3761   */\n      dup3\n        /* \"#utility.yul\":3743:3750   */\n      dup5\n        /* \"#utility.yul\":3739:3762   */\n      sub\n        /* \"#utility.yul\":3735:3767   */\n      slt\n        /* \"#utility.yul\":3732:3851   */\n      iszero\n      tag_292\n      jumpi\n        /* \"#utility.yul\":3770:3849   */\n      tag_293\n      tag_180\n      jump\t// in\n    tag_293:\n        /* \"#utility.yul\":3732:3851   */\n    tag_292:\n        /* \"#utility.yul\":3918:3919   */\n      0x00\n        /* \"#utility.yul\":3907:3916   */\n      dup3\n        /* \"#utility.yul\":3903:3920   */\n      add\n        /* \"#utility.yul\":3890:3921   */\n      calldataload\n        /* \"#utility.yul\":3948:3966   */\n      0xffffffffffffffff\n        /* \"#utility.yul\":3940:3946   */\n      dup2\n        /* \"#utility.yul\":3937:3967   */\n      gt\n        /* \"#utility.yul\":3934:4051   */\n      iszero\n      tag_294\n      jumpi\n        /* \"#utility.yul\":3970:4049   */\n      tag_295\n      tag_181\n      jump\t// in\n    tag_295:\n        /* \"#utility.yul\":3934:4051   */\n    tag_294:\n        /* \"#utility.yul\":4075:4137   */\n      tag_296\n        /* \"#utility.yul\":4129:4136   */\n      dup5\n        /* \"#utility.yul\":4120:4126   */\n      dup3\n        /* \"#utility.yul\":4109:4118   */\n      dup6\n        /* \"#utility.yul\":4105:4127   */\n      add\n        /* \"#utility.yul\":4075:4137   */\n      tag_191\n      jump\t// in\n    tag_296:\n        /* \"#utility.yul\":4065:4137   */\n      swap2\n      pop\n        /* \"#utility.yul\":3861:4147   */\n      pop\n        /* \"#utility.yul\":3647:4154   */\n      swap3\n      swap2\n      pop\n      pop\n      jump\t// out\n        /* \"#utility.yul\":4160:4237   */\n    tag_192:\n        /* \"#utility.yul\":4197:4204   */\n      0x00\n        /* \"#utility.yul\":4226:4231   */\n      dup2\n        /* \"#utility.yul\":4215:4231   */\n      swap1\n      pop\n        /* \"#utility.yul\":4160:4237   */\n      swap2\n      swap1\n      pop\n      jump\t// out\n        /* \"#utility.yul\":4243:4361   */\n    tag_193:\n        /* \"#utility.yul\":4330:4354   */\n      tag_299\n        /* \"#utility.yul\":4348:4353   */\n      dup2\n        /* \"#utility.yul\":4330:4354   */\n      tag_192\n      jump\t// in\n    tag_299:\n        /* \"#utility.yul\":4325:4328   */\n      dup3\n        /* \"#utility.yul\":4318:4355   */\n      mstore\n        /* \"#utility.yul\":4243:4361   */\n      pop\n      pop\n      jump\t// out\n        /* \"#utility.yul\":4367:4589   */\n    tag_30:\n        /* \"#utility.yul\":4460:4464   */\n      0x00\n        /* \"#utility.yul\":4498:4500   */\n      0x20\n        /* \"#utility.yul\":4487:4496   */\n      dup3\n        /* \"#utility.yul\":4483:4501   */\n      add\n        /* \"#utility.yul\":4475:4501   */\n      swap1\n      pop\n        /* \"#utility.yul\":4511:4582   */\n      tag_301\n        /* \"#utility.yul\":4579:4580   */\n      0x00\n        /* \"#utility.yul\":4568:4577   */\n      dup4\n        /* \"#utility.yul\":4564:4581   */\n      add\n        /* \"#utility.yul\":4555:4561   */\n      dup5\n        /* \"#utility.yul\":4511:4582   */\n      tag_193\n      jump\t// in\n    tag_301:\n        /* \"#utility.yul\":4367:4589   */\n      swap3\n      swap2\n      pop\n      pop\n      jump\t// out\n        /* \"#utility.yul\":4595:4903   */\n    tag_194:\n        /* \"#utility.yul\":4657:4661   */\n      0x00\n        /* \"#utility.yul\":4747:4765   */\n      0xffffffffffffffff\n        /* \"#utility.yul\":4739:4745   */\n      dup3\n        /* \"#utility.yul\":4736:4766   */\n      gt\n        /* \"#utility.yul\":4733:4789   */\n      iszero\n      tag_303\n      jumpi\n        /* \"#utility.yul\":4769:4787   */\n      tag_304\n      tag_185\n      jump\t// in\n    tag_304:\n        /* \"#utility.yul\":4733:4789   */\n    tag_303:\n        /* \"#utility.yul\":4807:4836   */\n      tag_305\n        /* \"#utility.yul\":4829:4835   */\n      dup3\n        /* \"#utility.yul\":4807:4836   */\n      tag_184\n      jump\t// in\n    tag_305:\n        /* \"#utility.yul\":4799:4836   */\n      swap1\n      pop\n        /* \"#utility.yul\":4891:4895   */\n      0x20\n        /* \"#utility.yul\":4885:4889   */\n      dup2\n        /* \"#utility.yul\":4881:4896   */\n      add\n        /* \"#utility.yul\":4873:4896   */\n      swap1\n      pop\n        /* \"#utility.yul\":4595:4903   */\n      swap2\n      swap1\n      pop\n      jump\t// out\n        /* \"#utility.yul\":4909:5334   */\n    tag_195:\n        /* \"#utility.yul\":4987:4992   */\n      0x00\n        /* \"#utility.yul\":5012:5078   */\n      tag_307\n        /* \"#utility.yul\":5028:5077   */\n      tag_308\n        /* \"#utility.yul\":5070:5076   */\n      dup5\n        /* \"#utility.yul\":5028:5077   */\n      tag_194\n      jump\t// in\n    tag_308:\n        /* \"#utility.yul\":5012:5078   */\n      tag_187\n      jump\t// in\n    tag_307:\n        /* \"#utility.yul\":5003:5078   */\n      swap1\n      pop\n        /* \"#utility.yul\":5101:5107   */\n      dup3\n        /* \"#utility.yul\":5094:5099   */\n      dup2\n        /* \"#utility.yul\":5087:5108   */\n      mstore\n        /* \"#utility.yul\":5139:5143   */\n      0x20\n        /* \"#utility.yul\":5132:5137   */\n      dup2\n        /* \"#utility.yul\":5128:5144   */\n      add\n        /* \"#utility.yul\":5177:5180   */\n      dup5\n        /* \"#utility.yul\":5168:5174   */\n      dup5\n        /* \"#utility.yul\":5163:5166   */\n      dup5\n        /* \"#utility.yul\":5159:5175   */\n      add\n        /* \"#utility.yul\":5156:5181   */\n      gt\n        /* \"#utility.yul\":5153:5265   */\n      iszero\n      tag_309\n      jumpi\n        /* \"#utility.yul\":5184:5263   */\n      tag_310\n      tag_183\n      jump\t// in\n    tag_310:\n        /* \"#utility.yul\":5153:5265   */\n    tag_309:\n        /* \"#utility.yul\":5274:5328   */\n      tag_311\n        /* \"#utility.yul\":5321:5327   */\n      dup5\n        /* \"#utility.yul\":5316:5319   */\n      dup3\n        /* \"#utility.yul\":5311:5314   */\n      dup6\n        /* \"#utility.yul\":5274:5328   */\n      tag_189\n      jump\t// in\n    tag_311:\n        /* \"#utility.yul\":4993:5334   */\n      pop\n        /* \"#utility.yul\":4909:5334   */\n      swap4\n      swap3\n      pop\n      pop\n      pop\n      jump\t// out\n        /* \"#utility.yul\":5354:5694   */\n    tag_196:\n        /* \"#utility.yul\":5410:5415   */\n      0x00\n        /* \"#utility.yul\":5459:5462   */\n      dup3\n        /* \"#utility.yul\":5452:5456   */\n      0x1f\n        /* \"#utility.yul\":5444:5450   */\n      dup4\n        /* \"#utility.yul\":5440:5457   */\n      add\n        /* \"#utility.yul\":5436:5463   */\n      slt\n        /* \"#utility.yul\":5426:5548   */\n      tag_313\n      jumpi\n        /* \"#utility.yul\":5467:5546   */\n      tag_314\n      tag_182\n      jump\t// in\n    tag_314:\n        /* \"#utility.yul\":5426:5548   */\n    tag_313:\n        /* \"#utility.yul\":5584:5590   */\n      dup2\n        /* \"#utility.yul\":5571:5591   */\n      calldataload\n        /* \"#utility.yul\":5609:5688   */\n      tag_315\n        /* \"#utility.yul\":5684:5687   */\n      dup5\n        /* \"#utility.yul\":5676:5682   */\n      dup3\n        /* \"#utility.yul\":5669:5673   */\n      0x20\n        /* \"#utility.yul\":5661:5667   */\n      dup7\n        /* \"#utility.yul\":5657:5674   */\n      add\n        /* \"#utility.yul\":5609:5688   */\n      tag_195\n      jump\t// in\n    tag_315:\n        /* \"#utility.yul\":5600:5688   */\n      swap2\n      pop\n        /* \"#utility.yul\":5416:5694   */\n      pop\n        /* \"#utility.yul\":5354:5694   */\n      swap3\n      swap2\n      pop\n      pop\n      jump\t// out\n        /* \"#utility.yul\":5700:6209   */\n    tag_34:\n        /* \"#utility.yul\":5769:5775   */\n      0x00\n        /* \"#utility.yul\":5818:5820   */\n      0x20\n        /* \"#utility.yul\":5806:5815   */\n      dup3\n        /* \"#utility.yul\":5797:5804   */\n      dup5\n        /* \"#utility.yul\":5793:5816   */\n      sub\n        /* \"#utility.yul\":5789:5821   */\n      slt\n        /* \"#utility.yul\":5786:5905   */\n      iszero\n      tag_317\n      jumpi\n        /* \"#utility.yul\":5824:5903   */\n      tag_318\n      tag_180\n      jump\t// in\n    tag_318:\n        /* \"#utility.yul\":5786:5905   */\n    tag_317:\n        /* \"#utility.yul\":5972:5973   */\n      0x00\n        /* \"#utility.yul\":5961:5970   */\n      dup3\n        /* \"#utility.yul\":5957:5974   */\n      add\n        /* \"#utility.yul\":5944:5975   */\n      calldataload\n        /* \"#utility.yul\":6002:6020   */\n      0xffffffffffffffff\n        /* \"#utility.yul\":5994:6000   */\n      dup2\n        /* \"#utility.yul\":5991:6021   */\n      gt\n        /* \"#utility.yul\":5988:6105   */\n      iszero\n      tag_319\n      jumpi\n        /* \"#utility.yul\":6024:6103   */\n      tag_320\n      tag_181\n      jump\t// in\n    tag_320:\n        /* \"#utility.yul\":5988:6105   */\n    tag_319:\n        /* \"#utility.yul\":6129:6192   */\n      tag_321\n        /* \"#utility.yul\":6184:6191   */\n      dup5\n        /* \"#utility.yul\":6175:6181   */\n      dup3\n        /* \"#utility.yul\":6164:6173   */\n      dup6\n        /* \"#utility.yul\":6160:6182   */\n      add\n        /* \"#utility.yul\":6129:6192   */\n      tag_196\n      jump\t// in\n    tag_321:\n        /* \"#utility.yul\":6119:6192   */\n      swap2\n      pop\n        /* \"#utility.yul\":5915:6202   */\n      pop\n        /* \"#utility.yul\":5700:6209   */\n      swap3\n      swap2\n      pop\n      pop\n      jump\t// out\n        /* \"#utility.yul\":6215:6313   */\n    tag_197:\n        /* \"#utility.yul\":6266:6272   */\n      0x00\n        /* \"#utility.yul\":6300:6305   */\n      dup2\n        /* \"#utility.yul\":6294:6306   */\n      mload\n        /* \"#utility.yul\":6284:6306   */\n      swap1\n      pop\n        /* \"#utility.yul\":6215:6313   */\n      swap2\n      swap1\n      pop\n      jump\t// out\n        /* \"#utility.yul\":6319:6487   */\n    tag_198:\n        /* \"#utility.yul\":6402:6413   */\n      0x00\n        /* \"#utility.yul\":6436:6442   */\n      dup3\n        /* \"#utility.yul\":6431:6434   */\n      dup3\n        /* \"#utility.yul\":6424:6443   */\n      mstore\n        /* \"#utility.yul\":6476:6480   */\n      0x20\n        /* \"#utility.yul\":6471:6474   */\n      dup3\n        /* \"#utility.yul\":6467:6481   */\n      add\n        /* \"#utility.yul\":6452:6481   */\n      swap1\n      pop\n        /* \"#utility.yul\":6319:6487   */\n      swap3\n      swap2\n      pop\n      pop\n      jump\t// out\n        /* \"#utility.yul\":6493:6739   */\n    tag_199:\n        /* \"#utility.yul\":6574:6575   */\n      0x00\n        /* \"#utility.yul\":6584:6697   */\n    tag_325:\n        /* \"#utility.yul\":6598:6604   */\n      dup4\n        /* \"#utility.yul\":6595:6596   */\n      dup2\n        /* \"#utility.yul\":6592:6605   */\n      lt\n        /* \"#utility.yul\":6584:6697   */\n      iszero\n      tag_327\n      jumpi\n        /* \"#utility.yul\":6683:6684   */\n      dup1\n        /* \"#utility.yul\":6678:6681   */\n      dup3\n        /* \"#utility.yul\":6674:6685   */\n      add\n        /* \"#utility.yul\":6668:6686   */\n      mload\n        /* \"#utility.yul\":6664:6665   */\n      dup2\n        /* \"#utility.yul\":6659:6662   */\n      dup5\n        /* \"#utility.yul\":6655:6666   */\n      add\n        /* \"#utility.yul\":6648:6687   */\n      mstore\n        /* \"#utility.yul\":6620:6622   */\n      0x20\n        /* \"#utility.yul\":6617:6618   */\n      dup2\n        /* \"#utility.yul\":6613:6623   */\n      add\n        /* \"#utility.yul\":6608:6623   */\n      swap1\n      pop\n        /* \"#utility.yul\":6584:6697   */\n      jump(tag_325)\n    tag_327:\n        /* \"#utility.yul\":6731:6732   */\n      0x00\n        /* \"#utility.yul\":6722:6728   */\n      dup5\n        /* \"#utility.yul\":6717:6720   */\n      dup5\n        /* \"#utility.yul\":6713:6729   */\n      add\n        /* \"#utility.yul\":6706:6733   */\n      mstore\n        /* \"#utility.yul\":6555:6739   */\n      pop\n        /* \"#utility.yul\":6493:6739   */\n      pop\n      pop\n      pop\n      jump\t// out\n        /* \"#utility.yul\":6745:7118   */\n    tag_200:\n        /* \"#utility.yul\":6831:6834   */\n      0x00\n        /* \"#utility.yul\":6859:6897   */\n      tag_329\n        /* \"#utility.yul\":6891:6896   */\n      dup3\n        /* \"#utility.yul\":6859:6897   */\n      tag_197\n      jump\t// in\n    tag_329:\n        /* \"#utility.yul\":6913:6983   */\n      tag_330\n        /* \"#utility.yul\":6976:6982   */\n      dup2\n        /* \"#utility.yul\":6971:6974   */\n      dup6\n        /* \"#utility.yul\":6913:6983   */\n      tag_198\n      jump\t// in\n    tag_330:\n        /* \"#utility.yul\":6906:6983   */\n      swap4\n      pop\n        /* \"#utility.yul\":6992:7057   */\n      tag_331\n        /* \"#utility.yul\":7050:7056   */\n      dup2\n        /* \"#utility.yul\":7045:7048   */\n      dup6\n        /* \"#utility.yul\":7038:7042   */\n      0x20\n        /* \"#utility.yul\":7031:7036   */\n      dup7\n        /* \"#utility.yul\":7027:7043   */\n      add\n        /* \"#utility.yul\":6992:7057   */\n      tag_199\n      jump\t// in\n    tag_331:\n        /* \"#utility.yul\":7082:7111   */\n      tag_332\n        /* \"#utility.yul\":7104:7110   */\n      dup2\n        /* \"#utility.yul\":7082:7111   */\n      tag_184\n      jump\t// in\n    tag_332:\n        /* \"#utility.yul\":7077:7080   */\n      dup5\n        /* \"#utility.yul\":7073:7112   */\n      add\n        /* \"#utility.yul\":7066:7112   */\n      swap2\n      pop\n        /* \"#utility.yul\":6835:7118   */\n      pop\n        /* \"#utility.yul\":6745:7118   */\n      swap3\n      swap2\n      pop\n      pop\n      jump\t// out\n        /* \"#utility.yul\":7124:7433   */\n    tag_46:\n        /* \"#utility.yul\":7235:7239   */\n      0x00\n        /* \"#utility.yul\":7273:7275   */\n      0x20\n        /* \"#utility.yul\":7262:7271   */\n      dup3\n        /* \"#utility.yul\":7258:7276   */\n      add\n        /* \"#utility.yul\":7250:7276   */\n      swap1\n      pop\n        /* \"#utility.yul\":7322:7331   */\n      dup2\n        /* \"#utility.yul\":7316:7320   */\n      dup2\n        /* \"#utility.yul\":7312:7332   */\n      sub\n        /* \"#utility.yul\":7308:7309   */\n      0x00\n        /* \"#utility.yul\":7297:7306   */\n      dup4\n        /* \"#utility.yul\":7293:7310   */\n      add\n        /* \"#utility.yul\":7286:7333   */\n      mstore\n        /* \"#utility.yul\":7350:7426   */\n      tag_334\n        /* \"#utility.yul\":7421:7425   */\n      dup2\n        /* \"#utility.yul\":7412:7418   */\n      dup5\n        /* \"#utility.yul\":7350:7426   */\n      tag_200\n      jump\t// in\n    tag_334:\n        /* \"#utility.yul\":7342:7426   */\n      swap1\n      pop\n        /* \"#utility.yul\":7124:7433   */\n      swap3\n      swap2\n      pop\n      pop\n      jump\t// out\n        /* \"#utility.yul\":7439:7535   */\n    tag_201:\n        /* \"#utility.yul\":7476:7483   */\n      0x00\n        /* \"#utility.yul\":7505:7529   */\n      tag_336\n        /* \"#utility.yul\":7523:7528   */\n      dup3\n        /* \"#utility.yul\":7505:7529   */\n      tag_173\n      jump\t// in\n    tag_336:\n        /* \"#utility.yul\":7494:7529   */\n      swap1\n      pop\n        /* \"#utility.yul\":7439:7535   */\n      swap2\n      swap1\n      pop\n      jump\t// out\n        /* \"#utility.yul\":7541:7659   */\n    tag_202:\n        /* \"#utility.yul\":7628:7652   */\n      tag_338\n        /* \"#utility.yul\":7646:7651   */\n      dup2\n        /* \"#utility.yul\":7628:7652   */\n      tag_201\n      jump\t// in\n    tag_338:\n        /* \"#utility.yul\":7623:7626   */\n      dup3\n        /* \"#utility.yul\":7616:7653   */\n      mstore\n        /* \"#utility.yul\":7541:7659   */\n      pop\n      pop\n      jump\t// out\n        /* \"#utility.yul\":7665:7887   */\n    tag_54:\n        /* \"#utility.yul\":7758:7762   */\n      0x00\n        /* \"#utility.yul\":7796:7798   */\n      0x20\n        /* \"#utility.yul\":7785:7794   */\n      dup3\n        /* \"#utility.yul\":7781:7799   */\n      add\n        /* \"#utility.yul\":7773:7799   */\n      swap1\n      pop\n        /* \"#utility.yul\":7809:7880   */\n      tag_340\n        /* \"#utility.yul\":7877:7878   */\n      0x00\n        /* \"#utility.yul\":7866:7875   */\n      dup4\n        /* \"#utility.yul\":7862:7879   */\n      add\n        /* \"#utility.yul\":7853:7859   */\n      dup5\n        /* \"#utility.yul\":7809:7880   */\n      tag_202\n      jump\t// in\n    tag_340:\n        /* \"#utility.yul\":7665:7887   */\n      swap3\n      swap2\n      pop\n      pop\n      jump\t// out\n        /* \"#utility.yul\":7893:8015   */\n    tag_203:\n        /* \"#utility.yul\":7966:7990   */\n      tag_342\n        /* \"#utility.yul\":7984:7989   */\n      dup2\n        /* \"#utility.yul\":7966:7990   */\n      tag_201\n      jump\t// in\n    tag_342:\n        /* \"#utility.yul\":7959:7964   */\n      dup2\n        /* \"#utility.yul\":7956:7991   */\n      eq\n        /* \"#utility.yul\":7946:8009   */\n      tag_343\n      jumpi\n        /* \"#utility.yul\":8005:8006   */\n      0x00\n        /* \"#utility.yul\":8002:8003   */\n      dup1\n        /* \"#utility.yul\":7995:8007   */\n      revert\n        /* \"#utility.yul\":7946:8009   */\n    tag_343:\n        /* \"#utility.yul\":7893:8015   */\n      pop\n      jump\t// out\n        /* \"#utility.yul\":8021:8160   */\n    tag_204:\n        /* \"#utility.yul\":8067:8072   */\n      0x00\n        /* \"#utility.yul\":8105:8111   */\n      dup2\n        /* \"#utility.yul\":8092:8112   */\n      calldataload\n        /* \"#utility.yul\":8083:8112   */\n      swap1\n      pop\n        /* \"#utility.yul\":8121:8154   */\n      tag_345\n        /* \"#utility.yul\":8148:8153   */\n      dup2\n        /* \"#utility.yul\":8121:8154   */\n      tag_203\n      jump\t// in\n    tag_345:\n        /* \"#utility.yul\":8021:8160   */\n      swap3\n      swap2\n      pop\n      pop\n      jump\t// out\n        /* \"#utility.yul\":8166:8495   */\n    tag_61:\n        /* \"#utility.yul\":8225:8231   */\n      0x00\n        /* \"#utility.yul\":8274:8276   */\n      0x20\n        /* \"#utility.yul\":8262:8271   */\n      dup3\n        /* \"#utility.yul\":8253:8260   */\n      dup5\n        /* \"#utility.yul\":8249:8272   */\n      sub\n        /* \"#utility.yul\":8245:8277   */\n      slt\n        /* \"#utility.yul\":8242:8361   */\n      iszero\n      tag_347\n      jumpi\n        /* \"#utility.yul\":8280:8359   */\n      tag_348\n      tag_180\n      jump\t// in\n    tag_348:\n        /* \"#utility.yul\":8242:8361   */\n    tag_347:\n        /* \"#utility.yul\":8400:8401   */\n      0x00\n        /* \"#utility.yul\":8425:8478   */\n      tag_349\n        /* \"#utility.yul\":8470:8477   */\n      dup5\n        /* \"#utility.yul\":8461:8467   */\n      dup3\n        /* \"#utility.yul\":8450:8459   */\n      dup6\n        /* \"#utility.yul\":8446:8468   */\n      add\n        /* \"#utility.yul\":8425:8478   */\n      tag_204\n      jump\t// in\n    tag_349:\n        /* \"#utility.yul\":8415:8478   */\n      swap2\n      pop\n        /* \"#utility.yul\":8371:8488   */\n      pop\n        /* \"#utility.yul\":8166:8495   */\n      swap3\n      swap2\n      pop\n      pop\n      jump\t// out\n        /* \"#utility.yul\":8501:8623   */\n    tag_205:\n        /* \"#utility.yul\":8574:8598   */\n      tag_351\n        /* \"#utility.yul\":8592:8597   */\n      dup2\n        /* \"#utility.yul\":8574:8598   */\n      tag_192\n      jump\t// in\n    tag_351:\n        /* \"#utility.yul\":8567:8572   */\n      dup2\n        /* \"#utility.yul\":8564:8599   */\n      eq\n        /* \"#utility.yul\":8554:8617   */\n      tag_352\n      jumpi\n        /* \"#utility.yul\":8613:8614   */\n      0x00\n        /* \"#utility.yul\":8610:8611   */\n      dup1\n        /* \"#utility.yul\":8603:8615   */\n      revert\n        /* \"#utility.yul\":8554:8617   */\n    tag_352:\n        /* \"#utility.yul\":8501:8623   */\n      pop\n      jump\t// out\n        /* \"#utility.yul\":8629:8768   */\n    tag_206:\n        /* \"#utility.yul\":8675:8680   */\n      0x00\n        /* \"#utility.yul\":8713:8719   */\n      dup2\n        /* \"#utility.yul\":8700:8720   */\n      calldataload\n        /* \"#utility.yul\":8691:8720   */\n      swap1\n      pop\n        /* \"#utility.yul\":8729:8762   */\n      tag_354\n        /* \"#utility.yul\":8756:8761   */\n      dup2\n        /* \"#utility.yul\":8729:8762   */\n      tag_205\n      jump\t// in\n    tag_354:\n        /* \"#utility.yul\":8629:8768   */\n      swap3\n      swap2\n      pop\n      pop\n      jump\t// out\n        /* \"#utility.yul\":8774:9103   */\n    tag_67:\n        /* \"#utility.yul\":8833:8839   */\n      0x00\n        /* \"#utility.yul\":8882:8884   */\n      0x20\n        /* \"#utility.yul\":8870:8879   */\n      dup3\n        /* \"#utility.yul\":8861:8868   */\n      dup5\n        /* \"#utility.yul\":8857:8880   */\n      sub\n        /* \"#utility.yul\":8853:8885   */\n      slt\n        /* \"#utility.yul\":8850:8969   */\n      iszero\n      tag_356\n      jumpi\n        /* \"#utility.yul\":8888:8967   */\n      tag_357\n      tag_180\n      jump\t// in\n    tag_357:\n        /* \"#utility.yul\":8850:8969   */\n    tag_356:\n        /* \"#utility.yul\":9008:9009   */\n      0x00\n        /* \"#utility.yul\":9033:9086   */\n      tag_358\n        /* \"#utility.yul\":9078:9085   */\n      dup5\n        /* \"#utility.yul\":9069:9075   */\n      dup3\n        /* \"#utility.yul\":9058:9067   */\n      dup6\n        /* \"#utility.yul\":9054:9076   */\n      add\n        /* \"#utility.yul\":9033:9086   */\n      tag_206\n      jump\t// in\n    tag_358:\n        /* \"#utility.yul\":9023:9086   */\n      swap2\n      pop\n        /* \"#utility.yul\":8979:9096   */\n      pop\n        /* \"#utility.yul\":8774:9103   */\n      swap3\n      swap2\n      pop\n      pop\n      jump\t// out\n        /* \"#utility.yul\":9109:9583   */\n    tag_77:\n        /* \"#utility.yul\":9177:9183   */\n      0x00\n        /* \"#utility.yul\":9185:9191   */\n      dup1\n        /* \"#utility.yul\":9234:9236   */\n      0x40\n        /* \"#utility.yul\":9222:9231   */\n      dup4\n        /* \"#utility.yul\":9213:9220   */\n      dup6\n        /* \"#utility.yul\":9209:9232   */\n      sub\n        /* \"#utility.yul\":9205:9237   */\n      slt\n        /* \"#utility.yul\":9202:9321   */\n      iszero\n      tag_360\n      jumpi\n        /* \"#utility.yul\":9240:9319   */\n      tag_361\n      tag_180\n      jump\t// in\n    tag_361:\n        /* \"#utility.yul\":9202:9321   */\n    tag_360:\n        /* \"#utility.yul\":9360:9361   */\n      0x00\n        /* \"#utility.yul\":9385:9438   */\n      tag_362\n        /* \"#utility.yul\":9430:9437   */\n      dup6\n        /* \"#utility.yul\":9421:9427   */\n      dup3\n        /* \"#utility.yul\":9410:9419   */\n      dup7\n        /* \"#utility.yul\":9406:9428   */\n      add\n        /* \"#utility.yul\":9385:9438   */\n      tag_204\n      jump\t// in\n    tag_362:\n        /* \"#utility.yul\":9375:9438   */\n      swap3\n      pop\n        /* \"#utility.yul\":9331:9448   */\n      pop\n        /* \"#utility.yul\":9487:9489   */\n      0x20\n        /* \"#utility.yul\":9513:9566   */\n      tag_363\n        /* \"#utility.yul\":9558:9565   */\n      dup6\n        /* \"#utility.yul\":9549:9555   */\n      dup3\n        /* \"#utility.yul\":9538:9547   */\n      dup7\n        /* \"#utility.yul\":9534:9556   */\n      add\n        /* \"#utility.yul\":9513:9566   */\n      tag_206\n      jump\t// in\n    tag_363:\n        /* \"#utility.yul\":9503:9566   */\n      swap2\n      pop\n        /* \"#utility.yul\":9458:9576   */\n      pop\n        /* \"#utility.yul\":9109:9583   */\n      swap3\n      pop\n      swap3\n      swap1\n      pop\n      jump\t// out\n        /* \"#utility.yul\":9589:9679   */\n    tag_207:\n        /* \"#utility.yul\":9623:9630   */\n      0x00\n        /* \"#utility.yul\":9666:9671   */\n      dup2\n        /* \"#utility.yul\":9659:9672   */\n      iszero\n        /* \"#utility.yul\":9652:9673   */\n      iszero\n        /* \"#utility.yul\":9641:9673   */\n      swap1\n      pop\n        /* \"#utility.yul\":9589:9679   */\n      swap2\n      swap1\n      pop\n      jump\t// out\n        /* \"#utility.yul\":9685:9794   */\n    tag_208:\n        /* \"#utility.yul\":9766:9787   */\n      tag_366\n        /* \"#utility.yul\":9781:9786   */\n      dup2\n        /* \"#utility.yul\":9766:9787   */\n      tag_207\n      jump\t// in\n    tag_366:\n        /* \"#utility.yul\":9761:9764   */\n      dup3\n        /* \"#utility.yul\":9754:9788   */\n      mstore\n        /* \"#utility.yul\":9685:9794   */\n      pop\n      pop\n      jump\t// out\n        /* \"#utility.yul\":9800:9899   */\n    tag_209:\n        /* \"#utility.yul\":9852:9858   */\n      0x00\n        /* \"#utility.yul\":9886:9891   */\n      dup2\n        /* \"#utility.yul\":9880:9892   */\n      mload\n        /* \"#utility.yul\":9870:9892   */\n      swap1\n      pop\n        /* \"#utility.yul\":9800:9899   */\n      swap2\n      swap1\n      pop\n      jump\t// out\n        /* \"#utility.yul\":9905:10074   */\n    tag_210:\n        /* \"#utility.yul\":9989:10000   */\n      0x00\n        /* \"#utility.yul\":10023:10029   */\n      dup3\n        /* \"#utility.yul\":10018:10021   */\n      dup3\n        /* \"#utility.yul\":10011:10030   */\n      mstore\n        /* \"#utility.yul\":10063:10067   */\n      0x20\n        /* \"#utility.yul\":10058:10061   */\n      dup3\n        /* \"#utility.yul\":10054:10068   */\n      add\n        /* \"#utility.yul\":10039:10068   */\n      swap1\n      pop\n        /* \"#utility.yul\":9905:10074   */\n      swap3\n      swap2\n      pop\n      pop\n      jump\t// out\n        /* \"#utility.yul\":10080:10457   */\n    tag_211:\n        /* \"#utility.yul\":10168:10171   */\n      0x00\n        /* \"#utility.yul\":10196:10235   */\n      tag_370\n        /* \"#utility.yul\":10229:10234   */\n      dup3\n        /* \"#utility.yul\":10196:10235   */\n      tag_209\n      jump\t// in\n    tag_370:\n        /* \"#utility.yul\":10251:10322   */\n      tag_371\n        /* \"#utility.yul\":10315:10321   */\n      dup2\n        /* \"#utility.yul\":10310:10313   */\n      dup6\n        /* \"#utility.yul\":10251:10322   */\n      tag_210\n      jump\t// in\n    tag_371:\n        /* \"#utility.yul\":10244:10322   */\n      swap4\n      pop\n        /* \"#utility.yul\":10331:10396   */\n      tag_372\n        /* \"#utility.yul\":10389:10395   */\n      dup2\n        /* \"#utility.yul\":10384:10387   */\n      dup6\n        /* \"#utility.yul\":10377:10381   */\n      0x20\n        /* \"#utility.yul\":10370:10375   */\n      dup7\n        /* \"#utility.yul\":10366:10382   */\n      add\n        /* \"#utility.yul\":10331:10396   */\n      tag_199\n      jump\t// in\n    tag_372:\n        /* \"#utility.yul\":10421:10450   */\n      tag_373\n        /* \"#utility.yul\":10443:10449   */\n      dup2\n        /* \"#utility.yul\":10421:10450   */\n      tag_184\n      jump\t// in\n    tag_373:\n        /* \"#utility.yul\":10416:10419   */\n      dup5\n        /* \"#utility.yul\":10412:10451   */\n      add\n        /* \"#utility.yul\":10405:10451   */\n      swap2\n      pop\n        /* \"#utility.yul\":10172:10457   */\n      pop\n        /* \"#utility.yul\":10080:10457   */\n      swap3\n      swap2\n      pop\n      pop\n      jump\t// out\n        /* \"#utility.yul\":10463:11416   */\n    tag_80:\n        /* \"#utility.yul\":10732:10736   */\n      0x00\n        /* \"#utility.yul\":10770:10773   */\n      0xe0\n        /* \"#utility.yul\":10759:10768   */\n      dup3\n        /* \"#utility.yul\":10755:10774   */\n      add\n        /* \"#utility.yul\":10747:10774   */\n      swap1\n      pop\n        /* \"#utility.yul\":10784:10855   */\n      tag_375\n        /* \"#utility.yul\":10852:10853   */\n      0x00\n        /* \"#utility.yul\":10841:10850   */\n      dup4\n        /* \"#utility.yul\":10837:10854   */\n      add\n        /* \"#utility.yul\":10828:10834   */\n      dup11\n        /* \"#utility.yul\":10784:10855   */\n      tag_202\n      jump\t// in\n    tag_375:\n        /* \"#utility.yul\":10865:10931   */\n      tag_376\n        /* \"#utility.yul\":10927:10929   */\n      0x20\n        /* \"#utility.yul\":10916:10925   */\n      dup4\n        /* \"#utility.yul\":10912:10930   */\n      add\n        /* \"#utility.yul\":10903:10909   */\n      dup10\n        /* \"#utility.yul\":10865:10931   */\n      tag_208\n      jump\t// in\n    tag_376:\n        /* \"#utility.yul\":10941:11013   */\n      tag_377\n        /* \"#utility.yul\":11009:11011   */\n      0x40\n        /* \"#utility.yul\":10998:11007   */\n      dup4\n        /* \"#utility.yul\":10994:11012   */\n      add\n        /* \"#utility.yul\":10985:10991   */\n      dup9\n        /* \"#utility.yul\":10941:11013   */\n      tag_193\n      jump\t// in\n    tag_377:\n        /* \"#utility.yul\":11023:11095   */\n      tag_378\n        /* \"#utility.yul\":11091:11093   */\n      0x60\n        /* \"#utility.yul\":11080:11089   */\n      dup4\n        /* \"#utility.yul\":11076:11094   */\n      add\n        /* \"#utility.yul\":11067:11073   */\n      dup8\n        /* \"#utility.yul\":11023:11095   */\n      tag_193\n      jump\t// in\n    tag_378:\n        /* \"#utility.yul\":11105:11172   */\n      tag_379\n        /* \"#utility.yul\":11167:11170   */\n      0x80\n        /* \"#utility.yul\":11156:11165   */\n      dup4\n        /* \"#utility.yul\":11152:11171   */\n      add\n        /* \"#utility.yul\":11143:11149   */\n      dup7\n        /* \"#utility.yul\":11105:11172   */\n      tag_208\n      jump\t// in\n    tag_379:\n        /* \"#utility.yul\":11220:11229   */\n      dup2\n        /* \"#utility.yul\":11214:11218   */\n      dup2\n        /* \"#utility.yul\":11210:11230   */\n      sub\n        /* \"#utility.yul\":11204:11207   */\n      0xa0\n        /* \"#utility.yul\":11193:11202   */\n      dup4\n        /* \"#utility.yul\":11189:11208   */\n      add\n        /* \"#utility.yul\":11182:11231   */\n      mstore\n        /* \"#utility.yul\":11248:11326   */\n      tag_380\n        /* \"#utility.yul\":11321:11325   */\n      dup2\n        /* \"#utility.yul\":11312:11318   */\n      dup6\n        /* \"#utility.yul\":11248:11326   */\n      tag_211\n      jump\t// in\n    tag_380:\n        /* \"#utility.yul\":11240:11326   */\n      swap1\n      pop\n        /* \"#utility.yul\":11336:11409   */\n      tag_381\n        /* \"#utility.yul\":11404:11407   */\n      0xc0\n        /* \"#utility.yul\":11393:11402   */\n      dup4\n        /* \"#utility.yul\":11389:11408   */\n      add\n        /* \"#utility.yul\":11380:11386   */\n      dup5\n        /* \"#utility.yul\":11336:11409   */\n      tag_193\n      jump\t// in\n    tag_381:\n        /* \"#utility.yul\":10463:11416   */\n      swap9\n      swap8\n      pop\n      pop\n      pop\n      pop\n      pop\n      pop\n      pop\n      pop\n      jump\t// out\n        /* \"#utility.yul\":11422:11595   */\n    tag_212:\n        /* \"#utility.yul\":11562:11587   */\n      0x4279746573206c656e677468206d757374206265203332000000000000000000\n        /* \"#utility.yul\":11558:11559   */\n      0x00\n        /* \"#utility.yul\":11550:11556   */\n      dup3\n        /* \"#utility.yul\":11546:11560   */\n      add\n        /* \"#utility.yul\":11539:11588   */\n      mstore\n        /* \"#utility.yul\":11422:11595   */\n      pop\n      jump\t// out\n        /* \"#utility.yul\":11601:11967   */\n    tag_213:\n        /* \"#utility.yul\":11743:11746   */\n      0x00\n        /* \"#utility.yul\":11764:11831   */\n      tag_384\n        /* \"#utility.yul\":11828:11830   */\n      0x17\n        /* \"#utility.yul\":11823:11826   */\n      dup4\n        /* \"#utility.yul\":11764:11831   */\n      tag_210\n      jump\t// in\n    tag_384:\n        /* \"#utility.yul\":11757:11831   */\n      swap2\n      pop\n        /* \"#utility.yul\":11840:11933   */\n      tag_385\n        /* \"#utility.yul\":11929:11932   */\n      dup3\n        /* \"#utility.yul\":11840:11933   */\n      tag_212\n      jump\t// in\n    tag_385:\n        /* \"#utility.yul\":11958:11960   */\n      0x20\n        /* \"#utility.yul\":11953:11956   */\n      dup3\n        /* \"#utility.yul\":11949:11961   */\n      add\n        /* \"#utility.yul\":11942:11961   */\n      swap1\n      pop\n        /* \"#utility.yul\":11601:11967   */\n      swap2\n      swap1\n      pop\n      jump\t// out\n        /* \"#utility.yul\":11973:12392   */\n    tag_93:\n        /* \"#utility.yul\":12139:12143   */\n      0x00\n        /* \"#utility.yul\":12177:12179   */\n      0x20\n        /* \"#utility.yul\":12166:12175   */\n      dup3\n        /* \"#utility.yul\":12162:12180   */\n      add\n        /* \"#utility.yul\":12154:12180   */\n      swap1\n      pop\n        /* \"#utility.yul\":12226:12235   */\n      dup2\n        /* \"#utility.yul\":12220:12224   */\n      dup2\n        /* \"#utility.yul\":12216:12236   */\n      sub\n        /* \"#utility.yul\":12212:12213   */\n      0x00\n        /* \"#utility.yul\":12201:12210   */\n      dup4\n        /* \"#utility.yul\":12197:12214   */\n      add\n        /* \"#utility.yul\":12190:12237   */\n      mstore\n        /* \"#utility.yul\":12254:12385   */\n      tag_387\n        /* \"#utility.yul\":12380:12384   */\n      dup2\n        /* \"#utility.yul\":12254:12385   */\n      tag_213\n      jump\t// in\n    tag_387:\n        /* \"#utility.yul\":12246:12385   */\n      swap1\n      pop\n        /* \"#utility.yul\":11973:12392   */\n      swap2\n      swap1\n      pop\n      jump\t// out\n        /* \"#utility.yul\":12398:12711   */\n    tag_97:\n        /* \"#utility.yul\":12511:12515   */\n      0x00\n        /* \"#utility.yul\":12549:12551   */\n      0x20\n        /* \"#utility.yul\":12538:12547   */\n      dup3\n        /* \"#utility.yul\":12534:12552   */\n      add\n        /* \"#utility.yul\":12526:12552   */\n      swap1\n      pop\n        /* \"#utility.yul\":12598:12607   */\n      dup2\n        /* \"#utility.yul\":12592:12596   */\n      dup2\n        /* \"#utility.yul\":12588:12608   */\n      sub\n        /* \"#utility.yul\":12584:12585   */\n      0x00\n        /* \"#utility.yul\":12573:12582   */\n      dup4\n        /* \"#utility.yul\":12569:12586   */\n      add\n        /* \"#utility.yul\":12562:12609   */\n      mstore\n        /* \"#utility.yul\":12626:12704   */\n      tag_389\n        /* \"#utility.yul\":12699:12703   */\n      dup2\n        /* \"#utility.yul\":12690:12696   */\n      dup5\n        /* \"#utility.yul\":12626:12704   */\n      tag_211\n      jump\t// in\n    tag_389:\n        /* \"#utility.yul\":12618:12704   */\n      swap1\n      pop\n        /* \"#utility.yul\":12398:12711   */\n      swap3\n      swap2\n      pop\n      pop\n      jump\t// out\n        /* \"#utility.yul\":12717:12834   */\n    tag_214:\n        /* \"#utility.yul\":12826:12827   */\n      0x00\n        /* \"#utility.yul\":12823:12824   */\n      dup1\n        /* \"#utility.yul\":12816:12828   */\n      revert\n        /* \"#utility.yul\":12840:12957   */\n    tag_215:\n        /* \"#utility.yul\":12949:12950   */\n      0x00\n        /* \"#utility.yul\":12946:12947   */\n      dup1\n        /* \"#utility.yul\":12939:12951   */\n      revert\n        /* \"#utility.yul\":12963:13395   */\n    tag_216:\n        /* \"#utility.yul\":13051:13056   */\n      0x00\n        /* \"#utility.yul\":13076:13141   */\n      tag_393\n        /* \"#utility.yul\":13092:13140   */\n      tag_394\n        /* \"#utility.yul\":13133:13139   */\n      dup5\n        /* \"#utility.yul\":13092:13140   */\n      tag_188\n      jump\t// in\n    tag_394:\n        /* \"#utility.yul\":13076:13141   */\n      tag_187\n      jump\t// in\n    tag_393:\n        /* \"#utility.yul\":13067:13141   */\n      swap1\n      pop\n        /* \"#utility.yul\":13164:13170   */\n      dup3\n        /* \"#utility.yul\":13157:13162   */\n      dup2\n        /* \"#utility.yul\":13150:13171   */\n      mstore\n        /* \"#utility.yul\":13202:13206   */\n      0x20\n        /* \"#utility.yul\":13195:13200   */\n      dup2\n        /* \"#utility.yul\":13191:13207   */\n      add\n        /* \"#utility.yul\":13240:13243   */\n      dup5\n        /* \"#utility.yul\":13231:13237   */\n      dup5\n        /* \"#utility.yul\":13226:13229   */\n      dup5\n        /* \"#utility.yul\":13222:13238   */\n      add\n        /* \"#utility.yul\":13219:13244   */\n      gt\n        /* \"#utility.yul\":13216:13328   */\n      iszero\n      tag_395\n      jumpi\n        /* \"#utility.yul\":13247:13326   */\n      tag_396\n      tag_183\n      jump\t// in\n    tag_396:\n        /* \"#utility.yul\":13216:13328   */\n    tag_395:\n        /* \"#utility.yul\":13337:13389   */\n      tag_397\n        /* \"#utility.yul\":13382:13388   */\n      dup5\n        /* \"#utility.yul\":13377:13380   */\n      dup3\n        /* \"#utility.yul\":13372:13375   */\n      dup6\n        /* \"#utility.yul\":13337:13389   */\n      tag_199\n      jump\t// in\n    tag_397:\n        /* \"#utility.yul\":13057:13395   */\n      pop\n        /* \"#utility.yul\":12963:13395   */\n      swap4\n      swap3\n      pop\n      pop\n      pop\n      jump\t// out\n        /* \"#utility.yul\":13414:13767   */\n    tag_217:\n        /* \"#utility.yul\":13480:13485   */\n      0x00\n        /* \"#utility.yul\":13529:13532   */\n      dup3\n        /* \"#utility.yul\":13522:13526   */\n      0x1f\n        /* \"#utility.yul\":13514:13520   */\n      dup4\n        /* \"#utility.yul\":13510:13527   */\n      add\n        /* \"#utility.yul\":13506:13533   */\n      slt\n        /* \"#utility.yul\":13496:13618   */\n      tag_399\n      jumpi\n        /* \"#utility.yul\":13537:13616   */\n      tag_400\n      tag_182\n      jump\t// in\n    tag_400:\n        /* \"#utility.yul\":13496:13618   */\n    tag_399:\n        /* \"#utility.yul\":13647:13653   */\n      dup2\n        /* \"#utility.yul\":13641:13654   */\n      mload\n        /* \"#utility.yul\":13672:13761   */\n      tag_401\n        /* \"#utility.yul\":13757:13760   */\n      dup5\n        /* \"#utility.yul\":13749:13755   */\n      dup3\n        /* \"#utility.yul\":13742:13746   */\n      0x20\n        /* \"#utility.yul\":13734:13740   */\n      dup7\n        /* \"#utility.yul\":13730:13747   */\n      add\n        /* \"#utility.yul\":13672:13761   */\n      tag_216\n      jump\t// in\n    tag_401:\n        /* \"#utility.yul\":13663:13761   */\n      swap2\n      pop\n        /* \"#utility.yul\":13486:13767   */\n      pop\n        /* \"#utility.yul\":13414:13767   */\n      swap3\n      swap2\n      pop\n      pop\n      jump\t// out\n        /* \"#utility.yul\":13773:13916   */\n    tag_218:\n        /* \"#utility.yul\":13830:13835   */\n      0x00\n        /* \"#utility.yul\":13861:13867   */\n      dup2\n        /* \"#utility.yul\":13855:13868   */\n      mload\n        /* \"#utility.yul\":13846:13868   */\n      swap1\n      pop\n        /* \"#utility.yul\":13877:13910   */\n      tag_403\n        /* \"#utility.yul\":13904:13909   */\n      dup2\n        /* \"#utility.yul\":13877:13910   */\n      tag_205\n      jump\t// in\n    tag_403:\n        /* \"#utility.yul\":13773:13916   */\n      swap3\n      swap2\n      pop\n      pop\n      jump\t// out\n        /* \"#utility.yul\":13962:14734   */\n    tag_219:\n        /* \"#utility.yul\":14046:14051   */\n      0x00\n        /* \"#utility.yul\":14090:14094   */\n      0x40\n        /* \"#utility.yul\":14078:14087   */\n      dup3\n        /* \"#utility.yul\":14073:14076   */\n      dup5\n        /* \"#utility.yul\":14069:14088   */\n      sub\n        /* \"#utility.yul\":14065:14095   */\n      slt\n        /* \"#utility.yul\":14062:14179   */\n      iszero\n      tag_405\n      jumpi\n        /* \"#utility.yul\":14098:14177   */\n      tag_406\n      tag_214\n      jump\t// in\n    tag_406:\n        /* \"#utility.yul\":14062:14179   */\n    tag_405:\n        /* \"#utility.yul\":14197:14218   */\n      tag_407\n        /* \"#utility.yul\":14213:14217   */\n      0x40\n        /* \"#utility.yul\":14197:14218   */\n      tag_187\n      jump\t// in\n    tag_407:\n        /* \"#utility.yul\":14188:14218   */\n      swap1\n      pop\n        /* \"#utility.yul\":14297:14298   */\n      0x00\n        /* \"#utility.yul\":14286:14295   */\n      dup3\n        /* \"#utility.yul\":14282:14299   */\n      add\n        /* \"#utility.yul\":14276:14300   */\n      mload\n        /* \"#utility.yul\":14327:14345   */\n      0xffffffffffffffff\n        /* \"#utility.yul\":14319:14325   */\n      dup2\n        /* \"#utility.yul\":14316:14346   */\n      gt\n        /* \"#utility.yul\":14313:14430   */\n      iszero\n      tag_408\n      jumpi\n        /* \"#utility.yul\":14349:14428   */\n      tag_409\n      tag_215\n      jump\t// in\n    tag_409:\n        /* \"#utility.yul\":14313:14430   */\n    tag_408:\n        /* \"#utility.yul\":14469:14538   */\n      tag_410\n        /* \"#utility.yul\":14534:14537   */\n      dup5\n        /* \"#utility.yul\":14525:14531   */\n      dup3\n        /* \"#utility.yul\":14514:14523   */\n      dup6\n        /* \"#utility.yul\":14510:14532   */\n      add\n        /* \"#utility.yul\":14469:14538   */\n      tag_217\n      jump\t// in\n    tag_410:\n        /* \"#utility.yul\":14462:14466   */\n      0x00\n        /* \"#utility.yul\":14455:14460   */\n      dup4\n        /* \"#utility.yul\":14451:14467   */\n      add\n        /* \"#utility.yul\":14444:14539   */\n      mstore\n        /* \"#utility.yul\":14228:14550   */\n      pop\n        /* \"#utility.yul\":14614:14616   */\n      0x20\n        /* \"#utility.yul\":14655:14715   */\n      tag_411\n        /* \"#utility.yul\":14711:14714   */\n      dup5\n        /* \"#utility.yul\":14702:14708   */\n      dup3\n        /* \"#utility.yul\":14691:14700   */\n      dup6\n        /* \"#utility.yul\":14687:14709   */\n      add\n        /* \"#utility.yul\":14655:14715   */\n      tag_218\n      jump\t// in\n    tag_411:\n        /* \"#utility.yul\":14648:14652   */\n      0x20\n        /* \"#utility.yul\":14641:14646   */\n      dup4\n        /* \"#utility.yul\":14637:14653   */\n      add\n        /* \"#utility.yul\":14630:14716   */\n      mstore\n        /* \"#utility.yul\":14560:14727   */\n      pop\n        /* \"#utility.yul\":13962:14734   */\n      swap3\n      swap2\n      pop\n      pop\n      jump\t// out\n        /* \"#utility.yul\":14740:15292   */\n    tag_101:\n        /* \"#utility.yul\":14834:14840   */\n      0x00\n        /* \"#utility.yul\":14883:14885   */\n      0x20\n        /* \"#utility.yul\":14871:14880   */\n      dup3\n        /* \"#utility.yul\":14862:14869   */\n      dup5\n        /* \"#utility.yul\":14858:14881   */\n      sub\n        /* \"#utility.yul\":14854:14886   */\n      slt\n        /* \"#utility.yul\":14851:14970   */\n      iszero\n      tag_413\n      jumpi\n        /* \"#utility.yul\":14889:14968   */\n      tag_414\n      tag_180\n      jump\t// in\n    tag_414:\n        /* \"#utility.yul\":14851:14970   */\n    tag_413:\n        /* \"#utility.yul\":15030:15031   */\n      0x00\n        /* \"#utility.yul\":15019:15028   */\n      dup3\n        /* \"#utility.yul\":15015:15032   */\n      add\n        /* \"#utility.yul\":15009:15033   */\n      mload\n        /* \"#utility.yul\":15060:15078   */\n      0xffffffffffffffff\n        /* \"#utility.yul\":15052:15058   */\n      dup2\n        /* \"#utility.yul\":15049:15079   */\n      gt\n        /* \"#utility.yul\":15046:15163   */\n      iszero\n      tag_415\n      jumpi\n        /* \"#utility.yul\":15082:15161   */\n      tag_416\n      tag_181\n      jump\t// in\n    tag_416:\n        /* \"#utility.yul\":15046:15163   */\n    tag_415:\n        /* \"#utility.yul\":15187:15275   */\n      tag_417\n        /* \"#utility.yul\":15267:15274   */\n      dup5\n        /* \"#utility.yul\":15258:15264   */\n      dup3\n        /* \"#utility.yul\":15247:15256   */\n      dup6\n        /* \"#utility.yul\":15243:15265   */\n      add\n        /* \"#utility.yul\":15187:15275   */\n      tag_219\n      jump\t// in\n    tag_417:\n        /* \"#utility.yul\":15177:15275   */\n      swap2\n      pop\n        /* \"#utility.yul\":14980:15285   */\n      pop\n        /* \"#utility.yul\":14740:15292   */\n      swap3\n      swap2\n      pop\n      pop\n      jump\t// out\n        /* \"#utility.yul\":15298:15479   */\n    tag_220:\n        /* \"#utility.yul\":15438:15471   */\n      0x56616c7565206d7573742062652067726561746572207468616e207a65726f00\n        /* \"#utility.yul\":15434:15435   */\n      0x00\n        /* \"#utility.yul\":15426:15432   */\n      dup3\n        /* \"#utility.yul\":15422:15436   */\n      add\n        /* \"#utility.yul\":15415:15472   */\n      mstore\n        /* \"#utility.yul\":15298:15479   */\n      pop\n      jump\t// out\n        /* \"#utility.yul\":15485:15851   */\n    tag_221:\n        /* \"#utility.yul\":15627:15630   */\n      0x00\n        /* \"#utility.yul\":15648:15715   */\n      tag_420\n        /* \"#utility.yul\":15712:15714   */\n      0x1f\n        /* \"#utility.yul\":15707:15710   */\n      dup4\n        /* \"#utility.yul\":15648:15715   */\n      tag_210\n      jump\t// in\n    tag_420:\n        /* \"#utility.yul\":15641:15715   */\n      swap2\n      pop\n        /* \"#utility.yul\":15724:15817   */\n      tag_421\n        /* \"#utility.yul\":15813:15816   */\n      dup3\n        /* \"#utility.yul\":15724:15817   */\n      tag_220\n      jump\t// in\n    tag_421:\n        /* \"#utility.yul\":15842:15844   */\n      0x20\n        /* \"#utility.yul\":15837:15840   */\n      dup3\n        /* \"#utility.yul\":15833:15845   */\n      add\n        /* \"#utility.yul\":15826:15845   */\n      swap1\n      pop\n        /* \"#utility.yul\":15485:15851   */\n      swap2\n      swap1\n      pop\n      jump\t// out\n        /* \"#utility.yul\":15857:16276   */\n    tag_118:\n        /* \"#utility.yul\":16023:16027   */\n      0x00\n        /* \"#utility.yul\":16061:16063   */\n      0x20\n        /* \"#utility.yul\":16050:16059   */\n      dup3\n        /* \"#utility.yul\":16046:16064   */\n      add\n        /* \"#utility.yul\":16038:16064   */\n      swap1\n      pop\n        /* \"#utility.yul\":16110:16119   */\n      dup2\n        /* \"#utility.yul\":16104:16108   */\n      dup2\n        /* \"#utility.yul\":16100:16120   */\n      sub\n        /* \"#utility.yul\":16096:16097   */\n      0x00\n        /* \"#utility.yul\":16085:16094   */\n      dup4\n        /* \"#utility.yul\":16081:16098   */\n      add\n        /* \"#utility.yul\":16074:16121   */\n      mstore\n        /* \"#utility.yul\":16138:16269   */\n      tag_423\n        /* \"#utility.yul\":16264:16268   */\n      dup2\n        /* \"#utility.yul\":16138:16269   */\n      tag_221\n      jump\t// in\n    tag_423:\n        /* \"#utility.yul\":16130:16269   */\n      swap1\n      pop\n        /* \"#utility.yul\":15857:16276   */\n      swap2\n      swap1\n      pop\n      jump\t// out\n        /* \"#utility.yul\":16282:16462   */\n    tag_222:\n        /* \"#utility.yul\":16330:16407   */\n      0x4e487b7100000000000000000000000000000000000000000000000000000000\n        /* \"#utility.yul\":16327:16328   */\n      0x00\n        /* \"#utility.yul\":16320:16408   */\n      mstore\n        /* \"#utility.yul\":16427:16431   */\n      0x11\n        /* \"#utility.yul\":16424:16425   */\n      0x04\n        /* \"#utility.yul\":16417:16432   */\n      mstore\n        /* \"#utility.yul\":16451:16455   */\n      0x24\n        /* \"#utility.yul\":16448:16449   */\n      0x00\n        /* \"#utility.yul\":16441:16456   */\n      revert\n        /* \"#utility.yul\":16468:16659   */\n    tag_120:\n        /* \"#utility.yul\":16508:16511   */\n      0x00\n        /* \"#utility.yul\":16527:16547   */\n      tag_426\n        /* \"#utility.yul\":16545:16546   */\n      dup3\n        /* \"#utility.yul\":16527:16547   */\n      tag_192\n      jump\t// in\n    tag_426:\n        /* \"#utility.yul\":16522:16547   */\n      swap2\n      pop\n        /* \"#utility.yul\":16561:16581   */\n      tag_427\n        /* \"#utility.yul\":16579:16580   */\n      dup4\n        /* \"#utility.yul\":16561:16581   */\n      tag_192\n      jump\t// in\n    tag_427:\n        /* \"#utility.yul\":16556:16581   */\n      swap3\n      pop\n        /* \"#utility.yul\":16604:16605   */\n      dup3\n        /* \"#utility.yul\":16601:16602   */\n      dup3\n        /* \"#utility.yul\":16597:16606   */\n      add\n        /* \"#utility.yul\":16590:16606   */\n      swap1\n      pop\n        /* \"#utility.yul\":16625:16628   */\n      dup1\n        /* \"#utility.yul\":16622:16623   */\n      dup3\n        /* \"#utility.yul\":16619:16629   */\n      gt\n        /* \"#utility.yul\":16616:16652   */\n      iszero\n      tag_428\n      jumpi\n        /* \"#utility.yul\":16632:16650   */\n      tag_429\n      tag_222\n      jump\t// in\n    tag_429:\n        /* \"#utility.yul\":16616:16652   */\n    tag_428:\n        /* \"#utility.yul\":16468:16659   */\n      swap3\n      swap2\n      pop\n      pop\n      jump\t// out\n        /* \"#utility.yul\":16665:16834   */\n    tag_223:\n        /* \"#utility.yul\":16805:16826   */\n      0x5465616d20646f6573206e6f7420657869737400000000000000000000000000\n        /* \"#utility.yul\":16801:16802   */\n      0x00\n        /* \"#utility.yul\":16793:16799   */\n      dup3\n        /* \"#utility.yul\":16789:16803   */\n      add\n        /* \"#utility.yul\":16782:16827   */\n      mstore\n        /* \"#utility.yul\":16665:16834   */\n      pop\n      jump\t// out\n        /* \"#utility.yul\":16840:17206   */\n    tag_224:\n        /* \"#utility.yul\":16982:16985   */\n      0x00\n        /* \"#utility.yul\":17003:17070   */\n      tag_432\n        /* \"#utility.yul\":17067:17069   */\n      0x13\n        /* \"#utility.yul\":17062:17065   */\n      dup4\n        /* \"#utility.yul\":17003:17070   */\n      tag_210\n      jump\t// in\n    tag_432:\n        /* \"#utility.yul\":16996:17070   */\n      swap2\n      pop\n        /* \"#utility.yul\":17079:17172   */\n      tag_433\n        /* \"#utility.yul\":17168:17171   */\n      dup3\n        /* \"#utility.yul\":17079:17172   */\n      tag_223\n      jump\t// in\n    tag_433:\n        /* \"#utility.yul\":17197:17199   */\n      0x20\n        /* \"#utility.yul\":17192:17195   */\n      dup3\n        /* \"#utility.yul\":17188:17200   */\n      add\n        /* \"#utility.yul\":17181:17200   */\n      swap1\n      pop\n        /* \"#utility.yul\":16840:17206   */\n      swap2\n      swap1\n      pop\n      jump\t// out\n        /* \"#utility.yul\":17212:17631   */\n    tag_124:\n        /* \"#utility.yul\":17378:17382   */\n      0x00\n        /* \"#utility.yul\":17416:17418   */\n      0x20\n        /* \"#utility.yul\":17405:17414   */\n      dup3\n        /* \"#utility.yul\":17401:17419   */\n      add\n        /* \"#utility.yul\":17393:17419   */\n      swap1\n      pop\n        /* \"#utility.yul\":17465:17474   */\n      dup2\n        /* \"#utility.yul\":17459:17463   */\n      dup2\n        /* \"#utility.yul\":17455:17475   */\n      sub\n        /* \"#utility.yul\":17451:17452   */\n      0x00\n        /* \"#utility.yul\":17440:17449   */\n      dup4\n        /* \"#utility.yul\":17436:17453   */\n      add\n        /* \"#utility.yul\":17429:17476   */\n      mstore\n        /* \"#utility.yul\":17493:17624   */\n      tag_435\n        /* \"#utility.yul\":17619:17623   */\n      dup2\n        /* \"#utility.yul\":17493:17624   */\n      tag_224\n      jump\t// in\n    tag_435:\n        /* \"#utility.yul\":17485:17624   */\n      swap1\n      pop\n        /* \"#utility.yul\":17212:17631   */\n      swap2\n      swap1\n      pop\n      jump\t// out\n        /* \"#utility.yul\":17637:17817   */\n    tag_225:\n        /* \"#utility.yul\":17685:17762   */\n      0x4e487b7100000000000000000000000000000000000000000000000000000000\n        /* \"#utility.yul\":17682:17683   */\n      0x00\n        /* \"#utility.yul\":17675:17763   */\n      mstore\n        /* \"#utility.yul\":17782:17786   */\n      0x12\n        /* \"#utility.yul\":17779:17780   */\n      0x04\n        /* \"#utility.yul\":17772:17787   */\n      mstore\n        /* \"#utility.yul\":17806:17810   */\n      0x24\n        /* \"#utility.yul\":17803:17804   */\n      0x00\n        /* \"#utility.yul\":17796:17811   */\n      revert\n        /* \"#utility.yul\":17823:18008   */\n    tag_126:\n        /* \"#utility.yul\":17863:17864   */\n      0x00\n        /* \"#utility.yul\":17880:17900   */\n      tag_438\n        /* \"#utility.yul\":17898:17899   */\n      dup3\n        /* \"#utility.yul\":17880:17900   */\n      tag_192\n      jump\t// in\n    tag_438:\n        /* \"#utility.yul\":17875:17900   */\n      swap2\n      pop\n        /* \"#utility.yul\":17914:17934   */\n      tag_439\n        /* \"#utility.yul\":17932:17933   */\n      dup4\n        /* \"#utility.yul\":17914:17934   */\n      tag_192\n      jump\t// in\n    tag_439:\n        /* \"#utility.yul\":17909:17934   */\n      swap3\n      pop\n        /* \"#utility.yul\":17953:17954   */\n      dup3\n        /* \"#utility.yul\":17943:17978   */\n      tag_440\n      jumpi\n        /* \"#utility.yul\":17958:17976   */\n      tag_441\n      tag_225\n      jump\t// in\n    tag_441:\n        /* \"#utility.yul\":17943:17978   */\n    tag_440:\n        /* \"#utility.yul\":18000:18001   */\n      dup3\n        /* \"#utility.yul\":17997:17998   */\n      dup3\n        /* \"#utility.yul\":17993:18002   */\n      div\n        /* \"#utility.yul\":17988:18002   */\n      swap1\n      pop\n        /* \"#utility.yul\":17823:18008   */\n      swap3\n      swap2\n      pop\n      pop\n      jump\t// out\n        /* \"#utility.yul\":18014:18194   */\n    tag_226:\n        /* \"#utility.yul\":18062:18139   */\n      0x4e487b7100000000000000000000000000000000000000000000000000000000\n        /* \"#utility.yul\":18059:18060   */\n      0x00\n        /* \"#utility.yul\":18052:18140   */\n      mstore\n        /* \"#utility.yul\":18159:18163   */\n      0x22\n        /* \"#utility.yul\":18156:18157   */\n      0x04\n        /* \"#utility.yul\":18149:18164   */\n      mstore\n        /* \"#utility.yul\":18183:18187   */\n      0x24\n        /* \"#utility.yul\":18180:18181   */\n      0x00\n        /* \"#utility.yul\":18173:18188   */\n      revert\n        /* \"#utility.yul\":18200:18520   */\n    tag_140:\n        /* \"#utility.yul\":18244:18250   */\n      0x00\n        /* \"#utility.yul\":18281:18282   */\n      0x02\n        /* \"#utility.yul\":18275:18279   */\n      dup3\n        /* \"#utility.yul\":18271:18283   */\n      div\n        /* \"#utility.yul\":18261:18283   */\n      swap1\n      pop\n        /* \"#utility.yul\":18328:18329   */\n      0x01\n        /* \"#utility.yul\":18322:18326   */\n      dup3\n        /* \"#utility.yul\":18318:18330   */\n      and\n        /* \"#utility.yul\":18349:18367   */\n      dup1\n        /* \"#utility.yul\":18339:18420   */\n      tag_444\n      jumpi\n        /* \"#utility.yul\":18405:18409   */\n      0x7f\n        /* \"#utility.yul\":18397:18403   */\n      dup3\n        /* \"#utility.yul\":18393:18410   */\n      and\n        /* \"#utility.yul\":18383:18410   */\n      swap2\n      pop\n        /* \"#utility.yul\":18339:18420   */\n    tag_444:\n        /* \"#utility.yul\":18467:18469   */\n      0x20\n        /* \"#utility.yul\":18459:18465   */\n      dup3\n        /* \"#utility.yul\":18456:18470   */\n      lt\n        /* \"#utility.yul\":18436:18454   */\n      dup2\n        /* \"#utility.yul\":18433:18471   */\n      sub\n        /* \"#utility.yul\":18430:18514   */\n      tag_445\n      jumpi\n        /* \"#utility.yul\":18486:18504   */\n      tag_446\n      tag_226\n      jump\t// in\n    tag_446:\n        /* \"#utility.yul\":18430:18514   */\n    tag_445:\n        /* \"#utility.yul\":18251:18520   */\n      pop\n        /* \"#utility.yul\":18200:18520   */\n      swap2\n      swap1\n      pop\n      jump\t// out\n        /* \"#utility.yul\":18526:18667   */\n    tag_227:\n        /* \"#utility.yul\":18575:18579   */\n      0x00\n        /* \"#utility.yul\":18598:18601   */\n      dup2\n        /* \"#utility.yul\":18590:18601   */\n      swap1\n      pop\n        /* \"#utility.yul\":18621:18624   */\n      dup2\n        /* \"#utility.yul\":18618:18619   */\n      0x00\n        /* \"#utility.yul\":18611:18625   */\n      mstore\n        /* \"#utility.yul\":18655:18659   */\n      0x20\n        /* \"#utility.yul\":18652:18653   */\n      0x00\n        /* \"#utility.yul\":18642:18660   */\n      keccak256\n        /* \"#utility.yul\":18634:18660   */\n      swap1\n      pop\n        /* \"#utility.yul\":18526:18667   */\n      swap2\n      swap1\n      pop\n      jump\t// out\n        /* \"#utility.yul\":18673:18766   */\n    tag_228:\n        /* \"#utility.yul\":18710:18716   */\n      0x00\n        /* \"#utility.yul\":18757:18759   */\n      0x20\n        /* \"#utility.yul\":18752:18754   */\n      0x1f\n        /* \"#utility.yul\":18745:18750   */\n      dup4\n        /* \"#utility.yul\":18741:18755   */\n      add\n        /* \"#utility.yul\":18737:18760   */\n      div\n        /* \"#utility.yul\":18727:18760   */\n      swap1\n      pop\n        /* \"#utility.yul\":18673:18766   */\n      swap2\n      swap1\n      pop\n      jump\t// out\n        /* \"#utility.yul\":18772:18879   */\n    tag_229:\n        /* \"#utility.yul\":18816:18824   */\n      0x00\n        /* \"#utility.yul\":18866:18871   */\n      dup3\n        /* \"#utility.yul\":18860:18864   */\n      dup3\n        /* \"#utility.yul\":18856:18872   */\n      shl\n        /* \"#utility.yul\":18835:18872   */\n      swap1\n      pop\n        /* \"#utility.yul\":18772:18879   */\n      swap3\n      swap2\n      pop\n      pop\n      jump\t// out\n        /* \"#utility.yul\":18885:19278   */\n    tag_230:\n        /* \"#utility.yul\":18954:18960   */\n      0x00\n        /* \"#utility.yul\":19004:19005   */\n      0x08\n        /* \"#utility.yul\":18992:19002   */\n      dup4\n        /* \"#utility.yul\":18988:19006   */\n      mul\n        /* \"#utility.yul\":19027:19124   */\n      tag_451\n        /* \"#utility.yul\":19057:19123   */\n      0xffffffffffffffffffffffffffffffffffffffffffffffffffffffffffffffff\n        /* \"#utility.yul\":19046:19055   */\n      dup3\n        /* \"#utility.yul\":19027:19124   */\n      tag_229\n      jump\t// in\n    tag_451:\n        /* \"#utility.yul\":19145:19184   */\n      tag_452\n        /* \"#utility.yul\":19175:19183   */\n      dup7\n        /* \"#utility.yul\":19164:19173   */\n      dup4\n        /* \"#utility.yul\":19145:19184   */\n      tag_229\n      jump\t// in\n    tag_452:\n        /* \"#utility.yul\":19133:19184   */\n      swap6\n      pop\n        /* \"#utility.yul\":19217:19221   */\n      dup1\n        /* \"#utility.yul\":19213:19222   */\n      not\n        /* \"#utility.yul\":19206:19211   */\n      dup5\n        /* \"#utility.yul\":19202:19223   */\n      and\n        /* \"#utility.yul\":19193:19223   */\n      swap4\n      pop\n        /* \"#utility.yul\":19266:19270   */\n      dup1\n        /* \"#utility.yul\":19256:19264   */\n      dup7\n        /* \"#utility.yul\":19252:19271   */\n      and\n        /* \"#utility.yul\":19245:19250   */\n      dup5\n        /* \"#utility.yul\":19242:19272   */\n      or\n        /* \"#utility.yul\":19232:19272   */\n      swap3\n      pop\n        /* \"#utility.yul\":18961:19278   */\n      pop\n      pop\n        /* \"#utility.yul\":18885:19278   */\n      swap4\n      swap3\n      pop\n      pop\n      pop\n      jump\t// out\n        /* \"#utility.yul\":19284:19426   */\n    tag_231:\n        /* \"#utility.yul\":19334:19343   */\n      0x00\n        /* \"#utility.yul\":19367:19420   */\n      tag_454\n        /* \"#utility.yul\":19385:19419   */\n      tag_455\n        /* \"#utility.yul\":19394:19418   */\n      tag_456\n        /* \"#utility.yul\":19412:19417   */\n      dup5\n        /* \"#utility.yul\":19394:19418   */\n      tag_192\n      jump\t// in\n    tag_456:\n        /* \"#utility.yul\":19385:19419   */\n      tag_174\n      jump\t// in\n    tag_455:\n        /* \"#utility.yul\":19367:19420   */\n      tag_192\n      jump\t// in\n    tag_454:\n        /* \"#utility.yul\":19354:19420   */\n      swap1\n      pop\n        /* \"#utility.yul\":19284:19426   */\n      swap2\n      swap1\n      pop\n      jump\t// out\n        /* \"#utility.yul\":19432:19507   */\n    tag_232:\n        /* \"#utility.yul\":19475:19478   */\n      0x00\n        /* \"#utility.yul\":19496:19501   */\n      dup2\n        /* \"#utility.yul\":19489:19501   */\n      swap1\n      pop\n        /* \"#utility.yul\":19432:19507   */\n      swap2\n      swap1\n      pop\n      jump\t// out\n        /* \"#utility.yul\":19513:19782   */\n    tag_233:\n        /* \"#utility.yul\":19623:19662   */\n      tag_459\n        /* \"#utility.yul\":19654:19661   */\n      dup4\n        /* \"#utility.yul\":19623:19662   */\n      tag_231\n      jump\t// in\n    tag_459:\n        /* \"#utility.yul\":19684:19775   */\n      tag_460\n        /* \"#utility.yul\":19733:19774   */\n      tag_461\n        /* \"#utility.yul\":19757:19773   */\n      dup3\n        /* \"#utility.yul\":19733:19774   */\n      tag_232\n      jump\t// in\n    tag_461:\n        /* \"#utility.yul\":19725:19731   */\n      dup5\n        /* \"#utility.yul\":19718:19722   */\n      dup5\n        /* \"#utility.yul\":19712:19723   */\n      sload\n        /* \"#utility.yul\":19684:19775   */\n      tag_230\n      jump\t// in\n    tag_460:\n        /* \"#utility.yul\":19678:19682   */\n      dup3\n        /* \"#utility.yul\":19671:19776   */\n      sstore\n        /* \"#utility.yul\":19589:19782   */\n      pop\n        /* \"#utility.yul\":19513:19782   */\n      pop\n      pop\n      pop\n      jump\t// out\n        /* \"#utility.yul\":19788:19861   */\n    tag_234:\n        /* \"#utility.yul\":19833:19836   */\n      0x00\n        /* \"#utility.yul\":19788:19861   */\n      swap1\n      jump\t// out\n        /* \"#utility.yul\":19867:20056   */\n    tag_235:\n        /* \"#utility.yul\":19944:19976   */\n      tag_464\n      tag_234\n      jump\t// in\n    tag_464:\n        /* \"#utility.yul\":19985:20050   */\n      tag_465\n        /* \"#utility.yul\":20043:20049   */\n      dup2\n        /* \"#utility.yul\":20035:20041   */\n      dup5\n        /* \"#utility.yul\":20029:20033   */\n      dup5\n        /* \"#utility.yul\":19985:20050   */\n      tag_233\n      jump\t// in\n    tag_465:\n        /* \"#utility.yul\":19920:20056   */\n      pop\n        /* \"#utility.yul\":19867:20056   */\n      pop\n      pop\n      jump\t// out\n        /* \"#utility.yul\":20062:20248   */\n    tag_236:\n        /* \"#utility.yul\":20122:20242   */\n    tag_467:\n        /* \"#utility.yul\":20139:20142   */\n      dup2\n        /* \"#utility.yul\":20132:20137   */\n      dup2\n        /* \"#utility.yul\":20129:20143   */\n      lt\n        /* \"#utility.yul\":20122:20242   */\n      iszero\n      tag_469\n      jumpi\n        /* \"#utility.yul\":20193:20232   */\n      tag_470\n        /* \"#utility.yul\":20230:20231   */\n      0x00\n        /* \"#utility.yul\":20223:20228   */\n      dup3\n        /* \"#utility.yul\":20193:20232   */\n      tag_235\n      jump\t// in\n    tag_470:\n        /* \"#utility.yul\":20166:20167   */\n      0x01\n        /* \"#utility.yul\":20159:20164   */\n      dup2\n        /* \"#utility.yul\":20155:20168   */\n      add\n        /* \"#utility.yul\":20146:20168   */\n      swap1\n      pop\n        /* \"#utility.yul\":20122:20242   */\n      jump(tag_467)\n    tag_469:\n        /* \"#utility.yul\":20062:20248   */\n      pop\n      pop\n      jump\t// out\n        /* \"#utility.yul\":20254:20797   */\n    tag_237:\n        /* \"#utility.yul\":20355:20357   */\n      0x1f\n        /* \"#utility.yul\":20350:20353   */\n      dup3\n        /* \"#utility.yul\":20347:20358   */\n      gt\n        /* \"#utility.yul\":20344:20790   */\n      iszero\n      tag_472\n      jumpi\n        /* \"#utility.yul\":20389:20427   */\n      tag_473\n        /* \"#utility.yul\":20421:20426   */\n      dup2\n        /* \"#utility.yul\":20389:20427   */\n      tag_227\n      jump\t// in\n    tag_473:\n        /* \"#utility.yul\":20473:20502   */\n      tag_474\n        /* \"#utility.yul\":20491:20501   */\n      dup5\n        /* \"#utility.yul\":20473:20502   */\n      tag_228\n      jump\t// in\n    tag_474:\n        /* \"#utility.yul\":20463:20471   */\n      dup2\n        /* \"#utility.yul\":20459:20503   */\n      add\n        /* \"#utility.yul\":20656:20658   */\n      0x20\n        /* \"#utility.yul\":20644:20654   */\n      dup6\n        /* \"#utility.yul\":20641:20659   */\n      lt\n        /* \"#utility.yul\":20638:20687   */\n      iszero\n      tag_475\n      jumpi\n        /* \"#utility.yul\":20677:20685   */\n      dup2\n        /* \"#utility.yul\":20662:20685   */\n      swap1\n      pop\n        /* \"#utility.yul\":20638:20687   */\n    tag_475:\n        /* \"#utility.yul\":20700:20780   */\n      tag_476\n        /* \"#utility.yul\":20756:20778   */\n      tag_477\n        /* \"#utility.yul\":20774:20777   */\n      dup6\n        /* \"#utility.yul\":20756:20778   */\n      tag_228\n      jump\t// in\n    tag_477:\n        /* \"#utility.yul\":20746:20754   */\n      dup4\n        /* \"#utility.yul\":20742:20779   */\n      add\n        /* \"#utility.yul\":20729:20740   */\n      dup3\n        /* \"#utility.yul\":20700:20780   */\n      tag_236\n      jump\t// in\n    tag_476:\n        /* \"#utility.yul\":20359:20790   */\n      pop\n      pop\n        /* \"#utility.yul\":20344:20790   */\n    tag_472:\n        /* \"#utility.yul\":20254:20797   */\n      pop\n      pop\n      pop\n      jump\t// out\n        /* \"#utility.yul\":20803:20920   */\n    tag_238:\n        /* \"#utility.yul\":20857:20865   */\n      0x00\n        /* \"#utility.yul\":20907:20912   */\n      dup3\n        /* \"#utility.yul\":20901:20905   */\n      dup3\n        /* \"#utility.yul\":20897:20913   */\n      shr\n        /* \"#utility.yul\":20876:20913   */\n      swap1\n      pop\n        /* \"#utility.yul\":20803:20920   */\n      swap3\n      swap2\n      pop\n      pop\n      jump\t// out\n        /* \"#utility.yul\":20926:21095   */\n    tag_239:\n        /* \"#utility.yul\":20970:20976   */\n      0x00\n        /* \"#utility.yul\":21003:21054   */\n      tag_480\n        /* \"#utility.yul\":21051:21052   */\n      0x00\n        /* \"#utility.yul\":21047:21053   */\n      not\n        /* \"#utility.yul\":21039:21044   */\n      dup5\n        /* \"#utility.yul\":21036:21037   */\n      0x08\n        /* \"#utility.yul\":21032:21045   */\n      mul\n        /* \"#utility.yul\":21003:21054   */\n      tag_238\n      jump\t// in\n    tag_480:\n        /* \"#utility.yul\":20999:21055   */\n      not\n        /* \"#utility.yul\":21084:21088   */\n      dup1\n        /* \"#utility.yul\":21078:21082   */\n      dup4\n        /* \"#utility.yul\":21074:21089   */\n      and\n        /* \"#utility.yul\":21064:21089   */\n      swap2\n      pop\n        /* \"#utility.yul\":20977:21095   */\n      pop\n        /* \"#utility.yul\":20926:21095   */\n      swap3\n      swap2\n      pop\n      pop\n      jump\t// out\n        /* \"#utility.yul\":21100:21395   */\n    tag_240:\n        /* \"#utility.yul\":21176:21180   */\n      0x00\n        /* \"#utility.yul\":21322:21351   */\n      tag_482\n        /* \"#utility.yul\":21347:21350   */\n      dup4\n        /* \"#utility.yul\":21341:21345   */\n      dup4\n        /* \"#utility.yul\":21322:21351   */\n      tag_239\n      jump\t// in\n    tag_482:\n        /* \"#utility.yul\":21314:21351   */\n      swap2\n      pop\n        /* \"#utility.yul\":21384:21387   */\n      dup3\n        /* \"#utility.yul\":21381:21382   */\n      0x02\n        /* \"#utility.yul\":21377:21388   */\n      mul\n        /* \"#utility.yul\":21371:21375   */\n      dup3\n        /* \"#utility.yul\":21368:21389   */\n      or\n        /* \"#utility.yul\":21360:21389   */\n      swap1\n      pop\n        /* \"#utility.yul\":21100:21395   */\n      swap3\n      swap2\n      pop\n      pop\n      jump\t// out\n        /* \"#utility.yul\":21400:22795   */\n    tag_128:\n        /* \"#utility.yul\":21517:21554   */\n      tag_484\n        /* \"#utility.yul\":21550:21553   */\n      dup3\n        /* \"#utility.yul\":21517:21554   */\n      tag_209\n      jump\t// in\n    tag_484:\n        /* \"#utility.yul\":21619:21637   */\n      0xffffffffffffffff\n        /* \"#utility.yul\":21611:21617   */\n      dup2\n        /* \"#utility.yul\":21608:21638   */\n      gt\n        /* \"#utility.yul\":21605:21661   */\n      iszero\n      tag_485\n      jumpi\n        /* \"#utility.yul\":21641:21659   */\n      tag_486\n      tag_185\n      jump\t// in\n    tag_486:\n        /* \"#utility.yul\":21605:21661   */\n    tag_485:\n        /* \"#utility.yul\":21685:21723   */\n      tag_487\n        /* \"#utility.yul\":21717:21721   */\n      dup3\n        /* \"#utility.yul\":21711:21722   */\n      sload\n        /* \"#utility.yul\":21685:21723   */\n      tag_140\n      jump\t// in\n    tag_487:\n        /* \"#utility.yul\":21770:21837   */\n      tag_488\n        /* \"#utility.yul\":21830:21836   */\n      dup3\n        /* \"#utility.yul\":21822:21828   */\n      dup3\n        /* \"#utility.yul\":21816:21820   */\n      dup6\n        /* \"#utility.yul\":21770:21837   */\n      tag_237\n      jump\t// in\n    tag_488:\n        /* \"#utility.yul\":21864:21865   */\n      0x00\n        /* \"#utility.yul\":21888:21892   */\n      0x20\n        /* \"#utility.yul\":21875:21892   */\n      swap1\n      pop\n        /* \"#utility.yul\":21920:21922   */\n      0x1f\n        /* \"#utility.yul\":21912:21918   */\n      dup4\n        /* \"#utility.yul\":21909:21923   */\n      gt\n        /* \"#utility.yul\":21937:21938   */\n      0x01\n        /* \"#utility.yul\":21932:22550   */\n      dup2\n      eq\n      tag_490\n      jumpi\n        /* \"#utility.yul\":22594:22595   */\n      0x00\n        /* \"#utility.yul\":22611:22617   */\n      dup5\n        /* \"#utility.yul\":22608:22685   */\n      iszero\n      tag_491\n      jumpi\n        /* \"#utility.yul\":22660:22669   */\n      dup3\n        /* \"#utility.yul\":22655:22658   */\n      dup8\n        /* \"#utility.yul\":22651:22670   */\n      add\n        /* \"#utility.yul\":22645:22671   */\n      mload\n        /* \"#utility.yul\":22636:22671   */\n      swap1\n      pop\n        /* \"#utility.yul\":22608:22685   */\n    tag_491:\n        /* \"#utility.yul\":22711:22778   */\n      tag_492\n        /* \"#utility.yul\":22771:22777   */\n      dup6\n        /* \"#utility.yul\":22764:22769   */\n      dup3\n        /* \"#utility.yul\":22711:22778   */\n      tag_240\n      jump\t// in\n    tag_492:\n        /* \"#utility.yul\":22705:22709   */\n      dup7\n        /* \"#utility.yul\":22698:22779   */\n      sstore\n        /* \"#utility.yul\":22567:22789   */\n      pop\n        /* \"#utility.yul\":21902:22789   */\n      jump(tag_489)\n        /* \"#utility.yul\":21932:22550   */\n    tag_490:\n        /* \"#utility.yul\":21984:21988   */\n      0x1f\n        /* \"#utility.yul\":21980:21989   */\n      not\n        /* \"#utility.yul\":21972:21978   */\n      dup5\n        /* \"#utility.yul\":21968:21990   */\n      and\n        /* \"#utility.yul\":22018:22055   */\n      tag_493\n        /* \"#utility.yul\":22050:22054   */\n      dup7\n        /* \"#utility.yul\":22018:22055   */\n      tag_227\n      jump\t// in\n    tag_493:\n        /* \"#utility.yul\":22077:22078   */\n      0x00\n        /* \"#utility.yul\":22091:22299   */\n    tag_494:\n        /* \"#utility.yul\":22105:22112   */\n      dup3\n        /* \"#utility.yul\":22102:22103   */\n      dup2\n        /* \"#utility.yul\":22099:22113   */\n      lt\n        /* \"#utility.yul\":22091:22299   */\n      iszero\n      tag_496\n      jumpi\n        /* \"#utility.yul\":22184:22193   */\n      dup5\n        /* \"#utility.yul\":22179:22182   */\n      dup10\n        /* \"#utility.yul\":22175:22194   */\n      add\n        /* \"#utility.yul\":22169:22195   */\n      mload\n        /* \"#utility.yul\":22161:22167   */\n      dup3\n        /* \"#utility.yul\":22154:22196   */\n      sstore\n        /* \"#utility.yul\":22235:22236   */\n      0x01\n        /* \"#utility.yul\":22227:22233   */\n      dup3\n        /* \"#utility.yul\":22223:22237   */\n      add\n        /* \"#utility.yul\":22213:22237   */\n      swap2\n      pop\n        /* \"#utility.yul\":22282:22284   */\n      0x20\n        /* \"#utility.yul\":22271:22280   */\n      dup6\n        /* \"#utility.yul\":22267:22285   */\n      add\n        /* \"#utility.yul\":22254:22285   */\n      swap5\n      pop\n        /* \"#utility.yul\":22128:22132   */\n      0x20\n        /* \"#utility.yul\":22125:22126   */\n      dup2\n        /* \"#utility.yul\":22121:22133   */\n      add\n        /* \"#utility.yul\":22116:22133   */\n      swap1\n      pop\n        /* \"#utility.yul\":22091:22299   */\n      jump(tag_494)\n    tag_496:\n        /* \"#utility.yul\":22327:22333   */\n      dup7\n        /* \"#utility.yul\":22318:22325   */\n      dup4\n        /* \"#utility.yul\":22315:22334   */\n      lt\n        /* \"#utility.yul\":22312:22491   */\n      iszero\n      tag_497\n      jumpi\n        /* \"#utility.yul\":22385:22394   */\n      dup5\n        /* \"#utility.yul\":22380:22383   */\n      dup10\n        /* \"#utility.yul\":22376:22395   */\n      add\n        /* \"#utility.yul\":22370:22396   */\n      mload\n        /* \"#utility.yul\":22428:22476   */\n      tag_498\n        /* \"#utility.yul\":22470:22474   */\n      0x1f\n        /* \"#utility.yul\":22462:22468   */\n      dup10\n        /* \"#utility.yul\":22458:22475   */\n      and\n        /* \"#utility.yul\":22447:22456   */\n      dup3\n        /* \"#utility.yul\":22428:22476   */\n      tag_239\n      jump\t// in\n    tag_498:\n        /* \"#utility.yul\":22420:22426   */\n      dup4\n        /* \"#utility.yul\":22413:22477   */\n      sstore\n        /* \"#utility.yul\":22335:22491   */\n      pop\n        /* \"#utility.yul\":22312:22491   */\n    tag_497:\n        /* \"#utility.yul\":22537:22538   */\n      0x01\n        /* \"#utility.yul\":22533:22534   */\n      0x02\n        /* \"#utility.yul\":22525:22531   */\n      dup9\n        /* \"#utility.yul\":22521:22535   */\n      mul\n        /* \"#utility.yul\":22517:22539   */\n      add\n        /* \"#utility.yul\":22511:22515   */\n      dup9\n        /* \"#utility.yul\":22504:22540   */\n      sstore\n        /* \"#utility.yul\":21939:22550   */\n      pop\n      pop\n      pop\n        /* \"#utility.yul\":21902:22789   */\n    tag_489:\n      pop\n        /* \"#utility.yul\":21492:22795   */\n      pop\n      pop\n      pop\n        /* \"#utility.yul\":21400:22795   */\n      pop\n      pop\n      jump\t// out\n        /* \"#utility.yul\":22801:22949   */\n    tag_241:\n        /* \"#utility.yul\":22903:22914   */\n      0x00\n        /* \"#utility.yul\":22940:22943   */\n      dup2\n        /* \"#utility.yul\":22925:22943   */\n      swap1\n      pop\n        /* \"#utility.yul\":22801:22949   */\n      swap3\n      swap2\n      pop\n      pop\n      jump\t// out\n        /* \"#utility.yul\":22955:23345   */\n    tag_242:\n        /* \"#utility.yul\":23061:23064   */\n      0x00\n        /* \"#utility.yul\":23089:23128   */\n      tag_501\n        /* \"#utility.yul\":23122:23127   */\n      dup3\n        /* \"#utility.yul\":23089:23128   */\n      tag_209\n      jump\t// in\n    tag_501:\n        /* \"#utility.yul\":23144:23233   */\n      tag_502\n        /* \"#utility.yul\":23226:23232   */\n      dup2\n        /* \"#utility.yul\":23221:23224   */\n      dup6\n        /* \"#utility.yul\":23144:23233   */\n      tag_241\n      jump\t// in\n    tag_502:\n        /* \"#utility.yul\":23137:23233   */\n      swap4\n      pop\n        /* \"#utility.yul\":23242:23307   */\n      tag_503\n        /* \"#utility.yul\":23300:23306   */\n      dup2\n        /* \"#utility.yul\":23295:23298   */\n      dup6\n        /* \"#utility.yul\":23288:23292   */\n      0x20\n        /* \"#utility.yul\":23281:23286   */\n      dup7\n        /* \"#utility.yul\":23277:23293   */\n      add\n        /* \"#utility.yul\":23242:23307   */\n      tag_199\n      jump\t// in\n    tag_503:\n        /* \"#utility.yul\":23332:23338   */\n      dup1\n        /* \"#utility.yul\":23327:23330   */\n      dup5\n        /* \"#utility.yul\":23323:23339   */\n      add\n        /* \"#utility.yul\":23316:23339   */\n      swap2\n      pop\n        /* \"#utility.yul\":23065:23345   */\n      pop\n        /* \"#utility.yul\":22955:23345   */\n      swap3\n      swap2\n      pop\n      pop\n      jump\t// out\n        /* \"#utility.yul\":23351:23626   */\n    tag_130:\n        /* \"#utility.yul\":23483:23486   */\n      0x00\n        /* \"#utility.yul\":23505:23600   */\n      tag_505\n        /* \"#utility.yul\":23596:23599   */\n      dup3\n        /* \"#utility.yul\":23587:23593   */\n      dup5\n        /* \"#utility.yul\":23505:23600   */\n      tag_242\n      jump\t// in\n    tag_505:\n        /* \"#utility.yul\":23498:23600   */\n      swap2\n      pop\n        /* \"#utility.yul\":23617:23620   */\n      dup2\n        /* \"#utility.yul\":23610:23620   */\n      swap1\n      pop\n        /* \"#utility.yul\":23351:23626   */\n      swap3\n      swap2\n      pop\n      pop\n      jump\t// out\n        /* \"#utility.yul\":23632:23802   */\n    tag_243:\n        /* \"#utility.yul\":23772:23794   */\n      0x436f6e7472616374206973206e6f74206f70656e000000000000000000000000\n        /* \"#utility.yul\":23768:23769   */\n      0x00\n        /* \"#utility.yul\":23760:23766   */\n      dup3\n        /* \"#utility.yul\":23756:23770   */\n      add\n        /* \"#utility.yul\":23749:23795   */\n      mstore\n        /* \"#utility.yul\":23632:23802   */\n      pop\n      jump\t// out\n        /* \"#utility.yul\":23808:24174   */\n    tag_244:\n        /* \"#utility.yul\":23950:23953   */\n      0x00\n        /* \"#utility.yul\":23971:24038   */\n      tag_508\n        /* \"#utility.yul\":24035:24037   */\n      0x14\n        /* \"#utility.yul\":24030:24033   */\n      dup4\n        /* \"#utility.yul\":23971:24038   */\n      tag_210\n      jump\t// in\n    tag_508:\n        /* \"#utility.yul\":23964:24038   */\n      swap2\n      pop\n        /* \"#utility.yul\":24047:24140   */\n      tag_509\n        /* \"#utility.yul\":24136:24139   */\n      dup3\n        /* \"#utility.yul\":24047:24140   */\n      tag_243\n      jump\t// in\n    tag_509:\n        /* \"#utility.yul\":24165:24167   */\n      0x20\n        /* \"#utility.yul\":24160:24163   */\n      dup3\n        /* \"#utility.yul\":24156:24168   */\n      add\n        /* \"#utility.yul\":24149:24168   */\n      swap1\n      pop\n        /* \"#utility.yul\":23808:24174   */\n      swap2\n      swap1\n      pop\n      jump\t// out\n        /* \"#utility.yul\":24180:24599   */\n    tag_135:\n        /* \"#utility.yul\":24346:24350   */\n      0x00\n        /* \"#utility.yul\":24384:24386   */\n      0x20\n        /* \"#utility.yul\":24373:24382   */\n      dup3\n        /* \"#utility.yul\":24369:24387   */\n      add\n        /* \"#utility.yul\":24361:24387   */\n      swap1\n      pop\n        /* \"#utility.yul\":24433:24442   */\n      dup2\n        /* \"#utility.yul\":24427:24431   */\n      dup2\n        /* \"#utility.yul\":24423:24443   */\n      sub\n        /* \"#utility.yul\":24419:24420   */\n      0x00\n        /* \"#utility.yul\":24408:24417   */\n      dup4\n        /* \"#utility.yul\":24404:24421   */\n      add\n        /* \"#utility.yul\":24397:24444   */\n      mstore\n        /* \"#utility.yul\":24461:24592   */\n      tag_511\n        /* \"#utility.yul\":24587:24591   */\n      dup2\n        /* \"#utility.yul\":24461:24592   */\n      tag_244\n      jump\t// in\n    tag_511:\n        /* \"#utility.yul\":24453:24592   */\n      swap1\n      pop\n        /* \"#utility.yul\":24180:24599   */\n      swap2\n      swap1\n      pop\n      jump\t// out\n        /* \"#utility.yul\":24605:24830   */\n    tag_245:\n        /* \"#utility.yul\":24745:24779   */\n      0x4f6e6c79206c6f6e672070617274792063616e20636c6f73652074686520636f\n        /* \"#utility.yul\":24741:24742   */\n      0x00\n        /* \"#utility.yul\":24733:24739   */\n      dup3\n        /* \"#utility.yul\":24729:24743   */\n      add\n        /* \"#utility.yul\":24722:24780   */\n      mstore\n        /* \"#utility.yul\":24814:24822   */\n      0x6e74726163740000000000000000000000000000000000000000000000000000\n        /* \"#utility.yul\":24809:24811   */\n      0x20\n        /* \"#utility.yul\":24801:24807   */\n      dup3\n        /* \"#utility.yul\":24797:24812   */\n      add\n        /* \"#utility.yul\":24790:24823   */\n      mstore\n        /* \"#utility.yul\":24605:24830   */\n      pop\n      jump\t// out\n        /* \"#utility.yul\":24836:25202   */\n    tag_246:\n        /* \"#utility.yul\":24978:24981   */\n      0x00\n        /* \"#utility.yul\":24999:25066   */\n      tag_514\n        /* \"#utility.yul\":25063:25065   */\n      0x26\n        /* \"#utility.yul\":25058:25061   */\n      dup4\n        /* \"#utility.yul\":24999:25066   */\n      tag_210\n      jump\t// in\n    tag_514:\n        /* \"#utility.yul\":24992:25066   */\n      swap2\n      pop\n        /* \"#utility.yul\":25075:25168   */\n      tag_515\n        /* \"#utility.yul\":25164:25167   */\n      dup3\n        /* \"#utility.yul\":25075:25168   */\n      tag_245\n      jump\t// in\n    tag_515:\n        /* \"#utility.yul\":25193:25195   */\n      0x40\n        /* \"#utility.yul\":25188:25191   */\n      dup3\n        /* \"#utility.yul\":25184:25196   */\n      add\n        /* \"#utility.yul\":25177:25196   */\n      swap1\n      pop\n        /* \"#utility.yul\":24836:25202   */\n      swap2\n      swap1\n      pop\n      jump\t// out\n        /* \"#utility.yul\":25208:25627   */\n    tag_138:\n        /* \"#utility.yul\":25374:25378   */\n      0x00\n        /* \"#utility.yul\":25412:25414   */\n      0x20\n        /* \"#utility.yul\":25401:25410   */\n      dup3\n        /* \"#utility.yul\":25397:25415   */\n      add\n        /* \"#utility.yul\":25389:25415   */\n      swap1\n      pop\n        /* \"#utility.yul\":25461:25470   */\n      dup2\n        /* \"#utility.yul\":25455:25459   */\n      dup2\n        /* \"#utility.yul\":25451:25471   */\n      sub\n        /* \"#utility.yul\":25447:25448   */\n      0x00\n        /* \"#utility.yul\":25436:25445   */\n      dup4\n        /* \"#utility.yul\":25432:25449   */\n      add\n        /* \"#utility.yul\":25425:25472   */\n      mstore\n        /* \"#utility.yul\":25489:25620   */\n      tag_517\n        /* \"#utility.yul\":25615:25619   */\n      dup2\n        /* \"#utility.yul\":25489:25620   */\n      tag_246\n      jump\t// in\n    tag_517:\n        /* \"#utility.yul\":25481:25620   */\n      swap1\n      pop\n        /* \"#utility.yul\":25208:25627   */\n      swap2\n      swap1\n      pop\n      jump\t// out\n        /* \"#utility.yul\":25633:26043   */\n    tag_149:\n        /* \"#utility.yul\":25673:25680   */\n      0x00\n        /* \"#utility.yul\":25696:25716   */\n      tag_519\n        /* \"#utility.yul\":25714:25715   */\n      dup3\n        /* \"#utility.yul\":25696:25716   */\n      tag_192\n      jump\t// in\n    tag_519:\n        /* \"#utility.yul\":25691:25716   */\n      swap2\n      pop\n        /* \"#utility.yul\":25730:25750   */\n      tag_520\n        /* \"#utility.yul\":25748:25749   */\n      dup4\n        /* \"#utility.yul\":25730:25750   */\n      tag_192\n      jump\t// in\n    tag_520:\n        /* \"#utility.yul\":25725:25750   */\n      swap3\n      pop\n        /* \"#utility.yul\":25785:25786   */\n      dup3\n        /* \"#utility.yul\":25782:25783   */\n      dup3\n        /* \"#utility.yul\":25778:25787   */\n      mul\n        /* \"#utility.yul\":25807:25837   */\n      tag_521\n        /* \"#utility.yul\":25825:25836   */\n      dup2\n        /* \"#utility.yul\":25807:25837   */\n      tag_192\n      jump\t// in\n    tag_521:\n        /* \"#utility.yul\":25796:25837   */\n      swap2\n      pop\n        /* \"#utility.yul\":25986:25987   */\n      dup3\n        /* \"#utility.yul\":25977:25984   */\n      dup3\n        /* \"#utility.yul\":25973:25988   */\n      div\n        /* \"#utility.yul\":25970:25971   */\n      dup5\n        /* \"#utility.yul\":25967:25989   */\n      eq\n        /* \"#utility.yul\":25947:25948   */\n      dup4\n        /* \"#utility.yul\":25940:25949   */\n      iszero\n        /* \"#utility.yul\":25920:26003   */\n      or\n        /* \"#utility.yul\":25897:26036   */\n      tag_522\n      jumpi\n        /* \"#utility.yul\":26016:26034   */\n      tag_523\n      tag_222\n      jump\t// in\n    tag_523:\n        /* \"#utility.yul\":25897:26036   */\n    tag_522:\n        /* \"#utility.yul\":25681:26043   */\n      pop\n        /* \"#utility.yul\":25633:26043   */\n      swap3\n      swap2\n      pop\n      pop\n      jump\t// out\n\n    auxdata: 0xa26469706673582212202bd7a4c0b00257abea21054f4177c8e58dcea100278b00706d96cc3e50e6ddad64736f6c63430008170033\n}\n",
				"bytecode": {
					"linkReferences": {},
					"object": "608060405234801562000010575f80fd5b5060405162001d7e38038062001d7e833981810160405281019062000036919062000229565b335f73ffffffffffffffffffffffffffffffffffffffff168173ffffffffffffffffffffffffffffffffffffffff1603620000aa575f6040517f1e4fbdf7000000000000000000000000000000000000000000000000000000008152600401620000a191906200026a565b60405180910390fd5b620000bb816200010360201b60201c565b508060015f6101000a81548173ffffffffffffffffffffffffffffffffffffffff021916908373ffffffffffffffffffffffffffffffffffffffff1602179055505062000285565b5f805f9054906101000a900473ffffffffffffffffffffffffffffffffffffffff169050815f806101000a81548173ffffffffffffffffffffffffffffffffffffffff021916908373ffffffffffffffffffffffffffffffffffffffff1602179055508173ffffffffffffffffffffffffffffffffffffffff168173ffffffffffffffffffffffffffffffffffffffff167f8be0079c531659141344cd1fd0a4f28419497f9722a3daafe3b4186f6b6457e060405160405180910390a35050565b5f80fd5b5f73ffffffffffffffffffffffffffffffffffffffff82169050919050565b5f620001f382620001c8565b9050919050565b6200020581620001e7565b811462000210575f80fd5b50565b5f815190506200022381620001fa565b92915050565b5f60208284031215620002415762000240620001c4565b5b5f620002508482850162000213565b91505092915050565b6200026481620001e7565b82525050565b5f6020820190506200027f5f83018462000259565b92915050565b611aeb80620002935f395ff3fe6080604052600436106100dc575f3560e01c80639da751bb1161007e578063db027e0511610058578063db027e05146102a8578063ed23f8c3146102e4578063f2fde38b14610326578063fdf3f74d1461034e576100dc565b80639da751bb14610228578063ac580de714610244578063d0ce736014610280576100dc565b806312065fe0116100ba57806312065fe01461018257806327826f1e146101ac578063715018a6146101e85780638da5cb5b146101fe576100dc565b80630232424d146100e057806302d06d051461010a57806308ab2d4b14610146575b5f80fd5b3480156100eb575f80fd5b506100f461038a565b6040516101019190610dc1565b60405180910390f35b348015610115575f80fd5b50610130600480360381019061012b9190610f27565b6103af565b60405161013d9190610f86565b60405180910390f35b348015610151575f80fd5b5061016c6004803603810190610167919061103d565b610405565b6040516101799190610f86565b60405180910390f35b34801561018d575f80fd5b506101966104b4565b6040516101a39190610f86565b60405180910390f35b3480156101b7575f80fd5b506101d260048036038101906101cd919061103d565b6104bb565b6040516101df91906110fe565b60405180910390f35b3480156101f3575f80fd5b506101fc610563565b005b348015610209575f80fd5b50610212610576565b60405161021f919061113e565b60405180910390f35b610242600480360381019061023d919061103d565b61059d565b005b34801561024f575f80fd5b5061026a60048036038101906102659190611181565b610799565b6040516102779190610f86565b60405180910390f35b34801561028b575f80fd5b506102a660048036038101906102a191906111d6565b6107ae565b005b3480156102b3575f80fd5b506102ce60048036038101906102c9919061103d565b610a14565b6040516102db9190610f86565b60405180910390f35b3480156102ef575f80fd5b5061030a60048036038101906103059190611201565b610a41565b60405161031d97969594939291906112ab565b60405180910390f35b348015610331575f80fd5b5061034c60048036038101906103479190611181565b610b47565b005b348015610359575f80fd5b50610374600480360381019061036f919061103d565b610bcb565b6040516103819190610f86565b60405180910390f35b60015f9054906101000a900473ffffffffffffffffffffffffffffffffffffffff1681565b5f60208251146103f4576040517f08c379a00000000000000000000000000000000000000000000000000000000081526004016103eb90611369565b60405180910390fd5b5f6020830151905080915050919050565b5f6104ad60015f9054906101000a900473ffffffffffffffffffffffffffffffffffffffff1673ffffffffffffffffffffffffffffffffffffffff1663475f1686846040518263ffffffff1660e01b81526004016104639190611387565b5f60405180830381865afa15801561047d573d5f803e3d5ffd5b505050506040513d5f823e3d601f19601f820116820180604052508101906104a5919061149a565b5f01516103af565b9050919050565b5f47905090565b606060015f9054906101000a900473ffffffffffffffffffffffffffffffffffffffff1673ffffffffffffffffffffffffffffffffffffffff1663475f1686836040518263ffffffff1660e01b81526004016105179190611387565b5f60405180830381865afa158015610531573d5f803e3d5ffd5b505050506040513d5f823e3d601f19601f82011682018060405250810190610559919061149a565b5f01519050919050565b61056b610bf8565b6105745f610c7f565b565b5f805f9054906101000a900473ffffffffffffffffffffffffffffffffffffffff16905090565b5f34116105df576040517f08c379a00000000000000000000000000000000000000000000000000000000081526004016105d69061152b565b60405180910390fd5b5f600160045f3373ffffffffffffffffffffffffffffffffffffffff1673ffffffffffffffffffffffffffffffffffffffff1681526020019081526020015f205461062a9190611576565b90505f61063683610405565b90505f81111561067b576040517f08c379a0000000000000000000000000000000000000000000000000000000008152600401610672906115f3565b60405180910390fd5b5f8134610688919061163e565b90505f60035f3373ffffffffffffffffffffffffffffffffffffffff1673ffffffffffffffffffffffffffffffffffffffff1681526020019081526020015f205f8581526020019081526020015f20905033815f015f6101000a81548173ffffffffffffffffffffffffffffffffffffffff021916908373ffffffffffffffffffffffffffffffffffffffff1602179055508481600401908161072b919061185f565b508181600101819055508281600501819055506001816003015f6101000a81548160ff021916908315150217905550806001015460068660405161076f9190611968565b90815260200160405180910390205f82825461078b9190611576565b925050819055505050505050565b6004602052805f5260405f205f915090505481565b5f60035f3373ffffffffffffffffffffffffffffffffffffffff1673ffffffffffffffffffffffffffffffffffffffff1681526020019081526020015f205f8381526020019081526020015f209050806003015f9054906101000a900460ff1661084d576040517f08c379a0000000000000000000000000000000000000000000000000000000008152600401610844906119c8565b60405180910390fd5b3373ffffffffffffffffffffffffffffffffffffffff16815f015f9054906101000a900473ffffffffffffffffffffffffffffffffffffffff1673ffffffffffffffffffffffffffffffffffffffff16146108dd576040517f08c379a00000000000000000000000000000000000000000000000000000000081526004016108d490611a56565b60405180910390fd5b5f8160040180546108ed9061169b565b80601f01602080910402602001604051908101604052809291908181526020018280546109199061169b565b80156109645780601f1061093b57610100808354040283529160200191610964565b820191905f5260205f20905b81548152906001019060200180831161094757829003601f168201915b505050505090505f61097582610405565b90505f6109806104b4565b90505f84600101548284600754610997919061163e565b6109a19190611a74565b6109ab9190611a74565b90503373ffffffffffffffffffffffffffffffffffffffff166108fc8290811502906040515f60405180830381858888f193505050501580156109f0573d5f803e3d5ffd5b505f856003015f6101000a81548160ff021916908315150217905550505050505050565b6006818051602081018201805184825260208301602085012081835280955050505050505f915090505481565b6003602052815f5260405f20602052805f5260405f205f9150915050805f015f9054906101000a900473ffffffffffffffffffffffffffffffffffffffff1690805f0160149054906101000a900460ff1690806001015490806002015490806003015f9054906101000a900460ff1690806004018054610ac09061169b565b80601f0160208091040260200160405190810160405280929190818152602001828054610aec9061169b565b8015610b375780601f10610b0e57610100808354040283529160200191610b37565b820191905f5260205f20905b815481529060010190602001808311610b1a57829003601f168201915b5050505050908060050154905087565b610b4f610bf8565b5f73ffffffffffffffffffffffffffffffffffffffff168173ffffffffffffffffffffffffffffffffffffffff1603610bbf575f6040517f1e4fbdf7000000000000000000000000000000000000000000000000000000008152600401610bb6919061113e565b60405180910390fd5b610bc881610c7f565b50565b6005818051602081018201805184825260208301602085012081835280955050505050505f915090505481565b610c00610d40565b73ffffffffffffffffffffffffffffffffffffffff16610c1e610576565b73ffffffffffffffffffffffffffffffffffffffff1614610c7d57610c41610d40565b6040517f118cdaa7000000000000000000000000000000000000000000000000000000008152600401610c74919061113e565b60405180910390fd5b565b5f805f9054906101000a900473ffffffffffffffffffffffffffffffffffffffff169050815f806101000a81548173ffffffffffffffffffffffffffffffffffffffff021916908373ffffffffffffffffffffffffffffffffffffffff1602179055508173ffffffffffffffffffffffffffffffffffffffff168173ffffffffffffffffffffffffffffffffffffffff167f8be0079c531659141344cd1fd0a4f28419497f9722a3daafe3b4186f6b6457e060405160405180910390a35050565b5f33905090565b5f73ffffffffffffffffffffffffffffffffffffffff82169050919050565b5f819050919050565b5f610d89610d84610d7f84610d47565b610d66565b610d47565b9050919050565b5f610d9a82610d6f565b9050919050565b5f610dab82610d90565b9050919050565b610dbb81610da1565b82525050565b5f602082019050610dd45f830184610db2565b92915050565b5f604051905090565b5f80fd5b5f80fd5b5f80fd5b5f80fd5b5f601f19601f8301169050919050565b7f4e487b71000000000000000000000000000000000000000000000000000000005f52604160045260245ffd5b610e3982610df3565b810181811067ffffffffffffffff82111715610e5857610e57610e03565b5b80604052505050565b5f610e6a610dda565b9050610e768282610e30565b919050565b5f67ffffffffffffffff821115610e9557610e94610e03565b5b610e9e82610df3565b9050602081019050919050565b828183375f83830152505050565b5f610ecb610ec684610e7b565b610e61565b905082815260208101848484011115610ee757610ee6610def565b5b610ef2848285610eab565b509392505050565b5f82601f830112610f0e57610f0d610deb565b5b8135610f1e848260208601610eb9565b91505092915050565b5f60208284031215610f3c57610f3b610de3565b5b5f82013567ffffffffffffffff811115610f5957610f58610de7565b5b610f6584828501610efa565b91505092915050565b5f819050919050565b610f8081610f6e565b82525050565b5f602082019050610f995f830184610f77565b92915050565b5f67ffffffffffffffff821115610fb957610fb8610e03565b5b610fc282610df3565b9050602081019050919050565b5f610fe1610fdc84610f9f565b610e61565b905082815260208101848484011115610ffd57610ffc610def565b5b611008848285610eab565b509392505050565b5f82601f83011261102457611023610deb565b5b8135611034848260208601610fcf565b91505092915050565b5f6020828403121561105257611051610de3565b5b5f82013567ffffffffffffffff81111561106f5761106e610de7565b5b61107b84828501611010565b91505092915050565b5f81519050919050565b5f82825260208201905092915050565b5f5b838110156110bb5780820151818401526020810190506110a0565b5f8484015250505050565b5f6110d082611084565b6110da818561108e565b93506110ea81856020860161109e565b6110f381610df3565b840191505092915050565b5f6020820190508181035f83015261111681846110c6565b905092915050565b5f61112882610d47565b9050919050565b6111388161111e565b82525050565b5f6020820190506111515f83018461112f565b92915050565b6111608161111e565b811461116a575f80fd5b50565b5f8135905061117b81611157565b92915050565b5f6020828403121561119657611195610de3565b5b5f6111a38482850161116d565b91505092915050565b6111b581610f6e565b81146111bf575f80fd5b50565b5f813590506111d0816111ac565b92915050565b5f602082840312156111eb576111ea610de3565b5b5f6111f8848285016111c2565b91505092915050565b5f806040838503121561121757611216610de3565b5b5f6112248582860161116d565b9250506020611235858286016111c2565b9150509250929050565b5f8115159050919050565b6112538161123f565b82525050565b5f81519050919050565b5f82825260208201905092915050565b5f61127d82611259565b6112878185611263565b935061129781856020860161109e565b6112a081610df3565b840191505092915050565b5f60e0820190506112be5f83018a61112f565b6112cb602083018961124a565b6112d86040830188610f77565b6112e56060830187610f77565b6112f2608083018661124a565b81810360a08301526113048185611273565b905061131360c0830184610f77565b98975050505050505050565b7f4279746573206c656e677468206d7573742062652033320000000000000000005f82015250565b5f611353601783611263565b915061135e8261131f565b602082019050919050565b5f6020820190508181035f83015261138081611347565b9050919050565b5f6020820190508181035f83015261139f8184611273565b905092915050565b5f80fd5b5f80fd5b5f6113c16113bc84610e7b565b610e61565b9050828152602081018484840111156113dd576113dc610def565b5b6113e884828561109e565b509392505050565b5f82601f83011261140457611403610deb565b5b81516114148482602086016113af565b91505092915050565b5f8151905061142b816111ac565b92915050565b5f60408284031215611446576114456113a7565b5b6114506040610e61565b90505f82015167ffffffffffffffff81111561146f5761146e6113ab565b5b61147b848285016113f0565b5f83015250602061148e8482850161141d565b60208301525092915050565b5f602082840312156114af576114ae610de3565b5b5f82015167ffffffffffffffff8111156114cc576114cb610de7565b5b6114d884828501611431565b91505092915050565b7f56616c7565206d7573742062652067726561746572207468616e207a65726f005f82015250565b5f611515601f83611263565b9150611520826114e1565b602082019050919050565b5f6020820190508181035f83015261154281611509565b9050919050565b7f4e487b71000000000000000000000000000000000000000000000000000000005f52601160045260245ffd5b5f61158082610f6e565b915061158b83610f6e565b92508282019050808211156115a3576115a2611549565b5b92915050565b7f5465616d20646f6573206e6f74206578697374000000000000000000000000005f82015250565b5f6115dd601383611263565b91506115e8826115a9565b602082019050919050565b5f6020820190508181035f83015261160a816115d1565b9050919050565b7f4e487b71000000000000000000000000000000000000000000000000000000005f52601260045260245ffd5b5f61164882610f6e565b915061165383610f6e565b92508261166357611662611611565b5b828204905092915050565b7f4e487b71000000000000000000000000000000000000000000000000000000005f52602260045260245ffd5b5f60028204905060018216806116b257607f821691505b6020821081036116c5576116c461166e565b5b50919050565b5f819050815f5260205f209050919050565b5f6020601f8301049050919050565b5f82821b905092915050565b5f600883026117277fffffffffffffffffffffffffffffffffffffffffffffffffffffffffffffffff826116ec565b61173186836116ec565b95508019841693508086168417925050509392505050565b5f61176361175e61175984610f6e565b610d66565b610f6e565b9050919050565b5f819050919050565b61177c83611749565b6117906117888261176a565b8484546116f8565b825550505050565b5f90565b6117a4611798565b6117af818484611773565b505050565b5b818110156117d2576117c75f8261179c565b6001810190506117b5565b5050565b601f821115611817576117e8816116cb565b6117f1846116dd565b81016020851015611800578190505b61181461180c856116dd565b8301826117b4565b50505b505050565b5f82821c905092915050565b5f6118375f198460080261181c565b1980831691505092915050565b5f61184f8383611828565b9150826002028217905092915050565b61186882611259565b67ffffffffffffffff81111561188157611880610e03565b5b61188b825461169b565b6118968282856117d6565b5f60209050601f8311600181146118c7575f84156118b5578287015190505b6118bf8582611844565b865550611926565b601f1984166118d5866116cb565b5f5b828110156118fc578489015182556001820191506020850194506020810190506118d7565b868310156119195784890151611915601f891682611828565b8355505b6001600288020188555050505b505050505050565b5f81905092915050565b5f61194282611259565b61194c818561192e565b935061195c81856020860161109e565b80840191505092915050565b5f6119738284611938565b915081905092915050565b7f436f6e7472616374206973206e6f74206f70656e0000000000000000000000005f82015250565b5f6119b2601483611263565b91506119bd8261197e565b602082019050919050565b5f6020820190508181035f8301526119df816119a6565b9050919050565b7f4f6e6c79206c6f6e672070617274792063616e20636c6f73652074686520636f5f8201527f6e74726163740000000000000000000000000000000000000000000000000000602082015250565b5f611a40602683611263565b9150611a4b826119e6565b604082019050919050565b5f6020820190508181035f830152611a6d81611a34565b9050919050565b5f611a7e82610f6e565b9150611a8983610f6e565b9250828202611a9781610f6e565b91508282048414831517611aae57611aad611549565b5b509291505056fea26469706673582212202bd7a4c0b00257abea21054f4177c8e58dcea100278b00706d96cc3e50e6ddad64736f6c63430008170033",
					"opcodes": "PUSH1 0x80 PUSH1 0x40 MSTORE CALLVALUE DUP1 ISZERO PUSH3 0x10 JUMPI PUSH0 DUP1 REVERT JUMPDEST POP PUSH1 0x40 MLOAD PUSH3 0x1D7E CODESIZE SUB DUP1 PUSH3 0x1D7E DUP4 CODECOPY DUP2 DUP2 ADD PUSH1 0x40 MSTORE DUP2 ADD SWAP1 PUSH3 0x36 SWAP2 SWAP1 PUSH3 0x229 JUMP JUMPDEST CALLER PUSH0 PUSH20 0xFFFFFFFFFFFFFFFFFFFFFFFFFFFFFFFFFFFFFFFF AND DUP2 PUSH20 0xFFFFFFFFFFFFFFFFFFFFFFFFFFFFFFFFFFFFFFFF AND SUB PUSH3 0xAA JUMPI PUSH0 PUSH1 0x40 MLOAD PUSH32 0x1E4FBDF700000000000000000000000000000000000000000000000000000000 DUP2 MSTORE PUSH1 0x4 ADD PUSH3 0xA1 SWAP2 SWAP1 PUSH3 0x26A JUMP JUMPDEST PUSH1 0x40 MLOAD DUP1 SWAP2 SUB SWAP1 REVERT JUMPDEST PUSH3 0xBB DUP2 PUSH3 0x103 PUSH1 0x20 SHL PUSH1 0x20 SHR JUMP JUMPDEST POP DUP1 PUSH1 0x1 PUSH0 PUSH2 0x100 EXP DUP2 SLOAD DUP2 PUSH20 0xFFFFFFFFFFFFFFFFFFFFFFFFFFFFFFFFFFFFFFFF MUL NOT AND SWAP1 DUP4 PUSH20 0xFFFFFFFFFFFFFFFFFFFFFFFFFFFFFFFFFFFFFFFF AND MUL OR SWAP1 SSTORE POP POP PUSH3 0x285 JUMP JUMPDEST PUSH0 DUP1 PUSH0 SWAP1 SLOAD SWAP1 PUSH2 0x100 EXP SWAP1 DIV PUSH20 0xFFFFFFFFFFFFFFFFFFFFFFFFFFFFFFFFFFFFFFFF AND SWAP1 POP DUP2 PUSH0 DUP1 PUSH2 0x100 EXP DUP2 SLOAD DUP2 PUSH20 0xFFFFFFFFFFFFFFFFFFFFFFFFFFFFFFFFFFFFFFFF MUL NOT AND SWAP1 DUP4 PUSH20 0xFFFFFFFFFFFFFFFFFFFFFFFFFFFFFFFFFFFFFFFF AND MUL OR SWAP1 SSTORE POP DUP2 PUSH20 0xFFFFFFFFFFFFFFFFFFFFFFFFFFFFFFFFFFFFFFFF AND DUP2 PUSH20 0xFFFFFFFFFFFFFFFFFFFFFFFFFFFFFFFFFFFFFFFF AND PUSH32 0x8BE0079C531659141344CD1FD0A4F28419497F9722A3DAAFE3B4186F6B6457E0 PUSH1 0x40 MLOAD PUSH1 0x40 MLOAD DUP1 SWAP2 SUB SWAP1 LOG3 POP POP JUMP JUMPDEST PUSH0 DUP1 REVERT JUMPDEST PUSH0 PUSH20 0xFFFFFFFFFFFFFFFFFFFFFFFFFFFFFFFFFFFFFFFF DUP3 AND SWAP1 POP SWAP2 SWAP1 POP JUMP JUMPDEST PUSH0 PUSH3 0x1F3 DUP3 PUSH3 0x1C8 JUMP JUMPDEST SWAP1 POP SWAP2 SWAP1 POP JUMP JUMPDEST PUSH3 0x205 DUP2 PUSH3 0x1E7 JUMP JUMPDEST DUP2 EQ PUSH3 0x210 JUMPI PUSH0 DUP1 REVERT JUMPDEST POP JUMP JUMPDEST PUSH0 DUP2 MLOAD SWAP1 POP PUSH3 0x223 DUP2 PUSH3 0x1FA JUMP JUMPDEST SWAP3 SWAP2 POP POP JUMP JUMPDEST PUSH0 PUSH1 0x20 DUP3 DUP5 SUB SLT ISZERO PUSH3 0x241 JUMPI PUSH3 0x240 PUSH3 0x1C4 JUMP JUMPDEST JUMPDEST PUSH0 PUSH3 0x250 DUP5 DUP3 DUP6 ADD PUSH3 0x213 JUMP JUMPDEST SWAP2 POP POP SWAP3 SWAP2 POP POP JUMP JUMPDEST PUSH3 0x264 DUP2 PUSH3 0x1E7 JUMP JUMPDEST DUP3 MSTORE POP POP JUMP JUMPDEST PUSH0 PUSH1 0x20 DUP3 ADD SWAP1 POP PUSH3 0x27F PUSH0 DUP4 ADD DUP5 PUSH3 0x259 JUMP JUMPDEST SWAP3 SWAP2 POP POP JUMP JUMPDEST PUSH2 0x1AEB DUP1 PUSH3 0x293 PUSH0 CODECOPY PUSH0 RETURN INVALID PUSH1 0x80 PUSH1 0x40 MSTORE PUSH1 0x4 CALLDATASIZE LT PUSH2 0xDC JUMPI PUSH0 CALLDATALOAD PUSH1 0xE0 SHR DUP1 PUSH4 0x9DA751BB GT PUSH2 0x7E JUMPI DUP1 PUSH4 0xDB027E05 GT PUSH2 0x58 JUMPI DUP1 PUSH4 0xDB027E05 EQ PUSH2 0x2A8 JUMPI DUP1 PUSH4 0xED23F8C3 EQ PUSH2 0x2E4 JUMPI DUP1 PUSH4 0xF2FDE38B EQ PUSH2 0x326 JUMPI DUP1 PUSH4 0xFDF3F74D EQ PUSH2 0x34E JUMPI PUSH2 0xDC JUMP JUMPDEST DUP1 PUSH4 0x9DA751BB EQ PUSH2 0x228 JUMPI DUP1 PUSH4 0xAC580DE7 EQ PUSH2 0x244 JUMPI DUP1 PUSH4 0xD0CE7360 EQ PUSH2 0x280 JUMPI PUSH2 0xDC JUMP JUMPDEST DUP1 PUSH4 0x12065FE0 GT PUSH2 0xBA JUMPI DUP1 PUSH4 0x12065FE0 EQ PUSH2 0x182 JUMPI DUP1 PUSH4 0x27826F1E EQ PUSH2 0x1AC JUMPI DUP1 PUSH4 0x715018A6 EQ PUSH2 0x1E8 JUMPI DUP1 PUSH4 0x8DA5CB5B EQ PUSH2 0x1FE JUMPI PUSH2 0xDC JUMP JUMPDEST DUP1 PUSH4 0x232424D EQ PUSH2 0xE0 JUMPI DUP1 PUSH4 0x2D06D05 EQ PUSH2 0x10A JUMPI DUP1 PUSH4 0x8AB2D4B EQ PUSH2 0x146 JUMPI JUMPDEST PUSH0 DUP1 REVERT JUMPDEST CALLVALUE DUP1 ISZERO PUSH2 0xEB JUMPI PUSH0 DUP1 REVERT JUMPDEST POP PUSH2 0xF4 PUSH2 0x38A JUMP JUMPDEST PUSH1 0x40 MLOAD PUSH2 0x101 SWAP2 SWAP1 PUSH2 0xDC1 JUMP JUMPDEST PUSH1 0x40 MLOAD DUP1 SWAP2 SUB SWAP1 RETURN JUMPDEST CALLVALUE DUP1 ISZERO PUSH2 0x115 JUMPI PUSH0 DUP1 REVERT JUMPDEST POP PUSH2 0x130 PUSH1 0x4 DUP1 CALLDATASIZE SUB DUP2 ADD SWAP1 PUSH2 0x12B SWAP2 SWAP1 PUSH2 0xF27 JUMP JUMPDEST PUSH2 0x3AF JUMP JUMPDEST PUSH1 0x40 MLOAD PUSH2 0x13D SWAP2 SWAP1 PUSH2 0xF86 JUMP JUMPDEST PUSH1 0x40 MLOAD DUP1 SWAP2 SUB SWAP1 RETURN JUMPDEST CALLVALUE DUP1 ISZERO PUSH2 0x151 JUMPI PUSH0 DUP1 REVERT JUMPDEST POP PUSH2 0x16C PUSH1 0x4 DUP1 CALLDATASIZE SUB DUP2 ADD SWAP1 PUSH2 0x167 SWAP2 SWAP1 PUSH2 0x103D JUMP JUMPDEST PUSH2 0x405 JUMP JUMPDEST PUSH1 0x40 MLOAD PUSH2 0x179 SWAP2 SWAP1 PUSH2 0xF86 JUMP JUMPDEST PUSH1 0x40 MLOAD DUP1 SWAP2 SUB SWAP1 RETURN JUMPDEST CALLVALUE DUP1 ISZERO PUSH2 0x18D JUMPI PUSH0 DUP1 REVERT JUMPDEST POP PUSH2 0x196 PUSH2 0x4B4 JUMP JUMPDEST PUSH1 0x40 MLOAD PUSH2 0x1A3 SWAP2 SWAP1 PUSH2 0xF86 JUMP JUMPDEST PUSH1 0x40 MLOAD DUP1 SWAP2 SUB SWAP1 RETURN JUMPDEST CALLVALUE DUP1 ISZERO PUSH2 0x1B7 JUMPI PUSH0 DUP1 REVERT JUMPDEST POP PUSH2 0x1D2 PUSH1 0x4 DUP1 CALLDATASIZE SUB DUP2 ADD SWAP1 PUSH2 0x1CD SWAP2 SWAP1 PUSH2 0x103D JUMP JUMPDEST PUSH2 0x4BB JUMP JUMPDEST PUSH1 0x40 MLOAD PUSH2 0x1DF SWAP2 SWAP1 PUSH2 0x10FE JUMP JUMPDEST PUSH1 0x40 MLOAD DUP1 SWAP2 SUB SWAP1 RETURN JUMPDEST CALLVALUE DUP1 ISZERO PUSH2 0x1F3 JUMPI PUSH0 DUP1 REVERT JUMPDEST POP PUSH2 0x1FC PUSH2 0x563 JUMP JUMPDEST STOP JUMPDEST CALLVALUE DUP1 ISZERO PUSH2 0x209 JUMPI PUSH0 DUP1 REVERT JUMPDEST POP PUSH2 0x212 PUSH2 0x576 JUMP JUMPDEST PUSH1 0x40 MLOAD PUSH2 0x21F SWAP2 SWAP1 PUSH2 0x113E JUMP JUMPDEST PUSH1 0x40 MLOAD DUP1 SWAP2 SUB SWAP1 RETURN JUMPDEST PUSH2 0x242 PUSH1 0x4 DUP1 CALLDATASIZE SUB DUP2 ADD SWAP1 PUSH2 0x23D SWAP2 SWAP1 PUSH2 0x103D JUMP JUMPDEST PUSH2 0x59D JUMP JUMPDEST STOP JUMPDEST CALLVALUE DUP1 ISZERO PUSH2 0x24F JUMPI PUSH0 DUP1 REVERT JUMPDEST POP PUSH2 0x26A PUSH1 0x4 DUP1 CALLDATASIZE SUB DUP2 ADD SWAP1 PUSH2 0x265 SWAP2 SWAP1 PUSH2 0x1181 JUMP JUMPDEST PUSH2 0x799 JUMP JUMPDEST PUSH1 0x40 MLOAD PUSH2 0x277 SWAP2 SWAP1 PUSH2 0xF86 JUMP JUMPDEST PUSH1 0x40 MLOAD DUP1 SWAP2 SUB SWAP1 RETURN JUMPDEST CALLVALUE DUP1 ISZERO PUSH2 0x28B JUMPI PUSH0 DUP1 REVERT JUMPDEST POP PUSH2 0x2A6 PUSH1 0x4 DUP1 CALLDATASIZE SUB DUP2 ADD SWAP1 PUSH2 0x2A1 SWAP2 SWAP1 PUSH2 0x11D6 JUMP JUMPDEST PUSH2 0x7AE JUMP JUMPDEST STOP JUMPDEST CALLVALUE DUP1 ISZERO PUSH2 0x2B3 JUMPI PUSH0 DUP1 REVERT JUMPDEST POP PUSH2 0x2CE PUSH1 0x4 DUP1 CALLDATASIZE SUB DUP2 ADD SWAP1 PUSH2 0x2C9 SWAP2 SWAP1 PUSH2 0x103D JUMP JUMPDEST PUSH2 0xA14 JUMP JUMPDEST PUSH1 0x40 MLOAD PUSH2 0x2DB SWAP2 SWAP1 PUSH2 0xF86 JUMP JUMPDEST PUSH1 0x40 MLOAD DUP1 SWAP2 SUB SWAP1 RETURN JUMPDEST CALLVALUE DUP1 ISZERO PUSH2 0x2EF JUMPI PUSH0 DUP1 REVERT JUMPDEST POP PUSH2 0x30A PUSH1 0x4 DUP1 CALLDATASIZE SUB DUP2 ADD SWAP1 PUSH2 0x305 SWAP2 SWAP1 PUSH2 0x1201 JUMP JUMPDEST PUSH2 0xA41 JUMP JUMPDEST PUSH1 0x40 MLOAD PUSH2 0x31D SWAP8 SWAP7 SWAP6 SWAP5 SWAP4 SWAP3 SWAP2 SWAP1 PUSH2 0x12AB JUMP JUMPDEST PUSH1 0x40 MLOAD DUP1 SWAP2 SUB SWAP1 RETURN JUMPDEST CALLVALUE DUP1 ISZERO PUSH2 0x331 JUMPI PUSH0 DUP1 REVERT JUMPDEST POP PUSH2 0x34C PUSH1 0x4 DUP1 CALLDATASIZE SUB DUP2 ADD SWAP1 PUSH2 0x347 SWAP2 SWAP1 PUSH2 0x1181 JUMP JUMPDEST PUSH2 0xB47 JUMP JUMPDEST STOP JUMPDEST CALLVALUE DUP1 ISZERO PUSH2 0x359 JUMPI PUSH0 DUP1 REVERT JUMPDEST POP PUSH2 0x374 PUSH1 0x4 DUP1 CALLDATASIZE SUB DUP2 ADD SWAP1 PUSH2 0x36F SWAP2 SWAP1 PUSH2 0x103D JUMP JUMPDEST PUSH2 0xBCB JUMP JUMPDEST PUSH1 0x40 MLOAD PUSH2 0x381 SWAP2 SWAP1 PUSH2 0xF86 JUMP JUMPDEST PUSH1 0x40 MLOAD DUP1 SWAP2 SUB SWAP1 RETURN JUMPDEST PUSH1 0x1 PUSH0 SWAP1 SLOAD SWAP1 PUSH2 0x100 EXP SWAP1 DIV PUSH20 0xFFFFFFFFFFFFFFFFFFFFFFFFFFFFFFFFFFFFFFFF AND DUP2 JUMP JUMPDEST PUSH0 PUSH1 0x20 DUP3 MLOAD EQ PUSH2 0x3F4 JUMPI PUSH1 0x40 MLOAD PUSH32 0x8C379A000000000000000000000000000000000000000000000000000000000 DUP2 MSTORE PUSH1 0x4 ADD PUSH2 0x3EB SWAP1 PUSH2 0x1369 JUMP JUMPDEST PUSH1 0x40 MLOAD DUP1 SWAP2 SUB SWAP1 REVERT JUMPDEST PUSH0 PUSH1 0x20 DUP4 ADD MLOAD SWAP1 POP DUP1 SWAP2 POP POP SWAP2 SWAP1 POP JUMP JUMPDEST PUSH0 PUSH2 0x4AD PUSH1 0x1 PUSH0 SWAP1 SLOAD SWAP1 PUSH2 0x100 EXP SWAP1 DIV PUSH20 0xFFFFFFFFFFFFFFFFFFFFFFFFFFFFFFFFFFFFFFFF AND PUSH20 0xFFFFFFFFFFFFFFFFFFFFFFFFFFFFFFFFFFFFFFFF AND PUSH4 0x475F1686 DUP5 PUSH1 0x40 MLOAD DUP3 PUSH4 0xFFFFFFFF AND PUSH1 0xE0 SHL DUP2 MSTORE PUSH1 0x4 ADD PUSH2 0x463 SWAP2 SWAP1 PUSH2 0x1387 JUMP JUMPDEST PUSH0 PUSH1 0x40 MLOAD DUP1 DUP4 SUB DUP2 DUP7 GAS STATICCALL ISZERO DUP1 ISZERO PUSH2 0x47D JUMPI RETURNDATASIZE PUSH0 DUP1 RETURNDATACOPY RETURNDATASIZE PUSH0 REVERT JUMPDEST POP POP POP POP PUSH1 0x40 MLOAD RETURNDATASIZE PUSH0 DUP3 RETURNDATACOPY RETURNDATASIZE PUSH1 0x1F NOT PUSH1 0x1F DUP3 ADD AND DUP3 ADD DUP1 PUSH1 0x40 MSTORE POP DUP2 ADD SWAP1 PUSH2 0x4A5 SWAP2 SWAP1 PUSH2 0x149A JUMP JUMPDEST PUSH0 ADD MLOAD PUSH2 0x3AF JUMP JUMPDEST SWAP1 POP SWAP2 SWAP1 POP JUMP JUMPDEST PUSH0 SELFBALANCE SWAP1 POP SWAP1 JUMP JUMPDEST PUSH1 0x60 PUSH1 0x1 PUSH0 SWAP1 SLOAD SWAP1 PUSH2 0x100 EXP SWAP1 DIV PUSH20 0xFFFFFFFFFFFFFFFFFFFFFFFFFFFFFFFFFFFFFFFF AND PUSH20 0xFFFFFFFFFFFFFFFFFFFFFFFFFFFFFFFFFFFFFFFF AND PUSH4 0x475F1686 DUP4 PUSH1 0x40 MLOAD DUP3 PUSH4 0xFFFFFFFF AND PUSH1 0xE0 SHL DUP2 MSTORE PUSH1 0x4 ADD PUSH2 0x517 SWAP2 SWAP1 PUSH2 0x1387 JUMP JUMPDEST PUSH0 PUSH1 0x40 MLOAD DUP1 DUP4 SUB DUP2 DUP7 GAS STATICCALL ISZERO DUP1 ISZERO PUSH2 0x531 JUMPI RETURNDATASIZE PUSH0 DUP1 RETURNDATACOPY RETURNDATASIZE PUSH0 REVERT JUMPDEST POP POP POP POP PUSH1 0x40 MLOAD RETURNDATASIZE PUSH0 DUP3 RETURNDATACOPY RETURNDATASIZE PUSH1 0x1F NOT PUSH1 0x1F DUP3 ADD AND DUP3 ADD DUP1 PUSH1 0x40 MSTORE POP DUP2 ADD SWAP1 PUSH2 0x559 SWAP2 SWAP1 PUSH2 0x149A JUMP JUMPDEST PUSH0 ADD MLOAD SWAP1 POP SWAP2 SWAP1 POP JUMP JUMPDEST PUSH2 0x56B PUSH2 0xBF8 JUMP JUMPDEST PUSH2 0x574 PUSH0 PUSH2 0xC7F JUMP JUMPDEST JUMP JUMPDEST PUSH0 DUP1 PUSH0 SWAP1 SLOAD SWAP1 PUSH2 0x100 EXP SWAP1 DIV PUSH20 0xFFFFFFFFFFFFFFFFFFFFFFFFFFFFFFFFFFFFFFFF AND SWAP1 POP SWAP1 JUMP JUMPDEST PUSH0 CALLVALUE GT PUSH2 0x5DF JUMPI PUSH1 0x40 MLOAD PUSH32 0x8C379A000000000000000000000000000000000000000000000000000000000 DUP2 MSTORE PUSH1 0x4 ADD PUSH2 0x5D6 SWAP1 PUSH2 0x152B JUMP JUMPDEST PUSH1 0x40 MLOAD DUP1 SWAP2 SUB SWAP1 REVERT JUMPDEST PUSH0 PUSH1 0x1 PUSH1 0x4 PUSH0 CALLER PUSH20 0xFFFFFFFFFFFFFFFFFFFFFFFFFFFFFFFFFFFFFFFF AND PUSH20 0xFFFFFFFFFFFFFFFFFFFFFFFFFFFFFFFFFFFFFFFF AND DUP2 MSTORE PUSH1 0x20 ADD SWAP1 DUP2 MSTORE PUSH1 0x20 ADD PUSH0 KECCAK256 SLOAD PUSH2 0x62A SWAP2 SWAP1 PUSH2 0x1576 JUMP JUMPDEST SWAP1 POP PUSH0 PUSH2 0x636 DUP4 PUSH2 0x405 JUMP JUMPDEST SWAP1 POP PUSH0 DUP2 GT ISZERO PUSH2 0x67B JUMPI PUSH1 0x40 MLOAD PUSH32 0x8C379A000000000000000000000000000000000000000000000000000000000 DUP2 MSTORE PUSH1 0x4 ADD PUSH2 0x672 SWAP1 PUSH2 0x15F3 JUMP JUMPDEST PUSH1 0x40 MLOAD DUP1 SWAP2 SUB SWAP1 REVERT JUMPDEST PUSH0 DUP2 CALLVALUE PUSH2 0x688 SWAP2 SWAP1 PUSH2 0x163E JUMP JUMPDEST SWAP1 POP PUSH0 PUSH1 0x3 PUSH0 CALLER PUSH20 0xFFFFFFFFFFFFFFFFFFFFFFFFFFFFFFFFFFFFFFFF AND PUSH20 0xFFFFFFFFFFFFFFFFFFFFFFFFFFFFFFFFFFFFFFFF AND DUP2 MSTORE PUSH1 0x20 ADD SWAP1 DUP2 MSTORE PUSH1 0x20 ADD PUSH0 KECCAK256 PUSH0 DUP6 DUP2 MSTORE PUSH1 0x20 ADD SWAP1 DUP2 MSTORE PUSH1 0x20 ADD PUSH0 KECCAK256 SWAP1 POP CALLER DUP2 PUSH0 ADD PUSH0 PUSH2 0x100 EXP DUP2 SLOAD DUP2 PUSH20 0xFFFFFFFFFFFFFFFFFFFFFFFFFFFFFFFFFFFFFFFF MUL NOT AND SWAP1 DUP4 PUSH20 0xFFFFFFFFFFFFFFFFFFFFFFFFFFFFFFFFFFFFFFFF AND MUL OR SWAP1 SSTORE POP DUP5 DUP2 PUSH1 0x4 ADD SWAP1 DUP2 PUSH2 0x72B SWAP2 SWAP1 PUSH2 0x185F JUMP JUMPDEST POP DUP2 DUP2 PUSH1 0x1 ADD DUP2 SWAP1 SSTORE POP DUP3 DUP2 PUSH1 0x5 ADD DUP2 SWAP1 SSTORE POP PUSH1 0x1 DUP2 PUSH1 0x3 ADD PUSH0 PUSH2 0x100 EXP DUP2 SLOAD DUP2 PUSH1 0xFF MUL NOT AND SWAP1 DUP4 ISZERO ISZERO MUL OR SWAP1 SSTORE POP DUP1 PUSH1 0x1 ADD SLOAD PUSH1 0x6 DUP7 PUSH1 0x40 MLOAD PUSH2 0x76F SWAP2 SWAP1 PUSH2 0x1968 JUMP JUMPDEST SWAP1 DUP2 MSTORE PUSH1 0x20 ADD PUSH1 0x40 MLOAD DUP1 SWAP2 SUB SWAP1 KECCAK256 PUSH0 DUP3 DUP3 SLOAD PUSH2 0x78B SWAP2 SWAP1 PUSH2 0x1576 JUMP JUMPDEST SWAP3 POP POP DUP2 SWAP1 SSTORE POP POP POP POP POP POP JUMP JUMPDEST PUSH1 0x4 PUSH1 0x20 MSTORE DUP1 PUSH0 MSTORE PUSH1 0x40 PUSH0 KECCAK256 PUSH0 SWAP2 POP SWAP1 POP SLOAD DUP2 JUMP JUMPDEST PUSH0 PUSH1 0x3 PUSH0 CALLER PUSH20 0xFFFFFFFFFFFFFFFFFFFFFFFFFFFFFFFFFFFFFFFF AND PUSH20 0xFFFFFFFFFFFFFFFFFFFFFFFFFFFFFFFFFFFFFFFF AND DUP2 MSTORE PUSH1 0x20 ADD SWAP1 DUP2 MSTORE PUSH1 0x20 ADD PUSH0 KECCAK256 PUSH0 DUP4 DUP2 MSTORE PUSH1 0x20 ADD SWAP1 DUP2 MSTORE PUSH1 0x20 ADD PUSH0 KECCAK256 SWAP1 POP DUP1 PUSH1 0x3 ADD PUSH0 SWAP1 SLOAD SWAP1 PUSH2 0x100 EXP SWAP1 DIV PUSH1 0xFF AND PUSH2 0x84D JUMPI PUSH1 0x40 MLOAD PUSH32 0x8C379A000000000000000000000000000000000000000000000000000000000 DUP2 MSTORE PUSH1 0x4 ADD PUSH2 0x844 SWAP1 PUSH2 0x19C8 JUMP JUMPDEST PUSH1 0x40 MLOAD DUP1 SWAP2 SUB SWAP1 REVERT JUMPDEST CALLER PUSH20 0xFFFFFFFFFFFFFFFFFFFFFFFFFFFFFFFFFFFFFFFF AND DUP2 PUSH0 ADD PUSH0 SWAP1 SLOAD SWAP1 PUSH2 0x100 EXP SWAP1 DIV PUSH20 0xFFFFFFFFFFFFFFFFFFFFFFFFFFFFFFFFFFFFFFFF AND PUSH20 0xFFFFFFFFFFFFFFFFFFFFFFFFFFFFFFFFFFFFFFFF AND EQ PUSH2 0x8DD JUMPI PUSH1 0x40 MLOAD PUSH32 0x8C379A000000000000000000000000000000000000000000000000000000000 DUP2 MSTORE PUSH1 0x4 ADD PUSH2 0x8D4 SWAP1 PUSH2 0x1A56 JUMP JUMPDEST PUSH1 0x40 MLOAD DUP1 SWAP2 SUB SWAP1 REVERT JUMPDEST PUSH0 DUP2 PUSH1 0x4 ADD DUP1 SLOAD PUSH2 0x8ED SWAP1 PUSH2 0x169B JUMP JUMPDEST DUP1 PUSH1 0x1F ADD PUSH1 0x20 DUP1 SWAP2 DIV MUL PUSH1 0x20 ADD PUSH1 0x40 MLOAD SWAP1 DUP2 ADD PUSH1 0x40 MSTORE DUP1 SWAP3 SWAP2 SWAP1 DUP2 DUP2 MSTORE PUSH1 0x20 ADD DUP3 DUP1 SLOAD PUSH2 0x919 SWAP1 PUSH2 0x169B JUMP JUMPDEST DUP1 ISZERO PUSH2 0x964 JUMPI DUP1 PUSH1 0x1F LT PUSH2 0x93B JUMPI PUSH2 0x100 DUP1 DUP4 SLOAD DIV MUL DUP4 MSTORE SWAP2 PUSH1 0x20 ADD SWAP2 PUSH2 0x964 JUMP JUMPDEST DUP3 ADD SWAP2 SWAP1 PUSH0 MSTORE PUSH1 0x20 PUSH0 KECCAK256 SWAP1 JUMPDEST DUP2 SLOAD DUP2 MSTORE SWAP1 PUSH1 0x1 ADD SWAP1 PUSH1 0x20 ADD DUP1 DUP4 GT PUSH2 0x947 JUMPI DUP3 SWAP1 SUB PUSH1 0x1F AND DUP3 ADD SWAP2 JUMPDEST POP POP POP POP POP SWAP1 POP PUSH0 PUSH2 0x975 DUP3 PUSH2 0x405 JUMP JUMPDEST SWAP1 POP PUSH0 PUSH2 0x980 PUSH2 0x4B4 JUMP JUMPDEST SWAP1 POP PUSH0 DUP5 PUSH1 0x1 ADD SLOAD DUP3 DUP5 PUSH1 0x7 SLOAD PUSH2 0x997 SWAP2 SWAP1 PUSH2 0x163E JUMP JUMPDEST PUSH2 0x9A1 SWAP2 SWAP1 PUSH2 0x1A74 JUMP JUMPDEST PUSH2 0x9AB SWAP2 SWAP1 PUSH2 0x1A74 JUMP JUMPDEST SWAP1 POP CALLER PUSH20 0xFFFFFFFFFFFFFFFFFFFFFFFFFFFFFFFFFFFFFFFF AND PUSH2 0x8FC DUP3 SWAP1 DUP2 ISZERO MUL SWAP1 PUSH1 0x40 MLOAD PUSH0 PUSH1 0x40 MLOAD DUP1 DUP4 SUB DUP2 DUP6 DUP9 DUP9 CALL SWAP4 POP POP POP POP ISZERO DUP1 ISZERO PUSH2 0x9F0 JUMPI RETURNDATASIZE PUSH0 DUP1 RETURNDATACOPY RETURNDATASIZE PUSH0 REVERT JUMPDEST POP PUSH0 DUP6 PUSH1 0x3 ADD PUSH0 PUSH2 0x100 EXP DUP2 SLOAD DUP2 PUSH1 0xFF MUL NOT AND SWAP1 DUP4 ISZERO ISZERO MUL OR SWAP1 SSTORE POP POP POP POP POP POP POP JUMP JUMPDEST PUSH1 0x6 DUP2 DUP1 MLOAD PUSH1 0x20 DUP2 ADD DUP3 ADD DUP1 MLOAD DUP5 DUP3 MSTORE PUSH1 0x20 DUP4 ADD PUSH1 0x20 DUP6 ADD KECCAK256 DUP2 DUP4 MSTORE DUP1 SWAP6 POP POP POP POP POP POP PUSH0 SWAP2 POP SWAP1 POP SLOAD DUP2 JUMP JUMPDEST PUSH1 0x3 PUSH1 0x20 MSTORE DUP2 PUSH0 MSTORE PUSH1 0x40 PUSH0 KECCAK256 PUSH1 0x20 MSTORE DUP1 PUSH0 MSTORE PUSH1 0x40 PUSH0 KECCAK256 PUSH0 SWAP2 POP SWAP2 POP POP DUP1 PUSH0 ADD PUSH0 SWAP1 SLOAD SWAP1 PUSH2 0x100 EXP SWAP1 DIV PUSH20 0xFFFFFFFFFFFFFFFFFFFFFFFFFFFFFFFFFFFFFFFF AND SWAP1 DUP1 PUSH0 ADD PUSH1 0x14 SWAP1 SLOAD SWAP1 PUSH2 0x100 EXP SWAP1 DIV PUSH1 0xFF AND SWAP1 DUP1 PUSH1 0x1 ADD SLOAD SWAP1 DUP1 PUSH1 0x2 ADD SLOAD SWAP1 DUP1 PUSH1 0x3 ADD PUSH0 SWAP1 SLOAD SWAP1 PUSH2 0x100 EXP SWAP1 DIV PUSH1 0xFF AND SWAP1 DUP1 PUSH1 0x4 ADD DUP1 SLOAD PUSH2 0xAC0 SWAP1 PUSH2 0x169B JUMP JUMPDEST DUP1 PUSH1 0x1F ADD PUSH1 0x20 DUP1 SWAP2 DIV MUL PUSH1 0x20 ADD PUSH1 0x40 MLOAD SWAP1 DUP2 ADD PUSH1 0x40 MSTORE DUP1 SWAP3 SWAP2 SWAP1 DUP2 DUP2 MSTORE PUSH1 0x20 ADD DUP3 DUP1 SLOAD PUSH2 0xAEC SWAP1 PUSH2 0x169B JUMP JUMPDEST DUP1 ISZERO PUSH2 0xB37 JUMPI DUP1 PUSH1 0x1F LT PUSH2 0xB0E JUMPI PUSH2 0x100 DUP1 DUP4 SLOAD DIV MUL DUP4 MSTORE SWAP2 PUSH1 0x20 ADD SWAP2 PUSH2 0xB37 JUMP JUMPDEST DUP3 ADD SWAP2 SWAP1 PUSH0 MSTORE PUSH1 0x20 PUSH0 KECCAK256 SWAP1 JUMPDEST DUP2 SLOAD DUP2 MSTORE SWAP1 PUSH1 0x1 ADD SWAP1 PUSH1 0x20 ADD DUP1 DUP4 GT PUSH2 0xB1A JUMPI DUP3 SWAP1 SUB PUSH1 0x1F AND DUP3 ADD SWAP2 JUMPDEST POP POP POP POP POP SWAP1 DUP1 PUSH1 0x5 ADD SLOAD SWAP1 POP DUP8 JUMP JUMPDEST PUSH2 0xB4F PUSH2 0xBF8 JUMP JUMPDEST PUSH0 PUSH20 0xFFFFFFFFFFFFFFFFFFFFFFFFFFFFFFFFFFFFFFFF AND DUP2 PUSH20 0xFFFFFFFFFFFFFFFFFFFFFFFFFFFFFFFFFFFFFFFF AND SUB PUSH2 0xBBF JUMPI PUSH0 PUSH1 0x40 MLOAD PUSH32 0x1E4FBDF700000000000000000000000000000000000000000000000000000000 DUP2 MSTORE PUSH1 0x4 ADD PUSH2 0xBB6 SWAP2 SWAP1 PUSH2 0x113E JUMP JUMPDEST PUSH1 0x40 MLOAD DUP1 SWAP2 SUB SWAP1 REVERT JUMPDEST PUSH2 0xBC8 DUP2 PUSH2 0xC7F JUMP JUMPDEST POP JUMP JUMPDEST PUSH1 0x5 DUP2 DUP1 MLOAD PUSH1 0x20 DUP2 ADD DUP3 ADD DUP1 MLOAD DUP5 DUP3 MSTORE PUSH1 0x20 DUP4 ADD PUSH1 0x20 DUP6 ADD KECCAK256 DUP2 DUP4 MSTORE DUP1 SWAP6 POP POP POP POP POP POP PUSH0 SWAP2 POP SWAP1 POP SLOAD DUP2 JUMP JUMPDEST PUSH2 0xC00 PUSH2 0xD40 JUMP JUMPDEST PUSH20 0xFFFFFFFFFFFFFFFFFFFFFFFFFFFFFFFFFFFFFFFF AND PUSH2 0xC1E PUSH2 0x576 JUMP JUMPDEST PUSH20 0xFFFFFFFFFFFFFFFFFFFFFFFFFFFFFFFFFFFFFFFF AND EQ PUSH2 0xC7D JUMPI PUSH2 0xC41 PUSH2 0xD40 JUMP JUMPDEST PUSH1 0x40 MLOAD PUSH32 0x118CDAA700000000000000000000000000000000000000000000000000000000 DUP2 MSTORE PUSH1 0x4 ADD PUSH2 0xC74 SWAP2 SWAP1 PUSH2 0x113E JUMP JUMPDEST PUSH1 0x40 MLOAD DUP1 SWAP2 SUB SWAP1 REVERT JUMPDEST JUMP JUMPDEST PUSH0 DUP1 PUSH0 SWAP1 SLOAD SWAP1 PUSH2 0x100 EXP SWAP1 DIV PUSH20 0xFFFFFFFFFFFFFFFFFFFFFFFFFFFFFFFFFFFFFFFF AND SWAP1 POP DUP2 PUSH0 DUP1 PUSH2 0x100 EXP DUP2 SLOAD DUP2 PUSH20 0xFFFFFFFFFFFFFFFFFFFFFFFFFFFFFFFFFFFFFFFF MUL NOT AND SWAP1 DUP4 PUSH20 0xFFFFFFFFFFFFFFFFFFFFFFFFFFFFFFFFFFFFFFFF AND MUL OR SWAP1 SSTORE POP DUP2 PUSH20 0xFFFFFFFFFFFFFFFFFFFFFFFFFFFFFFFFFFFFFFFF AND DUP2 PUSH20 0xFFFFFFFFFFFFFFFFFFFFFFFFFFFFFFFFFFFFFFFF AND PUSH32 0x8BE0079C531659141344CD1FD0A4F28419497F9722A3DAAFE3B4186F6B6457E0 PUSH1 0x40 MLOAD PUSH1 0x40 MLOAD DUP1 SWAP2 SUB SWAP1 LOG3 POP POP JUMP JUMPDEST PUSH0 CALLER SWAP1 POP SWAP1 JUMP JUMPDEST PUSH0 PUSH20 0xFFFFFFFFFFFFFFFFFFFFFFFFFFFFFFFFFFFFFFFF DUP3 AND SWAP1 POP SWAP2 SWAP1 POP JUMP JUMPDEST PUSH0 DUP2 SWAP1 POP SWAP2 SWAP1 POP JUMP JUMPDEST PUSH0 PUSH2 0xD89 PUSH2 0xD84 PUSH2 0xD7F DUP5 PUSH2 0xD47 JUMP JUMPDEST PUSH2 0xD66 JUMP JUMPDEST PUSH2 0xD47 JUMP JUMPDEST SWAP1 POP SWAP2 SWAP1 POP JUMP JUMPDEST PUSH0 PUSH2 0xD9A DUP3 PUSH2 0xD6F JUMP JUMPDEST SWAP1 POP SWAP2 SWAP1 POP JUMP JUMPDEST PUSH0 PUSH2 0xDAB DUP3 PUSH2 0xD90 JUMP JUMPDEST SWAP1 POP SWAP2 SWAP1 POP JUMP JUMPDEST PUSH2 0xDBB DUP2 PUSH2 0xDA1 JUMP JUMPDEST DUP3 MSTORE POP POP JUMP JUMPDEST PUSH0 PUSH1 0x20 DUP3 ADD SWAP1 POP PUSH2 0xDD4 PUSH0 DUP4 ADD DUP5 PUSH2 0xDB2 JUMP JUMPDEST SWAP3 SWAP2 POP POP JUMP JUMPDEST PUSH0 PUSH1 0x40 MLOAD SWAP1 POP SWAP1 JUMP JUMPDEST PUSH0 DUP1 REVERT JUMPDEST PUSH0 DUP1 REVERT JUMPDEST PUSH0 DUP1 REVERT JUMPDEST PUSH0 DUP1 REVERT JUMPDEST PUSH0 PUSH1 0x1F NOT PUSH1 0x1F DUP4 ADD AND SWAP1 POP SWAP2 SWAP1 POP JUMP JUMPDEST PUSH32 0x4E487B7100000000000000000000000000000000000000000000000000000000 PUSH0 MSTORE PUSH1 0x41 PUSH1 0x4 MSTORE PUSH1 0x24 PUSH0 REVERT JUMPDEST PUSH2 0xE39 DUP3 PUSH2 0xDF3 JUMP JUMPDEST DUP2 ADD DUP2 DUP2 LT PUSH8 0xFFFFFFFFFFFFFFFF DUP3 GT OR ISZERO PUSH2 0xE58 JUMPI PUSH2 0xE57 PUSH2 0xE03 JUMP JUMPDEST JUMPDEST DUP1 PUSH1 0x40 MSTORE POP POP POP JUMP JUMPDEST PUSH0 PUSH2 0xE6A PUSH2 0xDDA JUMP JUMPDEST SWAP1 POP PUSH2 0xE76 DUP3 DUP3 PUSH2 0xE30 JUMP JUMPDEST SWAP2 SWAP1 POP JUMP JUMPDEST PUSH0 PUSH8 0xFFFFFFFFFFFFFFFF DUP3 GT ISZERO PUSH2 0xE95 JUMPI PUSH2 0xE94 PUSH2 0xE03 JUMP JUMPDEST JUMPDEST PUSH2 0xE9E DUP3 PUSH2 0xDF3 JUMP JUMPDEST SWAP1 POP PUSH1 0x20 DUP2 ADD SWAP1 POP SWAP2 SWAP1 POP JUMP JUMPDEST DUP3 DUP2 DUP4 CALLDATACOPY PUSH0 DUP4 DUP4 ADD MSTORE POP POP POP JUMP JUMPDEST PUSH0 PUSH2 0xECB PUSH2 0xEC6 DUP5 PUSH2 0xE7B JUMP JUMPDEST PUSH2 0xE61 JUMP JUMPDEST SWAP1 POP DUP3 DUP2 MSTORE PUSH1 0x20 DUP2 ADD DUP5 DUP5 DUP5 ADD GT ISZERO PUSH2 0xEE7 JUMPI PUSH2 0xEE6 PUSH2 0xDEF JUMP JUMPDEST JUMPDEST PUSH2 0xEF2 DUP5 DUP3 DUP6 PUSH2 0xEAB JUMP JUMPDEST POP SWAP4 SWAP3 POP POP POP JUMP JUMPDEST PUSH0 DUP3 PUSH1 0x1F DUP4 ADD SLT PUSH2 0xF0E JUMPI PUSH2 0xF0D PUSH2 0xDEB JUMP JUMPDEST JUMPDEST DUP2 CALLDATALOAD PUSH2 0xF1E DUP5 DUP3 PUSH1 0x20 DUP7 ADD PUSH2 0xEB9 JUMP JUMPDEST SWAP2 POP POP SWAP3 SWAP2 POP POP JUMP JUMPDEST PUSH0 PUSH1 0x20 DUP3 DUP5 SUB SLT ISZERO PUSH2 0xF3C JUMPI PUSH2 0xF3B PUSH2 0xDE3 JUMP JUMPDEST JUMPDEST PUSH0 DUP3 ADD CALLDATALOAD PUSH8 0xFFFFFFFFFFFFFFFF DUP2 GT ISZERO PUSH2 0xF59 JUMPI PUSH2 0xF58 PUSH2 0xDE7 JUMP JUMPDEST JUMPDEST PUSH2 0xF65 DUP5 DUP3 DUP6 ADD PUSH2 0xEFA JUMP JUMPDEST SWAP2 POP POP SWAP3 SWAP2 POP POP JUMP JUMPDEST PUSH0 DUP2 SWAP1 POP SWAP2 SWAP1 POP JUMP JUMPDEST PUSH2 0xF80 DUP2 PUSH2 0xF6E JUMP JUMPDEST DUP3 MSTORE POP POP JUMP JUMPDEST PUSH0 PUSH1 0x20 DUP3 ADD SWAP1 POP PUSH2 0xF99 PUSH0 DUP4 ADD DUP5 PUSH2 0xF77 JUMP JUMPDEST SWAP3 SWAP2 POP POP JUMP JUMPDEST PUSH0 PUSH8 0xFFFFFFFFFFFFFFFF DUP3 GT ISZERO PUSH2 0xFB9 JUMPI PUSH2 0xFB8 PUSH2 0xE03 JUMP JUMPDEST JUMPDEST PUSH2 0xFC2 DUP3 PUSH2 0xDF3 JUMP JUMPDEST SWAP1 POP PUSH1 0x20 DUP2 ADD SWAP1 POP SWAP2 SWAP1 POP JUMP JUMPDEST PUSH0 PUSH2 0xFE1 PUSH2 0xFDC DUP5 PUSH2 0xF9F JUMP JUMPDEST PUSH2 0xE61 JUMP JUMPDEST SWAP1 POP DUP3 DUP2 MSTORE PUSH1 0x20 DUP2 ADD DUP5 DUP5 DUP5 ADD GT ISZERO PUSH2 0xFFD JUMPI PUSH2 0xFFC PUSH2 0xDEF JUMP JUMPDEST JUMPDEST PUSH2 0x1008 DUP5 DUP3 DUP6 PUSH2 0xEAB JUMP JUMPDEST POP SWAP4 SWAP3 POP POP POP JUMP JUMPDEST PUSH0 DUP3 PUSH1 0x1F DUP4 ADD SLT PUSH2 0x1024 JUMPI PUSH2 0x1023 PUSH2 0xDEB JUMP JUMPDEST JUMPDEST DUP2 CALLDATALOAD PUSH2 0x1034 DUP5 DUP3 PUSH1 0x20 DUP7 ADD PUSH2 0xFCF JUMP JUMPDEST SWAP2 POP POP SWAP3 SWAP2 POP POP JUMP JUMPDEST PUSH0 PUSH1 0x20 DUP3 DUP5 SUB SLT ISZERO PUSH2 0x1052 JUMPI PUSH2 0x1051 PUSH2 0xDE3 JUMP JUMPDEST JUMPDEST PUSH0 DUP3 ADD CALLDATALOAD PUSH8 0xFFFFFFFFFFFFFFFF DUP2 GT ISZERO PUSH2 0x106F JUMPI PUSH2 0x106E PUSH2 0xDE7 JUMP JUMPDEST JUMPDEST PUSH2 0x107B DUP5 DUP3 DUP6 ADD PUSH2 0x1010 JUMP JUMPDEST SWAP2 POP POP SWAP3 SWAP2 POP POP JUMP JUMPDEST PUSH0 DUP2 MLOAD SWAP1 POP SWAP2 SWAP1 POP JUMP JUMPDEST PUSH0 DUP3 DUP3 MSTORE PUSH1 0x20 DUP3 ADD SWAP1 POP SWAP3 SWAP2 POP POP JUMP JUMPDEST PUSH0 JUMPDEST DUP4 DUP2 LT ISZERO PUSH2 0x10BB JUMPI DUP1 DUP3 ADD MLOAD DUP2 DUP5 ADD MSTORE PUSH1 0x20 DUP2 ADD SWAP1 POP PUSH2 0x10A0 JUMP JUMPDEST PUSH0 DUP5 DUP5 ADD MSTORE POP POP POP POP JUMP JUMPDEST PUSH0 PUSH2 0x10D0 DUP3 PUSH2 0x1084 JUMP JUMPDEST PUSH2 0x10DA DUP2 DUP6 PUSH2 0x108E JUMP JUMPDEST SWAP4 POP PUSH2 0x10EA DUP2 DUP6 PUSH1 0x20 DUP7 ADD PUSH2 0x109E JUMP JUMPDEST PUSH2 0x10F3 DUP2 PUSH2 0xDF3 JUMP JUMPDEST DUP5 ADD SWAP2 POP POP SWAP3 SWAP2 POP POP JUMP JUMPDEST PUSH0 PUSH1 0x20 DUP3 ADD SWAP1 POP DUP2 DUP2 SUB PUSH0 DUP4 ADD MSTORE PUSH2 0x1116 DUP2 DUP5 PUSH2 0x10C6 JUMP JUMPDEST SWAP1 POP SWAP3 SWAP2 POP POP JUMP JUMPDEST PUSH0 PUSH2 0x1128 DUP3 PUSH2 0xD47 JUMP JUMPDEST SWAP1 POP SWAP2 SWAP1 POP JUMP JUMPDEST PUSH2 0x1138 DUP2 PUSH2 0x111E JUMP JUMPDEST DUP3 MSTORE POP POP JUMP JUMPDEST PUSH0 PUSH1 0x20 DUP3 ADD SWAP1 POP PUSH2 0x1151 PUSH0 DUP4 ADD DUP5 PUSH2 0x112F JUMP JUMPDEST SWAP3 SWAP2 POP POP JUMP JUMPDEST PUSH2 0x1160 DUP2 PUSH2 0x111E JUMP JUMPDEST DUP2 EQ PUSH2 0x116A JUMPI PUSH0 DUP1 REVERT JUMPDEST POP JUMP JUMPDEST PUSH0 DUP2 CALLDATALOAD SWAP1 POP PUSH2 0x117B DUP2 PUSH2 0x1157 JUMP JUMPDEST SWAP3 SWAP2 POP POP JUMP JUMPDEST PUSH0 PUSH1 0x20 DUP3 DUP5 SUB SLT ISZERO PUSH2 0x1196 JUMPI PUSH2 0x1195 PUSH2 0xDE3 JUMP JUMPDEST JUMPDEST PUSH0 PUSH2 0x11A3 DUP5 DUP3 DUP6 ADD PUSH2 0x116D JUMP JUMPDEST SWAP2 POP POP SWAP3 SWAP2 POP POP JUMP JUMPDEST PUSH2 0x11B5 DUP2 PUSH2 0xF6E JUMP JUMPDEST DUP2 EQ PUSH2 0x11BF JUMPI PUSH0 DUP1 REVERT JUMPDEST POP JUMP JUMPDEST PUSH0 DUP2 CALLDATALOAD SWAP1 POP PUSH2 0x11D0 DUP2 PUSH2 0x11AC JUMP JUMPDEST SWAP3 SWAP2 POP POP JUMP JUMPDEST PUSH0 PUSH1 0x20 DUP3 DUP5 SUB SLT ISZERO PUSH2 0x11EB JUMPI PUSH2 0x11EA PUSH2 0xDE3 JUMP JUMPDEST JUMPDEST PUSH0 PUSH2 0x11F8 DUP5 DUP3 DUP6 ADD PUSH2 0x11C2 JUMP JUMPDEST SWAP2 POP POP SWAP3 SWAP2 POP POP JUMP JUMPDEST PUSH0 DUP1 PUSH1 0x40 DUP4 DUP6 SUB SLT ISZERO PUSH2 0x1217 JUMPI PUSH2 0x1216 PUSH2 0xDE3 JUMP JUMPDEST JUMPDEST PUSH0 PUSH2 0x1224 DUP6 DUP3 DUP7 ADD PUSH2 0x116D JUMP JUMPDEST SWAP3 POP POP PUSH1 0x20 PUSH2 0x1235 DUP6 DUP3 DUP7 ADD PUSH2 0x11C2 JUMP JUMPDEST SWAP2 POP POP SWAP3 POP SWAP3 SWAP1 POP JUMP JUMPDEST PUSH0 DUP2 ISZERO ISZERO SWAP1 POP SWAP2 SWAP1 POP JUMP JUMPDEST PUSH2 0x1253 DUP2 PUSH2 0x123F JUMP JUMPDEST DUP3 MSTORE POP POP JUMP JUMPDEST PUSH0 DUP2 MLOAD SWAP1 POP SWAP2 SWAP1 POP JUMP JUMPDEST PUSH0 DUP3 DUP3 MSTORE PUSH1 0x20 DUP3 ADD SWAP1 POP SWAP3 SWAP2 POP POP JUMP JUMPDEST PUSH0 PUSH2 0x127D DUP3 PUSH2 0x1259 JUMP JUMPDEST PUSH2 0x1287 DUP2 DUP6 PUSH2 0x1263 JUMP JUMPDEST SWAP4 POP PUSH2 0x1297 DUP2 DUP6 PUSH1 0x20 DUP7 ADD PUSH2 0x109E JUMP JUMPDEST PUSH2 0x12A0 DUP2 PUSH2 0xDF3 JUMP JUMPDEST DUP5 ADD SWAP2 POP POP SWAP3 SWAP2 POP POP JUMP JUMPDEST PUSH0 PUSH1 0xE0 DUP3 ADD SWAP1 POP PUSH2 0x12BE PUSH0 DUP4 ADD DUP11 PUSH2 0x112F JUMP JUMPDEST PUSH2 0x12CB PUSH1 0x20 DUP4 ADD DUP10 PUSH2 0x124A JUMP JUMPDEST PUSH2 0x12D8 PUSH1 0x40 DUP4 ADD DUP9 PUSH2 0xF77 JUMP JUMPDEST PUSH2 0x12E5 PUSH1 0x60 DUP4 ADD DUP8 PUSH2 0xF77 JUMP JUMPDEST PUSH2 0x12F2 PUSH1 0x80 DUP4 ADD DUP7 PUSH2 0x124A JUMP JUMPDEST DUP2 DUP2 SUB PUSH1 0xA0 DUP4 ADD MSTORE PUSH2 0x1304 DUP2 DUP6 PUSH2 0x1273 JUMP JUMPDEST SWAP1 POP PUSH2 0x1313 PUSH1 0xC0 DUP4 ADD DUP5 PUSH2 0xF77 JUMP JUMPDEST SWAP9 SWAP8 POP POP POP POP POP POP POP POP JUMP JUMPDEST PUSH32 0x4279746573206C656E677468206D757374206265203332000000000000000000 PUSH0 DUP3 ADD MSTORE POP JUMP JUMPDEST PUSH0 PUSH2 0x1353 PUSH1 0x17 DUP4 PUSH2 0x1263 JUMP JUMPDEST SWAP2 POP PUSH2 0x135E DUP3 PUSH2 0x131F JUMP JUMPDEST PUSH1 0x20 DUP3 ADD SWAP1 POP SWAP2 SWAP1 POP JUMP JUMPDEST PUSH0 PUSH1 0x20 DUP3 ADD SWAP1 POP DUP2 DUP2 SUB PUSH0 DUP4 ADD MSTORE PUSH2 0x1380 DUP2 PUSH2 0x1347 JUMP JUMPDEST SWAP1 POP SWAP2 SWAP1 POP JUMP JUMPDEST PUSH0 PUSH1 0x20 DUP3 ADD SWAP1 POP DUP2 DUP2 SUB PUSH0 DUP4 ADD MSTORE PUSH2 0x139F DUP2 DUP5 PUSH2 0x1273 JUMP JUMPDEST SWAP1 POP SWAP3 SWAP2 POP POP JUMP JUMPDEST PUSH0 DUP1 REVERT JUMPDEST PUSH0 DUP1 REVERT JUMPDEST PUSH0 PUSH2 0x13C1 PUSH2 0x13BC DUP5 PUSH2 0xE7B JUMP JUMPDEST PUSH2 0xE61 JUMP JUMPDEST SWAP1 POP DUP3 DUP2 MSTORE PUSH1 0x20 DUP2 ADD DUP5 DUP5 DUP5 ADD GT ISZERO PUSH2 0x13DD JUMPI PUSH2 0x13DC PUSH2 0xDEF JUMP JUMPDEST JUMPDEST PUSH2 0x13E8 DUP5 DUP3 DUP6 PUSH2 0x109E JUMP JUMPDEST POP SWAP4 SWAP3 POP POP POP JUMP JUMPDEST PUSH0 DUP3 PUSH1 0x1F DUP4 ADD SLT PUSH2 0x1404 JUMPI PUSH2 0x1403 PUSH2 0xDEB JUMP JUMPDEST JUMPDEST DUP2 MLOAD PUSH2 0x1414 DUP5 DUP3 PUSH1 0x20 DUP7 ADD PUSH2 0x13AF JUMP JUMPDEST SWAP2 POP POP SWAP3 SWAP2 POP POP JUMP JUMPDEST PUSH0 DUP2 MLOAD SWAP1 POP PUSH2 0x142B DUP2 PUSH2 0x11AC JUMP JUMPDEST SWAP3 SWAP2 POP POP JUMP JUMPDEST PUSH0 PUSH1 0x40 DUP3 DUP5 SUB SLT ISZERO PUSH2 0x1446 JUMPI PUSH2 0x1445 PUSH2 0x13A7 JUMP JUMPDEST JUMPDEST PUSH2 0x1450 PUSH1 0x40 PUSH2 0xE61 JUMP JUMPDEST SWAP1 POP PUSH0 DUP3 ADD MLOAD PUSH8 0xFFFFFFFFFFFFFFFF DUP2 GT ISZERO PUSH2 0x146F JUMPI PUSH2 0x146E PUSH2 0x13AB JUMP JUMPDEST JUMPDEST PUSH2 0x147B DUP5 DUP3 DUP6 ADD PUSH2 0x13F0 JUMP JUMPDEST PUSH0 DUP4 ADD MSTORE POP PUSH1 0x20 PUSH2 0x148E DUP5 DUP3 DUP6 ADD PUSH2 0x141D JUMP JUMPDEST PUSH1 0x20 DUP4 ADD MSTORE POP SWAP3 SWAP2 POP POP JUMP JUMPDEST PUSH0 PUSH1 0x20 DUP3 DUP5 SUB SLT ISZERO PUSH2 0x14AF JUMPI PUSH2 0x14AE PUSH2 0xDE3 JUMP JUMPDEST JUMPDEST PUSH0 DUP3 ADD MLOAD PUSH8 0xFFFFFFFFFFFFFFFF DUP2 GT ISZERO PUSH2 0x14CC JUMPI PUSH2 0x14CB PUSH2 0xDE7 JUMP JUMPDEST JUMPDEST PUSH2 0x14D8 DUP5 DUP3 DUP6 ADD PUSH2 0x1431 JUMP JUMPDEST SWAP2 POP POP SWAP3 SWAP2 POP POP JUMP JUMPDEST PUSH32 0x56616C7565206D7573742062652067726561746572207468616E207A65726F00 PUSH0 DUP3 ADD MSTORE POP JUMP JUMPDEST PUSH0 PUSH2 0x1515 PUSH1 0x1F DUP4 PUSH2 0x1263 JUMP JUMPDEST SWAP2 POP PUSH2 0x1520 DUP3 PUSH2 0x14E1 JUMP JUMPDEST PUSH1 0x20 DUP3 ADD SWAP1 POP SWAP2 SWAP1 POP JUMP JUMPDEST PUSH0 PUSH1 0x20 DUP3 ADD SWAP1 POP DUP2 DUP2 SUB PUSH0 DUP4 ADD MSTORE PUSH2 0x1542 DUP2 PUSH2 0x1509 JUMP JUMPDEST SWAP1 POP SWAP2 SWAP1 POP JUMP JUMPDEST PUSH32 0x4E487B7100000000000000000000000000000000000000000000000000000000 PUSH0 MSTORE PUSH1 0x11 PUSH1 0x4 MSTORE PUSH1 0x24 PUSH0 REVERT JUMPDEST PUSH0 PUSH2 0x1580 DUP3 PUSH2 0xF6E JUMP JUMPDEST SWAP2 POP PUSH2 0x158B DUP4 PUSH2 0xF6E JUMP JUMPDEST SWAP3 POP DUP3 DUP3 ADD SWAP1 POP DUP1 DUP3 GT ISZERO PUSH2 0x15A3 JUMPI PUSH2 0x15A2 PUSH2 0x1549 JUMP JUMPDEST JUMPDEST SWAP3 SWAP2 POP POP JUMP JUMPDEST PUSH32 0x5465616D20646F6573206E6F7420657869737400000000000000000000000000 PUSH0 DUP3 ADD MSTORE POP JUMP JUMPDEST PUSH0 PUSH2 0x15DD PUSH1 0x13 DUP4 PUSH2 0x1263 JUMP JUMPDEST SWAP2 POP PUSH2 0x15E8 DUP3 PUSH2 0x15A9 JUMP JUMPDEST PUSH1 0x20 DUP3 ADD SWAP1 POP SWAP2 SWAP1 POP JUMP JUMPDEST PUSH0 PUSH1 0x20 DUP3 ADD SWAP1 POP DUP2 DUP2 SUB PUSH0 DUP4 ADD MSTORE PUSH2 0x160A DUP2 PUSH2 0x15D1 JUMP JUMPDEST SWAP1 POP SWAP2 SWAP1 POP JUMP JUMPDEST PUSH32 0x4E487B7100000000000000000000000000000000000000000000000000000000 PUSH0 MSTORE PUSH1 0x12 PUSH1 0x4 MSTORE PUSH1 0x24 PUSH0 REVERT JUMPDEST PUSH0 PUSH2 0x1648 DUP3 PUSH2 0xF6E JUMP JUMPDEST SWAP2 POP PUSH2 0x1653 DUP4 PUSH2 0xF6E JUMP JUMPDEST SWAP3 POP DUP3 PUSH2 0x1663 JUMPI PUSH2 0x1662 PUSH2 0x1611 JUMP JUMPDEST JUMPDEST DUP3 DUP3 DIV SWAP1 POP SWAP3 SWAP2 POP POP JUMP JUMPDEST PUSH32 0x4E487B7100000000000000000000000000000000000000000000000000000000 PUSH0 MSTORE PUSH1 0x22 PUSH1 0x4 MSTORE PUSH1 0x24 PUSH0 REVERT JUMPDEST PUSH0 PUSH1 0x2 DUP3 DIV SWAP1 POP PUSH1 0x1 DUP3 AND DUP1 PUSH2 0x16B2 JUMPI PUSH1 0x7F DUP3 AND SWAP2 POP JUMPDEST PUSH1 0x20 DUP3 LT DUP2 SUB PUSH2 0x16C5 JUMPI PUSH2 0x16C4 PUSH2 0x166E JUMP JUMPDEST JUMPDEST POP SWAP2 SWAP1 POP JUMP JUMPDEST PUSH0 DUP2 SWAP1 POP DUP2 PUSH0 MSTORE PUSH1 0x20 PUSH0 KECCAK256 SWAP1 POP SWAP2 SWAP1 POP JUMP JUMPDEST PUSH0 PUSH1 0x20 PUSH1 0x1F DUP4 ADD DIV SWAP1 POP SWAP2 SWAP1 POP JUMP JUMPDEST PUSH0 DUP3 DUP3 SHL SWAP1 POP SWAP3 SWAP2 POP POP JUMP JUMPDEST PUSH0 PUSH1 0x8 DUP4 MUL PUSH2 0x1727 PUSH32 0xFFFFFFFFFFFFFFFFFFFFFFFFFFFFFFFFFFFFFFFFFFFFFFFFFFFFFFFFFFFFFFFF DUP3 PUSH2 0x16EC JUMP JUMPDEST PUSH2 0x1731 DUP7 DUP4 PUSH2 0x16EC JUMP JUMPDEST SWAP6 POP DUP1 NOT DUP5 AND SWAP4 POP DUP1 DUP7 AND DUP5 OR SWAP3 POP POP POP SWAP4 SWAP3 POP POP POP JUMP JUMPDEST PUSH0 PUSH2 0x1763 PUSH2 0x175E PUSH2 0x1759 DUP5 PUSH2 0xF6E JUMP JUMPDEST PUSH2 0xD66 JUMP JUMPDEST PUSH2 0xF6E JUMP JUMPDEST SWAP1 POP SWAP2 SWAP1 POP JUMP JUMPDEST PUSH0 DUP2 SWAP1 POP SWAP2 SWAP1 POP JUMP JUMPDEST PUSH2 0x177C DUP4 PUSH2 0x1749 JUMP JUMPDEST PUSH2 0x1790 PUSH2 0x1788 DUP3 PUSH2 0x176A JUMP JUMPDEST DUP5 DUP5 SLOAD PUSH2 0x16F8 JUMP JUMPDEST DUP3 SSTORE POP POP POP POP JUMP JUMPDEST PUSH0 SWAP1 JUMP JUMPDEST PUSH2 0x17A4 PUSH2 0x1798 JUMP JUMPDEST PUSH2 0x17AF DUP2 DUP5 DUP5 PUSH2 0x1773 JUMP JUMPDEST POP POP POP JUMP JUMPDEST JUMPDEST DUP2 DUP2 LT ISZERO PUSH2 0x17D2 JUMPI PUSH2 0x17C7 PUSH0 DUP3 PUSH2 0x179C JUMP JUMPDEST PUSH1 0x1 DUP2 ADD SWAP1 POP PUSH2 0x17B5 JUMP JUMPDEST POP POP JUMP JUMPDEST PUSH1 0x1F DUP3 GT ISZERO PUSH2 0x1817 JUMPI PUSH2 0x17E8 DUP2 PUSH2 0x16CB JUMP JUMPDEST PUSH2 0x17F1 DUP5 PUSH2 0x16DD JUMP JUMPDEST DUP2 ADD PUSH1 0x20 DUP6 LT ISZERO PUSH2 0x1800 JUMPI DUP2 SWAP1 POP JUMPDEST PUSH2 0x1814 PUSH2 0x180C DUP6 PUSH2 0x16DD JUMP JUMPDEST DUP4 ADD DUP3 PUSH2 0x17B4 JUMP JUMPDEST POP POP JUMPDEST POP POP POP JUMP JUMPDEST PUSH0 DUP3 DUP3 SHR SWAP1 POP SWAP3 SWAP2 POP POP JUMP JUMPDEST PUSH0 PUSH2 0x1837 PUSH0 NOT DUP5 PUSH1 0x8 MUL PUSH2 0x181C JUMP JUMPDEST NOT DUP1 DUP4 AND SWAP2 POP POP SWAP3 SWAP2 POP POP JUMP JUMPDEST PUSH0 PUSH2 0x184F DUP4 DUP4 PUSH2 0x1828 JUMP JUMPDEST SWAP2 POP DUP3 PUSH1 0x2 MUL DUP3 OR SWAP1 POP SWAP3 SWAP2 POP POP JUMP JUMPDEST PUSH2 0x1868 DUP3 PUSH2 0x1259 JUMP JUMPDEST PUSH8 0xFFFFFFFFFFFFFFFF DUP2 GT ISZERO PUSH2 0x1881 JUMPI PUSH2 0x1880 PUSH2 0xE03 JUMP JUMPDEST JUMPDEST PUSH2 0x188B DUP3 SLOAD PUSH2 0x169B JUMP JUMPDEST PUSH2 0x1896 DUP3 DUP3 DUP6 PUSH2 0x17D6 JUMP JUMPDEST PUSH0 PUSH1 0x20 SWAP1 POP PUSH1 0x1F DUP4 GT PUSH1 0x1 DUP2 EQ PUSH2 0x18C7 JUMPI PUSH0 DUP5 ISZERO PUSH2 0x18B5 JUMPI DUP3 DUP8 ADD MLOAD SWAP1 POP JUMPDEST PUSH2 0x18BF DUP6 DUP3 PUSH2 0x1844 JUMP JUMPDEST DUP7 SSTORE POP PUSH2 0x1926 JUMP JUMPDEST PUSH1 0x1F NOT DUP5 AND PUSH2 0x18D5 DUP7 PUSH2 0x16CB JUMP JUMPDEST PUSH0 JUMPDEST DUP3 DUP2 LT ISZERO PUSH2 0x18FC JUMPI DUP5 DUP10 ADD MLOAD DUP3 SSTORE PUSH1 0x1 DUP3 ADD SWAP2 POP PUSH1 0x20 DUP6 ADD SWAP5 POP PUSH1 0x20 DUP2 ADD SWAP1 POP PUSH2 0x18D7 JUMP JUMPDEST DUP7 DUP4 LT ISZERO PUSH2 0x1919 JUMPI DUP5 DUP10 ADD MLOAD PUSH2 0x1915 PUSH1 0x1F DUP10 AND DUP3 PUSH2 0x1828 JUMP JUMPDEST DUP4 SSTORE POP JUMPDEST PUSH1 0x1 PUSH1 0x2 DUP9 MUL ADD DUP9 SSTORE POP POP POP JUMPDEST POP POP POP POP POP POP JUMP JUMPDEST PUSH0 DUP2 SWAP1 POP SWAP3 SWAP2 POP POP JUMP JUMPDEST PUSH0 PUSH2 0x1942 DUP3 PUSH2 0x1259 JUMP JUMPDEST PUSH2 0x194C DUP2 DUP6 PUSH2 0x192E JUMP JUMPDEST SWAP4 POP PUSH2 0x195C DUP2 DUP6 PUSH1 0x20 DUP7 ADD PUSH2 0x109E JUMP JUMPDEST DUP1 DUP5 ADD SWAP2 POP POP SWAP3 SWAP2 POP POP JUMP JUMPDEST PUSH0 PUSH2 0x1973 DUP3 DUP5 PUSH2 0x1938 JUMP JUMPDEST SWAP2 POP DUP2 SWAP1 POP SWAP3 SWAP2 POP POP JUMP JUMPDEST PUSH32 0x436F6E7472616374206973206E6F74206F70656E000000000000000000000000 PUSH0 DUP3 ADD MSTORE POP JUMP JUMPDEST PUSH0 PUSH2 0x19B2 PUSH1 0x14 DUP4 PUSH2 0x1263 JUMP JUMPDEST SWAP2 POP PUSH2 0x19BD DUP3 PUSH2 0x197E JUMP JUMPDEST PUSH1 0x20 DUP3 ADD SWAP1 POP SWAP2 SWAP1 POP JUMP JUMPDEST PUSH0 PUSH1 0x20 DUP3 ADD SWAP1 POP DUP2 DUP2 SUB PUSH0 DUP4 ADD MSTORE PUSH2 0x19DF DUP2 PUSH2 0x19A6 JUMP JUMPDEST SWAP1 POP SWAP2 SWAP1 POP JUMP JUMPDEST PUSH32 0x4F6E6C79206C6F6E672070617274792063616E20636C6F73652074686520636F PUSH0 DUP3 ADD MSTORE PUSH32 0x6E74726163740000000000000000000000000000000000000000000000000000 PUSH1 0x20 DUP3 ADD MSTORE POP JUMP JUMPDEST PUSH0 PUSH2 0x1A40 PUSH1 0x26 DUP4 PUSH2 0x1263 JUMP JUMPDEST SWAP2 POP PUSH2 0x1A4B DUP3 PUSH2 0x19E6 JUMP JUMPDEST PUSH1 0x40 DUP3 ADD SWAP1 POP SWAP2 SWAP1 POP JUMP JUMPDEST PUSH0 PUSH1 0x20 DUP3 ADD SWAP1 POP DUP2 DUP2 SUB PUSH0 DUP4 ADD MSTORE PUSH2 0x1A6D DUP2 PUSH2 0x1A34 JUMP JUMPDEST SWAP1 POP SWAP2 SWAP1 POP JUMP JUMPDEST PUSH0 PUSH2 0x1A7E DUP3 PUSH2 0xF6E JUMP JUMPDEST SWAP2 POP PUSH2 0x1A89 DUP4 PUSH2 0xF6E JUMP JUMPDEST SWAP3 POP DUP3 DUP3 MUL PUSH2 0x1A97 DUP2 PUSH2 0xF6E JUMP JUMPDEST SWAP2 POP DUP3 DUP3 DIV DUP5 EQ DUP4 ISZERO OR PUSH2 0x1AAE JUMPI PUSH2 0x1AAD PUSH2 0x1549 JUMP JUMPDEST JUMPDEST POP SWAP3 SWAP2 POP POP JUMP INVALID LOG2 PUSH5 0x6970667358 0x22 SLT KECCAK256 0x2B 0xD7 LOG4 0xC0 0xB0 MUL JUMPI 0xAB 0xEA 0x21 SDIV 0x4F COINBASE PUSH24 0xC8E58DCEA100278B00706D96CC3E50E6DDAD64736F6C6343 STOP ADDMOD OR STOP CALLER "
				},
				"gasEstimates": {
					"creation": {
						"codeDepositCost": "1378200",
						"executionCost": "infinite",
						"totalCost": "infinite"
					},
					"external": {
						"bytesToUint(bytes)": "infinite",
						"closeContract(uint256)": "infinite",
						"contractCount(address)": "2847",
						"contracts(address,uint256)": "infinite",
						"eloFeed()": "infinite",
						"getBalance()": "357",
						"getEloRanking(string)": "infinite",
						"getEloRankingAsByte(string)": "infinite",
						"openContract(string)": "infinite",
						"owner()": "2604",
						"quantitiesLive(string)": "infinite",
						"rankings(string)": "infinite",
						"renounceOwnership()": "infinite",
						"transferOwnership(address)": "infinite"
					}
				},
				"methodIdentifiers": {
					"bytesToUint(bytes)": "02d06d05",
					"closeContract(uint256)": "d0ce7360",
					"contractCount(address)": "ac580de7",
					"contracts(address,uint256)": "ed23f8c3",
					"eloFeed()": "0232424d",
					"getBalance()": "12065fe0",
					"getEloRanking(string)": "08ab2d4b",
					"getEloRankingAsByte(string)": "27826f1e",
					"openContract(string)": "9da751bb",
					"owner()": "8da5cb5b",
					"quantitiesLive(string)": "db027e05",
					"rankings(string)": "fdf3f74d",
					"renounceOwnership()": "715018a6",
					"transferOwnership(address)": "f2fde38b"
				}
			},
			"storageLayout": {
				"storage": [
					{
						"astId": 54,
						"contract": "PerpContract/Main.sol:PerpetualDEX",
						"label": "_owner",
						"offset": 0,
						"slot": "0",
						"type": "t_address"
					},
					{
						"astId": 345,
						"contract": "PerpContract/Main.sol:PerpetualDEX",
						"label": "eloFeed",
						"offset": 0,
						"slot": "1",
						"type": "t_contract(IFunctionConsumer)334"
					},
					{
						"astId": 364,
						"contract": "PerpContract/Main.sol:PerpetualDEX",
						"label": "quantity",
						"offset": 0,
						"slot": "2",
						"type": "t_mapping(t_uint256,t_uint256)"
					},
					{
						"astId": 371,
						"contract": "PerpContract/Main.sol:PerpetualDEX",
						"label": "contracts",
						"offset": 0,
						"slot": "3",
						"type": "t_mapping(t_address,t_mapping(t_uint256,t_struct(PerpContract)360_storage))"
					},
					{
						"astId": 375,
						"contract": "PerpContract/Main.sol:PerpetualDEX",
						"label": "contractCount",
						"offset": 0,
						"slot": "4",
						"type": "t_mapping(t_address,t_uint256)"
					},
					{
						"astId": 379,
						"contract": "PerpContract/Main.sol:PerpetualDEX",
						"label": "rankings",
						"offset": 0,
						"slot": "5",
						"type": "t_mapping(t_string_memory_ptr,t_uint256)"
					},
					{
						"astId": 383,
						"contract": "PerpContract/Main.sol:PerpetualDEX",
						"label": "quantitiesLive",
						"offset": 0,
						"slot": "6",
						"type": "t_mapping(t_string_memory_ptr,t_uint256)"
					},
					{
						"astId": 385,
						"contract": "PerpContract/Main.sol:PerpetualDEX",
						"label": "totalPool",
						"offset": 0,
						"slot": "7",
						"type": "t_uint256"
					}
				],
				"types": {
					"t_address": {
						"encoding": "inplace",
						"label": "address",
						"numberOfBytes": "20"
					},
					"t_bool": {
						"encoding": "inplace",
						"label": "bool",
						"numberOfBytes": "1"
					},
					"t_contract(IFunctionConsumer)334": {
						"encoding": "inplace",
						"label": "contract IFunctionConsumer",
						"numberOfBytes": "20"
					},
					"t_mapping(t_address,t_mapping(t_uint256,t_struct(PerpContract)360_storage))": {
						"encoding": "mapping",
						"key": "t_address",
						"label": "mapping(address => mapping(uint256 => struct PerpetualDEX.PerpContract))",
						"numberOfBytes": "32",
						"value": "t_mapping(t_uint256,t_struct(PerpContract)360_storage)"
					},
					"t_mapping(t_address,t_uint256)": {
						"encoding": "mapping",
						"key": "t_address",
						"label": "mapping(address => uint256)",
						"numberOfBytes": "32",
						"value": "t_uint256"
					},
					"t_mapping(t_string_memory_ptr,t_uint256)": {
						"encoding": "mapping",
						"key": "t_string_memory_ptr",
						"label": "mapping(string => uint256)",
						"numberOfBytes": "32",
						"value": "t_uint256"
					},
					"t_mapping(t_uint256,t_struct(PerpContract)360_storage)": {
						"encoding": "mapping",
						"key": "t_uint256",
						"label": "mapping(uint256 => struct PerpetualDEX.PerpContract)",
						"numberOfBytes": "32",
						"value": "t_struct(PerpContract)360_storage"
					},
					"t_mapping(t_uint256,t_uint256)": {
						"encoding": "mapping",
						"key": "t_uint256",
						"label": "mapping(uint256 => uint256)",
						"numberOfBytes": "32",
						"value": "t_uint256"
					},
					"t_string_memory_ptr": {
						"encoding": "bytes",
						"label": "string",
						"numberOfBytes": "32"
					},
					"t_string_storage": {
						"encoding": "bytes",
						"label": "string",
						"numberOfBytes": "32"
					},
					"t_struct(PerpContract)360_storage": {
						"encoding": "inplace",
						"label": "struct PerpetualDEX.PerpContract",
						"members": [
							{
								"astId": 347,
								"contract": "PerpContract/Main.sol:PerpetualDEX",
								"label": "longParty",
								"offset": 0,
								"slot": "0",
								"type": "t_address"
							},
							{
								"astId": 349,
								"contract": "PerpContract/Main.sol:PerpetualDEX",
								"label": "isBack",
								"offset": 20,
								"slot": "0",
								"type": "t_bool"
							},
							{
								"astId": 351,
								"contract": "PerpContract/Main.sol:PerpetualDEX",
								"label": "quantity",
								"offset": 0,
								"slot": "1",
								"type": "t_uint256"
							},
							{
								"astId": 353,
								"contract": "PerpContract/Main.sol:PerpetualDEX",
								"label": "fundingRate",
								"offset": 0,
								"slot": "2",
								"type": "t_uint256"
							},
							{
								"astId": 355,
								"contract": "PerpContract/Main.sol:PerpetualDEX",
								"label": "isOpen",
								"offset": 0,
								"slot": "3",
								"type": "t_bool"
							},
							{
								"astId": 357,
								"contract": "PerpContract/Main.sol:PerpetualDEX",
								"label": "team",
								"offset": 0,
								"slot": "4",
								"type": "t_string_storage"
							},
							{
								"astId": 359,
								"contract": "PerpContract/Main.sol:PerpetualDEX",
								"label": "initialElo",
								"offset": 0,
								"slot": "5",
								"type": "t_uint256"
							}
						],
						"numberOfBytes": "192"
					},
					"t_uint256": {
						"encoding": "inplace",
						"label": "uint256",
						"numberOfBytes": "32"
					}
				}
			},
			"userdoc": {
				"kind": "user",
				"methods": {},
				"version": 1
			}
		}
	}
}